{
	"coin.sol": {
		"AucEngine": {
			"abi": [
				{
					"inputs": [],
					"stateMutability": "nonpayable",
					"type": "constructor"
				},
				{
					"anonymous": false,
					"inputs": [
						{
							"indexed": false,
							"internalType": "uint256",
							"name": "index",
							"type": "uint256"
						},
						{
							"indexed": false,
							"internalType": "string",
							"name": "itemName",
							"type": "string"
						},
						{
							"indexed": false,
							"internalType": "uint256",
							"name": "startingPrice",
							"type": "uint256"
						},
						{
							"indexed": false,
							"internalType": "uint256",
							"name": "duration",
							"type": "uint256"
						}
					],
					"name": "AuctionCreated",
					"type": "event"
				},
				{
					"inputs": [
						{
							"internalType": "uint256",
							"name": "",
							"type": "uint256"
						}
					],
					"name": "auctions",
					"outputs": [
						{
							"internalType": "address payable",
							"name": "seller",
							"type": "address"
						},
						{
							"internalType": "uint256",
							"name": "startingPrice",
							"type": "uint256"
						},
						{
							"internalType": "uint256",
							"name": "finalPrice",
							"type": "uint256"
						},
						{
							"internalType": "uint256",
							"name": "startAt",
							"type": "uint256"
						},
						{
							"internalType": "uint256",
							"name": "endsAt",
							"type": "uint256"
						},
						{
							"internalType": "uint256",
							"name": "discountRate",
							"type": "uint256"
						},
						{
							"internalType": "string",
							"name": "item",
							"type": "string"
						},
						{
							"internalType": "bool",
							"name": "stopped",
							"type": "bool"
						}
					],
					"stateMutability": "view",
					"type": "function"
				},
				{
					"inputs": [
						{
							"internalType": "uint256",
							"name": "_startingPrice",
							"type": "uint256"
						},
						{
							"internalType": "uint256",
							"name": "_discountRate",
							"type": "uint256"
						},
						{
							"internalType": "string",
							"name": "_item",
							"type": "string"
						},
						{
							"internalType": "uint256",
							"name": "_duration",
							"type": "uint256"
						}
					],
					"name": "createAuction",
					"outputs": [],
					"stateMutability": "nonpayable",
					"type": "function"
				},
				{
					"inputs": [
						{
							"internalType": "uint256",
							"name": "index",
							"type": "uint256"
						}
					],
					"name": "getPriceFor",
					"outputs": [
						{
							"internalType": "uint256",
							"name": "",
							"type": "uint256"
						}
					],
					"stateMutability": "view",
					"type": "function"
				},
				{
					"inputs": [],
					"name": "owner",
					"outputs": [
						{
							"internalType": "address",
							"name": "",
							"type": "address"
						}
					],
					"stateMutability": "view",
					"type": "function"
				}
			],
			"devdoc": {
				"kind": "dev",
				"methods": {},
				"version": 1
			},
			"evm": {
				"assembly": "    /* \"coin.sol\":68:1605  contract AucEngine {\r... */\n  mstore(0x40, 0x80)\n    /* \"coin.sol\":566:618  constructor()  {\r... */\n  callvalue\n  dup1\n  iszero\n  tag_1\n  jumpi\n  0x00\n  dup1\n  revert\ntag_1:\n  pop\n    /* \"coin.sol\":600:610  msg.sender */\n  caller\n    /* \"coin.sol\":592:597  owner */\n  0x00\n  dup1\n    /* \"coin.sol\":592:610  owner = msg.sender */\n  0x0100\n  exp\n  dup2\n  sload\n  dup2\n  0xffffffffffffffffffffffffffffffffffffffff\n  mul\n  not\n  and\n  swap1\n  dup4\n  0xffffffffffffffffffffffffffffffffffffffff\n  and\n  mul\n  or\n  swap1\n  sstore\n  pop\n    /* \"coin.sol\":68:1605  contract AucEngine {\r... */\n  dataSize(sub_0)\n  dup1\n  dataOffset(sub_0)\n  0x00\n  codecopy\n  0x00\n  return\nstop\n\nsub_0: assembly {\n        /* \"coin.sol\":68:1605  contract AucEngine {\r... */\n      mstore(0x40, 0x80)\n      callvalue\n      dup1\n      iszero\n      tag_1\n      jumpi\n      0x00\n      dup1\n      revert\n    tag_1:\n      pop\n      jumpi(tag_2, lt(calldatasize, 0x04))\n      shr(0xe0, calldataload(0x00))\n      dup1\n      0x4534cd9c\n      eq\n      tag_3\n      jumpi\n      dup1\n      0x571a26a0\n      eq\n      tag_4\n      jumpi\n      dup1\n      0x8da5cb5b\n      eq\n      tag_5\n      jumpi\n      dup1\n      0xe9835d15\n      eq\n      tag_6\n      jumpi\n    tag_2:\n      0x00\n      dup1\n      revert\n        /* \"coin.sol\":1420:1594  function getPriceFor(uint index) public view returns(uint) {\r... */\n    tag_3:\n      tag_7\n      0x04\n      dup1\n      calldatasize\n      sub\n      dup2\n      add\n      swap1\n      tag_8\n      swap2\n      swap1\n      tag_9\n      jump\t// in\n    tag_8:\n      tag_10\n      jump\t// in\n    tag_7:\n      mload(0x40)\n      tag_11\n      swap2\n      swap1\n      tag_12\n      jump\t// in\n    tag_11:\n      mload(0x40)\n      dup1\n      swap2\n      sub\n      swap1\n      return\n        /* \"coin.sol\":433:458  Auction[] public auctions */\n    tag_4:\n      tag_13\n      0x04\n      dup1\n      calldatasize\n      sub\n      dup2\n      add\n      swap1\n      tag_14\n      swap2\n      swap1\n      tag_9\n      jump\t// in\n    tag_14:\n      tag_15\n      jump\t// in\n    tag_13:\n      mload(0x40)\n      tag_16\n      swap9\n      swap8\n      swap7\n      swap6\n      swap5\n      swap4\n      swap3\n      swap2\n      swap1\n      tag_17\n      jump\t// in\n    tag_16:\n      mload(0x40)\n      dup1\n      swap2\n      sub\n      swap1\n      return\n        /* \"coin.sol\":94:114  address public owner */\n    tag_5:\n      tag_18\n      tag_19\n      jump\t// in\n    tag_18:\n      mload(0x40)\n      tag_20\n      swap2\n      swap1\n      tag_21\n      jump\t// in\n    tag_20:\n      mload(0x40)\n      dup1\n      swap2\n      sub\n      swap1\n      return\n        /* \"coin.sol\":630:1406  function createAuction(uint _startingPrice, uint _discountRate, string calldata _item, uint _duration) external {\r... */\n    tag_6:\n      tag_22\n      0x04\n      dup1\n      calldatasize\n      sub\n      dup2\n      add\n      swap1\n      tag_23\n      swap2\n      swap1\n      tag_24\n      jump\t// in\n    tag_23:\n      tag_25\n      jump\t// in\n    tag_22:\n      stop\n        /* \"coin.sol\":1420:1594  function getPriceFor(uint index) public view returns(uint) {\r... */\n    tag_10:\n        /* \"coin.sol\":1473:1477  uint */\n      0x00\n        /* \"coin.sol\":1490:1513  Auction memory cAuction */\n      dup1\n        /* \"coin.sol\":1516:1524  auctions */\n      0x01\n        /* \"coin.sol\":1525:1530  index */\n      dup4\n        /* \"coin.sol\":1516:1531  auctions[index] */\n      dup2\n      sload\n      dup2\n      lt\n      tag_27\n      jumpi\n      mstore(0x00, 0x4e487b7100000000000000000000000000000000000000000000000000000000)\n      mstore(0x04, 0x32)\n      revert(0x00, 0x24)\n    tag_27:\n      swap1\n      0x00\n      mstore\n      keccak256(0x00, 0x20)\n      swap1\n      0x08\n      mul\n      add\n        /* \"coin.sol\":1490:1531  Auction memory cAuction = auctions[index] */\n      mload(0x40)\n      dup1\n      0x0100\n      add\n      0x40\n      mstore\n      swap1\n      dup2\n      0x00\n      dup3\n      add\n      0x00\n      swap1\n      sload\n      swap1\n      0x0100\n      exp\n      swap1\n      div\n      0xffffffffffffffffffffffffffffffffffffffff\n      and\n      0xffffffffffffffffffffffffffffffffffffffff\n      and\n      0xffffffffffffffffffffffffffffffffffffffff\n      and\n      dup2\n      mstore\n      0x20\n      add\n      0x01\n      dup3\n      add\n      sload\n      dup2\n      mstore\n      0x20\n      add\n      0x02\n      dup3\n      add\n      sload\n      dup2\n      mstore\n      0x20\n      add\n      0x03\n      dup3\n      add\n      sload\n      dup2\n      mstore\n      0x20\n      add\n      0x04\n      dup3\n      add\n      sload\n      dup2\n      mstore\n      0x20\n      add\n      0x05\n      dup3\n      add\n      sload\n      dup2\n      mstore\n      0x20\n      add\n      0x06\n      dup3\n      add\n      dup1\n      sload\n      tag_29\n      swap1\n      tag_30\n      jump\t// in\n    tag_29:\n      dup1\n      0x1f\n      add\n      0x20\n      dup1\n      swap2\n      div\n      mul\n      0x20\n      add\n      mload(0x40)\n      swap1\n      dup2\n      add\n      0x40\n      mstore\n      dup1\n      swap3\n      swap2\n      swap1\n      dup2\n      dup2\n      mstore\n      0x20\n      add\n      dup3\n      dup1\n      sload\n      tag_31\n      swap1\n      tag_30\n      jump\t// in\n    tag_31:\n      dup1\n      iszero\n      tag_32\n      jumpi\n      dup1\n      0x1f\n      lt\n      tag_33\n      jumpi\n      0x0100\n      dup1\n      dup4\n      sload\n      div\n      mul\n      dup4\n      mstore\n      swap2\n      0x20\n      add\n      swap2\n      jump(tag_32)\n    tag_33:\n      dup3\n      add\n      swap2\n      swap1\n      0x00\n      mstore\n      keccak256(0x00, 0x20)\n      swap1\n    tag_34:\n      dup2\n      sload\n      dup2\n      mstore\n      swap1\n      0x01\n      add\n      swap1\n      0x20\n      add\n      dup1\n      dup4\n      gt\n      tag_34\n      jumpi\n      dup3\n      swap1\n      sub\n      0x1f\n      and\n      dup3\n      add\n      swap2\n    tag_32:\n      pop\n      pop\n      pop\n      pop\n      pop\n      dup2\n      mstore\n      0x20\n      add\n      0x07\n      dup3\n      add\n      0x00\n      swap1\n      sload\n      swap1\n      0x0100\n      exp\n      swap1\n      div\n      0xff\n      and\n      iszero\n      iszero\n      iszero\n      iszero\n      dup2\n      mstore\n      pop\n      pop\n      swap1\n      pop\n        /* \"coin.sol\":1553:1561  cAuction */\n      dup1\n        /* \"coin.sol\":1553:1569  cAuction.stopped */\n      0xe0\n      add\n      mload\n        /* \"coin.sol\":1552:1569  !cAuction.stopped */\n      iszero\n        /* \"coin.sol\":1544:1582  require(!cAuction.stopped, \"stopped!\") */\n      tag_35\n      jumpi\n      mload(0x40)\n      0x08c379a000000000000000000000000000000000000000000000000000000000\n      dup2\n      mstore\n      0x04\n      add\n      tag_36\n      swap1\n      tag_37\n      jump\t// in\n    tag_36:\n      mload(0x40)\n      dup1\n      swap2\n      sub\n      swap1\n      revert\n    tag_35:\n        /* \"coin.sol\":1420:1594  function getPriceFor(uint index) public view returns(uint) {\r... */\n      pop\n      swap2\n      swap1\n      pop\n      jump\t// out\n        /* \"coin.sol\":433:458  Auction[] public auctions */\n    tag_15:\n      0x01\n      dup2\n      dup2\n      sload\n      dup2\n      lt\n      tag_38\n      jumpi\n      0x00\n      dup1\n      revert\n    tag_38:\n      swap1\n      0x00\n      mstore\n      keccak256(0x00, 0x20)\n      swap1\n      0x08\n      mul\n      add\n      0x00\n      swap2\n      pop\n      swap1\n      pop\n      dup1\n      0x00\n      add\n      0x00\n      swap1\n      sload\n      swap1\n      0x0100\n      exp\n      swap1\n      div\n      0xffffffffffffffffffffffffffffffffffffffff\n      and\n      swap1\n      dup1\n      0x01\n      add\n      sload\n      swap1\n      dup1\n      0x02\n      add\n      sload\n      swap1\n      dup1\n      0x03\n      add\n      sload\n      swap1\n      dup1\n      0x04\n      add\n      sload\n      swap1\n      dup1\n      0x05\n      add\n      sload\n      swap1\n      dup1\n      0x06\n      add\n      dup1\n      sload\n      tag_40\n      swap1\n      tag_30\n      jump\t// in\n    tag_40:\n      dup1\n      0x1f\n      add\n      0x20\n      dup1\n      swap2\n      div\n      mul\n      0x20\n      add\n      mload(0x40)\n      swap1\n      dup2\n      add\n      0x40\n      mstore\n      dup1\n      swap3\n      swap2\n      swap1\n      dup2\n      dup2\n      mstore\n      0x20\n      add\n      dup3\n      dup1\n      sload\n      tag_41\n      swap1\n      tag_30\n      jump\t// in\n    tag_41:\n      dup1\n      iszero\n      tag_42\n      jumpi\n      dup1\n      0x1f\n      lt\n      tag_43\n      jumpi\n      0x0100\n      dup1\n      dup4\n      sload\n      div\n      mul\n      dup4\n      mstore\n      swap2\n      0x20\n      add\n      swap2\n      jump(tag_42)\n    tag_43:\n      dup3\n      add\n      swap2\n      swap1\n      0x00\n      mstore\n      keccak256(0x00, 0x20)\n      swap1\n    tag_44:\n      dup2\n      sload\n      dup2\n      mstore\n      swap1\n      0x01\n      add\n      swap1\n      0x20\n      add\n      dup1\n      dup4\n      gt\n      tag_44\n      jumpi\n      dup3\n      swap1\n      sub\n      0x1f\n      and\n      dup3\n      add\n      swap2\n    tag_42:\n      pop\n      pop\n      pop\n      pop\n      pop\n      swap1\n      dup1\n      0x07\n      add\n      0x00\n      swap1\n      sload\n      swap1\n      0x0100\n      exp\n      swap1\n      div\n      0xff\n      and\n      swap1\n      pop\n      dup9\n      jump\t// out\n        /* \"coin.sol\":94:114  address public owner */\n    tag_19:\n      0x00\n      dup1\n      sload\n      swap1\n      0x0100\n      exp\n      swap1\n      div\n      0xffffffffffffffffffffffffffffffffffffffff\n      and\n      dup2\n      jump\t// out\n        /* \"coin.sol\":630:1406  function createAuction(uint _startingPrice, uint _discountRate, string calldata _item, uint _duration) external {\r... */\n    tag_25:\n        /* \"coin.sol\":753:766  uint duration */\n      0x00\n        /* \"coin.sol\":782:783  0 */\n      dup1\n        /* \"coin.sol\":769:778  _duration */\n      dup3\n        /* \"coin.sol\":769:783  _duration == 0 */\n      eq\n        /* \"coin.sol\":769:806  _duration == 0 ? DURATION : _duration */\n      tag_46\n      jumpi\n        /* \"coin.sol\":797:806  _duration */\n      dup2\n        /* \"coin.sol\":769:806  _duration == 0 ? DURATION : _duration */\n      jump(tag_47)\n    tag_46:\n        /* \"coin.sol\":146:152  2 days */\n      0x02a300\n        /* \"coin.sol\":769:806  _duration == 0 ? DURATION : _duration */\n    tag_47:\n        /* \"coin.sol\":753:806  uint duration = _duration == 0 ? DURATION : _duration */\n      swap1\n      pop\n        /* \"coin.sol\":861:869  duration */\n      dup1\n        /* \"coin.sol\":845:858  _discountRate */\n      dup6\n        /* \"coin.sol\":845:869  _discountRate * duration */\n      tag_48\n      swap2\n      swap1\n      tag_49\n      jump\t// in\n    tag_48:\n        /* \"coin.sol\":827:841  _startingPrice */\n      dup7\n        /* \"coin.sol\":827:869  _startingPrice >= _discountRate * duration */\n      lt\n      iszero\n        /* \"coin.sol\":819:897  require(_startingPrice >= _discountRate * duration,\"incorrect starting price\") */\n      tag_50\n      jumpi\n      mload(0x40)\n      0x08c379a000000000000000000000000000000000000000000000000000000000\n      dup2\n      mstore\n      0x04\n      add\n      tag_51\n      swap1\n      tag_52\n      jump\t// in\n    tag_51:\n      mload(0x40)\n      dup1\n      swap2\n      sub\n      swap1\n      revert\n    tag_50:\n        /* \"coin.sol\":912:937  Auction memory newAuction */\n      0x00\n        /* \"coin.sol\":940:1272  Auction({\r... */\n      mload(0x40)\n      dup1\n      0x0100\n      add\n      0x40\n      mstore\n      dup1\n        /* \"coin.sol\":979:989  msg.sender */\n      caller\n        /* \"coin.sol\":940:1272  Auction({\r... */\n      0xffffffffffffffffffffffffffffffffffffffff\n      and\n      dup2\n      mstore\n      0x20\n      add\n        /* \"coin.sol\":1020:1034  _startingPrice */\n      dup9\n        /* \"coin.sol\":940:1272  Auction({\r... */\n      dup2\n      mstore\n      0x20\n      add\n        /* \"coin.sol\":1061:1075  _startingPrice */\n      dup9\n        /* \"coin.sol\":940:1272  Auction({\r... */\n      dup2\n      mstore\n      0x20\n      add\n        /* \"coin.sol\":1141:1156  block.timestamp */\n      timestamp\n        /* \"coin.sol\":940:1272  Auction({\r... */\n      dup2\n      mstore\n      0x20\n      add\n        /* \"coin.sol\":1197:1205  duration */\n      dup4\n        /* \"coin.sol\":1179:1194  block.timestamp */\n      timestamp\n        /* \"coin.sol\":1179:1205  block.timestamp + duration */\n      tag_53\n      swap2\n      swap1\n      tag_54\n      jump\t// in\n    tag_53:\n        /* \"coin.sol\":940:1272  Auction({\r... */\n      dup2\n      mstore\n      0x20\n      add\n        /* \"coin.sol\":1104:1117  _discountRate */\n      dup8\n        /* \"coin.sol\":940:1272  Auction({\r... */\n      dup2\n      mstore\n      0x20\n      add\n        /* \"coin.sol\":1226:1231  _item */\n      dup7\n      dup7\n        /* \"coin.sol\":940:1272  Auction({\r... */\n      dup1\n      dup1\n      0x1f\n      add\n      0x20\n      dup1\n      swap2\n      div\n      mul\n      0x20\n      add\n      mload(0x40)\n      swap1\n      dup2\n      add\n      0x40\n      mstore\n      dup1\n      swap4\n      swap3\n      swap2\n      swap1\n      dup2\n      dup2\n      mstore\n      0x20\n      add\n      dup4\n      dup4\n      dup1\n      dup3\n      dup5\n      calldatacopy\n      0x00\n      dup2\n      dup5\n      add\n      mstore\n      not(0x1f)\n      0x1f\n      dup3\n      add\n      and\n      swap1\n      pop\n      dup1\n      dup4\n      add\n      swap3\n      pop\n      pop\n      pop\n      pop\n      pop\n      pop\n      pop\n      dup2\n      mstore\n      0x20\n      add\n        /* \"coin.sol\":1255:1260  false */\n      0x00\n        /* \"coin.sol\":940:1272  Auction({\r... */\n      iszero\n      iszero\n      dup2\n      mstore\n      pop\n        /* \"coin.sol\":912:1272  Auction memory newAuction = Auction({\r... */\n      swap1\n      pop\n        /* \"coin.sol\":1285:1293  auctions */\n      0x01\n        /* \"coin.sol\":1299:1309  newAuction */\n      dup2\n        /* \"coin.sol\":1285:1310  auctions.push(newAuction) */\n      swap1\n      dup1\n      0x01\n      dup2\n      sload\n      add\n      dup1\n      dup3\n      sstore\n      dup1\n      swap2\n      pop\n      pop\n      0x01\n      swap1\n      sub\n      swap1\n      0x00\n      mstore\n      keccak256(0x00, 0x20)\n      swap1\n      0x08\n      mul\n      add\n      0x00\n      swap1\n      swap2\n      swap1\n      swap2\n      swap1\n      swap2\n      pop\n      0x00\n      dup3\n      add\n      mload\n      dup2\n      0x00\n      add\n      exp(0x0100, 0x00)\n      dup2\n      sload\n      dup2\n      0xffffffffffffffffffffffffffffffffffffffff\n      mul\n      not\n      and\n      swap1\n      dup4\n      0xffffffffffffffffffffffffffffffffffffffff\n      and\n      mul\n      or\n      swap1\n      sstore\n      pop\n      0x20\n      dup3\n      add\n      mload\n      dup2\n      0x01\n      add\n      sstore\n      0x40\n      dup3\n      add\n      mload\n      dup2\n      0x02\n      add\n      sstore\n      0x60\n      dup3\n      add\n      mload\n      dup2\n      0x03\n      add\n      sstore\n      0x80\n      dup3\n      add\n      mload\n      dup2\n      0x04\n      add\n      sstore\n      0xa0\n      dup3\n      add\n      mload\n      dup2\n      0x05\n      add\n      sstore\n      0xc0\n      dup3\n      add\n      mload\n      dup2\n      0x06\n      add\n      swap1\n      dup1\n      mload\n      swap1\n      0x20\n      add\n      swap1\n      tag_56\n      swap3\n      swap2\n      swap1\n      tag_57\n      jump\t// in\n    tag_56:\n      pop\n      0xe0\n      dup3\n      add\n      mload\n      dup2\n      0x07\n      add\n      exp(0x0100, 0x00)\n      dup2\n      sload\n      dup2\n      0xff\n      mul\n      not\n      and\n      swap1\n      dup4\n      iszero\n      iszero\n      mul\n      or\n      swap1\n      sstore\n      pop\n      pop\n      pop\n        /* \"coin.sol\":1330:1396  AuctionCreated(auctions.length-1, _item, _startingPrice, duration) */\n      0x5bf34ed94988e5dcdc7d1faaa54eb1d3b55f45d5f11457e235afb21a8ebbe73c\n        /* \"coin.sol\":1361:1362  1 */\n      0x01\n        /* \"coin.sol\":1345:1353  auctions */\n      dup1\n        /* \"coin.sol\":1345:1360  auctions.length */\n      dup1\n      sload\n      swap1\n      pop\n        /* \"coin.sol\":1345:1362  auctions.length-1 */\n      tag_58\n      swap2\n      swap1\n      tag_59\n      jump\t// in\n    tag_58:\n        /* \"coin.sol\":1364:1369  _item */\n      dup7\n      dup7\n        /* \"coin.sol\":1371:1385  _startingPrice */\n      dup11\n        /* \"coin.sol\":1387:1395  duration */\n      dup7\n        /* \"coin.sol\":1330:1396  AuctionCreated(auctions.length-1, _item, _startingPrice, duration) */\n      mload(0x40)\n      tag_60\n      swap6\n      swap5\n      swap4\n      swap3\n      swap2\n      swap1\n      tag_61\n      jump\t// in\n    tag_60:\n      mload(0x40)\n      dup1\n      swap2\n      sub\n      swap1\n      log1\n        /* \"coin.sol\":630:1406  function createAuction(uint _startingPrice, uint _discountRate, string calldata _item, uint _duration) external {\r... */\n      pop\n      pop\n      pop\n      pop\n      pop\n      pop\n      pop\n      jump\t// out\n    tag_57:\n      dup3\n      dup1\n      sload\n      tag_62\n      swap1\n      tag_30\n      jump\t// in\n    tag_62:\n      swap1\n      0x00\n      mstore\n      keccak256(0x00, 0x20)\n      swap1\n      0x1f\n      add\n      0x20\n      swap1\n      div\n      dup2\n      add\n      swap3\n      dup3\n      tag_64\n      jumpi\n      0x00\n      dup6\n      sstore\n      jump(tag_63)\n    tag_64:\n      dup3\n      0x1f\n      lt\n      tag_65\n      jumpi\n      dup1\n      mload\n      not(0xff)\n      and\n      dup4\n      dup1\n      add\n      or\n      dup6\n      sstore\n      jump(tag_63)\n    tag_65:\n      dup3\n      dup1\n      add\n      0x01\n      add\n      dup6\n      sstore\n      dup3\n      iszero\n      tag_63\n      jumpi\n      swap2\n      dup3\n      add\n    tag_66:\n      dup3\n      dup2\n      gt\n      iszero\n      tag_67\n      jumpi\n      dup3\n      mload\n      dup3\n      sstore\n      swap2\n      0x20\n      add\n      swap2\n      swap1\n      0x01\n      add\n      swap1\n      jump(tag_66)\n    tag_67:\n    tag_63:\n      pop\n      swap1\n      pop\n      tag_68\n      swap2\n      swap1\n      tag_69\n      jump\t// in\n    tag_68:\n      pop\n      swap1\n      jump\t// out\n    tag_69:\n    tag_70:\n      dup1\n      dup3\n      gt\n      iszero\n      tag_71\n      jumpi\n      0x00\n      dup2\n      0x00\n      swap1\n      sstore\n      pop\n      0x01\n      add\n      jump(tag_70)\n    tag_71:\n      pop\n      swap1\n      jump\t// out\n        /* \"#utility.yul\":21:373   */\n    tag_73:\n      0x00\n      dup1\n        /* \"#utility.yul\":139:142   */\n      dup4\n        /* \"#utility.yul\":132:136   */\n      0x1f\n        /* \"#utility.yul\":124:130   */\n      dup5\n        /* \"#utility.yul\":120:137   */\n      add\n        /* \"#utility.yul\":116:143   */\n      slt\n        /* \"#utility.yul\":106:108   */\n      tag_75\n      jumpi\n        /* \"#utility.yul\":157:158   */\n      0x00\n        /* \"#utility.yul\":154:155   */\n      dup1\n        /* \"#utility.yul\":147:159   */\n      revert\n        /* \"#utility.yul\":106:108   */\n    tag_75:\n        /* \"#utility.yul\":193:199   */\n      dup3\n        /* \"#utility.yul\":180:200   */\n      calldataload\n        /* \"#utility.yul\":170:200   */\n      swap1\n      pop\n        /* \"#utility.yul\":223:241   */\n      0xffffffffffffffff\n        /* \"#utility.yul\":215:221   */\n      dup2\n        /* \"#utility.yul\":212:242   */\n      gt\n        /* \"#utility.yul\":209:211   */\n      iszero\n      tag_76\n      jumpi\n        /* \"#utility.yul\":255:256   */\n      0x00\n        /* \"#utility.yul\":252:253   */\n      dup1\n        /* \"#utility.yul\":245:257   */\n      revert\n        /* \"#utility.yul\":209:211   */\n    tag_76:\n        /* \"#utility.yul\":292:296   */\n      0x20\n        /* \"#utility.yul\":284:290   */\n      dup4\n        /* \"#utility.yul\":280:297   */\n      add\n        /* \"#utility.yul\":268:297   */\n      swap2\n      pop\n        /* \"#utility.yul\":346:349   */\n      dup4\n        /* \"#utility.yul\":338:342   */\n      0x01\n        /* \"#utility.yul\":330:336   */\n      dup3\n        /* \"#utility.yul\":326:343   */\n      mul\n        /* \"#utility.yul\":316:324   */\n      dup4\n        /* \"#utility.yul\":312:344   */\n      add\n        /* \"#utility.yul\":309:350   */\n      gt\n        /* \"#utility.yul\":306:308   */\n      iszero\n      tag_77\n      jumpi\n        /* \"#utility.yul\":363:364   */\n      0x00\n        /* \"#utility.yul\":360:361   */\n      dup1\n        /* \"#utility.yul\":353:365   */\n      revert\n        /* \"#utility.yul\":306:308   */\n    tag_77:\n        /* \"#utility.yul\":96:373   */\n      swap3\n      pop\n      swap3\n      swap1\n      pop\n      jump\t// out\n        /* \"#utility.yul\":379:518   */\n    tag_78:\n      0x00\n        /* \"#utility.yul\":463:469   */\n      dup2\n        /* \"#utility.yul\":450:470   */\n      calldataload\n        /* \"#utility.yul\":441:470   */\n      swap1\n      pop\n        /* \"#utility.yul\":479:512   */\n      tag_80\n        /* \"#utility.yul\":506:511   */\n      dup2\n        /* \"#utility.yul\":479:512   */\n      tag_81\n      jump\t// in\n    tag_80:\n        /* \"#utility.yul\":431:518   */\n      swap3\n      swap2\n      pop\n      pop\n      jump\t// out\n        /* \"#utility.yul\":524:786   */\n    tag_9:\n      0x00\n        /* \"#utility.yul\":632:634   */\n      0x20\n        /* \"#utility.yul\":620:629   */\n      dup3\n        /* \"#utility.yul\":611:618   */\n      dup5\n        /* \"#utility.yul\":607:630   */\n      sub\n        /* \"#utility.yul\":603:635   */\n      slt\n        /* \"#utility.yul\":600:602   */\n      iszero\n      tag_83\n      jumpi\n        /* \"#utility.yul\":648:649   */\n      0x00\n        /* \"#utility.yul\":645:646   */\n      dup1\n        /* \"#utility.yul\":638:650   */\n      revert\n        /* \"#utility.yul\":600:602   */\n    tag_83:\n        /* \"#utility.yul\":691:692   */\n      0x00\n        /* \"#utility.yul\":716:769   */\n      tag_84\n        /* \"#utility.yul\":761:768   */\n      dup5\n        /* \"#utility.yul\":752:758   */\n      dup3\n        /* \"#utility.yul\":741:750   */\n      dup6\n        /* \"#utility.yul\":737:759   */\n      add\n        /* \"#utility.yul\":716:769   */\n      tag_78\n      jump\t// in\n    tag_84:\n        /* \"#utility.yul\":706:769   */\n      swap2\n      pop\n        /* \"#utility.yul\":662:779   */\n      pop\n        /* \"#utility.yul\":590:786   */\n      swap3\n      swap2\n      pop\n      pop\n      jump\t// out\n        /* \"#utility.yul\":792:1623   */\n    tag_24:\n      0x00\n      dup1\n      0x00\n      dup1\n      0x00\n        /* \"#utility.yul\":971:974   */\n      0x80\n        /* \"#utility.yul\":959:968   */\n      dup7\n        /* \"#utility.yul\":950:957   */\n      dup9\n        /* \"#utility.yul\":946:969   */\n      sub\n        /* \"#utility.yul\":942:975   */\n      slt\n        /* \"#utility.yul\":939:941   */\n      iszero\n      tag_86\n      jumpi\n        /* \"#utility.yul\":988:989   */\n      0x00\n        /* \"#utility.yul\":985:986   */\n      dup1\n        /* \"#utility.yul\":978:990   */\n      revert\n        /* \"#utility.yul\":939:941   */\n    tag_86:\n        /* \"#utility.yul\":1031:1032   */\n      0x00\n        /* \"#utility.yul\":1056:1109   */\n      tag_87\n        /* \"#utility.yul\":1101:1108   */\n      dup9\n        /* \"#utility.yul\":1092:1098   */\n      dup3\n        /* \"#utility.yul\":1081:1090   */\n      dup10\n        /* \"#utility.yul\":1077:1099   */\n      add\n        /* \"#utility.yul\":1056:1109   */\n      tag_78\n      jump\t// in\n    tag_87:\n        /* \"#utility.yul\":1046:1109   */\n      swap6\n      pop\n        /* \"#utility.yul\":1002:1119   */\n      pop\n        /* \"#utility.yul\":1158:1160   */\n      0x20\n        /* \"#utility.yul\":1184:1237   */\n      tag_88\n        /* \"#utility.yul\":1229:1236   */\n      dup9\n        /* \"#utility.yul\":1220:1226   */\n      dup3\n        /* \"#utility.yul\":1209:1218   */\n      dup10\n        /* \"#utility.yul\":1205:1227   */\n      add\n        /* \"#utility.yul\":1184:1237   */\n      tag_78\n      jump\t// in\n    tag_88:\n        /* \"#utility.yul\":1174:1237   */\n      swap5\n      pop\n        /* \"#utility.yul\":1129:1247   */\n      pop\n        /* \"#utility.yul\":1314:1316   */\n      0x40\n        /* \"#utility.yul\":1303:1312   */\n      dup7\n        /* \"#utility.yul\":1299:1317   */\n      add\n        /* \"#utility.yul\":1286:1318   */\n      calldataload\n        /* \"#utility.yul\":1345:1363   */\n      0xffffffffffffffff\n        /* \"#utility.yul\":1337:1343   */\n      dup2\n        /* \"#utility.yul\":1334:1364   */\n      gt\n        /* \"#utility.yul\":1331:1333   */\n      iszero\n      tag_89\n      jumpi\n        /* \"#utility.yul\":1377:1378   */\n      0x00\n        /* \"#utility.yul\":1374:1375   */\n      dup1\n        /* \"#utility.yul\":1367:1379   */\n      revert\n        /* \"#utility.yul\":1331:1333   */\n    tag_89:\n        /* \"#utility.yul\":1413:1478   */\n      tag_90\n        /* \"#utility.yul\":1470:1477   */\n      dup9\n        /* \"#utility.yul\":1461:1467   */\n      dup3\n        /* \"#utility.yul\":1450:1459   */\n      dup10\n        /* \"#utility.yul\":1446:1468   */\n      add\n        /* \"#utility.yul\":1413:1478   */\n      tag_73\n      jump\t// in\n    tag_90:\n        /* \"#utility.yul\":1395:1478   */\n      swap4\n      pop\n      swap4\n      pop\n        /* \"#utility.yul\":1257:1488   */\n      pop\n        /* \"#utility.yul\":1527:1529   */\n      0x60\n        /* \"#utility.yul\":1553:1606   */\n      tag_91\n        /* \"#utility.yul\":1598:1605   */\n      dup9\n        /* \"#utility.yul\":1589:1595   */\n      dup3\n        /* \"#utility.yul\":1578:1587   */\n      dup10\n        /* \"#utility.yul\":1574:1596   */\n      add\n        /* \"#utility.yul\":1553:1606   */\n      tag_78\n      jump\t// in\n    tag_91:\n        /* \"#utility.yul\":1543:1606   */\n      swap2\n      pop\n        /* \"#utility.yul\":1498:1616   */\n      pop\n        /* \"#utility.yul\":929:1623   */\n      swap3\n      swap6\n      pop\n      swap3\n      swap6\n      swap1\n      swap4\n      pop\n      jump\t// out\n        /* \"#utility.yul\":1629:1771   */\n    tag_92:\n        /* \"#utility.yul\":1732:1764   */\n      tag_94\n        /* \"#utility.yul\":1758:1763   */\n      dup2\n        /* \"#utility.yul\":1732:1764   */\n      tag_95\n      jump\t// in\n    tag_94:\n        /* \"#utility.yul\":1727:1730   */\n      dup3\n        /* \"#utility.yul\":1720:1765   */\n      mstore\n        /* \"#utility.yul\":1710:1771   */\n      pop\n      pop\n      jump\t// out\n        /* \"#utility.yul\":1777:1895   */\n    tag_96:\n        /* \"#utility.yul\":1864:1888   */\n      tag_98\n        /* \"#utility.yul\":1882:1887   */\n      dup2\n        /* \"#utility.yul\":1864:1888   */\n      tag_99\n      jump\t// in\n    tag_98:\n        /* \"#utility.yul\":1859:1862   */\n      dup3\n        /* \"#utility.yul\":1852:1889   */\n      mstore\n        /* \"#utility.yul\":1842:1895   */\n      pop\n      pop\n      jump\t// out\n        /* \"#utility.yul\":1901:2010   */\n    tag_100:\n        /* \"#utility.yul\":1982:2003   */\n      tag_102\n        /* \"#utility.yul\":1997:2002   */\n      dup2\n        /* \"#utility.yul\":1982:2003   */\n      tag_103\n      jump\t// in\n    tag_102:\n        /* \"#utility.yul\":1977:1980   */\n      dup3\n        /* \"#utility.yul\":1970:2004   */\n      mstore\n        /* \"#utility.yul\":1960:2010   */\n      pop\n      pop\n      jump\t// out\n        /* \"#utility.yul\":2040:2344   */\n    tag_104:\n      0x00\n        /* \"#utility.yul\":2159:2230   */\n      tag_106\n        /* \"#utility.yul\":2223:2229   */\n      dup4\n        /* \"#utility.yul\":2218:2221   */\n      dup6\n        /* \"#utility.yul\":2159:2230   */\n      tag_107\n      jump\t// in\n    tag_106:\n        /* \"#utility.yul\":2152:2230   */\n      swap4\n      pop\n        /* \"#utility.yul\":2240:2283   */\n      tag_108\n        /* \"#utility.yul\":2276:2282   */\n      dup4\n        /* \"#utility.yul\":2271:2274   */\n      dup6\n        /* \"#utility.yul\":2264:2269   */\n      dup5\n        /* \"#utility.yul\":2240:2283   */\n      tag_109\n      jump\t// in\n    tag_108:\n        /* \"#utility.yul\":2308:2337   */\n      tag_110\n        /* \"#utility.yul\":2330:2336   */\n      dup4\n        /* \"#utility.yul\":2308:2337   */\n      tag_111\n      jump\t// in\n    tag_110:\n        /* \"#utility.yul\":2303:2306   */\n      dup5\n        /* \"#utility.yul\":2299:2338   */\n      add\n        /* \"#utility.yul\":2292:2338   */\n      swap1\n      pop\n        /* \"#utility.yul\":2142:2344   */\n      swap4\n      swap3\n      pop\n      pop\n      pop\n      jump\t// out\n        /* \"#utility.yul\":2350:2714   */\n    tag_112:\n      0x00\n        /* \"#utility.yul\":2466:2505   */\n      tag_114\n        /* \"#utility.yul\":2499:2504   */\n      dup3\n        /* \"#utility.yul\":2466:2505   */\n      tag_115\n      jump\t// in\n    tag_114:\n        /* \"#utility.yul\":2521:2592   */\n      tag_116\n        /* \"#utility.yul\":2585:2591   */\n      dup2\n        /* \"#utility.yul\":2580:2583   */\n      dup6\n        /* \"#utility.yul\":2521:2592   */\n      tag_107\n      jump\t// in\n    tag_116:\n        /* \"#utility.yul\":2514:2592   */\n      swap4\n      pop\n        /* \"#utility.yul\":2601:2653   */\n      tag_117\n        /* \"#utility.yul\":2646:2652   */\n      dup2\n        /* \"#utility.yul\":2641:2644   */\n      dup6\n        /* \"#utility.yul\":2634:2638   */\n      0x20\n        /* \"#utility.yul\":2627:2632   */\n      dup7\n        /* \"#utility.yul\":2623:2639   */\n      add\n        /* \"#utility.yul\":2601:2653   */\n      tag_118\n      jump\t// in\n    tag_117:\n        /* \"#utility.yul\":2678:2707   */\n      tag_119\n        /* \"#utility.yul\":2700:2706   */\n      dup2\n        /* \"#utility.yul\":2678:2707   */\n      tag_111\n      jump\t// in\n    tag_119:\n        /* \"#utility.yul\":2673:2676   */\n      dup5\n        /* \"#utility.yul\":2669:2708   */\n      add\n        /* \"#utility.yul\":2662:2708   */\n      swap2\n      pop\n        /* \"#utility.yul\":2442:2714   */\n      pop\n      swap3\n      swap2\n      pop\n      pop\n      jump\t// out\n        /* \"#utility.yul\":2720:3042   */\n    tag_120:\n      0x00\n        /* \"#utility.yul\":2883:2950   */\n      tag_122\n        /* \"#utility.yul\":2947:2949   */\n      0x18\n        /* \"#utility.yul\":2942:2945   */\n      dup4\n        /* \"#utility.yul\":2883:2950   */\n      tag_107\n      jump\t// in\n    tag_122:\n        /* \"#utility.yul\":2876:2950   */\n      swap2\n      pop\n        /* \"#utility.yul\":2980:3006   */\n      0x696e636f7272656374207374617274696e672070726963650000000000000000\n        /* \"#utility.yul\":2976:2977   */\n      0x00\n        /* \"#utility.yul\":2971:2974   */\n      dup4\n        /* \"#utility.yul\":2967:2978   */\n      add\n        /* \"#utility.yul\":2960:3007   */\n      mstore\n        /* \"#utility.yul\":3033:3035   */\n      0x20\n        /* \"#utility.yul\":3028:3031   */\n      dup3\n        /* \"#utility.yul\":3024:3036   */\n      add\n        /* \"#utility.yul\":3017:3036   */\n      swap1\n      pop\n        /* \"#utility.yul\":2866:3042   */\n      swap2\n      swap1\n      pop\n      jump\t// out\n        /* \"#utility.yul\":3048:3353   */\n    tag_123:\n      0x00\n        /* \"#utility.yul\":3211:3277   */\n      tag_125\n        /* \"#utility.yul\":3275:3276   */\n      0x08\n        /* \"#utility.yul\":3270:3273   */\n      dup4\n        /* \"#utility.yul\":3211:3277   */\n      tag_107\n      jump\t// in\n    tag_125:\n        /* \"#utility.yul\":3204:3277   */\n      swap2\n      pop\n        /* \"#utility.yul\":3307:3317   */\n      0x73746f7070656421000000000000000000000000000000000000000000000000\n        /* \"#utility.yul\":3303:3304   */\n      0x00\n        /* \"#utility.yul\":3298:3301   */\n      dup4\n        /* \"#utility.yul\":3294:3305   */\n      add\n        /* \"#utility.yul\":3287:3318   */\n      mstore\n        /* \"#utility.yul\":3344:3346   */\n      0x20\n        /* \"#utility.yul\":3339:3342   */\n      dup3\n        /* \"#utility.yul\":3335:3347   */\n      add\n        /* \"#utility.yul\":3328:3347   */\n      swap1\n      pop\n        /* \"#utility.yul\":3194:3353   */\n      swap2\n      swap1\n      pop\n      jump\t// out\n        /* \"#utility.yul\":3359:3477   */\n    tag_126:\n        /* \"#utility.yul\":3446:3470   */\n      tag_128\n        /* \"#utility.yul\":3464:3469   */\n      dup2\n        /* \"#utility.yul\":3446:3470   */\n      tag_129\n      jump\t// in\n    tag_128:\n        /* \"#utility.yul\":3441:3444   */\n      dup3\n        /* \"#utility.yul\":3434:3471   */\n      mstore\n        /* \"#utility.yul\":3424:3477   */\n      pop\n      pop\n      jump\t// out\n        /* \"#utility.yul\":3483:3705   */\n    tag_21:\n      0x00\n        /* \"#utility.yul\":3614:3616   */\n      0x20\n        /* \"#utility.yul\":3603:3612   */\n      dup3\n        /* \"#utility.yul\":3599:3617   */\n      add\n        /* \"#utility.yul\":3591:3617   */\n      swap1\n      pop\n        /* \"#utility.yul\":3627:3698   */\n      tag_131\n        /* \"#utility.yul\":3695:3696   */\n      0x00\n        /* \"#utility.yul\":3684:3693   */\n      dup4\n        /* \"#utility.yul\":3680:3697   */\n      add\n        /* \"#utility.yul\":3671:3677   */\n      dup5\n        /* \"#utility.yul\":3627:3698   */\n      tag_96\n      jump\t// in\n    tag_131:\n        /* \"#utility.yul\":3581:3705   */\n      swap3\n      swap2\n      pop\n      pop\n      jump\t// out\n        /* \"#utility.yul\":3711:4819   */\n    tag_17:\n      0x00\n        /* \"#utility.yul\":4068:4071   */\n      0x0100\n        /* \"#utility.yul\":4057:4066   */\n      dup3\n        /* \"#utility.yul\":4053:4072   */\n      add\n        /* \"#utility.yul\":4045:4072   */\n      swap1\n      pop\n        /* \"#utility.yul\":4082:4169   */\n      tag_133\n        /* \"#utility.yul\":4166:4167   */\n      0x00\n        /* \"#utility.yul\":4155:4164   */\n      dup4\n        /* \"#utility.yul\":4151:4168   */\n      add\n        /* \"#utility.yul\":4142:4148   */\n      dup12\n        /* \"#utility.yul\":4082:4169   */\n      tag_92\n      jump\t// in\n    tag_133:\n        /* \"#utility.yul\":4179:4251   */\n      tag_134\n        /* \"#utility.yul\":4247:4249   */\n      0x20\n        /* \"#utility.yul\":4236:4245   */\n      dup4\n        /* \"#utility.yul\":4232:4250   */\n      add\n        /* \"#utility.yul\":4223:4229   */\n      dup11\n        /* \"#utility.yul\":4179:4251   */\n      tag_126\n      jump\t// in\n    tag_134:\n        /* \"#utility.yul\":4261:4333   */\n      tag_135\n        /* \"#utility.yul\":4329:4331   */\n      0x40\n        /* \"#utility.yul\":4318:4327   */\n      dup4\n        /* \"#utility.yul\":4314:4332   */\n      add\n        /* \"#utility.yul\":4305:4311   */\n      dup10\n        /* \"#utility.yul\":4261:4333   */\n      tag_126\n      jump\t// in\n    tag_135:\n        /* \"#utility.yul\":4343:4415   */\n      tag_136\n        /* \"#utility.yul\":4411:4413   */\n      0x60\n        /* \"#utility.yul\":4400:4409   */\n      dup4\n        /* \"#utility.yul\":4396:4414   */\n      add\n        /* \"#utility.yul\":4387:4393   */\n      dup9\n        /* \"#utility.yul\":4343:4415   */\n      tag_126\n      jump\t// in\n    tag_136:\n        /* \"#utility.yul\":4425:4498   */\n      tag_137\n        /* \"#utility.yul\":4493:4496   */\n      0x80\n        /* \"#utility.yul\":4482:4491   */\n      dup4\n        /* \"#utility.yul\":4478:4497   */\n      add\n        /* \"#utility.yul\":4469:4475   */\n      dup8\n        /* \"#utility.yul\":4425:4498   */\n      tag_126\n      jump\t// in\n    tag_137:\n        /* \"#utility.yul\":4508:4581   */\n      tag_138\n        /* \"#utility.yul\":4576:4579   */\n      0xa0\n        /* \"#utility.yul\":4565:4574   */\n      dup4\n        /* \"#utility.yul\":4561:4580   */\n      add\n        /* \"#utility.yul\":4552:4558   */\n      dup7\n        /* \"#utility.yul\":4508:4581   */\n      tag_126\n      jump\t// in\n    tag_138:\n        /* \"#utility.yul\":4629:4638   */\n      dup2\n        /* \"#utility.yul\":4623:4627   */\n      dup2\n        /* \"#utility.yul\":4619:4639   */\n      sub\n        /* \"#utility.yul\":4613:4616   */\n      0xc0\n        /* \"#utility.yul\":4602:4611   */\n      dup4\n        /* \"#utility.yul\":4598:4617   */\n      add\n        /* \"#utility.yul\":4591:4640   */\n      mstore\n        /* \"#utility.yul\":4657:4735   */\n      tag_139\n        /* \"#utility.yul\":4730:4734   */\n      dup2\n        /* \"#utility.yul\":4721:4727   */\n      dup6\n        /* \"#utility.yul\":4657:4735   */\n      tag_112\n      jump\t// in\n    tag_139:\n        /* \"#utility.yul\":4649:4735   */\n      swap1\n      pop\n        /* \"#utility.yul\":4745:4812   */\n      tag_140\n        /* \"#utility.yul\":4807:4810   */\n      0xe0\n        /* \"#utility.yul\":4796:4805   */\n      dup4\n        /* \"#utility.yul\":4792:4811   */\n      add\n        /* \"#utility.yul\":4783:4789   */\n      dup5\n        /* \"#utility.yul\":4745:4812   */\n      tag_100\n      jump\t// in\n    tag_140:\n        /* \"#utility.yul\":4035:4819   */\n      swap10\n      swap9\n      pop\n      pop\n      pop\n      pop\n      pop\n      pop\n      pop\n      pop\n      pop\n      jump\t// out\n        /* \"#utility.yul\":4825:5244   */\n    tag_52:\n      0x00\n        /* \"#utility.yul\":5029:5031   */\n      0x20\n        /* \"#utility.yul\":5018:5027   */\n      dup3\n        /* \"#utility.yul\":5014:5032   */\n      add\n        /* \"#utility.yul\":5006:5032   */\n      swap1\n      pop\n        /* \"#utility.yul\":5078:5087   */\n      dup2\n        /* \"#utility.yul\":5072:5076   */\n      dup2\n        /* \"#utility.yul\":5068:5088   */\n      sub\n        /* \"#utility.yul\":5064:5065   */\n      0x00\n        /* \"#utility.yul\":5053:5062   */\n      dup4\n        /* \"#utility.yul\":5049:5066   */\n      add\n        /* \"#utility.yul\":5042:5089   */\n      mstore\n        /* \"#utility.yul\":5106:5237   */\n      tag_142\n        /* \"#utility.yul\":5232:5236   */\n      dup2\n        /* \"#utility.yul\":5106:5237   */\n      tag_120\n      jump\t// in\n    tag_142:\n        /* \"#utility.yul\":5098:5237   */\n      swap1\n      pop\n        /* \"#utility.yul\":4996:5244   */\n      swap2\n      swap1\n      pop\n      jump\t// out\n        /* \"#utility.yul\":5250:5669   */\n    tag_37:\n      0x00\n        /* \"#utility.yul\":5454:5456   */\n      0x20\n        /* \"#utility.yul\":5443:5452   */\n      dup3\n        /* \"#utility.yul\":5439:5457   */\n      add\n        /* \"#utility.yul\":5431:5457   */\n      swap1\n      pop\n        /* \"#utility.yul\":5503:5512   */\n      dup2\n        /* \"#utility.yul\":5497:5501   */\n      dup2\n        /* \"#utility.yul\":5493:5513   */\n      sub\n        /* \"#utility.yul\":5489:5490   */\n      0x00\n        /* \"#utility.yul\":5478:5487   */\n      dup4\n        /* \"#utility.yul\":5474:5491   */\n      add\n        /* \"#utility.yul\":5467:5514   */\n      mstore\n        /* \"#utility.yul\":5531:5662   */\n      tag_144\n        /* \"#utility.yul\":5657:5661   */\n      dup2\n        /* \"#utility.yul\":5531:5662   */\n      tag_123\n      jump\t// in\n    tag_144:\n        /* \"#utility.yul\":5523:5662   */\n      swap1\n      pop\n        /* \"#utility.yul\":5421:5669   */\n      swap2\n      swap1\n      pop\n      jump\t// out\n        /* \"#utility.yul\":5675:5897   */\n    tag_12:\n      0x00\n        /* \"#utility.yul\":5806:5808   */\n      0x20\n        /* \"#utility.yul\":5795:5804   */\n      dup3\n        /* \"#utility.yul\":5791:5809   */\n      add\n        /* \"#utility.yul\":5783:5809   */\n      swap1\n      pop\n        /* \"#utility.yul\":5819:5890   */\n      tag_146\n        /* \"#utility.yul\":5887:5888   */\n      0x00\n        /* \"#utility.yul\":5876:5885   */\n      dup4\n        /* \"#utility.yul\":5872:5889   */\n      add\n        /* \"#utility.yul\":5863:5869   */\n      dup5\n        /* \"#utility.yul\":5819:5890   */\n      tag_126\n      jump\t// in\n    tag_146:\n        /* \"#utility.yul\":5773:5897   */\n      swap3\n      swap2\n      pop\n      pop\n      jump\t// out\n        /* \"#utility.yul\":5903:6567   */\n    tag_61:\n      0x00\n        /* \"#utility.yul\":6148:6151   */\n      0x80\n        /* \"#utility.yul\":6137:6146   */\n      dup3\n        /* \"#utility.yul\":6133:6152   */\n      add\n        /* \"#utility.yul\":6125:6152   */\n      swap1\n      pop\n        /* \"#utility.yul\":6162:6233   */\n      tag_148\n        /* \"#utility.yul\":6230:6231   */\n      0x00\n        /* \"#utility.yul\":6219:6228   */\n      dup4\n        /* \"#utility.yul\":6215:6232   */\n      add\n        /* \"#utility.yul\":6206:6212   */\n      dup9\n        /* \"#utility.yul\":6162:6233   */\n      tag_126\n      jump\t// in\n    tag_148:\n        /* \"#utility.yul\":6280:6289   */\n      dup2\n        /* \"#utility.yul\":6274:6278   */\n      dup2\n        /* \"#utility.yul\":6270:6290   */\n      sub\n        /* \"#utility.yul\":6265:6267   */\n      0x20\n        /* \"#utility.yul\":6254:6263   */\n      dup4\n        /* \"#utility.yul\":6250:6268   */\n      add\n        /* \"#utility.yul\":6243:6291   */\n      mstore\n        /* \"#utility.yul\":6308:6396   */\n      tag_149\n        /* \"#utility.yul\":6391:6395   */\n      dup2\n        /* \"#utility.yul\":6382:6388   */\n      dup7\n        /* \"#utility.yul\":6374:6380   */\n      dup9\n        /* \"#utility.yul\":6308:6396   */\n      tag_104\n      jump\t// in\n    tag_149:\n        /* \"#utility.yul\":6300:6396   */\n      swap1\n      pop\n        /* \"#utility.yul\":6406:6478   */\n      tag_150\n        /* \"#utility.yul\":6474:6476   */\n      0x40\n        /* \"#utility.yul\":6463:6472   */\n      dup4\n        /* \"#utility.yul\":6459:6477   */\n      add\n        /* \"#utility.yul\":6450:6456   */\n      dup6\n        /* \"#utility.yul\":6406:6478   */\n      tag_126\n      jump\t// in\n    tag_150:\n        /* \"#utility.yul\":6488:6560   */\n      tag_151\n        /* \"#utility.yul\":6556:6558   */\n      0x60\n        /* \"#utility.yul\":6545:6554   */\n      dup4\n        /* \"#utility.yul\":6541:6559   */\n      add\n        /* \"#utility.yul\":6532:6538   */\n      dup5\n        /* \"#utility.yul\":6488:6560   */\n      tag_126\n      jump\t// in\n    tag_151:\n        /* \"#utility.yul\":6115:6567   */\n      swap7\n      swap6\n      pop\n      pop\n      pop\n      pop\n      pop\n      pop\n      jump\t// out\n        /* \"#utility.yul\":6573:6672   */\n    tag_115:\n      0x00\n        /* \"#utility.yul\":6659:6664   */\n      dup2\n        /* \"#utility.yul\":6653:6665   */\n      mload\n        /* \"#utility.yul\":6643:6665   */\n      swap1\n      pop\n        /* \"#utility.yul\":6632:6672   */\n      swap2\n      swap1\n      pop\n      jump\t// out\n        /* \"#utility.yul\":6678:6847   */\n    tag_107:\n      0x00\n        /* \"#utility.yul\":6796:6802   */\n      dup3\n        /* \"#utility.yul\":6791:6794   */\n      dup3\n        /* \"#utility.yul\":6784:6803   */\n      mstore\n        /* \"#utility.yul\":6836:6840   */\n      0x20\n        /* \"#utility.yul\":6831:6834   */\n      dup3\n        /* \"#utility.yul\":6827:6841   */\n      add\n        /* \"#utility.yul\":6812:6841   */\n      swap1\n      pop\n        /* \"#utility.yul\":6774:6847   */\n      swap3\n      swap2\n      pop\n      pop\n      jump\t// out\n        /* \"#utility.yul\":6853:7158   */\n    tag_54:\n      0x00\n        /* \"#utility.yul\":6912:6932   */\n      tag_155\n        /* \"#utility.yul\":6930:6931   */\n      dup3\n        /* \"#utility.yul\":6912:6932   */\n      tag_129\n      jump\t// in\n    tag_155:\n        /* \"#utility.yul\":6907:6932   */\n      swap2\n      pop\n        /* \"#utility.yul\":6946:6966   */\n      tag_156\n        /* \"#utility.yul\":6964:6965   */\n      dup4\n        /* \"#utility.yul\":6946:6966   */\n      tag_129\n      jump\t// in\n    tag_156:\n        /* \"#utility.yul\":6941:6966   */\n      swap3\n      pop\n        /* \"#utility.yul\":7100:7101   */\n      dup3\n        /* \"#utility.yul\":7032:7098   */\n      0xffffffffffffffffffffffffffffffffffffffffffffffffffffffffffffffff\n        /* \"#utility.yul\":7028:7102   */\n      sub\n        /* \"#utility.yul\":7025:7026   */\n      dup3\n        /* \"#utility.yul\":7022:7103   */\n      gt\n        /* \"#utility.yul\":7019:7021   */\n      iszero\n      tag_157\n      jumpi\n        /* \"#utility.yul\":7106:7124   */\n      tag_158\n      tag_159\n      jump\t// in\n    tag_158:\n        /* \"#utility.yul\":7019:7021   */\n    tag_157:\n        /* \"#utility.yul\":7150:7151   */\n      dup3\n        /* \"#utility.yul\":7147:7148   */\n      dup3\n        /* \"#utility.yul\":7143:7152   */\n      add\n        /* \"#utility.yul\":7136:7152   */\n      swap1\n      pop\n        /* \"#utility.yul\":6897:7158   */\n      swap3\n      swap2\n      pop\n      pop\n      jump\t// out\n        /* \"#utility.yul\":7164:7512   */\n    tag_49:\n      0x00\n        /* \"#utility.yul\":7227:7247   */\n      tag_161\n        /* \"#utility.yul\":7245:7246   */\n      dup3\n        /* \"#utility.yul\":7227:7247   */\n      tag_129\n      jump\t// in\n    tag_161:\n        /* \"#utility.yul\":7222:7247   */\n      swap2\n      pop\n        /* \"#utility.yul\":7261:7281   */\n      tag_162\n        /* \"#utility.yul\":7279:7280   */\n      dup4\n        /* \"#utility.yul\":7261:7281   */\n      tag_129\n      jump\t// in\n    tag_162:\n        /* \"#utility.yul\":7256:7281   */\n      swap3\n      pop\n        /* \"#utility.yul\":7449:7450   */\n      dup2\n        /* \"#utility.yul\":7381:7447   */\n      0xffffffffffffffffffffffffffffffffffffffffffffffffffffffffffffffff\n        /* \"#utility.yul\":7377:7451   */\n      div\n        /* \"#utility.yul\":7374:7375   */\n      dup4\n        /* \"#utility.yul\":7371:7452   */\n      gt\n        /* \"#utility.yul\":7366:7367   */\n      dup3\n        /* \"#utility.yul\":7359:7368   */\n      iszero\n        /* \"#utility.yul\":7352:7369   */\n      iszero\n        /* \"#utility.yul\":7348:7453   */\n      and\n        /* \"#utility.yul\":7345:7347   */\n      iszero\n      tag_163\n      jumpi\n        /* \"#utility.yul\":7456:7474   */\n      tag_164\n      tag_159\n      jump\t// in\n    tag_164:\n        /* \"#utility.yul\":7345:7347   */\n    tag_163:\n        /* \"#utility.yul\":7504:7505   */\n      dup3\n        /* \"#utility.yul\":7501:7502   */\n      dup3\n        /* \"#utility.yul\":7497:7506   */\n      mul\n        /* \"#utility.yul\":7486:7506   */\n      swap1\n      pop\n        /* \"#utility.yul\":7212:7512   */\n      swap3\n      swap2\n      pop\n      pop\n      jump\t// out\n        /* \"#utility.yul\":7518:7709   */\n    tag_59:\n      0x00\n        /* \"#utility.yul\":7578:7598   */\n      tag_166\n        /* \"#utility.yul\":7596:7597   */\n      dup3\n        /* \"#utility.yul\":7578:7598   */\n      tag_129\n      jump\t// in\n    tag_166:\n        /* \"#utility.yul\":7573:7598   */\n      swap2\n      pop\n        /* \"#utility.yul\":7612:7632   */\n      tag_167\n        /* \"#utility.yul\":7630:7631   */\n      dup4\n        /* \"#utility.yul\":7612:7632   */\n      tag_129\n      jump\t// in\n    tag_167:\n        /* \"#utility.yul\":7607:7632   */\n      swap3\n      pop\n        /* \"#utility.yul\":7651:7652   */\n      dup3\n        /* \"#utility.yul\":7648:7649   */\n      dup3\n        /* \"#utility.yul\":7645:7653   */\n      lt\n        /* \"#utility.yul\":7642:7644   */\n      iszero\n      tag_168\n      jumpi\n        /* \"#utility.yul\":7656:7674   */\n      tag_169\n      tag_159\n      jump\t// in\n    tag_169:\n        /* \"#utility.yul\":7642:7644   */\n    tag_168:\n        /* \"#utility.yul\":7701:7702   */\n      dup3\n        /* \"#utility.yul\":7698:7699   */\n      dup3\n        /* \"#utility.yul\":7694:7703   */\n      sub\n        /* \"#utility.yul\":7686:7703   */\n      swap1\n      pop\n        /* \"#utility.yul\":7563:7709   */\n      swap3\n      swap2\n      pop\n      pop\n      jump\t// out\n        /* \"#utility.yul\":7715:7811   */\n    tag_99:\n      0x00\n        /* \"#utility.yul\":7781:7805   */\n      tag_171\n        /* \"#utility.yul\":7799:7804   */\n      dup3\n        /* \"#utility.yul\":7781:7805   */\n      tag_172\n      jump\t// in\n    tag_171:\n        /* \"#utility.yul\":7770:7805   */\n      swap1\n      pop\n        /* \"#utility.yul\":7760:7811   */\n      swap2\n      swap1\n      pop\n      jump\t// out\n        /* \"#utility.yul\":7817:7921   */\n    tag_95:\n      0x00\n        /* \"#utility.yul\":7891:7915   */\n      tag_174\n        /* \"#utility.yul\":7909:7914   */\n      dup3\n        /* \"#utility.yul\":7891:7915   */\n      tag_172\n      jump\t// in\n    tag_174:\n        /* \"#utility.yul\":7880:7915   */\n      swap1\n      pop\n        /* \"#utility.yul\":7870:7921   */\n      swap2\n      swap1\n      pop\n      jump\t// out\n        /* \"#utility.yul\":7927:8017   */\n    tag_103:\n      0x00\n        /* \"#utility.yul\":8004:8009   */\n      dup2\n        /* \"#utility.yul\":7997:8010   */\n      iszero\n        /* \"#utility.yul\":7990:8011   */\n      iszero\n        /* \"#utility.yul\":7979:8011   */\n      swap1\n      pop\n        /* \"#utility.yul\":7969:8017   */\n      swap2\n      swap1\n      pop\n      jump\t// out\n        /* \"#utility.yul\":8023:8149   */\n    tag_172:\n      0x00\n        /* \"#utility.yul\":8100:8142   */\n      0xffffffffffffffffffffffffffffffffffffffff\n        /* \"#utility.yul\":8093:8098   */\n      dup3\n        /* \"#utility.yul\":8089:8143   */\n      and\n        /* \"#utility.yul\":8078:8143   */\n      swap1\n      pop\n        /* \"#utility.yul\":8068:8149   */\n      swap2\n      swap1\n      pop\n      jump\t// out\n        /* \"#utility.yul\":8155:8232   */\n    tag_129:\n      0x00\n        /* \"#utility.yul\":8221:8226   */\n      dup2\n        /* \"#utility.yul\":8210:8226   */\n      swap1\n      pop\n        /* \"#utility.yul\":8200:8232   */\n      swap2\n      swap1\n      pop\n      jump\t// out\n        /* \"#utility.yul\":8238:8392   */\n    tag_109:\n        /* \"#utility.yul\":8322:8328   */\n      dup3\n        /* \"#utility.yul\":8317:8320   */\n      dup2\n        /* \"#utility.yul\":8312:8315   */\n      dup4\n        /* \"#utility.yul\":8299:8329   */\n      calldatacopy\n        /* \"#utility.yul\":8384:8385   */\n      0x00\n        /* \"#utility.yul\":8375:8381   */\n      dup4\n        /* \"#utility.yul\":8370:8373   */\n      dup4\n        /* \"#utility.yul\":8366:8382   */\n      add\n        /* \"#utility.yul\":8359:8386   */\n      mstore\n        /* \"#utility.yul\":8289:8392   */\n      pop\n      pop\n      pop\n      jump\t// out\n        /* \"#utility.yul\":8398:8705   */\n    tag_118:\n        /* \"#utility.yul\":8466:8467   */\n      0x00\n        /* \"#utility.yul\":8476:8589   */\n    tag_180:\n        /* \"#utility.yul\":8490:8496   */\n      dup4\n        /* \"#utility.yul\":8487:8488   */\n      dup2\n        /* \"#utility.yul\":8484:8497   */\n      lt\n        /* \"#utility.yul\":8476:8589   */\n      iszero\n      tag_182\n      jumpi\n        /* \"#utility.yul\":8575:8576   */\n      dup1\n        /* \"#utility.yul\":8570:8573   */\n      dup3\n        /* \"#utility.yul\":8566:8577   */\n      add\n        /* \"#utility.yul\":8560:8578   */\n      mload\n        /* \"#utility.yul\":8556:8557   */\n      dup2\n        /* \"#utility.yul\":8551:8554   */\n      dup5\n        /* \"#utility.yul\":8547:8558   */\n      add\n        /* \"#utility.yul\":8540:8579   */\n      mstore\n        /* \"#utility.yul\":8512:8514   */\n      0x20\n        /* \"#utility.yul\":8509:8510   */\n      dup2\n        /* \"#utility.yul\":8505:8515   */\n      add\n        /* \"#utility.yul\":8500:8515   */\n      swap1\n      pop\n        /* \"#utility.yul\":8476:8589   */\n      jump(tag_180)\n    tag_182:\n        /* \"#utility.yul\":8607:8613   */\n      dup4\n        /* \"#utility.yul\":8604:8605   */\n      dup2\n        /* \"#utility.yul\":8601:8614   */\n      gt\n        /* \"#utility.yul\":8598:8600   */\n      iszero\n      tag_183\n      jumpi\n        /* \"#utility.yul\":8687:8688   */\n      0x00\n        /* \"#utility.yul\":8678:8684   */\n      dup5\n        /* \"#utility.yul\":8673:8676   */\n      dup5\n        /* \"#utility.yul\":8669:8685   */\n      add\n        /* \"#utility.yul\":8662:8689   */\n      mstore\n        /* \"#utility.yul\":8598:8600   */\n    tag_183:\n        /* \"#utility.yul\":8447:8705   */\n      pop\n      pop\n      pop\n      pop\n      jump\t// out\n        /* \"#utility.yul\":8711:9031   */\n    tag_30:\n      0x00\n        /* \"#utility.yul\":8792:8793   */\n      0x02\n        /* \"#utility.yul\":8786:8790   */\n      dup3\n        /* \"#utility.yul\":8782:8794   */\n      div\n        /* \"#utility.yul\":8772:8794   */\n      swap1\n      pop\n        /* \"#utility.yul\":8839:8840   */\n      0x01\n        /* \"#utility.yul\":8833:8837   */\n      dup3\n        /* \"#utility.yul\":8829:8841   */\n      and\n        /* \"#utility.yul\":8860:8878   */\n      dup1\n        /* \"#utility.yul\":8850:8852   */\n      tag_185\n      jumpi\n        /* \"#utility.yul\":8916:8920   */\n      0x7f\n        /* \"#utility.yul\":8908:8914   */\n      dup3\n        /* \"#utility.yul\":8904:8921   */\n      and\n        /* \"#utility.yul\":8894:8921   */\n      swap2\n      pop\n        /* \"#utility.yul\":8850:8852   */\n    tag_185:\n        /* \"#utility.yul\":8978:8980   */\n      0x20\n        /* \"#utility.yul\":8970:8976   */\n      dup3\n        /* \"#utility.yul\":8967:8981   */\n      lt\n        /* \"#utility.yul\":8947:8965   */\n      dup2\n        /* \"#utility.yul\":8944:8982   */\n      eq\n        /* \"#utility.yul\":8941:8943   */\n      iszero\n      tag_186\n      jumpi\n        /* \"#utility.yul\":8997:9015   */\n      tag_187\n      tag_188\n      jump\t// in\n    tag_187:\n        /* \"#utility.yul\":8941:8943   */\n    tag_186:\n        /* \"#utility.yul\":8762:9031   */\n      pop\n      swap2\n      swap1\n      pop\n      jump\t// out\n        /* \"#utility.yul\":9037:9217   */\n    tag_159:\n        /* \"#utility.yul\":9085:9162   */\n      0x4e487b7100000000000000000000000000000000000000000000000000000000\n        /* \"#utility.yul\":9082:9083   */\n      0x00\n        /* \"#utility.yul\":9075:9163   */\n      mstore\n        /* \"#utility.yul\":9182:9186   */\n      0x11\n        /* \"#utility.yul\":9179:9180   */\n      0x04\n        /* \"#utility.yul\":9172:9187   */\n      mstore\n        /* \"#utility.yul\":9206:9210   */\n      0x24\n        /* \"#utility.yul\":9203:9204   */\n      0x00\n        /* \"#utility.yul\":9196:9211   */\n      revert\n        /* \"#utility.yul\":9223:9403   */\n    tag_188:\n        /* \"#utility.yul\":9271:9348   */\n      0x4e487b7100000000000000000000000000000000000000000000000000000000\n        /* \"#utility.yul\":9268:9269   */\n      0x00\n        /* \"#utility.yul\":9261:9349   */\n      mstore\n        /* \"#utility.yul\":9368:9372   */\n      0x22\n        /* \"#utility.yul\":9365:9366   */\n      0x04\n        /* \"#utility.yul\":9358:9373   */\n      mstore\n        /* \"#utility.yul\":9392:9396   */\n      0x24\n        /* \"#utility.yul\":9389:9390   */\n      0x00\n        /* \"#utility.yul\":9382:9397   */\n      revert\n        /* \"#utility.yul\":9409:9511   */\n    tag_111:\n      0x00\n        /* \"#utility.yul\":9501:9503   */\n      0x1f\n        /* \"#utility.yul\":9497:9504   */\n      not\n        /* \"#utility.yul\":9492:9494   */\n      0x1f\n        /* \"#utility.yul\":9485:9490   */\n      dup4\n        /* \"#utility.yul\":9481:9495   */\n      add\n        /* \"#utility.yul\":9477:9505   */\n      and\n        /* \"#utility.yul\":9467:9505   */\n      swap1\n      pop\n        /* \"#utility.yul\":9457:9511   */\n      swap2\n      swap1\n      pop\n      jump\t// out\n        /* \"#utility.yul\":9517:9639   */\n    tag_81:\n        /* \"#utility.yul\":9590:9614   */\n      tag_193\n        /* \"#utility.yul\":9608:9613   */\n      dup2\n        /* \"#utility.yul\":9590:9614   */\n      tag_129\n      jump\t// in\n    tag_193:\n        /* \"#utility.yul\":9583:9588   */\n      dup2\n        /* \"#utility.yul\":9580:9615   */\n      eq\n        /* \"#utility.yul\":9570:9572   */\n      tag_194\n      jumpi\n        /* \"#utility.yul\":9629:9630   */\n      0x00\n        /* \"#utility.yul\":9626:9627   */\n      dup1\n        /* \"#utility.yul\":9619:9631   */\n      revert\n        /* \"#utility.yul\":9570:9572   */\n    tag_194:\n        /* \"#utility.yul\":9560:9639   */\n      pop\n      jump\t// out\n\n    auxdata: 0xa2646970667358221220ddbfe0b86afa1f23f58552cdc995f7858235284e2f8dcded984e21f824e09f6764736f6c63430008000033\n}\n",
				"bytecode": {
					"linkReferences": {},
					"object": "608060405234801561001057600080fd5b50336000806101000a81548173ffffffffffffffffffffffffffffffffffffffff021916908373ffffffffffffffffffffffffffffffffffffffff160217905550610ce2806100606000396000f3fe608060405234801561001057600080fd5b506004361061004c5760003560e01c80634534cd9c14610051578063571a26a0146100815780638da5cb5b146100b8578063e9835d15146100d6575b600080fd5b61006b60048036038101906100669190610744565b6100f2565b60405161007891906109ef565b60405180910390f35b61009b60048036038101906100969190610744565b6102cb565b6040516100af98979695949392919061092a565b60405180910390f35b6100c06103d8565b6040516100cd919061090f565b60405180910390f35b6100f060048036038101906100eb919061076d565b6103fc565b005b6000806001838154811061012f577f4e487b7100000000000000000000000000000000000000000000000000000000600052603260045260246000fd5b9060005260206000209060080201604051806101000160405290816000820160009054906101000a900473ffffffffffffffffffffffffffffffffffffffff1673ffffffffffffffffffffffffffffffffffffffff1673ffffffffffffffffffffffffffffffffffffffff16815260200160018201548152602001600282015481526020016003820154815260200160048201548152602001600582015481526020016006820180546101e190610bf4565b80601f016020809104026020016040519081016040528092919081815260200182805461020d90610bf4565b801561025a5780601f1061022f5761010080835404028352916020019161025a565b820191906000526020600020905b81548152906001019060200180831161023d57829003601f168201915b505050505081526020016007820160009054906101000a900460ff16151515158152505090508060e00151156102c5576040517f08c379a00000000000000000000000000000000000000000000000000000000081526004016102bc906109cf565b60405180910390fd5b50919050565b600181815481106102db57600080fd5b90600052602060002090600802016000915090508060000160009054906101000a900473ffffffffffffffffffffffffffffffffffffffff169080600101549080600201549080600301549080600401549080600501549080600601805461034290610bf4565b80601f016020809104026020016040519081016040528092919081815260200182805461036e90610bf4565b80156103bb5780601f10610390576101008083540402835291602001916103bb565b820191906000526020600020905b81548152906001019060200180831161039e57829003601f168201915b5050505050908060070160009054906101000a900460ff16905088565b60008054906101000a900473ffffffffffffffffffffffffffffffffffffffff1681565b600080821461040b5781610410565b6202a3005b9050808561041e9190610aca565b861015610460576040517f08c379a0000000000000000000000000000000000000000000000000000000008152600401610457906109af565b60405180910390fd5b60006040518061010001604052803373ffffffffffffffffffffffffffffffffffffffff16815260200188815260200188815260200142815260200183426104a89190610a74565b815260200187815260200186868080601f016020809104026020016040519081016040528093929190818152602001838380828437600081840152601f19601f820116905080830192505050505050508152602001600015158152509050600181908060018154018082558091505060019003906000526020600020906008020160009091909190915060008201518160000160006101000a81548173ffffffffffffffffffffffffffffffffffffffff021916908373ffffffffffffffffffffffffffffffffffffffff1602179055506020820151816001015560408201518160020155606082015181600301556080820151816004015560a0820151816005015560c08201518160060190805190602001906105c7929190610642565b5060e08201518160070160006101000a81548160ff02191690831515021790555050507f5bf34ed94988e5dcdc7d1faaa54eb1d3b55f45d5f11457e235afb21a8ebbe73c6001808054905061061c9190610b24565b86868a86604051610631959493929190610a0a565b60405180910390a150505050505050565b82805461064e90610bf4565b90600052602060002090601f01602090048101928261067057600085556106b7565b82601f1061068957805160ff19168380011785556106b7565b828001600101855582156106b7579182015b828111156106b657825182559160200191906001019061069b565b5b5090506106c491906106c8565b5090565b5b808211156106e15760008160009055506001016106c9565b5090565b60008083601f8401126106f757600080fd5b8235905067ffffffffffffffff81111561071057600080fd5b60208301915083600182028301111561072857600080fd5b9250929050565b60008135905061073e81610c95565b92915050565b60006020828403121561075657600080fd5b60006107648482850161072f565b91505092915050565b60008060008060006080868803121561078557600080fd5b60006107938882890161072f565b95505060206107a48882890161072f565b945050604086013567ffffffffffffffff8111156107c157600080fd5b6107cd888289016106e5565b935093505060606107e08882890161072f565b9150509295509295909350565b6107f681610b6a565b82525050565b61080581610b58565b82525050565b61081481610b7c565b82525050565b60006108268385610a63565b9350610833838584610bb2565b61083c83610c84565b840190509392505050565b600061085282610a58565b61085c8185610a63565b935061086c818560208601610bc1565b61087581610c84565b840191505092915050565b600061088d601883610a63565b91507f696e636f7272656374207374617274696e6720707269636500000000000000006000830152602082019050919050565b60006108cd600883610a63565b91507f73746f70706564210000000000000000000000000000000000000000000000006000830152602082019050919050565b61090981610ba8565b82525050565b600060208201905061092460008301846107fc565b92915050565b600061010082019050610940600083018b6107ed565b61094d602083018a610900565b61095a6040830189610900565b6109676060830188610900565b6109746080830187610900565b61098160a0830186610900565b81810360c08301526109938185610847565b90506109a260e083018461080b565b9998505050505050505050565b600060208201905081810360008301526109c881610880565b9050919050565b600060208201905081810360008301526109e8816108c0565b9050919050565b6000602082019050610a046000830184610900565b92915050565b6000608082019050610a1f6000830188610900565b8181036020830152610a3281868861081a565b9050610a416040830185610900565b610a4e6060830184610900565b9695505050505050565b600081519050919050565b600082825260208201905092915050565b6000610a7f82610ba8565b9150610a8a83610ba8565b9250827fffffffffffffffffffffffffffffffffffffffffffffffffffffffffffffffff03821115610abf57610abe610c26565b5b828201905092915050565b6000610ad582610ba8565b9150610ae083610ba8565b9250817fffffffffffffffffffffffffffffffffffffffffffffffffffffffffffffffff0483118215151615610b1957610b18610c26565b5b828202905092915050565b6000610b2f82610ba8565b9150610b3a83610ba8565b925082821015610b4d57610b4c610c26565b5b828203905092915050565b6000610b6382610b88565b9050919050565b6000610b7582610b88565b9050919050565b60008115159050919050565b600073ffffffffffffffffffffffffffffffffffffffff82169050919050565b6000819050919050565b82818337600083830152505050565b60005b83811015610bdf578082015181840152602081019050610bc4565b83811115610bee576000848401525b50505050565b60006002820490506001821680610c0c57607f821691505b60208210811415610c2057610c1f610c55565b5b50919050565b7f4e487b7100000000000000000000000000000000000000000000000000000000600052601160045260246000fd5b7f4e487b7100000000000000000000000000000000000000000000000000000000600052602260045260246000fd5b6000601f19601f8301169050919050565b610c9e81610ba8565b8114610ca957600080fd5b5056fea2646970667358221220ddbfe0b86afa1f23f58552cdc995f7858235284e2f8dcded984e21f824e09f6764736f6c63430008000033",
					"opcodes": "PUSH1 0x80 PUSH1 0x40 MSTORE CALLVALUE DUP1 ISZERO PUSH2 0x10 JUMPI PUSH1 0x0 DUP1 REVERT JUMPDEST POP CALLER PUSH1 0x0 DUP1 PUSH2 0x100 EXP DUP2 SLOAD DUP2 PUSH20 0xFFFFFFFFFFFFFFFFFFFFFFFFFFFFFFFFFFFFFFFF MUL NOT AND SWAP1 DUP4 PUSH20 0xFFFFFFFFFFFFFFFFFFFFFFFFFFFFFFFFFFFFFFFF AND MUL OR SWAP1 SSTORE POP PUSH2 0xCE2 DUP1 PUSH2 0x60 PUSH1 0x0 CODECOPY PUSH1 0x0 RETURN INVALID PUSH1 0x80 PUSH1 0x40 MSTORE CALLVALUE DUP1 ISZERO PUSH2 0x10 JUMPI PUSH1 0x0 DUP1 REVERT JUMPDEST POP PUSH1 0x4 CALLDATASIZE LT PUSH2 0x4C JUMPI PUSH1 0x0 CALLDATALOAD PUSH1 0xE0 SHR DUP1 PUSH4 0x4534CD9C EQ PUSH2 0x51 JUMPI DUP1 PUSH4 0x571A26A0 EQ PUSH2 0x81 JUMPI DUP1 PUSH4 0x8DA5CB5B EQ PUSH2 0xB8 JUMPI DUP1 PUSH4 0xE9835D15 EQ PUSH2 0xD6 JUMPI JUMPDEST PUSH1 0x0 DUP1 REVERT JUMPDEST PUSH2 0x6B PUSH1 0x4 DUP1 CALLDATASIZE SUB DUP2 ADD SWAP1 PUSH2 0x66 SWAP2 SWAP1 PUSH2 0x744 JUMP JUMPDEST PUSH2 0xF2 JUMP JUMPDEST PUSH1 0x40 MLOAD PUSH2 0x78 SWAP2 SWAP1 PUSH2 0x9EF JUMP JUMPDEST PUSH1 0x40 MLOAD DUP1 SWAP2 SUB SWAP1 RETURN JUMPDEST PUSH2 0x9B PUSH1 0x4 DUP1 CALLDATASIZE SUB DUP2 ADD SWAP1 PUSH2 0x96 SWAP2 SWAP1 PUSH2 0x744 JUMP JUMPDEST PUSH2 0x2CB JUMP JUMPDEST PUSH1 0x40 MLOAD PUSH2 0xAF SWAP9 SWAP8 SWAP7 SWAP6 SWAP5 SWAP4 SWAP3 SWAP2 SWAP1 PUSH2 0x92A JUMP JUMPDEST PUSH1 0x40 MLOAD DUP1 SWAP2 SUB SWAP1 RETURN JUMPDEST PUSH2 0xC0 PUSH2 0x3D8 JUMP JUMPDEST PUSH1 0x40 MLOAD PUSH2 0xCD SWAP2 SWAP1 PUSH2 0x90F JUMP JUMPDEST PUSH1 0x40 MLOAD DUP1 SWAP2 SUB SWAP1 RETURN JUMPDEST PUSH2 0xF0 PUSH1 0x4 DUP1 CALLDATASIZE SUB DUP2 ADD SWAP1 PUSH2 0xEB SWAP2 SWAP1 PUSH2 0x76D JUMP JUMPDEST PUSH2 0x3FC JUMP JUMPDEST STOP JUMPDEST PUSH1 0x0 DUP1 PUSH1 0x1 DUP4 DUP2 SLOAD DUP2 LT PUSH2 0x12F JUMPI PUSH32 0x4E487B7100000000000000000000000000000000000000000000000000000000 PUSH1 0x0 MSTORE PUSH1 0x32 PUSH1 0x4 MSTORE PUSH1 0x24 PUSH1 0x0 REVERT JUMPDEST SWAP1 PUSH1 0x0 MSTORE PUSH1 0x20 PUSH1 0x0 KECCAK256 SWAP1 PUSH1 0x8 MUL ADD PUSH1 0x40 MLOAD DUP1 PUSH2 0x100 ADD PUSH1 0x40 MSTORE SWAP1 DUP2 PUSH1 0x0 DUP3 ADD PUSH1 0x0 SWAP1 SLOAD SWAP1 PUSH2 0x100 EXP SWAP1 DIV PUSH20 0xFFFFFFFFFFFFFFFFFFFFFFFFFFFFFFFFFFFFFFFF AND PUSH20 0xFFFFFFFFFFFFFFFFFFFFFFFFFFFFFFFFFFFFFFFF AND PUSH20 0xFFFFFFFFFFFFFFFFFFFFFFFFFFFFFFFFFFFFFFFF AND DUP2 MSTORE PUSH1 0x20 ADD PUSH1 0x1 DUP3 ADD SLOAD DUP2 MSTORE PUSH1 0x20 ADD PUSH1 0x2 DUP3 ADD SLOAD DUP2 MSTORE PUSH1 0x20 ADD PUSH1 0x3 DUP3 ADD SLOAD DUP2 MSTORE PUSH1 0x20 ADD PUSH1 0x4 DUP3 ADD SLOAD DUP2 MSTORE PUSH1 0x20 ADD PUSH1 0x5 DUP3 ADD SLOAD DUP2 MSTORE PUSH1 0x20 ADD PUSH1 0x6 DUP3 ADD DUP1 SLOAD PUSH2 0x1E1 SWAP1 PUSH2 0xBF4 JUMP JUMPDEST DUP1 PUSH1 0x1F ADD PUSH1 0x20 DUP1 SWAP2 DIV MUL PUSH1 0x20 ADD PUSH1 0x40 MLOAD SWAP1 DUP2 ADD PUSH1 0x40 MSTORE DUP1 SWAP3 SWAP2 SWAP1 DUP2 DUP2 MSTORE PUSH1 0x20 ADD DUP3 DUP1 SLOAD PUSH2 0x20D SWAP1 PUSH2 0xBF4 JUMP JUMPDEST DUP1 ISZERO PUSH2 0x25A JUMPI DUP1 PUSH1 0x1F LT PUSH2 0x22F JUMPI PUSH2 0x100 DUP1 DUP4 SLOAD DIV MUL DUP4 MSTORE SWAP2 PUSH1 0x20 ADD SWAP2 PUSH2 0x25A JUMP JUMPDEST DUP3 ADD SWAP2 SWAP1 PUSH1 0x0 MSTORE PUSH1 0x20 PUSH1 0x0 KECCAK256 SWAP1 JUMPDEST DUP2 SLOAD DUP2 MSTORE SWAP1 PUSH1 0x1 ADD SWAP1 PUSH1 0x20 ADD DUP1 DUP4 GT PUSH2 0x23D JUMPI DUP3 SWAP1 SUB PUSH1 0x1F AND DUP3 ADD SWAP2 JUMPDEST POP POP POP POP POP DUP2 MSTORE PUSH1 0x20 ADD PUSH1 0x7 DUP3 ADD PUSH1 0x0 SWAP1 SLOAD SWAP1 PUSH2 0x100 EXP SWAP1 DIV PUSH1 0xFF AND ISZERO ISZERO ISZERO ISZERO DUP2 MSTORE POP POP SWAP1 POP DUP1 PUSH1 0xE0 ADD MLOAD ISZERO PUSH2 0x2C5 JUMPI PUSH1 0x40 MLOAD PUSH32 0x8C379A000000000000000000000000000000000000000000000000000000000 DUP2 MSTORE PUSH1 0x4 ADD PUSH2 0x2BC SWAP1 PUSH2 0x9CF JUMP JUMPDEST PUSH1 0x40 MLOAD DUP1 SWAP2 SUB SWAP1 REVERT JUMPDEST POP SWAP2 SWAP1 POP JUMP JUMPDEST PUSH1 0x1 DUP2 DUP2 SLOAD DUP2 LT PUSH2 0x2DB JUMPI PUSH1 0x0 DUP1 REVERT JUMPDEST SWAP1 PUSH1 0x0 MSTORE PUSH1 0x20 PUSH1 0x0 KECCAK256 SWAP1 PUSH1 0x8 MUL ADD PUSH1 0x0 SWAP2 POP SWAP1 POP DUP1 PUSH1 0x0 ADD PUSH1 0x0 SWAP1 SLOAD SWAP1 PUSH2 0x100 EXP SWAP1 DIV PUSH20 0xFFFFFFFFFFFFFFFFFFFFFFFFFFFFFFFFFFFFFFFF AND SWAP1 DUP1 PUSH1 0x1 ADD SLOAD SWAP1 DUP1 PUSH1 0x2 ADD SLOAD SWAP1 DUP1 PUSH1 0x3 ADD SLOAD SWAP1 DUP1 PUSH1 0x4 ADD SLOAD SWAP1 DUP1 PUSH1 0x5 ADD SLOAD SWAP1 DUP1 PUSH1 0x6 ADD DUP1 SLOAD PUSH2 0x342 SWAP1 PUSH2 0xBF4 JUMP JUMPDEST DUP1 PUSH1 0x1F ADD PUSH1 0x20 DUP1 SWAP2 DIV MUL PUSH1 0x20 ADD PUSH1 0x40 MLOAD SWAP1 DUP2 ADD PUSH1 0x40 MSTORE DUP1 SWAP3 SWAP2 SWAP1 DUP2 DUP2 MSTORE PUSH1 0x20 ADD DUP3 DUP1 SLOAD PUSH2 0x36E SWAP1 PUSH2 0xBF4 JUMP JUMPDEST DUP1 ISZERO PUSH2 0x3BB JUMPI DUP1 PUSH1 0x1F LT PUSH2 0x390 JUMPI PUSH2 0x100 DUP1 DUP4 SLOAD DIV MUL DUP4 MSTORE SWAP2 PUSH1 0x20 ADD SWAP2 PUSH2 0x3BB JUMP JUMPDEST DUP3 ADD SWAP2 SWAP1 PUSH1 0x0 MSTORE PUSH1 0x20 PUSH1 0x0 KECCAK256 SWAP1 JUMPDEST DUP2 SLOAD DUP2 MSTORE SWAP1 PUSH1 0x1 ADD SWAP1 PUSH1 0x20 ADD DUP1 DUP4 GT PUSH2 0x39E JUMPI DUP3 SWAP1 SUB PUSH1 0x1F AND DUP3 ADD SWAP2 JUMPDEST POP POP POP POP POP SWAP1 DUP1 PUSH1 0x7 ADD PUSH1 0x0 SWAP1 SLOAD SWAP1 PUSH2 0x100 EXP SWAP1 DIV PUSH1 0xFF AND SWAP1 POP DUP9 JUMP JUMPDEST PUSH1 0x0 DUP1 SLOAD SWAP1 PUSH2 0x100 EXP SWAP1 DIV PUSH20 0xFFFFFFFFFFFFFFFFFFFFFFFFFFFFFFFFFFFFFFFF AND DUP2 JUMP JUMPDEST PUSH1 0x0 DUP1 DUP3 EQ PUSH2 0x40B JUMPI DUP2 PUSH2 0x410 JUMP JUMPDEST PUSH3 0x2A300 JUMPDEST SWAP1 POP DUP1 DUP6 PUSH2 0x41E SWAP2 SWAP1 PUSH2 0xACA JUMP JUMPDEST DUP7 LT ISZERO PUSH2 0x460 JUMPI PUSH1 0x40 MLOAD PUSH32 0x8C379A000000000000000000000000000000000000000000000000000000000 DUP2 MSTORE PUSH1 0x4 ADD PUSH2 0x457 SWAP1 PUSH2 0x9AF JUMP JUMPDEST PUSH1 0x40 MLOAD DUP1 SWAP2 SUB SWAP1 REVERT JUMPDEST PUSH1 0x0 PUSH1 0x40 MLOAD DUP1 PUSH2 0x100 ADD PUSH1 0x40 MSTORE DUP1 CALLER PUSH20 0xFFFFFFFFFFFFFFFFFFFFFFFFFFFFFFFFFFFFFFFF AND DUP2 MSTORE PUSH1 0x20 ADD DUP9 DUP2 MSTORE PUSH1 0x20 ADD DUP9 DUP2 MSTORE PUSH1 0x20 ADD TIMESTAMP DUP2 MSTORE PUSH1 0x20 ADD DUP4 TIMESTAMP PUSH2 0x4A8 SWAP2 SWAP1 PUSH2 0xA74 JUMP JUMPDEST DUP2 MSTORE PUSH1 0x20 ADD DUP8 DUP2 MSTORE PUSH1 0x20 ADD DUP7 DUP7 DUP1 DUP1 PUSH1 0x1F ADD PUSH1 0x20 DUP1 SWAP2 DIV MUL PUSH1 0x20 ADD PUSH1 0x40 MLOAD SWAP1 DUP2 ADD PUSH1 0x40 MSTORE DUP1 SWAP4 SWAP3 SWAP2 SWAP1 DUP2 DUP2 MSTORE PUSH1 0x20 ADD DUP4 DUP4 DUP1 DUP3 DUP5 CALLDATACOPY PUSH1 0x0 DUP2 DUP5 ADD MSTORE PUSH1 0x1F NOT PUSH1 0x1F DUP3 ADD AND SWAP1 POP DUP1 DUP4 ADD SWAP3 POP POP POP POP POP POP POP DUP2 MSTORE PUSH1 0x20 ADD PUSH1 0x0 ISZERO ISZERO DUP2 MSTORE POP SWAP1 POP PUSH1 0x1 DUP2 SWAP1 DUP1 PUSH1 0x1 DUP2 SLOAD ADD DUP1 DUP3 SSTORE DUP1 SWAP2 POP POP PUSH1 0x1 SWAP1 SUB SWAP1 PUSH1 0x0 MSTORE PUSH1 0x20 PUSH1 0x0 KECCAK256 SWAP1 PUSH1 0x8 MUL ADD PUSH1 0x0 SWAP1 SWAP2 SWAP1 SWAP2 SWAP1 SWAP2 POP PUSH1 0x0 DUP3 ADD MLOAD DUP2 PUSH1 0x0 ADD PUSH1 0x0 PUSH2 0x100 EXP DUP2 SLOAD DUP2 PUSH20 0xFFFFFFFFFFFFFFFFFFFFFFFFFFFFFFFFFFFFFFFF MUL NOT AND SWAP1 DUP4 PUSH20 0xFFFFFFFFFFFFFFFFFFFFFFFFFFFFFFFFFFFFFFFF AND MUL OR SWAP1 SSTORE POP PUSH1 0x20 DUP3 ADD MLOAD DUP2 PUSH1 0x1 ADD SSTORE PUSH1 0x40 DUP3 ADD MLOAD DUP2 PUSH1 0x2 ADD SSTORE PUSH1 0x60 DUP3 ADD MLOAD DUP2 PUSH1 0x3 ADD SSTORE PUSH1 0x80 DUP3 ADD MLOAD DUP2 PUSH1 0x4 ADD SSTORE PUSH1 0xA0 DUP3 ADD MLOAD DUP2 PUSH1 0x5 ADD SSTORE PUSH1 0xC0 DUP3 ADD MLOAD DUP2 PUSH1 0x6 ADD SWAP1 DUP1 MLOAD SWAP1 PUSH1 0x20 ADD SWAP1 PUSH2 0x5C7 SWAP3 SWAP2 SWAP1 PUSH2 0x642 JUMP JUMPDEST POP PUSH1 0xE0 DUP3 ADD MLOAD DUP2 PUSH1 0x7 ADD PUSH1 0x0 PUSH2 0x100 EXP DUP2 SLOAD DUP2 PUSH1 0xFF MUL NOT AND SWAP1 DUP4 ISZERO ISZERO MUL OR SWAP1 SSTORE POP POP POP PUSH32 0x5BF34ED94988E5DCDC7D1FAAA54EB1D3B55F45D5F11457E235AFB21A8EBBE73C PUSH1 0x1 DUP1 DUP1 SLOAD SWAP1 POP PUSH2 0x61C SWAP2 SWAP1 PUSH2 0xB24 JUMP JUMPDEST DUP7 DUP7 DUP11 DUP7 PUSH1 0x40 MLOAD PUSH2 0x631 SWAP6 SWAP5 SWAP4 SWAP3 SWAP2 SWAP1 PUSH2 0xA0A JUMP JUMPDEST PUSH1 0x40 MLOAD DUP1 SWAP2 SUB SWAP1 LOG1 POP POP POP POP POP POP POP JUMP JUMPDEST DUP3 DUP1 SLOAD PUSH2 0x64E SWAP1 PUSH2 0xBF4 JUMP JUMPDEST SWAP1 PUSH1 0x0 MSTORE PUSH1 0x20 PUSH1 0x0 KECCAK256 SWAP1 PUSH1 0x1F ADD PUSH1 0x20 SWAP1 DIV DUP2 ADD SWAP3 DUP3 PUSH2 0x670 JUMPI PUSH1 0x0 DUP6 SSTORE PUSH2 0x6B7 JUMP JUMPDEST DUP3 PUSH1 0x1F LT PUSH2 0x689 JUMPI DUP1 MLOAD PUSH1 0xFF NOT AND DUP4 DUP1 ADD OR DUP6 SSTORE PUSH2 0x6B7 JUMP JUMPDEST DUP3 DUP1 ADD PUSH1 0x1 ADD DUP6 SSTORE DUP3 ISZERO PUSH2 0x6B7 JUMPI SWAP2 DUP3 ADD JUMPDEST DUP3 DUP2 GT ISZERO PUSH2 0x6B6 JUMPI DUP3 MLOAD DUP3 SSTORE SWAP2 PUSH1 0x20 ADD SWAP2 SWAP1 PUSH1 0x1 ADD SWAP1 PUSH2 0x69B JUMP JUMPDEST JUMPDEST POP SWAP1 POP PUSH2 0x6C4 SWAP2 SWAP1 PUSH2 0x6C8 JUMP JUMPDEST POP SWAP1 JUMP JUMPDEST JUMPDEST DUP1 DUP3 GT ISZERO PUSH2 0x6E1 JUMPI PUSH1 0x0 DUP2 PUSH1 0x0 SWAP1 SSTORE POP PUSH1 0x1 ADD PUSH2 0x6C9 JUMP JUMPDEST POP SWAP1 JUMP JUMPDEST PUSH1 0x0 DUP1 DUP4 PUSH1 0x1F DUP5 ADD SLT PUSH2 0x6F7 JUMPI PUSH1 0x0 DUP1 REVERT JUMPDEST DUP3 CALLDATALOAD SWAP1 POP PUSH8 0xFFFFFFFFFFFFFFFF DUP2 GT ISZERO PUSH2 0x710 JUMPI PUSH1 0x0 DUP1 REVERT JUMPDEST PUSH1 0x20 DUP4 ADD SWAP2 POP DUP4 PUSH1 0x1 DUP3 MUL DUP4 ADD GT ISZERO PUSH2 0x728 JUMPI PUSH1 0x0 DUP1 REVERT JUMPDEST SWAP3 POP SWAP3 SWAP1 POP JUMP JUMPDEST PUSH1 0x0 DUP2 CALLDATALOAD SWAP1 POP PUSH2 0x73E DUP2 PUSH2 0xC95 JUMP JUMPDEST SWAP3 SWAP2 POP POP JUMP JUMPDEST PUSH1 0x0 PUSH1 0x20 DUP3 DUP5 SUB SLT ISZERO PUSH2 0x756 JUMPI PUSH1 0x0 DUP1 REVERT JUMPDEST PUSH1 0x0 PUSH2 0x764 DUP5 DUP3 DUP6 ADD PUSH2 0x72F JUMP JUMPDEST SWAP2 POP POP SWAP3 SWAP2 POP POP JUMP JUMPDEST PUSH1 0x0 DUP1 PUSH1 0x0 DUP1 PUSH1 0x0 PUSH1 0x80 DUP7 DUP9 SUB SLT ISZERO PUSH2 0x785 JUMPI PUSH1 0x0 DUP1 REVERT JUMPDEST PUSH1 0x0 PUSH2 0x793 DUP9 DUP3 DUP10 ADD PUSH2 0x72F JUMP JUMPDEST SWAP6 POP POP PUSH1 0x20 PUSH2 0x7A4 DUP9 DUP3 DUP10 ADD PUSH2 0x72F JUMP JUMPDEST SWAP5 POP POP PUSH1 0x40 DUP7 ADD CALLDATALOAD PUSH8 0xFFFFFFFFFFFFFFFF DUP2 GT ISZERO PUSH2 0x7C1 JUMPI PUSH1 0x0 DUP1 REVERT JUMPDEST PUSH2 0x7CD DUP9 DUP3 DUP10 ADD PUSH2 0x6E5 JUMP JUMPDEST SWAP4 POP SWAP4 POP POP PUSH1 0x60 PUSH2 0x7E0 DUP9 DUP3 DUP10 ADD PUSH2 0x72F JUMP JUMPDEST SWAP2 POP POP SWAP3 SWAP6 POP SWAP3 SWAP6 SWAP1 SWAP4 POP JUMP JUMPDEST PUSH2 0x7F6 DUP2 PUSH2 0xB6A JUMP JUMPDEST DUP3 MSTORE POP POP JUMP JUMPDEST PUSH2 0x805 DUP2 PUSH2 0xB58 JUMP JUMPDEST DUP3 MSTORE POP POP JUMP JUMPDEST PUSH2 0x814 DUP2 PUSH2 0xB7C JUMP JUMPDEST DUP3 MSTORE POP POP JUMP JUMPDEST PUSH1 0x0 PUSH2 0x826 DUP4 DUP6 PUSH2 0xA63 JUMP JUMPDEST SWAP4 POP PUSH2 0x833 DUP4 DUP6 DUP5 PUSH2 0xBB2 JUMP JUMPDEST PUSH2 0x83C DUP4 PUSH2 0xC84 JUMP JUMPDEST DUP5 ADD SWAP1 POP SWAP4 SWAP3 POP POP POP JUMP JUMPDEST PUSH1 0x0 PUSH2 0x852 DUP3 PUSH2 0xA58 JUMP JUMPDEST PUSH2 0x85C DUP2 DUP6 PUSH2 0xA63 JUMP JUMPDEST SWAP4 POP PUSH2 0x86C DUP2 DUP6 PUSH1 0x20 DUP7 ADD PUSH2 0xBC1 JUMP JUMPDEST PUSH2 0x875 DUP2 PUSH2 0xC84 JUMP JUMPDEST DUP5 ADD SWAP2 POP POP SWAP3 SWAP2 POP POP JUMP JUMPDEST PUSH1 0x0 PUSH2 0x88D PUSH1 0x18 DUP4 PUSH2 0xA63 JUMP JUMPDEST SWAP2 POP PUSH32 0x696E636F7272656374207374617274696E672070726963650000000000000000 PUSH1 0x0 DUP4 ADD MSTORE PUSH1 0x20 DUP3 ADD SWAP1 POP SWAP2 SWAP1 POP JUMP JUMPDEST PUSH1 0x0 PUSH2 0x8CD PUSH1 0x8 DUP4 PUSH2 0xA63 JUMP JUMPDEST SWAP2 POP PUSH32 0x73746F7070656421000000000000000000000000000000000000000000000000 PUSH1 0x0 DUP4 ADD MSTORE PUSH1 0x20 DUP3 ADD SWAP1 POP SWAP2 SWAP1 POP JUMP JUMPDEST PUSH2 0x909 DUP2 PUSH2 0xBA8 JUMP JUMPDEST DUP3 MSTORE POP POP JUMP JUMPDEST PUSH1 0x0 PUSH1 0x20 DUP3 ADD SWAP1 POP PUSH2 0x924 PUSH1 0x0 DUP4 ADD DUP5 PUSH2 0x7FC JUMP JUMPDEST SWAP3 SWAP2 POP POP JUMP JUMPDEST PUSH1 0x0 PUSH2 0x100 DUP3 ADD SWAP1 POP PUSH2 0x940 PUSH1 0x0 DUP4 ADD DUP12 PUSH2 0x7ED JUMP JUMPDEST PUSH2 0x94D PUSH1 0x20 DUP4 ADD DUP11 PUSH2 0x900 JUMP JUMPDEST PUSH2 0x95A PUSH1 0x40 DUP4 ADD DUP10 PUSH2 0x900 JUMP JUMPDEST PUSH2 0x967 PUSH1 0x60 DUP4 ADD DUP9 PUSH2 0x900 JUMP JUMPDEST PUSH2 0x974 PUSH1 0x80 DUP4 ADD DUP8 PUSH2 0x900 JUMP JUMPDEST PUSH2 0x981 PUSH1 0xA0 DUP4 ADD DUP7 PUSH2 0x900 JUMP JUMPDEST DUP2 DUP2 SUB PUSH1 0xC0 DUP4 ADD MSTORE PUSH2 0x993 DUP2 DUP6 PUSH2 0x847 JUMP JUMPDEST SWAP1 POP PUSH2 0x9A2 PUSH1 0xE0 DUP4 ADD DUP5 PUSH2 0x80B JUMP JUMPDEST SWAP10 SWAP9 POP POP POP POP POP POP POP POP POP JUMP JUMPDEST PUSH1 0x0 PUSH1 0x20 DUP3 ADD SWAP1 POP DUP2 DUP2 SUB PUSH1 0x0 DUP4 ADD MSTORE PUSH2 0x9C8 DUP2 PUSH2 0x880 JUMP JUMPDEST SWAP1 POP SWAP2 SWAP1 POP JUMP JUMPDEST PUSH1 0x0 PUSH1 0x20 DUP3 ADD SWAP1 POP DUP2 DUP2 SUB PUSH1 0x0 DUP4 ADD MSTORE PUSH2 0x9E8 DUP2 PUSH2 0x8C0 JUMP JUMPDEST SWAP1 POP SWAP2 SWAP1 POP JUMP JUMPDEST PUSH1 0x0 PUSH1 0x20 DUP3 ADD SWAP1 POP PUSH2 0xA04 PUSH1 0x0 DUP4 ADD DUP5 PUSH2 0x900 JUMP JUMPDEST SWAP3 SWAP2 POP POP JUMP JUMPDEST PUSH1 0x0 PUSH1 0x80 DUP3 ADD SWAP1 POP PUSH2 0xA1F PUSH1 0x0 DUP4 ADD DUP9 PUSH2 0x900 JUMP JUMPDEST DUP2 DUP2 SUB PUSH1 0x20 DUP4 ADD MSTORE PUSH2 0xA32 DUP2 DUP7 DUP9 PUSH2 0x81A JUMP JUMPDEST SWAP1 POP PUSH2 0xA41 PUSH1 0x40 DUP4 ADD DUP6 PUSH2 0x900 JUMP JUMPDEST PUSH2 0xA4E PUSH1 0x60 DUP4 ADD DUP5 PUSH2 0x900 JUMP JUMPDEST SWAP7 SWAP6 POP POP POP POP POP POP JUMP JUMPDEST PUSH1 0x0 DUP2 MLOAD SWAP1 POP SWAP2 SWAP1 POP JUMP JUMPDEST PUSH1 0x0 DUP3 DUP3 MSTORE PUSH1 0x20 DUP3 ADD SWAP1 POP SWAP3 SWAP2 POP POP JUMP JUMPDEST PUSH1 0x0 PUSH2 0xA7F DUP3 PUSH2 0xBA8 JUMP JUMPDEST SWAP2 POP PUSH2 0xA8A DUP4 PUSH2 0xBA8 JUMP JUMPDEST SWAP3 POP DUP3 PUSH32 0xFFFFFFFFFFFFFFFFFFFFFFFFFFFFFFFFFFFFFFFFFFFFFFFFFFFFFFFFFFFFFFFF SUB DUP3 GT ISZERO PUSH2 0xABF JUMPI PUSH2 0xABE PUSH2 0xC26 JUMP JUMPDEST JUMPDEST DUP3 DUP3 ADD SWAP1 POP SWAP3 SWAP2 POP POP JUMP JUMPDEST PUSH1 0x0 PUSH2 0xAD5 DUP3 PUSH2 0xBA8 JUMP JUMPDEST SWAP2 POP PUSH2 0xAE0 DUP4 PUSH2 0xBA8 JUMP JUMPDEST SWAP3 POP DUP2 PUSH32 0xFFFFFFFFFFFFFFFFFFFFFFFFFFFFFFFFFFFFFFFFFFFFFFFFFFFFFFFFFFFFFFFF DIV DUP4 GT DUP3 ISZERO ISZERO AND ISZERO PUSH2 0xB19 JUMPI PUSH2 0xB18 PUSH2 0xC26 JUMP JUMPDEST JUMPDEST DUP3 DUP3 MUL SWAP1 POP SWAP3 SWAP2 POP POP JUMP JUMPDEST PUSH1 0x0 PUSH2 0xB2F DUP3 PUSH2 0xBA8 JUMP JUMPDEST SWAP2 POP PUSH2 0xB3A DUP4 PUSH2 0xBA8 JUMP JUMPDEST SWAP3 POP DUP3 DUP3 LT ISZERO PUSH2 0xB4D JUMPI PUSH2 0xB4C PUSH2 0xC26 JUMP JUMPDEST JUMPDEST DUP3 DUP3 SUB SWAP1 POP SWAP3 SWAP2 POP POP JUMP JUMPDEST PUSH1 0x0 PUSH2 0xB63 DUP3 PUSH2 0xB88 JUMP JUMPDEST SWAP1 POP SWAP2 SWAP1 POP JUMP JUMPDEST PUSH1 0x0 PUSH2 0xB75 DUP3 PUSH2 0xB88 JUMP JUMPDEST SWAP1 POP SWAP2 SWAP1 POP JUMP JUMPDEST PUSH1 0x0 DUP2 ISZERO ISZERO SWAP1 POP SWAP2 SWAP1 POP JUMP JUMPDEST PUSH1 0x0 PUSH20 0xFFFFFFFFFFFFFFFFFFFFFFFFFFFFFFFFFFFFFFFF DUP3 AND SWAP1 POP SWAP2 SWAP1 POP JUMP JUMPDEST PUSH1 0x0 DUP2 SWAP1 POP SWAP2 SWAP1 POP JUMP JUMPDEST DUP3 DUP2 DUP4 CALLDATACOPY PUSH1 0x0 DUP4 DUP4 ADD MSTORE POP POP POP JUMP JUMPDEST PUSH1 0x0 JUMPDEST DUP4 DUP2 LT ISZERO PUSH2 0xBDF JUMPI DUP1 DUP3 ADD MLOAD DUP2 DUP5 ADD MSTORE PUSH1 0x20 DUP2 ADD SWAP1 POP PUSH2 0xBC4 JUMP JUMPDEST DUP4 DUP2 GT ISZERO PUSH2 0xBEE JUMPI PUSH1 0x0 DUP5 DUP5 ADD MSTORE JUMPDEST POP POP POP POP JUMP JUMPDEST PUSH1 0x0 PUSH1 0x2 DUP3 DIV SWAP1 POP PUSH1 0x1 DUP3 AND DUP1 PUSH2 0xC0C JUMPI PUSH1 0x7F DUP3 AND SWAP2 POP JUMPDEST PUSH1 0x20 DUP3 LT DUP2 EQ ISZERO PUSH2 0xC20 JUMPI PUSH2 0xC1F PUSH2 0xC55 JUMP JUMPDEST JUMPDEST POP SWAP2 SWAP1 POP JUMP JUMPDEST PUSH32 0x4E487B7100000000000000000000000000000000000000000000000000000000 PUSH1 0x0 MSTORE PUSH1 0x11 PUSH1 0x4 MSTORE PUSH1 0x24 PUSH1 0x0 REVERT JUMPDEST PUSH32 0x4E487B7100000000000000000000000000000000000000000000000000000000 PUSH1 0x0 MSTORE PUSH1 0x22 PUSH1 0x4 MSTORE PUSH1 0x24 PUSH1 0x0 REVERT JUMPDEST PUSH1 0x0 PUSH1 0x1F NOT PUSH1 0x1F DUP4 ADD AND SWAP1 POP SWAP2 SWAP1 POP JUMP JUMPDEST PUSH2 0xC9E DUP2 PUSH2 0xBA8 JUMP JUMPDEST DUP2 EQ PUSH2 0xCA9 JUMPI PUSH1 0x0 DUP1 REVERT JUMPDEST POP JUMP INVALID LOG2 PUSH5 0x6970667358 0x22 SLT KECCAK256 0xDD 0xBF 0xE0 0xB8 PUSH11 0xFA1F23F58552CDC995F785 DUP3 CALLDATALOAD 0x28 0x4E 0x2F DUP14 0xCD 0xED SWAP9 0x4E 0x21 0xF8 0x24 0xE0 SWAP16 PUSH8 0x64736F6C63430008 STOP STOP CALLER "
				},
				"gasEstimates": {
					"creation": {
						"codeDepositCost": "659600",
						"executionCost": "21562",
						"totalCost": "681162"
					},
					"external": {
						"auctions(uint256)": "infinite",
						"createAuction(uint256,uint256,string,uint256)": "infinite",
						"getPriceFor(uint256)": "infinite",
						"owner()": "1233"
					}
				},
				"methodIdentifiers": {
					"auctions(uint256)": "571a26a0",
					"createAuction(uint256,uint256,string,uint256)": "e9835d15",
					"getPriceFor(uint256)": "4534cd9c",
					"owner()": "8da5cb5b"
				}
			},
			"storageLayout": {
				"storage": [
					{
						"astId": 3,
						"contract": "coin.sol:AucEngine",
						"label": "owner",
						"offset": 0,
						"slot": "0",
						"type": "t_address"
					},
					{
						"astId": 30,
						"contract": "coin.sol:AucEngine",
						"label": "auctions",
						"offset": 0,
						"slot": "1",
						"type": "t_array(t_struct(Auction)26_storage)dyn_storage"
					}
				],
				"types": {
					"t_address": {
						"encoding": "inplace",
						"label": "address",
						"numberOfBytes": "20"
					},
					"t_address_payable": {
						"encoding": "inplace",
						"label": "address payable",
						"numberOfBytes": "20"
					},
					"t_array(t_struct(Auction)26_storage)dyn_storage": {
						"base": "t_struct(Auction)26_storage",
						"encoding": "dynamic_array",
						"label": "struct AucEngine.Auction[]",
						"numberOfBytes": "32"
					},
					"t_bool": {
						"encoding": "inplace",
						"label": "bool",
						"numberOfBytes": "1"
					},
					"t_string_storage": {
						"encoding": "bytes",
						"label": "string",
						"numberOfBytes": "32"
					},
					"t_struct(Auction)26_storage": {
						"encoding": "inplace",
						"label": "struct AucEngine.Auction",
						"members": [
							{
								"astId": 11,
								"contract": "coin.sol:AucEngine",
								"label": "seller",
								"offset": 0,
								"slot": "0",
								"type": "t_address_payable"
							},
							{
								"astId": 13,
								"contract": "coin.sol:AucEngine",
								"label": "startingPrice",
								"offset": 0,
								"slot": "1",
								"type": "t_uint256"
							},
							{
								"astId": 15,
								"contract": "coin.sol:AucEngine",
								"label": "finalPrice",
								"offset": 0,
								"slot": "2",
								"type": "t_uint256"
							},
							{
								"astId": 17,
								"contract": "coin.sol:AucEngine",
								"label": "startAt",
								"offset": 0,
								"slot": "3",
								"type": "t_uint256"
							},
							{
								"astId": 19,
								"contract": "coin.sol:AucEngine",
								"label": "endsAt",
								"offset": 0,
								"slot": "4",
								"type": "t_uint256"
							},
							{
								"astId": 21,
								"contract": "coin.sol:AucEngine",
								"label": "discountRate",
								"offset": 0,
								"slot": "5",
								"type": "t_uint256"
							},
							{
								"astId": 23,
								"contract": "coin.sol:AucEngine",
								"label": "item",
								"offset": 0,
								"slot": "6",
								"type": "t_string_storage"
							},
							{
								"astId": 25,
								"contract": "coin.sol:AucEngine",
								"label": "stopped",
								"offset": 0,
								"slot": "7",
								"type": "t_bool"
							}
						],
						"numberOfBytes": "256"
					},
					"t_uint256": {
						"encoding": "inplace",
						"label": "uint256",
						"numberOfBytes": "32"
					}
				}
			},
			"userdoc": {
				"kind": "user",
				"methods": {},
				"version": 1
			}
		}
	}
}