{
	"coin.sol": {
		"MyContract": {
			"abi": [
				{
					"inputs": [],
					"name": "getBalance",
					"outputs": [
						{
							"internalType": "uint256",
							"name": "",
							"type": "uint256"
						}
					],
					"stateMutability": "view",
					"type": "function"
				},
				{
					"inputs": [],
					"name": "owner",
					"outputs": [
						{
							"internalType": "address",
							"name": "",
							"type": "address"
						}
					],
					"stateMutability": "view",
					"type": "function"
				},
				{
					"inputs": [
						{
							"internalType": "address payable",
							"name": "_to",
							"type": "address"
						}
					],
					"name": "withdraw",
					"outputs": [],
					"stateMutability": "nonpayable",
					"type": "function"
				}
			],
			"devdoc": {
				"kind": "dev",
				"methods": {},
				"version": 1
			},
			"evm": {
				"assembly": "    /* \"coin.sol\":663:771  contract MyContract is Ownable(0x5B38Da6a701c568545dCfcB03FcB875f56beddC4),Balances {\r... */\n  mstore(0x40, 0x80)\n  callvalue\n  dup1\n  iszero\n  tag_1\n  jumpi\n  0x00\n  dup1\n  revert\ntag_1:\n  pop\n    /* \"coin.sol\":694:736  0x5B38Da6a701c568545dCfcB03FcB875f56beddC4 */\n  0x5b38da6a701c568545dcfcb03fcb875f56beddc4\n    /* \"coin.sol\":205:206  0 */\n  0x00\n    /* \"coin.sol\":180:207  ownerOverride == address(0) */\n  0xffffffffffffffffffffffffffffffffffffffff\n  and\n    /* \"coin.sol\":180:193  ownerOverride */\n  dup2\n    /* \"coin.sol\":180:207  ownerOverride == address(0) */\n  0xffffffffffffffffffffffffffffffffffffffff\n  and\n  eq\n    /* \"coin.sol\":180:235  ownerOverride == address(0) ? msg.sender: ownerOverride */\n  tag_4\n  jumpi\n    /* \"coin.sol\":222:235  ownerOverride */\n  dup1\n    /* \"coin.sol\":180:235  ownerOverride == address(0) ? msg.sender: ownerOverride */\n  jump(tag_5)\ntag_4:\n    /* \"coin.sol\":210:220  msg.sender */\n  caller\n    /* \"coin.sol\":180:235  ownerOverride == address(0) ? msg.sender: ownerOverride */\ntag_5:\n    /* \"coin.sol\":172:177  owner */\n  0x00\n  dup1\n    /* \"coin.sol\":172:235  owner = ownerOverride == address(0) ? msg.sender: ownerOverride */\n  0x0100\n  exp\n  dup2\n  sload\n  dup2\n  0xffffffffffffffffffffffffffffffffffffffff\n  mul\n  not\n  and\n  swap1\n  dup4\n  0xffffffffffffffffffffffffffffffffffffffff\n  and\n  mul\n  or\n  swap1\n  sstore\n  pop\n    /* \"coin.sol\":125:243  constructor(address ownerOverride)  {\r... */\n  pop\n    /* \"coin.sol\":663:771  contract MyContract is Ownable(0x5B38Da6a701c568545dCfcB03FcB875f56beddC4),Balances {\r... */\n  dataSize(sub_0)\n  dup1\n  dataOffset(sub_0)\n  0x00\n  codecopy\n  0x00\n  return\nstop\n\nsub_0: assembly {\n        /* \"coin.sol\":663:771  contract MyContract is Ownable(0x5B38Da6a701c568545dCfcB03FcB875f56beddC4),Balances {\r... */\n      mstore(0x40, 0x80)\n      callvalue\n      dup1\n      iszero\n      tag_1\n      jumpi\n      0x00\n      dup1\n      revert\n    tag_1:\n      pop\n      jumpi(tag_2, lt(calldatasize, 0x04))\n      shr(0xe0, calldataload(0x00))\n      dup1\n      0x12065fe0\n      eq\n      tag_3\n      jumpi\n      dup1\n      0x51cff8d9\n      eq\n      tag_4\n      jumpi\n      dup1\n      0x8da5cb5b\n      eq\n      tag_5\n      jumpi\n    tag_2:\n      0x00\n      dup1\n      revert\n        /* \"coin.sol\":414:527  function getBalance() public view onlyOwner returns(uint) {\r... */\n    tag_3:\n      tag_6\n      tag_7\n      jump\t// in\n    tag_6:\n      mload(0x40)\n      tag_8\n      swap2\n      swap1\n      tag_9\n      jump\t// in\n    tag_8:\n      mload(0x40)\n      dup1\n      swap2\n      sub\n      swap1\n      return\n        /* \"coin.sol\":537:640  function withdraw(address payable _to) public onlyOwner {\r... */\n    tag_4:\n      tag_10\n      0x04\n      dup1\n      calldatasize\n      sub\n      dup2\n      add\n      swap1\n      tag_11\n      swap2\n      swap1\n      tag_12\n      jump\t// in\n    tag_11:\n      tag_13\n      jump\t// in\n    tag_10:\n      stop\n        /* \"coin.sol\":96:116  address public owner */\n    tag_5:\n      tag_14\n      tag_15\n      jump\t// in\n    tag_14:\n      mload(0x40)\n      tag_16\n      swap2\n      swap1\n      tag_17\n      jump\t// in\n    tag_16:\n      mload(0x40)\n      dup1\n      swap2\n      sub\n      swap1\n      return\n        /* \"coin.sol\":414:527  function getBalance() public view onlyOwner returns(uint) {\r... */\n    tag_7:\n        /* \"coin.sol\":466:470  uint */\n      0x00\n        /* \"coin.sol\":307:317  msg.sender */\n      caller\n        /* \"coin.sol\":298:317  owner == msg.sender */\n      0xffffffffffffffffffffffffffffffffffffffff\n      and\n        /* \"coin.sol\":298:303  owner */\n      0x00\n      dup1\n      sload\n      swap1\n      0x0100\n      exp\n      swap1\n      div\n      0xffffffffffffffffffffffffffffffffffffffff\n      and\n        /* \"coin.sol\":298:317  owner == msg.sender */\n      0xffffffffffffffffffffffffffffffffffffffff\n      and\n      eq\n        /* \"coin.sol\":289:335  require( owner == msg.sender, \"not an owner!\") */\n      tag_19\n      jumpi\n      mload(0x40)\n      0x08c379a000000000000000000000000000000000000000000000000000000000\n      dup2\n      mstore\n      0x04\n      add\n      tag_20\n      swap1\n      tag_21\n      jump\t// in\n    tag_20:\n      mload(0x40)\n      dup1\n      swap2\n      sub\n      swap1\n      revert\n    tag_19:\n        /* \"coin.sol\":492:513  address(this).balance */\n      selfbalance\n        /* \"coin.sol\":485:513  return address(this).balance */\n      swap1\n      pop\n        /* \"coin.sol\":414:527  function getBalance() public view onlyOwner returns(uint) {\r... */\n      swap1\n      jump\t// out\n        /* \"coin.sol\":537:640  function withdraw(address payable _to) public onlyOwner {\r... */\n    tag_13:\n        /* \"coin.sol\":307:317  msg.sender */\n      caller\n        /* \"coin.sol\":298:317  owner == msg.sender */\n      0xffffffffffffffffffffffffffffffffffffffff\n      and\n        /* \"coin.sol\":298:303  owner */\n      0x00\n      dup1\n      sload\n      swap1\n      0x0100\n      exp\n      swap1\n      div\n      0xffffffffffffffffffffffffffffffffffffffff\n      and\n        /* \"coin.sol\":298:317  owner == msg.sender */\n      0xffffffffffffffffffffffffffffffffffffffff\n      and\n      eq\n        /* \"coin.sol\":289:335  require( owner == msg.sender, \"not an owner!\") */\n      tag_24\n      jumpi\n      mload(0x40)\n      0x08c379a000000000000000000000000000000000000000000000000000000000\n      dup2\n      mstore\n      0x04\n      add\n      tag_25\n      swap1\n      tag_21\n      jump\t// in\n    tag_25:\n      mload(0x40)\n      dup1\n      swap2\n      sub\n      swap1\n      revert\n    tag_24:\n        /* \"coin.sol\":606:609  _to */\n      dup1\n        /* \"coin.sol\":606:618  _to.transfer */\n      0xffffffffffffffffffffffffffffffffffffffff\n      and\n        /* \"coin.sol\":606:632  _to.transfer(getBalance()) */\n      0x08fc\n        /* \"coin.sol\":619:631  getBalance() */\n      tag_27\n        /* \"coin.sol\":619:629  getBalance */\n      tag_7\n        /* \"coin.sol\":619:631  getBalance() */\n      jump\t// in\n    tag_27:\n        /* \"coin.sol\":606:632  _to.transfer(getBalance()) */\n      swap1\n      dup2\n      iszero\n      mul\n      swap1\n      mload(0x40)\n      0x00\n      mload(0x40)\n      dup1\n      dup4\n      sub\n      dup2\n      dup6\n      dup9\n      dup9\n      call\n      swap4\n      pop\n      pop\n      pop\n      pop\n      iszero\n      dup1\n      iszero\n      tag_29\n      jumpi\n      returndatasize\n      0x00\n      dup1\n      returndatacopy\n      revert(0x00, returndatasize)\n    tag_29:\n      pop\n        /* \"coin.sol\":537:640  function withdraw(address payable _to) public onlyOwner {\r... */\n      pop\n      jump\t// out\n        /* \"coin.sol\":96:116  address public owner */\n    tag_15:\n      0x00\n      dup1\n      sload\n      swap1\n      0x0100\n      exp\n      swap1\n      div\n      0xffffffffffffffffffffffffffffffffffffffff\n      and\n      dup2\n      jump\t// out\n        /* \"#utility.yul\":7:162   */\n    tag_31:\n        /* \"#utility.yul\":61:66   */\n      0x00\n        /* \"#utility.yul\":99:105   */\n      dup2\n        /* \"#utility.yul\":86:106   */\n      calldataload\n        /* \"#utility.yul\":77:106   */\n      swap1\n      pop\n        /* \"#utility.yul\":115:156   */\n      tag_33\n        /* \"#utility.yul\":150:155   */\n      dup2\n        /* \"#utility.yul\":115:156   */\n      tag_34\n      jump\t// in\n    tag_33:\n        /* \"#utility.yul\":7:162   */\n      swap3\n      swap2\n      pop\n      pop\n      jump\t// out\n        /* \"#utility.yul\":168:513   */\n    tag_12:\n        /* \"#utility.yul\":235:241   */\n      0x00\n        /* \"#utility.yul\":284:286   */\n      0x20\n        /* \"#utility.yul\":272:281   */\n      dup3\n        /* \"#utility.yul\":263:270   */\n      dup5\n        /* \"#utility.yul\":259:282   */\n      sub\n        /* \"#utility.yul\":255:287   */\n      slt\n        /* \"#utility.yul\":252:371   */\n      iszero\n      tag_36\n      jumpi\n        /* \"#utility.yul\":290:369   */\n      tag_37\n      tag_38\n      jump\t// in\n    tag_37:\n        /* \"#utility.yul\":252:371   */\n    tag_36:\n        /* \"#utility.yul\":410:411   */\n      0x00\n        /* \"#utility.yul\":435:496   */\n      tag_39\n        /* \"#utility.yul\":488:495   */\n      dup5\n        /* \"#utility.yul\":479:485   */\n      dup3\n        /* \"#utility.yul\":468:477   */\n      dup6\n        /* \"#utility.yul\":464:486   */\n      add\n        /* \"#utility.yul\":435:496   */\n      tag_31\n      jump\t// in\n    tag_39:\n        /* \"#utility.yul\":425:496   */\n      swap2\n      pop\n        /* \"#utility.yul\":381:506   */\n      pop\n        /* \"#utility.yul\":168:513   */\n      swap3\n      swap2\n      pop\n      pop\n      jump\t// out\n        /* \"#utility.yul\":519:637   */\n    tag_40:\n        /* \"#utility.yul\":606:630   */\n      tag_42\n        /* \"#utility.yul\":624:629   */\n      dup2\n        /* \"#utility.yul\":606:630   */\n      tag_43\n      jump\t// in\n    tag_42:\n        /* \"#utility.yul\":601:604   */\n      dup3\n        /* \"#utility.yul\":594:631   */\n      mstore\n        /* \"#utility.yul\":519:637   */\n      pop\n      pop\n      jump\t// out\n        /* \"#utility.yul\":643:1009   */\n    tag_44:\n        /* \"#utility.yul\":785:788   */\n      0x00\n        /* \"#utility.yul\":806:873   */\n      tag_46\n        /* \"#utility.yul\":870:872   */\n      0x0d\n        /* \"#utility.yul\":865:868   */\n      dup4\n        /* \"#utility.yul\":806:873   */\n      tag_47\n      jump\t// in\n    tag_46:\n        /* \"#utility.yul\":799:873   */\n      swap2\n      pop\n        /* \"#utility.yul\":882:975   */\n      tag_48\n        /* \"#utility.yul\":971:974   */\n      dup3\n        /* \"#utility.yul\":882:975   */\n      tag_49\n      jump\t// in\n    tag_48:\n        /* \"#utility.yul\":1000:1002   */\n      0x20\n        /* \"#utility.yul\":995:998   */\n      dup3\n        /* \"#utility.yul\":991:1003   */\n      add\n        /* \"#utility.yul\":984:1003   */\n      swap1\n      pop\n        /* \"#utility.yul\":643:1009   */\n      swap2\n      swap1\n      pop\n      jump\t// out\n        /* \"#utility.yul\":1015:1133   */\n    tag_50:\n        /* \"#utility.yul\":1102:1126   */\n      tag_52\n        /* \"#utility.yul\":1120:1125   */\n      dup2\n        /* \"#utility.yul\":1102:1126   */\n      tag_53\n      jump\t// in\n    tag_52:\n        /* \"#utility.yul\":1097:1100   */\n      dup3\n        /* \"#utility.yul\":1090:1127   */\n      mstore\n        /* \"#utility.yul\":1015:1133   */\n      pop\n      pop\n      jump\t// out\n        /* \"#utility.yul\":1139:1361   */\n    tag_17:\n        /* \"#utility.yul\":1232:1236   */\n      0x00\n        /* \"#utility.yul\":1270:1272   */\n      0x20\n        /* \"#utility.yul\":1259:1268   */\n      dup3\n        /* \"#utility.yul\":1255:1273   */\n      add\n        /* \"#utility.yul\":1247:1273   */\n      swap1\n      pop\n        /* \"#utility.yul\":1283:1354   */\n      tag_55\n        /* \"#utility.yul\":1351:1352   */\n      0x00\n        /* \"#utility.yul\":1340:1349   */\n      dup4\n        /* \"#utility.yul\":1336:1353   */\n      add\n        /* \"#utility.yul\":1327:1333   */\n      dup5\n        /* \"#utility.yul\":1283:1354   */\n      tag_40\n      jump\t// in\n    tag_55:\n        /* \"#utility.yul\":1139:1361   */\n      swap3\n      swap2\n      pop\n      pop\n      jump\t// out\n        /* \"#utility.yul\":1367:1786   */\n    tag_21:\n        /* \"#utility.yul\":1533:1537   */\n      0x00\n        /* \"#utility.yul\":1571:1573   */\n      0x20\n        /* \"#utility.yul\":1560:1569   */\n      dup3\n        /* \"#utility.yul\":1556:1574   */\n      add\n        /* \"#utility.yul\":1548:1574   */\n      swap1\n      pop\n        /* \"#utility.yul\":1620:1629   */\n      dup2\n        /* \"#utility.yul\":1614:1618   */\n      dup2\n        /* \"#utility.yul\":1610:1630   */\n      sub\n        /* \"#utility.yul\":1606:1607   */\n      0x00\n        /* \"#utility.yul\":1595:1604   */\n      dup4\n        /* \"#utility.yul\":1591:1608   */\n      add\n        /* \"#utility.yul\":1584:1631   */\n      mstore\n        /* \"#utility.yul\":1648:1779   */\n      tag_57\n        /* \"#utility.yul\":1774:1778   */\n      dup2\n        /* \"#utility.yul\":1648:1779   */\n      tag_44\n      jump\t// in\n    tag_57:\n        /* \"#utility.yul\":1640:1779   */\n      swap1\n      pop\n        /* \"#utility.yul\":1367:1786   */\n      swap2\n      swap1\n      pop\n      jump\t// out\n        /* \"#utility.yul\":1792:2014   */\n    tag_9:\n        /* \"#utility.yul\":1885:1889   */\n      0x00\n        /* \"#utility.yul\":1923:1925   */\n      0x20\n        /* \"#utility.yul\":1912:1921   */\n      dup3\n        /* \"#utility.yul\":1908:1926   */\n      add\n        /* \"#utility.yul\":1900:1926   */\n      swap1\n      pop\n        /* \"#utility.yul\":1936:2007   */\n      tag_59\n        /* \"#utility.yul\":2004:2005   */\n      0x00\n        /* \"#utility.yul\":1993:2002   */\n      dup4\n        /* \"#utility.yul\":1989:2006   */\n      add\n        /* \"#utility.yul\":1980:1986   */\n      dup5\n        /* \"#utility.yul\":1936:2007   */\n      tag_50\n      jump\t// in\n    tag_59:\n        /* \"#utility.yul\":1792:2014   */\n      swap3\n      swap2\n      pop\n      pop\n      jump\t// out\n        /* \"#utility.yul\":2101:2270   */\n    tag_47:\n        /* \"#utility.yul\":2185:2196   */\n      0x00\n        /* \"#utility.yul\":2219:2225   */\n      dup3\n        /* \"#utility.yul\":2214:2217   */\n      dup3\n        /* \"#utility.yul\":2207:2226   */\n      mstore\n        /* \"#utility.yul\":2259:2263   */\n      0x20\n        /* \"#utility.yul\":2254:2257   */\n      dup3\n        /* \"#utility.yul\":2250:2264   */\n      add\n        /* \"#utility.yul\":2235:2264   */\n      swap1\n      pop\n        /* \"#utility.yul\":2101:2270   */\n      swap3\n      swap2\n      pop\n      pop\n      jump\t// out\n        /* \"#utility.yul\":2276:2372   */\n    tag_43:\n        /* \"#utility.yul\":2313:2320   */\n      0x00\n        /* \"#utility.yul\":2342:2366   */\n      tag_64\n        /* \"#utility.yul\":2360:2365   */\n      dup3\n        /* \"#utility.yul\":2342:2366   */\n      tag_65\n      jump\t// in\n    tag_64:\n        /* \"#utility.yul\":2331:2366   */\n      swap1\n      pop\n        /* \"#utility.yul\":2276:2372   */\n      swap2\n      swap1\n      pop\n      jump\t// out\n        /* \"#utility.yul\":2378:2482   */\n    tag_66:\n        /* \"#utility.yul\":2423:2430   */\n      0x00\n        /* \"#utility.yul\":2452:2476   */\n      tag_68\n        /* \"#utility.yul\":2470:2475   */\n      dup3\n        /* \"#utility.yul\":2452:2476   */\n      tag_65\n      jump\t// in\n    tag_68:\n        /* \"#utility.yul\":2441:2476   */\n      swap1\n      pop\n        /* \"#utility.yul\":2378:2482   */\n      swap2\n      swap1\n      pop\n      jump\t// out\n        /* \"#utility.yul\":2488:2614   */\n    tag_65:\n        /* \"#utility.yul\":2525:2532   */\n      0x00\n        /* \"#utility.yul\":2565:2607   */\n      0xffffffffffffffffffffffffffffffffffffffff\n        /* \"#utility.yul\":2558:2563   */\n      dup3\n        /* \"#utility.yul\":2554:2608   */\n      and\n        /* \"#utility.yul\":2543:2608   */\n      swap1\n      pop\n        /* \"#utility.yul\":2488:2614   */\n      swap2\n      swap1\n      pop\n      jump\t// out\n        /* \"#utility.yul\":2620:2697   */\n    tag_53:\n        /* \"#utility.yul\":2657:2664   */\n      0x00\n        /* \"#utility.yul\":2686:2691   */\n      dup2\n        /* \"#utility.yul\":2675:2691   */\n      swap1\n      pop\n        /* \"#utility.yul\":2620:2697   */\n      swap2\n      swap1\n      pop\n      jump\t// out\n        /* \"#utility.yul\":2826:2943   */\n    tag_38:\n        /* \"#utility.yul\":2935:2936   */\n      0x00\n        /* \"#utility.yul\":2932:2933   */\n      dup1\n        /* \"#utility.yul\":2925:2937   */\n      revert\n        /* \"#utility.yul\":2949:3112   */\n    tag_49:\n        /* \"#utility.yul\":3089:3104   */\n      0x6e6f7420616e206f776e65722100000000000000000000000000000000000000\n        /* \"#utility.yul\":3085:3086   */\n      0x00\n        /* \"#utility.yul\":3077:3083   */\n      dup3\n        /* \"#utility.yul\":3073:3087   */\n      add\n        /* \"#utility.yul\":3066:3105   */\n      mstore\n        /* \"#utility.yul\":2949:3112   */\n      pop\n      jump\t// out\n        /* \"#utility.yul\":3118:3256   */\n    tag_34:\n        /* \"#utility.yul\":3199:3231   */\n      tag_76\n        /* \"#utility.yul\":3225:3230   */\n      dup2\n        /* \"#utility.yul\":3199:3231   */\n      tag_66\n      jump\t// in\n    tag_76:\n        /* \"#utility.yul\":3192:3197   */\n      dup2\n        /* \"#utility.yul\":3189:3232   */\n      eq\n        /* \"#utility.yul\":3179:3250   */\n      tag_77\n      jumpi\n        /* \"#utility.yul\":3246:3247   */\n      0x00\n        /* \"#utility.yul\":3243:3244   */\n      dup1\n        /* \"#utility.yul\":3236:3248   */\n      revert\n        /* \"#utility.yul\":3179:3250   */\n    tag_77:\n        /* \"#utility.yul\":3118:3256   */\n      pop\n      jump\t// out\n\n    auxdata: 0xa2646970667358221220c9e2565a123327cd4a5b725d06af17e0f6f758b6a35cca03e6baecbceec87a7a64736f6c63430008070033\n}\n",
				"bytecode": {
					"linkReferences": {},
					"object": "608060405234801561001057600080fd5b50735b38da6a701c568545dcfcb03fcb875f56beddc4600073ffffffffffffffffffffffffffffffffffffffff168173ffffffffffffffffffffffffffffffffffffffff16146100605780610062565b335b6000806101000a81548173ffffffffffffffffffffffffffffffffffffffff021916908373ffffffffffffffffffffffffffffffffffffffff160217905550506103ea806100b16000396000f3fe608060405234801561001057600080fd5b50600436106100415760003560e01c806312065fe01461004657806351cff8d9146100645780638da5cb5b14610080575b600080fd5b61004e61009e565b60405161005b91906102f5565b60405180910390f35b61007e6004803603810190610079919061024c565b610134565b005b610088610213565b60405161009591906102ba565b60405180910390f35b60003373ffffffffffffffffffffffffffffffffffffffff1660008054906101000a900473ffffffffffffffffffffffffffffffffffffffff1673ffffffffffffffffffffffffffffffffffffffff161461012e576040517f08c379a0000000000000000000000000000000000000000000000000000000008152600401610125906102d5565b60405180910390fd5b47905090565b3373ffffffffffffffffffffffffffffffffffffffff1660008054906101000a900473ffffffffffffffffffffffffffffffffffffffff1673ffffffffffffffffffffffffffffffffffffffff16146101c2576040517f08c379a00000000000000000000000000000000000000000000000000000000081526004016101b9906102d5565b60405180910390fd5b8073ffffffffffffffffffffffffffffffffffffffff166108fc6101e461009e565b9081150290604051600060405180830381858888f1935050505015801561020f573d6000803e3d6000fd5b5050565b60008054906101000a900473ffffffffffffffffffffffffffffffffffffffff1681565b6000813590506102468161039d565b92915050565b6000602082840312156102625761026161036f565b5b600061027084828501610237565b91505092915050565b61028281610321565b82525050565b6000610295600d83610310565b91506102a082610374565b602082019050919050565b6102b481610365565b82525050565b60006020820190506102cf6000830184610279565b92915050565b600060208201905081810360008301526102ee81610288565b9050919050565b600060208201905061030a60008301846102ab565b92915050565b600082825260208201905092915050565b600061032c82610345565b9050919050565b600061033e82610345565b9050919050565b600073ffffffffffffffffffffffffffffffffffffffff82169050919050565b6000819050919050565b600080fd5b7f6e6f7420616e206f776e65722100000000000000000000000000000000000000600082015250565b6103a681610333565b81146103b157600080fd5b5056fea2646970667358221220c9e2565a123327cd4a5b725d06af17e0f6f758b6a35cca03e6baecbceec87a7a64736f6c63430008070033",
					"opcodes": "PUSH1 0x80 PUSH1 0x40 MSTORE CALLVALUE DUP1 ISZERO PUSH2 0x10 JUMPI PUSH1 0x0 DUP1 REVERT JUMPDEST POP PUSH20 0x5B38DA6A701C568545DCFCB03FCB875F56BEDDC4 PUSH1 0x0 PUSH20 0xFFFFFFFFFFFFFFFFFFFFFFFFFFFFFFFFFFFFFFFF AND DUP2 PUSH20 0xFFFFFFFFFFFFFFFFFFFFFFFFFFFFFFFFFFFFFFFF AND EQ PUSH2 0x60 JUMPI DUP1 PUSH2 0x62 JUMP JUMPDEST CALLER JUMPDEST PUSH1 0x0 DUP1 PUSH2 0x100 EXP DUP2 SLOAD DUP2 PUSH20 0xFFFFFFFFFFFFFFFFFFFFFFFFFFFFFFFFFFFFFFFF MUL NOT AND SWAP1 DUP4 PUSH20 0xFFFFFFFFFFFFFFFFFFFFFFFFFFFFFFFFFFFFFFFF AND MUL OR SWAP1 SSTORE POP POP PUSH2 0x3EA DUP1 PUSH2 0xB1 PUSH1 0x0 CODECOPY PUSH1 0x0 RETURN INVALID PUSH1 0x80 PUSH1 0x40 MSTORE CALLVALUE DUP1 ISZERO PUSH2 0x10 JUMPI PUSH1 0x0 DUP1 REVERT JUMPDEST POP PUSH1 0x4 CALLDATASIZE LT PUSH2 0x41 JUMPI PUSH1 0x0 CALLDATALOAD PUSH1 0xE0 SHR DUP1 PUSH4 0x12065FE0 EQ PUSH2 0x46 JUMPI DUP1 PUSH4 0x51CFF8D9 EQ PUSH2 0x64 JUMPI DUP1 PUSH4 0x8DA5CB5B EQ PUSH2 0x80 JUMPI JUMPDEST PUSH1 0x0 DUP1 REVERT JUMPDEST PUSH2 0x4E PUSH2 0x9E JUMP JUMPDEST PUSH1 0x40 MLOAD PUSH2 0x5B SWAP2 SWAP1 PUSH2 0x2F5 JUMP JUMPDEST PUSH1 0x40 MLOAD DUP1 SWAP2 SUB SWAP1 RETURN JUMPDEST PUSH2 0x7E PUSH1 0x4 DUP1 CALLDATASIZE SUB DUP2 ADD SWAP1 PUSH2 0x79 SWAP2 SWAP1 PUSH2 0x24C JUMP JUMPDEST PUSH2 0x134 JUMP JUMPDEST STOP JUMPDEST PUSH2 0x88 PUSH2 0x213 JUMP JUMPDEST PUSH1 0x40 MLOAD PUSH2 0x95 SWAP2 SWAP1 PUSH2 0x2BA JUMP JUMPDEST PUSH1 0x40 MLOAD DUP1 SWAP2 SUB SWAP1 RETURN JUMPDEST PUSH1 0x0 CALLER PUSH20 0xFFFFFFFFFFFFFFFFFFFFFFFFFFFFFFFFFFFFFFFF AND PUSH1 0x0 DUP1 SLOAD SWAP1 PUSH2 0x100 EXP SWAP1 DIV PUSH20 0xFFFFFFFFFFFFFFFFFFFFFFFFFFFFFFFFFFFFFFFF AND PUSH20 0xFFFFFFFFFFFFFFFFFFFFFFFFFFFFFFFFFFFFFFFF AND EQ PUSH2 0x12E JUMPI PUSH1 0x40 MLOAD PUSH32 0x8C379A000000000000000000000000000000000000000000000000000000000 DUP2 MSTORE PUSH1 0x4 ADD PUSH2 0x125 SWAP1 PUSH2 0x2D5 JUMP JUMPDEST PUSH1 0x40 MLOAD DUP1 SWAP2 SUB SWAP1 REVERT JUMPDEST SELFBALANCE SWAP1 POP SWAP1 JUMP JUMPDEST CALLER PUSH20 0xFFFFFFFFFFFFFFFFFFFFFFFFFFFFFFFFFFFFFFFF AND PUSH1 0x0 DUP1 SLOAD SWAP1 PUSH2 0x100 EXP SWAP1 DIV PUSH20 0xFFFFFFFFFFFFFFFFFFFFFFFFFFFFFFFFFFFFFFFF AND PUSH20 0xFFFFFFFFFFFFFFFFFFFFFFFFFFFFFFFFFFFFFFFF AND EQ PUSH2 0x1C2 JUMPI PUSH1 0x40 MLOAD PUSH32 0x8C379A000000000000000000000000000000000000000000000000000000000 DUP2 MSTORE PUSH1 0x4 ADD PUSH2 0x1B9 SWAP1 PUSH2 0x2D5 JUMP JUMPDEST PUSH1 0x40 MLOAD DUP1 SWAP2 SUB SWAP1 REVERT JUMPDEST DUP1 PUSH20 0xFFFFFFFFFFFFFFFFFFFFFFFFFFFFFFFFFFFFFFFF AND PUSH2 0x8FC PUSH2 0x1E4 PUSH2 0x9E JUMP JUMPDEST SWAP1 DUP2 ISZERO MUL SWAP1 PUSH1 0x40 MLOAD PUSH1 0x0 PUSH1 0x40 MLOAD DUP1 DUP4 SUB DUP2 DUP6 DUP9 DUP9 CALL SWAP4 POP POP POP POP ISZERO DUP1 ISZERO PUSH2 0x20F JUMPI RETURNDATASIZE PUSH1 0x0 DUP1 RETURNDATACOPY RETURNDATASIZE PUSH1 0x0 REVERT JUMPDEST POP POP JUMP JUMPDEST PUSH1 0x0 DUP1 SLOAD SWAP1 PUSH2 0x100 EXP SWAP1 DIV PUSH20 0xFFFFFFFFFFFFFFFFFFFFFFFFFFFFFFFFFFFFFFFF AND DUP2 JUMP JUMPDEST PUSH1 0x0 DUP2 CALLDATALOAD SWAP1 POP PUSH2 0x246 DUP2 PUSH2 0x39D JUMP JUMPDEST SWAP3 SWAP2 POP POP JUMP JUMPDEST PUSH1 0x0 PUSH1 0x20 DUP3 DUP5 SUB SLT ISZERO PUSH2 0x262 JUMPI PUSH2 0x261 PUSH2 0x36F JUMP JUMPDEST JUMPDEST PUSH1 0x0 PUSH2 0x270 DUP5 DUP3 DUP6 ADD PUSH2 0x237 JUMP JUMPDEST SWAP2 POP POP SWAP3 SWAP2 POP POP JUMP JUMPDEST PUSH2 0x282 DUP2 PUSH2 0x321 JUMP JUMPDEST DUP3 MSTORE POP POP JUMP JUMPDEST PUSH1 0x0 PUSH2 0x295 PUSH1 0xD DUP4 PUSH2 0x310 JUMP JUMPDEST SWAP2 POP PUSH2 0x2A0 DUP3 PUSH2 0x374 JUMP JUMPDEST PUSH1 0x20 DUP3 ADD SWAP1 POP SWAP2 SWAP1 POP JUMP JUMPDEST PUSH2 0x2B4 DUP2 PUSH2 0x365 JUMP JUMPDEST DUP3 MSTORE POP POP JUMP JUMPDEST PUSH1 0x0 PUSH1 0x20 DUP3 ADD SWAP1 POP PUSH2 0x2CF PUSH1 0x0 DUP4 ADD DUP5 PUSH2 0x279 JUMP JUMPDEST SWAP3 SWAP2 POP POP JUMP JUMPDEST PUSH1 0x0 PUSH1 0x20 DUP3 ADD SWAP1 POP DUP2 DUP2 SUB PUSH1 0x0 DUP4 ADD MSTORE PUSH2 0x2EE DUP2 PUSH2 0x288 JUMP JUMPDEST SWAP1 POP SWAP2 SWAP1 POP JUMP JUMPDEST PUSH1 0x0 PUSH1 0x20 DUP3 ADD SWAP1 POP PUSH2 0x30A PUSH1 0x0 DUP4 ADD DUP5 PUSH2 0x2AB JUMP JUMPDEST SWAP3 SWAP2 POP POP JUMP JUMPDEST PUSH1 0x0 DUP3 DUP3 MSTORE PUSH1 0x20 DUP3 ADD SWAP1 POP SWAP3 SWAP2 POP POP JUMP JUMPDEST PUSH1 0x0 PUSH2 0x32C DUP3 PUSH2 0x345 JUMP JUMPDEST SWAP1 POP SWAP2 SWAP1 POP JUMP JUMPDEST PUSH1 0x0 PUSH2 0x33E DUP3 PUSH2 0x345 JUMP JUMPDEST SWAP1 POP SWAP2 SWAP1 POP JUMP JUMPDEST PUSH1 0x0 PUSH20 0xFFFFFFFFFFFFFFFFFFFFFFFFFFFFFFFFFFFFFFFF DUP3 AND SWAP1 POP SWAP2 SWAP1 POP JUMP JUMPDEST PUSH1 0x0 DUP2 SWAP1 POP SWAP2 SWAP1 POP JUMP JUMPDEST PUSH1 0x0 DUP1 REVERT JUMPDEST PUSH32 0x6E6F7420616E206F776E65722100000000000000000000000000000000000000 PUSH1 0x0 DUP3 ADD MSTORE POP JUMP JUMPDEST PUSH2 0x3A6 DUP2 PUSH2 0x333 JUMP JUMPDEST DUP2 EQ PUSH2 0x3B1 JUMPI PUSH1 0x0 DUP1 REVERT JUMPDEST POP JUMP INVALID LOG2 PUSH5 0x6970667358 0x22 SLT KECCAK256 0xC9 0xE2 JUMP GAS SLT CALLER 0x27 0xCD 0x4A JUMPDEST PUSH19 0x5D06AF17E0F6F758B6A35CCA03E6BAECBCEEC8 PUSH27 0x7A64736F6C63430008070033000000000000000000000000000000 "
				},
				"gasEstimates": {
					"creation": {
						"codeDepositCost": "200400",
						"executionCost": "24563",
						"totalCost": "224963"
					},
					"external": {
						"getBalance()": "2581",
						"owner()": "2533",
						"withdraw(address)": "infinite"
					}
				},
				"methodIdentifiers": {
					"getBalance()": "12065fe0",
					"owner()": "8da5cb5b",
					"withdraw(address)": "51cff8d9"
				}
			},
			"storageLayout": {
				"storage": [
					{
						"astId": 3,
						"contract": "coin.sol:MyContract",
						"label": "owner",
						"offset": 0,
						"slot": "0",
						"type": "t_address"
					}
				],
				"types": {
					"t_address": {
						"encoding": "inplace",
						"label": "address",
						"numberOfBytes": "20"
					}
				}
			},
			"userdoc": {
				"kind": "user",
				"methods": {},
				"version": 1
			}
		}
	}
}