{
	"coin.sol": {
		"AucEngine": {
			"abi": [
				{
					"inputs": [],
					"stateMutability": "nonpayable",
					"type": "constructor"
				},
				{
					"anonymous": false,
					"inputs": [
						{
							"indexed": false,
							"internalType": "uint256",
							"name": "index",
							"type": "uint256"
						},
						{
							"indexed": false,
							"internalType": "string",
							"name": "itemName",
							"type": "string"
						},
						{
							"indexed": false,
							"internalType": "uint256",
							"name": "startingPrice",
							"type": "uint256"
						},
						{
							"indexed": false,
							"internalType": "uint256",
							"name": "duration",
							"type": "uint256"
						}
					],
					"name": "AuctionCreated",
					"type": "event"
				},
				{
					"inputs": [
						{
							"internalType": "uint256",
							"name": "",
							"type": "uint256"
						}
					],
					"name": "auctions",
					"outputs": [
						{
							"internalType": "address payable",
							"name": "seller",
							"type": "address"
						},
						{
							"internalType": "uint256",
							"name": "startingPrice",
							"type": "uint256"
						},
						{
							"internalType": "uint256",
							"name": "finalPrice",
							"type": "uint256"
						},
						{
							"internalType": "uint256",
							"name": "startAt",
							"type": "uint256"
						},
						{
							"internalType": "uint256",
							"name": "endsAt",
							"type": "uint256"
						},
						{
							"internalType": "uint256",
							"name": "discountRate",
							"type": "uint256"
						},
						{
							"internalType": "string",
							"name": "item",
							"type": "string"
						},
						{
							"internalType": "bool",
							"name": "stopped",
							"type": "bool"
						}
					],
					"stateMutability": "view",
					"type": "function"
				},
				{
					"inputs": [
						{
							"internalType": "uint256",
							"name": "index",
							"type": "uint256"
						}
					],
					"name": "buy",
					"outputs": [],
					"stateMutability": "payable",
					"type": "function"
				},
				{
					"inputs": [
						{
							"internalType": "uint256",
							"name": "_startingPrice",
							"type": "uint256"
						},
						{
							"internalType": "uint256",
							"name": "_discountRate",
							"type": "uint256"
						},
						{
							"internalType": "string",
							"name": "_item",
							"type": "string"
						},
						{
							"internalType": "uint256",
							"name": "_duration",
							"type": "uint256"
						}
					],
					"name": "createAuction",
					"outputs": [],
					"stateMutability": "nonpayable",
					"type": "function"
				},
				{
					"inputs": [
						{
							"internalType": "uint256",
							"name": "index",
							"type": "uint256"
						}
					],
					"name": "getPriceFor",
					"outputs": [
						{
							"internalType": "uint256",
							"name": "",
							"type": "uint256"
						}
					],
					"stateMutability": "view",
					"type": "function"
				},
				{
					"inputs": [],
					"name": "owner",
					"outputs": [
						{
							"internalType": "address",
							"name": "",
							"type": "address"
						}
					],
					"stateMutability": "view",
					"type": "function"
				}
			],
			"devdoc": {
				"kind": "dev",
				"methods": {},
				"version": 1
			},
			"evm": {
				"assembly": "    /* \"coin.sol\":68:2100  contract AucEngine {\r... */\n  mstore(0x40, 0x80)\n    /* \"coin.sol\":566:618  constructor()  {\r... */\n  callvalue\n  dup1\n  iszero\n  tag_1\n  jumpi\n  0x00\n  dup1\n  revert\ntag_1:\n  pop\n    /* \"coin.sol\":600:610  msg.sender */\n  caller\n    /* \"coin.sol\":592:597  owner */\n  0x00\n  dup1\n    /* \"coin.sol\":592:610  owner = msg.sender */\n  0x0100\n  exp\n  dup2\n  sload\n  dup2\n  0xffffffffffffffffffffffffffffffffffffffff\n  mul\n  not\n  and\n  swap1\n  dup4\n  0xffffffffffffffffffffffffffffffffffffffff\n  and\n  mul\n  or\n  swap1\n  sstore\n  pop\n    /* \"coin.sol\":68:2100  contract AucEngine {\r... */\n  dataSize(sub_0)\n  dup1\n  dataOffset(sub_0)\n  0x00\n  codecopy\n  0x00\n  return\nstop\n\nsub_0: assembly {\n        /* \"coin.sol\":68:2100  contract AucEngine {\r... */\n      mstore(0x40, 0x80)\n      jumpi(tag_1, lt(calldatasize, 0x04))\n      shr(0xe0, calldataload(0x00))\n      dup1\n      0x4534cd9c\n      eq\n      tag_2\n      jumpi\n      dup1\n      0x571a26a0\n      eq\n      tag_3\n      jumpi\n      dup1\n      0x8da5cb5b\n      eq\n      tag_4\n      jumpi\n      dup1\n      0xd96a094a\n      eq\n      tag_5\n      jumpi\n      dup1\n      0xe9835d15\n      eq\n      tag_6\n      jumpi\n    tag_1:\n      0x00\n      dup1\n      revert\n        /* \"coin.sol\":1420:1763  function getPriceFor(uint index) public view returns(uint) {\r... */\n    tag_2:\n      callvalue\n      dup1\n      iszero\n      tag_7\n      jumpi\n      0x00\n      dup1\n      revert\n    tag_7:\n      pop\n      tag_8\n      0x04\n      dup1\n      calldatasize\n      sub\n      dup2\n      add\n      swap1\n      tag_9\n      swap2\n      swap1\n      tag_10\n      jump\t// in\n    tag_9:\n      tag_11\n      jump\t// in\n    tag_8:\n      mload(0x40)\n      tag_12\n      swap2\n      swap1\n      tag_13\n      jump\t// in\n    tag_12:\n      mload(0x40)\n      dup1\n      swap2\n      sub\n      swap1\n      return\n        /* \"coin.sol\":433:458  Auction[] public auctions */\n    tag_3:\n      callvalue\n      dup1\n      iszero\n      tag_14\n      jumpi\n      0x00\n      dup1\n      revert\n    tag_14:\n      pop\n      tag_15\n      0x04\n      dup1\n      calldatasize\n      sub\n      dup2\n      add\n      swap1\n      tag_16\n      swap2\n      swap1\n      tag_10\n      jump\t// in\n    tag_16:\n      tag_17\n      jump\t// in\n    tag_15:\n      mload(0x40)\n      tag_18\n      swap9\n      swap8\n      swap7\n      swap6\n      swap5\n      swap4\n      swap3\n      swap2\n      swap1\n      tag_19\n      jump\t// in\n    tag_18:\n      mload(0x40)\n      dup1\n      swap2\n      sub\n      swap1\n      return\n        /* \"coin.sol\":94:114  address public owner */\n    tag_4:\n      callvalue\n      dup1\n      iszero\n      tag_20\n      jumpi\n      0x00\n      dup1\n      revert\n    tag_20:\n      pop\n      tag_21\n      tag_22\n      jump\t// in\n    tag_21:\n      mload(0x40)\n      tag_23\n      swap2\n      swap1\n      tag_24\n      jump\t// in\n    tag_23:\n      mload(0x40)\n      dup1\n      swap2\n      sub\n      swap1\n      return\n        /* \"coin.sol\":1779:2089  function buy(uint index) external payable {\r... */\n    tag_5:\n      tag_25\n      0x04\n      dup1\n      calldatasize\n      sub\n      dup2\n      add\n      swap1\n      tag_26\n      swap2\n      swap1\n      tag_10\n      jump\t// in\n    tag_26:\n      tag_27\n      jump\t// in\n    tag_25:\n      stop\n        /* \"coin.sol\":630:1406  function createAuction(uint _startingPrice, uint _discountRate, string calldata _item, uint _duration) external {\r... */\n    tag_6:\n      callvalue\n      dup1\n      iszero\n      tag_28\n      jumpi\n      0x00\n      dup1\n      revert\n    tag_28:\n      pop\n      tag_29\n      0x04\n      dup1\n      calldatasize\n      sub\n      dup2\n      add\n      swap1\n      tag_30\n      swap2\n      swap1\n      tag_31\n      jump\t// in\n    tag_30:\n      tag_32\n      jump\t// in\n    tag_29:\n      stop\n        /* \"coin.sol\":1420:1763  function getPriceFor(uint index) public view returns(uint) {\r... */\n    tag_11:\n        /* \"coin.sol\":1473:1477  uint */\n      0x00\n        /* \"coin.sol\":1490:1513  Auction memory cAuction */\n      dup1\n        /* \"coin.sol\":1516:1524  auctions */\n      0x01\n        /* \"coin.sol\":1525:1530  index */\n      dup4\n        /* \"coin.sol\":1516:1531  auctions[index] */\n      dup2\n      sload\n      dup2\n      lt\n      tag_34\n      jumpi\n      mstore(0x00, 0x4e487b7100000000000000000000000000000000000000000000000000000000)\n      mstore(0x04, 0x32)\n      revert(0x00, 0x24)\n    tag_34:\n      swap1\n      0x00\n      mstore\n      keccak256(0x00, 0x20)\n      swap1\n      0x08\n      mul\n      add\n        /* \"coin.sol\":1490:1531  Auction memory cAuction = auctions[index] */\n      mload(0x40)\n      dup1\n      0x0100\n      add\n      0x40\n      mstore\n      swap1\n      dup2\n      0x00\n      dup3\n      add\n      0x00\n      swap1\n      sload\n      swap1\n      0x0100\n      exp\n      swap1\n      div\n      0xffffffffffffffffffffffffffffffffffffffff\n      and\n      0xffffffffffffffffffffffffffffffffffffffff\n      and\n      0xffffffffffffffffffffffffffffffffffffffff\n      and\n      dup2\n      mstore\n      0x20\n      add\n      0x01\n      dup3\n      add\n      sload\n      dup2\n      mstore\n      0x20\n      add\n      0x02\n      dup3\n      add\n      sload\n      dup2\n      mstore\n      0x20\n      add\n      0x03\n      dup3\n      add\n      sload\n      dup2\n      mstore\n      0x20\n      add\n      0x04\n      dup3\n      add\n      sload\n      dup2\n      mstore\n      0x20\n      add\n      0x05\n      dup3\n      add\n      sload\n      dup2\n      mstore\n      0x20\n      add\n      0x06\n      dup3\n      add\n      dup1\n      sload\n      tag_36\n      swap1\n      tag_37\n      jump\t// in\n    tag_36:\n      dup1\n      0x1f\n      add\n      0x20\n      dup1\n      swap2\n      div\n      mul\n      0x20\n      add\n      mload(0x40)\n      swap1\n      dup2\n      add\n      0x40\n      mstore\n      dup1\n      swap3\n      swap2\n      swap1\n      dup2\n      dup2\n      mstore\n      0x20\n      add\n      dup3\n      dup1\n      sload\n      tag_38\n      swap1\n      tag_37\n      jump\t// in\n    tag_38:\n      dup1\n      iszero\n      tag_39\n      jumpi\n      dup1\n      0x1f\n      lt\n      tag_40\n      jumpi\n      0x0100\n      dup1\n      dup4\n      sload\n      div\n      mul\n      dup4\n      mstore\n      swap2\n      0x20\n      add\n      swap2\n      jump(tag_39)\n    tag_40:\n      dup3\n      add\n      swap2\n      swap1\n      0x00\n      mstore\n      keccak256(0x00, 0x20)\n      swap1\n    tag_41:\n      dup2\n      sload\n      dup2\n      mstore\n      swap1\n      0x01\n      add\n      swap1\n      0x20\n      add\n      dup1\n      dup4\n      gt\n      tag_41\n      jumpi\n      dup3\n      swap1\n      sub\n      0x1f\n      and\n      dup3\n      add\n      swap2\n    tag_39:\n      pop\n      pop\n      pop\n      pop\n      pop\n      dup2\n      mstore\n      0x20\n      add\n      0x07\n      dup3\n      add\n      0x00\n      swap1\n      sload\n      swap1\n      0x0100\n      exp\n      swap1\n      div\n      0xff\n      and\n      iszero\n      iszero\n      iszero\n      iszero\n      dup2\n      mstore\n      pop\n      pop\n      swap1\n      pop\n        /* \"coin.sol\":1553:1561  cAuction */\n      dup1\n        /* \"coin.sol\":1553:1569  cAuction.stopped */\n      0xe0\n      add\n      mload\n        /* \"coin.sol\":1552:1569  !cAuction.stopped */\n      iszero\n        /* \"coin.sol\":1544:1582  require(!cAuction.stopped, \"stopped!\") */\n      tag_42\n      jumpi\n      mload(0x40)\n      0x08c379a000000000000000000000000000000000000000000000000000000000\n      dup2\n      mstore\n      0x04\n      add\n      tag_43\n      swap1\n      tag_44\n      jump\t// in\n    tag_43:\n      mload(0x40)\n      dup1\n      swap2\n      sub\n      swap1\n      revert\n    tag_42:\n        /* \"coin.sol\":1595:1607  uint elapsed */\n      0x00\n        /* \"coin.sol\":1628:1636  cAuction */\n      dup2\n        /* \"coin.sol\":1628:1644  cAuction.startAt */\n      0x60\n      add\n      mload\n        /* \"coin.sol\":1610:1625  block.timestamp */\n      timestamp\n        /* \"coin.sol\":1610:1644  block.timestamp - cAuction.startAt */\n      tag_45\n      swap2\n      swap1\n      tag_46\n      jump\t// in\n    tag_45:\n        /* \"coin.sol\":1595:1644  uint elapsed = block.timestamp - cAuction.startAt */\n      swap1\n      pop\n        /* \"coin.sol\":1655:1668  uint discount */\n      0x00\n        /* \"coin.sol\":1695:1702  elapsed */\n      dup2\n        /* \"coin.sol\":1671:1679  cAuction */\n      dup4\n        /* \"coin.sol\":1671:1692  cAuction.discountRate */\n      0xa0\n      add\n      mload\n        /* \"coin.sol\":1671:1702  cAuction.discountRate * elapsed */\n      tag_47\n      swap2\n      swap1\n      tag_48\n      jump\t// in\n    tag_47:\n        /* \"coin.sol\":1655:1702  uint discount = cAuction.discountRate * elapsed */\n      swap1\n      pop\n        /* \"coin.sol\":1747:1755  discount */\n      dup1\n        /* \"coin.sol\":1722:1730  cAuction */\n      dup4\n        /* \"coin.sol\":1722:1744  cAuction.startingPrice */\n      0x20\n      add\n      mload\n        /* \"coin.sol\":1722:1755  cAuction.startingPrice - discount */\n      tag_49\n      swap2\n      swap1\n      tag_46\n      jump\t// in\n    tag_49:\n        /* \"coin.sol\":1715:1755  return cAuction.startingPrice - discount */\n      swap4\n      pop\n      pop\n      pop\n      pop\n        /* \"coin.sol\":1420:1763  function getPriceFor(uint index) public view returns(uint) {\r... */\n      swap2\n      swap1\n      pop\n      jump\t// out\n        /* \"coin.sol\":433:458  Auction[] public auctions */\n    tag_17:\n      0x01\n      dup2\n      dup2\n      sload\n      dup2\n      lt\n      tag_50\n      jumpi\n      0x00\n      dup1\n      revert\n    tag_50:\n      swap1\n      0x00\n      mstore\n      keccak256(0x00, 0x20)\n      swap1\n      0x08\n      mul\n      add\n      0x00\n      swap2\n      pop\n      swap1\n      pop\n      dup1\n      0x00\n      add\n      0x00\n      swap1\n      sload\n      swap1\n      0x0100\n      exp\n      swap1\n      div\n      0xffffffffffffffffffffffffffffffffffffffff\n      and\n      swap1\n      dup1\n      0x01\n      add\n      sload\n      swap1\n      dup1\n      0x02\n      add\n      sload\n      swap1\n      dup1\n      0x03\n      add\n      sload\n      swap1\n      dup1\n      0x04\n      add\n      sload\n      swap1\n      dup1\n      0x05\n      add\n      sload\n      swap1\n      dup1\n      0x06\n      add\n      dup1\n      sload\n      tag_52\n      swap1\n      tag_37\n      jump\t// in\n    tag_52:\n      dup1\n      0x1f\n      add\n      0x20\n      dup1\n      swap2\n      div\n      mul\n      0x20\n      add\n      mload(0x40)\n      swap1\n      dup2\n      add\n      0x40\n      mstore\n      dup1\n      swap3\n      swap2\n      swap1\n      dup2\n      dup2\n      mstore\n      0x20\n      add\n      dup3\n      dup1\n      sload\n      tag_53\n      swap1\n      tag_37\n      jump\t// in\n    tag_53:\n      dup1\n      iszero\n      tag_54\n      jumpi\n      dup1\n      0x1f\n      lt\n      tag_55\n      jumpi\n      0x0100\n      dup1\n      dup4\n      sload\n      div\n      mul\n      dup4\n      mstore\n      swap2\n      0x20\n      add\n      swap2\n      jump(tag_54)\n    tag_55:\n      dup3\n      add\n      swap2\n      swap1\n      0x00\n      mstore\n      keccak256(0x00, 0x20)\n      swap1\n    tag_56:\n      dup2\n      sload\n      dup2\n      mstore\n      swap1\n      0x01\n      add\n      swap1\n      0x20\n      add\n      dup1\n      dup4\n      gt\n      tag_56\n      jumpi\n      dup3\n      swap1\n      sub\n      0x1f\n      and\n      dup3\n      add\n      swap2\n    tag_54:\n      pop\n      pop\n      pop\n      pop\n      pop\n      swap1\n      dup1\n      0x07\n      add\n      0x00\n      swap1\n      sload\n      swap1\n      0x0100\n      exp\n      swap1\n      div\n      0xff\n      and\n      swap1\n      pop\n      dup9\n      jump\t// out\n        /* \"coin.sol\":94:114  address public owner */\n    tag_22:\n      0x00\n      dup1\n      sload\n      swap1\n      0x0100\n      exp\n      swap1\n      div\n      0xffffffffffffffffffffffffffffffffffffffff\n      and\n      dup2\n      jump\t// out\n        /* \"coin.sol\":1779:2089  function buy(uint index) external payable {\r... */\n    tag_27:\n        /* \"coin.sol\":1832:1855  Auction memory cAuction */\n      0x00\n        /* \"coin.sol\":1858:1866  auctions */\n      0x01\n        /* \"coin.sol\":1867:1872  index */\n      dup3\n        /* \"coin.sol\":1858:1873  auctions[index] */\n      dup2\n      sload\n      dup2\n      lt\n      tag_58\n      jumpi\n      mstore(0x00, 0x4e487b7100000000000000000000000000000000000000000000000000000000)\n      mstore(0x04, 0x32)\n      revert(0x00, 0x24)\n    tag_58:\n      swap1\n      0x00\n      mstore\n      keccak256(0x00, 0x20)\n      swap1\n      0x08\n      mul\n      add\n        /* \"coin.sol\":1832:1873  Auction memory cAuction = auctions[index] */\n      mload(0x40)\n      dup1\n      0x0100\n      add\n      0x40\n      mstore\n      swap1\n      dup2\n      0x00\n      dup3\n      add\n      0x00\n      swap1\n      sload\n      swap1\n      0x0100\n      exp\n      swap1\n      div\n      0xffffffffffffffffffffffffffffffffffffffff\n      and\n      0xffffffffffffffffffffffffffffffffffffffff\n      and\n      0xffffffffffffffffffffffffffffffffffffffff\n      and\n      dup2\n      mstore\n      0x20\n      add\n      0x01\n      dup3\n      add\n      sload\n      dup2\n      mstore\n      0x20\n      add\n      0x02\n      dup3\n      add\n      sload\n      dup2\n      mstore\n      0x20\n      add\n      0x03\n      dup3\n      add\n      sload\n      dup2\n      mstore\n      0x20\n      add\n      0x04\n      dup3\n      add\n      sload\n      dup2\n      mstore\n      0x20\n      add\n      0x05\n      dup3\n      add\n      sload\n      dup2\n      mstore\n      0x20\n      add\n      0x06\n      dup3\n      add\n      dup1\n      sload\n      tag_60\n      swap1\n      tag_37\n      jump\t// in\n    tag_60:\n      dup1\n      0x1f\n      add\n      0x20\n      dup1\n      swap2\n      div\n      mul\n      0x20\n      add\n      mload(0x40)\n      swap1\n      dup2\n      add\n      0x40\n      mstore\n      dup1\n      swap3\n      swap2\n      swap1\n      dup2\n      dup2\n      mstore\n      0x20\n      add\n      dup3\n      dup1\n      sload\n      tag_61\n      swap1\n      tag_37\n      jump\t// in\n    tag_61:\n      dup1\n      iszero\n      tag_62\n      jumpi\n      dup1\n      0x1f\n      lt\n      tag_63\n      jumpi\n      0x0100\n      dup1\n      dup4\n      sload\n      div\n      mul\n      dup4\n      mstore\n      swap2\n      0x20\n      add\n      swap2\n      jump(tag_62)\n    tag_63:\n      dup3\n      add\n      swap2\n      swap1\n      0x00\n      mstore\n      keccak256(0x00, 0x20)\n      swap1\n    tag_64:\n      dup2\n      sload\n      dup2\n      mstore\n      swap1\n      0x01\n      add\n      swap1\n      0x20\n      add\n      dup1\n      dup4\n      gt\n      tag_64\n      jumpi\n      dup3\n      swap1\n      sub\n      0x1f\n      and\n      dup3\n      add\n      swap2\n    tag_62:\n      pop\n      pop\n      pop\n      pop\n      pop\n      dup2\n      mstore\n      0x20\n      add\n      0x07\n      dup3\n      add\n      0x00\n      swap1\n      sload\n      swap1\n      0x0100\n      exp\n      swap1\n      div\n      0xff\n      and\n      iszero\n      iszero\n      iszero\n      iszero\n      dup2\n      mstore\n      pop\n      pop\n      swap1\n      pop\n        /* \"coin.sol\":1895:1903  cAuction */\n      dup1\n        /* \"coin.sol\":1895:1911  cAuction.stopped */\n      0xe0\n      add\n      mload\n        /* \"coin.sol\":1894:1911  !cAuction.stopped */\n      iszero\n        /* \"coin.sol\":1886:1924  require(!cAuction.stopped, \"stopped!\") */\n      tag_65\n      jumpi\n      mload(0x40)\n      0x08c379a000000000000000000000000000000000000000000000000000000000\n      dup2\n      mstore\n      0x04\n      add\n      tag_66\n      swap1\n      tag_44\n      jump\t// in\n    tag_66:\n      mload(0x40)\n      dup1\n      swap2\n      sub\n      swap1\n      revert\n    tag_65:\n        /* \"coin.sol\":1961:1969  cAuction */\n      dup1\n        /* \"coin.sol\":1961:1976  cAuction.endsAt */\n      0x80\n      add\n      mload\n        /* \"coin.sol\":1943:1958  block.timestamp */\n      timestamp\n        /* \"coin.sol\":1943:1976  block.timestamp < cAuction.endsAt */\n      lt\n        /* \"coin.sol\":1935:1986  require(block.timestamp < cAuction.endsAt, \"end!\" ) */\n      tag_67\n      jumpi\n      mload(0x40)\n      0x08c379a000000000000000000000000000000000000000000000000000000000\n      dup2\n      mstore\n      0x04\n      add\n      tag_68\n      swap1\n      tag_69\n      jump\t// in\n    tag_68:\n      mload(0x40)\n      dup1\n      swap2\n      sub\n      swap1\n      revert\n    tag_67:\n        /* \"coin.sol\":1999:2010  uint cPrice */\n      0x00\n        /* \"coin.sol\":2013:2031  getPriceFor(index) */\n      tag_70\n        /* \"coin.sol\":2025:2030  index */\n      dup4\n        /* \"coin.sol\":2013:2024  getPriceFor */\n      tag_11\n        /* \"coin.sol\":2013:2031  getPriceFor(index) */\n      jump\t// in\n    tag_70:\n        /* \"coin.sol\":1999:2031  uint cPrice = getPriceFor(index) */\n      swap1\n      pop\n        /* \"coin.sol\":2065:2071  cPrice */\n      dup1\n        /* \"coin.sol\":2052:2061  msg.value */\n      callvalue\n        /* \"coin.sol\":2052:2071  msg.value >= cPrice */\n      lt\n      iszero\n        /* \"coin.sol\":2044:2075  require(msg.value >= cPrice,\"\") */\n      tag_71\n      jumpi\n      mload(0x40)\n      0x08c379a000000000000000000000000000000000000000000000000000000000\n      dup2\n      mstore\n      0x04\n      add\n      tag_72\n      swap1\n      tag_73\n      jump\t// in\n    tag_72:\n      mload(0x40)\n      dup1\n      swap2\n      sub\n      swap1\n      revert\n    tag_71:\n        /* \"coin.sol\":1779:2089  function buy(uint index) external payable {\r... */\n      pop\n      pop\n      pop\n      jump\t// out\n        /* \"coin.sol\":630:1406  function createAuction(uint _startingPrice, uint _discountRate, string calldata _item, uint _duration) external {\r... */\n    tag_32:\n        /* \"coin.sol\":753:766  uint duration */\n      0x00\n        /* \"coin.sol\":782:783  0 */\n      dup1\n        /* \"coin.sol\":769:778  _duration */\n      dup3\n        /* \"coin.sol\":769:783  _duration == 0 */\n      eq\n        /* \"coin.sol\":769:806  _duration == 0 ? DURATION : _duration */\n      tag_75\n      jumpi\n        /* \"coin.sol\":797:806  _duration */\n      dup2\n        /* \"coin.sol\":769:806  _duration == 0 ? DURATION : _duration */\n      jump(tag_76)\n    tag_75:\n        /* \"coin.sol\":146:152  2 days */\n      0x02a300\n        /* \"coin.sol\":769:806  _duration == 0 ? DURATION : _duration */\n    tag_76:\n        /* \"coin.sol\":753:806  uint duration = _duration == 0 ? DURATION : _duration */\n      swap1\n      pop\n        /* \"coin.sol\":861:869  duration */\n      dup1\n        /* \"coin.sol\":845:858  _discountRate */\n      dup6\n        /* \"coin.sol\":845:869  _discountRate * duration */\n      tag_77\n      swap2\n      swap1\n      tag_48\n      jump\t// in\n    tag_77:\n        /* \"coin.sol\":827:841  _startingPrice */\n      dup7\n        /* \"coin.sol\":827:869  _startingPrice >= _discountRate * duration */\n      lt\n      iszero\n        /* \"coin.sol\":819:897  require(_startingPrice >= _discountRate * duration,\"incorrect starting price\") */\n      tag_78\n      jumpi\n      mload(0x40)\n      0x08c379a000000000000000000000000000000000000000000000000000000000\n      dup2\n      mstore\n      0x04\n      add\n      tag_79\n      swap1\n      tag_80\n      jump\t// in\n    tag_79:\n      mload(0x40)\n      dup1\n      swap2\n      sub\n      swap1\n      revert\n    tag_78:\n        /* \"coin.sol\":912:937  Auction memory newAuction */\n      0x00\n        /* \"coin.sol\":940:1272  Auction({\r... */\n      mload(0x40)\n      dup1\n      0x0100\n      add\n      0x40\n      mstore\n      dup1\n        /* \"coin.sol\":979:989  msg.sender */\n      caller\n        /* \"coin.sol\":940:1272  Auction({\r... */\n      0xffffffffffffffffffffffffffffffffffffffff\n      and\n      dup2\n      mstore\n      0x20\n      add\n        /* \"coin.sol\":1020:1034  _startingPrice */\n      dup9\n        /* \"coin.sol\":940:1272  Auction({\r... */\n      dup2\n      mstore\n      0x20\n      add\n        /* \"coin.sol\":1061:1075  _startingPrice */\n      dup9\n        /* \"coin.sol\":940:1272  Auction({\r... */\n      dup2\n      mstore\n      0x20\n      add\n        /* \"coin.sol\":1141:1156  block.timestamp */\n      timestamp\n        /* \"coin.sol\":940:1272  Auction({\r... */\n      dup2\n      mstore\n      0x20\n      add\n        /* \"coin.sol\":1197:1205  duration */\n      dup4\n        /* \"coin.sol\":1179:1194  block.timestamp */\n      timestamp\n        /* \"coin.sol\":1179:1205  block.timestamp + duration */\n      tag_81\n      swap2\n      swap1\n      tag_82\n      jump\t// in\n    tag_81:\n        /* \"coin.sol\":940:1272  Auction({\r... */\n      dup2\n      mstore\n      0x20\n      add\n        /* \"coin.sol\":1104:1117  _discountRate */\n      dup8\n        /* \"coin.sol\":940:1272  Auction({\r... */\n      dup2\n      mstore\n      0x20\n      add\n        /* \"coin.sol\":1226:1231  _item */\n      dup7\n      dup7\n        /* \"coin.sol\":940:1272  Auction({\r... */\n      dup1\n      dup1\n      0x1f\n      add\n      0x20\n      dup1\n      swap2\n      div\n      mul\n      0x20\n      add\n      mload(0x40)\n      swap1\n      dup2\n      add\n      0x40\n      mstore\n      dup1\n      swap4\n      swap3\n      swap2\n      swap1\n      dup2\n      dup2\n      mstore\n      0x20\n      add\n      dup4\n      dup4\n      dup1\n      dup3\n      dup5\n      calldatacopy\n      0x00\n      dup2\n      dup5\n      add\n      mstore\n      not(0x1f)\n      0x1f\n      dup3\n      add\n      and\n      swap1\n      pop\n      dup1\n      dup4\n      add\n      swap3\n      pop\n      pop\n      pop\n      pop\n      pop\n      pop\n      pop\n      dup2\n      mstore\n      0x20\n      add\n        /* \"coin.sol\":1255:1260  false */\n      0x00\n        /* \"coin.sol\":940:1272  Auction({\r... */\n      iszero\n      iszero\n      dup2\n      mstore\n      pop\n        /* \"coin.sol\":912:1272  Auction memory newAuction = Auction({\r... */\n      swap1\n      pop\n        /* \"coin.sol\":1285:1293  auctions */\n      0x01\n        /* \"coin.sol\":1299:1309  newAuction */\n      dup2\n        /* \"coin.sol\":1285:1310  auctions.push(newAuction) */\n      swap1\n      dup1\n      0x01\n      dup2\n      sload\n      add\n      dup1\n      dup3\n      sstore\n      dup1\n      swap2\n      pop\n      pop\n      0x01\n      swap1\n      sub\n      swap1\n      0x00\n      mstore\n      keccak256(0x00, 0x20)\n      swap1\n      0x08\n      mul\n      add\n      0x00\n      swap1\n      swap2\n      swap1\n      swap2\n      swap1\n      swap2\n      pop\n      0x00\n      dup3\n      add\n      mload\n      dup2\n      0x00\n      add\n      exp(0x0100, 0x00)\n      dup2\n      sload\n      dup2\n      0xffffffffffffffffffffffffffffffffffffffff\n      mul\n      not\n      and\n      swap1\n      dup4\n      0xffffffffffffffffffffffffffffffffffffffff\n      and\n      mul\n      or\n      swap1\n      sstore\n      pop\n      0x20\n      dup3\n      add\n      mload\n      dup2\n      0x01\n      add\n      sstore\n      0x40\n      dup3\n      add\n      mload\n      dup2\n      0x02\n      add\n      sstore\n      0x60\n      dup3\n      add\n      mload\n      dup2\n      0x03\n      add\n      sstore\n      0x80\n      dup3\n      add\n      mload\n      dup2\n      0x04\n      add\n      sstore\n      0xa0\n      dup3\n      add\n      mload\n      dup2\n      0x05\n      add\n      sstore\n      0xc0\n      dup3\n      add\n      mload\n      dup2\n      0x06\n      add\n      swap1\n      dup1\n      mload\n      swap1\n      0x20\n      add\n      swap1\n      tag_84\n      swap3\n      swap2\n      swap1\n      tag_85\n      jump\t// in\n    tag_84:\n      pop\n      0xe0\n      dup3\n      add\n      mload\n      dup2\n      0x07\n      add\n      exp(0x0100, 0x00)\n      dup2\n      sload\n      dup2\n      0xff\n      mul\n      not\n      and\n      swap1\n      dup4\n      iszero\n      iszero\n      mul\n      or\n      swap1\n      sstore\n      pop\n      pop\n      pop\n        /* \"coin.sol\":1330:1396  AuctionCreated(auctions.length-1, _item, _startingPrice, duration) */\n      0x5bf34ed94988e5dcdc7d1faaa54eb1d3b55f45d5f11457e235afb21a8ebbe73c\n        /* \"coin.sol\":1361:1362  1 */\n      0x01\n        /* \"coin.sol\":1345:1353  auctions */\n      dup1\n        /* \"coin.sol\":1345:1360  auctions.length */\n      dup1\n      sload\n      swap1\n      pop\n        /* \"coin.sol\":1345:1362  auctions.length-1 */\n      tag_86\n      swap2\n      swap1\n      tag_46\n      jump\t// in\n    tag_86:\n        /* \"coin.sol\":1364:1369  _item */\n      dup7\n      dup7\n        /* \"coin.sol\":1371:1385  _startingPrice */\n      dup11\n        /* \"coin.sol\":1387:1395  duration */\n      dup7\n        /* \"coin.sol\":1330:1396  AuctionCreated(auctions.length-1, _item, _startingPrice, duration) */\n      mload(0x40)\n      tag_87\n      swap6\n      swap5\n      swap4\n      swap3\n      swap2\n      swap1\n      tag_88\n      jump\t// in\n    tag_87:\n      mload(0x40)\n      dup1\n      swap2\n      sub\n      swap1\n      log1\n        /* \"coin.sol\":630:1406  function createAuction(uint _startingPrice, uint _discountRate, string calldata _item, uint _duration) external {\r... */\n      pop\n      pop\n      pop\n      pop\n      pop\n      pop\n      pop\n      jump\t// out\n    tag_85:\n      dup3\n      dup1\n      sload\n      tag_89\n      swap1\n      tag_37\n      jump\t// in\n    tag_89:\n      swap1\n      0x00\n      mstore\n      keccak256(0x00, 0x20)\n      swap1\n      0x1f\n      add\n      0x20\n      swap1\n      div\n      dup2\n      add\n      swap3\n      dup3\n      tag_91\n      jumpi\n      0x00\n      dup6\n      sstore\n      jump(tag_90)\n    tag_91:\n      dup3\n      0x1f\n      lt\n      tag_92\n      jumpi\n      dup1\n      mload\n      not(0xff)\n      and\n      dup4\n      dup1\n      add\n      or\n      dup6\n      sstore\n      jump(tag_90)\n    tag_92:\n      dup3\n      dup1\n      add\n      0x01\n      add\n      dup6\n      sstore\n      dup3\n      iszero\n      tag_90\n      jumpi\n      swap2\n      dup3\n      add\n    tag_93:\n      dup3\n      dup2\n      gt\n      iszero\n      tag_94\n      jumpi\n      dup3\n      mload\n      dup3\n      sstore\n      swap2\n      0x20\n      add\n      swap2\n      swap1\n      0x01\n      add\n      swap1\n      jump(tag_93)\n    tag_94:\n    tag_90:\n      pop\n      swap1\n      pop\n      tag_95\n      swap2\n      swap1\n      tag_96\n      jump\t// in\n    tag_95:\n      pop\n      swap1\n      jump\t// out\n    tag_96:\n    tag_97:\n      dup1\n      dup3\n      gt\n      iszero\n      tag_98\n      jumpi\n      0x00\n      dup2\n      0x00\n      swap1\n      sstore\n      pop\n      0x01\n      add\n      jump(tag_97)\n    tag_98:\n      pop\n      swap1\n      jump\t// out\n        /* \"#utility.yul\":21:373   */\n    tag_100:\n      0x00\n      dup1\n        /* \"#utility.yul\":139:142   */\n      dup4\n        /* \"#utility.yul\":132:136   */\n      0x1f\n        /* \"#utility.yul\":124:130   */\n      dup5\n        /* \"#utility.yul\":120:137   */\n      add\n        /* \"#utility.yul\":116:143   */\n      slt\n        /* \"#utility.yul\":106:108   */\n      tag_102\n      jumpi\n        /* \"#utility.yul\":157:158   */\n      0x00\n        /* \"#utility.yul\":154:155   */\n      dup1\n        /* \"#utility.yul\":147:159   */\n      revert\n        /* \"#utility.yul\":106:108   */\n    tag_102:\n        /* \"#utility.yul\":193:199   */\n      dup3\n        /* \"#utility.yul\":180:200   */\n      calldataload\n        /* \"#utility.yul\":170:200   */\n      swap1\n      pop\n        /* \"#utility.yul\":223:241   */\n      0xffffffffffffffff\n        /* \"#utility.yul\":215:221   */\n      dup2\n        /* \"#utility.yul\":212:242   */\n      gt\n        /* \"#utility.yul\":209:211   */\n      iszero\n      tag_103\n      jumpi\n        /* \"#utility.yul\":255:256   */\n      0x00\n        /* \"#utility.yul\":252:253   */\n      dup1\n        /* \"#utility.yul\":245:257   */\n      revert\n        /* \"#utility.yul\":209:211   */\n    tag_103:\n        /* \"#utility.yul\":292:296   */\n      0x20\n        /* \"#utility.yul\":284:290   */\n      dup4\n        /* \"#utility.yul\":280:297   */\n      add\n        /* \"#utility.yul\":268:297   */\n      swap2\n      pop\n        /* \"#utility.yul\":346:349   */\n      dup4\n        /* \"#utility.yul\":338:342   */\n      0x01\n        /* \"#utility.yul\":330:336   */\n      dup3\n        /* \"#utility.yul\":326:343   */\n      mul\n        /* \"#utility.yul\":316:324   */\n      dup4\n        /* \"#utility.yul\":312:344   */\n      add\n        /* \"#utility.yul\":309:350   */\n      gt\n        /* \"#utility.yul\":306:308   */\n      iszero\n      tag_104\n      jumpi\n        /* \"#utility.yul\":363:364   */\n      0x00\n        /* \"#utility.yul\":360:361   */\n      dup1\n        /* \"#utility.yul\":353:365   */\n      revert\n        /* \"#utility.yul\":306:308   */\n    tag_104:\n        /* \"#utility.yul\":96:373   */\n      swap3\n      pop\n      swap3\n      swap1\n      pop\n      jump\t// out\n        /* \"#utility.yul\":379:518   */\n    tag_105:\n      0x00\n        /* \"#utility.yul\":463:469   */\n      dup2\n        /* \"#utility.yul\":450:470   */\n      calldataload\n        /* \"#utility.yul\":441:470   */\n      swap1\n      pop\n        /* \"#utility.yul\":479:512   */\n      tag_107\n        /* \"#utility.yul\":506:511   */\n      dup2\n        /* \"#utility.yul\":479:512   */\n      tag_108\n      jump\t// in\n    tag_107:\n        /* \"#utility.yul\":431:518   */\n      swap3\n      swap2\n      pop\n      pop\n      jump\t// out\n        /* \"#utility.yul\":524:786   */\n    tag_10:\n      0x00\n        /* \"#utility.yul\":632:634   */\n      0x20\n        /* \"#utility.yul\":620:629   */\n      dup3\n        /* \"#utility.yul\":611:618   */\n      dup5\n        /* \"#utility.yul\":607:630   */\n      sub\n        /* \"#utility.yul\":603:635   */\n      slt\n        /* \"#utility.yul\":600:602   */\n      iszero\n      tag_110\n      jumpi\n        /* \"#utility.yul\":648:649   */\n      0x00\n        /* \"#utility.yul\":645:646   */\n      dup1\n        /* \"#utility.yul\":638:650   */\n      revert\n        /* \"#utility.yul\":600:602   */\n    tag_110:\n        /* \"#utility.yul\":691:692   */\n      0x00\n        /* \"#utility.yul\":716:769   */\n      tag_111\n        /* \"#utility.yul\":761:768   */\n      dup5\n        /* \"#utility.yul\":752:758   */\n      dup3\n        /* \"#utility.yul\":741:750   */\n      dup6\n        /* \"#utility.yul\":737:759   */\n      add\n        /* \"#utility.yul\":716:769   */\n      tag_105\n      jump\t// in\n    tag_111:\n        /* \"#utility.yul\":706:769   */\n      swap2\n      pop\n        /* \"#utility.yul\":662:779   */\n      pop\n        /* \"#utility.yul\":590:786   */\n      swap3\n      swap2\n      pop\n      pop\n      jump\t// out\n        /* \"#utility.yul\":792:1623   */\n    tag_31:\n      0x00\n      dup1\n      0x00\n      dup1\n      0x00\n        /* \"#utility.yul\":971:974   */\n      0x80\n        /* \"#utility.yul\":959:968   */\n      dup7\n        /* \"#utility.yul\":950:957   */\n      dup9\n        /* \"#utility.yul\":946:969   */\n      sub\n        /* \"#utility.yul\":942:975   */\n      slt\n        /* \"#utility.yul\":939:941   */\n      iszero\n      tag_113\n      jumpi\n        /* \"#utility.yul\":988:989   */\n      0x00\n        /* \"#utility.yul\":985:986   */\n      dup1\n        /* \"#utility.yul\":978:990   */\n      revert\n        /* \"#utility.yul\":939:941   */\n    tag_113:\n        /* \"#utility.yul\":1031:1032   */\n      0x00\n        /* \"#utility.yul\":1056:1109   */\n      tag_114\n        /* \"#utility.yul\":1101:1108   */\n      dup9\n        /* \"#utility.yul\":1092:1098   */\n      dup3\n        /* \"#utility.yul\":1081:1090   */\n      dup10\n        /* \"#utility.yul\":1077:1099   */\n      add\n        /* \"#utility.yul\":1056:1109   */\n      tag_105\n      jump\t// in\n    tag_114:\n        /* \"#utility.yul\":1046:1109   */\n      swap6\n      pop\n        /* \"#utility.yul\":1002:1119   */\n      pop\n        /* \"#utility.yul\":1158:1160   */\n      0x20\n        /* \"#utility.yul\":1184:1237   */\n      tag_115\n        /* \"#utility.yul\":1229:1236   */\n      dup9\n        /* \"#utility.yul\":1220:1226   */\n      dup3\n        /* \"#utility.yul\":1209:1218   */\n      dup10\n        /* \"#utility.yul\":1205:1227   */\n      add\n        /* \"#utility.yul\":1184:1237   */\n      tag_105\n      jump\t// in\n    tag_115:\n        /* \"#utility.yul\":1174:1237   */\n      swap5\n      pop\n        /* \"#utility.yul\":1129:1247   */\n      pop\n        /* \"#utility.yul\":1314:1316   */\n      0x40\n        /* \"#utility.yul\":1303:1312   */\n      dup7\n        /* \"#utility.yul\":1299:1317   */\n      add\n        /* \"#utility.yul\":1286:1318   */\n      calldataload\n        /* \"#utility.yul\":1345:1363   */\n      0xffffffffffffffff\n        /* \"#utility.yul\":1337:1343   */\n      dup2\n        /* \"#utility.yul\":1334:1364   */\n      gt\n        /* \"#utility.yul\":1331:1333   */\n      iszero\n      tag_116\n      jumpi\n        /* \"#utility.yul\":1377:1378   */\n      0x00\n        /* \"#utility.yul\":1374:1375   */\n      dup1\n        /* \"#utility.yul\":1367:1379   */\n      revert\n        /* \"#utility.yul\":1331:1333   */\n    tag_116:\n        /* \"#utility.yul\":1413:1478   */\n      tag_117\n        /* \"#utility.yul\":1470:1477   */\n      dup9\n        /* \"#utility.yul\":1461:1467   */\n      dup3\n        /* \"#utility.yul\":1450:1459   */\n      dup10\n        /* \"#utility.yul\":1446:1468   */\n      add\n        /* \"#utility.yul\":1413:1478   */\n      tag_100\n      jump\t// in\n    tag_117:\n        /* \"#utility.yul\":1395:1478   */\n      swap4\n      pop\n      swap4\n      pop\n        /* \"#utility.yul\":1257:1488   */\n      pop\n        /* \"#utility.yul\":1527:1529   */\n      0x60\n        /* \"#utility.yul\":1553:1606   */\n      tag_118\n        /* \"#utility.yul\":1598:1605   */\n      dup9\n        /* \"#utility.yul\":1589:1595   */\n      dup3\n        /* \"#utility.yul\":1578:1587   */\n      dup10\n        /* \"#utility.yul\":1574:1596   */\n      add\n        /* \"#utility.yul\":1553:1606   */\n      tag_105\n      jump\t// in\n    tag_118:\n        /* \"#utility.yul\":1543:1606   */\n      swap2\n      pop\n        /* \"#utility.yul\":1498:1616   */\n      pop\n        /* \"#utility.yul\":929:1623   */\n      swap3\n      swap6\n      pop\n      swap3\n      swap6\n      swap1\n      swap4\n      pop\n      jump\t// out\n        /* \"#utility.yul\":1629:1771   */\n    tag_119:\n        /* \"#utility.yul\":1732:1764   */\n      tag_121\n        /* \"#utility.yul\":1758:1763   */\n      dup2\n        /* \"#utility.yul\":1732:1764   */\n      tag_122\n      jump\t// in\n    tag_121:\n        /* \"#utility.yul\":1727:1730   */\n      dup3\n        /* \"#utility.yul\":1720:1765   */\n      mstore\n        /* \"#utility.yul\":1710:1771   */\n      pop\n      pop\n      jump\t// out\n        /* \"#utility.yul\":1777:1895   */\n    tag_123:\n        /* \"#utility.yul\":1864:1888   */\n      tag_125\n        /* \"#utility.yul\":1882:1887   */\n      dup2\n        /* \"#utility.yul\":1864:1888   */\n      tag_126\n      jump\t// in\n    tag_125:\n        /* \"#utility.yul\":1859:1862   */\n      dup3\n        /* \"#utility.yul\":1852:1889   */\n      mstore\n        /* \"#utility.yul\":1842:1895   */\n      pop\n      pop\n      jump\t// out\n        /* \"#utility.yul\":1901:2010   */\n    tag_127:\n        /* \"#utility.yul\":1982:2003   */\n      tag_129\n        /* \"#utility.yul\":1997:2002   */\n      dup2\n        /* \"#utility.yul\":1982:2003   */\n      tag_130\n      jump\t// in\n    tag_129:\n        /* \"#utility.yul\":1977:1980   */\n      dup3\n        /* \"#utility.yul\":1970:2004   */\n      mstore\n        /* \"#utility.yul\":1960:2010   */\n      pop\n      pop\n      jump\t// out\n        /* \"#utility.yul\":2040:2344   */\n    tag_131:\n      0x00\n        /* \"#utility.yul\":2159:2230   */\n      tag_133\n        /* \"#utility.yul\":2223:2229   */\n      dup4\n        /* \"#utility.yul\":2218:2221   */\n      dup6\n        /* \"#utility.yul\":2159:2230   */\n      tag_134\n      jump\t// in\n    tag_133:\n        /* \"#utility.yul\":2152:2230   */\n      swap4\n      pop\n        /* \"#utility.yul\":2240:2283   */\n      tag_135\n        /* \"#utility.yul\":2276:2282   */\n      dup4\n        /* \"#utility.yul\":2271:2274   */\n      dup6\n        /* \"#utility.yul\":2264:2269   */\n      dup5\n        /* \"#utility.yul\":2240:2283   */\n      tag_136\n      jump\t// in\n    tag_135:\n        /* \"#utility.yul\":2308:2337   */\n      tag_137\n        /* \"#utility.yul\":2330:2336   */\n      dup4\n        /* \"#utility.yul\":2308:2337   */\n      tag_138\n      jump\t// in\n    tag_137:\n        /* \"#utility.yul\":2303:2306   */\n      dup5\n        /* \"#utility.yul\":2299:2338   */\n      add\n        /* \"#utility.yul\":2292:2338   */\n      swap1\n      pop\n        /* \"#utility.yul\":2142:2344   */\n      swap4\n      swap3\n      pop\n      pop\n      pop\n      jump\t// out\n        /* \"#utility.yul\":2350:2714   */\n    tag_139:\n      0x00\n        /* \"#utility.yul\":2466:2505   */\n      tag_141\n        /* \"#utility.yul\":2499:2504   */\n      dup3\n        /* \"#utility.yul\":2466:2505   */\n      tag_142\n      jump\t// in\n    tag_141:\n        /* \"#utility.yul\":2521:2592   */\n      tag_143\n        /* \"#utility.yul\":2585:2591   */\n      dup2\n        /* \"#utility.yul\":2580:2583   */\n      dup6\n        /* \"#utility.yul\":2521:2592   */\n      tag_134\n      jump\t// in\n    tag_143:\n        /* \"#utility.yul\":2514:2592   */\n      swap4\n      pop\n        /* \"#utility.yul\":2601:2653   */\n      tag_144\n        /* \"#utility.yul\":2646:2652   */\n      dup2\n        /* \"#utility.yul\":2641:2644   */\n      dup6\n        /* \"#utility.yul\":2634:2638   */\n      0x20\n        /* \"#utility.yul\":2627:2632   */\n      dup7\n        /* \"#utility.yul\":2623:2639   */\n      add\n        /* \"#utility.yul\":2601:2653   */\n      tag_145\n      jump\t// in\n    tag_144:\n        /* \"#utility.yul\":2678:2707   */\n      tag_146\n        /* \"#utility.yul\":2700:2706   */\n      dup2\n        /* \"#utility.yul\":2678:2707   */\n      tag_138\n      jump\t// in\n    tag_146:\n        /* \"#utility.yul\":2673:2676   */\n      dup5\n        /* \"#utility.yul\":2669:2708   */\n      add\n        /* \"#utility.yul\":2662:2708   */\n      swap2\n      pop\n        /* \"#utility.yul\":2442:2714   */\n      pop\n      swap3\n      swap2\n      pop\n      pop\n      jump\t// out\n        /* \"#utility.yul\":2720:3042   */\n    tag_147:\n      0x00\n        /* \"#utility.yul\":2883:2950   */\n      tag_149\n        /* \"#utility.yul\":2947:2949   */\n      0x18\n        /* \"#utility.yul\":2942:2945   */\n      dup4\n        /* \"#utility.yul\":2883:2950   */\n      tag_134\n      jump\t// in\n    tag_149:\n        /* \"#utility.yul\":2876:2950   */\n      swap2\n      pop\n        /* \"#utility.yul\":2980:3006   */\n      0x696e636f7272656374207374617274696e672070726963650000000000000000\n        /* \"#utility.yul\":2976:2977   */\n      0x00\n        /* \"#utility.yul\":2971:2974   */\n      dup4\n        /* \"#utility.yul\":2967:2978   */\n      add\n        /* \"#utility.yul\":2960:3007   */\n      mstore\n        /* \"#utility.yul\":3033:3035   */\n      0x20\n        /* \"#utility.yul\":3028:3031   */\n      dup3\n        /* \"#utility.yul\":3024:3036   */\n      add\n        /* \"#utility.yul\":3017:3036   */\n      swap1\n      pop\n        /* \"#utility.yul\":2866:3042   */\n      swap2\n      swap1\n      pop\n      jump\t// out\n        /* \"#utility.yul\":3048:3349   */\n    tag_150:\n      0x00\n        /* \"#utility.yul\":3211:3277   */\n      tag_152\n        /* \"#utility.yul\":3275:3276   */\n      0x04\n        /* \"#utility.yul\":3270:3273   */\n      dup4\n        /* \"#utility.yul\":3211:3277   */\n      tag_134\n      jump\t// in\n    tag_152:\n        /* \"#utility.yul\":3204:3277   */\n      swap2\n      pop\n        /* \"#utility.yul\":3307:3313   */\n      0x656e642100000000000000000000000000000000000000000000000000000000\n        /* \"#utility.yul\":3303:3304   */\n      0x00\n        /* \"#utility.yul\":3298:3301   */\n      dup4\n        /* \"#utility.yul\":3294:3305   */\n      add\n        /* \"#utility.yul\":3287:3314   */\n      mstore\n        /* \"#utility.yul\":3340:3342   */\n      0x20\n        /* \"#utility.yul\":3335:3338   */\n      dup3\n        /* \"#utility.yul\":3331:3343   */\n      add\n        /* \"#utility.yul\":3324:3343   */\n      swap1\n      pop\n        /* \"#utility.yul\":3194:3349   */\n      swap2\n      swap1\n      pop\n      jump\t// out\n        /* \"#utility.yul\":3355:3618   */\n    tag_153:\n      0x00\n        /* \"#utility.yul\":3518:3584   */\n      tag_155\n        /* \"#utility.yul\":3582:3583   */\n      0x00\n        /* \"#utility.yul\":3577:3580   */\n      dup4\n        /* \"#utility.yul\":3518:3584   */\n      tag_134\n      jump\t// in\n    tag_155:\n        /* \"#utility.yul\":3511:3584   */\n      swap2\n      pop\n        /* \"#utility.yul\":3610:3611   */\n      0x00\n        /* \"#utility.yul\":3605:3608   */\n      dup3\n        /* \"#utility.yul\":3601:3612   */\n      add\n        /* \"#utility.yul\":3594:3612   */\n      swap1\n      pop\n        /* \"#utility.yul\":3501:3618   */\n      swap2\n      swap1\n      pop\n      jump\t// out\n        /* \"#utility.yul\":3624:3929   */\n    tag_156:\n      0x00\n        /* \"#utility.yul\":3787:3853   */\n      tag_158\n        /* \"#utility.yul\":3851:3852   */\n      0x08\n        /* \"#utility.yul\":3846:3849   */\n      dup4\n        /* \"#utility.yul\":3787:3853   */\n      tag_134\n      jump\t// in\n    tag_158:\n        /* \"#utility.yul\":3780:3853   */\n      swap2\n      pop\n        /* \"#utility.yul\":3883:3893   */\n      0x73746f7070656421000000000000000000000000000000000000000000000000\n        /* \"#utility.yul\":3879:3880   */\n      0x00\n        /* \"#utility.yul\":3874:3877   */\n      dup4\n        /* \"#utility.yul\":3870:3881   */\n      add\n        /* \"#utility.yul\":3863:3894   */\n      mstore\n        /* \"#utility.yul\":3920:3922   */\n      0x20\n        /* \"#utility.yul\":3915:3918   */\n      dup3\n        /* \"#utility.yul\":3911:3923   */\n      add\n        /* \"#utility.yul\":3904:3923   */\n      swap1\n      pop\n        /* \"#utility.yul\":3770:3929   */\n      swap2\n      swap1\n      pop\n      jump\t// out\n        /* \"#utility.yul\":3935:4053   */\n    tag_159:\n        /* \"#utility.yul\":4022:4046   */\n      tag_161\n        /* \"#utility.yul\":4040:4045   */\n      dup2\n        /* \"#utility.yul\":4022:4046   */\n      tag_162\n      jump\t// in\n    tag_161:\n        /* \"#utility.yul\":4017:4020   */\n      dup3\n        /* \"#utility.yul\":4010:4047   */\n      mstore\n        /* \"#utility.yul\":4000:4053   */\n      pop\n      pop\n      jump\t// out\n        /* \"#utility.yul\":4059:4281   */\n    tag_24:\n      0x00\n        /* \"#utility.yul\":4190:4192   */\n      0x20\n        /* \"#utility.yul\":4179:4188   */\n      dup3\n        /* \"#utility.yul\":4175:4193   */\n      add\n        /* \"#utility.yul\":4167:4193   */\n      swap1\n      pop\n        /* \"#utility.yul\":4203:4274   */\n      tag_164\n        /* \"#utility.yul\":4271:4272   */\n      0x00\n        /* \"#utility.yul\":4260:4269   */\n      dup4\n        /* \"#utility.yul\":4256:4273   */\n      add\n        /* \"#utility.yul\":4247:4253   */\n      dup5\n        /* \"#utility.yul\":4203:4274   */\n      tag_123\n      jump\t// in\n    tag_164:\n        /* \"#utility.yul\":4157:4281   */\n      swap3\n      swap2\n      pop\n      pop\n      jump\t// out\n        /* \"#utility.yul\":4287:5395   */\n    tag_19:\n      0x00\n        /* \"#utility.yul\":4644:4647   */\n      0x0100\n        /* \"#utility.yul\":4633:4642   */\n      dup3\n        /* \"#utility.yul\":4629:4648   */\n      add\n        /* \"#utility.yul\":4621:4648   */\n      swap1\n      pop\n        /* \"#utility.yul\":4658:4745   */\n      tag_166\n        /* \"#utility.yul\":4742:4743   */\n      0x00\n        /* \"#utility.yul\":4731:4740   */\n      dup4\n        /* \"#utility.yul\":4727:4744   */\n      add\n        /* \"#utility.yul\":4718:4724   */\n      dup12\n        /* \"#utility.yul\":4658:4745   */\n      tag_119\n      jump\t// in\n    tag_166:\n        /* \"#utility.yul\":4755:4827   */\n      tag_167\n        /* \"#utility.yul\":4823:4825   */\n      0x20\n        /* \"#utility.yul\":4812:4821   */\n      dup4\n        /* \"#utility.yul\":4808:4826   */\n      add\n        /* \"#utility.yul\":4799:4805   */\n      dup11\n        /* \"#utility.yul\":4755:4827   */\n      tag_159\n      jump\t// in\n    tag_167:\n        /* \"#utility.yul\":4837:4909   */\n      tag_168\n        /* \"#utility.yul\":4905:4907   */\n      0x40\n        /* \"#utility.yul\":4894:4903   */\n      dup4\n        /* \"#utility.yul\":4890:4908   */\n      add\n        /* \"#utility.yul\":4881:4887   */\n      dup10\n        /* \"#utility.yul\":4837:4909   */\n      tag_159\n      jump\t// in\n    tag_168:\n        /* \"#utility.yul\":4919:4991   */\n      tag_169\n        /* \"#utility.yul\":4987:4989   */\n      0x60\n        /* \"#utility.yul\":4976:4985   */\n      dup4\n        /* \"#utility.yul\":4972:4990   */\n      add\n        /* \"#utility.yul\":4963:4969   */\n      dup9\n        /* \"#utility.yul\":4919:4991   */\n      tag_159\n      jump\t// in\n    tag_169:\n        /* \"#utility.yul\":5001:5074   */\n      tag_170\n        /* \"#utility.yul\":5069:5072   */\n      0x80\n        /* \"#utility.yul\":5058:5067   */\n      dup4\n        /* \"#utility.yul\":5054:5073   */\n      add\n        /* \"#utility.yul\":5045:5051   */\n      dup8\n        /* \"#utility.yul\":5001:5074   */\n      tag_159\n      jump\t// in\n    tag_170:\n        /* \"#utility.yul\":5084:5157   */\n      tag_171\n        /* \"#utility.yul\":5152:5155   */\n      0xa0\n        /* \"#utility.yul\":5141:5150   */\n      dup4\n        /* \"#utility.yul\":5137:5156   */\n      add\n        /* \"#utility.yul\":5128:5134   */\n      dup7\n        /* \"#utility.yul\":5084:5157   */\n      tag_159\n      jump\t// in\n    tag_171:\n        /* \"#utility.yul\":5205:5214   */\n      dup2\n        /* \"#utility.yul\":5199:5203   */\n      dup2\n        /* \"#utility.yul\":5195:5215   */\n      sub\n        /* \"#utility.yul\":5189:5192   */\n      0xc0\n        /* \"#utility.yul\":5178:5187   */\n      dup4\n        /* \"#utility.yul\":5174:5193   */\n      add\n        /* \"#utility.yul\":5167:5216   */\n      mstore\n        /* \"#utility.yul\":5233:5311   */\n      tag_172\n        /* \"#utility.yul\":5306:5310   */\n      dup2\n        /* \"#utility.yul\":5297:5303   */\n      dup6\n        /* \"#utility.yul\":5233:5311   */\n      tag_139\n      jump\t// in\n    tag_172:\n        /* \"#utility.yul\":5225:5311   */\n      swap1\n      pop\n        /* \"#utility.yul\":5321:5388   */\n      tag_173\n        /* \"#utility.yul\":5383:5386   */\n      0xe0\n        /* \"#utility.yul\":5372:5381   */\n      dup4\n        /* \"#utility.yul\":5368:5387   */\n      add\n        /* \"#utility.yul\":5359:5365   */\n      dup5\n        /* \"#utility.yul\":5321:5388   */\n      tag_127\n      jump\t// in\n    tag_173:\n        /* \"#utility.yul\":4611:5395   */\n      swap10\n      swap9\n      pop\n      pop\n      pop\n      pop\n      pop\n      pop\n      pop\n      pop\n      pop\n      jump\t// out\n        /* \"#utility.yul\":5401:5820   */\n    tag_80:\n      0x00\n        /* \"#utility.yul\":5605:5607   */\n      0x20\n        /* \"#utility.yul\":5594:5603   */\n      dup3\n        /* \"#utility.yul\":5590:5608   */\n      add\n        /* \"#utility.yul\":5582:5608   */\n      swap1\n      pop\n        /* \"#utility.yul\":5654:5663   */\n      dup2\n        /* \"#utility.yul\":5648:5652   */\n      dup2\n        /* \"#utility.yul\":5644:5664   */\n      sub\n        /* \"#utility.yul\":5640:5641   */\n      0x00\n        /* \"#utility.yul\":5629:5638   */\n      dup4\n        /* \"#utility.yul\":5625:5642   */\n      add\n        /* \"#utility.yul\":5618:5665   */\n      mstore\n        /* \"#utility.yul\":5682:5813   */\n      tag_175\n        /* \"#utility.yul\":5808:5812   */\n      dup2\n        /* \"#utility.yul\":5682:5813   */\n      tag_147\n      jump\t// in\n    tag_175:\n        /* \"#utility.yul\":5674:5813   */\n      swap1\n      pop\n        /* \"#utility.yul\":5572:5820   */\n      swap2\n      swap1\n      pop\n      jump\t// out\n        /* \"#utility.yul\":5826:6245   */\n    tag_69:\n      0x00\n        /* \"#utility.yul\":6030:6032   */\n      0x20\n        /* \"#utility.yul\":6019:6028   */\n      dup3\n        /* \"#utility.yul\":6015:6033   */\n      add\n        /* \"#utility.yul\":6007:6033   */\n      swap1\n      pop\n        /* \"#utility.yul\":6079:6088   */\n      dup2\n        /* \"#utility.yul\":6073:6077   */\n      dup2\n        /* \"#utility.yul\":6069:6089   */\n      sub\n        /* \"#utility.yul\":6065:6066   */\n      0x00\n        /* \"#utility.yul\":6054:6063   */\n      dup4\n        /* \"#utility.yul\":6050:6067   */\n      add\n        /* \"#utility.yul\":6043:6090   */\n      mstore\n        /* \"#utility.yul\":6107:6238   */\n      tag_177\n        /* \"#utility.yul\":6233:6237   */\n      dup2\n        /* \"#utility.yul\":6107:6238   */\n      tag_150\n      jump\t// in\n    tag_177:\n        /* \"#utility.yul\":6099:6238   */\n      swap1\n      pop\n        /* \"#utility.yul\":5997:6245   */\n      swap2\n      swap1\n      pop\n      jump\t// out\n        /* \"#utility.yul\":6251:6670   */\n    tag_73:\n      0x00\n        /* \"#utility.yul\":6455:6457   */\n      0x20\n        /* \"#utility.yul\":6444:6453   */\n      dup3\n        /* \"#utility.yul\":6440:6458   */\n      add\n        /* \"#utility.yul\":6432:6458   */\n      swap1\n      pop\n        /* \"#utility.yul\":6504:6513   */\n      dup2\n        /* \"#utility.yul\":6498:6502   */\n      dup2\n        /* \"#utility.yul\":6494:6514   */\n      sub\n        /* \"#utility.yul\":6490:6491   */\n      0x00\n        /* \"#utility.yul\":6479:6488   */\n      dup4\n        /* \"#utility.yul\":6475:6492   */\n      add\n        /* \"#utility.yul\":6468:6515   */\n      mstore\n        /* \"#utility.yul\":6532:6663   */\n      tag_179\n        /* \"#utility.yul\":6658:6662   */\n      dup2\n        /* \"#utility.yul\":6532:6663   */\n      tag_153\n      jump\t// in\n    tag_179:\n        /* \"#utility.yul\":6524:6663   */\n      swap1\n      pop\n        /* \"#utility.yul\":6422:6670   */\n      swap2\n      swap1\n      pop\n      jump\t// out\n        /* \"#utility.yul\":6676:7095   */\n    tag_44:\n      0x00\n        /* \"#utility.yul\":6880:6882   */\n      0x20\n        /* \"#utility.yul\":6869:6878   */\n      dup3\n        /* \"#utility.yul\":6865:6883   */\n      add\n        /* \"#utility.yul\":6857:6883   */\n      swap1\n      pop\n        /* \"#utility.yul\":6929:6938   */\n      dup2\n        /* \"#utility.yul\":6923:6927   */\n      dup2\n        /* \"#utility.yul\":6919:6939   */\n      sub\n        /* \"#utility.yul\":6915:6916   */\n      0x00\n        /* \"#utility.yul\":6904:6913   */\n      dup4\n        /* \"#utility.yul\":6900:6917   */\n      add\n        /* \"#utility.yul\":6893:6940   */\n      mstore\n        /* \"#utility.yul\":6957:7088   */\n      tag_181\n        /* \"#utility.yul\":7083:7087   */\n      dup2\n        /* \"#utility.yul\":6957:7088   */\n      tag_156\n      jump\t// in\n    tag_181:\n        /* \"#utility.yul\":6949:7088   */\n      swap1\n      pop\n        /* \"#utility.yul\":6847:7095   */\n      swap2\n      swap1\n      pop\n      jump\t// out\n        /* \"#utility.yul\":7101:7323   */\n    tag_13:\n      0x00\n        /* \"#utility.yul\":7232:7234   */\n      0x20\n        /* \"#utility.yul\":7221:7230   */\n      dup3\n        /* \"#utility.yul\":7217:7235   */\n      add\n        /* \"#utility.yul\":7209:7235   */\n      swap1\n      pop\n        /* \"#utility.yul\":7245:7316   */\n      tag_183\n        /* \"#utility.yul\":7313:7314   */\n      0x00\n        /* \"#utility.yul\":7302:7311   */\n      dup4\n        /* \"#utility.yul\":7298:7315   */\n      add\n        /* \"#utility.yul\":7289:7295   */\n      dup5\n        /* \"#utility.yul\":7245:7316   */\n      tag_159\n      jump\t// in\n    tag_183:\n        /* \"#utility.yul\":7199:7323   */\n      swap3\n      swap2\n      pop\n      pop\n      jump\t// out\n        /* \"#utility.yul\":7329:7993   */\n    tag_88:\n      0x00\n        /* \"#utility.yul\":7574:7577   */\n      0x80\n        /* \"#utility.yul\":7563:7572   */\n      dup3\n        /* \"#utility.yul\":7559:7578   */\n      add\n        /* \"#utility.yul\":7551:7578   */\n      swap1\n      pop\n        /* \"#utility.yul\":7588:7659   */\n      tag_185\n        /* \"#utility.yul\":7656:7657   */\n      0x00\n        /* \"#utility.yul\":7645:7654   */\n      dup4\n        /* \"#utility.yul\":7641:7658   */\n      add\n        /* \"#utility.yul\":7632:7638   */\n      dup9\n        /* \"#utility.yul\":7588:7659   */\n      tag_159\n      jump\t// in\n    tag_185:\n        /* \"#utility.yul\":7706:7715   */\n      dup2\n        /* \"#utility.yul\":7700:7704   */\n      dup2\n        /* \"#utility.yul\":7696:7716   */\n      sub\n        /* \"#utility.yul\":7691:7693   */\n      0x20\n        /* \"#utility.yul\":7680:7689   */\n      dup4\n        /* \"#utility.yul\":7676:7694   */\n      add\n        /* \"#utility.yul\":7669:7717   */\n      mstore\n        /* \"#utility.yul\":7734:7822   */\n      tag_186\n        /* \"#utility.yul\":7817:7821   */\n      dup2\n        /* \"#utility.yul\":7808:7814   */\n      dup7\n        /* \"#utility.yul\":7800:7806   */\n      dup9\n        /* \"#utility.yul\":7734:7822   */\n      tag_131\n      jump\t// in\n    tag_186:\n        /* \"#utility.yul\":7726:7822   */\n      swap1\n      pop\n        /* \"#utility.yul\":7832:7904   */\n      tag_187\n        /* \"#utility.yul\":7900:7902   */\n      0x40\n        /* \"#utility.yul\":7889:7898   */\n      dup4\n        /* \"#utility.yul\":7885:7903   */\n      add\n        /* \"#utility.yul\":7876:7882   */\n      dup6\n        /* \"#utility.yul\":7832:7904   */\n      tag_159\n      jump\t// in\n    tag_187:\n        /* \"#utility.yul\":7914:7986   */\n      tag_188\n        /* \"#utility.yul\":7982:7984   */\n      0x60\n        /* \"#utility.yul\":7971:7980   */\n      dup4\n        /* \"#utility.yul\":7967:7985   */\n      add\n        /* \"#utility.yul\":7958:7964   */\n      dup5\n        /* \"#utility.yul\":7914:7986   */\n      tag_159\n      jump\t// in\n    tag_188:\n        /* \"#utility.yul\":7541:7993   */\n      swap7\n      swap6\n      pop\n      pop\n      pop\n      pop\n      pop\n      pop\n      jump\t// out\n        /* \"#utility.yul\":7999:8098   */\n    tag_142:\n      0x00\n        /* \"#utility.yul\":8085:8090   */\n      dup2\n        /* \"#utility.yul\":8079:8091   */\n      mload\n        /* \"#utility.yul\":8069:8091   */\n      swap1\n      pop\n        /* \"#utility.yul\":8058:8098   */\n      swap2\n      swap1\n      pop\n      jump\t// out\n        /* \"#utility.yul\":8104:8273   */\n    tag_134:\n      0x00\n        /* \"#utility.yul\":8222:8228   */\n      dup3\n        /* \"#utility.yul\":8217:8220   */\n      dup3\n        /* \"#utility.yul\":8210:8229   */\n      mstore\n        /* \"#utility.yul\":8262:8266   */\n      0x20\n        /* \"#utility.yul\":8257:8260   */\n      dup3\n        /* \"#utility.yul\":8253:8267   */\n      add\n        /* \"#utility.yul\":8238:8267   */\n      swap1\n      pop\n        /* \"#utility.yul\":8200:8273   */\n      swap3\n      swap2\n      pop\n      pop\n      jump\t// out\n        /* \"#utility.yul\":8279:8584   */\n    tag_82:\n      0x00\n        /* \"#utility.yul\":8338:8358   */\n      tag_192\n        /* \"#utility.yul\":8356:8357   */\n      dup3\n        /* \"#utility.yul\":8338:8358   */\n      tag_162\n      jump\t// in\n    tag_192:\n        /* \"#utility.yul\":8333:8358   */\n      swap2\n      pop\n        /* \"#utility.yul\":8372:8392   */\n      tag_193\n        /* \"#utility.yul\":8390:8391   */\n      dup4\n        /* \"#utility.yul\":8372:8392   */\n      tag_162\n      jump\t// in\n    tag_193:\n        /* \"#utility.yul\":8367:8392   */\n      swap3\n      pop\n        /* \"#utility.yul\":8526:8527   */\n      dup3\n        /* \"#utility.yul\":8458:8524   */\n      0xffffffffffffffffffffffffffffffffffffffffffffffffffffffffffffffff\n        /* \"#utility.yul\":8454:8528   */\n      sub\n        /* \"#utility.yul\":8451:8452   */\n      dup3\n        /* \"#utility.yul\":8448:8529   */\n      gt\n        /* \"#utility.yul\":8445:8447   */\n      iszero\n      tag_194\n      jumpi\n        /* \"#utility.yul\":8532:8550   */\n      tag_195\n      tag_196\n      jump\t// in\n    tag_195:\n        /* \"#utility.yul\":8445:8447   */\n    tag_194:\n        /* \"#utility.yul\":8576:8577   */\n      dup3\n        /* \"#utility.yul\":8573:8574   */\n      dup3\n        /* \"#utility.yul\":8569:8578   */\n      add\n        /* \"#utility.yul\":8562:8578   */\n      swap1\n      pop\n        /* \"#utility.yul\":8323:8584   */\n      swap3\n      swap2\n      pop\n      pop\n      jump\t// out\n        /* \"#utility.yul\":8590:8938   */\n    tag_48:\n      0x00\n        /* \"#utility.yul\":8653:8673   */\n      tag_198\n        /* \"#utility.yul\":8671:8672   */\n      dup3\n        /* \"#utility.yul\":8653:8673   */\n      tag_162\n      jump\t// in\n    tag_198:\n        /* \"#utility.yul\":8648:8673   */\n      swap2\n      pop\n        /* \"#utility.yul\":8687:8707   */\n      tag_199\n        /* \"#utility.yul\":8705:8706   */\n      dup4\n        /* \"#utility.yul\":8687:8707   */\n      tag_162\n      jump\t// in\n    tag_199:\n        /* \"#utility.yul\":8682:8707   */\n      swap3\n      pop\n        /* \"#utility.yul\":8875:8876   */\n      dup2\n        /* \"#utility.yul\":8807:8873   */\n      0xffffffffffffffffffffffffffffffffffffffffffffffffffffffffffffffff\n        /* \"#utility.yul\":8803:8877   */\n      div\n        /* \"#utility.yul\":8800:8801   */\n      dup4\n        /* \"#utility.yul\":8797:8878   */\n      gt\n        /* \"#utility.yul\":8792:8793   */\n      dup3\n        /* \"#utility.yul\":8785:8794   */\n      iszero\n        /* \"#utility.yul\":8778:8795   */\n      iszero\n        /* \"#utility.yul\":8774:8879   */\n      and\n        /* \"#utility.yul\":8771:8773   */\n      iszero\n      tag_200\n      jumpi\n        /* \"#utility.yul\":8882:8900   */\n      tag_201\n      tag_196\n      jump\t// in\n    tag_201:\n        /* \"#utility.yul\":8771:8773   */\n    tag_200:\n        /* \"#utility.yul\":8930:8931   */\n      dup3\n        /* \"#utility.yul\":8927:8928   */\n      dup3\n        /* \"#utility.yul\":8923:8932   */\n      mul\n        /* \"#utility.yul\":8912:8932   */\n      swap1\n      pop\n        /* \"#utility.yul\":8638:8938   */\n      swap3\n      swap2\n      pop\n      pop\n      jump\t// out\n        /* \"#utility.yul\":8944:9135   */\n    tag_46:\n      0x00\n        /* \"#utility.yul\":9004:9024   */\n      tag_203\n        /* \"#utility.yul\":9022:9023   */\n      dup3\n        /* \"#utility.yul\":9004:9024   */\n      tag_162\n      jump\t// in\n    tag_203:\n        /* \"#utility.yul\":8999:9024   */\n      swap2\n      pop\n        /* \"#utility.yul\":9038:9058   */\n      tag_204\n        /* \"#utility.yul\":9056:9057   */\n      dup4\n        /* \"#utility.yul\":9038:9058   */\n      tag_162\n      jump\t// in\n    tag_204:\n        /* \"#utility.yul\":9033:9058   */\n      swap3\n      pop\n        /* \"#utility.yul\":9077:9078   */\n      dup3\n        /* \"#utility.yul\":9074:9075   */\n      dup3\n        /* \"#utility.yul\":9071:9079   */\n      lt\n        /* \"#utility.yul\":9068:9070   */\n      iszero\n      tag_205\n      jumpi\n        /* \"#utility.yul\":9082:9100   */\n      tag_206\n      tag_196\n      jump\t// in\n    tag_206:\n        /* \"#utility.yul\":9068:9070   */\n    tag_205:\n        /* \"#utility.yul\":9127:9128   */\n      dup3\n        /* \"#utility.yul\":9124:9125   */\n      dup3\n        /* \"#utility.yul\":9120:9129   */\n      sub\n        /* \"#utility.yul\":9112:9129   */\n      swap1\n      pop\n        /* \"#utility.yul\":8989:9135   */\n      swap3\n      swap2\n      pop\n      pop\n      jump\t// out\n        /* \"#utility.yul\":9141:9237   */\n    tag_126:\n      0x00\n        /* \"#utility.yul\":9207:9231   */\n      tag_208\n        /* \"#utility.yul\":9225:9230   */\n      dup3\n        /* \"#utility.yul\":9207:9231   */\n      tag_209\n      jump\t// in\n    tag_208:\n        /* \"#utility.yul\":9196:9231   */\n      swap1\n      pop\n        /* \"#utility.yul\":9186:9237   */\n      swap2\n      swap1\n      pop\n      jump\t// out\n        /* \"#utility.yul\":9243:9347   */\n    tag_122:\n      0x00\n        /* \"#utility.yul\":9317:9341   */\n      tag_211\n        /* \"#utility.yul\":9335:9340   */\n      dup3\n        /* \"#utility.yul\":9317:9341   */\n      tag_209\n      jump\t// in\n    tag_211:\n        /* \"#utility.yul\":9306:9341   */\n      swap1\n      pop\n        /* \"#utility.yul\":9296:9347   */\n      swap2\n      swap1\n      pop\n      jump\t// out\n        /* \"#utility.yul\":9353:9443   */\n    tag_130:\n      0x00\n        /* \"#utility.yul\":9430:9435   */\n      dup2\n        /* \"#utility.yul\":9423:9436   */\n      iszero\n        /* \"#utility.yul\":9416:9437   */\n      iszero\n        /* \"#utility.yul\":9405:9437   */\n      swap1\n      pop\n        /* \"#utility.yul\":9395:9443   */\n      swap2\n      swap1\n      pop\n      jump\t// out\n        /* \"#utility.yul\":9449:9575   */\n    tag_209:\n      0x00\n        /* \"#utility.yul\":9526:9568   */\n      0xffffffffffffffffffffffffffffffffffffffff\n        /* \"#utility.yul\":9519:9524   */\n      dup3\n        /* \"#utility.yul\":9515:9569   */\n      and\n        /* \"#utility.yul\":9504:9569   */\n      swap1\n      pop\n        /* \"#utility.yul\":9494:9575   */\n      swap2\n      swap1\n      pop\n      jump\t// out\n        /* \"#utility.yul\":9581:9658   */\n    tag_162:\n      0x00\n        /* \"#utility.yul\":9647:9652   */\n      dup2\n        /* \"#utility.yul\":9636:9652   */\n      swap1\n      pop\n        /* \"#utility.yul\":9626:9658   */\n      swap2\n      swap1\n      pop\n      jump\t// out\n        /* \"#utility.yul\":9664:9818   */\n    tag_136:\n        /* \"#utility.yul\":9748:9754   */\n      dup3\n        /* \"#utility.yul\":9743:9746   */\n      dup2\n        /* \"#utility.yul\":9738:9741   */\n      dup4\n        /* \"#utility.yul\":9725:9755   */\n      calldatacopy\n        /* \"#utility.yul\":9810:9811   */\n      0x00\n        /* \"#utility.yul\":9801:9807   */\n      dup4\n        /* \"#utility.yul\":9796:9799   */\n      dup4\n        /* \"#utility.yul\":9792:9808   */\n      add\n        /* \"#utility.yul\":9785:9812   */\n      mstore\n        /* \"#utility.yul\":9715:9818   */\n      pop\n      pop\n      pop\n      jump\t// out\n        /* \"#utility.yul\":9824:10131   */\n    tag_145:\n        /* \"#utility.yul\":9892:9893   */\n      0x00\n        /* \"#utility.yul\":9902:10015   */\n    tag_217:\n        /* \"#utility.yul\":9916:9922   */\n      dup4\n        /* \"#utility.yul\":9913:9914   */\n      dup2\n        /* \"#utility.yul\":9910:9923   */\n      lt\n        /* \"#utility.yul\":9902:10015   */\n      iszero\n      tag_219\n      jumpi\n        /* \"#utility.yul\":10001:10002   */\n      dup1\n        /* \"#utility.yul\":9996:9999   */\n      dup3\n        /* \"#utility.yul\":9992:10003   */\n      add\n        /* \"#utility.yul\":9986:10004   */\n      mload\n        /* \"#utility.yul\":9982:9983   */\n      dup2\n        /* \"#utility.yul\":9977:9980   */\n      dup5\n        /* \"#utility.yul\":9973:9984   */\n      add\n        /* \"#utility.yul\":9966:10005   */\n      mstore\n        /* \"#utility.yul\":9938:9940   */\n      0x20\n        /* \"#utility.yul\":9935:9936   */\n      dup2\n        /* \"#utility.yul\":9931:9941   */\n      add\n        /* \"#utility.yul\":9926:9941   */\n      swap1\n      pop\n        /* \"#utility.yul\":9902:10015   */\n      jump(tag_217)\n    tag_219:\n        /* \"#utility.yul\":10033:10039   */\n      dup4\n        /* \"#utility.yul\":10030:10031   */\n      dup2\n        /* \"#utility.yul\":10027:10040   */\n      gt\n        /* \"#utility.yul\":10024:10026   */\n      iszero\n      tag_220\n      jumpi\n        /* \"#utility.yul\":10113:10114   */\n      0x00\n        /* \"#utility.yul\":10104:10110   */\n      dup5\n        /* \"#utility.yul\":10099:10102   */\n      dup5\n        /* \"#utility.yul\":10095:10111   */\n      add\n        /* \"#utility.yul\":10088:10115   */\n      mstore\n        /* \"#utility.yul\":10024:10026   */\n    tag_220:\n        /* \"#utility.yul\":9873:10131   */\n      pop\n      pop\n      pop\n      pop\n      jump\t// out\n        /* \"#utility.yul\":10137:10457   */\n    tag_37:\n      0x00\n        /* \"#utility.yul\":10218:10219   */\n      0x02\n        /* \"#utility.yul\":10212:10216   */\n      dup3\n        /* \"#utility.yul\":10208:10220   */\n      div\n        /* \"#utility.yul\":10198:10220   */\n      swap1\n      pop\n        /* \"#utility.yul\":10265:10266   */\n      0x01\n        /* \"#utility.yul\":10259:10263   */\n      dup3\n        /* \"#utility.yul\":10255:10267   */\n      and\n        /* \"#utility.yul\":10286:10304   */\n      dup1\n        /* \"#utility.yul\":10276:10278   */\n      tag_222\n      jumpi\n        /* \"#utility.yul\":10342:10346   */\n      0x7f\n        /* \"#utility.yul\":10334:10340   */\n      dup3\n        /* \"#utility.yul\":10330:10347   */\n      and\n        /* \"#utility.yul\":10320:10347   */\n      swap2\n      pop\n        /* \"#utility.yul\":10276:10278   */\n    tag_222:\n        /* \"#utility.yul\":10404:10406   */\n      0x20\n        /* \"#utility.yul\":10396:10402   */\n      dup3\n        /* \"#utility.yul\":10393:10407   */\n      lt\n        /* \"#utility.yul\":10373:10391   */\n      dup2\n        /* \"#utility.yul\":10370:10408   */\n      eq\n        /* \"#utility.yul\":10367:10369   */\n      iszero\n      tag_223\n      jumpi\n        /* \"#utility.yul\":10423:10441   */\n      tag_224\n      tag_225\n      jump\t// in\n    tag_224:\n        /* \"#utility.yul\":10367:10369   */\n    tag_223:\n        /* \"#utility.yul\":10188:10457   */\n      pop\n      swap2\n      swap1\n      pop\n      jump\t// out\n        /* \"#utility.yul\":10463:10643   */\n    tag_196:\n        /* \"#utility.yul\":10511:10588   */\n      0x4e487b7100000000000000000000000000000000000000000000000000000000\n        /* \"#utility.yul\":10508:10509   */\n      0x00\n        /* \"#utility.yul\":10501:10589   */\n      mstore\n        /* \"#utility.yul\":10608:10612   */\n      0x11\n        /* \"#utility.yul\":10605:10606   */\n      0x04\n        /* \"#utility.yul\":10598:10613   */\n      mstore\n        /* \"#utility.yul\":10632:10636   */\n      0x24\n        /* \"#utility.yul\":10629:10630   */\n      0x00\n        /* \"#utility.yul\":10622:10637   */\n      revert\n        /* \"#utility.yul\":10649:10829   */\n    tag_225:\n        /* \"#utility.yul\":10697:10774   */\n      0x4e487b7100000000000000000000000000000000000000000000000000000000\n        /* \"#utility.yul\":10694:10695   */\n      0x00\n        /* \"#utility.yul\":10687:10775   */\n      mstore\n        /* \"#utility.yul\":10794:10798   */\n      0x22\n        /* \"#utility.yul\":10791:10792   */\n      0x04\n        /* \"#utility.yul\":10784:10799   */\n      mstore\n        /* \"#utility.yul\":10818:10822   */\n      0x24\n        /* \"#utility.yul\":10815:10816   */\n      0x00\n        /* \"#utility.yul\":10808:10823   */\n      revert\n        /* \"#utility.yul\":10835:10937   */\n    tag_138:\n      0x00\n        /* \"#utility.yul\":10927:10929   */\n      0x1f\n        /* \"#utility.yul\":10923:10930   */\n      not\n        /* \"#utility.yul\":10918:10920   */\n      0x1f\n        /* \"#utility.yul\":10911:10916   */\n      dup4\n        /* \"#utility.yul\":10907:10921   */\n      add\n        /* \"#utility.yul\":10903:10931   */\n      and\n        /* \"#utility.yul\":10893:10931   */\n      swap1\n      pop\n        /* \"#utility.yul\":10883:10937   */\n      swap2\n      swap1\n      pop\n      jump\t// out\n        /* \"#utility.yul\":10943:11065   */\n    tag_108:\n        /* \"#utility.yul\":11016:11040   */\n      tag_230\n        /* \"#utility.yul\":11034:11039   */\n      dup2\n        /* \"#utility.yul\":11016:11040   */\n      tag_162\n      jump\t// in\n    tag_230:\n        /* \"#utility.yul\":11009:11014   */\n      dup2\n        /* \"#utility.yul\":11006:11041   */\n      eq\n        /* \"#utility.yul\":10996:10998   */\n      tag_231\n      jumpi\n        /* \"#utility.yul\":11055:11056   */\n      0x00\n        /* \"#utility.yul\":11052:11053   */\n      dup1\n        /* \"#utility.yul\":11045:11057   */\n      revert\n        /* \"#utility.yul\":10996:10998   */\n    tag_231:\n        /* \"#utility.yul\":10986:11065   */\n      pop\n      jump\t// out\n\n    auxdata: 0xa26469706673582212201890a993d9ea30f74e582362b273d2b93f7d9b816323b2507dde3025fdeff89364736f6c63430008000033\n}\n",
				"bytecode": {
					"linkReferences": {},
					"object": "608060405234801561001057600080fd5b50336000806101000a81548173ffffffffffffffffffffffffffffffffffffffff021916908373ffffffffffffffffffffffffffffffffffffffff160217905550611073806100606000396000f3fe60806040526004361061004a5760003560e01c80634534cd9c1461004f578063571a26a01461008c5780638da5cb5b146100d0578063d96a094a146100fb578063e9835d1514610117575b600080fd5b34801561005b57600080fd5b5061007660048036038101906100719190610a3b565b610140565b6040516100839190610d80565b60405180910390f35b34801561009857600080fd5b506100b360048036038101906100ae9190610a3b565b610355565b6040516100c7989796959493929190610c7b565b60405180910390f35b3480156100dc57600080fd5b506100e5610462565b6040516100f29190610c60565b60405180910390f35b61011560048036038101906101109190610a3b565b610486565b005b34801561012357600080fd5b5061013e60048036038101906101399190610a64565b6106f3565b005b6000806001838154811061017d577f4e487b7100000000000000000000000000000000000000000000000000000000600052603260045260246000fd5b9060005260206000209060080201604051806101000160405290816000820160009054906101000a900473ffffffffffffffffffffffffffffffffffffffff1673ffffffffffffffffffffffffffffffffffffffff1673ffffffffffffffffffffffffffffffffffffffff168152602001600182015481526020016002820154815260200160038201548152602001600482015481526020016005820154815260200160068201805461022f90610f85565b80601f016020809104026020016040519081016040528092919081815260200182805461025b90610f85565b80156102a85780601f1061027d576101008083540402835291602001916102a8565b820191906000526020600020905b81548152906001019060200180831161028b57829003601f168201915b505050505081526020016007820160009054906101000a900460ff16151515158152505090508060e0015115610313576040517f08c379a000000000000000000000000000000000000000000000000000000000815260040161030a90610d60565b60405180910390fd5b60008160600151426103259190610eb5565b90506000818360a001516103399190610e5b565b905080836020015161034b9190610eb5565b9350505050919050565b6001818154811061036557600080fd5b90600052602060002090600802016000915090508060000160009054906101000a900473ffffffffffffffffffffffffffffffffffffffff16908060010154908060020154908060030154908060040154908060050154908060060180546103cc90610f85565b80601f01602080910402602001604051908101604052809291908181526020018280546103f890610f85565b80156104455780601f1061041a57610100808354040283529160200191610445565b820191906000526020600020905b81548152906001019060200180831161042857829003601f168201915b5050505050908060070160009054906101000a900460ff16905088565b60008054906101000a900473ffffffffffffffffffffffffffffffffffffffff1681565b6000600182815481106104c2577f4e487b7100000000000000000000000000000000000000000000000000000000600052603260045260246000fd5b9060005260206000209060080201604051806101000160405290816000820160009054906101000a900473ffffffffffffffffffffffffffffffffffffffff1673ffffffffffffffffffffffffffffffffffffffff1673ffffffffffffffffffffffffffffffffffffffff168152602001600182015481526020016002820154815260200160038201548152602001600482015481526020016005820154815260200160068201805461057490610f85565b80601f01602080910402602001604051908101604052809291908181526020018280546105a090610f85565b80156105ed5780601f106105c2576101008083540402835291602001916105ed565b820191906000526020600020905b8154815290600101906020018083116105d057829003601f168201915b505050505081526020016007820160009054906101000a900460ff16151515158152505090508060e0015115610658576040517f08c379a000000000000000000000000000000000000000000000000000000000815260040161064f90610d60565b60405180910390fd5b8060800151421061069e576040517f08c379a000000000000000000000000000000000000000000000000000000000815260040161069590610d20565b60405180910390fd5b60006106a983610140565b9050803410156106ee576040517f08c379a00000000000000000000000000000000000000000000000000000000081526004016106e590610d40565b60405180910390fd5b505050565b60008082146107025781610707565b6202a3005b905080856107159190610e5b565b861015610757576040517f08c379a000000000000000000000000000000000000000000000000000000000815260040161074e90610d00565b60405180910390fd5b60006040518061010001604052803373ffffffffffffffffffffffffffffffffffffffff168152602001888152602001888152602001428152602001834261079f9190610e05565b815260200187815260200186868080601f016020809104026020016040519081016040528093929190818152602001838380828437600081840152601f19601f820116905080830192505050505050508152602001600015158152509050600181908060018154018082558091505060019003906000526020600020906008020160009091909190915060008201518160000160006101000a81548173ffffffffffffffffffffffffffffffffffffffff021916908373ffffffffffffffffffffffffffffffffffffffff1602179055506020820151816001015560408201518160020155606082015181600301556080820151816004015560a0820151816005015560c08201518160060190805190602001906108be929190610939565b5060e08201518160070160006101000a81548160ff02191690831515021790555050507f5bf34ed94988e5dcdc7d1faaa54eb1d3b55f45d5f11457e235afb21a8ebbe73c600180805490506109139190610eb5565b86868a86604051610928959493929190610d9b565b60405180910390a150505050505050565b82805461094590610f85565b90600052602060002090601f01602090048101928261096757600085556109ae565b82601f1061098057805160ff19168380011785556109ae565b828001600101855582156109ae579182015b828111156109ad578251825591602001919060010190610992565b5b5090506109bb91906109bf565b5090565b5b808211156109d85760008160009055506001016109c0565b5090565b60008083601f8401126109ee57600080fd5b8235905067ffffffffffffffff811115610a0757600080fd5b602083019150836001820283011115610a1f57600080fd5b9250929050565b600081359050610a3581611026565b92915050565b600060208284031215610a4d57600080fd5b6000610a5b84828501610a26565b91505092915050565b600080600080600060808688031215610a7c57600080fd5b6000610a8a88828901610a26565b9550506020610a9b88828901610a26565b945050604086013567ffffffffffffffff811115610ab857600080fd5b610ac4888289016109dc565b93509350506060610ad788828901610a26565b9150509295509295909350565b610aed81610efb565b82525050565b610afc81610ee9565b82525050565b610b0b81610f0d565b82525050565b6000610b1d8385610df4565b9350610b2a838584610f43565b610b3383611015565b840190509392505050565b6000610b4982610de9565b610b538185610df4565b9350610b63818560208601610f52565b610b6c81611015565b840191505092915050565b6000610b84601883610df4565b91507f696e636f7272656374207374617274696e6720707269636500000000000000006000830152602082019050919050565b6000610bc4600483610df4565b91507f656e6421000000000000000000000000000000000000000000000000000000006000830152602082019050919050565b6000610c04600083610df4565b9150600082019050919050565b6000610c1e600883610df4565b91507f73746f70706564210000000000000000000000000000000000000000000000006000830152602082019050919050565b610c5a81610f39565b82525050565b6000602082019050610c756000830184610af3565b92915050565b600061010082019050610c91600083018b610ae4565b610c9e602083018a610c51565b610cab6040830189610c51565b610cb86060830188610c51565b610cc56080830187610c51565b610cd260a0830186610c51565b81810360c0830152610ce48185610b3e565b9050610cf360e0830184610b02565b9998505050505050505050565b60006020820190508181036000830152610d1981610b77565b9050919050565b60006020820190508181036000830152610d3981610bb7565b9050919050565b60006020820190508181036000830152610d5981610bf7565b9050919050565b60006020820190508181036000830152610d7981610c11565b9050919050565b6000602082019050610d956000830184610c51565b92915050565b6000608082019050610db06000830188610c51565b8181036020830152610dc3818688610b11565b9050610dd26040830185610c51565b610ddf6060830184610c51565b9695505050505050565b600081519050919050565b600082825260208201905092915050565b6000610e1082610f39565b9150610e1b83610f39565b9250827fffffffffffffffffffffffffffffffffffffffffffffffffffffffffffffffff03821115610e5057610e4f610fb7565b5b828201905092915050565b6000610e6682610f39565b9150610e7183610f39565b9250817fffffffffffffffffffffffffffffffffffffffffffffffffffffffffffffffff0483118215151615610eaa57610ea9610fb7565b5b828202905092915050565b6000610ec082610f39565b9150610ecb83610f39565b925082821015610ede57610edd610fb7565b5b828203905092915050565b6000610ef482610f19565b9050919050565b6000610f0682610f19565b9050919050565b60008115159050919050565b600073ffffffffffffffffffffffffffffffffffffffff82169050919050565b6000819050919050565b82818337600083830152505050565b60005b83811015610f70578082015181840152602081019050610f55565b83811115610f7f576000848401525b50505050565b60006002820490506001821680610f9d57607f821691505b60208210811415610fb157610fb0610fe6565b5b50919050565b7f4e487b7100000000000000000000000000000000000000000000000000000000600052601160045260246000fd5b7f4e487b7100000000000000000000000000000000000000000000000000000000600052602260045260246000fd5b6000601f19601f8301169050919050565b61102f81610f39565b811461103a57600080fd5b5056fea26469706673582212201890a993d9ea30f74e582362b273d2b93f7d9b816323b2507dde3025fdeff89364736f6c63430008000033",
					"opcodes": "PUSH1 0x80 PUSH1 0x40 MSTORE CALLVALUE DUP1 ISZERO PUSH2 0x10 JUMPI PUSH1 0x0 DUP1 REVERT JUMPDEST POP CALLER PUSH1 0x0 DUP1 PUSH2 0x100 EXP DUP2 SLOAD DUP2 PUSH20 0xFFFFFFFFFFFFFFFFFFFFFFFFFFFFFFFFFFFFFFFF MUL NOT AND SWAP1 DUP4 PUSH20 0xFFFFFFFFFFFFFFFFFFFFFFFFFFFFFFFFFFFFFFFF AND MUL OR SWAP1 SSTORE POP PUSH2 0x1073 DUP1 PUSH2 0x60 PUSH1 0x0 CODECOPY PUSH1 0x0 RETURN INVALID PUSH1 0x80 PUSH1 0x40 MSTORE PUSH1 0x4 CALLDATASIZE LT PUSH2 0x4A JUMPI PUSH1 0x0 CALLDATALOAD PUSH1 0xE0 SHR DUP1 PUSH4 0x4534CD9C EQ PUSH2 0x4F JUMPI DUP1 PUSH4 0x571A26A0 EQ PUSH2 0x8C JUMPI DUP1 PUSH4 0x8DA5CB5B EQ PUSH2 0xD0 JUMPI DUP1 PUSH4 0xD96A094A EQ PUSH2 0xFB JUMPI DUP1 PUSH4 0xE9835D15 EQ PUSH2 0x117 JUMPI JUMPDEST PUSH1 0x0 DUP1 REVERT JUMPDEST CALLVALUE DUP1 ISZERO PUSH2 0x5B JUMPI PUSH1 0x0 DUP1 REVERT JUMPDEST POP PUSH2 0x76 PUSH1 0x4 DUP1 CALLDATASIZE SUB DUP2 ADD SWAP1 PUSH2 0x71 SWAP2 SWAP1 PUSH2 0xA3B JUMP JUMPDEST PUSH2 0x140 JUMP JUMPDEST PUSH1 0x40 MLOAD PUSH2 0x83 SWAP2 SWAP1 PUSH2 0xD80 JUMP JUMPDEST PUSH1 0x40 MLOAD DUP1 SWAP2 SUB SWAP1 RETURN JUMPDEST CALLVALUE DUP1 ISZERO PUSH2 0x98 JUMPI PUSH1 0x0 DUP1 REVERT JUMPDEST POP PUSH2 0xB3 PUSH1 0x4 DUP1 CALLDATASIZE SUB DUP2 ADD SWAP1 PUSH2 0xAE SWAP2 SWAP1 PUSH2 0xA3B JUMP JUMPDEST PUSH2 0x355 JUMP JUMPDEST PUSH1 0x40 MLOAD PUSH2 0xC7 SWAP9 SWAP8 SWAP7 SWAP6 SWAP5 SWAP4 SWAP3 SWAP2 SWAP1 PUSH2 0xC7B JUMP JUMPDEST PUSH1 0x40 MLOAD DUP1 SWAP2 SUB SWAP1 RETURN JUMPDEST CALLVALUE DUP1 ISZERO PUSH2 0xDC JUMPI PUSH1 0x0 DUP1 REVERT JUMPDEST POP PUSH2 0xE5 PUSH2 0x462 JUMP JUMPDEST PUSH1 0x40 MLOAD PUSH2 0xF2 SWAP2 SWAP1 PUSH2 0xC60 JUMP JUMPDEST PUSH1 0x40 MLOAD DUP1 SWAP2 SUB SWAP1 RETURN JUMPDEST PUSH2 0x115 PUSH1 0x4 DUP1 CALLDATASIZE SUB DUP2 ADD SWAP1 PUSH2 0x110 SWAP2 SWAP1 PUSH2 0xA3B JUMP JUMPDEST PUSH2 0x486 JUMP JUMPDEST STOP JUMPDEST CALLVALUE DUP1 ISZERO PUSH2 0x123 JUMPI PUSH1 0x0 DUP1 REVERT JUMPDEST POP PUSH2 0x13E PUSH1 0x4 DUP1 CALLDATASIZE SUB DUP2 ADD SWAP1 PUSH2 0x139 SWAP2 SWAP1 PUSH2 0xA64 JUMP JUMPDEST PUSH2 0x6F3 JUMP JUMPDEST STOP JUMPDEST PUSH1 0x0 DUP1 PUSH1 0x1 DUP4 DUP2 SLOAD DUP2 LT PUSH2 0x17D JUMPI PUSH32 0x4E487B7100000000000000000000000000000000000000000000000000000000 PUSH1 0x0 MSTORE PUSH1 0x32 PUSH1 0x4 MSTORE PUSH1 0x24 PUSH1 0x0 REVERT JUMPDEST SWAP1 PUSH1 0x0 MSTORE PUSH1 0x20 PUSH1 0x0 KECCAK256 SWAP1 PUSH1 0x8 MUL ADD PUSH1 0x40 MLOAD DUP1 PUSH2 0x100 ADD PUSH1 0x40 MSTORE SWAP1 DUP2 PUSH1 0x0 DUP3 ADD PUSH1 0x0 SWAP1 SLOAD SWAP1 PUSH2 0x100 EXP SWAP1 DIV PUSH20 0xFFFFFFFFFFFFFFFFFFFFFFFFFFFFFFFFFFFFFFFF AND PUSH20 0xFFFFFFFFFFFFFFFFFFFFFFFFFFFFFFFFFFFFFFFF AND PUSH20 0xFFFFFFFFFFFFFFFFFFFFFFFFFFFFFFFFFFFFFFFF AND DUP2 MSTORE PUSH1 0x20 ADD PUSH1 0x1 DUP3 ADD SLOAD DUP2 MSTORE PUSH1 0x20 ADD PUSH1 0x2 DUP3 ADD SLOAD DUP2 MSTORE PUSH1 0x20 ADD PUSH1 0x3 DUP3 ADD SLOAD DUP2 MSTORE PUSH1 0x20 ADD PUSH1 0x4 DUP3 ADD SLOAD DUP2 MSTORE PUSH1 0x20 ADD PUSH1 0x5 DUP3 ADD SLOAD DUP2 MSTORE PUSH1 0x20 ADD PUSH1 0x6 DUP3 ADD DUP1 SLOAD PUSH2 0x22F SWAP1 PUSH2 0xF85 JUMP JUMPDEST DUP1 PUSH1 0x1F ADD PUSH1 0x20 DUP1 SWAP2 DIV MUL PUSH1 0x20 ADD PUSH1 0x40 MLOAD SWAP1 DUP2 ADD PUSH1 0x40 MSTORE DUP1 SWAP3 SWAP2 SWAP1 DUP2 DUP2 MSTORE PUSH1 0x20 ADD DUP3 DUP1 SLOAD PUSH2 0x25B SWAP1 PUSH2 0xF85 JUMP JUMPDEST DUP1 ISZERO PUSH2 0x2A8 JUMPI DUP1 PUSH1 0x1F LT PUSH2 0x27D JUMPI PUSH2 0x100 DUP1 DUP4 SLOAD DIV MUL DUP4 MSTORE SWAP2 PUSH1 0x20 ADD SWAP2 PUSH2 0x2A8 JUMP JUMPDEST DUP3 ADD SWAP2 SWAP1 PUSH1 0x0 MSTORE PUSH1 0x20 PUSH1 0x0 KECCAK256 SWAP1 JUMPDEST DUP2 SLOAD DUP2 MSTORE SWAP1 PUSH1 0x1 ADD SWAP1 PUSH1 0x20 ADD DUP1 DUP4 GT PUSH2 0x28B JUMPI DUP3 SWAP1 SUB PUSH1 0x1F AND DUP3 ADD SWAP2 JUMPDEST POP POP POP POP POP DUP2 MSTORE PUSH1 0x20 ADD PUSH1 0x7 DUP3 ADD PUSH1 0x0 SWAP1 SLOAD SWAP1 PUSH2 0x100 EXP SWAP1 DIV PUSH1 0xFF AND ISZERO ISZERO ISZERO ISZERO DUP2 MSTORE POP POP SWAP1 POP DUP1 PUSH1 0xE0 ADD MLOAD ISZERO PUSH2 0x313 JUMPI PUSH1 0x40 MLOAD PUSH32 0x8C379A000000000000000000000000000000000000000000000000000000000 DUP2 MSTORE PUSH1 0x4 ADD PUSH2 0x30A SWAP1 PUSH2 0xD60 JUMP JUMPDEST PUSH1 0x40 MLOAD DUP1 SWAP2 SUB SWAP1 REVERT JUMPDEST PUSH1 0x0 DUP2 PUSH1 0x60 ADD MLOAD TIMESTAMP PUSH2 0x325 SWAP2 SWAP1 PUSH2 0xEB5 JUMP JUMPDEST SWAP1 POP PUSH1 0x0 DUP2 DUP4 PUSH1 0xA0 ADD MLOAD PUSH2 0x339 SWAP2 SWAP1 PUSH2 0xE5B JUMP JUMPDEST SWAP1 POP DUP1 DUP4 PUSH1 0x20 ADD MLOAD PUSH2 0x34B SWAP2 SWAP1 PUSH2 0xEB5 JUMP JUMPDEST SWAP4 POP POP POP POP SWAP2 SWAP1 POP JUMP JUMPDEST PUSH1 0x1 DUP2 DUP2 SLOAD DUP2 LT PUSH2 0x365 JUMPI PUSH1 0x0 DUP1 REVERT JUMPDEST SWAP1 PUSH1 0x0 MSTORE PUSH1 0x20 PUSH1 0x0 KECCAK256 SWAP1 PUSH1 0x8 MUL ADD PUSH1 0x0 SWAP2 POP SWAP1 POP DUP1 PUSH1 0x0 ADD PUSH1 0x0 SWAP1 SLOAD SWAP1 PUSH2 0x100 EXP SWAP1 DIV PUSH20 0xFFFFFFFFFFFFFFFFFFFFFFFFFFFFFFFFFFFFFFFF AND SWAP1 DUP1 PUSH1 0x1 ADD SLOAD SWAP1 DUP1 PUSH1 0x2 ADD SLOAD SWAP1 DUP1 PUSH1 0x3 ADD SLOAD SWAP1 DUP1 PUSH1 0x4 ADD SLOAD SWAP1 DUP1 PUSH1 0x5 ADD SLOAD SWAP1 DUP1 PUSH1 0x6 ADD DUP1 SLOAD PUSH2 0x3CC SWAP1 PUSH2 0xF85 JUMP JUMPDEST DUP1 PUSH1 0x1F ADD PUSH1 0x20 DUP1 SWAP2 DIV MUL PUSH1 0x20 ADD PUSH1 0x40 MLOAD SWAP1 DUP2 ADD PUSH1 0x40 MSTORE DUP1 SWAP3 SWAP2 SWAP1 DUP2 DUP2 MSTORE PUSH1 0x20 ADD DUP3 DUP1 SLOAD PUSH2 0x3F8 SWAP1 PUSH2 0xF85 JUMP JUMPDEST DUP1 ISZERO PUSH2 0x445 JUMPI DUP1 PUSH1 0x1F LT PUSH2 0x41A JUMPI PUSH2 0x100 DUP1 DUP4 SLOAD DIV MUL DUP4 MSTORE SWAP2 PUSH1 0x20 ADD SWAP2 PUSH2 0x445 JUMP JUMPDEST DUP3 ADD SWAP2 SWAP1 PUSH1 0x0 MSTORE PUSH1 0x20 PUSH1 0x0 KECCAK256 SWAP1 JUMPDEST DUP2 SLOAD DUP2 MSTORE SWAP1 PUSH1 0x1 ADD SWAP1 PUSH1 0x20 ADD DUP1 DUP4 GT PUSH2 0x428 JUMPI DUP3 SWAP1 SUB PUSH1 0x1F AND DUP3 ADD SWAP2 JUMPDEST POP POP POP POP POP SWAP1 DUP1 PUSH1 0x7 ADD PUSH1 0x0 SWAP1 SLOAD SWAP1 PUSH2 0x100 EXP SWAP1 DIV PUSH1 0xFF AND SWAP1 POP DUP9 JUMP JUMPDEST PUSH1 0x0 DUP1 SLOAD SWAP1 PUSH2 0x100 EXP SWAP1 DIV PUSH20 0xFFFFFFFFFFFFFFFFFFFFFFFFFFFFFFFFFFFFFFFF AND DUP2 JUMP JUMPDEST PUSH1 0x0 PUSH1 0x1 DUP3 DUP2 SLOAD DUP2 LT PUSH2 0x4C2 JUMPI PUSH32 0x4E487B7100000000000000000000000000000000000000000000000000000000 PUSH1 0x0 MSTORE PUSH1 0x32 PUSH1 0x4 MSTORE PUSH1 0x24 PUSH1 0x0 REVERT JUMPDEST SWAP1 PUSH1 0x0 MSTORE PUSH1 0x20 PUSH1 0x0 KECCAK256 SWAP1 PUSH1 0x8 MUL ADD PUSH1 0x40 MLOAD DUP1 PUSH2 0x100 ADD PUSH1 0x40 MSTORE SWAP1 DUP2 PUSH1 0x0 DUP3 ADD PUSH1 0x0 SWAP1 SLOAD SWAP1 PUSH2 0x100 EXP SWAP1 DIV PUSH20 0xFFFFFFFFFFFFFFFFFFFFFFFFFFFFFFFFFFFFFFFF AND PUSH20 0xFFFFFFFFFFFFFFFFFFFFFFFFFFFFFFFFFFFFFFFF AND PUSH20 0xFFFFFFFFFFFFFFFFFFFFFFFFFFFFFFFFFFFFFFFF AND DUP2 MSTORE PUSH1 0x20 ADD PUSH1 0x1 DUP3 ADD SLOAD DUP2 MSTORE PUSH1 0x20 ADD PUSH1 0x2 DUP3 ADD SLOAD DUP2 MSTORE PUSH1 0x20 ADD PUSH1 0x3 DUP3 ADD SLOAD DUP2 MSTORE PUSH1 0x20 ADD PUSH1 0x4 DUP3 ADD SLOAD DUP2 MSTORE PUSH1 0x20 ADD PUSH1 0x5 DUP3 ADD SLOAD DUP2 MSTORE PUSH1 0x20 ADD PUSH1 0x6 DUP3 ADD DUP1 SLOAD PUSH2 0x574 SWAP1 PUSH2 0xF85 JUMP JUMPDEST DUP1 PUSH1 0x1F ADD PUSH1 0x20 DUP1 SWAP2 DIV MUL PUSH1 0x20 ADD PUSH1 0x40 MLOAD SWAP1 DUP2 ADD PUSH1 0x40 MSTORE DUP1 SWAP3 SWAP2 SWAP1 DUP2 DUP2 MSTORE PUSH1 0x20 ADD DUP3 DUP1 SLOAD PUSH2 0x5A0 SWAP1 PUSH2 0xF85 JUMP JUMPDEST DUP1 ISZERO PUSH2 0x5ED JUMPI DUP1 PUSH1 0x1F LT PUSH2 0x5C2 JUMPI PUSH2 0x100 DUP1 DUP4 SLOAD DIV MUL DUP4 MSTORE SWAP2 PUSH1 0x20 ADD SWAP2 PUSH2 0x5ED JUMP JUMPDEST DUP3 ADD SWAP2 SWAP1 PUSH1 0x0 MSTORE PUSH1 0x20 PUSH1 0x0 KECCAK256 SWAP1 JUMPDEST DUP2 SLOAD DUP2 MSTORE SWAP1 PUSH1 0x1 ADD SWAP1 PUSH1 0x20 ADD DUP1 DUP4 GT PUSH2 0x5D0 JUMPI DUP3 SWAP1 SUB PUSH1 0x1F AND DUP3 ADD SWAP2 JUMPDEST POP POP POP POP POP DUP2 MSTORE PUSH1 0x20 ADD PUSH1 0x7 DUP3 ADD PUSH1 0x0 SWAP1 SLOAD SWAP1 PUSH2 0x100 EXP SWAP1 DIV PUSH1 0xFF AND ISZERO ISZERO ISZERO ISZERO DUP2 MSTORE POP POP SWAP1 POP DUP1 PUSH1 0xE0 ADD MLOAD ISZERO PUSH2 0x658 JUMPI PUSH1 0x40 MLOAD PUSH32 0x8C379A000000000000000000000000000000000000000000000000000000000 DUP2 MSTORE PUSH1 0x4 ADD PUSH2 0x64F SWAP1 PUSH2 0xD60 JUMP JUMPDEST PUSH1 0x40 MLOAD DUP1 SWAP2 SUB SWAP1 REVERT JUMPDEST DUP1 PUSH1 0x80 ADD MLOAD TIMESTAMP LT PUSH2 0x69E JUMPI PUSH1 0x40 MLOAD PUSH32 0x8C379A000000000000000000000000000000000000000000000000000000000 DUP2 MSTORE PUSH1 0x4 ADD PUSH2 0x695 SWAP1 PUSH2 0xD20 JUMP JUMPDEST PUSH1 0x40 MLOAD DUP1 SWAP2 SUB SWAP1 REVERT JUMPDEST PUSH1 0x0 PUSH2 0x6A9 DUP4 PUSH2 0x140 JUMP JUMPDEST SWAP1 POP DUP1 CALLVALUE LT ISZERO PUSH2 0x6EE JUMPI PUSH1 0x40 MLOAD PUSH32 0x8C379A000000000000000000000000000000000000000000000000000000000 DUP2 MSTORE PUSH1 0x4 ADD PUSH2 0x6E5 SWAP1 PUSH2 0xD40 JUMP JUMPDEST PUSH1 0x40 MLOAD DUP1 SWAP2 SUB SWAP1 REVERT JUMPDEST POP POP POP JUMP JUMPDEST PUSH1 0x0 DUP1 DUP3 EQ PUSH2 0x702 JUMPI DUP2 PUSH2 0x707 JUMP JUMPDEST PUSH3 0x2A300 JUMPDEST SWAP1 POP DUP1 DUP6 PUSH2 0x715 SWAP2 SWAP1 PUSH2 0xE5B JUMP JUMPDEST DUP7 LT ISZERO PUSH2 0x757 JUMPI PUSH1 0x40 MLOAD PUSH32 0x8C379A000000000000000000000000000000000000000000000000000000000 DUP2 MSTORE PUSH1 0x4 ADD PUSH2 0x74E SWAP1 PUSH2 0xD00 JUMP JUMPDEST PUSH1 0x40 MLOAD DUP1 SWAP2 SUB SWAP1 REVERT JUMPDEST PUSH1 0x0 PUSH1 0x40 MLOAD DUP1 PUSH2 0x100 ADD PUSH1 0x40 MSTORE DUP1 CALLER PUSH20 0xFFFFFFFFFFFFFFFFFFFFFFFFFFFFFFFFFFFFFFFF AND DUP2 MSTORE PUSH1 0x20 ADD DUP9 DUP2 MSTORE PUSH1 0x20 ADD DUP9 DUP2 MSTORE PUSH1 0x20 ADD TIMESTAMP DUP2 MSTORE PUSH1 0x20 ADD DUP4 TIMESTAMP PUSH2 0x79F SWAP2 SWAP1 PUSH2 0xE05 JUMP JUMPDEST DUP2 MSTORE PUSH1 0x20 ADD DUP8 DUP2 MSTORE PUSH1 0x20 ADD DUP7 DUP7 DUP1 DUP1 PUSH1 0x1F ADD PUSH1 0x20 DUP1 SWAP2 DIV MUL PUSH1 0x20 ADD PUSH1 0x40 MLOAD SWAP1 DUP2 ADD PUSH1 0x40 MSTORE DUP1 SWAP4 SWAP3 SWAP2 SWAP1 DUP2 DUP2 MSTORE PUSH1 0x20 ADD DUP4 DUP4 DUP1 DUP3 DUP5 CALLDATACOPY PUSH1 0x0 DUP2 DUP5 ADD MSTORE PUSH1 0x1F NOT PUSH1 0x1F DUP3 ADD AND SWAP1 POP DUP1 DUP4 ADD SWAP3 POP POP POP POP POP POP POP DUP2 MSTORE PUSH1 0x20 ADD PUSH1 0x0 ISZERO ISZERO DUP2 MSTORE POP SWAP1 POP PUSH1 0x1 DUP2 SWAP1 DUP1 PUSH1 0x1 DUP2 SLOAD ADD DUP1 DUP3 SSTORE DUP1 SWAP2 POP POP PUSH1 0x1 SWAP1 SUB SWAP1 PUSH1 0x0 MSTORE PUSH1 0x20 PUSH1 0x0 KECCAK256 SWAP1 PUSH1 0x8 MUL ADD PUSH1 0x0 SWAP1 SWAP2 SWAP1 SWAP2 SWAP1 SWAP2 POP PUSH1 0x0 DUP3 ADD MLOAD DUP2 PUSH1 0x0 ADD PUSH1 0x0 PUSH2 0x100 EXP DUP2 SLOAD DUP2 PUSH20 0xFFFFFFFFFFFFFFFFFFFFFFFFFFFFFFFFFFFFFFFF MUL NOT AND SWAP1 DUP4 PUSH20 0xFFFFFFFFFFFFFFFFFFFFFFFFFFFFFFFFFFFFFFFF AND MUL OR SWAP1 SSTORE POP PUSH1 0x20 DUP3 ADD MLOAD DUP2 PUSH1 0x1 ADD SSTORE PUSH1 0x40 DUP3 ADD MLOAD DUP2 PUSH1 0x2 ADD SSTORE PUSH1 0x60 DUP3 ADD MLOAD DUP2 PUSH1 0x3 ADD SSTORE PUSH1 0x80 DUP3 ADD MLOAD DUP2 PUSH1 0x4 ADD SSTORE PUSH1 0xA0 DUP3 ADD MLOAD DUP2 PUSH1 0x5 ADD SSTORE PUSH1 0xC0 DUP3 ADD MLOAD DUP2 PUSH1 0x6 ADD SWAP1 DUP1 MLOAD SWAP1 PUSH1 0x20 ADD SWAP1 PUSH2 0x8BE SWAP3 SWAP2 SWAP1 PUSH2 0x939 JUMP JUMPDEST POP PUSH1 0xE0 DUP3 ADD MLOAD DUP2 PUSH1 0x7 ADD PUSH1 0x0 PUSH2 0x100 EXP DUP2 SLOAD DUP2 PUSH1 0xFF MUL NOT AND SWAP1 DUP4 ISZERO ISZERO MUL OR SWAP1 SSTORE POP POP POP PUSH32 0x5BF34ED94988E5DCDC7D1FAAA54EB1D3B55F45D5F11457E235AFB21A8EBBE73C PUSH1 0x1 DUP1 DUP1 SLOAD SWAP1 POP PUSH2 0x913 SWAP2 SWAP1 PUSH2 0xEB5 JUMP JUMPDEST DUP7 DUP7 DUP11 DUP7 PUSH1 0x40 MLOAD PUSH2 0x928 SWAP6 SWAP5 SWAP4 SWAP3 SWAP2 SWAP1 PUSH2 0xD9B JUMP JUMPDEST PUSH1 0x40 MLOAD DUP1 SWAP2 SUB SWAP1 LOG1 POP POP POP POP POP POP POP JUMP JUMPDEST DUP3 DUP1 SLOAD PUSH2 0x945 SWAP1 PUSH2 0xF85 JUMP JUMPDEST SWAP1 PUSH1 0x0 MSTORE PUSH1 0x20 PUSH1 0x0 KECCAK256 SWAP1 PUSH1 0x1F ADD PUSH1 0x20 SWAP1 DIV DUP2 ADD SWAP3 DUP3 PUSH2 0x967 JUMPI PUSH1 0x0 DUP6 SSTORE PUSH2 0x9AE JUMP JUMPDEST DUP3 PUSH1 0x1F LT PUSH2 0x980 JUMPI DUP1 MLOAD PUSH1 0xFF NOT AND DUP4 DUP1 ADD OR DUP6 SSTORE PUSH2 0x9AE JUMP JUMPDEST DUP3 DUP1 ADD PUSH1 0x1 ADD DUP6 SSTORE DUP3 ISZERO PUSH2 0x9AE JUMPI SWAP2 DUP3 ADD JUMPDEST DUP3 DUP2 GT ISZERO PUSH2 0x9AD JUMPI DUP3 MLOAD DUP3 SSTORE SWAP2 PUSH1 0x20 ADD SWAP2 SWAP1 PUSH1 0x1 ADD SWAP1 PUSH2 0x992 JUMP JUMPDEST JUMPDEST POP SWAP1 POP PUSH2 0x9BB SWAP2 SWAP1 PUSH2 0x9BF JUMP JUMPDEST POP SWAP1 JUMP JUMPDEST JUMPDEST DUP1 DUP3 GT ISZERO PUSH2 0x9D8 JUMPI PUSH1 0x0 DUP2 PUSH1 0x0 SWAP1 SSTORE POP PUSH1 0x1 ADD PUSH2 0x9C0 JUMP JUMPDEST POP SWAP1 JUMP JUMPDEST PUSH1 0x0 DUP1 DUP4 PUSH1 0x1F DUP5 ADD SLT PUSH2 0x9EE JUMPI PUSH1 0x0 DUP1 REVERT JUMPDEST DUP3 CALLDATALOAD SWAP1 POP PUSH8 0xFFFFFFFFFFFFFFFF DUP2 GT ISZERO PUSH2 0xA07 JUMPI PUSH1 0x0 DUP1 REVERT JUMPDEST PUSH1 0x20 DUP4 ADD SWAP2 POP DUP4 PUSH1 0x1 DUP3 MUL DUP4 ADD GT ISZERO PUSH2 0xA1F JUMPI PUSH1 0x0 DUP1 REVERT JUMPDEST SWAP3 POP SWAP3 SWAP1 POP JUMP JUMPDEST PUSH1 0x0 DUP2 CALLDATALOAD SWAP1 POP PUSH2 0xA35 DUP2 PUSH2 0x1026 JUMP JUMPDEST SWAP3 SWAP2 POP POP JUMP JUMPDEST PUSH1 0x0 PUSH1 0x20 DUP3 DUP5 SUB SLT ISZERO PUSH2 0xA4D JUMPI PUSH1 0x0 DUP1 REVERT JUMPDEST PUSH1 0x0 PUSH2 0xA5B DUP5 DUP3 DUP6 ADD PUSH2 0xA26 JUMP JUMPDEST SWAP2 POP POP SWAP3 SWAP2 POP POP JUMP JUMPDEST PUSH1 0x0 DUP1 PUSH1 0x0 DUP1 PUSH1 0x0 PUSH1 0x80 DUP7 DUP9 SUB SLT ISZERO PUSH2 0xA7C JUMPI PUSH1 0x0 DUP1 REVERT JUMPDEST PUSH1 0x0 PUSH2 0xA8A DUP9 DUP3 DUP10 ADD PUSH2 0xA26 JUMP JUMPDEST SWAP6 POP POP PUSH1 0x20 PUSH2 0xA9B DUP9 DUP3 DUP10 ADD PUSH2 0xA26 JUMP JUMPDEST SWAP5 POP POP PUSH1 0x40 DUP7 ADD CALLDATALOAD PUSH8 0xFFFFFFFFFFFFFFFF DUP2 GT ISZERO PUSH2 0xAB8 JUMPI PUSH1 0x0 DUP1 REVERT JUMPDEST PUSH2 0xAC4 DUP9 DUP3 DUP10 ADD PUSH2 0x9DC JUMP JUMPDEST SWAP4 POP SWAP4 POP POP PUSH1 0x60 PUSH2 0xAD7 DUP9 DUP3 DUP10 ADD PUSH2 0xA26 JUMP JUMPDEST SWAP2 POP POP SWAP3 SWAP6 POP SWAP3 SWAP6 SWAP1 SWAP4 POP JUMP JUMPDEST PUSH2 0xAED DUP2 PUSH2 0xEFB JUMP JUMPDEST DUP3 MSTORE POP POP JUMP JUMPDEST PUSH2 0xAFC DUP2 PUSH2 0xEE9 JUMP JUMPDEST DUP3 MSTORE POP POP JUMP JUMPDEST PUSH2 0xB0B DUP2 PUSH2 0xF0D JUMP JUMPDEST DUP3 MSTORE POP POP JUMP JUMPDEST PUSH1 0x0 PUSH2 0xB1D DUP4 DUP6 PUSH2 0xDF4 JUMP JUMPDEST SWAP4 POP PUSH2 0xB2A DUP4 DUP6 DUP5 PUSH2 0xF43 JUMP JUMPDEST PUSH2 0xB33 DUP4 PUSH2 0x1015 JUMP JUMPDEST DUP5 ADD SWAP1 POP SWAP4 SWAP3 POP POP POP JUMP JUMPDEST PUSH1 0x0 PUSH2 0xB49 DUP3 PUSH2 0xDE9 JUMP JUMPDEST PUSH2 0xB53 DUP2 DUP6 PUSH2 0xDF4 JUMP JUMPDEST SWAP4 POP PUSH2 0xB63 DUP2 DUP6 PUSH1 0x20 DUP7 ADD PUSH2 0xF52 JUMP JUMPDEST PUSH2 0xB6C DUP2 PUSH2 0x1015 JUMP JUMPDEST DUP5 ADD SWAP2 POP POP SWAP3 SWAP2 POP POP JUMP JUMPDEST PUSH1 0x0 PUSH2 0xB84 PUSH1 0x18 DUP4 PUSH2 0xDF4 JUMP JUMPDEST SWAP2 POP PUSH32 0x696E636F7272656374207374617274696E672070726963650000000000000000 PUSH1 0x0 DUP4 ADD MSTORE PUSH1 0x20 DUP3 ADD SWAP1 POP SWAP2 SWAP1 POP JUMP JUMPDEST PUSH1 0x0 PUSH2 0xBC4 PUSH1 0x4 DUP4 PUSH2 0xDF4 JUMP JUMPDEST SWAP2 POP PUSH32 0x656E642100000000000000000000000000000000000000000000000000000000 PUSH1 0x0 DUP4 ADD MSTORE PUSH1 0x20 DUP3 ADD SWAP1 POP SWAP2 SWAP1 POP JUMP JUMPDEST PUSH1 0x0 PUSH2 0xC04 PUSH1 0x0 DUP4 PUSH2 0xDF4 JUMP JUMPDEST SWAP2 POP PUSH1 0x0 DUP3 ADD SWAP1 POP SWAP2 SWAP1 POP JUMP JUMPDEST PUSH1 0x0 PUSH2 0xC1E PUSH1 0x8 DUP4 PUSH2 0xDF4 JUMP JUMPDEST SWAP2 POP PUSH32 0x73746F7070656421000000000000000000000000000000000000000000000000 PUSH1 0x0 DUP4 ADD MSTORE PUSH1 0x20 DUP3 ADD SWAP1 POP SWAP2 SWAP1 POP JUMP JUMPDEST PUSH2 0xC5A DUP2 PUSH2 0xF39 JUMP JUMPDEST DUP3 MSTORE POP POP JUMP JUMPDEST PUSH1 0x0 PUSH1 0x20 DUP3 ADD SWAP1 POP PUSH2 0xC75 PUSH1 0x0 DUP4 ADD DUP5 PUSH2 0xAF3 JUMP JUMPDEST SWAP3 SWAP2 POP POP JUMP JUMPDEST PUSH1 0x0 PUSH2 0x100 DUP3 ADD SWAP1 POP PUSH2 0xC91 PUSH1 0x0 DUP4 ADD DUP12 PUSH2 0xAE4 JUMP JUMPDEST PUSH2 0xC9E PUSH1 0x20 DUP4 ADD DUP11 PUSH2 0xC51 JUMP JUMPDEST PUSH2 0xCAB PUSH1 0x40 DUP4 ADD DUP10 PUSH2 0xC51 JUMP JUMPDEST PUSH2 0xCB8 PUSH1 0x60 DUP4 ADD DUP9 PUSH2 0xC51 JUMP JUMPDEST PUSH2 0xCC5 PUSH1 0x80 DUP4 ADD DUP8 PUSH2 0xC51 JUMP JUMPDEST PUSH2 0xCD2 PUSH1 0xA0 DUP4 ADD DUP7 PUSH2 0xC51 JUMP JUMPDEST DUP2 DUP2 SUB PUSH1 0xC0 DUP4 ADD MSTORE PUSH2 0xCE4 DUP2 DUP6 PUSH2 0xB3E JUMP JUMPDEST SWAP1 POP PUSH2 0xCF3 PUSH1 0xE0 DUP4 ADD DUP5 PUSH2 0xB02 JUMP JUMPDEST SWAP10 SWAP9 POP POP POP POP POP POP POP POP POP JUMP JUMPDEST PUSH1 0x0 PUSH1 0x20 DUP3 ADD SWAP1 POP DUP2 DUP2 SUB PUSH1 0x0 DUP4 ADD MSTORE PUSH2 0xD19 DUP2 PUSH2 0xB77 JUMP JUMPDEST SWAP1 POP SWAP2 SWAP1 POP JUMP JUMPDEST PUSH1 0x0 PUSH1 0x20 DUP3 ADD SWAP1 POP DUP2 DUP2 SUB PUSH1 0x0 DUP4 ADD MSTORE PUSH2 0xD39 DUP2 PUSH2 0xBB7 JUMP JUMPDEST SWAP1 POP SWAP2 SWAP1 POP JUMP JUMPDEST PUSH1 0x0 PUSH1 0x20 DUP3 ADD SWAP1 POP DUP2 DUP2 SUB PUSH1 0x0 DUP4 ADD MSTORE PUSH2 0xD59 DUP2 PUSH2 0xBF7 JUMP JUMPDEST SWAP1 POP SWAP2 SWAP1 POP JUMP JUMPDEST PUSH1 0x0 PUSH1 0x20 DUP3 ADD SWAP1 POP DUP2 DUP2 SUB PUSH1 0x0 DUP4 ADD MSTORE PUSH2 0xD79 DUP2 PUSH2 0xC11 JUMP JUMPDEST SWAP1 POP SWAP2 SWAP1 POP JUMP JUMPDEST PUSH1 0x0 PUSH1 0x20 DUP3 ADD SWAP1 POP PUSH2 0xD95 PUSH1 0x0 DUP4 ADD DUP5 PUSH2 0xC51 JUMP JUMPDEST SWAP3 SWAP2 POP POP JUMP JUMPDEST PUSH1 0x0 PUSH1 0x80 DUP3 ADD SWAP1 POP PUSH2 0xDB0 PUSH1 0x0 DUP4 ADD DUP9 PUSH2 0xC51 JUMP JUMPDEST DUP2 DUP2 SUB PUSH1 0x20 DUP4 ADD MSTORE PUSH2 0xDC3 DUP2 DUP7 DUP9 PUSH2 0xB11 JUMP JUMPDEST SWAP1 POP PUSH2 0xDD2 PUSH1 0x40 DUP4 ADD DUP6 PUSH2 0xC51 JUMP JUMPDEST PUSH2 0xDDF PUSH1 0x60 DUP4 ADD DUP5 PUSH2 0xC51 JUMP JUMPDEST SWAP7 SWAP6 POP POP POP POP POP POP JUMP JUMPDEST PUSH1 0x0 DUP2 MLOAD SWAP1 POP SWAP2 SWAP1 POP JUMP JUMPDEST PUSH1 0x0 DUP3 DUP3 MSTORE PUSH1 0x20 DUP3 ADD SWAP1 POP SWAP3 SWAP2 POP POP JUMP JUMPDEST PUSH1 0x0 PUSH2 0xE10 DUP3 PUSH2 0xF39 JUMP JUMPDEST SWAP2 POP PUSH2 0xE1B DUP4 PUSH2 0xF39 JUMP JUMPDEST SWAP3 POP DUP3 PUSH32 0xFFFFFFFFFFFFFFFFFFFFFFFFFFFFFFFFFFFFFFFFFFFFFFFFFFFFFFFFFFFFFFFF SUB DUP3 GT ISZERO PUSH2 0xE50 JUMPI PUSH2 0xE4F PUSH2 0xFB7 JUMP JUMPDEST JUMPDEST DUP3 DUP3 ADD SWAP1 POP SWAP3 SWAP2 POP POP JUMP JUMPDEST PUSH1 0x0 PUSH2 0xE66 DUP3 PUSH2 0xF39 JUMP JUMPDEST SWAP2 POP PUSH2 0xE71 DUP4 PUSH2 0xF39 JUMP JUMPDEST SWAP3 POP DUP2 PUSH32 0xFFFFFFFFFFFFFFFFFFFFFFFFFFFFFFFFFFFFFFFFFFFFFFFFFFFFFFFFFFFFFFFF DIV DUP4 GT DUP3 ISZERO ISZERO AND ISZERO PUSH2 0xEAA JUMPI PUSH2 0xEA9 PUSH2 0xFB7 JUMP JUMPDEST JUMPDEST DUP3 DUP3 MUL SWAP1 POP SWAP3 SWAP2 POP POP JUMP JUMPDEST PUSH1 0x0 PUSH2 0xEC0 DUP3 PUSH2 0xF39 JUMP JUMPDEST SWAP2 POP PUSH2 0xECB DUP4 PUSH2 0xF39 JUMP JUMPDEST SWAP3 POP DUP3 DUP3 LT ISZERO PUSH2 0xEDE JUMPI PUSH2 0xEDD PUSH2 0xFB7 JUMP JUMPDEST JUMPDEST DUP3 DUP3 SUB SWAP1 POP SWAP3 SWAP2 POP POP JUMP JUMPDEST PUSH1 0x0 PUSH2 0xEF4 DUP3 PUSH2 0xF19 JUMP JUMPDEST SWAP1 POP SWAP2 SWAP1 POP JUMP JUMPDEST PUSH1 0x0 PUSH2 0xF06 DUP3 PUSH2 0xF19 JUMP JUMPDEST SWAP1 POP SWAP2 SWAP1 POP JUMP JUMPDEST PUSH1 0x0 DUP2 ISZERO ISZERO SWAP1 POP SWAP2 SWAP1 POP JUMP JUMPDEST PUSH1 0x0 PUSH20 0xFFFFFFFFFFFFFFFFFFFFFFFFFFFFFFFFFFFFFFFF DUP3 AND SWAP1 POP SWAP2 SWAP1 POP JUMP JUMPDEST PUSH1 0x0 DUP2 SWAP1 POP SWAP2 SWAP1 POP JUMP JUMPDEST DUP3 DUP2 DUP4 CALLDATACOPY PUSH1 0x0 DUP4 DUP4 ADD MSTORE POP POP POP JUMP JUMPDEST PUSH1 0x0 JUMPDEST DUP4 DUP2 LT ISZERO PUSH2 0xF70 JUMPI DUP1 DUP3 ADD MLOAD DUP2 DUP5 ADD MSTORE PUSH1 0x20 DUP2 ADD SWAP1 POP PUSH2 0xF55 JUMP JUMPDEST DUP4 DUP2 GT ISZERO PUSH2 0xF7F JUMPI PUSH1 0x0 DUP5 DUP5 ADD MSTORE JUMPDEST POP POP POP POP JUMP JUMPDEST PUSH1 0x0 PUSH1 0x2 DUP3 DIV SWAP1 POP PUSH1 0x1 DUP3 AND DUP1 PUSH2 0xF9D JUMPI PUSH1 0x7F DUP3 AND SWAP2 POP JUMPDEST PUSH1 0x20 DUP3 LT DUP2 EQ ISZERO PUSH2 0xFB1 JUMPI PUSH2 0xFB0 PUSH2 0xFE6 JUMP JUMPDEST JUMPDEST POP SWAP2 SWAP1 POP JUMP JUMPDEST PUSH32 0x4E487B7100000000000000000000000000000000000000000000000000000000 PUSH1 0x0 MSTORE PUSH1 0x11 PUSH1 0x4 MSTORE PUSH1 0x24 PUSH1 0x0 REVERT JUMPDEST PUSH32 0x4E487B7100000000000000000000000000000000000000000000000000000000 PUSH1 0x0 MSTORE PUSH1 0x22 PUSH1 0x4 MSTORE PUSH1 0x24 PUSH1 0x0 REVERT JUMPDEST PUSH1 0x0 PUSH1 0x1F NOT PUSH1 0x1F DUP4 ADD AND SWAP1 POP SWAP2 SWAP1 POP JUMP JUMPDEST PUSH2 0x102F DUP2 PUSH2 0xF39 JUMP JUMPDEST DUP2 EQ PUSH2 0x103A JUMPI PUSH1 0x0 DUP1 REVERT JUMPDEST POP JUMP INVALID LOG2 PUSH5 0x6970667358 0x22 SLT KECCAK256 XOR SWAP1 0xA9 SWAP4 0xD9 0xEA ADDRESS 0xF7 0x4E PC 0x23 PUSH3 0xB273D2 0xB9 EXTCODEHASH PUSH30 0x9B816323B2507DDE3025FDEFF89364736F6C634300080000330000000000 "
				},
				"gasEstimates": {
					"creation": {
						"codeDepositCost": "842200",
						"executionCost": "21743",
						"totalCost": "863943"
					},
					"external": {
						"auctions(uint256)": "infinite",
						"buy(uint256)": "infinite",
						"createAuction(uint256,uint256,string,uint256)": "infinite",
						"getPriceFor(uint256)": "infinite",
						"owner()": "1233"
					}
				},
				"methodIdentifiers": {
					"auctions(uint256)": "571a26a0",
					"buy(uint256)": "d96a094a",
					"createAuction(uint256,uint256,string,uint256)": "e9835d15",
					"getPriceFor(uint256)": "4534cd9c",
					"owner()": "8da5cb5b"
				}
			},
			"storageLayout": {
				"storage": [
					{
						"astId": 3,
						"contract": "coin.sol:AucEngine",
						"label": "owner",
						"offset": 0,
						"slot": "0",
						"type": "t_address"
					},
					{
						"astId": 30,
						"contract": "coin.sol:AucEngine",
						"label": "auctions",
						"offset": 0,
						"slot": "1",
						"type": "t_array(t_struct(Auction)26_storage)dyn_storage"
					}
				],
				"types": {
					"t_address": {
						"encoding": "inplace",
						"label": "address",
						"numberOfBytes": "20"
					},
					"t_address_payable": {
						"encoding": "inplace",
						"label": "address payable",
						"numberOfBytes": "20"
					},
					"t_array(t_struct(Auction)26_storage)dyn_storage": {
						"base": "t_struct(Auction)26_storage",
						"encoding": "dynamic_array",
						"label": "struct AucEngine.Auction[]",
						"numberOfBytes": "32"
					},
					"t_bool": {
						"encoding": "inplace",
						"label": "bool",
						"numberOfBytes": "1"
					},
					"t_string_storage": {
						"encoding": "bytes",
						"label": "string",
						"numberOfBytes": "32"
					},
					"t_struct(Auction)26_storage": {
						"encoding": "inplace",
						"label": "struct AucEngine.Auction",
						"members": [
							{
								"astId": 11,
								"contract": "coin.sol:AucEngine",
								"label": "seller",
								"offset": 0,
								"slot": "0",
								"type": "t_address_payable"
							},
							{
								"astId": 13,
								"contract": "coin.sol:AucEngine",
								"label": "startingPrice",
								"offset": 0,
								"slot": "1",
								"type": "t_uint256"
							},
							{
								"astId": 15,
								"contract": "coin.sol:AucEngine",
								"label": "finalPrice",
								"offset": 0,
								"slot": "2",
								"type": "t_uint256"
							},
							{
								"astId": 17,
								"contract": "coin.sol:AucEngine",
								"label": "startAt",
								"offset": 0,
								"slot": "3",
								"type": "t_uint256"
							},
							{
								"astId": 19,
								"contract": "coin.sol:AucEngine",
								"label": "endsAt",
								"offset": 0,
								"slot": "4",
								"type": "t_uint256"
							},
							{
								"astId": 21,
								"contract": "coin.sol:AucEngine",
								"label": "discountRate",
								"offset": 0,
								"slot": "5",
								"type": "t_uint256"
							},
							{
								"astId": 23,
								"contract": "coin.sol:AucEngine",
								"label": "item",
								"offset": 0,
								"slot": "6",
								"type": "t_string_storage"
							},
							{
								"astId": 25,
								"contract": "coin.sol:AucEngine",
								"label": "stopped",
								"offset": 0,
								"slot": "7",
								"type": "t_bool"
							}
						],
						"numberOfBytes": "256"
					},
					"t_uint256": {
						"encoding": "inplace",
						"label": "uint256",
						"numberOfBytes": "32"
					}
				}
			},
			"userdoc": {
				"kind": "user",
				"methods": {},
				"version": 1
			}
		}
	}
}