{
	"coin.sol": {
		"AucEngine": {
			"abi": [
				{
					"inputs": [],
					"stateMutability": "nonpayable",
					"type": "constructor"
				},
				{
					"inputs": [
						{
							"internalType": "uint256",
							"name": "",
							"type": "uint256"
						}
					],
					"name": "auctions",
					"outputs": [
						{
							"internalType": "address payable",
							"name": "seller",
							"type": "address"
						},
						{
							"internalType": "uint256",
							"name": "startingPrice",
							"type": "uint256"
						},
						{
							"internalType": "uint256",
							"name": "finalPrice",
							"type": "uint256"
						},
						{
							"internalType": "uint256",
							"name": "startAt",
							"type": "uint256"
						},
						{
							"internalType": "uint256",
							"name": "endsAt",
							"type": "uint256"
						},
						{
							"internalType": "uint256",
							"name": "discountRate",
							"type": "uint256"
						},
						{
							"internalType": "string",
							"name": "item",
							"type": "string"
						},
						{
							"internalType": "bool",
							"name": "stopped",
							"type": "bool"
						}
					],
					"stateMutability": "view",
					"type": "function"
				},
				{
					"inputs": [],
					"name": "owner",
					"outputs": [
						{
							"internalType": "address",
							"name": "",
							"type": "address"
						}
					],
					"stateMutability": "view",
					"type": "function"
				}
			],
			"devdoc": {
				"kind": "dev",
				"methods": {},
				"version": 1
			},
			"evm": {
				"assembly": "    /* \"coin.sol\":68:513  contract AucEngine {\r... */\n  mstore(0x40, 0x80)\n    /* \"coin.sol\":469:502  constructor()  {\r... */\n  callvalue\n  dup1\n  iszero\n  tag_1\n  jumpi\n  0x00\n  dup1\n  revert\ntag_1:\n  pop\n    /* \"coin.sol\":68:513  contract AucEngine {\r... */\n  dataSize(sub_0)\n  dup1\n  dataOffset(sub_0)\n  0x00\n  codecopy\n  0x00\n  return\nstop\n\nsub_0: assembly {\n        /* \"coin.sol\":68:513  contract AucEngine {\r... */\n      mstore(0x40, 0x80)\n      callvalue\n      dup1\n      iszero\n      tag_1\n      jumpi\n      0x00\n      dup1\n      revert\n    tag_1:\n      pop\n      jumpi(tag_2, lt(calldatasize, 0x04))\n      shr(0xe0, calldataload(0x00))\n      dup1\n      0x571a26a0\n      eq\n      tag_3\n      jumpi\n      dup1\n      0x8da5cb5b\n      eq\n      tag_4\n      jumpi\n    tag_2:\n      0x00\n      dup1\n      revert\n        /* \"coin.sol\":433:458  Auction[] public auctions */\n    tag_3:\n      tag_5\n      0x04\n      dup1\n      calldatasize\n      sub\n      dup2\n      add\n      swap1\n      tag_6\n      swap2\n      swap1\n      tag_7\n      jump\t// in\n    tag_6:\n      tag_8\n      jump\t// in\n    tag_5:\n      mload(0x40)\n      tag_9\n      swap9\n      swap8\n      swap7\n      swap6\n      swap5\n      swap4\n      swap3\n      swap2\n      swap1\n      tag_10\n      jump\t// in\n    tag_9:\n      mload(0x40)\n      dup1\n      swap2\n      sub\n      swap1\n      return\n        /* \"coin.sol\":94:114  address public owner */\n    tag_4:\n      tag_11\n      tag_12\n      jump\t// in\n    tag_11:\n      mload(0x40)\n      tag_13\n      swap2\n      swap1\n      tag_14\n      jump\t// in\n    tag_13:\n      mload(0x40)\n      dup1\n      swap2\n      sub\n      swap1\n      return\n        /* \"coin.sol\":433:458  Auction[] public auctions */\n    tag_8:\n      0x01\n      dup2\n      dup2\n      sload\n      dup2\n      lt\n      tag_15\n      jumpi\n      0x00\n      dup1\n      revert\n    tag_15:\n      swap1\n      0x00\n      mstore\n      keccak256(0x00, 0x20)\n      swap1\n      0x08\n      mul\n      add\n      0x00\n      swap2\n      pop\n      swap1\n      pop\n      dup1\n      0x00\n      add\n      0x00\n      swap1\n      sload\n      swap1\n      0x0100\n      exp\n      swap1\n      div\n      0xffffffffffffffffffffffffffffffffffffffff\n      and\n      swap1\n      dup1\n      0x01\n      add\n      sload\n      swap1\n      dup1\n      0x02\n      add\n      sload\n      swap1\n      dup1\n      0x03\n      add\n      sload\n      swap1\n      dup1\n      0x04\n      add\n      sload\n      swap1\n      dup1\n      0x05\n      add\n      sload\n      swap1\n      dup1\n      0x06\n      add\n      dup1\n      sload\n      tag_17\n      swap1\n      tag_18\n      jump\t// in\n    tag_17:\n      dup1\n      0x1f\n      add\n      0x20\n      dup1\n      swap2\n      div\n      mul\n      0x20\n      add\n      mload(0x40)\n      swap1\n      dup2\n      add\n      0x40\n      mstore\n      dup1\n      swap3\n      swap2\n      swap1\n      dup2\n      dup2\n      mstore\n      0x20\n      add\n      dup3\n      dup1\n      sload\n      tag_19\n      swap1\n      tag_18\n      jump\t// in\n    tag_19:\n      dup1\n      iszero\n      tag_20\n      jumpi\n      dup1\n      0x1f\n      lt\n      tag_21\n      jumpi\n      0x0100\n      dup1\n      dup4\n      sload\n      div\n      mul\n      dup4\n      mstore\n      swap2\n      0x20\n      add\n      swap2\n      jump(tag_20)\n    tag_21:\n      dup3\n      add\n      swap2\n      swap1\n      0x00\n      mstore\n      keccak256(0x00, 0x20)\n      swap1\n    tag_22:\n      dup2\n      sload\n      dup2\n      mstore\n      swap1\n      0x01\n      add\n      swap1\n      0x20\n      add\n      dup1\n      dup4\n      gt\n      tag_22\n      jumpi\n      dup3\n      swap1\n      sub\n      0x1f\n      and\n      dup3\n      add\n      swap2\n    tag_20:\n      pop\n      pop\n      pop\n      pop\n      pop\n      swap1\n      dup1\n      0x07\n      add\n      0x00\n      swap1\n      sload\n      swap1\n      0x0100\n      exp\n      swap1\n      div\n      0xff\n      and\n      swap1\n      pop\n      dup9\n      jump\t// out\n        /* \"coin.sol\":94:114  address public owner */\n    tag_12:\n      0x00\n      dup1\n      sload\n      swap1\n      0x0100\n      exp\n      swap1\n      div\n      0xffffffffffffffffffffffffffffffffffffffff\n      and\n      dup2\n      jump\t// out\n        /* \"#utility.yul\":7:146   */\n    tag_24:\n      0x00\n        /* \"#utility.yul\":91:97   */\n      dup2\n        /* \"#utility.yul\":78:98   */\n      calldataload\n        /* \"#utility.yul\":69:98   */\n      swap1\n      pop\n        /* \"#utility.yul\":107:140   */\n      tag_26\n        /* \"#utility.yul\":134:139   */\n      dup2\n        /* \"#utility.yul\":107:140   */\n      tag_27\n      jump\t// in\n    tag_26:\n        /* \"#utility.yul\":59:146   */\n      swap3\n      swap2\n      pop\n      pop\n      jump\t// out\n        /* \"#utility.yul\":152:414   */\n    tag_7:\n      0x00\n        /* \"#utility.yul\":260:262   */\n      0x20\n        /* \"#utility.yul\":248:257   */\n      dup3\n        /* \"#utility.yul\":239:246   */\n      dup5\n        /* \"#utility.yul\":235:258   */\n      sub\n        /* \"#utility.yul\":231:263   */\n      slt\n        /* \"#utility.yul\":228:230   */\n      iszero\n      tag_29\n      jumpi\n        /* \"#utility.yul\":276:277   */\n      0x00\n        /* \"#utility.yul\":273:274   */\n      dup1\n        /* \"#utility.yul\":266:278   */\n      revert\n        /* \"#utility.yul\":228:230   */\n    tag_29:\n        /* \"#utility.yul\":319:320   */\n      0x00\n        /* \"#utility.yul\":344:397   */\n      tag_30\n        /* \"#utility.yul\":389:396   */\n      dup5\n        /* \"#utility.yul\":380:386   */\n      dup3\n        /* \"#utility.yul\":369:378   */\n      dup6\n        /* \"#utility.yul\":365:387   */\n      add\n        /* \"#utility.yul\":344:397   */\n      tag_24\n      jump\t// in\n    tag_30:\n        /* \"#utility.yul\":334:397   */\n      swap2\n      pop\n        /* \"#utility.yul\":290:407   */\n      pop\n        /* \"#utility.yul\":218:414   */\n      swap3\n      swap2\n      pop\n      pop\n      jump\t// out\n        /* \"#utility.yul\":420:562   */\n    tag_31:\n        /* \"#utility.yul\":523:555   */\n      tag_33\n        /* \"#utility.yul\":549:554   */\n      dup2\n        /* \"#utility.yul\":523:555   */\n      tag_34\n      jump\t// in\n    tag_33:\n        /* \"#utility.yul\":518:521   */\n      dup3\n        /* \"#utility.yul\":511:556   */\n      mstore\n        /* \"#utility.yul\":501:562   */\n      pop\n      pop\n      jump\t// out\n        /* \"#utility.yul\":568:686   */\n    tag_35:\n        /* \"#utility.yul\":655:679   */\n      tag_37\n        /* \"#utility.yul\":673:678   */\n      dup2\n        /* \"#utility.yul\":655:679   */\n      tag_38\n      jump\t// in\n    tag_37:\n        /* \"#utility.yul\":650:653   */\n      dup3\n        /* \"#utility.yul\":643:680   */\n      mstore\n        /* \"#utility.yul\":633:686   */\n      pop\n      pop\n      jump\t// out\n        /* \"#utility.yul\":692:801   */\n    tag_39:\n        /* \"#utility.yul\":773:794   */\n      tag_41\n        /* \"#utility.yul\":788:793   */\n      dup2\n        /* \"#utility.yul\":773:794   */\n      tag_42\n      jump\t// in\n    tag_41:\n        /* \"#utility.yul\":768:771   */\n      dup3\n        /* \"#utility.yul\":761:795   */\n      mstore\n        /* \"#utility.yul\":751:801   */\n      pop\n      pop\n      jump\t// out\n        /* \"#utility.yul\":807:1171   */\n    tag_43:\n      0x00\n        /* \"#utility.yul\":923:962   */\n      tag_45\n        /* \"#utility.yul\":956:961   */\n      dup3\n        /* \"#utility.yul\":923:962   */\n      tag_46\n      jump\t// in\n    tag_45:\n        /* \"#utility.yul\":978:1049   */\n      tag_47\n        /* \"#utility.yul\":1042:1048   */\n      dup2\n        /* \"#utility.yul\":1037:1040   */\n      dup6\n        /* \"#utility.yul\":978:1049   */\n      tag_48\n      jump\t// in\n    tag_47:\n        /* \"#utility.yul\":971:1049   */\n      swap4\n      pop\n        /* \"#utility.yul\":1058:1110   */\n      tag_49\n        /* \"#utility.yul\":1103:1109   */\n      dup2\n        /* \"#utility.yul\":1098:1101   */\n      dup6\n        /* \"#utility.yul\":1091:1095   */\n      0x20\n        /* \"#utility.yul\":1084:1089   */\n      dup7\n        /* \"#utility.yul\":1080:1096   */\n      add\n        /* \"#utility.yul\":1058:1110   */\n      tag_50\n      jump\t// in\n    tag_49:\n        /* \"#utility.yul\":1135:1164   */\n      tag_51\n        /* \"#utility.yul\":1157:1163   */\n      dup2\n        /* \"#utility.yul\":1135:1164   */\n      tag_52\n      jump\t// in\n    tag_51:\n        /* \"#utility.yul\":1130:1133   */\n      dup5\n        /* \"#utility.yul\":1126:1165   */\n      add\n        /* \"#utility.yul\":1119:1165   */\n      swap2\n      pop\n        /* \"#utility.yul\":899:1171   */\n      pop\n      swap3\n      swap2\n      pop\n      pop\n      jump\t// out\n        /* \"#utility.yul\":1177:1295   */\n    tag_53:\n        /* \"#utility.yul\":1264:1288   */\n      tag_55\n        /* \"#utility.yul\":1282:1287   */\n      dup2\n        /* \"#utility.yul\":1264:1288   */\n      tag_56\n      jump\t// in\n    tag_55:\n        /* \"#utility.yul\":1259:1262   */\n      dup3\n        /* \"#utility.yul\":1252:1289   */\n      mstore\n        /* \"#utility.yul\":1242:1295   */\n      pop\n      pop\n      jump\t// out\n        /* \"#utility.yul\":1301:1523   */\n    tag_14:\n      0x00\n        /* \"#utility.yul\":1432:1434   */\n      0x20\n        /* \"#utility.yul\":1421:1430   */\n      dup3\n        /* \"#utility.yul\":1417:1435   */\n      add\n        /* \"#utility.yul\":1409:1435   */\n      swap1\n      pop\n        /* \"#utility.yul\":1445:1516   */\n      tag_58\n        /* \"#utility.yul\":1513:1514   */\n      0x00\n        /* \"#utility.yul\":1502:1511   */\n      dup4\n        /* \"#utility.yul\":1498:1515   */\n      add\n        /* \"#utility.yul\":1489:1495   */\n      dup5\n        /* \"#utility.yul\":1445:1516   */\n      tag_35\n      jump\t// in\n    tag_58:\n        /* \"#utility.yul\":1399:1523   */\n      swap3\n      swap2\n      pop\n      pop\n      jump\t// out\n        /* \"#utility.yul\":1529:2637   */\n    tag_10:\n      0x00\n        /* \"#utility.yul\":1886:1889   */\n      0x0100\n        /* \"#utility.yul\":1875:1884   */\n      dup3\n        /* \"#utility.yul\":1871:1890   */\n      add\n        /* \"#utility.yul\":1863:1890   */\n      swap1\n      pop\n        /* \"#utility.yul\":1900:1987   */\n      tag_60\n        /* \"#utility.yul\":1984:1985   */\n      0x00\n        /* \"#utility.yul\":1973:1982   */\n      dup4\n        /* \"#utility.yul\":1969:1986   */\n      add\n        /* \"#utility.yul\":1960:1966   */\n      dup12\n        /* \"#utility.yul\":1900:1987   */\n      tag_31\n      jump\t// in\n    tag_60:\n        /* \"#utility.yul\":1997:2069   */\n      tag_61\n        /* \"#utility.yul\":2065:2067   */\n      0x20\n        /* \"#utility.yul\":2054:2063   */\n      dup4\n        /* \"#utility.yul\":2050:2068   */\n      add\n        /* \"#utility.yul\":2041:2047   */\n      dup11\n        /* \"#utility.yul\":1997:2069   */\n      tag_53\n      jump\t// in\n    tag_61:\n        /* \"#utility.yul\":2079:2151   */\n      tag_62\n        /* \"#utility.yul\":2147:2149   */\n      0x40\n        /* \"#utility.yul\":2136:2145   */\n      dup4\n        /* \"#utility.yul\":2132:2150   */\n      add\n        /* \"#utility.yul\":2123:2129   */\n      dup10\n        /* \"#utility.yul\":2079:2151   */\n      tag_53\n      jump\t// in\n    tag_62:\n        /* \"#utility.yul\":2161:2233   */\n      tag_63\n        /* \"#utility.yul\":2229:2231   */\n      0x60\n        /* \"#utility.yul\":2218:2227   */\n      dup4\n        /* \"#utility.yul\":2214:2232   */\n      add\n        /* \"#utility.yul\":2205:2211   */\n      dup9\n        /* \"#utility.yul\":2161:2233   */\n      tag_53\n      jump\t// in\n    tag_63:\n        /* \"#utility.yul\":2243:2316   */\n      tag_64\n        /* \"#utility.yul\":2311:2314   */\n      0x80\n        /* \"#utility.yul\":2300:2309   */\n      dup4\n        /* \"#utility.yul\":2296:2315   */\n      add\n        /* \"#utility.yul\":2287:2293   */\n      dup8\n        /* \"#utility.yul\":2243:2316   */\n      tag_53\n      jump\t// in\n    tag_64:\n        /* \"#utility.yul\":2326:2399   */\n      tag_65\n        /* \"#utility.yul\":2394:2397   */\n      0xa0\n        /* \"#utility.yul\":2383:2392   */\n      dup4\n        /* \"#utility.yul\":2379:2398   */\n      add\n        /* \"#utility.yul\":2370:2376   */\n      dup7\n        /* \"#utility.yul\":2326:2399   */\n      tag_53\n      jump\t// in\n    tag_65:\n        /* \"#utility.yul\":2447:2456   */\n      dup2\n        /* \"#utility.yul\":2441:2445   */\n      dup2\n        /* \"#utility.yul\":2437:2457   */\n      sub\n        /* \"#utility.yul\":2431:2434   */\n      0xc0\n        /* \"#utility.yul\":2420:2429   */\n      dup4\n        /* \"#utility.yul\":2416:2435   */\n      add\n        /* \"#utility.yul\":2409:2458   */\n      mstore\n        /* \"#utility.yul\":2475:2553   */\n      tag_66\n        /* \"#utility.yul\":2548:2552   */\n      dup2\n        /* \"#utility.yul\":2539:2545   */\n      dup6\n        /* \"#utility.yul\":2475:2553   */\n      tag_43\n      jump\t// in\n    tag_66:\n        /* \"#utility.yul\":2467:2553   */\n      swap1\n      pop\n        /* \"#utility.yul\":2563:2630   */\n      tag_67\n        /* \"#utility.yul\":2625:2628   */\n      0xe0\n        /* \"#utility.yul\":2614:2623   */\n      dup4\n        /* \"#utility.yul\":2610:2629   */\n      add\n        /* \"#utility.yul\":2601:2607   */\n      dup5\n        /* \"#utility.yul\":2563:2630   */\n      tag_39\n      jump\t// in\n    tag_67:\n        /* \"#utility.yul\":1853:2637   */\n      swap10\n      swap9\n      pop\n      pop\n      pop\n      pop\n      pop\n      pop\n      pop\n      pop\n      pop\n      jump\t// out\n        /* \"#utility.yul\":2643:2742   */\n    tag_46:\n      0x00\n        /* \"#utility.yul\":2729:2734   */\n      dup2\n        /* \"#utility.yul\":2723:2735   */\n      mload\n        /* \"#utility.yul\":2713:2735   */\n      swap1\n      pop\n        /* \"#utility.yul\":2702:2742   */\n      swap2\n      swap1\n      pop\n      jump\t// out\n        /* \"#utility.yul\":2748:2917   */\n    tag_48:\n      0x00\n        /* \"#utility.yul\":2866:2872   */\n      dup3\n        /* \"#utility.yul\":2861:2864   */\n      dup3\n        /* \"#utility.yul\":2854:2873   */\n      mstore\n        /* \"#utility.yul\":2906:2910   */\n      0x20\n        /* \"#utility.yul\":2901:2904   */\n      dup3\n        /* \"#utility.yul\":2897:2911   */\n      add\n        /* \"#utility.yul\":2882:2911   */\n      swap1\n      pop\n        /* \"#utility.yul\":2844:2917   */\n      swap3\n      swap2\n      pop\n      pop\n      jump\t// out\n        /* \"#utility.yul\":2923:3019   */\n    tag_38:\n      0x00\n        /* \"#utility.yul\":2989:3013   */\n      tag_71\n        /* \"#utility.yul\":3007:3012   */\n      dup3\n        /* \"#utility.yul\":2989:3013   */\n      tag_72\n      jump\t// in\n    tag_71:\n        /* \"#utility.yul\":2978:3013   */\n      swap1\n      pop\n        /* \"#utility.yul\":2968:3019   */\n      swap2\n      swap1\n      pop\n      jump\t// out\n        /* \"#utility.yul\":3025:3129   */\n    tag_34:\n      0x00\n        /* \"#utility.yul\":3099:3123   */\n      tag_74\n        /* \"#utility.yul\":3117:3122   */\n      dup3\n        /* \"#utility.yul\":3099:3123   */\n      tag_72\n      jump\t// in\n    tag_74:\n        /* \"#utility.yul\":3088:3123   */\n      swap1\n      pop\n        /* \"#utility.yul\":3078:3129   */\n      swap2\n      swap1\n      pop\n      jump\t// out\n        /* \"#utility.yul\":3135:3225   */\n    tag_42:\n      0x00\n        /* \"#utility.yul\":3212:3217   */\n      dup2\n        /* \"#utility.yul\":3205:3218   */\n      iszero\n        /* \"#utility.yul\":3198:3219   */\n      iszero\n        /* \"#utility.yul\":3187:3219   */\n      swap1\n      pop\n        /* \"#utility.yul\":3177:3225   */\n      swap2\n      swap1\n      pop\n      jump\t// out\n        /* \"#utility.yul\":3231:3357   */\n    tag_72:\n      0x00\n        /* \"#utility.yul\":3308:3350   */\n      0xffffffffffffffffffffffffffffffffffffffff\n        /* \"#utility.yul\":3301:3306   */\n      dup3\n        /* \"#utility.yul\":3297:3351   */\n      and\n        /* \"#utility.yul\":3286:3351   */\n      swap1\n      pop\n        /* \"#utility.yul\":3276:3357   */\n      swap2\n      swap1\n      pop\n      jump\t// out\n        /* \"#utility.yul\":3363:3440   */\n    tag_56:\n      0x00\n        /* \"#utility.yul\":3429:3434   */\n      dup2\n        /* \"#utility.yul\":3418:3434   */\n      swap1\n      pop\n        /* \"#utility.yul\":3408:3440   */\n      swap2\n      swap1\n      pop\n      jump\t// out\n        /* \"#utility.yul\":3446:3753   */\n    tag_50:\n        /* \"#utility.yul\":3514:3515   */\n      0x00\n        /* \"#utility.yul\":3524:3637   */\n    tag_79:\n        /* \"#utility.yul\":3538:3544   */\n      dup4\n        /* \"#utility.yul\":3535:3536   */\n      dup2\n        /* \"#utility.yul\":3532:3545   */\n      lt\n        /* \"#utility.yul\":3524:3637   */\n      iszero\n      tag_81\n      jumpi\n        /* \"#utility.yul\":3623:3624   */\n      dup1\n        /* \"#utility.yul\":3618:3621   */\n      dup3\n        /* \"#utility.yul\":3614:3625   */\n      add\n        /* \"#utility.yul\":3608:3626   */\n      mload\n        /* \"#utility.yul\":3604:3605   */\n      dup2\n        /* \"#utility.yul\":3599:3602   */\n      dup5\n        /* \"#utility.yul\":3595:3606   */\n      add\n        /* \"#utility.yul\":3588:3627   */\n      mstore\n        /* \"#utility.yul\":3560:3562   */\n      0x20\n        /* \"#utility.yul\":3557:3558   */\n      dup2\n        /* \"#utility.yul\":3553:3563   */\n      add\n        /* \"#utility.yul\":3548:3563   */\n      swap1\n      pop\n        /* \"#utility.yul\":3524:3637   */\n      jump(tag_79)\n    tag_81:\n        /* \"#utility.yul\":3655:3661   */\n      dup4\n        /* \"#utility.yul\":3652:3653   */\n      dup2\n        /* \"#utility.yul\":3649:3662   */\n      gt\n        /* \"#utility.yul\":3646:3648   */\n      iszero\n      tag_82\n      jumpi\n        /* \"#utility.yul\":3735:3736   */\n      0x00\n        /* \"#utility.yul\":3726:3732   */\n      dup5\n        /* \"#utility.yul\":3721:3724   */\n      dup5\n        /* \"#utility.yul\":3717:3733   */\n      add\n        /* \"#utility.yul\":3710:3737   */\n      mstore\n        /* \"#utility.yul\":3646:3648   */\n    tag_82:\n        /* \"#utility.yul\":3495:3753   */\n      pop\n      pop\n      pop\n      pop\n      jump\t// out\n        /* \"#utility.yul\":3759:4079   */\n    tag_18:\n      0x00\n        /* \"#utility.yul\":3840:3841   */\n      0x02\n        /* \"#utility.yul\":3834:3838   */\n      dup3\n        /* \"#utility.yul\":3830:3842   */\n      div\n        /* \"#utility.yul\":3820:3842   */\n      swap1\n      pop\n        /* \"#utility.yul\":3887:3888   */\n      0x01\n        /* \"#utility.yul\":3881:3885   */\n      dup3\n        /* \"#utility.yul\":3877:3889   */\n      and\n        /* \"#utility.yul\":3908:3926   */\n      dup1\n        /* \"#utility.yul\":3898:3900   */\n      tag_84\n      jumpi\n        /* \"#utility.yul\":3964:3968   */\n      0x7f\n        /* \"#utility.yul\":3956:3962   */\n      dup3\n        /* \"#utility.yul\":3952:3969   */\n      and\n        /* \"#utility.yul\":3942:3969   */\n      swap2\n      pop\n        /* \"#utility.yul\":3898:3900   */\n    tag_84:\n        /* \"#utility.yul\":4026:4028   */\n      0x20\n        /* \"#utility.yul\":4018:4024   */\n      dup3\n        /* \"#utility.yul\":4015:4029   */\n      lt\n        /* \"#utility.yul\":3995:4013   */\n      dup2\n        /* \"#utility.yul\":3992:4030   */\n      eq\n        /* \"#utility.yul\":3989:3991   */\n      iszero\n      tag_85\n      jumpi\n        /* \"#utility.yul\":4045:4063   */\n      tag_86\n      tag_87\n      jump\t// in\n    tag_86:\n        /* \"#utility.yul\":3989:3991   */\n    tag_85:\n        /* \"#utility.yul\":3810:4079   */\n      pop\n      swap2\n      swap1\n      pop\n      jump\t// out\n        /* \"#utility.yul\":4085:4265   */\n    tag_87:\n        /* \"#utility.yul\":4133:4210   */\n      0x4e487b7100000000000000000000000000000000000000000000000000000000\n        /* \"#utility.yul\":4130:4131   */\n      0x00\n        /* \"#utility.yul\":4123:4211   */\n      mstore\n        /* \"#utility.yul\":4230:4234   */\n      0x22\n        /* \"#utility.yul\":4227:4228   */\n      0x04\n        /* \"#utility.yul\":4220:4235   */\n      mstore\n        /* \"#utility.yul\":4254:4258   */\n      0x24\n        /* \"#utility.yul\":4251:4252   */\n      0x00\n        /* \"#utility.yul\":4244:4259   */\n      revert\n        /* \"#utility.yul\":4271:4373   */\n    tag_52:\n      0x00\n        /* \"#utility.yul\":4363:4365   */\n      0x1f\n        /* \"#utility.yul\":4359:4366   */\n      not\n        /* \"#utility.yul\":4354:4356   */\n      0x1f\n        /* \"#utility.yul\":4347:4352   */\n      dup4\n        /* \"#utility.yul\":4343:4357   */\n      add\n        /* \"#utility.yul\":4339:4367   */\n      and\n        /* \"#utility.yul\":4329:4367   */\n      swap1\n      pop\n        /* \"#utility.yul\":4319:4373   */\n      swap2\n      swap1\n      pop\n      jump\t// out\n        /* \"#utility.yul\":4379:4501   */\n    tag_27:\n        /* \"#utility.yul\":4452:4476   */\n      tag_91\n        /* \"#utility.yul\":4470:4475   */\n      dup2\n        /* \"#utility.yul\":4452:4476   */\n      tag_56\n      jump\t// in\n    tag_91:\n        /* \"#utility.yul\":4445:4450   */\n      dup2\n        /* \"#utility.yul\":4442:4477   */\n      eq\n        /* \"#utility.yul\":4432:4434   */\n      tag_92\n      jumpi\n        /* \"#utility.yul\":4491:4492   */\n      0x00\n        /* \"#utility.yul\":4488:4489   */\n      dup1\n        /* \"#utility.yul\":4481:4493   */\n      revert\n        /* \"#utility.yul\":4432:4434   */\n    tag_92:\n        /* \"#utility.yul\":4422:4501   */\n      pop\n      jump\t// out\n\n    auxdata: 0xa2646970667358221220240ed856caee00df3fdefffe0ce9c38b90eeed39def33cd7f141cede4f30b8f264736f6c63430008000033\n}\n",
				"bytecode": {
					"linkReferences": {},
					"object": "608060405234801561001057600080fd5b5061047c806100206000396000f3fe608060405234801561001057600080fd5b50600436106100365760003560e01c8063571a26a01461003b5780638da5cb5b14610072575b600080fd5b610055600480360381019061005091906101d6565b610090565b60405161006998979695949392919061028f565b60405180910390f35b61007a61019d565b6040516100879190610274565b60405180910390f35b600181815481106100a057600080fd5b90600052602060002090600802016000915090508060000160009054906101000a900473ffffffffffffffffffffffffffffffffffffffff1690806001015490806002015490806003015490806004015490806005015490806006018054610107906103bd565b80601f0160208091040260200160405190810160405280929190818152602001828054610133906103bd565b80156101805780601f1061015557610100808354040283529160200191610180565b820191906000526020600020905b81548152906001019060200180831161016357829003601f168201915b5050505050908060070160009054906101000a900460ff16905088565b60008054906101000a900473ffffffffffffffffffffffffffffffffffffffff1681565b6000813590506101d08161042f565b92915050565b6000602082840312156101e857600080fd5b60006101f6848285016101c1565b91505092915050565b61020881610342565b82525050565b61021781610330565b82525050565b61022681610354565b82525050565b600061023782610314565b610241818561031f565b935061025181856020860161038a565b61025a8161041e565b840191505092915050565b61026e81610380565b82525050565b6000602082019050610289600083018461020e565b92915050565b6000610100820190506102a5600083018b6101ff565b6102b2602083018a610265565b6102bf6040830189610265565b6102cc6060830188610265565b6102d96080830187610265565b6102e660a0830186610265565b81810360c08301526102f8818561022c565b905061030760e083018461021d565b9998505050505050505050565b600081519050919050565b600082825260208201905092915050565b600061033b82610360565b9050919050565b600061034d82610360565b9050919050565b60008115159050919050565b600073ffffffffffffffffffffffffffffffffffffffff82169050919050565b6000819050919050565b60005b838110156103a857808201518184015260208101905061038d565b838111156103b7576000848401525b50505050565b600060028204905060018216806103d557607f821691505b602082108114156103e9576103e86103ef565b5b50919050565b7f4e487b7100000000000000000000000000000000000000000000000000000000600052602260045260246000fd5b6000601f19601f8301169050919050565b61043881610380565b811461044357600080fd5b5056fea2646970667358221220240ed856caee00df3fdefffe0ce9c38b90eeed39def33cd7f141cede4f30b8f264736f6c63430008000033",
					"opcodes": "PUSH1 0x80 PUSH1 0x40 MSTORE CALLVALUE DUP1 ISZERO PUSH2 0x10 JUMPI PUSH1 0x0 DUP1 REVERT JUMPDEST POP PUSH2 0x47C DUP1 PUSH2 0x20 PUSH1 0x0 CODECOPY PUSH1 0x0 RETURN INVALID PUSH1 0x80 PUSH1 0x40 MSTORE CALLVALUE DUP1 ISZERO PUSH2 0x10 JUMPI PUSH1 0x0 DUP1 REVERT JUMPDEST POP PUSH1 0x4 CALLDATASIZE LT PUSH2 0x36 JUMPI PUSH1 0x0 CALLDATALOAD PUSH1 0xE0 SHR DUP1 PUSH4 0x571A26A0 EQ PUSH2 0x3B JUMPI DUP1 PUSH4 0x8DA5CB5B EQ PUSH2 0x72 JUMPI JUMPDEST PUSH1 0x0 DUP1 REVERT JUMPDEST PUSH2 0x55 PUSH1 0x4 DUP1 CALLDATASIZE SUB DUP2 ADD SWAP1 PUSH2 0x50 SWAP2 SWAP1 PUSH2 0x1D6 JUMP JUMPDEST PUSH2 0x90 JUMP JUMPDEST PUSH1 0x40 MLOAD PUSH2 0x69 SWAP9 SWAP8 SWAP7 SWAP6 SWAP5 SWAP4 SWAP3 SWAP2 SWAP1 PUSH2 0x28F JUMP JUMPDEST PUSH1 0x40 MLOAD DUP1 SWAP2 SUB SWAP1 RETURN JUMPDEST PUSH2 0x7A PUSH2 0x19D JUMP JUMPDEST PUSH1 0x40 MLOAD PUSH2 0x87 SWAP2 SWAP1 PUSH2 0x274 JUMP JUMPDEST PUSH1 0x40 MLOAD DUP1 SWAP2 SUB SWAP1 RETURN JUMPDEST PUSH1 0x1 DUP2 DUP2 SLOAD DUP2 LT PUSH2 0xA0 JUMPI PUSH1 0x0 DUP1 REVERT JUMPDEST SWAP1 PUSH1 0x0 MSTORE PUSH1 0x20 PUSH1 0x0 KECCAK256 SWAP1 PUSH1 0x8 MUL ADD PUSH1 0x0 SWAP2 POP SWAP1 POP DUP1 PUSH1 0x0 ADD PUSH1 0x0 SWAP1 SLOAD SWAP1 PUSH2 0x100 EXP SWAP1 DIV PUSH20 0xFFFFFFFFFFFFFFFFFFFFFFFFFFFFFFFFFFFFFFFF AND SWAP1 DUP1 PUSH1 0x1 ADD SLOAD SWAP1 DUP1 PUSH1 0x2 ADD SLOAD SWAP1 DUP1 PUSH1 0x3 ADD SLOAD SWAP1 DUP1 PUSH1 0x4 ADD SLOAD SWAP1 DUP1 PUSH1 0x5 ADD SLOAD SWAP1 DUP1 PUSH1 0x6 ADD DUP1 SLOAD PUSH2 0x107 SWAP1 PUSH2 0x3BD JUMP JUMPDEST DUP1 PUSH1 0x1F ADD PUSH1 0x20 DUP1 SWAP2 DIV MUL PUSH1 0x20 ADD PUSH1 0x40 MLOAD SWAP1 DUP2 ADD PUSH1 0x40 MSTORE DUP1 SWAP3 SWAP2 SWAP1 DUP2 DUP2 MSTORE PUSH1 0x20 ADD DUP3 DUP1 SLOAD PUSH2 0x133 SWAP1 PUSH2 0x3BD JUMP JUMPDEST DUP1 ISZERO PUSH2 0x180 JUMPI DUP1 PUSH1 0x1F LT PUSH2 0x155 JUMPI PUSH2 0x100 DUP1 DUP4 SLOAD DIV MUL DUP4 MSTORE SWAP2 PUSH1 0x20 ADD SWAP2 PUSH2 0x180 JUMP JUMPDEST DUP3 ADD SWAP2 SWAP1 PUSH1 0x0 MSTORE PUSH1 0x20 PUSH1 0x0 KECCAK256 SWAP1 JUMPDEST DUP2 SLOAD DUP2 MSTORE SWAP1 PUSH1 0x1 ADD SWAP1 PUSH1 0x20 ADD DUP1 DUP4 GT PUSH2 0x163 JUMPI DUP3 SWAP1 SUB PUSH1 0x1F AND DUP3 ADD SWAP2 JUMPDEST POP POP POP POP POP SWAP1 DUP1 PUSH1 0x7 ADD PUSH1 0x0 SWAP1 SLOAD SWAP1 PUSH2 0x100 EXP SWAP1 DIV PUSH1 0xFF AND SWAP1 POP DUP9 JUMP JUMPDEST PUSH1 0x0 DUP1 SLOAD SWAP1 PUSH2 0x100 EXP SWAP1 DIV PUSH20 0xFFFFFFFFFFFFFFFFFFFFFFFFFFFFFFFFFFFFFFFF AND DUP2 JUMP JUMPDEST PUSH1 0x0 DUP2 CALLDATALOAD SWAP1 POP PUSH2 0x1D0 DUP2 PUSH2 0x42F JUMP JUMPDEST SWAP3 SWAP2 POP POP JUMP JUMPDEST PUSH1 0x0 PUSH1 0x20 DUP3 DUP5 SUB SLT ISZERO PUSH2 0x1E8 JUMPI PUSH1 0x0 DUP1 REVERT JUMPDEST PUSH1 0x0 PUSH2 0x1F6 DUP5 DUP3 DUP6 ADD PUSH2 0x1C1 JUMP JUMPDEST SWAP2 POP POP SWAP3 SWAP2 POP POP JUMP JUMPDEST PUSH2 0x208 DUP2 PUSH2 0x342 JUMP JUMPDEST DUP3 MSTORE POP POP JUMP JUMPDEST PUSH2 0x217 DUP2 PUSH2 0x330 JUMP JUMPDEST DUP3 MSTORE POP POP JUMP JUMPDEST PUSH2 0x226 DUP2 PUSH2 0x354 JUMP JUMPDEST DUP3 MSTORE POP POP JUMP JUMPDEST PUSH1 0x0 PUSH2 0x237 DUP3 PUSH2 0x314 JUMP JUMPDEST PUSH2 0x241 DUP2 DUP6 PUSH2 0x31F JUMP JUMPDEST SWAP4 POP PUSH2 0x251 DUP2 DUP6 PUSH1 0x20 DUP7 ADD PUSH2 0x38A JUMP JUMPDEST PUSH2 0x25A DUP2 PUSH2 0x41E JUMP JUMPDEST DUP5 ADD SWAP2 POP POP SWAP3 SWAP2 POP POP JUMP JUMPDEST PUSH2 0x26E DUP2 PUSH2 0x380 JUMP JUMPDEST DUP3 MSTORE POP POP JUMP JUMPDEST PUSH1 0x0 PUSH1 0x20 DUP3 ADD SWAP1 POP PUSH2 0x289 PUSH1 0x0 DUP4 ADD DUP5 PUSH2 0x20E JUMP JUMPDEST SWAP3 SWAP2 POP POP JUMP JUMPDEST PUSH1 0x0 PUSH2 0x100 DUP3 ADD SWAP1 POP PUSH2 0x2A5 PUSH1 0x0 DUP4 ADD DUP12 PUSH2 0x1FF JUMP JUMPDEST PUSH2 0x2B2 PUSH1 0x20 DUP4 ADD DUP11 PUSH2 0x265 JUMP JUMPDEST PUSH2 0x2BF PUSH1 0x40 DUP4 ADD DUP10 PUSH2 0x265 JUMP JUMPDEST PUSH2 0x2CC PUSH1 0x60 DUP4 ADD DUP9 PUSH2 0x265 JUMP JUMPDEST PUSH2 0x2D9 PUSH1 0x80 DUP4 ADD DUP8 PUSH2 0x265 JUMP JUMPDEST PUSH2 0x2E6 PUSH1 0xA0 DUP4 ADD DUP7 PUSH2 0x265 JUMP JUMPDEST DUP2 DUP2 SUB PUSH1 0xC0 DUP4 ADD MSTORE PUSH2 0x2F8 DUP2 DUP6 PUSH2 0x22C JUMP JUMPDEST SWAP1 POP PUSH2 0x307 PUSH1 0xE0 DUP4 ADD DUP5 PUSH2 0x21D JUMP JUMPDEST SWAP10 SWAP9 POP POP POP POP POP POP POP POP POP JUMP JUMPDEST PUSH1 0x0 DUP2 MLOAD SWAP1 POP SWAP2 SWAP1 POP JUMP JUMPDEST PUSH1 0x0 DUP3 DUP3 MSTORE PUSH1 0x20 DUP3 ADD SWAP1 POP SWAP3 SWAP2 POP POP JUMP JUMPDEST PUSH1 0x0 PUSH2 0x33B DUP3 PUSH2 0x360 JUMP JUMPDEST SWAP1 POP SWAP2 SWAP1 POP JUMP JUMPDEST PUSH1 0x0 PUSH2 0x34D DUP3 PUSH2 0x360 JUMP JUMPDEST SWAP1 POP SWAP2 SWAP1 POP JUMP JUMPDEST PUSH1 0x0 DUP2 ISZERO ISZERO SWAP1 POP SWAP2 SWAP1 POP JUMP JUMPDEST PUSH1 0x0 PUSH20 0xFFFFFFFFFFFFFFFFFFFFFFFFFFFFFFFFFFFFFFFF DUP3 AND SWAP1 POP SWAP2 SWAP1 POP JUMP JUMPDEST PUSH1 0x0 DUP2 SWAP1 POP SWAP2 SWAP1 POP JUMP JUMPDEST PUSH1 0x0 JUMPDEST DUP4 DUP2 LT ISZERO PUSH2 0x3A8 JUMPI DUP1 DUP3 ADD MLOAD DUP2 DUP5 ADD MSTORE PUSH1 0x20 DUP2 ADD SWAP1 POP PUSH2 0x38D JUMP JUMPDEST DUP4 DUP2 GT ISZERO PUSH2 0x3B7 JUMPI PUSH1 0x0 DUP5 DUP5 ADD MSTORE JUMPDEST POP POP POP POP JUMP JUMPDEST PUSH1 0x0 PUSH1 0x2 DUP3 DIV SWAP1 POP PUSH1 0x1 DUP3 AND DUP1 PUSH2 0x3D5 JUMPI PUSH1 0x7F DUP3 AND SWAP2 POP JUMPDEST PUSH1 0x20 DUP3 LT DUP2 EQ ISZERO PUSH2 0x3E9 JUMPI PUSH2 0x3E8 PUSH2 0x3EF JUMP JUMPDEST JUMPDEST POP SWAP2 SWAP1 POP JUMP JUMPDEST PUSH32 0x4E487B7100000000000000000000000000000000000000000000000000000000 PUSH1 0x0 MSTORE PUSH1 0x22 PUSH1 0x4 MSTORE PUSH1 0x24 PUSH1 0x0 REVERT JUMPDEST PUSH1 0x0 PUSH1 0x1F NOT PUSH1 0x1F DUP4 ADD AND SWAP1 POP SWAP2 SWAP1 POP JUMP JUMPDEST PUSH2 0x438 DUP2 PUSH2 0x380 JUMP JUMPDEST DUP2 EQ PUSH2 0x443 JUMPI PUSH1 0x0 DUP1 REVERT JUMPDEST POP JUMP INVALID LOG2 PUSH5 0x6970667358 0x22 SLT KECCAK256 0x24 0xE 0xD8 JUMP 0xCA 0xEE STOP 0xDF EXTCODEHASH 0xDE SELFDESTRUCT INVALID 0xC 0xE9 0xC3 DUP12 SWAP1 0xEE 0xED CODECOPY 0xDE RETURN EXTCODECOPY 0xD7 CALL COINBASE 0xCE 0xDE 0x4F ADDRESS 0xB8 CALLCODE PUSH5 0x736F6C6343 STOP ADDMOD STOP STOP CALLER "
				},
				"gasEstimates": {
					"creation": {
						"codeDepositCost": "229600",
						"executionCost": "269",
						"totalCost": "229869"
					},
					"external": {
						"auctions(uint256)": "infinite",
						"owner()": "1211"
					}
				},
				"methodIdentifiers": {
					"auctions(uint256)": "571a26a0",
					"owner()": "8da5cb5b"
				}
			},
			"storageLayout": {
				"storage": [
					{
						"astId": 3,
						"contract": "coin.sol:AucEngine",
						"label": "owner",
						"offset": 0,
						"slot": "0",
						"type": "t_address"
					},
					{
						"astId": 30,
						"contract": "coin.sol:AucEngine",
						"label": "auctions",
						"offset": 0,
						"slot": "1",
						"type": "t_array(t_struct(Auction)26_storage)dyn_storage"
					}
				],
				"types": {
					"t_address": {
						"encoding": "inplace",
						"label": "address",
						"numberOfBytes": "20"
					},
					"t_address_payable": {
						"encoding": "inplace",
						"label": "address payable",
						"numberOfBytes": "20"
					},
					"t_array(t_struct(Auction)26_storage)dyn_storage": {
						"base": "t_struct(Auction)26_storage",
						"encoding": "dynamic_array",
						"label": "struct AucEngine.Auction[]",
						"numberOfBytes": "32"
					},
					"t_bool": {
						"encoding": "inplace",
						"label": "bool",
						"numberOfBytes": "1"
					},
					"t_string_storage": {
						"encoding": "bytes",
						"label": "string",
						"numberOfBytes": "32"
					},
					"t_struct(Auction)26_storage": {
						"encoding": "inplace",
						"label": "struct AucEngine.Auction",
						"members": [
							{
								"astId": 11,
								"contract": "coin.sol:AucEngine",
								"label": "seller",
								"offset": 0,
								"slot": "0",
								"type": "t_address_payable"
							},
							{
								"astId": 13,
								"contract": "coin.sol:AucEngine",
								"label": "startingPrice",
								"offset": 0,
								"slot": "1",
								"type": "t_uint256"
							},
							{
								"astId": 15,
								"contract": "coin.sol:AucEngine",
								"label": "finalPrice",
								"offset": 0,
								"slot": "2",
								"type": "t_uint256"
							},
							{
								"astId": 17,
								"contract": "coin.sol:AucEngine",
								"label": "startAt",
								"offset": 0,
								"slot": "3",
								"type": "t_uint256"
							},
							{
								"astId": 19,
								"contract": "coin.sol:AucEngine",
								"label": "endsAt",
								"offset": 0,
								"slot": "4",
								"type": "t_uint256"
							},
							{
								"astId": 21,
								"contract": "coin.sol:AucEngine",
								"label": "discountRate",
								"offset": 0,
								"slot": "5",
								"type": "t_uint256"
							},
							{
								"astId": 23,
								"contract": "coin.sol:AucEngine",
								"label": "item",
								"offset": 0,
								"slot": "6",
								"type": "t_string_storage"
							},
							{
								"astId": 25,
								"contract": "coin.sol:AucEngine",
								"label": "stopped",
								"offset": 0,
								"slot": "7",
								"type": "t_bool"
							}
						],
						"numberOfBytes": "256"
					},
					"t_uint256": {
						"encoding": "inplace",
						"label": "uint256",
						"numberOfBytes": "32"
					}
				}
			},
			"userdoc": {
				"kind": "user",
				"methods": {},
				"version": 1
			}
		}
	}
}