{
	"coin.sol": {
		"AucEngine": {
			"abi": [
				{
					"inputs": [],
					"stateMutability": "nonpayable",
					"type": "constructor"
				},
				{
					"inputs": [
						{
							"internalType": "uint256",
							"name": "",
							"type": "uint256"
						}
					],
					"name": "auctions",
					"outputs": [
						{
							"internalType": "address payable",
							"name": "seller",
							"type": "address"
						},
						{
							"internalType": "uint256",
							"name": "startingPrice",
							"type": "uint256"
						},
						{
							"internalType": "uint256",
							"name": "finalPrice",
							"type": "uint256"
						},
						{
							"internalType": "uint256",
							"name": "startAt",
							"type": "uint256"
						},
						{
							"internalType": "uint256",
							"name": "endsAt",
							"type": "uint256"
						},
						{
							"internalType": "uint256",
							"name": "discountRate",
							"type": "uint256"
						},
						{
							"internalType": "string",
							"name": "item",
							"type": "string"
						},
						{
							"internalType": "bool",
							"name": "stopped",
							"type": "bool"
						}
					],
					"stateMutability": "view",
					"type": "function"
				},
				{
					"inputs": [
						{
							"internalType": "uint256",
							"name": "_startingPrice",
							"type": "uint256"
						},
						{
							"internalType": "uint256",
							"name": "_discountRate",
							"type": "uint256"
						},
						{
							"internalType": "string",
							"name": "_item",
							"type": "string"
						},
						{
							"internalType": "uint256",
							"name": "",
							"type": "uint256"
						}
					],
					"name": "createAuction",
					"outputs": [],
					"stateMutability": "nonpayable",
					"type": "function"
				},
				{
					"inputs": [],
					"name": "owner",
					"outputs": [
						{
							"internalType": "address",
							"name": "",
							"type": "address"
						}
					],
					"stateMutability": "view",
					"type": "function"
				}
			],
			"devdoc": {
				"kind": "dev",
				"methods": {},
				"version": 1
			},
			"evm": {
				"assembly": "    /* \"coin.sol\":68:657  contract AucEngine {\r... */\n  mstore(0x40, 0x80)\n    /* \"coin.sol\":469:521  constructor()  {\r... */\n  callvalue\n  dup1\n  iszero\n  tag_1\n  jumpi\n  0x00\n  dup1\n  revert\ntag_1:\n  pop\n    /* \"coin.sol\":503:513  msg.sender */\n  caller\n    /* \"coin.sol\":495:500  owner */\n  0x00\n  dup1\n    /* \"coin.sol\":495:513  owner = msg.sender */\n  0x0100\n  exp\n  dup2\n  sload\n  dup2\n  0xffffffffffffffffffffffffffffffffffffffff\n  mul\n  not\n  and\n  swap1\n  dup4\n  0xffffffffffffffffffffffffffffffffffffffff\n  and\n  mul\n  or\n  swap1\n  sstore\n  pop\n    /* \"coin.sol\":68:657  contract AucEngine {\r... */\n  dataSize(sub_0)\n  dup1\n  dataOffset(sub_0)\n  0x00\n  codecopy\n  0x00\n  return\nstop\n\nsub_0: assembly {\n        /* \"coin.sol\":68:657  contract AucEngine {\r... */\n      mstore(0x40, 0x80)\n      callvalue\n      dup1\n      iszero\n      tag_1\n      jumpi\n      0x00\n      dup1\n      revert\n    tag_1:\n      pop\n      jumpi(tag_2, lt(calldatasize, 0x04))\n      shr(0xe0, calldataload(0x00))\n      dup1\n      0x571a26a0\n      eq\n      tag_3\n      jumpi\n      dup1\n      0x8da5cb5b\n      eq\n      tag_4\n      jumpi\n      dup1\n      0xe9835d15\n      eq\n      tag_5\n      jumpi\n    tag_2:\n      0x00\n      dup1\n      revert\n        /* \"coin.sol\":433:458  Auction[] public auctions */\n    tag_3:\n      tag_6\n      0x04\n      dup1\n      calldatasize\n      sub\n      dup2\n      add\n      swap1\n      tag_7\n      swap2\n      swap1\n      tag_8\n      jump\t// in\n    tag_7:\n      tag_9\n      jump\t// in\n    tag_6:\n      mload(0x40)\n      tag_10\n      swap9\n      swap8\n      swap7\n      swap6\n      swap5\n      swap4\n      swap3\n      swap2\n      swap1\n      tag_11\n      jump\t// in\n    tag_10:\n      mload(0x40)\n      dup1\n      swap2\n      sub\n      swap1\n      return\n        /* \"coin.sol\":94:114  address public owner */\n    tag_4:\n      tag_12\n      tag_13\n      jump\t// in\n    tag_12:\n      mload(0x40)\n      tag_14\n      swap2\n      swap1\n      tag_15\n      jump\t// in\n    tag_14:\n      mload(0x40)\n      dup1\n      swap2\n      sub\n      swap1\n      return\n        /* \"coin.sol\":533:646  function createAuction(uint _startingPrice, uint _discountRate, string calldata _item, uint ) external {\r... */\n    tag_5:\n      tag_16\n      0x04\n      dup1\n      calldatasize\n      sub\n      dup2\n      add\n      swap1\n      tag_17\n      swap2\n      swap1\n      tag_18\n      jump\t// in\n    tag_17:\n      tag_19\n      jump\t// in\n    tag_16:\n      stop\n        /* \"coin.sol\":433:458  Auction[] public auctions */\n    tag_9:\n      0x01\n      dup2\n      dup2\n      sload\n      dup2\n      lt\n      tag_20\n      jumpi\n      0x00\n      dup1\n      revert\n    tag_20:\n      swap1\n      0x00\n      mstore\n      keccak256(0x00, 0x20)\n      swap1\n      0x08\n      mul\n      add\n      0x00\n      swap2\n      pop\n      swap1\n      pop\n      dup1\n      0x00\n      add\n      0x00\n      swap1\n      sload\n      swap1\n      0x0100\n      exp\n      swap1\n      div\n      0xffffffffffffffffffffffffffffffffffffffff\n      and\n      swap1\n      dup1\n      0x01\n      add\n      sload\n      swap1\n      dup1\n      0x02\n      add\n      sload\n      swap1\n      dup1\n      0x03\n      add\n      sload\n      swap1\n      dup1\n      0x04\n      add\n      sload\n      swap1\n      dup1\n      0x05\n      add\n      sload\n      swap1\n      dup1\n      0x06\n      add\n      dup1\n      sload\n      tag_22\n      swap1\n      tag_23\n      jump\t// in\n    tag_22:\n      dup1\n      0x1f\n      add\n      0x20\n      dup1\n      swap2\n      div\n      mul\n      0x20\n      add\n      mload(0x40)\n      swap1\n      dup2\n      add\n      0x40\n      mstore\n      dup1\n      swap3\n      swap2\n      swap1\n      dup2\n      dup2\n      mstore\n      0x20\n      add\n      dup3\n      dup1\n      sload\n      tag_24\n      swap1\n      tag_23\n      jump\t// in\n    tag_24:\n      dup1\n      iszero\n      tag_25\n      jumpi\n      dup1\n      0x1f\n      lt\n      tag_26\n      jumpi\n      0x0100\n      dup1\n      dup4\n      sload\n      div\n      mul\n      dup4\n      mstore\n      swap2\n      0x20\n      add\n      swap2\n      jump(tag_25)\n    tag_26:\n      dup3\n      add\n      swap2\n      swap1\n      0x00\n      mstore\n      keccak256(0x00, 0x20)\n      swap1\n    tag_27:\n      dup2\n      sload\n      dup2\n      mstore\n      swap1\n      0x01\n      add\n      swap1\n      0x20\n      add\n      dup1\n      dup4\n      gt\n      tag_27\n      jumpi\n      dup3\n      swap1\n      sub\n      0x1f\n      and\n      dup3\n      add\n      swap2\n    tag_25:\n      pop\n      pop\n      pop\n      pop\n      pop\n      swap1\n      dup1\n      0x07\n      add\n      0x00\n      swap1\n      sload\n      swap1\n      0x0100\n      exp\n      swap1\n      div\n      0xff\n      and\n      swap1\n      pop\n      dup9\n      jump\t// out\n        /* \"coin.sol\":94:114  address public owner */\n    tag_13:\n      0x00\n      dup1\n      sload\n      swap1\n      0x0100\n      exp\n      swap1\n      div\n      0xffffffffffffffffffffffffffffffffffffffff\n      and\n      dup2\n      jump\t// out\n        /* \"coin.sol\":533:646  function createAuction(uint _startingPrice, uint _discountRate, string calldata _item, uint ) external {\r... */\n    tag_19:\n      pop\n      pop\n      pop\n      pop\n      pop\n      jump\t// out\n        /* \"#utility.yul\":21:373   */\n    tag_30:\n      0x00\n      dup1\n        /* \"#utility.yul\":139:142   */\n      dup4\n        /* \"#utility.yul\":132:136   */\n      0x1f\n        /* \"#utility.yul\":124:130   */\n      dup5\n        /* \"#utility.yul\":120:137   */\n      add\n        /* \"#utility.yul\":116:143   */\n      slt\n        /* \"#utility.yul\":106:108   */\n      tag_32\n      jumpi\n        /* \"#utility.yul\":157:158   */\n      0x00\n        /* \"#utility.yul\":154:155   */\n      dup1\n        /* \"#utility.yul\":147:159   */\n      revert\n        /* \"#utility.yul\":106:108   */\n    tag_32:\n        /* \"#utility.yul\":193:199   */\n      dup3\n        /* \"#utility.yul\":180:200   */\n      calldataload\n        /* \"#utility.yul\":170:200   */\n      swap1\n      pop\n        /* \"#utility.yul\":223:241   */\n      0xffffffffffffffff\n        /* \"#utility.yul\":215:221   */\n      dup2\n        /* \"#utility.yul\":212:242   */\n      gt\n        /* \"#utility.yul\":209:211   */\n      iszero\n      tag_33\n      jumpi\n        /* \"#utility.yul\":255:256   */\n      0x00\n        /* \"#utility.yul\":252:253   */\n      dup1\n        /* \"#utility.yul\":245:257   */\n      revert\n        /* \"#utility.yul\":209:211   */\n    tag_33:\n        /* \"#utility.yul\":292:296   */\n      0x20\n        /* \"#utility.yul\":284:290   */\n      dup4\n        /* \"#utility.yul\":280:297   */\n      add\n        /* \"#utility.yul\":268:297   */\n      swap2\n      pop\n        /* \"#utility.yul\":346:349   */\n      dup4\n        /* \"#utility.yul\":338:342   */\n      0x01\n        /* \"#utility.yul\":330:336   */\n      dup3\n        /* \"#utility.yul\":326:343   */\n      mul\n        /* \"#utility.yul\":316:324   */\n      dup4\n        /* \"#utility.yul\":312:344   */\n      add\n        /* \"#utility.yul\":309:350   */\n      gt\n        /* \"#utility.yul\":306:308   */\n      iszero\n      tag_34\n      jumpi\n        /* \"#utility.yul\":363:364   */\n      0x00\n        /* \"#utility.yul\":360:361   */\n      dup1\n        /* \"#utility.yul\":353:365   */\n      revert\n        /* \"#utility.yul\":306:308   */\n    tag_34:\n        /* \"#utility.yul\":96:373   */\n      swap3\n      pop\n      swap3\n      swap1\n      pop\n      jump\t// out\n        /* \"#utility.yul\":379:518   */\n    tag_35:\n      0x00\n        /* \"#utility.yul\":463:469   */\n      dup2\n        /* \"#utility.yul\":450:470   */\n      calldataload\n        /* \"#utility.yul\":441:470   */\n      swap1\n      pop\n        /* \"#utility.yul\":479:512   */\n      tag_37\n        /* \"#utility.yul\":506:511   */\n      dup2\n        /* \"#utility.yul\":479:512   */\n      tag_38\n      jump\t// in\n    tag_37:\n        /* \"#utility.yul\":431:518   */\n      swap3\n      swap2\n      pop\n      pop\n      jump\t// out\n        /* \"#utility.yul\":524:786   */\n    tag_8:\n      0x00\n        /* \"#utility.yul\":632:634   */\n      0x20\n        /* \"#utility.yul\":620:629   */\n      dup3\n        /* \"#utility.yul\":611:618   */\n      dup5\n        /* \"#utility.yul\":607:630   */\n      sub\n        /* \"#utility.yul\":603:635   */\n      slt\n        /* \"#utility.yul\":600:602   */\n      iszero\n      tag_40\n      jumpi\n        /* \"#utility.yul\":648:649   */\n      0x00\n        /* \"#utility.yul\":645:646   */\n      dup1\n        /* \"#utility.yul\":638:650   */\n      revert\n        /* \"#utility.yul\":600:602   */\n    tag_40:\n        /* \"#utility.yul\":691:692   */\n      0x00\n        /* \"#utility.yul\":716:769   */\n      tag_41\n        /* \"#utility.yul\":761:768   */\n      dup5\n        /* \"#utility.yul\":752:758   */\n      dup3\n        /* \"#utility.yul\":741:750   */\n      dup6\n        /* \"#utility.yul\":737:759   */\n      add\n        /* \"#utility.yul\":716:769   */\n      tag_35\n      jump\t// in\n    tag_41:\n        /* \"#utility.yul\":706:769   */\n      swap2\n      pop\n        /* \"#utility.yul\":662:779   */\n      pop\n        /* \"#utility.yul\":590:786   */\n      swap3\n      swap2\n      pop\n      pop\n      jump\t// out\n        /* \"#utility.yul\":792:1623   */\n    tag_18:\n      0x00\n      dup1\n      0x00\n      dup1\n      0x00\n        /* \"#utility.yul\":971:974   */\n      0x80\n        /* \"#utility.yul\":959:968   */\n      dup7\n        /* \"#utility.yul\":950:957   */\n      dup9\n        /* \"#utility.yul\":946:969   */\n      sub\n        /* \"#utility.yul\":942:975   */\n      slt\n        /* \"#utility.yul\":939:941   */\n      iszero\n      tag_43\n      jumpi\n        /* \"#utility.yul\":988:989   */\n      0x00\n        /* \"#utility.yul\":985:986   */\n      dup1\n        /* \"#utility.yul\":978:990   */\n      revert\n        /* \"#utility.yul\":939:941   */\n    tag_43:\n        /* \"#utility.yul\":1031:1032   */\n      0x00\n        /* \"#utility.yul\":1056:1109   */\n      tag_44\n        /* \"#utility.yul\":1101:1108   */\n      dup9\n        /* \"#utility.yul\":1092:1098   */\n      dup3\n        /* \"#utility.yul\":1081:1090   */\n      dup10\n        /* \"#utility.yul\":1077:1099   */\n      add\n        /* \"#utility.yul\":1056:1109   */\n      tag_35\n      jump\t// in\n    tag_44:\n        /* \"#utility.yul\":1046:1109   */\n      swap6\n      pop\n        /* \"#utility.yul\":1002:1119   */\n      pop\n        /* \"#utility.yul\":1158:1160   */\n      0x20\n        /* \"#utility.yul\":1184:1237   */\n      tag_45\n        /* \"#utility.yul\":1229:1236   */\n      dup9\n        /* \"#utility.yul\":1220:1226   */\n      dup3\n        /* \"#utility.yul\":1209:1218   */\n      dup10\n        /* \"#utility.yul\":1205:1227   */\n      add\n        /* \"#utility.yul\":1184:1237   */\n      tag_35\n      jump\t// in\n    tag_45:\n        /* \"#utility.yul\":1174:1237   */\n      swap5\n      pop\n        /* \"#utility.yul\":1129:1247   */\n      pop\n        /* \"#utility.yul\":1314:1316   */\n      0x40\n        /* \"#utility.yul\":1303:1312   */\n      dup7\n        /* \"#utility.yul\":1299:1317   */\n      add\n        /* \"#utility.yul\":1286:1318   */\n      calldataload\n        /* \"#utility.yul\":1345:1363   */\n      0xffffffffffffffff\n        /* \"#utility.yul\":1337:1343   */\n      dup2\n        /* \"#utility.yul\":1334:1364   */\n      gt\n        /* \"#utility.yul\":1331:1333   */\n      iszero\n      tag_46\n      jumpi\n        /* \"#utility.yul\":1377:1378   */\n      0x00\n        /* \"#utility.yul\":1374:1375   */\n      dup1\n        /* \"#utility.yul\":1367:1379   */\n      revert\n        /* \"#utility.yul\":1331:1333   */\n    tag_46:\n        /* \"#utility.yul\":1413:1478   */\n      tag_47\n        /* \"#utility.yul\":1470:1477   */\n      dup9\n        /* \"#utility.yul\":1461:1467   */\n      dup3\n        /* \"#utility.yul\":1450:1459   */\n      dup10\n        /* \"#utility.yul\":1446:1468   */\n      add\n        /* \"#utility.yul\":1413:1478   */\n      tag_30\n      jump\t// in\n    tag_47:\n        /* \"#utility.yul\":1395:1478   */\n      swap4\n      pop\n      swap4\n      pop\n        /* \"#utility.yul\":1257:1488   */\n      pop\n        /* \"#utility.yul\":1527:1529   */\n      0x60\n        /* \"#utility.yul\":1553:1606   */\n      tag_48\n        /* \"#utility.yul\":1598:1605   */\n      dup9\n        /* \"#utility.yul\":1589:1595   */\n      dup3\n        /* \"#utility.yul\":1578:1587   */\n      dup10\n        /* \"#utility.yul\":1574:1596   */\n      add\n        /* \"#utility.yul\":1553:1606   */\n      tag_35\n      jump\t// in\n    tag_48:\n        /* \"#utility.yul\":1543:1606   */\n      swap2\n      pop\n        /* \"#utility.yul\":1498:1616   */\n      pop\n        /* \"#utility.yul\":929:1623   */\n      swap3\n      swap6\n      pop\n      swap3\n      swap6\n      swap1\n      swap4\n      pop\n      jump\t// out\n        /* \"#utility.yul\":1629:1771   */\n    tag_49:\n        /* \"#utility.yul\":1732:1764   */\n      tag_51\n        /* \"#utility.yul\":1758:1763   */\n      dup2\n        /* \"#utility.yul\":1732:1764   */\n      tag_52\n      jump\t// in\n    tag_51:\n        /* \"#utility.yul\":1727:1730   */\n      dup3\n        /* \"#utility.yul\":1720:1765   */\n      mstore\n        /* \"#utility.yul\":1710:1771   */\n      pop\n      pop\n      jump\t// out\n        /* \"#utility.yul\":1777:1895   */\n    tag_53:\n        /* \"#utility.yul\":1864:1888   */\n      tag_55\n        /* \"#utility.yul\":1882:1887   */\n      dup2\n        /* \"#utility.yul\":1864:1888   */\n      tag_56\n      jump\t// in\n    tag_55:\n        /* \"#utility.yul\":1859:1862   */\n      dup3\n        /* \"#utility.yul\":1852:1889   */\n      mstore\n        /* \"#utility.yul\":1842:1895   */\n      pop\n      pop\n      jump\t// out\n        /* \"#utility.yul\":1901:2010   */\n    tag_57:\n        /* \"#utility.yul\":1982:2003   */\n      tag_59\n        /* \"#utility.yul\":1997:2002   */\n      dup2\n        /* \"#utility.yul\":1982:2003   */\n      tag_60\n      jump\t// in\n    tag_59:\n        /* \"#utility.yul\":1977:1980   */\n      dup3\n        /* \"#utility.yul\":1970:2004   */\n      mstore\n        /* \"#utility.yul\":1960:2010   */\n      pop\n      pop\n      jump\t// out\n        /* \"#utility.yul\":2016:2380   */\n    tag_61:\n      0x00\n        /* \"#utility.yul\":2132:2171   */\n      tag_63\n        /* \"#utility.yul\":2165:2170   */\n      dup3\n        /* \"#utility.yul\":2132:2171   */\n      tag_64\n      jump\t// in\n    tag_63:\n        /* \"#utility.yul\":2187:2258   */\n      tag_65\n        /* \"#utility.yul\":2251:2257   */\n      dup2\n        /* \"#utility.yul\":2246:2249   */\n      dup6\n        /* \"#utility.yul\":2187:2258   */\n      tag_66\n      jump\t// in\n    tag_65:\n        /* \"#utility.yul\":2180:2258   */\n      swap4\n      pop\n        /* \"#utility.yul\":2267:2319   */\n      tag_67\n        /* \"#utility.yul\":2312:2318   */\n      dup2\n        /* \"#utility.yul\":2307:2310   */\n      dup6\n        /* \"#utility.yul\":2300:2304   */\n      0x20\n        /* \"#utility.yul\":2293:2298   */\n      dup7\n        /* \"#utility.yul\":2289:2305   */\n      add\n        /* \"#utility.yul\":2267:2319   */\n      tag_68\n      jump\t// in\n    tag_67:\n        /* \"#utility.yul\":2344:2373   */\n      tag_69\n        /* \"#utility.yul\":2366:2372   */\n      dup2\n        /* \"#utility.yul\":2344:2373   */\n      tag_70\n      jump\t// in\n    tag_69:\n        /* \"#utility.yul\":2339:2342   */\n      dup5\n        /* \"#utility.yul\":2335:2374   */\n      add\n        /* \"#utility.yul\":2328:2374   */\n      swap2\n      pop\n        /* \"#utility.yul\":2108:2380   */\n      pop\n      swap3\n      swap2\n      pop\n      pop\n      jump\t// out\n        /* \"#utility.yul\":2386:2504   */\n    tag_71:\n        /* \"#utility.yul\":2473:2497   */\n      tag_73\n        /* \"#utility.yul\":2491:2496   */\n      dup2\n        /* \"#utility.yul\":2473:2497   */\n      tag_74\n      jump\t// in\n    tag_73:\n        /* \"#utility.yul\":2468:2471   */\n      dup3\n        /* \"#utility.yul\":2461:2498   */\n      mstore\n        /* \"#utility.yul\":2451:2504   */\n      pop\n      pop\n      jump\t// out\n        /* \"#utility.yul\":2510:2732   */\n    tag_15:\n      0x00\n        /* \"#utility.yul\":2641:2643   */\n      0x20\n        /* \"#utility.yul\":2630:2639   */\n      dup3\n        /* \"#utility.yul\":2626:2644   */\n      add\n        /* \"#utility.yul\":2618:2644   */\n      swap1\n      pop\n        /* \"#utility.yul\":2654:2725   */\n      tag_76\n        /* \"#utility.yul\":2722:2723   */\n      0x00\n        /* \"#utility.yul\":2711:2720   */\n      dup4\n        /* \"#utility.yul\":2707:2724   */\n      add\n        /* \"#utility.yul\":2698:2704   */\n      dup5\n        /* \"#utility.yul\":2654:2725   */\n      tag_53\n      jump\t// in\n    tag_76:\n        /* \"#utility.yul\":2608:2732   */\n      swap3\n      swap2\n      pop\n      pop\n      jump\t// out\n        /* \"#utility.yul\":2738:3846   */\n    tag_11:\n      0x00\n        /* \"#utility.yul\":3095:3098   */\n      0x0100\n        /* \"#utility.yul\":3084:3093   */\n      dup3\n        /* \"#utility.yul\":3080:3099   */\n      add\n        /* \"#utility.yul\":3072:3099   */\n      swap1\n      pop\n        /* \"#utility.yul\":3109:3196   */\n      tag_78\n        /* \"#utility.yul\":3193:3194   */\n      0x00\n        /* \"#utility.yul\":3182:3191   */\n      dup4\n        /* \"#utility.yul\":3178:3195   */\n      add\n        /* \"#utility.yul\":3169:3175   */\n      dup12\n        /* \"#utility.yul\":3109:3196   */\n      tag_49\n      jump\t// in\n    tag_78:\n        /* \"#utility.yul\":3206:3278   */\n      tag_79\n        /* \"#utility.yul\":3274:3276   */\n      0x20\n        /* \"#utility.yul\":3263:3272   */\n      dup4\n        /* \"#utility.yul\":3259:3277   */\n      add\n        /* \"#utility.yul\":3250:3256   */\n      dup11\n        /* \"#utility.yul\":3206:3278   */\n      tag_71\n      jump\t// in\n    tag_79:\n        /* \"#utility.yul\":3288:3360   */\n      tag_80\n        /* \"#utility.yul\":3356:3358   */\n      0x40\n        /* \"#utility.yul\":3345:3354   */\n      dup4\n        /* \"#utility.yul\":3341:3359   */\n      add\n        /* \"#utility.yul\":3332:3338   */\n      dup10\n        /* \"#utility.yul\":3288:3360   */\n      tag_71\n      jump\t// in\n    tag_80:\n        /* \"#utility.yul\":3370:3442   */\n      tag_81\n        /* \"#utility.yul\":3438:3440   */\n      0x60\n        /* \"#utility.yul\":3427:3436   */\n      dup4\n        /* \"#utility.yul\":3423:3441   */\n      add\n        /* \"#utility.yul\":3414:3420   */\n      dup9\n        /* \"#utility.yul\":3370:3442   */\n      tag_71\n      jump\t// in\n    tag_81:\n        /* \"#utility.yul\":3452:3525   */\n      tag_82\n        /* \"#utility.yul\":3520:3523   */\n      0x80\n        /* \"#utility.yul\":3509:3518   */\n      dup4\n        /* \"#utility.yul\":3505:3524   */\n      add\n        /* \"#utility.yul\":3496:3502   */\n      dup8\n        /* \"#utility.yul\":3452:3525   */\n      tag_71\n      jump\t// in\n    tag_82:\n        /* \"#utility.yul\":3535:3608   */\n      tag_83\n        /* \"#utility.yul\":3603:3606   */\n      0xa0\n        /* \"#utility.yul\":3592:3601   */\n      dup4\n        /* \"#utility.yul\":3588:3607   */\n      add\n        /* \"#utility.yul\":3579:3585   */\n      dup7\n        /* \"#utility.yul\":3535:3608   */\n      tag_71\n      jump\t// in\n    tag_83:\n        /* \"#utility.yul\":3656:3665   */\n      dup2\n        /* \"#utility.yul\":3650:3654   */\n      dup2\n        /* \"#utility.yul\":3646:3666   */\n      sub\n        /* \"#utility.yul\":3640:3643   */\n      0xc0\n        /* \"#utility.yul\":3629:3638   */\n      dup4\n        /* \"#utility.yul\":3625:3644   */\n      add\n        /* \"#utility.yul\":3618:3667   */\n      mstore\n        /* \"#utility.yul\":3684:3762   */\n      tag_84\n        /* \"#utility.yul\":3757:3761   */\n      dup2\n        /* \"#utility.yul\":3748:3754   */\n      dup6\n        /* \"#utility.yul\":3684:3762   */\n      tag_61\n      jump\t// in\n    tag_84:\n        /* \"#utility.yul\":3676:3762   */\n      swap1\n      pop\n        /* \"#utility.yul\":3772:3839   */\n      tag_85\n        /* \"#utility.yul\":3834:3837   */\n      0xe0\n        /* \"#utility.yul\":3823:3832   */\n      dup4\n        /* \"#utility.yul\":3819:3838   */\n      add\n        /* \"#utility.yul\":3810:3816   */\n      dup5\n        /* \"#utility.yul\":3772:3839   */\n      tag_57\n      jump\t// in\n    tag_85:\n        /* \"#utility.yul\":3062:3846   */\n      swap10\n      swap9\n      pop\n      pop\n      pop\n      pop\n      pop\n      pop\n      pop\n      pop\n      pop\n      jump\t// out\n        /* \"#utility.yul\":3852:3951   */\n    tag_64:\n      0x00\n        /* \"#utility.yul\":3938:3943   */\n      dup2\n        /* \"#utility.yul\":3932:3944   */\n      mload\n        /* \"#utility.yul\":3922:3944   */\n      swap1\n      pop\n        /* \"#utility.yul\":3911:3951   */\n      swap2\n      swap1\n      pop\n      jump\t// out\n        /* \"#utility.yul\":3957:4126   */\n    tag_66:\n      0x00\n        /* \"#utility.yul\":4075:4081   */\n      dup3\n        /* \"#utility.yul\":4070:4073   */\n      dup3\n        /* \"#utility.yul\":4063:4082   */\n      mstore\n        /* \"#utility.yul\":4115:4119   */\n      0x20\n        /* \"#utility.yul\":4110:4113   */\n      dup3\n        /* \"#utility.yul\":4106:4120   */\n      add\n        /* \"#utility.yul\":4091:4120   */\n      swap1\n      pop\n        /* \"#utility.yul\":4053:4126   */\n      swap3\n      swap2\n      pop\n      pop\n      jump\t// out\n        /* \"#utility.yul\":4132:4228   */\n    tag_56:\n      0x00\n        /* \"#utility.yul\":4198:4222   */\n      tag_89\n        /* \"#utility.yul\":4216:4221   */\n      dup3\n        /* \"#utility.yul\":4198:4222   */\n      tag_90\n      jump\t// in\n    tag_89:\n        /* \"#utility.yul\":4187:4222   */\n      swap1\n      pop\n        /* \"#utility.yul\":4177:4228   */\n      swap2\n      swap1\n      pop\n      jump\t// out\n        /* \"#utility.yul\":4234:4338   */\n    tag_52:\n      0x00\n        /* \"#utility.yul\":4308:4332   */\n      tag_92\n        /* \"#utility.yul\":4326:4331   */\n      dup3\n        /* \"#utility.yul\":4308:4332   */\n      tag_90\n      jump\t// in\n    tag_92:\n        /* \"#utility.yul\":4297:4332   */\n      swap1\n      pop\n        /* \"#utility.yul\":4287:4338   */\n      swap2\n      swap1\n      pop\n      jump\t// out\n        /* \"#utility.yul\":4344:4434   */\n    tag_60:\n      0x00\n        /* \"#utility.yul\":4421:4426   */\n      dup2\n        /* \"#utility.yul\":4414:4427   */\n      iszero\n        /* \"#utility.yul\":4407:4428   */\n      iszero\n        /* \"#utility.yul\":4396:4428   */\n      swap1\n      pop\n        /* \"#utility.yul\":4386:4434   */\n      swap2\n      swap1\n      pop\n      jump\t// out\n        /* \"#utility.yul\":4440:4566   */\n    tag_90:\n      0x00\n        /* \"#utility.yul\":4517:4559   */\n      0xffffffffffffffffffffffffffffffffffffffff\n        /* \"#utility.yul\":4510:4515   */\n      dup3\n        /* \"#utility.yul\":4506:4560   */\n      and\n        /* \"#utility.yul\":4495:4560   */\n      swap1\n      pop\n        /* \"#utility.yul\":4485:4566   */\n      swap2\n      swap1\n      pop\n      jump\t// out\n        /* \"#utility.yul\":4572:4649   */\n    tag_74:\n      0x00\n        /* \"#utility.yul\":4638:4643   */\n      dup2\n        /* \"#utility.yul\":4627:4643   */\n      swap1\n      pop\n        /* \"#utility.yul\":4617:4649   */\n      swap2\n      swap1\n      pop\n      jump\t// out\n        /* \"#utility.yul\":4655:4962   */\n    tag_68:\n        /* \"#utility.yul\":4723:4724   */\n      0x00\n        /* \"#utility.yul\":4733:4846   */\n    tag_97:\n        /* \"#utility.yul\":4747:4753   */\n      dup4\n        /* \"#utility.yul\":4744:4745   */\n      dup2\n        /* \"#utility.yul\":4741:4754   */\n      lt\n        /* \"#utility.yul\":4733:4846   */\n      iszero\n      tag_99\n      jumpi\n        /* \"#utility.yul\":4832:4833   */\n      dup1\n        /* \"#utility.yul\":4827:4830   */\n      dup3\n        /* \"#utility.yul\":4823:4834   */\n      add\n        /* \"#utility.yul\":4817:4835   */\n      mload\n        /* \"#utility.yul\":4813:4814   */\n      dup2\n        /* \"#utility.yul\":4808:4811   */\n      dup5\n        /* \"#utility.yul\":4804:4815   */\n      add\n        /* \"#utility.yul\":4797:4836   */\n      mstore\n        /* \"#utility.yul\":4769:4771   */\n      0x20\n        /* \"#utility.yul\":4766:4767   */\n      dup2\n        /* \"#utility.yul\":4762:4772   */\n      add\n        /* \"#utility.yul\":4757:4772   */\n      swap1\n      pop\n        /* \"#utility.yul\":4733:4846   */\n      jump(tag_97)\n    tag_99:\n        /* \"#utility.yul\":4864:4870   */\n      dup4\n        /* \"#utility.yul\":4861:4862   */\n      dup2\n        /* \"#utility.yul\":4858:4871   */\n      gt\n        /* \"#utility.yul\":4855:4857   */\n      iszero\n      tag_100\n      jumpi\n        /* \"#utility.yul\":4944:4945   */\n      0x00\n        /* \"#utility.yul\":4935:4941   */\n      dup5\n        /* \"#utility.yul\":4930:4933   */\n      dup5\n        /* \"#utility.yul\":4926:4942   */\n      add\n        /* \"#utility.yul\":4919:4946   */\n      mstore\n        /* \"#utility.yul\":4855:4857   */\n    tag_100:\n        /* \"#utility.yul\":4704:4962   */\n      pop\n      pop\n      pop\n      pop\n      jump\t// out\n        /* \"#utility.yul\":4968:5288   */\n    tag_23:\n      0x00\n        /* \"#utility.yul\":5049:5050   */\n      0x02\n        /* \"#utility.yul\":5043:5047   */\n      dup3\n        /* \"#utility.yul\":5039:5051   */\n      div\n        /* \"#utility.yul\":5029:5051   */\n      swap1\n      pop\n        /* \"#utility.yul\":5096:5097   */\n      0x01\n        /* \"#utility.yul\":5090:5094   */\n      dup3\n        /* \"#utility.yul\":5086:5098   */\n      and\n        /* \"#utility.yul\":5117:5135   */\n      dup1\n        /* \"#utility.yul\":5107:5109   */\n      tag_102\n      jumpi\n        /* \"#utility.yul\":5173:5177   */\n      0x7f\n        /* \"#utility.yul\":5165:5171   */\n      dup3\n        /* \"#utility.yul\":5161:5178   */\n      and\n        /* \"#utility.yul\":5151:5178   */\n      swap2\n      pop\n        /* \"#utility.yul\":5107:5109   */\n    tag_102:\n        /* \"#utility.yul\":5235:5237   */\n      0x20\n        /* \"#utility.yul\":5227:5233   */\n      dup3\n        /* \"#utility.yul\":5224:5238   */\n      lt\n        /* \"#utility.yul\":5204:5222   */\n      dup2\n        /* \"#utility.yul\":5201:5239   */\n      eq\n        /* \"#utility.yul\":5198:5200   */\n      iszero\n      tag_103\n      jumpi\n        /* \"#utility.yul\":5254:5272   */\n      tag_104\n      tag_105\n      jump\t// in\n    tag_104:\n        /* \"#utility.yul\":5198:5200   */\n    tag_103:\n        /* \"#utility.yul\":5019:5288   */\n      pop\n      swap2\n      swap1\n      pop\n      jump\t// out\n        /* \"#utility.yul\":5294:5474   */\n    tag_105:\n        /* \"#utility.yul\":5342:5419   */\n      0x4e487b7100000000000000000000000000000000000000000000000000000000\n        /* \"#utility.yul\":5339:5340   */\n      0x00\n        /* \"#utility.yul\":5332:5420   */\n      mstore\n        /* \"#utility.yul\":5439:5443   */\n      0x22\n        /* \"#utility.yul\":5436:5437   */\n      0x04\n        /* \"#utility.yul\":5429:5444   */\n      mstore\n        /* \"#utility.yul\":5463:5467   */\n      0x24\n        /* \"#utility.yul\":5460:5461   */\n      0x00\n        /* \"#utility.yul\":5453:5468   */\n      revert\n        /* \"#utility.yul\":5480:5582   */\n    tag_70:\n      0x00\n        /* \"#utility.yul\":5572:5574   */\n      0x1f\n        /* \"#utility.yul\":5568:5575   */\n      not\n        /* \"#utility.yul\":5563:5565   */\n      0x1f\n        /* \"#utility.yul\":5556:5561   */\n      dup4\n        /* \"#utility.yul\":5552:5566   */\n      add\n        /* \"#utility.yul\":5548:5576   */\n      and\n        /* \"#utility.yul\":5538:5576   */\n      swap1\n      pop\n        /* \"#utility.yul\":5528:5582   */\n      swap2\n      swap1\n      pop\n      jump\t// out\n        /* \"#utility.yul\":5588:5710   */\n    tag_38:\n        /* \"#utility.yul\":5661:5685   */\n      tag_109\n        /* \"#utility.yul\":5679:5684   */\n      dup2\n        /* \"#utility.yul\":5661:5685   */\n      tag_74\n      jump\t// in\n    tag_109:\n        /* \"#utility.yul\":5654:5659   */\n      dup2\n        /* \"#utility.yul\":5651:5686   */\n      eq\n        /* \"#utility.yul\":5641:5643   */\n      tag_110\n      jumpi\n        /* \"#utility.yul\":5700:5701   */\n      0x00\n        /* \"#utility.yul\":5697:5698   */\n      dup1\n        /* \"#utility.yul\":5690:5702   */\n      revert\n        /* \"#utility.yul\":5641:5643   */\n    tag_110:\n        /* \"#utility.yul\":5631:5710   */\n      pop\n      jump\t// out\n\n    auxdata: 0xa26469706673582212201db47616eee072164ebdf9e44b1e954f735833f0face393936c7228fef18cdae64736f6c63430008000033\n}\n",
				"bytecode": {
					"linkReferences": {},
					"object": "608060405234801561001057600080fd5b50336000806101000a81548173ffffffffffffffffffffffffffffffffffffffff021916908373ffffffffffffffffffffffffffffffffffffffff160217905550610574806100606000396000f3fe608060405234801561001057600080fd5b50600436106100415760003560e01c8063571a26a0146100465780638da5cb5b1461007d578063e9835d151461009b575b600080fd5b610060600480360381019061005b919061024e565b6100b7565b604051610074989796959493929190610387565b60405180910390f35b6100856101c4565b604051610092919061036c565b60405180910390f35b6100b560048036038101906100b09190610277565b6101e8565b005b600181815481106100c757600080fd5b90600052602060002090600802016000915090508060000160009054906101000a900473ffffffffffffffffffffffffffffffffffffffff169080600101549080600201549080600301549080600401549080600501549080600601805461012e906104b5565b80601f016020809104026020016040519081016040528092919081815260200182805461015a906104b5565b80156101a75780601f1061017c576101008083540402835291602001916101a7565b820191906000526020600020905b81548152906001019060200180831161018a57829003601f168201915b5050505050908060070160009054906101000a900460ff16905088565b60008054906101000a900473ffffffffffffffffffffffffffffffffffffffff1681565b5050505050565b60008083601f84011261020157600080fd5b8235905067ffffffffffffffff81111561021a57600080fd5b60208301915083600182028301111561023257600080fd5b9250929050565b60008135905061024881610527565b92915050565b60006020828403121561026057600080fd5b600061026e84828501610239565b91505092915050565b60008060008060006080868803121561028f57600080fd5b600061029d88828901610239565b95505060206102ae88828901610239565b945050604086013567ffffffffffffffff8111156102cb57600080fd5b6102d7888289016101ef565b935093505060606102ea88828901610239565b9150509295509295909350565b6103008161043a565b82525050565b61030f81610428565b82525050565b61031e8161044c565b82525050565b600061032f8261040c565b6103398185610417565b9350610349818560208601610482565b61035281610516565b840191505092915050565b61036681610478565b82525050565b60006020820190506103816000830184610306565b92915050565b60006101008201905061039d600083018b6102f7565b6103aa602083018a61035d565b6103b7604083018961035d565b6103c4606083018861035d565b6103d1608083018761035d565b6103de60a083018661035d565b81810360c08301526103f08185610324565b90506103ff60e0830184610315565b9998505050505050505050565b600081519050919050565b600082825260208201905092915050565b600061043382610458565b9050919050565b600061044582610458565b9050919050565b60008115159050919050565b600073ffffffffffffffffffffffffffffffffffffffff82169050919050565b6000819050919050565b60005b838110156104a0578082015181840152602081019050610485565b838111156104af576000848401525b50505050565b600060028204905060018216806104cd57607f821691505b602082108114156104e1576104e06104e7565b5b50919050565b7f4e487b7100000000000000000000000000000000000000000000000000000000600052602260045260246000fd5b6000601f19601f8301169050919050565b61053081610478565b811461053b57600080fd5b5056fea26469706673582212201db47616eee072164ebdf9e44b1e954f735833f0face393936c7228fef18cdae64736f6c63430008000033",
					"opcodes": "PUSH1 0x80 PUSH1 0x40 MSTORE CALLVALUE DUP1 ISZERO PUSH2 0x10 JUMPI PUSH1 0x0 DUP1 REVERT JUMPDEST POP CALLER PUSH1 0x0 DUP1 PUSH2 0x100 EXP DUP2 SLOAD DUP2 PUSH20 0xFFFFFFFFFFFFFFFFFFFFFFFFFFFFFFFFFFFFFFFF MUL NOT AND SWAP1 DUP4 PUSH20 0xFFFFFFFFFFFFFFFFFFFFFFFFFFFFFFFFFFFFFFFF AND MUL OR SWAP1 SSTORE POP PUSH2 0x574 DUP1 PUSH2 0x60 PUSH1 0x0 CODECOPY PUSH1 0x0 RETURN INVALID PUSH1 0x80 PUSH1 0x40 MSTORE CALLVALUE DUP1 ISZERO PUSH2 0x10 JUMPI PUSH1 0x0 DUP1 REVERT JUMPDEST POP PUSH1 0x4 CALLDATASIZE LT PUSH2 0x41 JUMPI PUSH1 0x0 CALLDATALOAD PUSH1 0xE0 SHR DUP1 PUSH4 0x571A26A0 EQ PUSH2 0x46 JUMPI DUP1 PUSH4 0x8DA5CB5B EQ PUSH2 0x7D JUMPI DUP1 PUSH4 0xE9835D15 EQ PUSH2 0x9B JUMPI JUMPDEST PUSH1 0x0 DUP1 REVERT JUMPDEST PUSH2 0x60 PUSH1 0x4 DUP1 CALLDATASIZE SUB DUP2 ADD SWAP1 PUSH2 0x5B SWAP2 SWAP1 PUSH2 0x24E JUMP JUMPDEST PUSH2 0xB7 JUMP JUMPDEST PUSH1 0x40 MLOAD PUSH2 0x74 SWAP9 SWAP8 SWAP7 SWAP6 SWAP5 SWAP4 SWAP3 SWAP2 SWAP1 PUSH2 0x387 JUMP JUMPDEST PUSH1 0x40 MLOAD DUP1 SWAP2 SUB SWAP1 RETURN JUMPDEST PUSH2 0x85 PUSH2 0x1C4 JUMP JUMPDEST PUSH1 0x40 MLOAD PUSH2 0x92 SWAP2 SWAP1 PUSH2 0x36C JUMP JUMPDEST PUSH1 0x40 MLOAD DUP1 SWAP2 SUB SWAP1 RETURN JUMPDEST PUSH2 0xB5 PUSH1 0x4 DUP1 CALLDATASIZE SUB DUP2 ADD SWAP1 PUSH2 0xB0 SWAP2 SWAP1 PUSH2 0x277 JUMP JUMPDEST PUSH2 0x1E8 JUMP JUMPDEST STOP JUMPDEST PUSH1 0x1 DUP2 DUP2 SLOAD DUP2 LT PUSH2 0xC7 JUMPI PUSH1 0x0 DUP1 REVERT JUMPDEST SWAP1 PUSH1 0x0 MSTORE PUSH1 0x20 PUSH1 0x0 KECCAK256 SWAP1 PUSH1 0x8 MUL ADD PUSH1 0x0 SWAP2 POP SWAP1 POP DUP1 PUSH1 0x0 ADD PUSH1 0x0 SWAP1 SLOAD SWAP1 PUSH2 0x100 EXP SWAP1 DIV PUSH20 0xFFFFFFFFFFFFFFFFFFFFFFFFFFFFFFFFFFFFFFFF AND SWAP1 DUP1 PUSH1 0x1 ADD SLOAD SWAP1 DUP1 PUSH1 0x2 ADD SLOAD SWAP1 DUP1 PUSH1 0x3 ADD SLOAD SWAP1 DUP1 PUSH1 0x4 ADD SLOAD SWAP1 DUP1 PUSH1 0x5 ADD SLOAD SWAP1 DUP1 PUSH1 0x6 ADD DUP1 SLOAD PUSH2 0x12E SWAP1 PUSH2 0x4B5 JUMP JUMPDEST DUP1 PUSH1 0x1F ADD PUSH1 0x20 DUP1 SWAP2 DIV MUL PUSH1 0x20 ADD PUSH1 0x40 MLOAD SWAP1 DUP2 ADD PUSH1 0x40 MSTORE DUP1 SWAP3 SWAP2 SWAP1 DUP2 DUP2 MSTORE PUSH1 0x20 ADD DUP3 DUP1 SLOAD PUSH2 0x15A SWAP1 PUSH2 0x4B5 JUMP JUMPDEST DUP1 ISZERO PUSH2 0x1A7 JUMPI DUP1 PUSH1 0x1F LT PUSH2 0x17C JUMPI PUSH2 0x100 DUP1 DUP4 SLOAD DIV MUL DUP4 MSTORE SWAP2 PUSH1 0x20 ADD SWAP2 PUSH2 0x1A7 JUMP JUMPDEST DUP3 ADD SWAP2 SWAP1 PUSH1 0x0 MSTORE PUSH1 0x20 PUSH1 0x0 KECCAK256 SWAP1 JUMPDEST DUP2 SLOAD DUP2 MSTORE SWAP1 PUSH1 0x1 ADD SWAP1 PUSH1 0x20 ADD DUP1 DUP4 GT PUSH2 0x18A JUMPI DUP3 SWAP1 SUB PUSH1 0x1F AND DUP3 ADD SWAP2 JUMPDEST POP POP POP POP POP SWAP1 DUP1 PUSH1 0x7 ADD PUSH1 0x0 SWAP1 SLOAD SWAP1 PUSH2 0x100 EXP SWAP1 DIV PUSH1 0xFF AND SWAP1 POP DUP9 JUMP JUMPDEST PUSH1 0x0 DUP1 SLOAD SWAP1 PUSH2 0x100 EXP SWAP1 DIV PUSH20 0xFFFFFFFFFFFFFFFFFFFFFFFFFFFFFFFFFFFFFFFF AND DUP2 JUMP JUMPDEST POP POP POP POP POP JUMP JUMPDEST PUSH1 0x0 DUP1 DUP4 PUSH1 0x1F DUP5 ADD SLT PUSH2 0x201 JUMPI PUSH1 0x0 DUP1 REVERT JUMPDEST DUP3 CALLDATALOAD SWAP1 POP PUSH8 0xFFFFFFFFFFFFFFFF DUP2 GT ISZERO PUSH2 0x21A JUMPI PUSH1 0x0 DUP1 REVERT JUMPDEST PUSH1 0x20 DUP4 ADD SWAP2 POP DUP4 PUSH1 0x1 DUP3 MUL DUP4 ADD GT ISZERO PUSH2 0x232 JUMPI PUSH1 0x0 DUP1 REVERT JUMPDEST SWAP3 POP SWAP3 SWAP1 POP JUMP JUMPDEST PUSH1 0x0 DUP2 CALLDATALOAD SWAP1 POP PUSH2 0x248 DUP2 PUSH2 0x527 JUMP JUMPDEST SWAP3 SWAP2 POP POP JUMP JUMPDEST PUSH1 0x0 PUSH1 0x20 DUP3 DUP5 SUB SLT ISZERO PUSH2 0x260 JUMPI PUSH1 0x0 DUP1 REVERT JUMPDEST PUSH1 0x0 PUSH2 0x26E DUP5 DUP3 DUP6 ADD PUSH2 0x239 JUMP JUMPDEST SWAP2 POP POP SWAP3 SWAP2 POP POP JUMP JUMPDEST PUSH1 0x0 DUP1 PUSH1 0x0 DUP1 PUSH1 0x0 PUSH1 0x80 DUP7 DUP9 SUB SLT ISZERO PUSH2 0x28F JUMPI PUSH1 0x0 DUP1 REVERT JUMPDEST PUSH1 0x0 PUSH2 0x29D DUP9 DUP3 DUP10 ADD PUSH2 0x239 JUMP JUMPDEST SWAP6 POP POP PUSH1 0x20 PUSH2 0x2AE DUP9 DUP3 DUP10 ADD PUSH2 0x239 JUMP JUMPDEST SWAP5 POP POP PUSH1 0x40 DUP7 ADD CALLDATALOAD PUSH8 0xFFFFFFFFFFFFFFFF DUP2 GT ISZERO PUSH2 0x2CB JUMPI PUSH1 0x0 DUP1 REVERT JUMPDEST PUSH2 0x2D7 DUP9 DUP3 DUP10 ADD PUSH2 0x1EF JUMP JUMPDEST SWAP4 POP SWAP4 POP POP PUSH1 0x60 PUSH2 0x2EA DUP9 DUP3 DUP10 ADD PUSH2 0x239 JUMP JUMPDEST SWAP2 POP POP SWAP3 SWAP6 POP SWAP3 SWAP6 SWAP1 SWAP4 POP JUMP JUMPDEST PUSH2 0x300 DUP2 PUSH2 0x43A JUMP JUMPDEST DUP3 MSTORE POP POP JUMP JUMPDEST PUSH2 0x30F DUP2 PUSH2 0x428 JUMP JUMPDEST DUP3 MSTORE POP POP JUMP JUMPDEST PUSH2 0x31E DUP2 PUSH2 0x44C JUMP JUMPDEST DUP3 MSTORE POP POP JUMP JUMPDEST PUSH1 0x0 PUSH2 0x32F DUP3 PUSH2 0x40C JUMP JUMPDEST PUSH2 0x339 DUP2 DUP6 PUSH2 0x417 JUMP JUMPDEST SWAP4 POP PUSH2 0x349 DUP2 DUP6 PUSH1 0x20 DUP7 ADD PUSH2 0x482 JUMP JUMPDEST PUSH2 0x352 DUP2 PUSH2 0x516 JUMP JUMPDEST DUP5 ADD SWAP2 POP POP SWAP3 SWAP2 POP POP JUMP JUMPDEST PUSH2 0x366 DUP2 PUSH2 0x478 JUMP JUMPDEST DUP3 MSTORE POP POP JUMP JUMPDEST PUSH1 0x0 PUSH1 0x20 DUP3 ADD SWAP1 POP PUSH2 0x381 PUSH1 0x0 DUP4 ADD DUP5 PUSH2 0x306 JUMP JUMPDEST SWAP3 SWAP2 POP POP JUMP JUMPDEST PUSH1 0x0 PUSH2 0x100 DUP3 ADD SWAP1 POP PUSH2 0x39D PUSH1 0x0 DUP4 ADD DUP12 PUSH2 0x2F7 JUMP JUMPDEST PUSH2 0x3AA PUSH1 0x20 DUP4 ADD DUP11 PUSH2 0x35D JUMP JUMPDEST PUSH2 0x3B7 PUSH1 0x40 DUP4 ADD DUP10 PUSH2 0x35D JUMP JUMPDEST PUSH2 0x3C4 PUSH1 0x60 DUP4 ADD DUP9 PUSH2 0x35D JUMP JUMPDEST PUSH2 0x3D1 PUSH1 0x80 DUP4 ADD DUP8 PUSH2 0x35D JUMP JUMPDEST PUSH2 0x3DE PUSH1 0xA0 DUP4 ADD DUP7 PUSH2 0x35D JUMP JUMPDEST DUP2 DUP2 SUB PUSH1 0xC0 DUP4 ADD MSTORE PUSH2 0x3F0 DUP2 DUP6 PUSH2 0x324 JUMP JUMPDEST SWAP1 POP PUSH2 0x3FF PUSH1 0xE0 DUP4 ADD DUP5 PUSH2 0x315 JUMP JUMPDEST SWAP10 SWAP9 POP POP POP POP POP POP POP POP POP JUMP JUMPDEST PUSH1 0x0 DUP2 MLOAD SWAP1 POP SWAP2 SWAP1 POP JUMP JUMPDEST PUSH1 0x0 DUP3 DUP3 MSTORE PUSH1 0x20 DUP3 ADD SWAP1 POP SWAP3 SWAP2 POP POP JUMP JUMPDEST PUSH1 0x0 PUSH2 0x433 DUP3 PUSH2 0x458 JUMP JUMPDEST SWAP1 POP SWAP2 SWAP1 POP JUMP JUMPDEST PUSH1 0x0 PUSH2 0x445 DUP3 PUSH2 0x458 JUMP JUMPDEST SWAP1 POP SWAP2 SWAP1 POP JUMP JUMPDEST PUSH1 0x0 DUP2 ISZERO ISZERO SWAP1 POP SWAP2 SWAP1 POP JUMP JUMPDEST PUSH1 0x0 PUSH20 0xFFFFFFFFFFFFFFFFFFFFFFFFFFFFFFFFFFFFFFFF DUP3 AND SWAP1 POP SWAP2 SWAP1 POP JUMP JUMPDEST PUSH1 0x0 DUP2 SWAP1 POP SWAP2 SWAP1 POP JUMP JUMPDEST PUSH1 0x0 JUMPDEST DUP4 DUP2 LT ISZERO PUSH2 0x4A0 JUMPI DUP1 DUP3 ADD MLOAD DUP2 DUP5 ADD MSTORE PUSH1 0x20 DUP2 ADD SWAP1 POP PUSH2 0x485 JUMP JUMPDEST DUP4 DUP2 GT ISZERO PUSH2 0x4AF JUMPI PUSH1 0x0 DUP5 DUP5 ADD MSTORE JUMPDEST POP POP POP POP JUMP JUMPDEST PUSH1 0x0 PUSH1 0x2 DUP3 DIV SWAP1 POP PUSH1 0x1 DUP3 AND DUP1 PUSH2 0x4CD JUMPI PUSH1 0x7F DUP3 AND SWAP2 POP JUMPDEST PUSH1 0x20 DUP3 LT DUP2 EQ ISZERO PUSH2 0x4E1 JUMPI PUSH2 0x4E0 PUSH2 0x4E7 JUMP JUMPDEST JUMPDEST POP SWAP2 SWAP1 POP JUMP JUMPDEST PUSH32 0x4E487B7100000000000000000000000000000000000000000000000000000000 PUSH1 0x0 MSTORE PUSH1 0x22 PUSH1 0x4 MSTORE PUSH1 0x24 PUSH1 0x0 REVERT JUMPDEST PUSH1 0x0 PUSH1 0x1F NOT PUSH1 0x1F DUP4 ADD AND SWAP1 POP SWAP2 SWAP1 POP JUMP JUMPDEST PUSH2 0x530 DUP2 PUSH2 0x478 JUMP JUMPDEST DUP2 EQ PUSH2 0x53B JUMPI PUSH1 0x0 DUP1 REVERT JUMPDEST POP JUMP INVALID LOG2 PUSH5 0x6970667358 0x22 SLT KECCAK256 SAR 0xB4 PUSH23 0x16EEE072164EBDF9E44B1E954F735833F0FACE393936C7 0x22 DUP16 0xEF XOR 0xCD 0xAE PUSH5 0x736F6C6343 STOP ADDMOD STOP STOP CALLER "
				},
				"gasEstimates": {
					"creation": {
						"codeDepositCost": "279200",
						"executionCost": "21184",
						"totalCost": "300384"
					},
					"external": {
						"auctions(uint256)": "infinite",
						"createAuction(uint256,uint256,string,uint256)": "infinite",
						"owner()": "1211"
					}
				},
				"methodIdentifiers": {
					"auctions(uint256)": "571a26a0",
					"createAuction(uint256,uint256,string,uint256)": "e9835d15",
					"owner()": "8da5cb5b"
				}
			},
			"storageLayout": {
				"storage": [
					{
						"astId": 3,
						"contract": "coin.sol:AucEngine",
						"label": "owner",
						"offset": 0,
						"slot": "0",
						"type": "t_address"
					},
					{
						"astId": 30,
						"contract": "coin.sol:AucEngine",
						"label": "auctions",
						"offset": 0,
						"slot": "1",
						"type": "t_array(t_struct(Auction)26_storage)dyn_storage"
					}
				],
				"types": {
					"t_address": {
						"encoding": "inplace",
						"label": "address",
						"numberOfBytes": "20"
					},
					"t_address_payable": {
						"encoding": "inplace",
						"label": "address payable",
						"numberOfBytes": "20"
					},
					"t_array(t_struct(Auction)26_storage)dyn_storage": {
						"base": "t_struct(Auction)26_storage",
						"encoding": "dynamic_array",
						"label": "struct AucEngine.Auction[]",
						"numberOfBytes": "32"
					},
					"t_bool": {
						"encoding": "inplace",
						"label": "bool",
						"numberOfBytes": "1"
					},
					"t_string_storage": {
						"encoding": "bytes",
						"label": "string",
						"numberOfBytes": "32"
					},
					"t_struct(Auction)26_storage": {
						"encoding": "inplace",
						"label": "struct AucEngine.Auction",
						"members": [
							{
								"astId": 11,
								"contract": "coin.sol:AucEngine",
								"label": "seller",
								"offset": 0,
								"slot": "0",
								"type": "t_address_payable"
							},
							{
								"astId": 13,
								"contract": "coin.sol:AucEngine",
								"label": "startingPrice",
								"offset": 0,
								"slot": "1",
								"type": "t_uint256"
							},
							{
								"astId": 15,
								"contract": "coin.sol:AucEngine",
								"label": "finalPrice",
								"offset": 0,
								"slot": "2",
								"type": "t_uint256"
							},
							{
								"astId": 17,
								"contract": "coin.sol:AucEngine",
								"label": "startAt",
								"offset": 0,
								"slot": "3",
								"type": "t_uint256"
							},
							{
								"astId": 19,
								"contract": "coin.sol:AucEngine",
								"label": "endsAt",
								"offset": 0,
								"slot": "4",
								"type": "t_uint256"
							},
							{
								"astId": 21,
								"contract": "coin.sol:AucEngine",
								"label": "discountRate",
								"offset": 0,
								"slot": "5",
								"type": "t_uint256"
							},
							{
								"astId": 23,
								"contract": "coin.sol:AucEngine",
								"label": "item",
								"offset": 0,
								"slot": "6",
								"type": "t_string_storage"
							},
							{
								"astId": 25,
								"contract": "coin.sol:AucEngine",
								"label": "stopped",
								"offset": 0,
								"slot": "7",
								"type": "t_bool"
							}
						],
						"numberOfBytes": "256"
					},
					"t_uint256": {
						"encoding": "inplace",
						"label": "uint256",
						"numberOfBytes": "32"
					}
				}
			},
			"userdoc": {
				"kind": "user",
				"methods": {},
				"version": 1
			}
		}
	}
}