{
	"coin.sol": {
		"AucEngine": {
			"abi": [
				{
					"inputs": [],
					"stateMutability": "nonpayable",
					"type": "constructor"
				},
				{
					"inputs": [
						{
							"internalType": "uint256",
							"name": "",
							"type": "uint256"
						}
					],
					"name": "auctions",
					"outputs": [
						{
							"internalType": "address payable",
							"name": "seller",
							"type": "address"
						},
						{
							"internalType": "uint256",
							"name": "startingPrice",
							"type": "uint256"
						},
						{
							"internalType": "uint256",
							"name": "finalPrice",
							"type": "uint256"
						},
						{
							"internalType": "uint256",
							"name": "startAt",
							"type": "uint256"
						},
						{
							"internalType": "uint256",
							"name": "endsAt",
							"type": "uint256"
						},
						{
							"internalType": "uint256",
							"name": "discountRate",
							"type": "uint256"
						},
						{
							"internalType": "string",
							"name": "item",
							"type": "string"
						},
						{
							"internalType": "bool",
							"name": "stopped",
							"type": "bool"
						}
					],
					"stateMutability": "view",
					"type": "function"
				},
				{
					"inputs": [
						{
							"internalType": "uint256",
							"name": "_startingPrice",
							"type": "uint256"
						},
						{
							"internalType": "uint256",
							"name": "_discountRate",
							"type": "uint256"
						},
						{
							"internalType": "string",
							"name": "_item",
							"type": "string"
						}
					],
					"name": "createAuction",
					"outputs": [],
					"stateMutability": "nonpayable",
					"type": "function"
				},
				{
					"inputs": [],
					"name": "owner",
					"outputs": [
						{
							"internalType": "address",
							"name": "",
							"type": "address"
						}
					],
					"stateMutability": "view",
					"type": "function"
				}
			],
			"devdoc": {
				"kind": "dev",
				"methods": {},
				"version": 1
			},
			"evm": {
				"assembly": "    /* \"coin.sol\":68:650  contract AucEngine {\r... */\n  mstore(0x40, 0x80)\n    /* \"coin.sol\":469:521  constructor()  {\r... */\n  callvalue\n  dup1\n  iszero\n  tag_1\n  jumpi\n  0x00\n  dup1\n  revert\ntag_1:\n  pop\n    /* \"coin.sol\":503:513  msg.sender */\n  caller\n    /* \"coin.sol\":495:500  owner */\n  0x00\n  dup1\n    /* \"coin.sol\":495:513  owner = msg.sender */\n  0x0100\n  exp\n  dup2\n  sload\n  dup2\n  0xffffffffffffffffffffffffffffffffffffffff\n  mul\n  not\n  and\n  swap1\n  dup4\n  0xffffffffffffffffffffffffffffffffffffffff\n  and\n  mul\n  or\n  swap1\n  sstore\n  pop\n    /* \"coin.sol\":68:650  contract AucEngine {\r... */\n  dataSize(sub_0)\n  dup1\n  dataOffset(sub_0)\n  0x00\n  codecopy\n  0x00\n  return\nstop\n\nsub_0: assembly {\n        /* \"coin.sol\":68:650  contract AucEngine {\r... */\n      mstore(0x40, 0x80)\n      callvalue\n      dup1\n      iszero\n      tag_1\n      jumpi\n      0x00\n      dup1\n      revert\n    tag_1:\n      pop\n      jumpi(tag_2, lt(calldatasize, 0x04))\n      shr(0xe0, calldataload(0x00))\n      dup1\n      0x4736b359\n      eq\n      tag_3\n      jumpi\n      dup1\n      0x571a26a0\n      eq\n      tag_4\n      jumpi\n      dup1\n      0x8da5cb5b\n      eq\n      tag_5\n      jumpi\n    tag_2:\n      0x00\n      dup1\n      revert\n        /* \"coin.sol\":533:639  function createAuction(uint _startingPrice, uint _discountRate, string calldata _item) external {\r... */\n    tag_3:\n      tag_6\n      0x04\n      dup1\n      calldatasize\n      sub\n      dup2\n      add\n      swap1\n      tag_7\n      swap2\n      swap1\n      tag_8\n      jump\t// in\n    tag_7:\n      tag_9\n      jump\t// in\n    tag_6:\n      stop\n        /* \"coin.sol\":433:458  Auction[] public auctions */\n    tag_4:\n      tag_10\n      0x04\n      dup1\n      calldatasize\n      sub\n      dup2\n      add\n      swap1\n      tag_11\n      swap2\n      swap1\n      tag_12\n      jump\t// in\n    tag_11:\n      tag_13\n      jump\t// in\n    tag_10:\n      mload(0x40)\n      tag_14\n      swap9\n      swap8\n      swap7\n      swap6\n      swap5\n      swap4\n      swap3\n      swap2\n      swap1\n      tag_15\n      jump\t// in\n    tag_14:\n      mload(0x40)\n      dup1\n      swap2\n      sub\n      swap1\n      return\n        /* \"coin.sol\":94:114  address public owner */\n    tag_5:\n      tag_16\n      tag_17\n      jump\t// in\n    tag_16:\n      mload(0x40)\n      tag_18\n      swap2\n      swap1\n      tag_19\n      jump\t// in\n    tag_18:\n      mload(0x40)\n      dup1\n      swap2\n      sub\n      swap1\n      return\n        /* \"coin.sol\":533:639  function createAuction(uint _startingPrice, uint _discountRate, string calldata _item) external {\r... */\n    tag_9:\n      pop\n      pop\n      pop\n      pop\n      jump\t// out\n        /* \"coin.sol\":433:458  Auction[] public auctions */\n    tag_13:\n      0x01\n      dup2\n      dup2\n      sload\n      dup2\n      lt\n      tag_21\n      jumpi\n      0x00\n      dup1\n      revert\n    tag_21:\n      swap1\n      0x00\n      mstore\n      keccak256(0x00, 0x20)\n      swap1\n      0x08\n      mul\n      add\n      0x00\n      swap2\n      pop\n      swap1\n      pop\n      dup1\n      0x00\n      add\n      0x00\n      swap1\n      sload\n      swap1\n      0x0100\n      exp\n      swap1\n      div\n      0xffffffffffffffffffffffffffffffffffffffff\n      and\n      swap1\n      dup1\n      0x01\n      add\n      sload\n      swap1\n      dup1\n      0x02\n      add\n      sload\n      swap1\n      dup1\n      0x03\n      add\n      sload\n      swap1\n      dup1\n      0x04\n      add\n      sload\n      swap1\n      dup1\n      0x05\n      add\n      sload\n      swap1\n      dup1\n      0x06\n      add\n      dup1\n      sload\n      tag_23\n      swap1\n      tag_24\n      jump\t// in\n    tag_23:\n      dup1\n      0x1f\n      add\n      0x20\n      dup1\n      swap2\n      div\n      mul\n      0x20\n      add\n      mload(0x40)\n      swap1\n      dup2\n      add\n      0x40\n      mstore\n      dup1\n      swap3\n      swap2\n      swap1\n      dup2\n      dup2\n      mstore\n      0x20\n      add\n      dup3\n      dup1\n      sload\n      tag_25\n      swap1\n      tag_24\n      jump\t// in\n    tag_25:\n      dup1\n      iszero\n      tag_26\n      jumpi\n      dup1\n      0x1f\n      lt\n      tag_27\n      jumpi\n      0x0100\n      dup1\n      dup4\n      sload\n      div\n      mul\n      dup4\n      mstore\n      swap2\n      0x20\n      add\n      swap2\n      jump(tag_26)\n    tag_27:\n      dup3\n      add\n      swap2\n      swap1\n      0x00\n      mstore\n      keccak256(0x00, 0x20)\n      swap1\n    tag_28:\n      dup2\n      sload\n      dup2\n      mstore\n      swap1\n      0x01\n      add\n      swap1\n      0x20\n      add\n      dup1\n      dup4\n      gt\n      tag_28\n      jumpi\n      dup3\n      swap1\n      sub\n      0x1f\n      and\n      dup3\n      add\n      swap2\n    tag_26:\n      pop\n      pop\n      pop\n      pop\n      pop\n      swap1\n      dup1\n      0x07\n      add\n      0x00\n      swap1\n      sload\n      swap1\n      0x0100\n      exp\n      swap1\n      div\n      0xff\n      and\n      swap1\n      pop\n      dup9\n      jump\t// out\n        /* \"coin.sol\":94:114  address public owner */\n    tag_17:\n      0x00\n      dup1\n      sload\n      swap1\n      0x0100\n      exp\n      swap1\n      div\n      0xffffffffffffffffffffffffffffffffffffffff\n      and\n      dup2\n      jump\t// out\n        /* \"#utility.yul\":21:373   */\n    tag_30:\n      0x00\n      dup1\n        /* \"#utility.yul\":139:142   */\n      dup4\n        /* \"#utility.yul\":132:136   */\n      0x1f\n        /* \"#utility.yul\":124:130   */\n      dup5\n        /* \"#utility.yul\":120:137   */\n      add\n        /* \"#utility.yul\":116:143   */\n      slt\n        /* \"#utility.yul\":106:108   */\n      tag_32\n      jumpi\n        /* \"#utility.yul\":157:158   */\n      0x00\n        /* \"#utility.yul\":154:155   */\n      dup1\n        /* \"#utility.yul\":147:159   */\n      revert\n        /* \"#utility.yul\":106:108   */\n    tag_32:\n        /* \"#utility.yul\":193:199   */\n      dup3\n        /* \"#utility.yul\":180:200   */\n      calldataload\n        /* \"#utility.yul\":170:200   */\n      swap1\n      pop\n        /* \"#utility.yul\":223:241   */\n      0xffffffffffffffff\n        /* \"#utility.yul\":215:221   */\n      dup2\n        /* \"#utility.yul\":212:242   */\n      gt\n        /* \"#utility.yul\":209:211   */\n      iszero\n      tag_33\n      jumpi\n        /* \"#utility.yul\":255:256   */\n      0x00\n        /* \"#utility.yul\":252:253   */\n      dup1\n        /* \"#utility.yul\":245:257   */\n      revert\n        /* \"#utility.yul\":209:211   */\n    tag_33:\n        /* \"#utility.yul\":292:296   */\n      0x20\n        /* \"#utility.yul\":284:290   */\n      dup4\n        /* \"#utility.yul\":280:297   */\n      add\n        /* \"#utility.yul\":268:297   */\n      swap2\n      pop\n        /* \"#utility.yul\":346:349   */\n      dup4\n        /* \"#utility.yul\":338:342   */\n      0x01\n        /* \"#utility.yul\":330:336   */\n      dup3\n        /* \"#utility.yul\":326:343   */\n      mul\n        /* \"#utility.yul\":316:324   */\n      dup4\n        /* \"#utility.yul\":312:344   */\n      add\n        /* \"#utility.yul\":309:350   */\n      gt\n        /* \"#utility.yul\":306:308   */\n      iszero\n      tag_34\n      jumpi\n        /* \"#utility.yul\":363:364   */\n      0x00\n        /* \"#utility.yul\":360:361   */\n      dup1\n        /* \"#utility.yul\":353:365   */\n      revert\n        /* \"#utility.yul\":306:308   */\n    tag_34:\n        /* \"#utility.yul\":96:373   */\n      swap3\n      pop\n      swap3\n      swap1\n      pop\n      jump\t// out\n        /* \"#utility.yul\":379:518   */\n    tag_35:\n      0x00\n        /* \"#utility.yul\":463:469   */\n      dup2\n        /* \"#utility.yul\":450:470   */\n      calldataload\n        /* \"#utility.yul\":441:470   */\n      swap1\n      pop\n        /* \"#utility.yul\":479:512   */\n      tag_37\n        /* \"#utility.yul\":506:511   */\n      dup2\n        /* \"#utility.yul\":479:512   */\n      tag_38\n      jump\t// in\n    tag_37:\n        /* \"#utility.yul\":431:518   */\n      swap3\n      swap2\n      pop\n      pop\n      jump\t// out\n        /* \"#utility.yul\":524:786   */\n    tag_12:\n      0x00\n        /* \"#utility.yul\":632:634   */\n      0x20\n        /* \"#utility.yul\":620:629   */\n      dup3\n        /* \"#utility.yul\":611:618   */\n      dup5\n        /* \"#utility.yul\":607:630   */\n      sub\n        /* \"#utility.yul\":603:635   */\n      slt\n        /* \"#utility.yul\":600:602   */\n      iszero\n      tag_40\n      jumpi\n        /* \"#utility.yul\":648:649   */\n      0x00\n        /* \"#utility.yul\":645:646   */\n      dup1\n        /* \"#utility.yul\":638:650   */\n      revert\n        /* \"#utility.yul\":600:602   */\n    tag_40:\n        /* \"#utility.yul\":691:692   */\n      0x00\n        /* \"#utility.yul\":716:769   */\n      tag_41\n        /* \"#utility.yul\":761:768   */\n      dup5\n        /* \"#utility.yul\":752:758   */\n      dup3\n        /* \"#utility.yul\":741:750   */\n      dup6\n        /* \"#utility.yul\":737:759   */\n      add\n        /* \"#utility.yul\":716:769   */\n      tag_35\n      jump\t// in\n    tag_41:\n        /* \"#utility.yul\":706:769   */\n      swap2\n      pop\n        /* \"#utility.yul\":662:779   */\n      pop\n        /* \"#utility.yul\":590:786   */\n      swap3\n      swap2\n      pop\n      pop\n      jump\t// out\n        /* \"#utility.yul\":792:1477   */\n    tag_8:\n      0x00\n      dup1\n      0x00\n      dup1\n        /* \"#utility.yul\":954:956   */\n      0x60\n        /* \"#utility.yul\":942:951   */\n      dup6\n        /* \"#utility.yul\":933:940   */\n      dup8\n        /* \"#utility.yul\":929:952   */\n      sub\n        /* \"#utility.yul\":925:957   */\n      slt\n        /* \"#utility.yul\":922:924   */\n      iszero\n      tag_43\n      jumpi\n        /* \"#utility.yul\":970:971   */\n      0x00\n        /* \"#utility.yul\":967:968   */\n      dup1\n        /* \"#utility.yul\":960:972   */\n      revert\n        /* \"#utility.yul\":922:924   */\n    tag_43:\n        /* \"#utility.yul\":1013:1014   */\n      0x00\n        /* \"#utility.yul\":1038:1091   */\n      tag_44\n        /* \"#utility.yul\":1083:1090   */\n      dup8\n        /* \"#utility.yul\":1074:1080   */\n      dup3\n        /* \"#utility.yul\":1063:1072   */\n      dup9\n        /* \"#utility.yul\":1059:1081   */\n      add\n        /* \"#utility.yul\":1038:1091   */\n      tag_35\n      jump\t// in\n    tag_44:\n        /* \"#utility.yul\":1028:1091   */\n      swap5\n      pop\n        /* \"#utility.yul\":984:1101   */\n      pop\n        /* \"#utility.yul\":1140:1142   */\n      0x20\n        /* \"#utility.yul\":1166:1219   */\n      tag_45\n        /* \"#utility.yul\":1211:1218   */\n      dup8\n        /* \"#utility.yul\":1202:1208   */\n      dup3\n        /* \"#utility.yul\":1191:1200   */\n      dup9\n        /* \"#utility.yul\":1187:1209   */\n      add\n        /* \"#utility.yul\":1166:1219   */\n      tag_35\n      jump\t// in\n    tag_45:\n        /* \"#utility.yul\":1156:1219   */\n      swap4\n      pop\n        /* \"#utility.yul\":1111:1229   */\n      pop\n        /* \"#utility.yul\":1296:1298   */\n      0x40\n        /* \"#utility.yul\":1285:1294   */\n      dup6\n        /* \"#utility.yul\":1281:1299   */\n      add\n        /* \"#utility.yul\":1268:1300   */\n      calldataload\n        /* \"#utility.yul\":1327:1345   */\n      0xffffffffffffffff\n        /* \"#utility.yul\":1319:1325   */\n      dup2\n        /* \"#utility.yul\":1316:1346   */\n      gt\n        /* \"#utility.yul\":1313:1315   */\n      iszero\n      tag_46\n      jumpi\n        /* \"#utility.yul\":1359:1360   */\n      0x00\n        /* \"#utility.yul\":1356:1357   */\n      dup1\n        /* \"#utility.yul\":1349:1361   */\n      revert\n        /* \"#utility.yul\":1313:1315   */\n    tag_46:\n        /* \"#utility.yul\":1395:1460   */\n      tag_47\n        /* \"#utility.yul\":1452:1459   */\n      dup8\n        /* \"#utility.yul\":1443:1449   */\n      dup3\n        /* \"#utility.yul\":1432:1441   */\n      dup9\n        /* \"#utility.yul\":1428:1450   */\n      add\n        /* \"#utility.yul\":1395:1460   */\n      tag_30\n      jump\t// in\n    tag_47:\n        /* \"#utility.yul\":1377:1460   */\n      swap3\n      pop\n      swap3\n      pop\n        /* \"#utility.yul\":1239:1470   */\n      pop\n        /* \"#utility.yul\":912:1477   */\n      swap3\n      swap6\n      swap2\n      swap5\n      pop\n      swap3\n      pop\n      jump\t// out\n        /* \"#utility.yul\":1483:1625   */\n    tag_48:\n        /* \"#utility.yul\":1586:1618   */\n      tag_50\n        /* \"#utility.yul\":1612:1617   */\n      dup2\n        /* \"#utility.yul\":1586:1618   */\n      tag_51\n      jump\t// in\n    tag_50:\n        /* \"#utility.yul\":1581:1584   */\n      dup3\n        /* \"#utility.yul\":1574:1619   */\n      mstore\n        /* \"#utility.yul\":1564:1625   */\n      pop\n      pop\n      jump\t// out\n        /* \"#utility.yul\":1631:1749   */\n    tag_52:\n        /* \"#utility.yul\":1718:1742   */\n      tag_54\n        /* \"#utility.yul\":1736:1741   */\n      dup2\n        /* \"#utility.yul\":1718:1742   */\n      tag_55\n      jump\t// in\n    tag_54:\n        /* \"#utility.yul\":1713:1716   */\n      dup3\n        /* \"#utility.yul\":1706:1743   */\n      mstore\n        /* \"#utility.yul\":1696:1749   */\n      pop\n      pop\n      jump\t// out\n        /* \"#utility.yul\":1755:1864   */\n    tag_56:\n        /* \"#utility.yul\":1836:1857   */\n      tag_58\n        /* \"#utility.yul\":1851:1856   */\n      dup2\n        /* \"#utility.yul\":1836:1857   */\n      tag_59\n      jump\t// in\n    tag_58:\n        /* \"#utility.yul\":1831:1834   */\n      dup3\n        /* \"#utility.yul\":1824:1858   */\n      mstore\n        /* \"#utility.yul\":1814:1864   */\n      pop\n      pop\n      jump\t// out\n        /* \"#utility.yul\":1870:2234   */\n    tag_60:\n      0x00\n        /* \"#utility.yul\":1986:2025   */\n      tag_62\n        /* \"#utility.yul\":2019:2024   */\n      dup3\n        /* \"#utility.yul\":1986:2025   */\n      tag_63\n      jump\t// in\n    tag_62:\n        /* \"#utility.yul\":2041:2112   */\n      tag_64\n        /* \"#utility.yul\":2105:2111   */\n      dup2\n        /* \"#utility.yul\":2100:2103   */\n      dup6\n        /* \"#utility.yul\":2041:2112   */\n      tag_65\n      jump\t// in\n    tag_64:\n        /* \"#utility.yul\":2034:2112   */\n      swap4\n      pop\n        /* \"#utility.yul\":2121:2173   */\n      tag_66\n        /* \"#utility.yul\":2166:2172   */\n      dup2\n        /* \"#utility.yul\":2161:2164   */\n      dup6\n        /* \"#utility.yul\":2154:2158   */\n      0x20\n        /* \"#utility.yul\":2147:2152   */\n      dup7\n        /* \"#utility.yul\":2143:2159   */\n      add\n        /* \"#utility.yul\":2121:2173   */\n      tag_67\n      jump\t// in\n    tag_66:\n        /* \"#utility.yul\":2198:2227   */\n      tag_68\n        /* \"#utility.yul\":2220:2226   */\n      dup2\n        /* \"#utility.yul\":2198:2227   */\n      tag_69\n      jump\t// in\n    tag_68:\n        /* \"#utility.yul\":2193:2196   */\n      dup5\n        /* \"#utility.yul\":2189:2228   */\n      add\n        /* \"#utility.yul\":2182:2228   */\n      swap2\n      pop\n        /* \"#utility.yul\":1962:2234   */\n      pop\n      swap3\n      swap2\n      pop\n      pop\n      jump\t// out\n        /* \"#utility.yul\":2240:2358   */\n    tag_70:\n        /* \"#utility.yul\":2327:2351   */\n      tag_72\n        /* \"#utility.yul\":2345:2350   */\n      dup2\n        /* \"#utility.yul\":2327:2351   */\n      tag_73\n      jump\t// in\n    tag_72:\n        /* \"#utility.yul\":2322:2325   */\n      dup3\n        /* \"#utility.yul\":2315:2352   */\n      mstore\n        /* \"#utility.yul\":2305:2358   */\n      pop\n      pop\n      jump\t// out\n        /* \"#utility.yul\":2364:2586   */\n    tag_19:\n      0x00\n        /* \"#utility.yul\":2495:2497   */\n      0x20\n        /* \"#utility.yul\":2484:2493   */\n      dup3\n        /* \"#utility.yul\":2480:2498   */\n      add\n        /* \"#utility.yul\":2472:2498   */\n      swap1\n      pop\n        /* \"#utility.yul\":2508:2579   */\n      tag_75\n        /* \"#utility.yul\":2576:2577   */\n      0x00\n        /* \"#utility.yul\":2565:2574   */\n      dup4\n        /* \"#utility.yul\":2561:2578   */\n      add\n        /* \"#utility.yul\":2552:2558   */\n      dup5\n        /* \"#utility.yul\":2508:2579   */\n      tag_52\n      jump\t// in\n    tag_75:\n        /* \"#utility.yul\":2462:2586   */\n      swap3\n      swap2\n      pop\n      pop\n      jump\t// out\n        /* \"#utility.yul\":2592:3700   */\n    tag_15:\n      0x00\n        /* \"#utility.yul\":2949:2952   */\n      0x0100\n        /* \"#utility.yul\":2938:2947   */\n      dup3\n        /* \"#utility.yul\":2934:2953   */\n      add\n        /* \"#utility.yul\":2926:2953   */\n      swap1\n      pop\n        /* \"#utility.yul\":2963:3050   */\n      tag_77\n        /* \"#utility.yul\":3047:3048   */\n      0x00\n        /* \"#utility.yul\":3036:3045   */\n      dup4\n        /* \"#utility.yul\":3032:3049   */\n      add\n        /* \"#utility.yul\":3023:3029   */\n      dup12\n        /* \"#utility.yul\":2963:3050   */\n      tag_48\n      jump\t// in\n    tag_77:\n        /* \"#utility.yul\":3060:3132   */\n      tag_78\n        /* \"#utility.yul\":3128:3130   */\n      0x20\n        /* \"#utility.yul\":3117:3126   */\n      dup4\n        /* \"#utility.yul\":3113:3131   */\n      add\n        /* \"#utility.yul\":3104:3110   */\n      dup11\n        /* \"#utility.yul\":3060:3132   */\n      tag_70\n      jump\t// in\n    tag_78:\n        /* \"#utility.yul\":3142:3214   */\n      tag_79\n        /* \"#utility.yul\":3210:3212   */\n      0x40\n        /* \"#utility.yul\":3199:3208   */\n      dup4\n        /* \"#utility.yul\":3195:3213   */\n      add\n        /* \"#utility.yul\":3186:3192   */\n      dup10\n        /* \"#utility.yul\":3142:3214   */\n      tag_70\n      jump\t// in\n    tag_79:\n        /* \"#utility.yul\":3224:3296   */\n      tag_80\n        /* \"#utility.yul\":3292:3294   */\n      0x60\n        /* \"#utility.yul\":3281:3290   */\n      dup4\n        /* \"#utility.yul\":3277:3295   */\n      add\n        /* \"#utility.yul\":3268:3274   */\n      dup9\n        /* \"#utility.yul\":3224:3296   */\n      tag_70\n      jump\t// in\n    tag_80:\n        /* \"#utility.yul\":3306:3379   */\n      tag_81\n        /* \"#utility.yul\":3374:3377   */\n      0x80\n        /* \"#utility.yul\":3363:3372   */\n      dup4\n        /* \"#utility.yul\":3359:3378   */\n      add\n        /* \"#utility.yul\":3350:3356   */\n      dup8\n        /* \"#utility.yul\":3306:3379   */\n      tag_70\n      jump\t// in\n    tag_81:\n        /* \"#utility.yul\":3389:3462   */\n      tag_82\n        /* \"#utility.yul\":3457:3460   */\n      0xa0\n        /* \"#utility.yul\":3446:3455   */\n      dup4\n        /* \"#utility.yul\":3442:3461   */\n      add\n        /* \"#utility.yul\":3433:3439   */\n      dup7\n        /* \"#utility.yul\":3389:3462   */\n      tag_70\n      jump\t// in\n    tag_82:\n        /* \"#utility.yul\":3510:3519   */\n      dup2\n        /* \"#utility.yul\":3504:3508   */\n      dup2\n        /* \"#utility.yul\":3500:3520   */\n      sub\n        /* \"#utility.yul\":3494:3497   */\n      0xc0\n        /* \"#utility.yul\":3483:3492   */\n      dup4\n        /* \"#utility.yul\":3479:3498   */\n      add\n        /* \"#utility.yul\":3472:3521   */\n      mstore\n        /* \"#utility.yul\":3538:3616   */\n      tag_83\n        /* \"#utility.yul\":3611:3615   */\n      dup2\n        /* \"#utility.yul\":3602:3608   */\n      dup6\n        /* \"#utility.yul\":3538:3616   */\n      tag_60\n      jump\t// in\n    tag_83:\n        /* \"#utility.yul\":3530:3616   */\n      swap1\n      pop\n        /* \"#utility.yul\":3626:3693   */\n      tag_84\n        /* \"#utility.yul\":3688:3691   */\n      0xe0\n        /* \"#utility.yul\":3677:3686   */\n      dup4\n        /* \"#utility.yul\":3673:3692   */\n      add\n        /* \"#utility.yul\":3664:3670   */\n      dup5\n        /* \"#utility.yul\":3626:3693   */\n      tag_56\n      jump\t// in\n    tag_84:\n        /* \"#utility.yul\":2916:3700   */\n      swap10\n      swap9\n      pop\n      pop\n      pop\n      pop\n      pop\n      pop\n      pop\n      pop\n      pop\n      jump\t// out\n        /* \"#utility.yul\":3706:3805   */\n    tag_63:\n      0x00\n        /* \"#utility.yul\":3792:3797   */\n      dup2\n        /* \"#utility.yul\":3786:3798   */\n      mload\n        /* \"#utility.yul\":3776:3798   */\n      swap1\n      pop\n        /* \"#utility.yul\":3765:3805   */\n      swap2\n      swap1\n      pop\n      jump\t// out\n        /* \"#utility.yul\":3811:3980   */\n    tag_65:\n      0x00\n        /* \"#utility.yul\":3929:3935   */\n      dup3\n        /* \"#utility.yul\":3924:3927   */\n      dup3\n        /* \"#utility.yul\":3917:3936   */\n      mstore\n        /* \"#utility.yul\":3969:3973   */\n      0x20\n        /* \"#utility.yul\":3964:3967   */\n      dup3\n        /* \"#utility.yul\":3960:3974   */\n      add\n        /* \"#utility.yul\":3945:3974   */\n      swap1\n      pop\n        /* \"#utility.yul\":3907:3980   */\n      swap3\n      swap2\n      pop\n      pop\n      jump\t// out\n        /* \"#utility.yul\":3986:4082   */\n    tag_55:\n      0x00\n        /* \"#utility.yul\":4052:4076   */\n      tag_88\n        /* \"#utility.yul\":4070:4075   */\n      dup3\n        /* \"#utility.yul\":4052:4076   */\n      tag_89\n      jump\t// in\n    tag_88:\n        /* \"#utility.yul\":4041:4076   */\n      swap1\n      pop\n        /* \"#utility.yul\":4031:4082   */\n      swap2\n      swap1\n      pop\n      jump\t// out\n        /* \"#utility.yul\":4088:4192   */\n    tag_51:\n      0x00\n        /* \"#utility.yul\":4162:4186   */\n      tag_91\n        /* \"#utility.yul\":4180:4185   */\n      dup3\n        /* \"#utility.yul\":4162:4186   */\n      tag_89\n      jump\t// in\n    tag_91:\n        /* \"#utility.yul\":4151:4186   */\n      swap1\n      pop\n        /* \"#utility.yul\":4141:4192   */\n      swap2\n      swap1\n      pop\n      jump\t// out\n        /* \"#utility.yul\":4198:4288   */\n    tag_59:\n      0x00\n        /* \"#utility.yul\":4275:4280   */\n      dup2\n        /* \"#utility.yul\":4268:4281   */\n      iszero\n        /* \"#utility.yul\":4261:4282   */\n      iszero\n        /* \"#utility.yul\":4250:4282   */\n      swap1\n      pop\n        /* \"#utility.yul\":4240:4288   */\n      swap2\n      swap1\n      pop\n      jump\t// out\n        /* \"#utility.yul\":4294:4420   */\n    tag_89:\n      0x00\n        /* \"#utility.yul\":4371:4413   */\n      0xffffffffffffffffffffffffffffffffffffffff\n        /* \"#utility.yul\":4364:4369   */\n      dup3\n        /* \"#utility.yul\":4360:4414   */\n      and\n        /* \"#utility.yul\":4349:4414   */\n      swap1\n      pop\n        /* \"#utility.yul\":4339:4420   */\n      swap2\n      swap1\n      pop\n      jump\t// out\n        /* \"#utility.yul\":4426:4503   */\n    tag_73:\n      0x00\n        /* \"#utility.yul\":4492:4497   */\n      dup2\n        /* \"#utility.yul\":4481:4497   */\n      swap1\n      pop\n        /* \"#utility.yul\":4471:4503   */\n      swap2\n      swap1\n      pop\n      jump\t// out\n        /* \"#utility.yul\":4509:4816   */\n    tag_67:\n        /* \"#utility.yul\":4577:4578   */\n      0x00\n        /* \"#utility.yul\":4587:4700   */\n    tag_96:\n        /* \"#utility.yul\":4601:4607   */\n      dup4\n        /* \"#utility.yul\":4598:4599   */\n      dup2\n        /* \"#utility.yul\":4595:4608   */\n      lt\n        /* \"#utility.yul\":4587:4700   */\n      iszero\n      tag_98\n      jumpi\n        /* \"#utility.yul\":4686:4687   */\n      dup1\n        /* \"#utility.yul\":4681:4684   */\n      dup3\n        /* \"#utility.yul\":4677:4688   */\n      add\n        /* \"#utility.yul\":4671:4689   */\n      mload\n        /* \"#utility.yul\":4667:4668   */\n      dup2\n        /* \"#utility.yul\":4662:4665   */\n      dup5\n        /* \"#utility.yul\":4658:4669   */\n      add\n        /* \"#utility.yul\":4651:4690   */\n      mstore\n        /* \"#utility.yul\":4623:4625   */\n      0x20\n        /* \"#utility.yul\":4620:4621   */\n      dup2\n        /* \"#utility.yul\":4616:4626   */\n      add\n        /* \"#utility.yul\":4611:4626   */\n      swap1\n      pop\n        /* \"#utility.yul\":4587:4700   */\n      jump(tag_96)\n    tag_98:\n        /* \"#utility.yul\":4718:4724   */\n      dup4\n        /* \"#utility.yul\":4715:4716   */\n      dup2\n        /* \"#utility.yul\":4712:4725   */\n      gt\n        /* \"#utility.yul\":4709:4711   */\n      iszero\n      tag_99\n      jumpi\n        /* \"#utility.yul\":4798:4799   */\n      0x00\n        /* \"#utility.yul\":4789:4795   */\n      dup5\n        /* \"#utility.yul\":4784:4787   */\n      dup5\n        /* \"#utility.yul\":4780:4796   */\n      add\n        /* \"#utility.yul\":4773:4800   */\n      mstore\n        /* \"#utility.yul\":4709:4711   */\n    tag_99:\n        /* \"#utility.yul\":4558:4816   */\n      pop\n      pop\n      pop\n      pop\n      jump\t// out\n        /* \"#utility.yul\":4822:5142   */\n    tag_24:\n      0x00\n        /* \"#utility.yul\":4903:4904   */\n      0x02\n        /* \"#utility.yul\":4897:4901   */\n      dup3\n        /* \"#utility.yul\":4893:4905   */\n      div\n        /* \"#utility.yul\":4883:4905   */\n      swap1\n      pop\n        /* \"#utility.yul\":4950:4951   */\n      0x01\n        /* \"#utility.yul\":4944:4948   */\n      dup3\n        /* \"#utility.yul\":4940:4952   */\n      and\n        /* \"#utility.yul\":4971:4989   */\n      dup1\n        /* \"#utility.yul\":4961:4963   */\n      tag_101\n      jumpi\n        /* \"#utility.yul\":5027:5031   */\n      0x7f\n        /* \"#utility.yul\":5019:5025   */\n      dup3\n        /* \"#utility.yul\":5015:5032   */\n      and\n        /* \"#utility.yul\":5005:5032   */\n      swap2\n      pop\n        /* \"#utility.yul\":4961:4963   */\n    tag_101:\n        /* \"#utility.yul\":5089:5091   */\n      0x20\n        /* \"#utility.yul\":5081:5087   */\n      dup3\n        /* \"#utility.yul\":5078:5092   */\n      lt\n        /* \"#utility.yul\":5058:5076   */\n      dup2\n        /* \"#utility.yul\":5055:5093   */\n      eq\n        /* \"#utility.yul\":5052:5054   */\n      iszero\n      tag_102\n      jumpi\n        /* \"#utility.yul\":5108:5126   */\n      tag_103\n      tag_104\n      jump\t// in\n    tag_103:\n        /* \"#utility.yul\":5052:5054   */\n    tag_102:\n        /* \"#utility.yul\":4873:5142   */\n      pop\n      swap2\n      swap1\n      pop\n      jump\t// out\n        /* \"#utility.yul\":5148:5328   */\n    tag_104:\n        /* \"#utility.yul\":5196:5273   */\n      0x4e487b7100000000000000000000000000000000000000000000000000000000\n        /* \"#utility.yul\":5193:5194   */\n      0x00\n        /* \"#utility.yul\":5186:5274   */\n      mstore\n        /* \"#utility.yul\":5293:5297   */\n      0x22\n        /* \"#utility.yul\":5290:5291   */\n      0x04\n        /* \"#utility.yul\":5283:5298   */\n      mstore\n        /* \"#utility.yul\":5317:5321   */\n      0x24\n        /* \"#utility.yul\":5314:5315   */\n      0x00\n        /* \"#utility.yul\":5307:5322   */\n      revert\n        /* \"#utility.yul\":5334:5436   */\n    tag_69:\n      0x00\n        /* \"#utility.yul\":5426:5428   */\n      0x1f\n        /* \"#utility.yul\":5422:5429   */\n      not\n        /* \"#utility.yul\":5417:5419   */\n      0x1f\n        /* \"#utility.yul\":5410:5415   */\n      dup4\n        /* \"#utility.yul\":5406:5420   */\n      add\n        /* \"#utility.yul\":5402:5430   */\n      and\n        /* \"#utility.yul\":5392:5430   */\n      swap1\n      pop\n        /* \"#utility.yul\":5382:5436   */\n      swap2\n      swap1\n      pop\n      jump\t// out\n        /* \"#utility.yul\":5442:5564   */\n    tag_38:\n        /* \"#utility.yul\":5515:5539   */\n      tag_108\n        /* \"#utility.yul\":5533:5538   */\n      dup2\n        /* \"#utility.yul\":5515:5539   */\n      tag_73\n      jump\t// in\n    tag_108:\n        /* \"#utility.yul\":5508:5513   */\n      dup2\n        /* \"#utility.yul\":5505:5540   */\n      eq\n        /* \"#utility.yul\":5495:5497   */\n      tag_109\n      jumpi\n        /* \"#utility.yul\":5554:5555   */\n      0x00\n        /* \"#utility.yul\":5551:5552   */\n      dup1\n        /* \"#utility.yul\":5544:5556   */\n      revert\n        /* \"#utility.yul\":5495:5497   */\n    tag_109:\n        /* \"#utility.yul\":5485:5564   */\n      pop\n      jump\t// out\n\n    auxdata: 0xa264697066735822122009106a74bede9f4285f42deded9bb5f1d03dcb20df9b5f2d3b77441c339ae42764736f6c63430008000033\n}\n",
				"bytecode": {
					"linkReferences": {},
					"object": "608060405234801561001057600080fd5b50336000806101000a81548173ffffffffffffffffffffffffffffffffffffffff021916908373ffffffffffffffffffffffffffffffffffffffff16021790555061055f806100606000396000f3fe608060405234801561001057600080fd5b50600436106100415760003560e01c80634736b35914610046578063571a26a0146100625780638da5cb5b14610099575b600080fd5b610060600480360381019061005b9190610276565b6100b7565b005b61007c6004803603810190610077919061024d565b6100bd565b604051610090989796959493929190610372565b60405180910390f35b6100a16101ca565b6040516100ae9190610357565b60405180910390f35b50505050565b600181815481106100cd57600080fd5b90600052602060002090600802016000915090508060000160009054906101000a900473ffffffffffffffffffffffffffffffffffffffff1690806001015490806002015490806003015490806004015490806005015490806006018054610134906104a0565b80601f0160208091040260200160405190810160405280929190818152602001828054610160906104a0565b80156101ad5780601f10610182576101008083540402835291602001916101ad565b820191906000526020600020905b81548152906001019060200180831161019057829003601f168201915b5050505050908060070160009054906101000a900460ff16905088565b60008054906101000a900473ffffffffffffffffffffffffffffffffffffffff1681565b60008083601f84011261020057600080fd5b8235905067ffffffffffffffff81111561021957600080fd5b60208301915083600182028301111561023157600080fd5b9250929050565b60008135905061024781610512565b92915050565b60006020828403121561025f57600080fd5b600061026d84828501610238565b91505092915050565b6000806000806060858703121561028c57600080fd5b600061029a87828801610238565b94505060206102ab87828801610238565b935050604085013567ffffffffffffffff8111156102c857600080fd5b6102d4878288016101ee565b925092505092959194509250565b6102eb81610425565b82525050565b6102fa81610413565b82525050565b61030981610437565b82525050565b600061031a826103f7565b6103248185610402565b935061033481856020860161046d565b61033d81610501565b840191505092915050565b61035181610463565b82525050565b600060208201905061036c60008301846102f1565b92915050565b600061010082019050610388600083018b6102e2565b610395602083018a610348565b6103a26040830189610348565b6103af6060830188610348565b6103bc6080830187610348565b6103c960a0830186610348565b81810360c08301526103db818561030f565b90506103ea60e0830184610300565b9998505050505050505050565b600081519050919050565b600082825260208201905092915050565b600061041e82610443565b9050919050565b600061043082610443565b9050919050565b60008115159050919050565b600073ffffffffffffffffffffffffffffffffffffffff82169050919050565b6000819050919050565b60005b8381101561048b578082015181840152602081019050610470565b8381111561049a576000848401525b50505050565b600060028204905060018216806104b857607f821691505b602082108114156104cc576104cb6104d2565b5b50919050565b7f4e487b7100000000000000000000000000000000000000000000000000000000600052602260045260246000fd5b6000601f19601f8301169050919050565b61051b81610463565b811461052657600080fd5b5056fea264697066735822122009106a74bede9f4285f42deded9bb5f1d03dcb20df9b5f2d3b77441c339ae42764736f6c63430008000033",
					"opcodes": "PUSH1 0x80 PUSH1 0x40 MSTORE CALLVALUE DUP1 ISZERO PUSH2 0x10 JUMPI PUSH1 0x0 DUP1 REVERT JUMPDEST POP CALLER PUSH1 0x0 DUP1 PUSH2 0x100 EXP DUP2 SLOAD DUP2 PUSH20 0xFFFFFFFFFFFFFFFFFFFFFFFFFFFFFFFFFFFFFFFF MUL NOT AND SWAP1 DUP4 PUSH20 0xFFFFFFFFFFFFFFFFFFFFFFFFFFFFFFFFFFFFFFFF AND MUL OR SWAP1 SSTORE POP PUSH2 0x55F DUP1 PUSH2 0x60 PUSH1 0x0 CODECOPY PUSH1 0x0 RETURN INVALID PUSH1 0x80 PUSH1 0x40 MSTORE CALLVALUE DUP1 ISZERO PUSH2 0x10 JUMPI PUSH1 0x0 DUP1 REVERT JUMPDEST POP PUSH1 0x4 CALLDATASIZE LT PUSH2 0x41 JUMPI PUSH1 0x0 CALLDATALOAD PUSH1 0xE0 SHR DUP1 PUSH4 0x4736B359 EQ PUSH2 0x46 JUMPI DUP1 PUSH4 0x571A26A0 EQ PUSH2 0x62 JUMPI DUP1 PUSH4 0x8DA5CB5B EQ PUSH2 0x99 JUMPI JUMPDEST PUSH1 0x0 DUP1 REVERT JUMPDEST PUSH2 0x60 PUSH1 0x4 DUP1 CALLDATASIZE SUB DUP2 ADD SWAP1 PUSH2 0x5B SWAP2 SWAP1 PUSH2 0x276 JUMP JUMPDEST PUSH2 0xB7 JUMP JUMPDEST STOP JUMPDEST PUSH2 0x7C PUSH1 0x4 DUP1 CALLDATASIZE SUB DUP2 ADD SWAP1 PUSH2 0x77 SWAP2 SWAP1 PUSH2 0x24D JUMP JUMPDEST PUSH2 0xBD JUMP JUMPDEST PUSH1 0x40 MLOAD PUSH2 0x90 SWAP9 SWAP8 SWAP7 SWAP6 SWAP5 SWAP4 SWAP3 SWAP2 SWAP1 PUSH2 0x372 JUMP JUMPDEST PUSH1 0x40 MLOAD DUP1 SWAP2 SUB SWAP1 RETURN JUMPDEST PUSH2 0xA1 PUSH2 0x1CA JUMP JUMPDEST PUSH1 0x40 MLOAD PUSH2 0xAE SWAP2 SWAP1 PUSH2 0x357 JUMP JUMPDEST PUSH1 0x40 MLOAD DUP1 SWAP2 SUB SWAP1 RETURN JUMPDEST POP POP POP POP JUMP JUMPDEST PUSH1 0x1 DUP2 DUP2 SLOAD DUP2 LT PUSH2 0xCD JUMPI PUSH1 0x0 DUP1 REVERT JUMPDEST SWAP1 PUSH1 0x0 MSTORE PUSH1 0x20 PUSH1 0x0 KECCAK256 SWAP1 PUSH1 0x8 MUL ADD PUSH1 0x0 SWAP2 POP SWAP1 POP DUP1 PUSH1 0x0 ADD PUSH1 0x0 SWAP1 SLOAD SWAP1 PUSH2 0x100 EXP SWAP1 DIV PUSH20 0xFFFFFFFFFFFFFFFFFFFFFFFFFFFFFFFFFFFFFFFF AND SWAP1 DUP1 PUSH1 0x1 ADD SLOAD SWAP1 DUP1 PUSH1 0x2 ADD SLOAD SWAP1 DUP1 PUSH1 0x3 ADD SLOAD SWAP1 DUP1 PUSH1 0x4 ADD SLOAD SWAP1 DUP1 PUSH1 0x5 ADD SLOAD SWAP1 DUP1 PUSH1 0x6 ADD DUP1 SLOAD PUSH2 0x134 SWAP1 PUSH2 0x4A0 JUMP JUMPDEST DUP1 PUSH1 0x1F ADD PUSH1 0x20 DUP1 SWAP2 DIV MUL PUSH1 0x20 ADD PUSH1 0x40 MLOAD SWAP1 DUP2 ADD PUSH1 0x40 MSTORE DUP1 SWAP3 SWAP2 SWAP1 DUP2 DUP2 MSTORE PUSH1 0x20 ADD DUP3 DUP1 SLOAD PUSH2 0x160 SWAP1 PUSH2 0x4A0 JUMP JUMPDEST DUP1 ISZERO PUSH2 0x1AD JUMPI DUP1 PUSH1 0x1F LT PUSH2 0x182 JUMPI PUSH2 0x100 DUP1 DUP4 SLOAD DIV MUL DUP4 MSTORE SWAP2 PUSH1 0x20 ADD SWAP2 PUSH2 0x1AD JUMP JUMPDEST DUP3 ADD SWAP2 SWAP1 PUSH1 0x0 MSTORE PUSH1 0x20 PUSH1 0x0 KECCAK256 SWAP1 JUMPDEST DUP2 SLOAD DUP2 MSTORE SWAP1 PUSH1 0x1 ADD SWAP1 PUSH1 0x20 ADD DUP1 DUP4 GT PUSH2 0x190 JUMPI DUP3 SWAP1 SUB PUSH1 0x1F AND DUP3 ADD SWAP2 JUMPDEST POP POP POP POP POP SWAP1 DUP1 PUSH1 0x7 ADD PUSH1 0x0 SWAP1 SLOAD SWAP1 PUSH2 0x100 EXP SWAP1 DIV PUSH1 0xFF AND SWAP1 POP DUP9 JUMP JUMPDEST PUSH1 0x0 DUP1 SLOAD SWAP1 PUSH2 0x100 EXP SWAP1 DIV PUSH20 0xFFFFFFFFFFFFFFFFFFFFFFFFFFFFFFFFFFFFFFFF AND DUP2 JUMP JUMPDEST PUSH1 0x0 DUP1 DUP4 PUSH1 0x1F DUP5 ADD SLT PUSH2 0x200 JUMPI PUSH1 0x0 DUP1 REVERT JUMPDEST DUP3 CALLDATALOAD SWAP1 POP PUSH8 0xFFFFFFFFFFFFFFFF DUP2 GT ISZERO PUSH2 0x219 JUMPI PUSH1 0x0 DUP1 REVERT JUMPDEST PUSH1 0x20 DUP4 ADD SWAP2 POP DUP4 PUSH1 0x1 DUP3 MUL DUP4 ADD GT ISZERO PUSH2 0x231 JUMPI PUSH1 0x0 DUP1 REVERT JUMPDEST SWAP3 POP SWAP3 SWAP1 POP JUMP JUMPDEST PUSH1 0x0 DUP2 CALLDATALOAD SWAP1 POP PUSH2 0x247 DUP2 PUSH2 0x512 JUMP JUMPDEST SWAP3 SWAP2 POP POP JUMP JUMPDEST PUSH1 0x0 PUSH1 0x20 DUP3 DUP5 SUB SLT ISZERO PUSH2 0x25F JUMPI PUSH1 0x0 DUP1 REVERT JUMPDEST PUSH1 0x0 PUSH2 0x26D DUP5 DUP3 DUP6 ADD PUSH2 0x238 JUMP JUMPDEST SWAP2 POP POP SWAP3 SWAP2 POP POP JUMP JUMPDEST PUSH1 0x0 DUP1 PUSH1 0x0 DUP1 PUSH1 0x60 DUP6 DUP8 SUB SLT ISZERO PUSH2 0x28C JUMPI PUSH1 0x0 DUP1 REVERT JUMPDEST PUSH1 0x0 PUSH2 0x29A DUP8 DUP3 DUP9 ADD PUSH2 0x238 JUMP JUMPDEST SWAP5 POP POP PUSH1 0x20 PUSH2 0x2AB DUP8 DUP3 DUP9 ADD PUSH2 0x238 JUMP JUMPDEST SWAP4 POP POP PUSH1 0x40 DUP6 ADD CALLDATALOAD PUSH8 0xFFFFFFFFFFFFFFFF DUP2 GT ISZERO PUSH2 0x2C8 JUMPI PUSH1 0x0 DUP1 REVERT JUMPDEST PUSH2 0x2D4 DUP8 DUP3 DUP9 ADD PUSH2 0x1EE JUMP JUMPDEST SWAP3 POP SWAP3 POP POP SWAP3 SWAP6 SWAP2 SWAP5 POP SWAP3 POP JUMP JUMPDEST PUSH2 0x2EB DUP2 PUSH2 0x425 JUMP JUMPDEST DUP3 MSTORE POP POP JUMP JUMPDEST PUSH2 0x2FA DUP2 PUSH2 0x413 JUMP JUMPDEST DUP3 MSTORE POP POP JUMP JUMPDEST PUSH2 0x309 DUP2 PUSH2 0x437 JUMP JUMPDEST DUP3 MSTORE POP POP JUMP JUMPDEST PUSH1 0x0 PUSH2 0x31A DUP3 PUSH2 0x3F7 JUMP JUMPDEST PUSH2 0x324 DUP2 DUP6 PUSH2 0x402 JUMP JUMPDEST SWAP4 POP PUSH2 0x334 DUP2 DUP6 PUSH1 0x20 DUP7 ADD PUSH2 0x46D JUMP JUMPDEST PUSH2 0x33D DUP2 PUSH2 0x501 JUMP JUMPDEST DUP5 ADD SWAP2 POP POP SWAP3 SWAP2 POP POP JUMP JUMPDEST PUSH2 0x351 DUP2 PUSH2 0x463 JUMP JUMPDEST DUP3 MSTORE POP POP JUMP JUMPDEST PUSH1 0x0 PUSH1 0x20 DUP3 ADD SWAP1 POP PUSH2 0x36C PUSH1 0x0 DUP4 ADD DUP5 PUSH2 0x2F1 JUMP JUMPDEST SWAP3 SWAP2 POP POP JUMP JUMPDEST PUSH1 0x0 PUSH2 0x100 DUP3 ADD SWAP1 POP PUSH2 0x388 PUSH1 0x0 DUP4 ADD DUP12 PUSH2 0x2E2 JUMP JUMPDEST PUSH2 0x395 PUSH1 0x20 DUP4 ADD DUP11 PUSH2 0x348 JUMP JUMPDEST PUSH2 0x3A2 PUSH1 0x40 DUP4 ADD DUP10 PUSH2 0x348 JUMP JUMPDEST PUSH2 0x3AF PUSH1 0x60 DUP4 ADD DUP9 PUSH2 0x348 JUMP JUMPDEST PUSH2 0x3BC PUSH1 0x80 DUP4 ADD DUP8 PUSH2 0x348 JUMP JUMPDEST PUSH2 0x3C9 PUSH1 0xA0 DUP4 ADD DUP7 PUSH2 0x348 JUMP JUMPDEST DUP2 DUP2 SUB PUSH1 0xC0 DUP4 ADD MSTORE PUSH2 0x3DB DUP2 DUP6 PUSH2 0x30F JUMP JUMPDEST SWAP1 POP PUSH2 0x3EA PUSH1 0xE0 DUP4 ADD DUP5 PUSH2 0x300 JUMP JUMPDEST SWAP10 SWAP9 POP POP POP POP POP POP POP POP POP JUMP JUMPDEST PUSH1 0x0 DUP2 MLOAD SWAP1 POP SWAP2 SWAP1 POP JUMP JUMPDEST PUSH1 0x0 DUP3 DUP3 MSTORE PUSH1 0x20 DUP3 ADD SWAP1 POP SWAP3 SWAP2 POP POP JUMP JUMPDEST PUSH1 0x0 PUSH2 0x41E DUP3 PUSH2 0x443 JUMP JUMPDEST SWAP1 POP SWAP2 SWAP1 POP JUMP JUMPDEST PUSH1 0x0 PUSH2 0x430 DUP3 PUSH2 0x443 JUMP JUMPDEST SWAP1 POP SWAP2 SWAP1 POP JUMP JUMPDEST PUSH1 0x0 DUP2 ISZERO ISZERO SWAP1 POP SWAP2 SWAP1 POP JUMP JUMPDEST PUSH1 0x0 PUSH20 0xFFFFFFFFFFFFFFFFFFFFFFFFFFFFFFFFFFFFFFFF DUP3 AND SWAP1 POP SWAP2 SWAP1 POP JUMP JUMPDEST PUSH1 0x0 DUP2 SWAP1 POP SWAP2 SWAP1 POP JUMP JUMPDEST PUSH1 0x0 JUMPDEST DUP4 DUP2 LT ISZERO PUSH2 0x48B JUMPI DUP1 DUP3 ADD MLOAD DUP2 DUP5 ADD MSTORE PUSH1 0x20 DUP2 ADD SWAP1 POP PUSH2 0x470 JUMP JUMPDEST DUP4 DUP2 GT ISZERO PUSH2 0x49A JUMPI PUSH1 0x0 DUP5 DUP5 ADD MSTORE JUMPDEST POP POP POP POP JUMP JUMPDEST PUSH1 0x0 PUSH1 0x2 DUP3 DIV SWAP1 POP PUSH1 0x1 DUP3 AND DUP1 PUSH2 0x4B8 JUMPI PUSH1 0x7F DUP3 AND SWAP2 POP JUMPDEST PUSH1 0x20 DUP3 LT DUP2 EQ ISZERO PUSH2 0x4CC JUMPI PUSH2 0x4CB PUSH2 0x4D2 JUMP JUMPDEST JUMPDEST POP SWAP2 SWAP1 POP JUMP JUMPDEST PUSH32 0x4E487B7100000000000000000000000000000000000000000000000000000000 PUSH1 0x0 MSTORE PUSH1 0x22 PUSH1 0x4 MSTORE PUSH1 0x24 PUSH1 0x0 REVERT JUMPDEST PUSH1 0x0 PUSH1 0x1F NOT PUSH1 0x1F DUP4 ADD AND SWAP1 POP SWAP2 SWAP1 POP JUMP JUMPDEST PUSH2 0x51B DUP2 PUSH2 0x463 JUMP JUMPDEST DUP2 EQ PUSH2 0x526 JUMPI PUSH1 0x0 DUP1 REVERT JUMPDEST POP JUMP INVALID LOG2 PUSH5 0x6970667358 0x22 SLT KECCAK256 MULMOD LT PUSH11 0x74BEDE9F4285F42DEDED9B 0xB5 CALL 0xD0 RETURNDATASIZE 0xCB KECCAK256 0xDF SWAP12 0x5F 0x2D EXTCODESIZE PUSH24 0x441C339AE42764736F6C6343000800003300000000000000 "
				},
				"gasEstimates": {
					"creation": {
						"codeDepositCost": "275000",
						"executionCost": "21178",
						"totalCost": "296178"
					},
					"external": {
						"auctions(uint256)": "infinite",
						"createAuction(uint256,uint256,string)": "infinite",
						"owner()": "1233"
					}
				},
				"methodIdentifiers": {
					"auctions(uint256)": "571a26a0",
					"createAuction(uint256,uint256,string)": "4736b359",
					"owner()": "8da5cb5b"
				}
			},
			"storageLayout": {
				"storage": [
					{
						"astId": 3,
						"contract": "coin.sol:AucEngine",
						"label": "owner",
						"offset": 0,
						"slot": "0",
						"type": "t_address"
					},
					{
						"astId": 30,
						"contract": "coin.sol:AucEngine",
						"label": "auctions",
						"offset": 0,
						"slot": "1",
						"type": "t_array(t_struct(Auction)26_storage)dyn_storage"
					}
				],
				"types": {
					"t_address": {
						"encoding": "inplace",
						"label": "address",
						"numberOfBytes": "20"
					},
					"t_address_payable": {
						"encoding": "inplace",
						"label": "address payable",
						"numberOfBytes": "20"
					},
					"t_array(t_struct(Auction)26_storage)dyn_storage": {
						"base": "t_struct(Auction)26_storage",
						"encoding": "dynamic_array",
						"label": "struct AucEngine.Auction[]",
						"numberOfBytes": "32"
					},
					"t_bool": {
						"encoding": "inplace",
						"label": "bool",
						"numberOfBytes": "1"
					},
					"t_string_storage": {
						"encoding": "bytes",
						"label": "string",
						"numberOfBytes": "32"
					},
					"t_struct(Auction)26_storage": {
						"encoding": "inplace",
						"label": "struct AucEngine.Auction",
						"members": [
							{
								"astId": 11,
								"contract": "coin.sol:AucEngine",
								"label": "seller",
								"offset": 0,
								"slot": "0",
								"type": "t_address_payable"
							},
							{
								"astId": 13,
								"contract": "coin.sol:AucEngine",
								"label": "startingPrice",
								"offset": 0,
								"slot": "1",
								"type": "t_uint256"
							},
							{
								"astId": 15,
								"contract": "coin.sol:AucEngine",
								"label": "finalPrice",
								"offset": 0,
								"slot": "2",
								"type": "t_uint256"
							},
							{
								"astId": 17,
								"contract": "coin.sol:AucEngine",
								"label": "startAt",
								"offset": 0,
								"slot": "3",
								"type": "t_uint256"
							},
							{
								"astId": 19,
								"contract": "coin.sol:AucEngine",
								"label": "endsAt",
								"offset": 0,
								"slot": "4",
								"type": "t_uint256"
							},
							{
								"astId": 21,
								"contract": "coin.sol:AucEngine",
								"label": "discountRate",
								"offset": 0,
								"slot": "5",
								"type": "t_uint256"
							},
							{
								"astId": 23,
								"contract": "coin.sol:AucEngine",
								"label": "item",
								"offset": 0,
								"slot": "6",
								"type": "t_string_storage"
							},
							{
								"astId": 25,
								"contract": "coin.sol:AucEngine",
								"label": "stopped",
								"offset": 0,
								"slot": "7",
								"type": "t_bool"
							}
						],
						"numberOfBytes": "256"
					},
					"t_uint256": {
						"encoding": "inplace",
						"label": "uint256",
						"numberOfBytes": "32"
					}
				}
			},
			"userdoc": {
				"kind": "user",
				"methods": {},
				"version": 1
			}
		}
	}
}