{
	"token_swap.sol": {
		"TokenSwap": {
			"abi": [
				{
					"inputs": [],
					"name": "onwer1",
					"outputs": [
						{
							"internalType": "address",
							"name": "",
							"type": "address"
						}
					],
					"stateMutability": "view",
					"type": "function"
				},
				{
					"inputs": [],
					"name": "token1",
					"outputs": [
						{
							"internalType": "contract IERC20",
							"name": "",
							"type": "address"
						}
					],
					"stateMutability": "view",
					"type": "function"
				}
			],
			"devdoc": {
				"kind": "dev",
				"methods": {},
				"version": 1
			},
			"evm": {
				"assembly": "    /* \"token_swap.sol\":183:267  contract TokenSwap {\r... */\n  mstore(0x40, 0x80)\n  callvalue\n  dup1\n  iszero\n  tag_1\n  jumpi\n  0x00\n  dup1\n  revert\ntag_1:\n  pop\n  dataSize(sub_0)\n  dup1\n  dataOffset(sub_0)\n  0x00\n  codecopy\n  0x00\n  return\nstop\n\nsub_0: assembly {\n        /* \"token_swap.sol\":183:267  contract TokenSwap {\r... */\n      mstore(0x40, 0x80)\n      callvalue\n      dup1\n      iszero\n      tag_1\n      jumpi\n      0x00\n      dup1\n      revert\n    tag_1:\n      pop\n      jumpi(tag_2, lt(calldatasize, 0x04))\n      shr(0xe0, calldataload(0x00))\n      dup1\n      0xa9e9f461\n      eq\n      tag_3\n      jumpi\n      dup1\n      0xd21220a7\n      eq\n      tag_4\n      jumpi\n    tag_2:\n      0x00\n      dup1\n      revert\n        /* \"token_swap.sol\":236:257  address public onwer1 */\n    tag_3:\n      tag_5\n      tag_6\n      jump\t// in\n    tag_5:\n      mload(0x40)\n      tag_7\n      swap2\n      swap1\n      tag_8\n      jump\t// in\n    tag_7:\n      mload(0x40)\n      dup1\n      swap2\n      sub\n      swap1\n      return\n        /* \"token_swap.sol\":209:229  IERC20 public token1 */\n    tag_4:\n      tag_9\n      tag_10\n      jump\t// in\n    tag_9:\n      mload(0x40)\n      tag_11\n      swap2\n      swap1\n      tag_12\n      jump\t// in\n    tag_11:\n      mload(0x40)\n      dup1\n      swap2\n      sub\n      swap1\n      return\n        /* \"token_swap.sol\":236:257  address public onwer1 */\n    tag_6:\n      0x01\n      0x00\n      swap1\n      sload\n      swap1\n      0x0100\n      exp\n      swap1\n      div\n      0xffffffffffffffffffffffffffffffffffffffff\n      and\n      dup2\n      jump\t// out\n        /* \"token_swap.sol\":209:229  IERC20 public token1 */\n    tag_10:\n      0x00\n      dup1\n      sload\n      swap1\n      0x0100\n      exp\n      swap1\n      div\n      0xffffffffffffffffffffffffffffffffffffffff\n      and\n      dup2\n      jump\t// out\n        /* \"#utility.yul\":7:125   */\n    tag_14:\n        /* \"#utility.yul\":94:118   */\n      tag_16\n        /* \"#utility.yul\":112:117   */\n      dup2\n        /* \"#utility.yul\":94:118   */\n      tag_17\n      jump\t// in\n    tag_16:\n        /* \"#utility.yul\":89:92   */\n      dup3\n        /* \"#utility.yul\":82:119   */\n      mstore\n        /* \"#utility.yul\":7:125   */\n      pop\n      pop\n      jump\t// out\n        /* \"#utility.yul\":131:288   */\n    tag_18:\n        /* \"#utility.yul\":231:281   */\n      tag_20\n        /* \"#utility.yul\":275:280   */\n      dup2\n        /* \"#utility.yul\":231:281   */\n      tag_21\n      jump\t// in\n    tag_20:\n        /* \"#utility.yul\":226:229   */\n      dup3\n        /* \"#utility.yul\":219:282   */\n      mstore\n        /* \"#utility.yul\":131:288   */\n      pop\n      pop\n      jump\t// out\n        /* \"#utility.yul\":294:516   */\n    tag_8:\n        /* \"#utility.yul\":387:391   */\n      0x00\n        /* \"#utility.yul\":425:427   */\n      0x20\n        /* \"#utility.yul\":414:423   */\n      dup3\n        /* \"#utility.yul\":410:428   */\n      add\n        /* \"#utility.yul\":402:428   */\n      swap1\n      pop\n        /* \"#utility.yul\":438:509   */\n      tag_23\n        /* \"#utility.yul\":506:507   */\n      0x00\n        /* \"#utility.yul\":495:504   */\n      dup4\n        /* \"#utility.yul\":491:508   */\n      add\n        /* \"#utility.yul\":482:488   */\n      dup5\n        /* \"#utility.yul\":438:509   */\n      tag_14\n      jump\t// in\n    tag_23:\n        /* \"#utility.yul\":294:516   */\n      swap3\n      swap2\n      pop\n      pop\n      jump\t// out\n        /* \"#utility.yul\":522:770   */\n    tag_12:\n        /* \"#utility.yul\":628:632   */\n      0x00\n        /* \"#utility.yul\":666:668   */\n      0x20\n        /* \"#utility.yul\":655:664   */\n      dup3\n        /* \"#utility.yul\":651:669   */\n      add\n        /* \"#utility.yul\":643:669   */\n      swap1\n      pop\n        /* \"#utility.yul\":679:763   */\n      tag_25\n        /* \"#utility.yul\":760:761   */\n      0x00\n        /* \"#utility.yul\":749:758   */\n      dup4\n        /* \"#utility.yul\":745:762   */\n      add\n        /* \"#utility.yul\":736:742   */\n      dup5\n        /* \"#utility.yul\":679:763   */\n      tag_18\n      jump\t// in\n    tag_25:\n        /* \"#utility.yul\":522:770   */\n      swap3\n      swap2\n      pop\n      pop\n      jump\t// out\n        /* \"#utility.yul\":776:872   */\n    tag_17:\n        /* \"#utility.yul\":813:820   */\n      0x00\n        /* \"#utility.yul\":842:866   */\n      tag_27\n        /* \"#utility.yul\":860:865   */\n      dup3\n        /* \"#utility.yul\":842:866   */\n      tag_28\n      jump\t// in\n    tag_27:\n        /* \"#utility.yul\":831:866   */\n      swap1\n      pop\n        /* \"#utility.yul\":776:872   */\n      swap2\n      swap1\n      pop\n      jump\t// out\n        /* \"#utility.yul\":878:1004   */\n    tag_28:\n        /* \"#utility.yul\":915:922   */\n      0x00\n        /* \"#utility.yul\":955:997   */\n      0xffffffffffffffffffffffffffffffffffffffff\n        /* \"#utility.yul\":948:953   */\n      dup3\n        /* \"#utility.yul\":944:998   */\n      and\n        /* \"#utility.yul\":933:998   */\n      swap1\n      pop\n        /* \"#utility.yul\":878:1004   */\n      swap2\n      swap1\n      pop\n      jump\t// out\n        /* \"#utility.yul\":1010:1149   */\n    tag_21:\n        /* \"#utility.yul\":1073:1082   */\n      0x00\n        /* \"#utility.yul\":1106:1143   */\n      tag_31\n        /* \"#utility.yul\":1137:1142   */\n      dup3\n        /* \"#utility.yul\":1106:1143   */\n      tag_32\n      jump\t// in\n    tag_31:\n        /* \"#utility.yul\":1093:1143   */\n      swap1\n      pop\n        /* \"#utility.yul\":1010:1149   */\n      swap2\n      swap1\n      pop\n      jump\t// out\n        /* \"#utility.yul\":1155:1281   */\n    tag_32:\n        /* \"#utility.yul\":1205:1214   */\n      0x00\n        /* \"#utility.yul\":1238:1275   */\n      tag_34\n        /* \"#utility.yul\":1269:1274   */\n      dup3\n        /* \"#utility.yul\":1238:1275   */\n      tag_35\n      jump\t// in\n    tag_34:\n        /* \"#utility.yul\":1225:1275   */\n      swap1\n      pop\n        /* \"#utility.yul\":1155:1281   */\n      swap2\n      swap1\n      pop\n      jump\t// out\n        /* \"#utility.yul\":1287:1400   */\n    tag_35:\n        /* \"#utility.yul\":1337:1346   */\n      0x00\n        /* \"#utility.yul\":1370:1394   */\n      tag_37\n        /* \"#utility.yul\":1388:1393   */\n      dup3\n        /* \"#utility.yul\":1370:1394   */\n      tag_28\n      jump\t// in\n    tag_37:\n        /* \"#utility.yul\":1357:1394   */\n      swap1\n      pop\n        /* \"#utility.yul\":1287:1400   */\n      swap2\n      swap1\n      pop\n      jump\t// out\n\n    auxdata: 0xa264697066735822122053de64a9850134a1befe826715488231b9cba5ff418308b1ea23e23e4606d5f464736f6c63430008070033\n}\n",
				"bytecode": {
					"linkReferences": {},
					"object": "608060405234801561001057600080fd5b506101b3806100206000396000f3fe608060405234801561001057600080fd5b50600436106100365760003560e01c8063a9e9f4611461003b578063d21220a714610059575b600080fd5b610043610077565b60405161005091906100df565b60405180910390f35b61006161009d565b60405161006e91906100fa565b60405180910390f35b600160009054906101000a900473ffffffffffffffffffffffffffffffffffffffff1681565b60008054906101000a900473ffffffffffffffffffffffffffffffffffffffff1681565b6100ca81610115565b82525050565b6100d981610147565b82525050565b60006020820190506100f460008301846100c1565b92915050565b600060208201905061010f60008301846100d0565b92915050565b600061012082610127565b9050919050565b600073ffffffffffffffffffffffffffffffffffffffff82169050919050565b600061015282610159565b9050919050565b60006101648261016b565b9050919050565b600061017682610127565b905091905056fea264697066735822122053de64a9850134a1befe826715488231b9cba5ff418308b1ea23e23e4606d5f464736f6c63430008070033",
					"opcodes": "PUSH1 0x80 PUSH1 0x40 MSTORE CALLVALUE DUP1 ISZERO PUSH2 0x10 JUMPI PUSH1 0x0 DUP1 REVERT JUMPDEST POP PUSH2 0x1B3 DUP1 PUSH2 0x20 PUSH1 0x0 CODECOPY PUSH1 0x0 RETURN INVALID PUSH1 0x80 PUSH1 0x40 MSTORE CALLVALUE DUP1 ISZERO PUSH2 0x10 JUMPI PUSH1 0x0 DUP1 REVERT JUMPDEST POP PUSH1 0x4 CALLDATASIZE LT PUSH2 0x36 JUMPI PUSH1 0x0 CALLDATALOAD PUSH1 0xE0 SHR DUP1 PUSH4 0xA9E9F461 EQ PUSH2 0x3B JUMPI DUP1 PUSH4 0xD21220A7 EQ PUSH2 0x59 JUMPI JUMPDEST PUSH1 0x0 DUP1 REVERT JUMPDEST PUSH2 0x43 PUSH2 0x77 JUMP JUMPDEST PUSH1 0x40 MLOAD PUSH2 0x50 SWAP2 SWAP1 PUSH2 0xDF JUMP JUMPDEST PUSH1 0x40 MLOAD DUP1 SWAP2 SUB SWAP1 RETURN JUMPDEST PUSH2 0x61 PUSH2 0x9D JUMP JUMPDEST PUSH1 0x40 MLOAD PUSH2 0x6E SWAP2 SWAP1 PUSH2 0xFA JUMP JUMPDEST PUSH1 0x40 MLOAD DUP1 SWAP2 SUB SWAP1 RETURN JUMPDEST PUSH1 0x1 PUSH1 0x0 SWAP1 SLOAD SWAP1 PUSH2 0x100 EXP SWAP1 DIV PUSH20 0xFFFFFFFFFFFFFFFFFFFFFFFFFFFFFFFFFFFFFFFF AND DUP2 JUMP JUMPDEST PUSH1 0x0 DUP1 SLOAD SWAP1 PUSH2 0x100 EXP SWAP1 DIV PUSH20 0xFFFFFFFFFFFFFFFFFFFFFFFFFFFFFFFFFFFFFFFF AND DUP2 JUMP JUMPDEST PUSH2 0xCA DUP2 PUSH2 0x115 JUMP JUMPDEST DUP3 MSTORE POP POP JUMP JUMPDEST PUSH2 0xD9 DUP2 PUSH2 0x147 JUMP JUMPDEST DUP3 MSTORE POP POP JUMP JUMPDEST PUSH1 0x0 PUSH1 0x20 DUP3 ADD SWAP1 POP PUSH2 0xF4 PUSH1 0x0 DUP4 ADD DUP5 PUSH2 0xC1 JUMP JUMPDEST SWAP3 SWAP2 POP POP JUMP JUMPDEST PUSH1 0x0 PUSH1 0x20 DUP3 ADD SWAP1 POP PUSH2 0x10F PUSH1 0x0 DUP4 ADD DUP5 PUSH2 0xD0 JUMP JUMPDEST SWAP3 SWAP2 POP POP JUMP JUMPDEST PUSH1 0x0 PUSH2 0x120 DUP3 PUSH2 0x127 JUMP JUMPDEST SWAP1 POP SWAP2 SWAP1 POP JUMP JUMPDEST PUSH1 0x0 PUSH20 0xFFFFFFFFFFFFFFFFFFFFFFFFFFFFFFFFFFFFFFFF DUP3 AND SWAP1 POP SWAP2 SWAP1 POP JUMP JUMPDEST PUSH1 0x0 PUSH2 0x152 DUP3 PUSH2 0x159 JUMP JUMPDEST SWAP1 POP SWAP2 SWAP1 POP JUMP JUMPDEST PUSH1 0x0 PUSH2 0x164 DUP3 PUSH2 0x16B JUMP JUMPDEST SWAP1 POP SWAP2 SWAP1 POP JUMP JUMPDEST PUSH1 0x0 PUSH2 0x176 DUP3 PUSH2 0x127 JUMP JUMPDEST SWAP1 POP SWAP2 SWAP1 POP JUMP INVALID LOG2 PUSH5 0x6970667358 0x22 SLT KECCAK256 MSTORE8 0xDE PUSH5 0xA9850134A1 0xBE INVALID DUP3 PUSH8 0x15488231B9CBA5FF COINBASE DUP4 ADDMOD 0xB1 0xEA 0x23 0xE2 RETURNDATACOPY CHAINID MOD 0xD5 DELEGATECALL PUSH5 0x736F6C6343 STOP ADDMOD SMOD STOP CALLER "
				},
				"gasEstimates": {
					"creation": {
						"codeDepositCost": "87000",
						"executionCost": "135",
						"totalCost": "87135"
					},
					"external": {
						"onwer1()": "2492",
						"token1()": "2597"
					}
				},
				"methodIdentifiers": {
					"onwer1()": "a9e9f461",
					"token1()": "d21220a7"
				}
			},
			"storageLayout": {
				"storage": [
					{
						"astId": 83,
						"contract": "token_swap.sol:TokenSwap",
						"label": "token1",
						"offset": 0,
						"slot": "0",
						"type": "t_contract(IERC20)77"
					},
					{
						"astId": 85,
						"contract": "token_swap.sol:TokenSwap",
						"label": "onwer1",
						"offset": 0,
						"slot": "1",
						"type": "t_address"
					}
				],
				"types": {
					"t_address": {
						"encoding": "inplace",
						"label": "address",
						"numberOfBytes": "20"
					},
					"t_contract(IERC20)77": {
						"encoding": "inplace",
						"label": "contract IERC20",
						"numberOfBytes": "20"
					}
				}
			},
			"userdoc": {
				"kind": "user",
				"methods": {},
				"version": 1
			}
		}
	}
}