{
	"merkle_tree.sol": {
		"TestMerkleProof": {
			"abi": [
				{
					"inputs": [],
					"stateMutability": "nonpayable",
					"type": "constructor"
				},
				{
					"inputs": [
						{
							"internalType": "uint256",
							"name": "",
							"type": "uint256"
						}
					],
					"name": "hashes",
					"outputs": [
						{
							"internalType": "bytes32",
							"name": "",
							"type": "bytes32"
						}
					],
					"stateMutability": "view",
					"type": "function"
				},
				{
					"inputs": [
						{
							"internalType": "bytes32[]",
							"name": "proof",
							"type": "bytes32[]"
						},
						{
							"internalType": "bytes32",
							"name": "root",
							"type": "bytes32"
						},
						{
							"internalType": "bytes32",
							"name": "leaf",
							"type": "bytes32"
						},
						{
							"internalType": "uint256",
							"name": "index",
							"type": "uint256"
						}
					],
					"name": "verify",
					"outputs": [
						{
							"internalType": "bool",
							"name": "",
							"type": "bool"
						}
					],
					"stateMutability": "pure",
					"type": "function"
				}
			],
			"devdoc": {
				"kind": "dev",
				"methods": {},
				"version": 1
			},
			"evm": {
				"assembly": "    /* \"merkle_tree.sol\":705:1456  contract TestMerkleProof is MerkleProof {\r... */\n  mstore(0x40, 0x80)\n    /* \"merkle_tree.sol\":788:1451  constructor() {\r... */\n  callvalue\n  dup1\n  iszero\n  tag_1\n  jumpi\n  0x00\n  dup1\n  revert\ntag_1:\n  pop\n    /* \"merkle_tree.sol\":813:842  string[4] memory transactions */\n  0x00\n    /* \"merkle_tree.sol\":813:972  string[4] memory transactions = [\r... */\n  mload(0x40)\n  dup1\n  0x80\n  add\n  0x40\n  mstore\n  dup1\n  mload(0x40)\n  dup1\n  0x40\n  add\n  0x40\n  mstore\n  dup1\n  0x0c\n  dup2\n  mstore\n  0x20\n  add\n  0x616c696365202d3e20626f620000000000000000000000000000000000000000\n  dup2\n  mstore\n  pop\n  dup2\n  mstore\n  0x20\n  add\n  mload(0x40)\n  dup1\n  0x40\n  add\n  0x40\n  mstore\n  dup1\n  0x0b\n  dup2\n  mstore\n  0x20\n  add\n  0x626f62202d3e2064617665000000000000000000000000000000000000000000\n  dup2\n  mstore\n  pop\n  dup2\n  mstore\n  0x20\n  add\n  mload(0x40)\n  dup1\n  0x40\n  add\n  0x40\n  mstore\n  dup1\n  0x0e\n  dup2\n  mstore\n  0x20\n  add\n  0x6361726f6c202d3e20616c696365000000000000000000000000000000000000\n  dup2\n  mstore\n  pop\n  dup2\n  mstore\n  0x20\n  add\n  mload(0x40)\n  dup1\n  0x40\n  add\n  0x40\n  mstore\n  dup1\n  0x0b\n  dup2\n  mstore\n  0x20\n  add\n  0x64617665202d3e20626f62000000000000000000000000000000000000000000\n  dup2\n  mstore\n  pop\n  dup2\n  mstore\n  pop\n  swap1\n  pop\n    /* \"merkle_tree.sol\":992:998  uint i */\n  0x00\n    /* \"merkle_tree.sol\":987:1117  for (uint i = 0; i< transactions.length; i++) {\r... */\ntag_4:\n    /* \"merkle_tree.sol\":1007:1026  transactions.length */\n  0x04\n    /* \"merkle_tree.sol\":1004:1005  i */\n  dup2\n    /* \"merkle_tree.sol\":1004:1026  i< transactions.length */\n  lt\n    /* \"merkle_tree.sol\":987:1117  for (uint i = 0; i< transactions.length; i++) {\r... */\n  iszero\n  tag_5\n  jumpi\n    /* \"merkle_tree.sol\":1048:1054  hashes */\n  0x00\n    /* \"merkle_tree.sol\":1087:1099  transactions */\n  dup3\n    /* \"merkle_tree.sol\":1100:1101  i */\n  dup3\n    /* \"merkle_tree.sol\":1087:1102  transactions[i] */\n  0x04\n  dup2\n  lt\n  tag_7\n  jumpi\n  tag_8\n  tag_9\n  jump\t// in\ntag_8:\ntag_7:\n  0x20\n  mul\n  add\n  mload\n    /* \"merkle_tree.sol\":1070:1103  abi.encodePacked(transactions[i]) */\n  add(0x20, mload(0x40))\n  tag_10\n  swap2\n  swap1\n  tag_11\n  jump\t// in\ntag_10:\n  mload(0x40)\n  0x20\n  dup2\n  dup4\n  sub\n  sub\n  dup2\n  mstore\n  swap1\n  0x40\n  mstore\n    /* \"merkle_tree.sol\":1060:1104  keccak256(abi.encodePacked(transactions[i])) */\n  dup1\n  mload\n  swap1\n  0x20\n  add\n  keccak256\n    /* \"merkle_tree.sol\":1048:1105  hashes.push(keccak256(abi.encodePacked(transactions[i]))) */\n  swap1\n  dup1\n  0x01\n  dup2\n  sload\n  add\n  dup1\n  dup3\n  sstore\n  dup1\n  swap2\n  pop\n  pop\n  0x01\n  swap1\n  sub\n  swap1\n  0x00\n  mstore\n  keccak256(0x00, 0x20)\n  add\n  0x00\n  swap1\n  swap2\n  swap1\n  swap2\n  swap1\n  swap2\n  pop\n  sstore\n    /* \"merkle_tree.sol\":1028:1031  i++ */\n  dup1\n  dup1\n  tag_13\n  swap1\n  tag_14\n  jump\t// in\ntag_13:\n  swap2\n  pop\n  pop\n    /* \"merkle_tree.sol\":987:1117  for (uint i = 0; i< transactions.length; i++) {\r... */\n  jump(tag_4)\ntag_5:\n  pop\n    /* \"merkle_tree.sol\":1131:1137  uint n */\n  0x00\n    /* \"merkle_tree.sol\":1140:1159  transactions.length */\n  0x04\n    /* \"merkle_tree.sol\":1131:1159  uint n = transactions.length */\n  swap1\n  pop\n    /* \"merkle_tree.sol\":1170:1181  uint offset */\n  0x00\n    /* \"merkle_tree.sol\":1200:1442  while (n>0)  {\r... */\ntag_15:\n    /* \"merkle_tree.sol\":1209:1210  0 */\n  0x00\n    /* \"merkle_tree.sol\":1207:1208  n */\n  dup3\n    /* \"merkle_tree.sol\":1207:1210  n>0 */\n  gt\n    /* \"merkle_tree.sol\":1200:1442  while (n>0)  {\r... */\n  iszero\n  tag_16\n  jumpi\n    /* \"merkle_tree.sol\":1233:1239  uint i */\n  0x00\n    /* \"merkle_tree.sol\":1228:1417  for (uint i = 0; i< n-1; i+=2) {\r... */\ntag_17:\n    /* \"merkle_tree.sol\":1250:1251  1 */\n  0x01\n    /* \"merkle_tree.sol\":1248:1249  n */\n  dup4\n    /* \"merkle_tree.sol\":1248:1251  n-1 */\n  tag_20\n  swap2\n  swap1\n  tag_21\n  jump\t// in\ntag_20:\n    /* \"merkle_tree.sol\":1245:1246  i */\n  dup2\n    /* \"merkle_tree.sol\":1245:1251  i< n-1 */\n  lt\n    /* \"merkle_tree.sol\":1228:1417  for (uint i = 0; i< n-1; i+=2) {\r... */\n  iszero\n  tag_18\n  jumpi\n    /* \"merkle_tree.sol\":1278:1284  hashes */\n  0x00\n    /* \"merkle_tree.sol\":1339:1345  hashes */\n  dup1\n    /* \"merkle_tree.sol\":1355:1356  i */\n  dup3\n    /* \"merkle_tree.sol\":1346:1352  offset */\n  dup5\n    /* \"merkle_tree.sol\":1346:1356  offset + i */\n  tag_22\n  swap2\n  swap1\n  tag_23\n  jump\t// in\ntag_22:\n    /* \"merkle_tree.sol\":1339:1357  hashes[offset + i] */\n  dup2\n  sload\n  dup2\n  lt\n  tag_24\n  jumpi\n  tag_25\n  tag_9\n  jump\t// in\ntag_25:\ntag_24:\n  swap1\n  0x00\n  mstore\n  keccak256(0x00, 0x20)\n  add\n  sload\n    /* \"merkle_tree.sol\":1358:1364  hashes */\n  0x00\n    /* \"merkle_tree.sol\":1374:1375  1 */\n  0x01\n    /* \"merkle_tree.sol\":1372:1373  i */\n  dup5\n    /* \"merkle_tree.sol\":1365:1371  offset */\n  dup7\n    /* \"merkle_tree.sol\":1365:1373  offset+i */\n  tag_27\n  swap2\n  swap1\n  tag_23\n  jump\t// in\ntag_27:\n    /* \"merkle_tree.sol\":1365:1375  offset+i+1 */\n  tag_28\n  swap2\n  swap1\n  tag_23\n  jump\t// in\ntag_28:\n    /* \"merkle_tree.sol\":1358:1376  hashes[offset+i+1] */\n  dup2\n  sload\n  dup2\n  lt\n  tag_29\n  jumpi\n  tag_30\n  tag_9\n  jump\t// in\ntag_30:\ntag_29:\n  swap1\n  0x00\n  mstore\n  keccak256(0x00, 0x20)\n  add\n  sload\n    /* \"merkle_tree.sol\":1322:1377  abi.encodePacked(hashes[offset + i],hashes[offset+i+1]) */\n  add(0x20, mload(0x40))\n  tag_32\n  swap3\n  swap2\n  swap1\n  tag_33\n  jump\t// in\ntag_32:\n  mload(0x40)\n  0x20\n  dup2\n  dup4\n  sub\n  sub\n  dup2\n  mstore\n  swap1\n  0x40\n  mstore\n    /* \"merkle_tree.sol\":1312:1378  keccak256(abi.encodePacked(hashes[offset + i],hashes[offset+i+1])) */\n  dup1\n  mload\n  swap1\n  0x20\n  add\n  keccak256\n    /* \"merkle_tree.sol\":1278:1399  hashes.push(\r... */\n  swap1\n  dup1\n  0x01\n  dup2\n  sload\n  add\n  dup1\n  dup3\n  sstore\n  dup1\n  swap2\n  pop\n  pop\n  0x01\n  swap1\n  sub\n  swap1\n  0x00\n  mstore\n  keccak256(0x00, 0x20)\n  add\n  0x00\n  swap1\n  swap2\n  swap1\n  swap2\n  swap1\n  swap2\n  pop\n  sstore\n    /* \"merkle_tree.sol\":1256:1257  2 */\n  0x02\n    /* \"merkle_tree.sol\":1253:1257  i+=2 */\n  dup2\n  tag_35\n  swap2\n  swap1\n  tag_23\n  jump\t// in\ntag_35:\n  swap1\n  pop\n    /* \"merkle_tree.sol\":1228:1417  for (uint i = 0; i< n-1; i+=2) {\r... */\n  jump(tag_17)\ntag_18:\n  pop\n    /* \"merkle_tree.sol\":1200:1442  while (n>0)  {\r... */\n  jump(tag_15)\ntag_16:\n    /* \"merkle_tree.sol\":802:1451  {\r... */\n  pop\n  pop\n  pop\n    /* \"merkle_tree.sol\":705:1456  contract TestMerkleProof is MerkleProof {\r... */\n  jump(tag_36)\n    /* \"#utility.yul\":7:164   */\ntag_38:\n    /* \"#utility.yul\":112:157   */\n  tag_40\n    /* \"#utility.yul\":132:156   */\n  tag_41\n    /* \"#utility.yul\":150:155   */\n  dup3\n    /* \"#utility.yul\":132:156   */\n  tag_42\n  jump\t// in\ntag_41:\n    /* \"#utility.yul\":112:157   */\n  tag_43\n  jump\t// in\ntag_40:\n    /* \"#utility.yul\":107:110   */\n  dup3\n    /* \"#utility.yul\":100:158   */\n  mstore\n    /* \"#utility.yul\":7:164   */\n  pop\n  pop\n  jump\t// out\n    /* \"#utility.yul\":170:547   */\ntag_44:\n    /* \"#utility.yul\":276:279   */\n  0x00\n    /* \"#utility.yul\":304:343   */\n  tag_46\n    /* \"#utility.yul\":337:342   */\n  dup3\n    /* \"#utility.yul\":304:343   */\n  tag_47\n  jump\t// in\ntag_46:\n    /* \"#utility.yul\":359:448   */\n  tag_48\n    /* \"#utility.yul\":441:447   */\n  dup2\n    /* \"#utility.yul\":436:439   */\n  dup6\n    /* \"#utility.yul\":359:448   */\n  tag_49\n  jump\t// in\ntag_48:\n    /* \"#utility.yul\":352:448   */\n  swap4\n  pop\n    /* \"#utility.yul\":457:509   */\n  tag_50\n    /* \"#utility.yul\":502:508   */\n  dup2\n    /* \"#utility.yul\":497:500   */\n  dup6\n    /* \"#utility.yul\":490:494   */\n  0x20\n    /* \"#utility.yul\":483:488   */\n  dup7\n    /* \"#utility.yul\":479:495   */\n  add\n    /* \"#utility.yul\":457:509   */\n  tag_51\n  jump\t// in\ntag_50:\n    /* \"#utility.yul\":534:540   */\n  dup1\n    /* \"#utility.yul\":529:532   */\n  dup5\n    /* \"#utility.yul\":525:541   */\n  add\n    /* \"#utility.yul\":518:541   */\n  swap2\n  pop\n    /* \"#utility.yul\":280:547   */\n  pop\n    /* \"#utility.yul\":170:547   */\n  swap3\n  swap2\n  pop\n  pop\n  jump\t// out\n    /* \"#utility.yul\":553:950   */\ntag_33:\n    /* \"#utility.yul\":693:696   */\n  0x00\n    /* \"#utility.yul\":708:783   */\n  tag_53\n    /* \"#utility.yul\":779:782   */\n  dup3\n    /* \"#utility.yul\":770:776   */\n  dup6\n    /* \"#utility.yul\":708:783   */\n  tag_38\n  jump\t// in\ntag_53:\n    /* \"#utility.yul\":808:810   */\n  0x20\n    /* \"#utility.yul\":803:806   */\n  dup3\n    /* \"#utility.yul\":799:811   */\n  add\n    /* \"#utility.yul\":792:811   */\n  swap2\n  pop\n    /* \"#utility.yul\":821:896   */\n  tag_54\n    /* \"#utility.yul\":892:895   */\n  dup3\n    /* \"#utility.yul\":883:889   */\n  dup5\n    /* \"#utility.yul\":821:896   */\n  tag_38\n  jump\t// in\ntag_54:\n    /* \"#utility.yul\":921:923   */\n  0x20\n    /* \"#utility.yul\":916:919   */\n  dup3\n    /* \"#utility.yul\":912:924   */\n  add\n    /* \"#utility.yul\":905:924   */\n  swap2\n  pop\n    /* \"#utility.yul\":941:944   */\n  dup2\n    /* \"#utility.yul\":934:944   */\n  swap1\n  pop\n    /* \"#utility.yul\":553:950   */\n  swap4\n  swap3\n  pop\n  pop\n  pop\n  jump\t// out\n    /* \"#utility.yul\":956:1231   */\ntag_11:\n    /* \"#utility.yul\":1088:1091   */\n  0x00\n    /* \"#utility.yul\":1110:1205   */\n  tag_56\n    /* \"#utility.yul\":1201:1204   */\n  dup3\n    /* \"#utility.yul\":1192:1198   */\n  dup5\n    /* \"#utility.yul\":1110:1205   */\n  tag_44\n  jump\t// in\ntag_56:\n    /* \"#utility.yul\":1103:1205   */\n  swap2\n  pop\n    /* \"#utility.yul\":1222:1225   */\n  dup2\n    /* \"#utility.yul\":1215:1225   */\n  swap1\n  pop\n    /* \"#utility.yul\":956:1231   */\n  swap3\n  swap2\n  pop\n  pop\n  jump\t// out\n    /* \"#utility.yul\":1237:1336   */\ntag_47:\n    /* \"#utility.yul\":1289:1295   */\n  0x00\n    /* \"#utility.yul\":1323:1328   */\n  dup2\n    /* \"#utility.yul\":1317:1329   */\n  mload\n    /* \"#utility.yul\":1307:1329   */\n  swap1\n  pop\n    /* \"#utility.yul\":1237:1336   */\n  swap2\n  swap1\n  pop\n  jump\t// out\n    /* \"#utility.yul\":1342:1490   */\ntag_49:\n    /* \"#utility.yul\":1444:1455   */\n  0x00\n    /* \"#utility.yul\":1481:1484   */\n  dup2\n    /* \"#utility.yul\":1466:1484   */\n  swap1\n  pop\n    /* \"#utility.yul\":1342:1490   */\n  swap3\n  swap2\n  pop\n  pop\n  jump\t// out\n    /* \"#utility.yul\":1496:1801   */\ntag_23:\n    /* \"#utility.yul\":1536:1539   */\n  0x00\n    /* \"#utility.yul\":1555:1575   */\n  tag_60\n    /* \"#utility.yul\":1573:1574   */\n  dup3\n    /* \"#utility.yul\":1555:1575   */\n  tag_61\n  jump\t// in\ntag_60:\n    /* \"#utility.yul\":1550:1575   */\n  swap2\n  pop\n    /* \"#utility.yul\":1589:1609   */\n  tag_62\n    /* \"#utility.yul\":1607:1608   */\n  dup4\n    /* \"#utility.yul\":1589:1609   */\n  tag_61\n  jump\t// in\ntag_62:\n    /* \"#utility.yul\":1584:1609   */\n  swap3\n  pop\n    /* \"#utility.yul\":1743:1744   */\n  dup3\n    /* \"#utility.yul\":1675:1741   */\n  0xffffffffffffffffffffffffffffffffffffffffffffffffffffffffffffffff\n    /* \"#utility.yul\":1671:1745   */\n  sub\n    /* \"#utility.yul\":1668:1669   */\n  dup3\n    /* \"#utility.yul\":1665:1746   */\n  gt\n    /* \"#utility.yul\":1662:1769   */\n  iszero\n  tag_63\n  jumpi\n    /* \"#utility.yul\":1749:1767   */\n  tag_64\n  tag_65\n  jump\t// in\ntag_64:\n    /* \"#utility.yul\":1662:1769   */\ntag_63:\n    /* \"#utility.yul\":1793:1794   */\n  dup3\n    /* \"#utility.yul\":1790:1791   */\n  dup3\n    /* \"#utility.yul\":1786:1795   */\n  add\n    /* \"#utility.yul\":1779:1795   */\n  swap1\n  pop\n    /* \"#utility.yul\":1496:1801   */\n  swap3\n  swap2\n  pop\n  pop\n  jump\t// out\n    /* \"#utility.yul\":1807:1998   */\ntag_21:\n    /* \"#utility.yul\":1847:1851   */\n  0x00\n    /* \"#utility.yul\":1867:1887   */\n  tag_67\n    /* \"#utility.yul\":1885:1886   */\n  dup3\n    /* \"#utility.yul\":1867:1887   */\n  tag_61\n  jump\t// in\ntag_67:\n    /* \"#utility.yul\":1862:1887   */\n  swap2\n  pop\n    /* \"#utility.yul\":1901:1921   */\n  tag_68\n    /* \"#utility.yul\":1919:1920   */\n  dup4\n    /* \"#utility.yul\":1901:1921   */\n  tag_61\n  jump\t// in\ntag_68:\n    /* \"#utility.yul\":1896:1921   */\n  swap3\n  pop\n    /* \"#utility.yul\":1940:1941   */\n  dup3\n    /* \"#utility.yul\":1937:1938   */\n  dup3\n    /* \"#utility.yul\":1934:1942   */\n  lt\n    /* \"#utility.yul\":1931:1965   */\n  iszero\n  tag_69\n  jumpi\n    /* \"#utility.yul\":1945:1963   */\n  tag_70\n  tag_65\n  jump\t// in\ntag_70:\n    /* \"#utility.yul\":1931:1965   */\ntag_69:\n    /* \"#utility.yul\":1990:1991   */\n  dup3\n    /* \"#utility.yul\":1987:1988   */\n  dup3\n    /* \"#utility.yul\":1983:1992   */\n  sub\n    /* \"#utility.yul\":1975:1992   */\n  swap1\n  pop\n    /* \"#utility.yul\":1807:1998   */\n  swap3\n  swap2\n  pop\n  pop\n  jump\t// out\n    /* \"#utility.yul\":2004:2081   */\ntag_42:\n    /* \"#utility.yul\":2041:2048   */\n  0x00\n    /* \"#utility.yul\":2070:2075   */\n  dup2\n    /* \"#utility.yul\":2059:2075   */\n  swap1\n  pop\n    /* \"#utility.yul\":2004:2081   */\n  swap2\n  swap1\n  pop\n  jump\t// out\n    /* \"#utility.yul\":2087:2164   */\ntag_61:\n    /* \"#utility.yul\":2124:2131   */\n  0x00\n    /* \"#utility.yul\":2153:2158   */\n  dup2\n    /* \"#utility.yul\":2142:2158   */\n  swap1\n  pop\n    /* \"#utility.yul\":2087:2164   */\n  swap2\n  swap1\n  pop\n  jump\t// out\n    /* \"#utility.yul\":2170:2477   */\ntag_51:\n    /* \"#utility.yul\":2238:2239   */\n  0x00\n    /* \"#utility.yul\":2248:2361   */\ntag_74:\n    /* \"#utility.yul\":2262:2268   */\n  dup4\n    /* \"#utility.yul\":2259:2260   */\n  dup2\n    /* \"#utility.yul\":2256:2269   */\n  lt\n    /* \"#utility.yul\":2248:2361   */\n  iszero\n  tag_76\n  jumpi\n    /* \"#utility.yul\":2347:2348   */\n  dup1\n    /* \"#utility.yul\":2342:2345   */\n  dup3\n    /* \"#utility.yul\":2338:2349   */\n  add\n    /* \"#utility.yul\":2332:2350   */\n  mload\n    /* \"#utility.yul\":2328:2329   */\n  dup2\n    /* \"#utility.yul\":2323:2326   */\n  dup5\n    /* \"#utility.yul\":2319:2330   */\n  add\n    /* \"#utility.yul\":2312:2351   */\n  mstore\n    /* \"#utility.yul\":2284:2286   */\n  0x20\n    /* \"#utility.yul\":2281:2282   */\n  dup2\n    /* \"#utility.yul\":2277:2287   */\n  add\n    /* \"#utility.yul\":2272:2287   */\n  swap1\n  pop\n    /* \"#utility.yul\":2248:2361   */\n  jump(tag_74)\ntag_76:\n    /* \"#utility.yul\":2379:2385   */\n  dup4\n    /* \"#utility.yul\":2376:2377   */\n  dup2\n    /* \"#utility.yul\":2373:2386   */\n  gt\n    /* \"#utility.yul\":2370:2471   */\n  iszero\n  tag_77\n  jumpi\n    /* \"#utility.yul\":2459:2460   */\n  0x00\n    /* \"#utility.yul\":2450:2456   */\n  dup5\n    /* \"#utility.yul\":2445:2448   */\n  dup5\n    /* \"#utility.yul\":2441:2457   */\n  add\n    /* \"#utility.yul\":2434:2461   */\n  mstore\n    /* \"#utility.yul\":2370:2471   */\ntag_77:\n    /* \"#utility.yul\":2219:2477   */\n  pop\n    /* \"#utility.yul\":2170:2477   */\n  pop\n  pop\n  pop\n  jump\t// out\n    /* \"#utility.yul\":2483:2716   */\ntag_14:\n    /* \"#utility.yul\":2522:2525   */\n  0x00\n    /* \"#utility.yul\":2545:2569   */\n  tag_79\n    /* \"#utility.yul\":2563:2568   */\n  dup3\n    /* \"#utility.yul\":2545:2569   */\n  tag_61\n  jump\t// in\ntag_79:\n    /* \"#utility.yul\":2536:2569   */\n  swap2\n  pop\n    /* \"#utility.yul\":2591:2657   */\n  0xffffffffffffffffffffffffffffffffffffffffffffffffffffffffffffffff\n    /* \"#utility.yul\":2584:2589   */\n  dup3\n    /* \"#utility.yul\":2581:2658   */\n  eq\n    /* \"#utility.yul\":2578:2681   */\n  iszero\n  tag_80\n  jumpi\n    /* \"#utility.yul\":2661:2679   */\n  tag_81\n  tag_65\n  jump\t// in\ntag_81:\n    /* \"#utility.yul\":2578:2681   */\ntag_80:\n    /* \"#utility.yul\":2708:2709   */\n  0x01\n    /* \"#utility.yul\":2701:2706   */\n  dup3\n    /* \"#utility.yul\":2697:2710   */\n  add\n    /* \"#utility.yul\":2690:2710   */\n  swap1\n  pop\n    /* \"#utility.yul\":2483:2716   */\n  swap2\n  swap1\n  pop\n  jump\t// out\n    /* \"#utility.yul\":2722:2801   */\ntag_43:\n    /* \"#utility.yul\":2761:2768   */\n  0x00\n    /* \"#utility.yul\":2790:2795   */\n  dup2\n    /* \"#utility.yul\":2779:2795   */\n  swap1\n  pop\n    /* \"#utility.yul\":2722:2801   */\n  swap2\n  swap1\n  pop\n  jump\t// out\n    /* \"#utility.yul\":2807:2987   */\ntag_65:\n    /* \"#utility.yul\":2855:2932   */\n  0x4e487b7100000000000000000000000000000000000000000000000000000000\n    /* \"#utility.yul\":2852:2853   */\n  0x00\n    /* \"#utility.yul\":2845:2933   */\n  mstore\n    /* \"#utility.yul\":2952:2956   */\n  0x11\n    /* \"#utility.yul\":2949:2950   */\n  0x04\n    /* \"#utility.yul\":2942:2957   */\n  mstore\n    /* \"#utility.yul\":2976:2980   */\n  0x24\n    /* \"#utility.yul\":2973:2974   */\n  0x00\n    /* \"#utility.yul\":2966:2981   */\n  revert\n    /* \"#utility.yul\":2993:3173   */\ntag_9:\n    /* \"#utility.yul\":3041:3118   */\n  0x4e487b7100000000000000000000000000000000000000000000000000000000\n    /* \"#utility.yul\":3038:3039   */\n  0x00\n    /* \"#utility.yul\":3031:3119   */\n  mstore\n    /* \"#utility.yul\":3138:3142   */\n  0x32\n    /* \"#utility.yul\":3135:3136   */\n  0x04\n    /* \"#utility.yul\":3128:3143   */\n  mstore\n    /* \"#utility.yul\":3162:3166   */\n  0x24\n    /* \"#utility.yul\":3159:3160   */\n  0x00\n    /* \"#utility.yul\":3152:3167   */\n  revert\n    /* \"merkle_tree.sol\":705:1456  contract TestMerkleProof is MerkleProof {\r... */\ntag_36:\n  dataSize(sub_0)\n  dup1\n  dataOffset(sub_0)\n  0x00\n  codecopy\n  0x00\n  return\nstop\n\nsub_0: assembly {\n        /* \"merkle_tree.sol\":705:1456  contract TestMerkleProof is MerkleProof {\r... */\n      mstore(0x40, 0x80)\n      callvalue\n      dup1\n      iszero\n      tag_1\n      jumpi\n      0x00\n      dup1\n      revert\n    tag_1:\n      pop\n      jumpi(tag_2, lt(calldatasize, 0x04))\n      shr(0xe0, calldataload(0x00))\n      dup1\n      0x21fb335c\n      eq\n      tag_3\n      jumpi\n      dup1\n      0x501895ae\n      eq\n      tag_4\n      jumpi\n    tag_2:\n      0x00\n      dup1\n      revert\n        /* \"merkle_tree.sol\":96:696  function verify(\r... */\n    tag_3:\n      tag_5\n      0x04\n      dup1\n      calldatasize\n      sub\n      dup2\n      add\n      swap1\n      tag_6\n      swap2\n      swap1\n      tag_7\n      jump\t// in\n    tag_6:\n      tag_8\n      jump\t// in\n    tag_5:\n      mload(0x40)\n      tag_9\n      swap2\n      swap1\n      tag_10\n      jump\t// in\n    tag_9:\n      mload(0x40)\n      dup1\n      swap2\n      sub\n      swap1\n      return\n        /* \"merkle_tree.sol\":754:777  bytes32[] public hashes */\n    tag_4:\n      tag_11\n      0x04\n      dup1\n      calldatasize\n      sub\n      dup2\n      add\n      swap1\n      tag_12\n      swap2\n      swap1\n      tag_13\n      jump\t// in\n    tag_12:\n      tag_14\n      jump\t// in\n    tag_11:\n      mload(0x40)\n      tag_15\n      swap2\n      swap1\n      tag_16\n      jump\t// in\n    tag_15:\n      mload(0x40)\n      dup1\n      swap2\n      sub\n      swap1\n      return\n        /* \"merkle_tree.sol\":96:696  function verify(\r... */\n    tag_8:\n        /* \"merkle_tree.sol\":240:244  bool */\n      0x00\n        /* \"merkle_tree.sol\":257:269  bytes32 hash */\n      dup1\n        /* \"merkle_tree.sol\":272:276  leaf */\n      dup4\n        /* \"merkle_tree.sol\":257:276  bytes32 hash = leaf */\n      swap1\n      pop\n        /* \"merkle_tree.sol\":296:302  uint i */\n      0x00\n        /* \"merkle_tree.sol\":291:655  for (uint i=0; i< proof.length; i++) {\r... */\n    tag_18:\n        /* \"merkle_tree.sol\":309:314  proof */\n      dup7\n        /* \"merkle_tree.sol\":309:321  proof.length */\n      mload\n        /* \"merkle_tree.sol\":306:307  i */\n      dup2\n        /* \"merkle_tree.sol\":306:321  i< proof.length */\n      lt\n        /* \"merkle_tree.sol\":291:655  for (uint i=0; i< proof.length; i++) {\r... */\n      iszero\n      tag_19\n      jumpi\n        /* \"merkle_tree.sol\":343:363  bytes32 proofElement */\n      0x00\n        /* \"merkle_tree.sol\":366:371  proof */\n      dup8\n        /* \"merkle_tree.sol\":372:373  i */\n      dup3\n        /* \"merkle_tree.sol\":366:374  proof[i] */\n      dup2\n      mload\n      dup2\n      lt\n      tag_21\n      jumpi\n      tag_22\n      tag_23\n      jump\t// in\n    tag_22:\n    tag_21:\n      0x20\n      mul\n      0x20\n      add\n      add\n      mload\n        /* \"merkle_tree.sol\":343:374  bytes32 proofElement = proof[i] */\n      swap1\n      pop\n        /* \"merkle_tree.sol\":423:424  0 */\n      0x00\n        /* \"merkle_tree.sol\":418:419  2 */\n      0x02\n        /* \"merkle_tree.sol\":410:415  index */\n      dup7\n        /* \"merkle_tree.sol\":410:419  index % 2 */\n      tag_24\n      swap2\n      swap1\n      tag_25\n      jump\t// in\n    tag_24:\n        /* \"merkle_tree.sol\":410:424  index % 2 == 0 */\n      eq\n        /* \"merkle_tree.sol\":406:608  if (index % 2 == 0) {\r... */\n      iszero\n      tag_26\n      jumpi\n        /* \"merkle_tree.sol\":479:483  hash */\n      dup3\n        /* \"merkle_tree.sol\":484:496  proofElement */\n      dup2\n        /* \"merkle_tree.sol\":462:497  abi.encodePacked(hash,proofElement) */\n      add(0x20, mload(0x40))\n      tag_27\n      swap3\n      swap2\n      swap1\n      tag_28\n      jump\t// in\n    tag_27:\n      mload(0x40)\n      0x20\n      dup2\n      dup4\n      sub\n      sub\n      dup2\n      mstore\n      swap1\n      0x40\n      mstore\n        /* \"merkle_tree.sol\":452:498  keccak256(abi.encodePacked(hash,proofElement)) */\n      dup1\n      mload\n      swap1\n      0x20\n      add\n      keccak256\n        /* \"merkle_tree.sol\":445:498  hash = keccak256(abi.encodePacked(hash,proofElement)) */\n      swap3\n      pop\n        /* \"merkle_tree.sol\":406:608  if (index % 2 == 0) {\r... */\n      jump(tag_29)\n    tag_26:\n        /* \"merkle_tree.sol\":573:585  proofElement */\n      dup1\n        /* \"merkle_tree.sol\":586:590  hash */\n      dup4\n        /* \"merkle_tree.sol\":556:591  abi.encodePacked(proofElement,hash) */\n      add(0x20, mload(0x40))\n      tag_30\n      swap3\n      swap2\n      swap1\n      tag_28\n      jump\t// in\n    tag_30:\n      mload(0x40)\n      0x20\n      dup2\n      dup4\n      sub\n      sub\n      dup2\n      mstore\n      swap1\n      0x40\n      mstore\n        /* \"merkle_tree.sol\":546:592  keccak256(abi.encodePacked(proofElement,hash)) */\n      dup1\n      mload\n      swap1\n      0x20\n      add\n      keccak256\n        /* \"merkle_tree.sol\":539:592  hash = keccak256(abi.encodePacked(proofElement,hash)) */\n      swap3\n      pop\n        /* \"merkle_tree.sol\":406:608  if (index % 2 == 0) {\r... */\n    tag_29:\n        /* \"merkle_tree.sol\":640:641  2 */\n      0x02\n        /* \"merkle_tree.sol\":632:637  index */\n      dup6\n        /* \"merkle_tree.sol\":632:641  index / 2 */\n      tag_31\n      swap2\n      swap1\n      tag_32\n      jump\t// in\n    tag_31:\n        /* \"merkle_tree.sol\":624:641  index = index / 2 */\n      swap5\n      pop\n        /* \"merkle_tree.sol\":328:655  {\r... */\n      pop\n        /* \"merkle_tree.sol\":323:326  i++ */\n      dup1\n      dup1\n      tag_33\n      swap1\n      tag_34\n      jump\t// in\n    tag_33:\n      swap2\n      pop\n      pop\n        /* \"merkle_tree.sol\":291:655  for (uint i=0; i< proof.length; i++) {\r... */\n      jump(tag_18)\n    tag_19:\n      pop\n        /* \"merkle_tree.sol\":682:686  root */\n      dup5\n        /* \"merkle_tree.sol\":674:678  hash */\n      dup2\n        /* \"merkle_tree.sol\":674:686  hash == root */\n      eq\n        /* \"merkle_tree.sol\":667:686  return hash == root */\n      swap2\n      pop\n      pop\n        /* \"merkle_tree.sol\":96:696  function verify(\r... */\n      swap5\n      swap4\n      pop\n      pop\n      pop\n      pop\n      jump\t// out\n        /* \"merkle_tree.sol\":754:777  bytes32[] public hashes */\n    tag_14:\n      0x00\n      dup2\n      dup2\n      sload\n      dup2\n      lt\n      tag_35\n      jumpi\n      0x00\n      dup1\n      revert\n    tag_35:\n      swap1\n      0x00\n      mstore\n      keccak256(0x00, 0x20)\n      add\n      0x00\n      swap2\n      pop\n      swap1\n      pop\n      sload\n      dup2\n      jump\t// out\n        /* \"#utility.yul\":24:746   */\n    tag_38:\n        /* \"#utility.yul\":120:125   */\n      0x00\n        /* \"#utility.yul\":145:226   */\n      tag_40\n        /* \"#utility.yul\":161:225   */\n      tag_41\n        /* \"#utility.yul\":218:224   */\n      dup5\n        /* \"#utility.yul\":161:225   */\n      tag_42\n      jump\t// in\n    tag_41:\n        /* \"#utility.yul\":145:226   */\n      tag_43\n      jump\t// in\n    tag_40:\n        /* \"#utility.yul\":136:226   */\n      swap1\n      pop\n        /* \"#utility.yul\":246:251   */\n      dup1\n        /* \"#utility.yul\":275:281   */\n      dup4\n        /* \"#utility.yul\":268:273   */\n      dup3\n        /* \"#utility.yul\":261:282   */\n      mstore\n        /* \"#utility.yul\":309:313   */\n      0x20\n        /* \"#utility.yul\":302:307   */\n      dup3\n        /* \"#utility.yul\":298:314   */\n      add\n        /* \"#utility.yul\":291:314   */\n      swap1\n      pop\n        /* \"#utility.yul\":335:341   */\n      dup3\n        /* \"#utility.yul\":385:388   */\n      dup6\n        /* \"#utility.yul\":377:381   */\n      0x20\n        /* \"#utility.yul\":369:375   */\n      dup7\n        /* \"#utility.yul\":365:382   */\n      mul\n        /* \"#utility.yul\":360:363   */\n      dup3\n        /* \"#utility.yul\":356:383   */\n      add\n        /* \"#utility.yul\":353:389   */\n      gt\n        /* \"#utility.yul\":350:493   */\n      iszero\n      tag_44\n      jumpi\n        /* \"#utility.yul\":404:483   */\n      tag_45\n      tag_46\n      jump\t// in\n    tag_45:\n        /* \"#utility.yul\":350:493   */\n    tag_44:\n        /* \"#utility.yul\":517:518   */\n      0x00\n        /* \"#utility.yul\":502:740   */\n    tag_47:\n        /* \"#utility.yul\":527:533   */\n      dup6\n        /* \"#utility.yul\":524:525   */\n      dup2\n        /* \"#utility.yul\":521:534   */\n      lt\n        /* \"#utility.yul\":502:740   */\n      iszero\n      tag_49\n      jumpi\n        /* \"#utility.yul\":595:598   */\n      dup2\n        /* \"#utility.yul\":624:661   */\n      tag_50\n        /* \"#utility.yul\":657:660   */\n      dup9\n        /* \"#utility.yul\":645:655   */\n      dup3\n        /* \"#utility.yul\":624:661   */\n      tag_51\n      jump\t// in\n    tag_50:\n        /* \"#utility.yul\":619:622   */\n      dup5\n        /* \"#utility.yul\":612:662   */\n      mstore\n        /* \"#utility.yul\":691:695   */\n      0x20\n        /* \"#utility.yul\":686:689   */\n      dup5\n        /* \"#utility.yul\":682:696   */\n      add\n        /* \"#utility.yul\":675:696   */\n      swap4\n      pop\n        /* \"#utility.yul\":725:729   */\n      0x20\n        /* \"#utility.yul\":720:723   */\n      dup4\n        /* \"#utility.yul\":716:730   */\n      add\n        /* \"#utility.yul\":709:730   */\n      swap3\n      pop\n        /* \"#utility.yul\":562:740   */\n      pop\n        /* \"#utility.yul\":549:550   */\n      0x01\n        /* \"#utility.yul\":546:547   */\n      dup2\n        /* \"#utility.yul\":542:551   */\n      add\n        /* \"#utility.yul\":537:551   */\n      swap1\n      pop\n        /* \"#utility.yul\":502:740   */\n      jump(tag_47)\n    tag_49:\n        /* \"#utility.yul\":506:520   */\n      pop\n        /* \"#utility.yul\":126:746   */\n      pop\n      pop\n        /* \"#utility.yul\":24:746   */\n      swap4\n      swap3\n      pop\n      pop\n      pop\n      jump\t// out\n        /* \"#utility.yul\":769:1139   */\n    tag_52:\n        /* \"#utility.yul\":840:845   */\n      0x00\n        /* \"#utility.yul\":889:892   */\n      dup3\n        /* \"#utility.yul\":882:886   */\n      0x1f\n        /* \"#utility.yul\":874:880   */\n      dup4\n        /* \"#utility.yul\":870:887   */\n      add\n        /* \"#utility.yul\":866:893   */\n      slt\n        /* \"#utility.yul\":856:978   */\n      tag_54\n      jumpi\n        /* \"#utility.yul\":897:976   */\n      tag_55\n      tag_56\n      jump\t// in\n    tag_55:\n        /* \"#utility.yul\":856:978   */\n    tag_54:\n        /* \"#utility.yul\":1014:1020   */\n      dup2\n        /* \"#utility.yul\":1001:1021   */\n      calldataload\n        /* \"#utility.yul\":1039:1133   */\n      tag_57\n        /* \"#utility.yul\":1129:1132   */\n      dup5\n        /* \"#utility.yul\":1121:1127   */\n      dup3\n        /* \"#utility.yul\":1114:1118   */\n      0x20\n        /* \"#utility.yul\":1106:1112   */\n      dup7\n        /* \"#utility.yul\":1102:1119   */\n      add\n        /* \"#utility.yul\":1039:1133   */\n      tag_38\n      jump\t// in\n    tag_57:\n        /* \"#utility.yul\":1030:1133   */\n      swap2\n      pop\n        /* \"#utility.yul\":846:1139   */\n      pop\n        /* \"#utility.yul\":769:1139   */\n      swap3\n      swap2\n      pop\n      pop\n      jump\t// out\n        /* \"#utility.yul\":1145:1284   */\n    tag_51:\n        /* \"#utility.yul\":1191:1196   */\n      0x00\n        /* \"#utility.yul\":1229:1235   */\n      dup2\n        /* \"#utility.yul\":1216:1236   */\n      calldataload\n        /* \"#utility.yul\":1207:1236   */\n      swap1\n      pop\n        /* \"#utility.yul\":1245:1278   */\n      tag_59\n        /* \"#utility.yul\":1272:1277   */\n      dup2\n        /* \"#utility.yul\":1245:1278   */\n      tag_60\n      jump\t// in\n    tag_59:\n        /* \"#utility.yul\":1145:1284   */\n      swap3\n      swap2\n      pop\n      pop\n      jump\t// out\n        /* \"#utility.yul\":1290:1429   */\n    tag_61:\n        /* \"#utility.yul\":1336:1341   */\n      0x00\n        /* \"#utility.yul\":1374:1380   */\n      dup2\n        /* \"#utility.yul\":1361:1381   */\n      calldataload\n        /* \"#utility.yul\":1352:1381   */\n      swap1\n      pop\n        /* \"#utility.yul\":1390:1423   */\n      tag_63\n        /* \"#utility.yul\":1417:1422   */\n      dup2\n        /* \"#utility.yul\":1390:1423   */\n      tag_64\n      jump\t// in\n    tag_63:\n        /* \"#utility.yul\":1290:1429   */\n      swap3\n      swap2\n      pop\n      pop\n      jump\t// out\n        /* \"#utility.yul\":1435:2410   */\n    tag_7:\n        /* \"#utility.yul\":1546:1552   */\n      0x00\n        /* \"#utility.yul\":1554:1560   */\n      dup1\n        /* \"#utility.yul\":1562:1568   */\n      0x00\n        /* \"#utility.yul\":1570:1576   */\n      dup1\n        /* \"#utility.yul\":1619:1622   */\n      0x80\n        /* \"#utility.yul\":1607:1616   */\n      dup6\n        /* \"#utility.yul\":1598:1605   */\n      dup8\n        /* \"#utility.yul\":1594:1617   */\n      sub\n        /* \"#utility.yul\":1590:1623   */\n      slt\n        /* \"#utility.yul\":1587:1707   */\n      iszero\n      tag_66\n      jumpi\n        /* \"#utility.yul\":1626:1705   */\n      tag_67\n      tag_68\n      jump\t// in\n    tag_67:\n        /* \"#utility.yul\":1587:1707   */\n    tag_66:\n        /* \"#utility.yul\":1774:1775   */\n      0x00\n        /* \"#utility.yul\":1763:1772   */\n      dup6\n        /* \"#utility.yul\":1759:1776   */\n      add\n        /* \"#utility.yul\":1746:1777   */\n      calldataload\n        /* \"#utility.yul\":1804:1822   */\n      0xffffffffffffffff\n        /* \"#utility.yul\":1796:1802   */\n      dup2\n        /* \"#utility.yul\":1793:1823   */\n      gt\n        /* \"#utility.yul\":1790:1907   */\n      iszero\n      tag_69\n      jumpi\n        /* \"#utility.yul\":1826:1905   */\n      tag_70\n      tag_71\n      jump\t// in\n    tag_70:\n        /* \"#utility.yul\":1790:1907   */\n    tag_69:\n        /* \"#utility.yul\":1931:2009   */\n      tag_72\n        /* \"#utility.yul\":2001:2008   */\n      dup8\n        /* \"#utility.yul\":1992:1998   */\n      dup3\n        /* \"#utility.yul\":1981:1990   */\n      dup9\n        /* \"#utility.yul\":1977:1999   */\n      add\n        /* \"#utility.yul\":1931:2009   */\n      tag_52\n      jump\t// in\n    tag_72:\n        /* \"#utility.yul\":1921:2009   */\n      swap5\n      pop\n        /* \"#utility.yul\":1717:2019   */\n      pop\n        /* \"#utility.yul\":2058:2060   */\n      0x20\n        /* \"#utility.yul\":2084:2137   */\n      tag_73\n        /* \"#utility.yul\":2129:2136   */\n      dup8\n        /* \"#utility.yul\":2120:2126   */\n      dup3\n        /* \"#utility.yul\":2109:2118   */\n      dup9\n        /* \"#utility.yul\":2105:2127   */\n      add\n        /* \"#utility.yul\":2084:2137   */\n      tag_51\n      jump\t// in\n    tag_73:\n        /* \"#utility.yul\":2074:2137   */\n      swap4\n      pop\n        /* \"#utility.yul\":2029:2147   */\n      pop\n        /* \"#utility.yul\":2186:2188   */\n      0x40\n        /* \"#utility.yul\":2212:2265   */\n      tag_74\n        /* \"#utility.yul\":2257:2264   */\n      dup8\n        /* \"#utility.yul\":2248:2254   */\n      dup3\n        /* \"#utility.yul\":2237:2246   */\n      dup9\n        /* \"#utility.yul\":2233:2255   */\n      add\n        /* \"#utility.yul\":2212:2265   */\n      tag_51\n      jump\t// in\n    tag_74:\n        /* \"#utility.yul\":2202:2265   */\n      swap3\n      pop\n        /* \"#utility.yul\":2157:2275   */\n      pop\n        /* \"#utility.yul\":2314:2316   */\n      0x60\n        /* \"#utility.yul\":2340:2393   */\n      tag_75\n        /* \"#utility.yul\":2385:2392   */\n      dup8\n        /* \"#utility.yul\":2376:2382   */\n      dup3\n        /* \"#utility.yul\":2365:2374   */\n      dup9\n        /* \"#utility.yul\":2361:2383   */\n      add\n        /* \"#utility.yul\":2340:2393   */\n      tag_61\n      jump\t// in\n    tag_75:\n        /* \"#utility.yul\":2330:2393   */\n      swap2\n      pop\n        /* \"#utility.yul\":2285:2403   */\n      pop\n        /* \"#utility.yul\":1435:2410   */\n      swap3\n      swap6\n      swap2\n      swap5\n      pop\n      swap3\n      pop\n      jump\t// out\n        /* \"#utility.yul\":2416:2745   */\n    tag_13:\n        /* \"#utility.yul\":2475:2481   */\n      0x00\n        /* \"#utility.yul\":2524:2526   */\n      0x20\n        /* \"#utility.yul\":2512:2521   */\n      dup3\n        /* \"#utility.yul\":2503:2510   */\n      dup5\n        /* \"#utility.yul\":2499:2522   */\n      sub\n        /* \"#utility.yul\":2495:2527   */\n      slt\n        /* \"#utility.yul\":2492:2611   */\n      iszero\n      tag_77\n      jumpi\n        /* \"#utility.yul\":2530:2609   */\n      tag_78\n      tag_68\n      jump\t// in\n    tag_78:\n        /* \"#utility.yul\":2492:2611   */\n    tag_77:\n        /* \"#utility.yul\":2650:2651   */\n      0x00\n        /* \"#utility.yul\":2675:2728   */\n      tag_79\n        /* \"#utility.yul\":2720:2727   */\n      dup5\n        /* \"#utility.yul\":2711:2717   */\n      dup3\n        /* \"#utility.yul\":2700:2709   */\n      dup6\n        /* \"#utility.yul\":2696:2718   */\n      add\n        /* \"#utility.yul\":2675:2728   */\n      tag_61\n      jump\t// in\n    tag_79:\n        /* \"#utility.yul\":2665:2728   */\n      swap2\n      pop\n        /* \"#utility.yul\":2621:2738   */\n      pop\n        /* \"#utility.yul\":2416:2745   */\n      swap3\n      swap2\n      pop\n      pop\n      jump\t// out\n        /* \"#utility.yul\":2751:2860   */\n    tag_80:\n        /* \"#utility.yul\":2832:2853   */\n      tag_82\n        /* \"#utility.yul\":2847:2852   */\n      dup2\n        /* \"#utility.yul\":2832:2853   */\n      tag_83\n      jump\t// in\n    tag_82:\n        /* \"#utility.yul\":2827:2830   */\n      dup3\n        /* \"#utility.yul\":2820:2854   */\n      mstore\n        /* \"#utility.yul\":2751:2860   */\n      pop\n      pop\n      jump\t// out\n        /* \"#utility.yul\":2866:2984   */\n    tag_84:\n        /* \"#utility.yul\":2953:2977   */\n      tag_86\n        /* \"#utility.yul\":2971:2976   */\n      dup2\n        /* \"#utility.yul\":2953:2977   */\n      tag_87\n      jump\t// in\n    tag_86:\n        /* \"#utility.yul\":2948:2951   */\n      dup3\n        /* \"#utility.yul\":2941:2978   */\n      mstore\n        /* \"#utility.yul\":2866:2984   */\n      pop\n      pop\n      jump\t// out\n        /* \"#utility.yul\":2990:3147   */\n    tag_88:\n        /* \"#utility.yul\":3095:3140   */\n      tag_90\n        /* \"#utility.yul\":3115:3139   */\n      tag_91\n        /* \"#utility.yul\":3133:3138   */\n      dup3\n        /* \"#utility.yul\":3115:3139   */\n      tag_87\n      jump\t// in\n    tag_91:\n        /* \"#utility.yul\":3095:3140   */\n      tag_92\n      jump\t// in\n    tag_90:\n        /* \"#utility.yul\":3090:3093   */\n      dup3\n        /* \"#utility.yul\":3083:3141   */\n      mstore\n        /* \"#utility.yul\":2990:3147   */\n      pop\n      pop\n      jump\t// out\n        /* \"#utility.yul\":3153:3550   */\n    tag_28:\n        /* \"#utility.yul\":3293:3296   */\n      0x00\n        /* \"#utility.yul\":3308:3383   */\n      tag_94\n        /* \"#utility.yul\":3379:3382   */\n      dup3\n        /* \"#utility.yul\":3370:3376   */\n      dup6\n        /* \"#utility.yul\":3308:3383   */\n      tag_88\n      jump\t// in\n    tag_94:\n        /* \"#utility.yul\":3408:3410   */\n      0x20\n        /* \"#utility.yul\":3403:3406   */\n      dup3\n        /* \"#utility.yul\":3399:3411   */\n      add\n        /* \"#utility.yul\":3392:3411   */\n      swap2\n      pop\n        /* \"#utility.yul\":3421:3496   */\n      tag_95\n        /* \"#utility.yul\":3492:3495   */\n      dup3\n        /* \"#utility.yul\":3483:3489   */\n      dup5\n        /* \"#utility.yul\":3421:3496   */\n      tag_88\n      jump\t// in\n    tag_95:\n        /* \"#utility.yul\":3521:3523   */\n      0x20\n        /* \"#utility.yul\":3516:3519   */\n      dup3\n        /* \"#utility.yul\":3512:3524   */\n      add\n        /* \"#utility.yul\":3505:3524   */\n      swap2\n      pop\n        /* \"#utility.yul\":3541:3544   */\n      dup2\n        /* \"#utility.yul\":3534:3544   */\n      swap1\n      pop\n        /* \"#utility.yul\":3153:3550   */\n      swap4\n      swap3\n      pop\n      pop\n      pop\n      jump\t// out\n        /* \"#utility.yul\":3556:3766   */\n    tag_10:\n        /* \"#utility.yul\":3643:3647   */\n      0x00\n        /* \"#utility.yul\":3681:3683   */\n      0x20\n        /* \"#utility.yul\":3670:3679   */\n      dup3\n        /* \"#utility.yul\":3666:3684   */\n      add\n        /* \"#utility.yul\":3658:3684   */\n      swap1\n      pop\n        /* \"#utility.yul\":3694:3759   */\n      tag_97\n        /* \"#utility.yul\":3756:3757   */\n      0x00\n        /* \"#utility.yul\":3745:3754   */\n      dup4\n        /* \"#utility.yul\":3741:3758   */\n      add\n        /* \"#utility.yul\":3732:3738   */\n      dup5\n        /* \"#utility.yul\":3694:3759   */\n      tag_80\n      jump\t// in\n    tag_97:\n        /* \"#utility.yul\":3556:3766   */\n      swap3\n      swap2\n      pop\n      pop\n      jump\t// out\n        /* \"#utility.yul\":3772:3994   */\n    tag_16:\n        /* \"#utility.yul\":3865:3869   */\n      0x00\n        /* \"#utility.yul\":3903:3905   */\n      0x20\n        /* \"#utility.yul\":3892:3901   */\n      dup3\n        /* \"#utility.yul\":3888:3906   */\n      add\n        /* \"#utility.yul\":3880:3906   */\n      swap1\n      pop\n        /* \"#utility.yul\":3916:3987   */\n      tag_99\n        /* \"#utility.yul\":3984:3985   */\n      0x00\n        /* \"#utility.yul\":3973:3982   */\n      dup4\n        /* \"#utility.yul\":3969:3986   */\n      add\n        /* \"#utility.yul\":3960:3966   */\n      dup5\n        /* \"#utility.yul\":3916:3987   */\n      tag_84\n      jump\t// in\n    tag_99:\n        /* \"#utility.yul\":3772:3994   */\n      swap3\n      swap2\n      pop\n      pop\n      jump\t// out\n        /* \"#utility.yul\":4000:4129   */\n    tag_43:\n        /* \"#utility.yul\":4034:4040   */\n      0x00\n        /* \"#utility.yul\":4061:4081   */\n      tag_101\n      tag_102\n      jump\t// in\n    tag_101:\n        /* \"#utility.yul\":4051:4081   */\n      swap1\n      pop\n        /* \"#utility.yul\":4090:4123   */\n      tag_103\n        /* \"#utility.yul\":4118:4122   */\n      dup3\n        /* \"#utility.yul\":4110:4116   */\n      dup3\n        /* \"#utility.yul\":4090:4123   */\n      tag_104\n      jump\t// in\n    tag_103:\n        /* \"#utility.yul\":4000:4129   */\n      swap2\n      swap1\n      pop\n      jump\t// out\n        /* \"#utility.yul\":4135:4210   */\n    tag_102:\n        /* \"#utility.yul\":4168:4174   */\n      0x00\n        /* \"#utility.yul\":4201:4203   */\n      0x40\n        /* \"#utility.yul\":4195:4204   */\n      mload\n        /* \"#utility.yul\":4185:4204   */\n      swap1\n      pop\n        /* \"#utility.yul\":4135:4210   */\n      swap1\n      jump\t// out\n        /* \"#utility.yul\":4216:4527   */\n    tag_42:\n        /* \"#utility.yul\":4293:4297   */\n      0x00\n        /* \"#utility.yul\":4383:4401   */\n      0xffffffffffffffff\n        /* \"#utility.yul\":4375:4381   */\n      dup3\n        /* \"#utility.yul\":4372:4402   */\n      gt\n        /* \"#utility.yul\":4369:4425   */\n      iszero\n      tag_107\n      jumpi\n        /* \"#utility.yul\":4405:4423   */\n      tag_108\n      tag_109\n      jump\t// in\n    tag_108:\n        /* \"#utility.yul\":4369:4425   */\n    tag_107:\n        /* \"#utility.yul\":4455:4459   */\n      0x20\n        /* \"#utility.yul\":4447:4453   */\n      dup3\n        /* \"#utility.yul\":4443:4460   */\n      mul\n        /* \"#utility.yul\":4435:4460   */\n      swap1\n      pop\n        /* \"#utility.yul\":4515:4519   */\n      0x20\n        /* \"#utility.yul\":4509:4513   */\n      dup2\n        /* \"#utility.yul\":4505:4520   */\n      add\n        /* \"#utility.yul\":4497:4520   */\n      swap1\n      pop\n        /* \"#utility.yul\":4216:4527   */\n      swap2\n      swap1\n      pop\n      jump\t// out\n        /* \"#utility.yul\":4533:4718   */\n    tag_32:\n        /* \"#utility.yul\":4573:4574   */\n      0x00\n        /* \"#utility.yul\":4590:4610   */\n      tag_111\n        /* \"#utility.yul\":4608:4609   */\n      dup3\n        /* \"#utility.yul\":4590:4610   */\n      tag_112\n      jump\t// in\n    tag_111:\n        /* \"#utility.yul\":4585:4610   */\n      swap2\n      pop\n        /* \"#utility.yul\":4624:4644   */\n      tag_113\n        /* \"#utility.yul\":4642:4643   */\n      dup4\n        /* \"#utility.yul\":4624:4644   */\n      tag_112\n      jump\t// in\n    tag_113:\n        /* \"#utility.yul\":4619:4644   */\n      swap3\n      pop\n        /* \"#utility.yul\":4663:4664   */\n      dup3\n        /* \"#utility.yul\":4653:4688   */\n      tag_114\n      jumpi\n        /* \"#utility.yul\":4668:4686   */\n      tag_115\n      tag_116\n      jump\t// in\n    tag_115:\n        /* \"#utility.yul\":4653:4688   */\n    tag_114:\n        /* \"#utility.yul\":4710:4711   */\n      dup3\n        /* \"#utility.yul\":4707:4708   */\n      dup3\n        /* \"#utility.yul\":4703:4712   */\n      div\n        /* \"#utility.yul\":4698:4712   */\n      swap1\n      pop\n        /* \"#utility.yul\":4533:4718   */\n      swap3\n      swap2\n      pop\n      pop\n      jump\t// out\n        /* \"#utility.yul\":4724:4814   */\n    tag_83:\n        /* \"#utility.yul\":4758:4765   */\n      0x00\n        /* \"#utility.yul\":4801:4806   */\n      dup2\n        /* \"#utility.yul\":4794:4807   */\n      iszero\n        /* \"#utility.yul\":4787:4808   */\n      iszero\n        /* \"#utility.yul\":4776:4808   */\n      swap1\n      pop\n        /* \"#utility.yul\":4724:4814   */\n      swap2\n      swap1\n      pop\n      jump\t// out\n        /* \"#utility.yul\":4820:4897   */\n    tag_87:\n        /* \"#utility.yul\":4857:4864   */\n      0x00\n        /* \"#utility.yul\":4886:4891   */\n      dup2\n        /* \"#utility.yul\":4875:4891   */\n      swap1\n      pop\n        /* \"#utility.yul\":4820:4897   */\n      swap2\n      swap1\n      pop\n      jump\t// out\n        /* \"#utility.yul\":4903:4980   */\n    tag_112:\n        /* \"#utility.yul\":4940:4947   */\n      0x00\n        /* \"#utility.yul\":4969:4974   */\n      dup2\n        /* \"#utility.yul\":4958:4974   */\n      swap1\n      pop\n        /* \"#utility.yul\":4903:4980   */\n      swap2\n      swap1\n      pop\n      jump\t// out\n        /* \"#utility.yul\":4986:5267   */\n    tag_104:\n        /* \"#utility.yul\":5069:5096   */\n      tag_121\n        /* \"#utility.yul\":5091:5095   */\n      dup3\n        /* \"#utility.yul\":5069:5096   */\n      tag_122\n      jump\t// in\n    tag_121:\n        /* \"#utility.yul\":5061:5067   */\n      dup2\n        /* \"#utility.yul\":5057:5097   */\n      add\n        /* \"#utility.yul\":5199:5205   */\n      dup2\n        /* \"#utility.yul\":5187:5197   */\n      dup2\n        /* \"#utility.yul\":5184:5206   */\n      lt\n        /* \"#utility.yul\":5163:5181   */\n      0xffffffffffffffff\n        /* \"#utility.yul\":5151:5161   */\n      dup3\n        /* \"#utility.yul\":5148:5182   */\n      gt\n        /* \"#utility.yul\":5145:5207   */\n      or\n        /* \"#utility.yul\":5142:5230   */\n      iszero\n      tag_123\n      jumpi\n        /* \"#utility.yul\":5210:5228   */\n      tag_124\n      tag_109\n      jump\t// in\n    tag_124:\n        /* \"#utility.yul\":5142:5230   */\n    tag_123:\n        /* \"#utility.yul\":5250:5260   */\n      dup1\n        /* \"#utility.yul\":5246:5248   */\n      0x40\n        /* \"#utility.yul\":5239:5261   */\n      mstore\n        /* \"#utility.yul\":5029:5267   */\n      pop\n        /* \"#utility.yul\":4986:5267   */\n      pop\n      pop\n      jump\t// out\n        /* \"#utility.yul\":5273:5506   */\n    tag_34:\n        /* \"#utility.yul\":5312:5315   */\n      0x00\n        /* \"#utility.yul\":5335:5359   */\n      tag_126\n        /* \"#utility.yul\":5353:5358   */\n      dup3\n        /* \"#utility.yul\":5335:5359   */\n      tag_112\n      jump\t// in\n    tag_126:\n        /* \"#utility.yul\":5326:5359   */\n      swap2\n      pop\n        /* \"#utility.yul\":5381:5447   */\n      0xffffffffffffffffffffffffffffffffffffffffffffffffffffffffffffffff\n        /* \"#utility.yul\":5374:5379   */\n      dup3\n        /* \"#utility.yul\":5371:5448   */\n      eq\n        /* \"#utility.yul\":5368:5471   */\n      iszero\n      tag_127\n      jumpi\n        /* \"#utility.yul\":5451:5469   */\n      tag_128\n      tag_129\n      jump\t// in\n    tag_128:\n        /* \"#utility.yul\":5368:5471   */\n    tag_127:\n        /* \"#utility.yul\":5498:5499   */\n      0x01\n        /* \"#utility.yul\":5491:5496   */\n      dup3\n        /* \"#utility.yul\":5487:5500   */\n      add\n        /* \"#utility.yul\":5480:5500   */\n      swap1\n      pop\n        /* \"#utility.yul\":5273:5506   */\n      swap2\n      swap1\n      pop\n      jump\t// out\n        /* \"#utility.yul\":5512:5591   */\n    tag_92:\n        /* \"#utility.yul\":5551:5558   */\n      0x00\n        /* \"#utility.yul\":5580:5585   */\n      dup2\n        /* \"#utility.yul\":5569:5585   */\n      swap1\n      pop\n        /* \"#utility.yul\":5512:5591   */\n      swap2\n      swap1\n      pop\n      jump\t// out\n        /* \"#utility.yul\":5597:5773   */\n    tag_25:\n        /* \"#utility.yul\":5629:5630   */\n      0x00\n        /* \"#utility.yul\":5646:5666   */\n      tag_132\n        /* \"#utility.yul\":5664:5665   */\n      dup3\n        /* \"#utility.yul\":5646:5666   */\n      tag_112\n      jump\t// in\n    tag_132:\n        /* \"#utility.yul\":5641:5666   */\n      swap2\n      pop\n        /* \"#utility.yul\":5680:5700   */\n      tag_133\n        /* \"#utility.yul\":5698:5699   */\n      dup4\n        /* \"#utility.yul\":5680:5700   */\n      tag_112\n      jump\t// in\n    tag_133:\n        /* \"#utility.yul\":5675:5700   */\n      swap3\n      pop\n        /* \"#utility.yul\":5719:5720   */\n      dup3\n        /* \"#utility.yul\":5709:5744   */\n      tag_134\n      jumpi\n        /* \"#utility.yul\":5724:5742   */\n      tag_135\n      tag_116\n      jump\t// in\n    tag_135:\n        /* \"#utility.yul\":5709:5744   */\n    tag_134:\n        /* \"#utility.yul\":5765:5766   */\n      dup3\n        /* \"#utility.yul\":5762:5763   */\n      dup3\n        /* \"#utility.yul\":5758:5767   */\n      mod\n        /* \"#utility.yul\":5753:5767   */\n      swap1\n      pop\n        /* \"#utility.yul\":5597:5773   */\n      swap3\n      swap2\n      pop\n      pop\n      jump\t// out\n        /* \"#utility.yul\":5779:5959   */\n    tag_129:\n        /* \"#utility.yul\":5827:5904   */\n      0x4e487b7100000000000000000000000000000000000000000000000000000000\n        /* \"#utility.yul\":5824:5825   */\n      0x00\n        /* \"#utility.yul\":5817:5905   */\n      mstore\n        /* \"#utility.yul\":5924:5928   */\n      0x11\n        /* \"#utility.yul\":5921:5922   */\n      0x04\n        /* \"#utility.yul\":5914:5929   */\n      mstore\n        /* \"#utility.yul\":5948:5952   */\n      0x24\n        /* \"#utility.yul\":5945:5946   */\n      0x00\n        /* \"#utility.yul\":5938:5953   */\n      revert\n        /* \"#utility.yul\":5965:6145   */\n    tag_116:\n        /* \"#utility.yul\":6013:6090   */\n      0x4e487b7100000000000000000000000000000000000000000000000000000000\n        /* \"#utility.yul\":6010:6011   */\n      0x00\n        /* \"#utility.yul\":6003:6091   */\n      mstore\n        /* \"#utility.yul\":6110:6114   */\n      0x12\n        /* \"#utility.yul\":6107:6108   */\n      0x04\n        /* \"#utility.yul\":6100:6115   */\n      mstore\n        /* \"#utility.yul\":6134:6138   */\n      0x24\n        /* \"#utility.yul\":6131:6132   */\n      0x00\n        /* \"#utility.yul\":6124:6139   */\n      revert\n        /* \"#utility.yul\":6151:6331   */\n    tag_23:\n        /* \"#utility.yul\":6199:6276   */\n      0x4e487b7100000000000000000000000000000000000000000000000000000000\n        /* \"#utility.yul\":6196:6197   */\n      0x00\n        /* \"#utility.yul\":6189:6277   */\n      mstore\n        /* \"#utility.yul\":6296:6300   */\n      0x32\n        /* \"#utility.yul\":6293:6294   */\n      0x04\n        /* \"#utility.yul\":6286:6301   */\n      mstore\n        /* \"#utility.yul\":6320:6324   */\n      0x24\n        /* \"#utility.yul\":6317:6318   */\n      0x00\n        /* \"#utility.yul\":6310:6325   */\n      revert\n        /* \"#utility.yul\":6337:6517   */\n    tag_109:\n        /* \"#utility.yul\":6385:6462   */\n      0x4e487b7100000000000000000000000000000000000000000000000000000000\n        /* \"#utility.yul\":6382:6383   */\n      0x00\n        /* \"#utility.yul\":6375:6463   */\n      mstore\n        /* \"#utility.yul\":6482:6486   */\n      0x41\n        /* \"#utility.yul\":6479:6480   */\n      0x04\n        /* \"#utility.yul\":6472:6487   */\n      mstore\n        /* \"#utility.yul\":6506:6510   */\n      0x24\n        /* \"#utility.yul\":6503:6504   */\n      0x00\n        /* \"#utility.yul\":6496:6511   */\n      revert\n        /* \"#utility.yul\":6523:6640   */\n    tag_56:\n        /* \"#utility.yul\":6632:6633   */\n      0x00\n        /* \"#utility.yul\":6629:6630   */\n      dup1\n        /* \"#utility.yul\":6622:6634   */\n      revert\n        /* \"#utility.yul\":6646:6763   */\n    tag_46:\n        /* \"#utility.yul\":6755:6756   */\n      0x00\n        /* \"#utility.yul\":6752:6753   */\n      dup1\n        /* \"#utility.yul\":6745:6757   */\n      revert\n        /* \"#utility.yul\":6769:6886   */\n    tag_71:\n        /* \"#utility.yul\":6878:6879   */\n      0x00\n        /* \"#utility.yul\":6875:6876   */\n      dup1\n        /* \"#utility.yul\":6868:6880   */\n      revert\n        /* \"#utility.yul\":6892:7009   */\n    tag_68:\n        /* \"#utility.yul\":7001:7002   */\n      0x00\n        /* \"#utility.yul\":6998:6999   */\n      dup1\n        /* \"#utility.yul\":6991:7003   */\n      revert\n        /* \"#utility.yul\":7015:7117   */\n    tag_122:\n        /* \"#utility.yul\":7056:7062   */\n      0x00\n        /* \"#utility.yul\":7107:7109   */\n      0x1f\n        /* \"#utility.yul\":7103:7110   */\n      not\n        /* \"#utility.yul\":7098:7100   */\n      0x1f\n        /* \"#utility.yul\":7091:7096   */\n      dup4\n        /* \"#utility.yul\":7087:7101   */\n      add\n        /* \"#utility.yul\":7083:7111   */\n      and\n        /* \"#utility.yul\":7073:7111   */\n      swap1\n      pop\n        /* \"#utility.yul\":7015:7117   */\n      swap2\n      swap1\n      pop\n      jump\t// out\n        /* \"#utility.yul\":7123:7245   */\n    tag_60:\n        /* \"#utility.yul\":7196:7220   */\n      tag_146\n        /* \"#utility.yul\":7214:7219   */\n      dup2\n        /* \"#utility.yul\":7196:7220   */\n      tag_87\n      jump\t// in\n    tag_146:\n        /* \"#utility.yul\":7189:7194   */\n      dup2\n        /* \"#utility.yul\":7186:7221   */\n      eq\n        /* \"#utility.yul\":7176:7239   */\n      tag_147\n      jumpi\n        /* \"#utility.yul\":7235:7236   */\n      0x00\n        /* \"#utility.yul\":7232:7233   */\n      dup1\n        /* \"#utility.yul\":7225:7237   */\n      revert\n        /* \"#utility.yul\":7176:7239   */\n    tag_147:\n        /* \"#utility.yul\":7123:7245   */\n      pop\n      jump\t// out\n        /* \"#utility.yul\":7251:7373   */\n    tag_64:\n        /* \"#utility.yul\":7324:7348   */\n      tag_149\n        /* \"#utility.yul\":7342:7347   */\n      dup2\n        /* \"#utility.yul\":7324:7348   */\n      tag_112\n      jump\t// in\n    tag_149:\n        /* \"#utility.yul\":7317:7322   */\n      dup2\n        /* \"#utility.yul\":7314:7349   */\n      eq\n        /* \"#utility.yul\":7304:7367   */\n      tag_150\n      jumpi\n        /* \"#utility.yul\":7363:7364   */\n      0x00\n        /* \"#utility.yul\":7360:7361   */\n      dup1\n        /* \"#utility.yul\":7353:7365   */\n      revert\n        /* \"#utility.yul\":7304:7367   */\n    tag_150:\n        /* \"#utility.yul\":7251:7373   */\n      pop\n      jump\t// out\n\n    auxdata: 0xa264697066735822122042b7aa5e7bd3ed268750ff6a4f32c15ff95e8db44b1d5a44b1089d41b21d137d64736f6c63430008070033\n}\n",
				"bytecode": {
					"linkReferences": {},
					"object": "60806040523480156200001157600080fd5b50600060405180608001604052806040518060400160405280600c81526020017f616c696365202d3e20626f62000000000000000000000000000000000000000081525081526020016040518060400160405280600b81526020017f626f62202d3e206461766500000000000000000000000000000000000000000081525081526020016040518060400160405280600e81526020017f6361726f6c202d3e20616c69636500000000000000000000000000000000000081525081526020016040518060400160405280600b81526020017f64617665202d3e20626f62000000000000000000000000000000000000000000815250815250905060005b60048110156200019957600082826004811062000130576200012f620004c4565b5b60200201516040516020016200014791906200032c565b604051602081830303815290604052805190602001209080600181540180825580915050600190039060005260206000200160009091909190915055808062000190906200043d565b9150506200010e565b5060006004905060005b6000821115620002a15760005b600183620001bf9190620003b8565b8110156200029a576000808284620001d891906200035b565b81548110620001ec57620001eb620004c4565b5b90600052602060002001546000600184866200020991906200035b565b6200021591906200035b565b81548110620002295762000228620004c4565b5b906000526020600020015460405160200162000247929190620002fc565b6040516020818303038152906040528051906020012090806001815401808255809150506001900390600052602060002001600090919091909150556002816200029291906200035b565b9050620001b0565b50620001a3565b505050620004f3565b620002bf620002b982620003f3565b6200048b565b82525050565b6000620002d28262000345565b620002de818562000350565b9350620002f081856020860162000407565b80840191505092915050565b60006200030a8285620002aa565b6020820191506200031c8284620002aa565b6020820191508190509392505050565b60006200033a8284620002c5565b915081905092915050565b600081519050919050565b600081905092915050565b60006200036882620003fd565b91506200037583620003fd565b9250827fffffffffffffffffffffffffffffffffffffffffffffffffffffffffffffffff03821115620003ad57620003ac62000495565b5b828201905092915050565b6000620003c582620003fd565b9150620003d283620003fd565b925082821015620003e857620003e762000495565b5b828203905092915050565b6000819050919050565b6000819050919050565b60005b83811015620004275780820151818401526020810190506200040a565b8381111562000437576000848401525b50505050565b60006200044a82620003fd565b91507fffffffffffffffffffffffffffffffffffffffffffffffffffffffffffffffff82141562000480576200047f62000495565b5b600182019050919050565b6000819050919050565b7f4e487b7100000000000000000000000000000000000000000000000000000000600052601160045260246000fd5b7f4e487b7100000000000000000000000000000000000000000000000000000000600052603260045260246000fd5b61063e80620005036000396000f3fe608060405234801561001057600080fd5b50600436106100365760003560e01c806321fb335c1461003b578063501895ae1461006b575b600080fd5b6100556004803603810190610050919061025b565b61009b565b604051610062919061036c565b60405180910390f35b610085600480360381019061008091906102de565b61016f565b6040516100929190610387565b60405180910390f35b60008083905060005b86518110156101605760008782815181106100c2576100c1610557565b5b6020026020010151905060006002866100db91906104c8565b14156101115782816040516020016100f4929190610340565b60405160208183030381529060405280519060200120925061013d565b8083604051602001610124929190610340565b6040516020818303038152906040528051906020012092505b60028561014a91906103f3565b945050808061015890610475565b9150506100a4565b50848114915050949350505050565b6000818154811061017f57600080fd5b906000526020600020016000915090505481565b60006101a66101a1846103c7565b6103a2565b905080838252602082019050828560208602820111156101c9576101c86105ba565b5b60005b858110156101f957816101df8882610231565b8452602084019350602083019250506001810190506101cc565b5050509392505050565b600082601f830112610218576102176105b5565b5b8135610228848260208601610193565b91505092915050565b600081359050610240816105da565b92915050565b600081359050610255816105f1565b92915050565b60008060008060808587031215610275576102746105c4565b5b600085013567ffffffffffffffff811115610293576102926105bf565b5b61029f87828801610203565b94505060206102b087828801610231565b93505060406102c187828801610231565b92505060606102d287828801610246565b91505092959194509250565b6000602082840312156102f4576102f36105c4565b5b600061030284828501610246565b91505092915050565b61031481610424565b82525050565b61032381610430565b82525050565b61033a61033582610430565b6104be565b82525050565b600061034c8285610329565b60208201915061035c8284610329565b6020820191508190509392505050565b6000602082019050610381600083018461030b565b92915050565b600060208201905061039c600083018461031a565b92915050565b60006103ac6103bd565b90506103b88282610444565b919050565b6000604051905090565b600067ffffffffffffffff8211156103e2576103e1610586565b5b602082029050602081019050919050565b60006103fe8261043a565b91506104098361043a565b92508261041957610418610528565b5b828204905092915050565b60008115159050919050565b6000819050919050565b6000819050919050565b61044d826105c9565b810181811067ffffffffffffffff8211171561046c5761046b610586565b5b80604052505050565b60006104808261043a565b91507fffffffffffffffffffffffffffffffffffffffffffffffffffffffffffffffff8214156104b3576104b26104f9565b5b600182019050919050565b6000819050919050565b60006104d38261043a565b91506104de8361043a565b9250826104ee576104ed610528565b5b828206905092915050565b7f4e487b7100000000000000000000000000000000000000000000000000000000600052601160045260246000fd5b7f4e487b7100000000000000000000000000000000000000000000000000000000600052601260045260246000fd5b7f4e487b7100000000000000000000000000000000000000000000000000000000600052603260045260246000fd5b7f4e487b7100000000000000000000000000000000000000000000000000000000600052604160045260246000fd5b600080fd5b600080fd5b600080fd5b600080fd5b6000601f19601f8301169050919050565b6105e381610430565b81146105ee57600080fd5b50565b6105fa8161043a565b811461060557600080fd5b5056fea264697066735822122042b7aa5e7bd3ed268750ff6a4f32c15ff95e8db44b1d5a44b1089d41b21d137d64736f6c63430008070033",
					"opcodes": "PUSH1 0x80 PUSH1 0x40 MSTORE CALLVALUE DUP1 ISZERO PUSH3 0x11 JUMPI PUSH1 0x0 DUP1 REVERT JUMPDEST POP PUSH1 0x0 PUSH1 0x40 MLOAD DUP1 PUSH1 0x80 ADD PUSH1 0x40 MSTORE DUP1 PUSH1 0x40 MLOAD DUP1 PUSH1 0x40 ADD PUSH1 0x40 MSTORE DUP1 PUSH1 0xC DUP2 MSTORE PUSH1 0x20 ADD PUSH32 0x616C696365202D3E20626F620000000000000000000000000000000000000000 DUP2 MSTORE POP DUP2 MSTORE PUSH1 0x20 ADD PUSH1 0x40 MLOAD DUP1 PUSH1 0x40 ADD PUSH1 0x40 MSTORE DUP1 PUSH1 0xB DUP2 MSTORE PUSH1 0x20 ADD PUSH32 0x626F62202D3E2064617665000000000000000000000000000000000000000000 DUP2 MSTORE POP DUP2 MSTORE PUSH1 0x20 ADD PUSH1 0x40 MLOAD DUP1 PUSH1 0x40 ADD PUSH1 0x40 MSTORE DUP1 PUSH1 0xE DUP2 MSTORE PUSH1 0x20 ADD PUSH32 0x6361726F6C202D3E20616C696365000000000000000000000000000000000000 DUP2 MSTORE POP DUP2 MSTORE PUSH1 0x20 ADD PUSH1 0x40 MLOAD DUP1 PUSH1 0x40 ADD PUSH1 0x40 MSTORE DUP1 PUSH1 0xB DUP2 MSTORE PUSH1 0x20 ADD PUSH32 0x64617665202D3E20626F62000000000000000000000000000000000000000000 DUP2 MSTORE POP DUP2 MSTORE POP SWAP1 POP PUSH1 0x0 JUMPDEST PUSH1 0x4 DUP2 LT ISZERO PUSH3 0x199 JUMPI PUSH1 0x0 DUP3 DUP3 PUSH1 0x4 DUP2 LT PUSH3 0x130 JUMPI PUSH3 0x12F PUSH3 0x4C4 JUMP JUMPDEST JUMPDEST PUSH1 0x20 MUL ADD MLOAD PUSH1 0x40 MLOAD PUSH1 0x20 ADD PUSH3 0x147 SWAP2 SWAP1 PUSH3 0x32C JUMP JUMPDEST PUSH1 0x40 MLOAD PUSH1 0x20 DUP2 DUP4 SUB SUB DUP2 MSTORE SWAP1 PUSH1 0x40 MSTORE DUP1 MLOAD SWAP1 PUSH1 0x20 ADD KECCAK256 SWAP1 DUP1 PUSH1 0x1 DUP2 SLOAD ADD DUP1 DUP3 SSTORE DUP1 SWAP2 POP POP PUSH1 0x1 SWAP1 SUB SWAP1 PUSH1 0x0 MSTORE PUSH1 0x20 PUSH1 0x0 KECCAK256 ADD PUSH1 0x0 SWAP1 SWAP2 SWAP1 SWAP2 SWAP1 SWAP2 POP SSTORE DUP1 DUP1 PUSH3 0x190 SWAP1 PUSH3 0x43D JUMP JUMPDEST SWAP2 POP POP PUSH3 0x10E JUMP JUMPDEST POP PUSH1 0x0 PUSH1 0x4 SWAP1 POP PUSH1 0x0 JUMPDEST PUSH1 0x0 DUP3 GT ISZERO PUSH3 0x2A1 JUMPI PUSH1 0x0 JUMPDEST PUSH1 0x1 DUP4 PUSH3 0x1BF SWAP2 SWAP1 PUSH3 0x3B8 JUMP JUMPDEST DUP2 LT ISZERO PUSH3 0x29A JUMPI PUSH1 0x0 DUP1 DUP3 DUP5 PUSH3 0x1D8 SWAP2 SWAP1 PUSH3 0x35B JUMP JUMPDEST DUP2 SLOAD DUP2 LT PUSH3 0x1EC JUMPI PUSH3 0x1EB PUSH3 0x4C4 JUMP JUMPDEST JUMPDEST SWAP1 PUSH1 0x0 MSTORE PUSH1 0x20 PUSH1 0x0 KECCAK256 ADD SLOAD PUSH1 0x0 PUSH1 0x1 DUP5 DUP7 PUSH3 0x209 SWAP2 SWAP1 PUSH3 0x35B JUMP JUMPDEST PUSH3 0x215 SWAP2 SWAP1 PUSH3 0x35B JUMP JUMPDEST DUP2 SLOAD DUP2 LT PUSH3 0x229 JUMPI PUSH3 0x228 PUSH3 0x4C4 JUMP JUMPDEST JUMPDEST SWAP1 PUSH1 0x0 MSTORE PUSH1 0x20 PUSH1 0x0 KECCAK256 ADD SLOAD PUSH1 0x40 MLOAD PUSH1 0x20 ADD PUSH3 0x247 SWAP3 SWAP2 SWAP1 PUSH3 0x2FC JUMP JUMPDEST PUSH1 0x40 MLOAD PUSH1 0x20 DUP2 DUP4 SUB SUB DUP2 MSTORE SWAP1 PUSH1 0x40 MSTORE DUP1 MLOAD SWAP1 PUSH1 0x20 ADD KECCAK256 SWAP1 DUP1 PUSH1 0x1 DUP2 SLOAD ADD DUP1 DUP3 SSTORE DUP1 SWAP2 POP POP PUSH1 0x1 SWAP1 SUB SWAP1 PUSH1 0x0 MSTORE PUSH1 0x20 PUSH1 0x0 KECCAK256 ADD PUSH1 0x0 SWAP1 SWAP2 SWAP1 SWAP2 SWAP1 SWAP2 POP SSTORE PUSH1 0x2 DUP2 PUSH3 0x292 SWAP2 SWAP1 PUSH3 0x35B JUMP JUMPDEST SWAP1 POP PUSH3 0x1B0 JUMP JUMPDEST POP PUSH3 0x1A3 JUMP JUMPDEST POP POP POP PUSH3 0x4F3 JUMP JUMPDEST PUSH3 0x2BF PUSH3 0x2B9 DUP3 PUSH3 0x3F3 JUMP JUMPDEST PUSH3 0x48B JUMP JUMPDEST DUP3 MSTORE POP POP JUMP JUMPDEST PUSH1 0x0 PUSH3 0x2D2 DUP3 PUSH3 0x345 JUMP JUMPDEST PUSH3 0x2DE DUP2 DUP6 PUSH3 0x350 JUMP JUMPDEST SWAP4 POP PUSH3 0x2F0 DUP2 DUP6 PUSH1 0x20 DUP7 ADD PUSH3 0x407 JUMP JUMPDEST DUP1 DUP5 ADD SWAP2 POP POP SWAP3 SWAP2 POP POP JUMP JUMPDEST PUSH1 0x0 PUSH3 0x30A DUP3 DUP6 PUSH3 0x2AA JUMP JUMPDEST PUSH1 0x20 DUP3 ADD SWAP2 POP PUSH3 0x31C DUP3 DUP5 PUSH3 0x2AA JUMP JUMPDEST PUSH1 0x20 DUP3 ADD SWAP2 POP DUP2 SWAP1 POP SWAP4 SWAP3 POP POP POP JUMP JUMPDEST PUSH1 0x0 PUSH3 0x33A DUP3 DUP5 PUSH3 0x2C5 JUMP JUMPDEST SWAP2 POP DUP2 SWAP1 POP SWAP3 SWAP2 POP POP JUMP JUMPDEST PUSH1 0x0 DUP2 MLOAD SWAP1 POP SWAP2 SWAP1 POP JUMP JUMPDEST PUSH1 0x0 DUP2 SWAP1 POP SWAP3 SWAP2 POP POP JUMP JUMPDEST PUSH1 0x0 PUSH3 0x368 DUP3 PUSH3 0x3FD JUMP JUMPDEST SWAP2 POP PUSH3 0x375 DUP4 PUSH3 0x3FD JUMP JUMPDEST SWAP3 POP DUP3 PUSH32 0xFFFFFFFFFFFFFFFFFFFFFFFFFFFFFFFFFFFFFFFFFFFFFFFFFFFFFFFFFFFFFFFF SUB DUP3 GT ISZERO PUSH3 0x3AD JUMPI PUSH3 0x3AC PUSH3 0x495 JUMP JUMPDEST JUMPDEST DUP3 DUP3 ADD SWAP1 POP SWAP3 SWAP2 POP POP JUMP JUMPDEST PUSH1 0x0 PUSH3 0x3C5 DUP3 PUSH3 0x3FD JUMP JUMPDEST SWAP2 POP PUSH3 0x3D2 DUP4 PUSH3 0x3FD JUMP JUMPDEST SWAP3 POP DUP3 DUP3 LT ISZERO PUSH3 0x3E8 JUMPI PUSH3 0x3E7 PUSH3 0x495 JUMP JUMPDEST JUMPDEST DUP3 DUP3 SUB SWAP1 POP SWAP3 SWAP2 POP POP JUMP JUMPDEST PUSH1 0x0 DUP2 SWAP1 POP SWAP2 SWAP1 POP JUMP JUMPDEST PUSH1 0x0 DUP2 SWAP1 POP SWAP2 SWAP1 POP JUMP JUMPDEST PUSH1 0x0 JUMPDEST DUP4 DUP2 LT ISZERO PUSH3 0x427 JUMPI DUP1 DUP3 ADD MLOAD DUP2 DUP5 ADD MSTORE PUSH1 0x20 DUP2 ADD SWAP1 POP PUSH3 0x40A JUMP JUMPDEST DUP4 DUP2 GT ISZERO PUSH3 0x437 JUMPI PUSH1 0x0 DUP5 DUP5 ADD MSTORE JUMPDEST POP POP POP POP JUMP JUMPDEST PUSH1 0x0 PUSH3 0x44A DUP3 PUSH3 0x3FD JUMP JUMPDEST SWAP2 POP PUSH32 0xFFFFFFFFFFFFFFFFFFFFFFFFFFFFFFFFFFFFFFFFFFFFFFFFFFFFFFFFFFFFFFFF DUP3 EQ ISZERO PUSH3 0x480 JUMPI PUSH3 0x47F PUSH3 0x495 JUMP JUMPDEST JUMPDEST PUSH1 0x1 DUP3 ADD SWAP1 POP SWAP2 SWAP1 POP JUMP JUMPDEST PUSH1 0x0 DUP2 SWAP1 POP SWAP2 SWAP1 POP JUMP JUMPDEST PUSH32 0x4E487B7100000000000000000000000000000000000000000000000000000000 PUSH1 0x0 MSTORE PUSH1 0x11 PUSH1 0x4 MSTORE PUSH1 0x24 PUSH1 0x0 REVERT JUMPDEST PUSH32 0x4E487B7100000000000000000000000000000000000000000000000000000000 PUSH1 0x0 MSTORE PUSH1 0x32 PUSH1 0x4 MSTORE PUSH1 0x24 PUSH1 0x0 REVERT JUMPDEST PUSH2 0x63E DUP1 PUSH3 0x503 PUSH1 0x0 CODECOPY PUSH1 0x0 RETURN INVALID PUSH1 0x80 PUSH1 0x40 MSTORE CALLVALUE DUP1 ISZERO PUSH2 0x10 JUMPI PUSH1 0x0 DUP1 REVERT JUMPDEST POP PUSH1 0x4 CALLDATASIZE LT PUSH2 0x36 JUMPI PUSH1 0x0 CALLDATALOAD PUSH1 0xE0 SHR DUP1 PUSH4 0x21FB335C EQ PUSH2 0x3B JUMPI DUP1 PUSH4 0x501895AE EQ PUSH2 0x6B JUMPI JUMPDEST PUSH1 0x0 DUP1 REVERT JUMPDEST PUSH2 0x55 PUSH1 0x4 DUP1 CALLDATASIZE SUB DUP2 ADD SWAP1 PUSH2 0x50 SWAP2 SWAP1 PUSH2 0x25B JUMP JUMPDEST PUSH2 0x9B JUMP JUMPDEST PUSH1 0x40 MLOAD PUSH2 0x62 SWAP2 SWAP1 PUSH2 0x36C JUMP JUMPDEST PUSH1 0x40 MLOAD DUP1 SWAP2 SUB SWAP1 RETURN JUMPDEST PUSH2 0x85 PUSH1 0x4 DUP1 CALLDATASIZE SUB DUP2 ADD SWAP1 PUSH2 0x80 SWAP2 SWAP1 PUSH2 0x2DE JUMP JUMPDEST PUSH2 0x16F JUMP JUMPDEST PUSH1 0x40 MLOAD PUSH2 0x92 SWAP2 SWAP1 PUSH2 0x387 JUMP JUMPDEST PUSH1 0x40 MLOAD DUP1 SWAP2 SUB SWAP1 RETURN JUMPDEST PUSH1 0x0 DUP1 DUP4 SWAP1 POP PUSH1 0x0 JUMPDEST DUP7 MLOAD DUP2 LT ISZERO PUSH2 0x160 JUMPI PUSH1 0x0 DUP8 DUP3 DUP2 MLOAD DUP2 LT PUSH2 0xC2 JUMPI PUSH2 0xC1 PUSH2 0x557 JUMP JUMPDEST JUMPDEST PUSH1 0x20 MUL PUSH1 0x20 ADD ADD MLOAD SWAP1 POP PUSH1 0x0 PUSH1 0x2 DUP7 PUSH2 0xDB SWAP2 SWAP1 PUSH2 0x4C8 JUMP JUMPDEST EQ ISZERO PUSH2 0x111 JUMPI DUP3 DUP2 PUSH1 0x40 MLOAD PUSH1 0x20 ADD PUSH2 0xF4 SWAP3 SWAP2 SWAP1 PUSH2 0x340 JUMP JUMPDEST PUSH1 0x40 MLOAD PUSH1 0x20 DUP2 DUP4 SUB SUB DUP2 MSTORE SWAP1 PUSH1 0x40 MSTORE DUP1 MLOAD SWAP1 PUSH1 0x20 ADD KECCAK256 SWAP3 POP PUSH2 0x13D JUMP JUMPDEST DUP1 DUP4 PUSH1 0x40 MLOAD PUSH1 0x20 ADD PUSH2 0x124 SWAP3 SWAP2 SWAP1 PUSH2 0x340 JUMP JUMPDEST PUSH1 0x40 MLOAD PUSH1 0x20 DUP2 DUP4 SUB SUB DUP2 MSTORE SWAP1 PUSH1 0x40 MSTORE DUP1 MLOAD SWAP1 PUSH1 0x20 ADD KECCAK256 SWAP3 POP JUMPDEST PUSH1 0x2 DUP6 PUSH2 0x14A SWAP2 SWAP1 PUSH2 0x3F3 JUMP JUMPDEST SWAP5 POP POP DUP1 DUP1 PUSH2 0x158 SWAP1 PUSH2 0x475 JUMP JUMPDEST SWAP2 POP POP PUSH2 0xA4 JUMP JUMPDEST POP DUP5 DUP2 EQ SWAP2 POP POP SWAP5 SWAP4 POP POP POP POP JUMP JUMPDEST PUSH1 0x0 DUP2 DUP2 SLOAD DUP2 LT PUSH2 0x17F JUMPI PUSH1 0x0 DUP1 REVERT JUMPDEST SWAP1 PUSH1 0x0 MSTORE PUSH1 0x20 PUSH1 0x0 KECCAK256 ADD PUSH1 0x0 SWAP2 POP SWAP1 POP SLOAD DUP2 JUMP JUMPDEST PUSH1 0x0 PUSH2 0x1A6 PUSH2 0x1A1 DUP5 PUSH2 0x3C7 JUMP JUMPDEST PUSH2 0x3A2 JUMP JUMPDEST SWAP1 POP DUP1 DUP4 DUP3 MSTORE PUSH1 0x20 DUP3 ADD SWAP1 POP DUP3 DUP6 PUSH1 0x20 DUP7 MUL DUP3 ADD GT ISZERO PUSH2 0x1C9 JUMPI PUSH2 0x1C8 PUSH2 0x5BA JUMP JUMPDEST JUMPDEST PUSH1 0x0 JUMPDEST DUP6 DUP2 LT ISZERO PUSH2 0x1F9 JUMPI DUP2 PUSH2 0x1DF DUP9 DUP3 PUSH2 0x231 JUMP JUMPDEST DUP5 MSTORE PUSH1 0x20 DUP5 ADD SWAP4 POP PUSH1 0x20 DUP4 ADD SWAP3 POP POP PUSH1 0x1 DUP2 ADD SWAP1 POP PUSH2 0x1CC JUMP JUMPDEST POP POP POP SWAP4 SWAP3 POP POP POP JUMP JUMPDEST PUSH1 0x0 DUP3 PUSH1 0x1F DUP4 ADD SLT PUSH2 0x218 JUMPI PUSH2 0x217 PUSH2 0x5B5 JUMP JUMPDEST JUMPDEST DUP2 CALLDATALOAD PUSH2 0x228 DUP5 DUP3 PUSH1 0x20 DUP7 ADD PUSH2 0x193 JUMP JUMPDEST SWAP2 POP POP SWAP3 SWAP2 POP POP JUMP JUMPDEST PUSH1 0x0 DUP2 CALLDATALOAD SWAP1 POP PUSH2 0x240 DUP2 PUSH2 0x5DA JUMP JUMPDEST SWAP3 SWAP2 POP POP JUMP JUMPDEST PUSH1 0x0 DUP2 CALLDATALOAD SWAP1 POP PUSH2 0x255 DUP2 PUSH2 0x5F1 JUMP JUMPDEST SWAP3 SWAP2 POP POP JUMP JUMPDEST PUSH1 0x0 DUP1 PUSH1 0x0 DUP1 PUSH1 0x80 DUP6 DUP8 SUB SLT ISZERO PUSH2 0x275 JUMPI PUSH2 0x274 PUSH2 0x5C4 JUMP JUMPDEST JUMPDEST PUSH1 0x0 DUP6 ADD CALLDATALOAD PUSH8 0xFFFFFFFFFFFFFFFF DUP2 GT ISZERO PUSH2 0x293 JUMPI PUSH2 0x292 PUSH2 0x5BF JUMP JUMPDEST JUMPDEST PUSH2 0x29F DUP8 DUP3 DUP9 ADD PUSH2 0x203 JUMP JUMPDEST SWAP5 POP POP PUSH1 0x20 PUSH2 0x2B0 DUP8 DUP3 DUP9 ADD PUSH2 0x231 JUMP JUMPDEST SWAP4 POP POP PUSH1 0x40 PUSH2 0x2C1 DUP8 DUP3 DUP9 ADD PUSH2 0x231 JUMP JUMPDEST SWAP3 POP POP PUSH1 0x60 PUSH2 0x2D2 DUP8 DUP3 DUP9 ADD PUSH2 0x246 JUMP JUMPDEST SWAP2 POP POP SWAP3 SWAP6 SWAP2 SWAP5 POP SWAP3 POP JUMP JUMPDEST PUSH1 0x0 PUSH1 0x20 DUP3 DUP5 SUB SLT ISZERO PUSH2 0x2F4 JUMPI PUSH2 0x2F3 PUSH2 0x5C4 JUMP JUMPDEST JUMPDEST PUSH1 0x0 PUSH2 0x302 DUP5 DUP3 DUP6 ADD PUSH2 0x246 JUMP JUMPDEST SWAP2 POP POP SWAP3 SWAP2 POP POP JUMP JUMPDEST PUSH2 0x314 DUP2 PUSH2 0x424 JUMP JUMPDEST DUP3 MSTORE POP POP JUMP JUMPDEST PUSH2 0x323 DUP2 PUSH2 0x430 JUMP JUMPDEST DUP3 MSTORE POP POP JUMP JUMPDEST PUSH2 0x33A PUSH2 0x335 DUP3 PUSH2 0x430 JUMP JUMPDEST PUSH2 0x4BE JUMP JUMPDEST DUP3 MSTORE POP POP JUMP JUMPDEST PUSH1 0x0 PUSH2 0x34C DUP3 DUP6 PUSH2 0x329 JUMP JUMPDEST PUSH1 0x20 DUP3 ADD SWAP2 POP PUSH2 0x35C DUP3 DUP5 PUSH2 0x329 JUMP JUMPDEST PUSH1 0x20 DUP3 ADD SWAP2 POP DUP2 SWAP1 POP SWAP4 SWAP3 POP POP POP JUMP JUMPDEST PUSH1 0x0 PUSH1 0x20 DUP3 ADD SWAP1 POP PUSH2 0x381 PUSH1 0x0 DUP4 ADD DUP5 PUSH2 0x30B JUMP JUMPDEST SWAP3 SWAP2 POP POP JUMP JUMPDEST PUSH1 0x0 PUSH1 0x20 DUP3 ADD SWAP1 POP PUSH2 0x39C PUSH1 0x0 DUP4 ADD DUP5 PUSH2 0x31A JUMP JUMPDEST SWAP3 SWAP2 POP POP JUMP JUMPDEST PUSH1 0x0 PUSH2 0x3AC PUSH2 0x3BD JUMP JUMPDEST SWAP1 POP PUSH2 0x3B8 DUP3 DUP3 PUSH2 0x444 JUMP JUMPDEST SWAP2 SWAP1 POP JUMP JUMPDEST PUSH1 0x0 PUSH1 0x40 MLOAD SWAP1 POP SWAP1 JUMP JUMPDEST PUSH1 0x0 PUSH8 0xFFFFFFFFFFFFFFFF DUP3 GT ISZERO PUSH2 0x3E2 JUMPI PUSH2 0x3E1 PUSH2 0x586 JUMP JUMPDEST JUMPDEST PUSH1 0x20 DUP3 MUL SWAP1 POP PUSH1 0x20 DUP2 ADD SWAP1 POP SWAP2 SWAP1 POP JUMP JUMPDEST PUSH1 0x0 PUSH2 0x3FE DUP3 PUSH2 0x43A JUMP JUMPDEST SWAP2 POP PUSH2 0x409 DUP4 PUSH2 0x43A JUMP JUMPDEST SWAP3 POP DUP3 PUSH2 0x419 JUMPI PUSH2 0x418 PUSH2 0x528 JUMP JUMPDEST JUMPDEST DUP3 DUP3 DIV SWAP1 POP SWAP3 SWAP2 POP POP JUMP JUMPDEST PUSH1 0x0 DUP2 ISZERO ISZERO SWAP1 POP SWAP2 SWAP1 POP JUMP JUMPDEST PUSH1 0x0 DUP2 SWAP1 POP SWAP2 SWAP1 POP JUMP JUMPDEST PUSH1 0x0 DUP2 SWAP1 POP SWAP2 SWAP1 POP JUMP JUMPDEST PUSH2 0x44D DUP3 PUSH2 0x5C9 JUMP JUMPDEST DUP2 ADD DUP2 DUP2 LT PUSH8 0xFFFFFFFFFFFFFFFF DUP3 GT OR ISZERO PUSH2 0x46C JUMPI PUSH2 0x46B PUSH2 0x586 JUMP JUMPDEST JUMPDEST DUP1 PUSH1 0x40 MSTORE POP POP POP JUMP JUMPDEST PUSH1 0x0 PUSH2 0x480 DUP3 PUSH2 0x43A JUMP JUMPDEST SWAP2 POP PUSH32 0xFFFFFFFFFFFFFFFFFFFFFFFFFFFFFFFFFFFFFFFFFFFFFFFFFFFFFFFFFFFFFFFF DUP3 EQ ISZERO PUSH2 0x4B3 JUMPI PUSH2 0x4B2 PUSH2 0x4F9 JUMP JUMPDEST JUMPDEST PUSH1 0x1 DUP3 ADD SWAP1 POP SWAP2 SWAP1 POP JUMP JUMPDEST PUSH1 0x0 DUP2 SWAP1 POP SWAP2 SWAP1 POP JUMP JUMPDEST PUSH1 0x0 PUSH2 0x4D3 DUP3 PUSH2 0x43A JUMP JUMPDEST SWAP2 POP PUSH2 0x4DE DUP4 PUSH2 0x43A JUMP JUMPDEST SWAP3 POP DUP3 PUSH2 0x4EE JUMPI PUSH2 0x4ED PUSH2 0x528 JUMP JUMPDEST JUMPDEST DUP3 DUP3 MOD SWAP1 POP SWAP3 SWAP2 POP POP JUMP JUMPDEST PUSH32 0x4E487B7100000000000000000000000000000000000000000000000000000000 PUSH1 0x0 MSTORE PUSH1 0x11 PUSH1 0x4 MSTORE PUSH1 0x24 PUSH1 0x0 REVERT JUMPDEST PUSH32 0x4E487B7100000000000000000000000000000000000000000000000000000000 PUSH1 0x0 MSTORE PUSH1 0x12 PUSH1 0x4 MSTORE PUSH1 0x24 PUSH1 0x0 REVERT JUMPDEST PUSH32 0x4E487B7100000000000000000000000000000000000000000000000000000000 PUSH1 0x0 MSTORE PUSH1 0x32 PUSH1 0x4 MSTORE PUSH1 0x24 PUSH1 0x0 REVERT JUMPDEST PUSH32 0x4E487B7100000000000000000000000000000000000000000000000000000000 PUSH1 0x0 MSTORE PUSH1 0x41 PUSH1 0x4 MSTORE PUSH1 0x24 PUSH1 0x0 REVERT JUMPDEST PUSH1 0x0 DUP1 REVERT JUMPDEST PUSH1 0x0 DUP1 REVERT JUMPDEST PUSH1 0x0 DUP1 REVERT JUMPDEST PUSH1 0x0 DUP1 REVERT JUMPDEST PUSH1 0x0 PUSH1 0x1F NOT PUSH1 0x1F DUP4 ADD AND SWAP1 POP SWAP2 SWAP1 POP JUMP JUMPDEST PUSH2 0x5E3 DUP2 PUSH2 0x430 JUMP JUMPDEST DUP2 EQ PUSH2 0x5EE JUMPI PUSH1 0x0 DUP1 REVERT JUMPDEST POP JUMP JUMPDEST PUSH2 0x5FA DUP2 PUSH2 0x43A JUMP JUMPDEST DUP2 EQ PUSH2 0x605 JUMPI PUSH1 0x0 DUP1 REVERT JUMPDEST POP JUMP INVALID LOG2 PUSH5 0x6970667358 0x22 SLT KECCAK256 TIMESTAMP 0xB7 0xAA 0x5E PUSH28 0xD3ED268750FF6A4F32C15FF95E8DB44B1D5A44B1089D41B21D137D64 PUSH20 0x6F6C634300080700330000000000000000000000 "
				},
				"gasEstimates": {
					"creation": {
						"codeDepositCost": "319600",
						"executionCost": "infinite",
						"totalCost": "infinite"
					},
					"external": {
						"hashes(uint256)": "4882",
						"verify(bytes32[],bytes32,bytes32,uint256)": "infinite"
					}
				},
				"methodIdentifiers": {
					"hashes(uint256)": "501895ae",
					"verify(bytes32[],bytes32,bytes32,uint256)": "21fb335c"
				}
			},
			"storageLayout": {
				"storage": [
					{
						"astId": 83,
						"contract": "merkle_tree.sol:TestMerkleProof",
						"label": "hashes",
						"offset": 0,
						"slot": "0",
						"type": "t_array(t_bytes32)dyn_storage"
					}
				],
				"types": {
					"t_array(t_bytes32)dyn_storage": {
						"base": "t_bytes32",
						"encoding": "dynamic_array",
						"label": "bytes32[]",
						"numberOfBytes": "32"
					},
					"t_bytes32": {
						"encoding": "inplace",
						"label": "bytes32",
						"numberOfBytes": "32"
					}
				}
			},
			"userdoc": {
				"kind": "user",
				"methods": {},
				"version": 1
			}
		}
	}
}