{
	"coin.sol": {
		"AucEngine": {
			"abi": [
				{
					"inputs": [],
					"stateMutability": "nonpayable",
					"type": "constructor"
				},
				{
					"inputs": [
						{
							"internalType": "uint256",
							"name": "",
							"type": "uint256"
						}
					],
					"name": "auctions",
					"outputs": [
						{
							"internalType": "address payable",
							"name": "seller",
							"type": "address"
						},
						{
							"internalType": "uint256",
							"name": "startingPrice",
							"type": "uint256"
						},
						{
							"internalType": "uint256",
							"name": "finalPrice",
							"type": "uint256"
						},
						{
							"internalType": "uint256",
							"name": "startAt",
							"type": "uint256"
						},
						{
							"internalType": "uint256",
							"name": "endsAt",
							"type": "uint256"
						},
						{
							"internalType": "uint256",
							"name": "discountRate",
							"type": "uint256"
						},
						{
							"internalType": "string",
							"name": "item",
							"type": "string"
						},
						{
							"internalType": "bool",
							"name": "stopped",
							"type": "bool"
						}
					],
					"stateMutability": "view",
					"type": "function"
				},
				{
					"inputs": [
						{
							"internalType": "uint256",
							"name": "_startingPrice",
							"type": "uint256"
						},
						{
							"internalType": "uint256",
							"name": "_discountR",
							"type": "uint256"
						}
					],
					"name": "createAuction",
					"outputs": [],
					"stateMutability": "nonpayable",
					"type": "function"
				},
				{
					"inputs": [],
					"name": "owner",
					"outputs": [
						{
							"internalType": "address",
							"name": "",
							"type": "address"
						}
					],
					"stateMutability": "view",
					"type": "function"
				}
			],
			"devdoc": {
				"kind": "dev",
				"methods": {},
				"version": 1
			},
			"evm": {
				"assembly": "    /* \"coin.sol\":68:624  contract AucEngine {\r... */\n  mstore(0x40, 0x80)\n    /* \"coin.sol\":469:521  constructor()  {\r... */\n  callvalue\n  dup1\n  iszero\n  tag_1\n  jumpi\n  0x00\n  dup1\n  revert\ntag_1:\n  pop\n    /* \"coin.sol\":503:513  msg.sender */\n  caller\n    /* \"coin.sol\":495:500  owner */\n  0x00\n  dup1\n    /* \"coin.sol\":495:513  owner = msg.sender */\n  0x0100\n  exp\n  dup2\n  sload\n  dup2\n  0xffffffffffffffffffffffffffffffffffffffff\n  mul\n  not\n  and\n  swap1\n  dup4\n  0xffffffffffffffffffffffffffffffffffffffff\n  and\n  mul\n  or\n  swap1\n  sstore\n  pop\n    /* \"coin.sol\":68:624  contract AucEngine {\r... */\n  dataSize(sub_0)\n  dup1\n  dataOffset(sub_0)\n  0x00\n  codecopy\n  0x00\n  return\nstop\n\nsub_0: assembly {\n        /* \"coin.sol\":68:624  contract AucEngine {\r... */\n      mstore(0x40, 0x80)\n      callvalue\n      dup1\n      iszero\n      tag_1\n      jumpi\n      0x00\n      dup1\n      revert\n    tag_1:\n      pop\n      jumpi(tag_2, lt(calldatasize, 0x04))\n      shr(0xe0, calldataload(0x00))\n      dup1\n      0x0121683f\n      eq\n      tag_3\n      jumpi\n      dup1\n      0x571a26a0\n      eq\n      tag_4\n      jumpi\n      dup1\n      0x8da5cb5b\n      eq\n      tag_5\n      jumpi\n    tag_2:\n      0x00\n      dup1\n      revert\n        /* \"coin.sol\":533:613  function createAuction(uint _startingPrice, uint _discountR) external {\r... */\n    tag_3:\n      tag_6\n      0x04\n      dup1\n      calldatasize\n      sub\n      dup2\n      add\n      swap1\n      tag_7\n      swap2\n      swap1\n      tag_8\n      jump\t// in\n    tag_7:\n      tag_9\n      jump\t// in\n    tag_6:\n      stop\n        /* \"coin.sol\":433:458  Auction[] public auctions */\n    tag_4:\n      tag_10\n      0x04\n      dup1\n      calldatasize\n      sub\n      dup2\n      add\n      swap1\n      tag_11\n      swap2\n      swap1\n      tag_12\n      jump\t// in\n    tag_11:\n      tag_13\n      jump\t// in\n    tag_10:\n      mload(0x40)\n      tag_14\n      swap9\n      swap8\n      swap7\n      swap6\n      swap5\n      swap4\n      swap3\n      swap2\n      swap1\n      tag_15\n      jump\t// in\n    tag_14:\n      mload(0x40)\n      dup1\n      swap2\n      sub\n      swap1\n      return\n        /* \"coin.sol\":94:114  address public owner */\n    tag_5:\n      tag_16\n      tag_17\n      jump\t// in\n    tag_16:\n      mload(0x40)\n      tag_18\n      swap2\n      swap1\n      tag_19\n      jump\t// in\n    tag_18:\n      mload(0x40)\n      dup1\n      swap2\n      sub\n      swap1\n      return\n        /* \"coin.sol\":533:613  function createAuction(uint _startingPrice, uint _discountR) external {\r... */\n    tag_9:\n      pop\n      pop\n      jump\t// out\n        /* \"coin.sol\":433:458  Auction[] public auctions */\n    tag_13:\n      0x01\n      dup2\n      dup2\n      sload\n      dup2\n      lt\n      tag_21\n      jumpi\n      0x00\n      dup1\n      revert\n    tag_21:\n      swap1\n      0x00\n      mstore\n      keccak256(0x00, 0x20)\n      swap1\n      0x08\n      mul\n      add\n      0x00\n      swap2\n      pop\n      swap1\n      pop\n      dup1\n      0x00\n      add\n      0x00\n      swap1\n      sload\n      swap1\n      0x0100\n      exp\n      swap1\n      div\n      0xffffffffffffffffffffffffffffffffffffffff\n      and\n      swap1\n      dup1\n      0x01\n      add\n      sload\n      swap1\n      dup1\n      0x02\n      add\n      sload\n      swap1\n      dup1\n      0x03\n      add\n      sload\n      swap1\n      dup1\n      0x04\n      add\n      sload\n      swap1\n      dup1\n      0x05\n      add\n      sload\n      swap1\n      dup1\n      0x06\n      add\n      dup1\n      sload\n      tag_23\n      swap1\n      tag_24\n      jump\t// in\n    tag_23:\n      dup1\n      0x1f\n      add\n      0x20\n      dup1\n      swap2\n      div\n      mul\n      0x20\n      add\n      mload(0x40)\n      swap1\n      dup2\n      add\n      0x40\n      mstore\n      dup1\n      swap3\n      swap2\n      swap1\n      dup2\n      dup2\n      mstore\n      0x20\n      add\n      dup3\n      dup1\n      sload\n      tag_25\n      swap1\n      tag_24\n      jump\t// in\n    tag_25:\n      dup1\n      iszero\n      tag_26\n      jumpi\n      dup1\n      0x1f\n      lt\n      tag_27\n      jumpi\n      0x0100\n      dup1\n      dup4\n      sload\n      div\n      mul\n      dup4\n      mstore\n      swap2\n      0x20\n      add\n      swap2\n      jump(tag_26)\n    tag_27:\n      dup3\n      add\n      swap2\n      swap1\n      0x00\n      mstore\n      keccak256(0x00, 0x20)\n      swap1\n    tag_28:\n      dup2\n      sload\n      dup2\n      mstore\n      swap1\n      0x01\n      add\n      swap1\n      0x20\n      add\n      dup1\n      dup4\n      gt\n      tag_28\n      jumpi\n      dup3\n      swap1\n      sub\n      0x1f\n      and\n      dup3\n      add\n      swap2\n    tag_26:\n      pop\n      pop\n      pop\n      pop\n      pop\n      swap1\n      dup1\n      0x07\n      add\n      0x00\n      swap1\n      sload\n      swap1\n      0x0100\n      exp\n      swap1\n      div\n      0xff\n      and\n      swap1\n      pop\n      dup9\n      jump\t// out\n        /* \"coin.sol\":94:114  address public owner */\n    tag_17:\n      0x00\n      dup1\n      sload\n      swap1\n      0x0100\n      exp\n      swap1\n      div\n      0xffffffffffffffffffffffffffffffffffffffff\n      and\n      dup2\n      jump\t// out\n        /* \"#utility.yul\":7:146   */\n    tag_30:\n      0x00\n        /* \"#utility.yul\":91:97   */\n      dup2\n        /* \"#utility.yul\":78:98   */\n      calldataload\n        /* \"#utility.yul\":69:98   */\n      swap1\n      pop\n        /* \"#utility.yul\":107:140   */\n      tag_32\n        /* \"#utility.yul\":134:139   */\n      dup2\n        /* \"#utility.yul\":107:140   */\n      tag_33\n      jump\t// in\n    tag_32:\n        /* \"#utility.yul\":59:146   */\n      swap3\n      swap2\n      pop\n      pop\n      jump\t// out\n        /* \"#utility.yul\":152:414   */\n    tag_12:\n      0x00\n        /* \"#utility.yul\":260:262   */\n      0x20\n        /* \"#utility.yul\":248:257   */\n      dup3\n        /* \"#utility.yul\":239:246   */\n      dup5\n        /* \"#utility.yul\":235:258   */\n      sub\n        /* \"#utility.yul\":231:263   */\n      slt\n        /* \"#utility.yul\":228:230   */\n      iszero\n      tag_35\n      jumpi\n        /* \"#utility.yul\":276:277   */\n      0x00\n        /* \"#utility.yul\":273:274   */\n      dup1\n        /* \"#utility.yul\":266:278   */\n      revert\n        /* \"#utility.yul\":228:230   */\n    tag_35:\n        /* \"#utility.yul\":319:320   */\n      0x00\n        /* \"#utility.yul\":344:397   */\n      tag_36\n        /* \"#utility.yul\":389:396   */\n      dup5\n        /* \"#utility.yul\":380:386   */\n      dup3\n        /* \"#utility.yul\":369:378   */\n      dup6\n        /* \"#utility.yul\":365:387   */\n      add\n        /* \"#utility.yul\":344:397   */\n      tag_30\n      jump\t// in\n    tag_36:\n        /* \"#utility.yul\":334:397   */\n      swap2\n      pop\n        /* \"#utility.yul\":290:407   */\n      pop\n        /* \"#utility.yul\":218:414   */\n      swap3\n      swap2\n      pop\n      pop\n      jump\t// out\n        /* \"#utility.yul\":420:827   */\n    tag_8:\n      0x00\n      dup1\n        /* \"#utility.yul\":545:547   */\n      0x40\n        /* \"#utility.yul\":533:542   */\n      dup4\n        /* \"#utility.yul\":524:531   */\n      dup6\n        /* \"#utility.yul\":520:543   */\n      sub\n        /* \"#utility.yul\":516:548   */\n      slt\n        /* \"#utility.yul\":513:515   */\n      iszero\n      tag_38\n      jumpi\n        /* \"#utility.yul\":561:562   */\n      0x00\n        /* \"#utility.yul\":558:559   */\n      dup1\n        /* \"#utility.yul\":551:563   */\n      revert\n        /* \"#utility.yul\":513:515   */\n    tag_38:\n        /* \"#utility.yul\":604:605   */\n      0x00\n        /* \"#utility.yul\":629:682   */\n      tag_39\n        /* \"#utility.yul\":674:681   */\n      dup6\n        /* \"#utility.yul\":665:671   */\n      dup3\n        /* \"#utility.yul\":654:663   */\n      dup7\n        /* \"#utility.yul\":650:672   */\n      add\n        /* \"#utility.yul\":629:682   */\n      tag_30\n      jump\t// in\n    tag_39:\n        /* \"#utility.yul\":619:682   */\n      swap3\n      pop\n        /* \"#utility.yul\":575:692   */\n      pop\n        /* \"#utility.yul\":731:733   */\n      0x20\n        /* \"#utility.yul\":757:810   */\n      tag_40\n        /* \"#utility.yul\":802:809   */\n      dup6\n        /* \"#utility.yul\":793:799   */\n      dup3\n        /* \"#utility.yul\":782:791   */\n      dup7\n        /* \"#utility.yul\":778:800   */\n      add\n        /* \"#utility.yul\":757:810   */\n      tag_30\n      jump\t// in\n    tag_40:\n        /* \"#utility.yul\":747:810   */\n      swap2\n      pop\n        /* \"#utility.yul\":702:820   */\n      pop\n        /* \"#utility.yul\":503:827   */\n      swap3\n      pop\n      swap3\n      swap1\n      pop\n      jump\t// out\n        /* \"#utility.yul\":833:975   */\n    tag_41:\n        /* \"#utility.yul\":936:968   */\n      tag_43\n        /* \"#utility.yul\":962:967   */\n      dup2\n        /* \"#utility.yul\":936:968   */\n      tag_44\n      jump\t// in\n    tag_43:\n        /* \"#utility.yul\":931:934   */\n      dup3\n        /* \"#utility.yul\":924:969   */\n      mstore\n        /* \"#utility.yul\":914:975   */\n      pop\n      pop\n      jump\t// out\n        /* \"#utility.yul\":981:1099   */\n    tag_45:\n        /* \"#utility.yul\":1068:1092   */\n      tag_47\n        /* \"#utility.yul\":1086:1091   */\n      dup2\n        /* \"#utility.yul\":1068:1092   */\n      tag_48\n      jump\t// in\n    tag_47:\n        /* \"#utility.yul\":1063:1066   */\n      dup3\n        /* \"#utility.yul\":1056:1093   */\n      mstore\n        /* \"#utility.yul\":1046:1099   */\n      pop\n      pop\n      jump\t// out\n        /* \"#utility.yul\":1105:1214   */\n    tag_49:\n        /* \"#utility.yul\":1186:1207   */\n      tag_51\n        /* \"#utility.yul\":1201:1206   */\n      dup2\n        /* \"#utility.yul\":1186:1207   */\n      tag_52\n      jump\t// in\n    tag_51:\n        /* \"#utility.yul\":1181:1184   */\n      dup3\n        /* \"#utility.yul\":1174:1208   */\n      mstore\n        /* \"#utility.yul\":1164:1214   */\n      pop\n      pop\n      jump\t// out\n        /* \"#utility.yul\":1220:1584   */\n    tag_53:\n      0x00\n        /* \"#utility.yul\":1336:1375   */\n      tag_55\n        /* \"#utility.yul\":1369:1374   */\n      dup3\n        /* \"#utility.yul\":1336:1375   */\n      tag_56\n      jump\t// in\n    tag_55:\n        /* \"#utility.yul\":1391:1462   */\n      tag_57\n        /* \"#utility.yul\":1455:1461   */\n      dup2\n        /* \"#utility.yul\":1450:1453   */\n      dup6\n        /* \"#utility.yul\":1391:1462   */\n      tag_58\n      jump\t// in\n    tag_57:\n        /* \"#utility.yul\":1384:1462   */\n      swap4\n      pop\n        /* \"#utility.yul\":1471:1523   */\n      tag_59\n        /* \"#utility.yul\":1516:1522   */\n      dup2\n        /* \"#utility.yul\":1511:1514   */\n      dup6\n        /* \"#utility.yul\":1504:1508   */\n      0x20\n        /* \"#utility.yul\":1497:1502   */\n      dup7\n        /* \"#utility.yul\":1493:1509   */\n      add\n        /* \"#utility.yul\":1471:1523   */\n      tag_60\n      jump\t// in\n    tag_59:\n        /* \"#utility.yul\":1548:1577   */\n      tag_61\n        /* \"#utility.yul\":1570:1576   */\n      dup2\n        /* \"#utility.yul\":1548:1577   */\n      tag_62\n      jump\t// in\n    tag_61:\n        /* \"#utility.yul\":1543:1546   */\n      dup5\n        /* \"#utility.yul\":1539:1578   */\n      add\n        /* \"#utility.yul\":1532:1578   */\n      swap2\n      pop\n        /* \"#utility.yul\":1312:1584   */\n      pop\n      swap3\n      swap2\n      pop\n      pop\n      jump\t// out\n        /* \"#utility.yul\":1590:1708   */\n    tag_63:\n        /* \"#utility.yul\":1677:1701   */\n      tag_65\n        /* \"#utility.yul\":1695:1700   */\n      dup2\n        /* \"#utility.yul\":1677:1701   */\n      tag_66\n      jump\t// in\n    tag_65:\n        /* \"#utility.yul\":1672:1675   */\n      dup3\n        /* \"#utility.yul\":1665:1702   */\n      mstore\n        /* \"#utility.yul\":1655:1708   */\n      pop\n      pop\n      jump\t// out\n        /* \"#utility.yul\":1714:1936   */\n    tag_19:\n      0x00\n        /* \"#utility.yul\":1845:1847   */\n      0x20\n        /* \"#utility.yul\":1834:1843   */\n      dup3\n        /* \"#utility.yul\":1830:1848   */\n      add\n        /* \"#utility.yul\":1822:1848   */\n      swap1\n      pop\n        /* \"#utility.yul\":1858:1929   */\n      tag_68\n        /* \"#utility.yul\":1926:1927   */\n      0x00\n        /* \"#utility.yul\":1915:1924   */\n      dup4\n        /* \"#utility.yul\":1911:1928   */\n      add\n        /* \"#utility.yul\":1902:1908   */\n      dup5\n        /* \"#utility.yul\":1858:1929   */\n      tag_45\n      jump\t// in\n    tag_68:\n        /* \"#utility.yul\":1812:1936   */\n      swap3\n      swap2\n      pop\n      pop\n      jump\t// out\n        /* \"#utility.yul\":1942:3050   */\n    tag_15:\n      0x00\n        /* \"#utility.yul\":2299:2302   */\n      0x0100\n        /* \"#utility.yul\":2288:2297   */\n      dup3\n        /* \"#utility.yul\":2284:2303   */\n      add\n        /* \"#utility.yul\":2276:2303   */\n      swap1\n      pop\n        /* \"#utility.yul\":2313:2400   */\n      tag_70\n        /* \"#utility.yul\":2397:2398   */\n      0x00\n        /* \"#utility.yul\":2386:2395   */\n      dup4\n        /* \"#utility.yul\":2382:2399   */\n      add\n        /* \"#utility.yul\":2373:2379   */\n      dup12\n        /* \"#utility.yul\":2313:2400   */\n      tag_41\n      jump\t// in\n    tag_70:\n        /* \"#utility.yul\":2410:2482   */\n      tag_71\n        /* \"#utility.yul\":2478:2480   */\n      0x20\n        /* \"#utility.yul\":2467:2476   */\n      dup4\n        /* \"#utility.yul\":2463:2481   */\n      add\n        /* \"#utility.yul\":2454:2460   */\n      dup11\n        /* \"#utility.yul\":2410:2482   */\n      tag_63\n      jump\t// in\n    tag_71:\n        /* \"#utility.yul\":2492:2564   */\n      tag_72\n        /* \"#utility.yul\":2560:2562   */\n      0x40\n        /* \"#utility.yul\":2549:2558   */\n      dup4\n        /* \"#utility.yul\":2545:2563   */\n      add\n        /* \"#utility.yul\":2536:2542   */\n      dup10\n        /* \"#utility.yul\":2492:2564   */\n      tag_63\n      jump\t// in\n    tag_72:\n        /* \"#utility.yul\":2574:2646   */\n      tag_73\n        /* \"#utility.yul\":2642:2644   */\n      0x60\n        /* \"#utility.yul\":2631:2640   */\n      dup4\n        /* \"#utility.yul\":2627:2645   */\n      add\n        /* \"#utility.yul\":2618:2624   */\n      dup9\n        /* \"#utility.yul\":2574:2646   */\n      tag_63\n      jump\t// in\n    tag_73:\n        /* \"#utility.yul\":2656:2729   */\n      tag_74\n        /* \"#utility.yul\":2724:2727   */\n      0x80\n        /* \"#utility.yul\":2713:2722   */\n      dup4\n        /* \"#utility.yul\":2709:2728   */\n      add\n        /* \"#utility.yul\":2700:2706   */\n      dup8\n        /* \"#utility.yul\":2656:2729   */\n      tag_63\n      jump\t// in\n    tag_74:\n        /* \"#utility.yul\":2739:2812   */\n      tag_75\n        /* \"#utility.yul\":2807:2810   */\n      0xa0\n        /* \"#utility.yul\":2796:2805   */\n      dup4\n        /* \"#utility.yul\":2792:2811   */\n      add\n        /* \"#utility.yul\":2783:2789   */\n      dup7\n        /* \"#utility.yul\":2739:2812   */\n      tag_63\n      jump\t// in\n    tag_75:\n        /* \"#utility.yul\":2860:2869   */\n      dup2\n        /* \"#utility.yul\":2854:2858   */\n      dup2\n        /* \"#utility.yul\":2850:2870   */\n      sub\n        /* \"#utility.yul\":2844:2847   */\n      0xc0\n        /* \"#utility.yul\":2833:2842   */\n      dup4\n        /* \"#utility.yul\":2829:2848   */\n      add\n        /* \"#utility.yul\":2822:2871   */\n      mstore\n        /* \"#utility.yul\":2888:2966   */\n      tag_76\n        /* \"#utility.yul\":2961:2965   */\n      dup2\n        /* \"#utility.yul\":2952:2958   */\n      dup6\n        /* \"#utility.yul\":2888:2966   */\n      tag_53\n      jump\t// in\n    tag_76:\n        /* \"#utility.yul\":2880:2966   */\n      swap1\n      pop\n        /* \"#utility.yul\":2976:3043   */\n      tag_77\n        /* \"#utility.yul\":3038:3041   */\n      0xe0\n        /* \"#utility.yul\":3027:3036   */\n      dup4\n        /* \"#utility.yul\":3023:3042   */\n      add\n        /* \"#utility.yul\":3014:3020   */\n      dup5\n        /* \"#utility.yul\":2976:3043   */\n      tag_49\n      jump\t// in\n    tag_77:\n        /* \"#utility.yul\":2266:3050   */\n      swap10\n      swap9\n      pop\n      pop\n      pop\n      pop\n      pop\n      pop\n      pop\n      pop\n      pop\n      jump\t// out\n        /* \"#utility.yul\":3056:3155   */\n    tag_56:\n      0x00\n        /* \"#utility.yul\":3142:3147   */\n      dup2\n        /* \"#utility.yul\":3136:3148   */\n      mload\n        /* \"#utility.yul\":3126:3148   */\n      swap1\n      pop\n        /* \"#utility.yul\":3115:3155   */\n      swap2\n      swap1\n      pop\n      jump\t// out\n        /* \"#utility.yul\":3161:3330   */\n    tag_58:\n      0x00\n        /* \"#utility.yul\":3279:3285   */\n      dup3\n        /* \"#utility.yul\":3274:3277   */\n      dup3\n        /* \"#utility.yul\":3267:3286   */\n      mstore\n        /* \"#utility.yul\":3319:3323   */\n      0x20\n        /* \"#utility.yul\":3314:3317   */\n      dup3\n        /* \"#utility.yul\":3310:3324   */\n      add\n        /* \"#utility.yul\":3295:3324   */\n      swap1\n      pop\n        /* \"#utility.yul\":3257:3330   */\n      swap3\n      swap2\n      pop\n      pop\n      jump\t// out\n        /* \"#utility.yul\":3336:3432   */\n    tag_48:\n      0x00\n        /* \"#utility.yul\":3402:3426   */\n      tag_81\n        /* \"#utility.yul\":3420:3425   */\n      dup3\n        /* \"#utility.yul\":3402:3426   */\n      tag_82\n      jump\t// in\n    tag_81:\n        /* \"#utility.yul\":3391:3426   */\n      swap1\n      pop\n        /* \"#utility.yul\":3381:3432   */\n      swap2\n      swap1\n      pop\n      jump\t// out\n        /* \"#utility.yul\":3438:3542   */\n    tag_44:\n      0x00\n        /* \"#utility.yul\":3512:3536   */\n      tag_84\n        /* \"#utility.yul\":3530:3535   */\n      dup3\n        /* \"#utility.yul\":3512:3536   */\n      tag_82\n      jump\t// in\n    tag_84:\n        /* \"#utility.yul\":3501:3536   */\n      swap1\n      pop\n        /* \"#utility.yul\":3491:3542   */\n      swap2\n      swap1\n      pop\n      jump\t// out\n        /* \"#utility.yul\":3548:3638   */\n    tag_52:\n      0x00\n        /* \"#utility.yul\":3625:3630   */\n      dup2\n        /* \"#utility.yul\":3618:3631   */\n      iszero\n        /* \"#utility.yul\":3611:3632   */\n      iszero\n        /* \"#utility.yul\":3600:3632   */\n      swap1\n      pop\n        /* \"#utility.yul\":3590:3638   */\n      swap2\n      swap1\n      pop\n      jump\t// out\n        /* \"#utility.yul\":3644:3770   */\n    tag_82:\n      0x00\n        /* \"#utility.yul\":3721:3763   */\n      0xffffffffffffffffffffffffffffffffffffffff\n        /* \"#utility.yul\":3714:3719   */\n      dup3\n        /* \"#utility.yul\":3710:3764   */\n      and\n        /* \"#utility.yul\":3699:3764   */\n      swap1\n      pop\n        /* \"#utility.yul\":3689:3770   */\n      swap2\n      swap1\n      pop\n      jump\t// out\n        /* \"#utility.yul\":3776:3853   */\n    tag_66:\n      0x00\n        /* \"#utility.yul\":3842:3847   */\n      dup2\n        /* \"#utility.yul\":3831:3847   */\n      swap1\n      pop\n        /* \"#utility.yul\":3821:3853   */\n      swap2\n      swap1\n      pop\n      jump\t// out\n        /* \"#utility.yul\":3859:4166   */\n    tag_60:\n        /* \"#utility.yul\":3927:3928   */\n      0x00\n        /* \"#utility.yul\":3937:4050   */\n    tag_89:\n        /* \"#utility.yul\":3951:3957   */\n      dup4\n        /* \"#utility.yul\":3948:3949   */\n      dup2\n        /* \"#utility.yul\":3945:3958   */\n      lt\n        /* \"#utility.yul\":3937:4050   */\n      iszero\n      tag_91\n      jumpi\n        /* \"#utility.yul\":4036:4037   */\n      dup1\n        /* \"#utility.yul\":4031:4034   */\n      dup3\n        /* \"#utility.yul\":4027:4038   */\n      add\n        /* \"#utility.yul\":4021:4039   */\n      mload\n        /* \"#utility.yul\":4017:4018   */\n      dup2\n        /* \"#utility.yul\":4012:4015   */\n      dup5\n        /* \"#utility.yul\":4008:4019   */\n      add\n        /* \"#utility.yul\":4001:4040   */\n      mstore\n        /* \"#utility.yul\":3973:3975   */\n      0x20\n        /* \"#utility.yul\":3970:3971   */\n      dup2\n        /* \"#utility.yul\":3966:3976   */\n      add\n        /* \"#utility.yul\":3961:3976   */\n      swap1\n      pop\n        /* \"#utility.yul\":3937:4050   */\n      jump(tag_89)\n    tag_91:\n        /* \"#utility.yul\":4068:4074   */\n      dup4\n        /* \"#utility.yul\":4065:4066   */\n      dup2\n        /* \"#utility.yul\":4062:4075   */\n      gt\n        /* \"#utility.yul\":4059:4061   */\n      iszero\n      tag_92\n      jumpi\n        /* \"#utility.yul\":4148:4149   */\n      0x00\n        /* \"#utility.yul\":4139:4145   */\n      dup5\n        /* \"#utility.yul\":4134:4137   */\n      dup5\n        /* \"#utility.yul\":4130:4146   */\n      add\n        /* \"#utility.yul\":4123:4150   */\n      mstore\n        /* \"#utility.yul\":4059:4061   */\n    tag_92:\n        /* \"#utility.yul\":3908:4166   */\n      pop\n      pop\n      pop\n      pop\n      jump\t// out\n        /* \"#utility.yul\":4172:4492   */\n    tag_24:\n      0x00\n        /* \"#utility.yul\":4253:4254   */\n      0x02\n        /* \"#utility.yul\":4247:4251   */\n      dup3\n        /* \"#utility.yul\":4243:4255   */\n      div\n        /* \"#utility.yul\":4233:4255   */\n      swap1\n      pop\n        /* \"#utility.yul\":4300:4301   */\n      0x01\n        /* \"#utility.yul\":4294:4298   */\n      dup3\n        /* \"#utility.yul\":4290:4302   */\n      and\n        /* \"#utility.yul\":4321:4339   */\n      dup1\n        /* \"#utility.yul\":4311:4313   */\n      tag_94\n      jumpi\n        /* \"#utility.yul\":4377:4381   */\n      0x7f\n        /* \"#utility.yul\":4369:4375   */\n      dup3\n        /* \"#utility.yul\":4365:4382   */\n      and\n        /* \"#utility.yul\":4355:4382   */\n      swap2\n      pop\n        /* \"#utility.yul\":4311:4313   */\n    tag_94:\n        /* \"#utility.yul\":4439:4441   */\n      0x20\n        /* \"#utility.yul\":4431:4437   */\n      dup3\n        /* \"#utility.yul\":4428:4442   */\n      lt\n        /* \"#utility.yul\":4408:4426   */\n      dup2\n        /* \"#utility.yul\":4405:4443   */\n      eq\n        /* \"#utility.yul\":4402:4404   */\n      iszero\n      tag_95\n      jumpi\n        /* \"#utility.yul\":4458:4476   */\n      tag_96\n      tag_97\n      jump\t// in\n    tag_96:\n        /* \"#utility.yul\":4402:4404   */\n    tag_95:\n        /* \"#utility.yul\":4223:4492   */\n      pop\n      swap2\n      swap1\n      pop\n      jump\t// out\n        /* \"#utility.yul\":4498:4678   */\n    tag_97:\n        /* \"#utility.yul\":4546:4623   */\n      0x4e487b7100000000000000000000000000000000000000000000000000000000\n        /* \"#utility.yul\":4543:4544   */\n      0x00\n        /* \"#utility.yul\":4536:4624   */\n      mstore\n        /* \"#utility.yul\":4643:4647   */\n      0x22\n        /* \"#utility.yul\":4640:4641   */\n      0x04\n        /* \"#utility.yul\":4633:4648   */\n      mstore\n        /* \"#utility.yul\":4667:4671   */\n      0x24\n        /* \"#utility.yul\":4664:4665   */\n      0x00\n        /* \"#utility.yul\":4657:4672   */\n      revert\n        /* \"#utility.yul\":4684:4786   */\n    tag_62:\n      0x00\n        /* \"#utility.yul\":4776:4778   */\n      0x1f\n        /* \"#utility.yul\":4772:4779   */\n      not\n        /* \"#utility.yul\":4767:4769   */\n      0x1f\n        /* \"#utility.yul\":4760:4765   */\n      dup4\n        /* \"#utility.yul\":4756:4770   */\n      add\n        /* \"#utility.yul\":4752:4780   */\n      and\n        /* \"#utility.yul\":4742:4780   */\n      swap1\n      pop\n        /* \"#utility.yul\":4732:4786   */\n      swap2\n      swap1\n      pop\n      jump\t// out\n        /* \"#utility.yul\":4792:4914   */\n    tag_33:\n        /* \"#utility.yul\":4865:4889   */\n      tag_101\n        /* \"#utility.yul\":4883:4888   */\n      dup2\n        /* \"#utility.yul\":4865:4889   */\n      tag_66\n      jump\t// in\n    tag_101:\n        /* \"#utility.yul\":4858:4863   */\n      dup2\n        /* \"#utility.yul\":4855:4890   */\n      eq\n        /* \"#utility.yul\":4845:4847   */\n      tag_102\n      jumpi\n        /* \"#utility.yul\":4904:4905   */\n      0x00\n        /* \"#utility.yul\":4901:4902   */\n      dup1\n        /* \"#utility.yul\":4894:4906   */\n      revert\n        /* \"#utility.yul\":4845:4847   */\n    tag_102:\n        /* \"#utility.yul\":4835:4914   */\n      pop\n      jump\t// out\n\n    auxdata: 0xa2646970667358221220f60708bdbaa0181dd65435661993f99259d1fba483c7f2dbb3909fc954bec92664736f6c63430008000033\n}\n",
				"bytecode": {
					"linkReferences": {},
					"object": "608060405234801561001057600080fd5b50336000806101000a81548173ffffffffffffffffffffffffffffffffffffffff021916908373ffffffffffffffffffffffffffffffffffffffff1602179055506104e3806100606000396000f3fe608060405234801561001057600080fd5b50600436106100415760003560e01c80630121683f14610046578063571a26a0146100625780638da5cb5b14610099575b600080fd5b610060600480360381019061005b919061022a565b6100b7565b005b61007c60048036038101906100779190610201565b6100bb565b6040516100909897969594939291906102f6565b60405180910390f35b6100a16101c8565b6040516100ae91906102db565b60405180910390f35b5050565b600181815481106100cb57600080fd5b90600052602060002090600802016000915090508060000160009054906101000a900473ffffffffffffffffffffffffffffffffffffffff169080600101549080600201549080600301549080600401549080600501549080600601805461013290610424565b80601f016020809104026020016040519081016040528092919081815260200182805461015e90610424565b80156101ab5780601f10610180576101008083540402835291602001916101ab565b820191906000526020600020905b81548152906001019060200180831161018e57829003601f168201915b5050505050908060070160009054906101000a900460ff16905088565b60008054906101000a900473ffffffffffffffffffffffffffffffffffffffff1681565b6000813590506101fb81610496565b92915050565b60006020828403121561021357600080fd5b6000610221848285016101ec565b91505092915050565b6000806040838503121561023d57600080fd5b600061024b858286016101ec565b925050602061025c858286016101ec565b9150509250929050565b61026f816103a9565b82525050565b61027e81610397565b82525050565b61028d816103bb565b82525050565b600061029e8261037b565b6102a88185610386565b93506102b88185602086016103f1565b6102c181610485565b840191505092915050565b6102d5816103e7565b82525050565b60006020820190506102f06000830184610275565b92915050565b60006101008201905061030c600083018b610266565b610319602083018a6102cc565b61032660408301896102cc565b61033360608301886102cc565b61034060808301876102cc565b61034d60a08301866102cc565b81810360c083015261035f8185610293565b905061036e60e0830184610284565b9998505050505050505050565b600081519050919050565b600082825260208201905092915050565b60006103a2826103c7565b9050919050565b60006103b4826103c7565b9050919050565b60008115159050919050565b600073ffffffffffffffffffffffffffffffffffffffff82169050919050565b6000819050919050565b60005b8381101561040f5780820151818401526020810190506103f4565b8381111561041e576000848401525b50505050565b6000600282049050600182168061043c57607f821691505b602082108114156104505761044f610456565b5b50919050565b7f4e487b7100000000000000000000000000000000000000000000000000000000600052602260045260246000fd5b6000601f19601f8301169050919050565b61049f816103e7565b81146104aa57600080fd5b5056fea2646970667358221220f60708bdbaa0181dd65435661993f99259d1fba483c7f2dbb3909fc954bec92664736f6c63430008000033",
					"opcodes": "PUSH1 0x80 PUSH1 0x40 MSTORE CALLVALUE DUP1 ISZERO PUSH2 0x10 JUMPI PUSH1 0x0 DUP1 REVERT JUMPDEST POP CALLER PUSH1 0x0 DUP1 PUSH2 0x100 EXP DUP2 SLOAD DUP2 PUSH20 0xFFFFFFFFFFFFFFFFFFFFFFFFFFFFFFFFFFFFFFFF MUL NOT AND SWAP1 DUP4 PUSH20 0xFFFFFFFFFFFFFFFFFFFFFFFFFFFFFFFFFFFFFFFF AND MUL OR SWAP1 SSTORE POP PUSH2 0x4E3 DUP1 PUSH2 0x60 PUSH1 0x0 CODECOPY PUSH1 0x0 RETURN INVALID PUSH1 0x80 PUSH1 0x40 MSTORE CALLVALUE DUP1 ISZERO PUSH2 0x10 JUMPI PUSH1 0x0 DUP1 REVERT JUMPDEST POP PUSH1 0x4 CALLDATASIZE LT PUSH2 0x41 JUMPI PUSH1 0x0 CALLDATALOAD PUSH1 0xE0 SHR DUP1 PUSH4 0x121683F EQ PUSH2 0x46 JUMPI DUP1 PUSH4 0x571A26A0 EQ PUSH2 0x62 JUMPI DUP1 PUSH4 0x8DA5CB5B EQ PUSH2 0x99 JUMPI JUMPDEST PUSH1 0x0 DUP1 REVERT JUMPDEST PUSH2 0x60 PUSH1 0x4 DUP1 CALLDATASIZE SUB DUP2 ADD SWAP1 PUSH2 0x5B SWAP2 SWAP1 PUSH2 0x22A JUMP JUMPDEST PUSH2 0xB7 JUMP JUMPDEST STOP JUMPDEST PUSH2 0x7C PUSH1 0x4 DUP1 CALLDATASIZE SUB DUP2 ADD SWAP1 PUSH2 0x77 SWAP2 SWAP1 PUSH2 0x201 JUMP JUMPDEST PUSH2 0xBB JUMP JUMPDEST PUSH1 0x40 MLOAD PUSH2 0x90 SWAP9 SWAP8 SWAP7 SWAP6 SWAP5 SWAP4 SWAP3 SWAP2 SWAP1 PUSH2 0x2F6 JUMP JUMPDEST PUSH1 0x40 MLOAD DUP1 SWAP2 SUB SWAP1 RETURN JUMPDEST PUSH2 0xA1 PUSH2 0x1C8 JUMP JUMPDEST PUSH1 0x40 MLOAD PUSH2 0xAE SWAP2 SWAP1 PUSH2 0x2DB JUMP JUMPDEST PUSH1 0x40 MLOAD DUP1 SWAP2 SUB SWAP1 RETURN JUMPDEST POP POP JUMP JUMPDEST PUSH1 0x1 DUP2 DUP2 SLOAD DUP2 LT PUSH2 0xCB JUMPI PUSH1 0x0 DUP1 REVERT JUMPDEST SWAP1 PUSH1 0x0 MSTORE PUSH1 0x20 PUSH1 0x0 KECCAK256 SWAP1 PUSH1 0x8 MUL ADD PUSH1 0x0 SWAP2 POP SWAP1 POP DUP1 PUSH1 0x0 ADD PUSH1 0x0 SWAP1 SLOAD SWAP1 PUSH2 0x100 EXP SWAP1 DIV PUSH20 0xFFFFFFFFFFFFFFFFFFFFFFFFFFFFFFFFFFFFFFFF AND SWAP1 DUP1 PUSH1 0x1 ADD SLOAD SWAP1 DUP1 PUSH1 0x2 ADD SLOAD SWAP1 DUP1 PUSH1 0x3 ADD SLOAD SWAP1 DUP1 PUSH1 0x4 ADD SLOAD SWAP1 DUP1 PUSH1 0x5 ADD SLOAD SWAP1 DUP1 PUSH1 0x6 ADD DUP1 SLOAD PUSH2 0x132 SWAP1 PUSH2 0x424 JUMP JUMPDEST DUP1 PUSH1 0x1F ADD PUSH1 0x20 DUP1 SWAP2 DIV MUL PUSH1 0x20 ADD PUSH1 0x40 MLOAD SWAP1 DUP2 ADD PUSH1 0x40 MSTORE DUP1 SWAP3 SWAP2 SWAP1 DUP2 DUP2 MSTORE PUSH1 0x20 ADD DUP3 DUP1 SLOAD PUSH2 0x15E SWAP1 PUSH2 0x424 JUMP JUMPDEST DUP1 ISZERO PUSH2 0x1AB JUMPI DUP1 PUSH1 0x1F LT PUSH2 0x180 JUMPI PUSH2 0x100 DUP1 DUP4 SLOAD DIV MUL DUP4 MSTORE SWAP2 PUSH1 0x20 ADD SWAP2 PUSH2 0x1AB JUMP JUMPDEST DUP3 ADD SWAP2 SWAP1 PUSH1 0x0 MSTORE PUSH1 0x20 PUSH1 0x0 KECCAK256 SWAP1 JUMPDEST DUP2 SLOAD DUP2 MSTORE SWAP1 PUSH1 0x1 ADD SWAP1 PUSH1 0x20 ADD DUP1 DUP4 GT PUSH2 0x18E JUMPI DUP3 SWAP1 SUB PUSH1 0x1F AND DUP3 ADD SWAP2 JUMPDEST POP POP POP POP POP SWAP1 DUP1 PUSH1 0x7 ADD PUSH1 0x0 SWAP1 SLOAD SWAP1 PUSH2 0x100 EXP SWAP1 DIV PUSH1 0xFF AND SWAP1 POP DUP9 JUMP JUMPDEST PUSH1 0x0 DUP1 SLOAD SWAP1 PUSH2 0x100 EXP SWAP1 DIV PUSH20 0xFFFFFFFFFFFFFFFFFFFFFFFFFFFFFFFFFFFFFFFF AND DUP2 JUMP JUMPDEST PUSH1 0x0 DUP2 CALLDATALOAD SWAP1 POP PUSH2 0x1FB DUP2 PUSH2 0x496 JUMP JUMPDEST SWAP3 SWAP2 POP POP JUMP JUMPDEST PUSH1 0x0 PUSH1 0x20 DUP3 DUP5 SUB SLT ISZERO PUSH2 0x213 JUMPI PUSH1 0x0 DUP1 REVERT JUMPDEST PUSH1 0x0 PUSH2 0x221 DUP5 DUP3 DUP6 ADD PUSH2 0x1EC JUMP JUMPDEST SWAP2 POP POP SWAP3 SWAP2 POP POP JUMP JUMPDEST PUSH1 0x0 DUP1 PUSH1 0x40 DUP4 DUP6 SUB SLT ISZERO PUSH2 0x23D JUMPI PUSH1 0x0 DUP1 REVERT JUMPDEST PUSH1 0x0 PUSH2 0x24B DUP6 DUP3 DUP7 ADD PUSH2 0x1EC JUMP JUMPDEST SWAP3 POP POP PUSH1 0x20 PUSH2 0x25C DUP6 DUP3 DUP7 ADD PUSH2 0x1EC JUMP JUMPDEST SWAP2 POP POP SWAP3 POP SWAP3 SWAP1 POP JUMP JUMPDEST PUSH2 0x26F DUP2 PUSH2 0x3A9 JUMP JUMPDEST DUP3 MSTORE POP POP JUMP JUMPDEST PUSH2 0x27E DUP2 PUSH2 0x397 JUMP JUMPDEST DUP3 MSTORE POP POP JUMP JUMPDEST PUSH2 0x28D DUP2 PUSH2 0x3BB JUMP JUMPDEST DUP3 MSTORE POP POP JUMP JUMPDEST PUSH1 0x0 PUSH2 0x29E DUP3 PUSH2 0x37B JUMP JUMPDEST PUSH2 0x2A8 DUP2 DUP6 PUSH2 0x386 JUMP JUMPDEST SWAP4 POP PUSH2 0x2B8 DUP2 DUP6 PUSH1 0x20 DUP7 ADD PUSH2 0x3F1 JUMP JUMPDEST PUSH2 0x2C1 DUP2 PUSH2 0x485 JUMP JUMPDEST DUP5 ADD SWAP2 POP POP SWAP3 SWAP2 POP POP JUMP JUMPDEST PUSH2 0x2D5 DUP2 PUSH2 0x3E7 JUMP JUMPDEST DUP3 MSTORE POP POP JUMP JUMPDEST PUSH1 0x0 PUSH1 0x20 DUP3 ADD SWAP1 POP PUSH2 0x2F0 PUSH1 0x0 DUP4 ADD DUP5 PUSH2 0x275 JUMP JUMPDEST SWAP3 SWAP2 POP POP JUMP JUMPDEST PUSH1 0x0 PUSH2 0x100 DUP3 ADD SWAP1 POP PUSH2 0x30C PUSH1 0x0 DUP4 ADD DUP12 PUSH2 0x266 JUMP JUMPDEST PUSH2 0x319 PUSH1 0x20 DUP4 ADD DUP11 PUSH2 0x2CC JUMP JUMPDEST PUSH2 0x326 PUSH1 0x40 DUP4 ADD DUP10 PUSH2 0x2CC JUMP JUMPDEST PUSH2 0x333 PUSH1 0x60 DUP4 ADD DUP9 PUSH2 0x2CC JUMP JUMPDEST PUSH2 0x340 PUSH1 0x80 DUP4 ADD DUP8 PUSH2 0x2CC JUMP JUMPDEST PUSH2 0x34D PUSH1 0xA0 DUP4 ADD DUP7 PUSH2 0x2CC JUMP JUMPDEST DUP2 DUP2 SUB PUSH1 0xC0 DUP4 ADD MSTORE PUSH2 0x35F DUP2 DUP6 PUSH2 0x293 JUMP JUMPDEST SWAP1 POP PUSH2 0x36E PUSH1 0xE0 DUP4 ADD DUP5 PUSH2 0x284 JUMP JUMPDEST SWAP10 SWAP9 POP POP POP POP POP POP POP POP POP JUMP JUMPDEST PUSH1 0x0 DUP2 MLOAD SWAP1 POP SWAP2 SWAP1 POP JUMP JUMPDEST PUSH1 0x0 DUP3 DUP3 MSTORE PUSH1 0x20 DUP3 ADD SWAP1 POP SWAP3 SWAP2 POP POP JUMP JUMPDEST PUSH1 0x0 PUSH2 0x3A2 DUP3 PUSH2 0x3C7 JUMP JUMPDEST SWAP1 POP SWAP2 SWAP1 POP JUMP JUMPDEST PUSH1 0x0 PUSH2 0x3B4 DUP3 PUSH2 0x3C7 JUMP JUMPDEST SWAP1 POP SWAP2 SWAP1 POP JUMP JUMPDEST PUSH1 0x0 DUP2 ISZERO ISZERO SWAP1 POP SWAP2 SWAP1 POP JUMP JUMPDEST PUSH1 0x0 PUSH20 0xFFFFFFFFFFFFFFFFFFFFFFFFFFFFFFFFFFFFFFFF DUP3 AND SWAP1 POP SWAP2 SWAP1 POP JUMP JUMPDEST PUSH1 0x0 DUP2 SWAP1 POP SWAP2 SWAP1 POP JUMP JUMPDEST PUSH1 0x0 JUMPDEST DUP4 DUP2 LT ISZERO PUSH2 0x40F JUMPI DUP1 DUP3 ADD MLOAD DUP2 DUP5 ADD MSTORE PUSH1 0x20 DUP2 ADD SWAP1 POP PUSH2 0x3F4 JUMP JUMPDEST DUP4 DUP2 GT ISZERO PUSH2 0x41E JUMPI PUSH1 0x0 DUP5 DUP5 ADD MSTORE JUMPDEST POP POP POP POP JUMP JUMPDEST PUSH1 0x0 PUSH1 0x2 DUP3 DIV SWAP1 POP PUSH1 0x1 DUP3 AND DUP1 PUSH2 0x43C JUMPI PUSH1 0x7F DUP3 AND SWAP2 POP JUMPDEST PUSH1 0x20 DUP3 LT DUP2 EQ ISZERO PUSH2 0x450 JUMPI PUSH2 0x44F PUSH2 0x456 JUMP JUMPDEST JUMPDEST POP SWAP2 SWAP1 POP JUMP JUMPDEST PUSH32 0x4E487B7100000000000000000000000000000000000000000000000000000000 PUSH1 0x0 MSTORE PUSH1 0x22 PUSH1 0x4 MSTORE PUSH1 0x24 PUSH1 0x0 REVERT JUMPDEST PUSH1 0x0 PUSH1 0x1F NOT PUSH1 0x1F DUP4 ADD AND SWAP1 POP SWAP2 SWAP1 POP JUMP JUMPDEST PUSH2 0x49F DUP2 PUSH2 0x3E7 JUMP JUMPDEST DUP2 EQ PUSH2 0x4AA JUMPI PUSH1 0x0 DUP1 REVERT JUMPDEST POP JUMP INVALID LOG2 PUSH5 0x6970667358 0x22 SLT KECCAK256 0xF6 SMOD ADDMOD 0xBD 0xBA LOG0 XOR SAR 0xD6 SLOAD CALLDATALOAD PUSH7 0x1993F99259D1FB LOG4 DUP4 0xC7 CALLCODE 0xDB 0xB3 SWAP1 SWAP16 0xC9 SLOAD 0xBE 0xC9 0x26 PUSH5 0x736F6C6343 STOP ADDMOD STOP STOP CALLER "
				},
				"gasEstimates": {
					"creation": {
						"codeDepositCost": "250200",
						"executionCost": "21160",
						"totalCost": "271360"
					},
					"external": {
						"auctions(uint256)": "infinite",
						"createAuction(uint256,uint256)": "infinite",
						"owner()": "1233"
					}
				},
				"methodIdentifiers": {
					"auctions(uint256)": "571a26a0",
					"createAuction(uint256,uint256)": "0121683f",
					"owner()": "8da5cb5b"
				}
			},
			"storageLayout": {
				"storage": [
					{
						"astId": 3,
						"contract": "coin.sol:AucEngine",
						"label": "owner",
						"offset": 0,
						"slot": "0",
						"type": "t_address"
					},
					{
						"astId": 30,
						"contract": "coin.sol:AucEngine",
						"label": "auctions",
						"offset": 0,
						"slot": "1",
						"type": "t_array(t_struct(Auction)26_storage)dyn_storage"
					}
				],
				"types": {
					"t_address": {
						"encoding": "inplace",
						"label": "address",
						"numberOfBytes": "20"
					},
					"t_address_payable": {
						"encoding": "inplace",
						"label": "address payable",
						"numberOfBytes": "20"
					},
					"t_array(t_struct(Auction)26_storage)dyn_storage": {
						"base": "t_struct(Auction)26_storage",
						"encoding": "dynamic_array",
						"label": "struct AucEngine.Auction[]",
						"numberOfBytes": "32"
					},
					"t_bool": {
						"encoding": "inplace",
						"label": "bool",
						"numberOfBytes": "1"
					},
					"t_string_storage": {
						"encoding": "bytes",
						"label": "string",
						"numberOfBytes": "32"
					},
					"t_struct(Auction)26_storage": {
						"encoding": "inplace",
						"label": "struct AucEngine.Auction",
						"members": [
							{
								"astId": 11,
								"contract": "coin.sol:AucEngine",
								"label": "seller",
								"offset": 0,
								"slot": "0",
								"type": "t_address_payable"
							},
							{
								"astId": 13,
								"contract": "coin.sol:AucEngine",
								"label": "startingPrice",
								"offset": 0,
								"slot": "1",
								"type": "t_uint256"
							},
							{
								"astId": 15,
								"contract": "coin.sol:AucEngine",
								"label": "finalPrice",
								"offset": 0,
								"slot": "2",
								"type": "t_uint256"
							},
							{
								"astId": 17,
								"contract": "coin.sol:AucEngine",
								"label": "startAt",
								"offset": 0,
								"slot": "3",
								"type": "t_uint256"
							},
							{
								"astId": 19,
								"contract": "coin.sol:AucEngine",
								"label": "endsAt",
								"offset": 0,
								"slot": "4",
								"type": "t_uint256"
							},
							{
								"astId": 21,
								"contract": "coin.sol:AucEngine",
								"label": "discountRate",
								"offset": 0,
								"slot": "5",
								"type": "t_uint256"
							},
							{
								"astId": 23,
								"contract": "coin.sol:AucEngine",
								"label": "item",
								"offset": 0,
								"slot": "6",
								"type": "t_string_storage"
							},
							{
								"astId": 25,
								"contract": "coin.sol:AucEngine",
								"label": "stopped",
								"offset": 0,
								"slot": "7",
								"type": "t_bool"
							}
						],
						"numberOfBytes": "256"
					},
					"t_uint256": {
						"encoding": "inplace",
						"label": "uint256",
						"numberOfBytes": "32"
					}
				}
			},
			"userdoc": {
				"kind": "user",
				"methods": {},
				"version": 1
			}
		}
	}
}