{
	"merkle_tree.sol": {
		"Merkleproof": {
			"abi": [
				{
					"inputs": [
						{
							"internalType": "bytes32[]",
							"name": "proof",
							"type": "bytes32[]"
						},
						{
							"internalType": "bytes32",
							"name": "root",
							"type": "bytes32"
						},
						{
							"internalType": "bytes32",
							"name": "leaf",
							"type": "bytes32"
						},
						{
							"internalType": "uint256",
							"name": "index",
							"type": "uint256"
						}
					],
					"name": "verify",
					"outputs": [
						{
							"internalType": "bool",
							"name": "",
							"type": "bool"
						}
					],
					"stateMutability": "pure",
					"type": "function"
				}
			],
			"devdoc": {
				"kind": "dev",
				"methods": {},
				"version": 1
			},
			"evm": {
				"assembly": "    /* \"merkle_tree.sol\":68:289  contract Merkleproof {\r... */\n  mstore(0x40, 0x80)\n  callvalue\n  dup1\n  iszero\n  tag_1\n  jumpi\n  0x00\n  dup1\n  revert\ntag_1:\n  pop\n  dataSize(sub_0)\n  dup1\n  dataOffset(sub_0)\n  0x00\n  codecopy\n  0x00\n  return\nstop\n\nsub_0: assembly {\n        /* \"merkle_tree.sol\":68:289  contract Merkleproof {\r... */\n      mstore(0x40, 0x80)\n      callvalue\n      dup1\n      iszero\n      tag_1\n      jumpi\n      0x00\n      dup1\n      revert\n    tag_1:\n      pop\n      jumpi(tag_2, lt(calldatasize, 0x04))\n      shr(0xe0, calldataload(0x00))\n      dup1\n      0x21fb335c\n      eq\n      tag_3\n      jumpi\n    tag_2:\n      0x00\n      dup1\n      revert\n        /* \"merkle_tree.sol\":96:286  function verify(\r... */\n    tag_3:\n      tag_4\n      0x04\n      dup1\n      calldatasize\n      sub\n      dup2\n      add\n      swap1\n      tag_5\n      swap2\n      swap1\n      tag_6\n      jump\t// in\n    tag_5:\n      tag_7\n      jump\t// in\n    tag_4:\n      mload(0x40)\n      tag_8\n      swap2\n      swap1\n      tag_9\n      jump\t// in\n    tag_8:\n      mload(0x40)\n      dup1\n      swap2\n      sub\n      swap1\n      return\n    tag_7:\n        /* \"merkle_tree.sol\":240:244  bool */\n      0x00\n        /* \"merkle_tree.sol\":257:269  bytes32 hash */\n      dup1\n        /* \"merkle_tree.sol\":272:276  leaf */\n      dup4\n        /* \"merkle_tree.sol\":257:276  bytes32 hash = leaf */\n      swap1\n      pop\n        /* \"merkle_tree.sol\":246:286  {\r... */\n      pop\n        /* \"merkle_tree.sol\":96:286  function verify(\r... */\n      swap5\n      swap4\n      pop\n      pop\n      pop\n      pop\n      jump\t// out\n        /* \"#utility.yul\":24:746   */\n    tag_12:\n        /* \"#utility.yul\":120:125   */\n      0x00\n        /* \"#utility.yul\":145:226   */\n      tag_14\n        /* \"#utility.yul\":161:225   */\n      tag_15\n        /* \"#utility.yul\":218:224   */\n      dup5\n        /* \"#utility.yul\":161:225   */\n      tag_16\n      jump\t// in\n    tag_15:\n        /* \"#utility.yul\":145:226   */\n      tag_17\n      jump\t// in\n    tag_14:\n        /* \"#utility.yul\":136:226   */\n      swap1\n      pop\n        /* \"#utility.yul\":246:251   */\n      dup1\n        /* \"#utility.yul\":275:281   */\n      dup4\n        /* \"#utility.yul\":268:273   */\n      dup3\n        /* \"#utility.yul\":261:282   */\n      mstore\n        /* \"#utility.yul\":309:313   */\n      0x20\n        /* \"#utility.yul\":302:307   */\n      dup3\n        /* \"#utility.yul\":298:314   */\n      add\n        /* \"#utility.yul\":291:314   */\n      swap1\n      pop\n        /* \"#utility.yul\":335:341   */\n      dup3\n        /* \"#utility.yul\":385:388   */\n      dup6\n        /* \"#utility.yul\":377:381   */\n      0x20\n        /* \"#utility.yul\":369:375   */\n      dup7\n        /* \"#utility.yul\":365:382   */\n      mul\n        /* \"#utility.yul\":360:363   */\n      dup3\n        /* \"#utility.yul\":356:383   */\n      add\n        /* \"#utility.yul\":353:389   */\n      gt\n        /* \"#utility.yul\":350:493   */\n      iszero\n      tag_18\n      jumpi\n        /* \"#utility.yul\":404:483   */\n      tag_19\n      tag_20\n      jump\t// in\n    tag_19:\n        /* \"#utility.yul\":350:493   */\n    tag_18:\n        /* \"#utility.yul\":517:518   */\n      0x00\n        /* \"#utility.yul\":502:740   */\n    tag_21:\n        /* \"#utility.yul\":527:533   */\n      dup6\n        /* \"#utility.yul\":524:525   */\n      dup2\n        /* \"#utility.yul\":521:534   */\n      lt\n        /* \"#utility.yul\":502:740   */\n      iszero\n      tag_23\n      jumpi\n        /* \"#utility.yul\":595:598   */\n      dup2\n        /* \"#utility.yul\":624:661   */\n      tag_24\n        /* \"#utility.yul\":657:660   */\n      dup9\n        /* \"#utility.yul\":645:655   */\n      dup3\n        /* \"#utility.yul\":624:661   */\n      tag_25\n      jump\t// in\n    tag_24:\n        /* \"#utility.yul\":619:622   */\n      dup5\n        /* \"#utility.yul\":612:662   */\n      mstore\n        /* \"#utility.yul\":691:695   */\n      0x20\n        /* \"#utility.yul\":686:689   */\n      dup5\n        /* \"#utility.yul\":682:696   */\n      add\n        /* \"#utility.yul\":675:696   */\n      swap4\n      pop\n        /* \"#utility.yul\":725:729   */\n      0x20\n        /* \"#utility.yul\":720:723   */\n      dup4\n        /* \"#utility.yul\":716:730   */\n      add\n        /* \"#utility.yul\":709:730   */\n      swap3\n      pop\n        /* \"#utility.yul\":562:740   */\n      pop\n        /* \"#utility.yul\":549:550   */\n      0x01\n        /* \"#utility.yul\":546:547   */\n      dup2\n        /* \"#utility.yul\":542:551   */\n      add\n        /* \"#utility.yul\":537:551   */\n      swap1\n      pop\n        /* \"#utility.yul\":502:740   */\n      jump(tag_21)\n    tag_23:\n        /* \"#utility.yul\":506:520   */\n      pop\n        /* \"#utility.yul\":126:746   */\n      pop\n      pop\n        /* \"#utility.yul\":24:746   */\n      swap4\n      swap3\n      pop\n      pop\n      pop\n      jump\t// out\n        /* \"#utility.yul\":769:1139   */\n    tag_26:\n        /* \"#utility.yul\":840:845   */\n      0x00\n        /* \"#utility.yul\":889:892   */\n      dup3\n        /* \"#utility.yul\":882:886   */\n      0x1f\n        /* \"#utility.yul\":874:880   */\n      dup4\n        /* \"#utility.yul\":870:887   */\n      add\n        /* \"#utility.yul\":866:893   */\n      slt\n        /* \"#utility.yul\":856:978   */\n      tag_28\n      jumpi\n        /* \"#utility.yul\":897:976   */\n      tag_29\n      tag_30\n      jump\t// in\n    tag_29:\n        /* \"#utility.yul\":856:978   */\n    tag_28:\n        /* \"#utility.yul\":1014:1020   */\n      dup2\n        /* \"#utility.yul\":1001:1021   */\n      calldataload\n        /* \"#utility.yul\":1039:1133   */\n      tag_31\n        /* \"#utility.yul\":1129:1132   */\n      dup5\n        /* \"#utility.yul\":1121:1127   */\n      dup3\n        /* \"#utility.yul\":1114:1118   */\n      0x20\n        /* \"#utility.yul\":1106:1112   */\n      dup7\n        /* \"#utility.yul\":1102:1119   */\n      add\n        /* \"#utility.yul\":1039:1133   */\n      tag_12\n      jump\t// in\n    tag_31:\n        /* \"#utility.yul\":1030:1133   */\n      swap2\n      pop\n        /* \"#utility.yul\":846:1139   */\n      pop\n        /* \"#utility.yul\":769:1139   */\n      swap3\n      swap2\n      pop\n      pop\n      jump\t// out\n        /* \"#utility.yul\":1145:1284   */\n    tag_25:\n        /* \"#utility.yul\":1191:1196   */\n      0x00\n        /* \"#utility.yul\":1229:1235   */\n      dup2\n        /* \"#utility.yul\":1216:1236   */\n      calldataload\n        /* \"#utility.yul\":1207:1236   */\n      swap1\n      pop\n        /* \"#utility.yul\":1245:1278   */\n      tag_33\n        /* \"#utility.yul\":1272:1277   */\n      dup2\n        /* \"#utility.yul\":1245:1278   */\n      tag_34\n      jump\t// in\n    tag_33:\n        /* \"#utility.yul\":1145:1284   */\n      swap3\n      swap2\n      pop\n      pop\n      jump\t// out\n        /* \"#utility.yul\":1290:1429   */\n    tag_35:\n        /* \"#utility.yul\":1336:1341   */\n      0x00\n        /* \"#utility.yul\":1374:1380   */\n      dup2\n        /* \"#utility.yul\":1361:1381   */\n      calldataload\n        /* \"#utility.yul\":1352:1381   */\n      swap1\n      pop\n        /* \"#utility.yul\":1390:1423   */\n      tag_37\n        /* \"#utility.yul\":1417:1422   */\n      dup2\n        /* \"#utility.yul\":1390:1423   */\n      tag_38\n      jump\t// in\n    tag_37:\n        /* \"#utility.yul\":1290:1429   */\n      swap3\n      swap2\n      pop\n      pop\n      jump\t// out\n        /* \"#utility.yul\":1435:2410   */\n    tag_6:\n        /* \"#utility.yul\":1546:1552   */\n      0x00\n        /* \"#utility.yul\":1554:1560   */\n      dup1\n        /* \"#utility.yul\":1562:1568   */\n      0x00\n        /* \"#utility.yul\":1570:1576   */\n      dup1\n        /* \"#utility.yul\":1619:1622   */\n      0x80\n        /* \"#utility.yul\":1607:1616   */\n      dup6\n        /* \"#utility.yul\":1598:1605   */\n      dup8\n        /* \"#utility.yul\":1594:1617   */\n      sub\n        /* \"#utility.yul\":1590:1623   */\n      slt\n        /* \"#utility.yul\":1587:1707   */\n      iszero\n      tag_40\n      jumpi\n        /* \"#utility.yul\":1626:1705   */\n      tag_41\n      tag_42\n      jump\t// in\n    tag_41:\n        /* \"#utility.yul\":1587:1707   */\n    tag_40:\n        /* \"#utility.yul\":1774:1775   */\n      0x00\n        /* \"#utility.yul\":1763:1772   */\n      dup6\n        /* \"#utility.yul\":1759:1776   */\n      add\n        /* \"#utility.yul\":1746:1777   */\n      calldataload\n        /* \"#utility.yul\":1804:1822   */\n      0xffffffffffffffff\n        /* \"#utility.yul\":1796:1802   */\n      dup2\n        /* \"#utility.yul\":1793:1823   */\n      gt\n        /* \"#utility.yul\":1790:1907   */\n      iszero\n      tag_43\n      jumpi\n        /* \"#utility.yul\":1826:1905   */\n      tag_44\n      tag_45\n      jump\t// in\n    tag_44:\n        /* \"#utility.yul\":1790:1907   */\n    tag_43:\n        /* \"#utility.yul\":1931:2009   */\n      tag_46\n        /* \"#utility.yul\":2001:2008   */\n      dup8\n        /* \"#utility.yul\":1992:1998   */\n      dup3\n        /* \"#utility.yul\":1981:1990   */\n      dup9\n        /* \"#utility.yul\":1977:1999   */\n      add\n        /* \"#utility.yul\":1931:2009   */\n      tag_26\n      jump\t// in\n    tag_46:\n        /* \"#utility.yul\":1921:2009   */\n      swap5\n      pop\n        /* \"#utility.yul\":1717:2019   */\n      pop\n        /* \"#utility.yul\":2058:2060   */\n      0x20\n        /* \"#utility.yul\":2084:2137   */\n      tag_47\n        /* \"#utility.yul\":2129:2136   */\n      dup8\n        /* \"#utility.yul\":2120:2126   */\n      dup3\n        /* \"#utility.yul\":2109:2118   */\n      dup9\n        /* \"#utility.yul\":2105:2127   */\n      add\n        /* \"#utility.yul\":2084:2137   */\n      tag_25\n      jump\t// in\n    tag_47:\n        /* \"#utility.yul\":2074:2137   */\n      swap4\n      pop\n        /* \"#utility.yul\":2029:2147   */\n      pop\n        /* \"#utility.yul\":2186:2188   */\n      0x40\n        /* \"#utility.yul\":2212:2265   */\n      tag_48\n        /* \"#utility.yul\":2257:2264   */\n      dup8\n        /* \"#utility.yul\":2248:2254   */\n      dup3\n        /* \"#utility.yul\":2237:2246   */\n      dup9\n        /* \"#utility.yul\":2233:2255   */\n      add\n        /* \"#utility.yul\":2212:2265   */\n      tag_25\n      jump\t// in\n    tag_48:\n        /* \"#utility.yul\":2202:2265   */\n      swap3\n      pop\n        /* \"#utility.yul\":2157:2275   */\n      pop\n        /* \"#utility.yul\":2314:2316   */\n      0x60\n        /* \"#utility.yul\":2340:2393   */\n      tag_49\n        /* \"#utility.yul\":2385:2392   */\n      dup8\n        /* \"#utility.yul\":2376:2382   */\n      dup3\n        /* \"#utility.yul\":2365:2374   */\n      dup9\n        /* \"#utility.yul\":2361:2383   */\n      add\n        /* \"#utility.yul\":2340:2393   */\n      tag_35\n      jump\t// in\n    tag_49:\n        /* \"#utility.yul\":2330:2393   */\n      swap2\n      pop\n        /* \"#utility.yul\":2285:2403   */\n      pop\n        /* \"#utility.yul\":1435:2410   */\n      swap3\n      swap6\n      swap2\n      swap5\n      pop\n      swap3\n      pop\n      jump\t// out\n        /* \"#utility.yul\":2416:2525   */\n    tag_50:\n        /* \"#utility.yul\":2497:2518   */\n      tag_52\n        /* \"#utility.yul\":2512:2517   */\n      dup2\n        /* \"#utility.yul\":2497:2518   */\n      tag_53\n      jump\t// in\n    tag_52:\n        /* \"#utility.yul\":2492:2495   */\n      dup3\n        /* \"#utility.yul\":2485:2519   */\n      mstore\n        /* \"#utility.yul\":2416:2525   */\n      pop\n      pop\n      jump\t// out\n        /* \"#utility.yul\":2531:2741   */\n    tag_9:\n        /* \"#utility.yul\":2618:2622   */\n      0x00\n        /* \"#utility.yul\":2656:2658   */\n      0x20\n        /* \"#utility.yul\":2645:2654   */\n      dup3\n        /* \"#utility.yul\":2641:2659   */\n      add\n        /* \"#utility.yul\":2633:2659   */\n      swap1\n      pop\n        /* \"#utility.yul\":2669:2734   */\n      tag_55\n        /* \"#utility.yul\":2731:2732   */\n      0x00\n        /* \"#utility.yul\":2720:2729   */\n      dup4\n        /* \"#utility.yul\":2716:2733   */\n      add\n        /* \"#utility.yul\":2707:2713   */\n      dup5\n        /* \"#utility.yul\":2669:2734   */\n      tag_50\n      jump\t// in\n    tag_55:\n        /* \"#utility.yul\":2531:2741   */\n      swap3\n      swap2\n      pop\n      pop\n      jump\t// out\n        /* \"#utility.yul\":2747:2876   */\n    tag_17:\n        /* \"#utility.yul\":2781:2787   */\n      0x00\n        /* \"#utility.yul\":2808:2828   */\n      tag_57\n      tag_58\n      jump\t// in\n    tag_57:\n        /* \"#utility.yul\":2798:2828   */\n      swap1\n      pop\n        /* \"#utility.yul\":2837:2870   */\n      tag_59\n        /* \"#utility.yul\":2865:2869   */\n      dup3\n        /* \"#utility.yul\":2857:2863   */\n      dup3\n        /* \"#utility.yul\":2837:2870   */\n      tag_60\n      jump\t// in\n    tag_59:\n        /* \"#utility.yul\":2747:2876   */\n      swap2\n      swap1\n      pop\n      jump\t// out\n        /* \"#utility.yul\":2882:2957   */\n    tag_58:\n        /* \"#utility.yul\":2915:2921   */\n      0x00\n        /* \"#utility.yul\":2948:2950   */\n      0x40\n        /* \"#utility.yul\":2942:2951   */\n      mload\n        /* \"#utility.yul\":2932:2951   */\n      swap1\n      pop\n        /* \"#utility.yul\":2882:2957   */\n      swap1\n      jump\t// out\n        /* \"#utility.yul\":2963:3274   */\n    tag_16:\n        /* \"#utility.yul\":3040:3044   */\n      0x00\n        /* \"#utility.yul\":3130:3148   */\n      0xffffffffffffffff\n        /* \"#utility.yul\":3122:3128   */\n      dup3\n        /* \"#utility.yul\":3119:3149   */\n      gt\n        /* \"#utility.yul\":3116:3172   */\n      iszero\n      tag_63\n      jumpi\n        /* \"#utility.yul\":3152:3170   */\n      tag_64\n      tag_65\n      jump\t// in\n    tag_64:\n        /* \"#utility.yul\":3116:3172   */\n    tag_63:\n        /* \"#utility.yul\":3202:3206   */\n      0x20\n        /* \"#utility.yul\":3194:3200   */\n      dup3\n        /* \"#utility.yul\":3190:3207   */\n      mul\n        /* \"#utility.yul\":3182:3207   */\n      swap1\n      pop\n        /* \"#utility.yul\":3262:3266   */\n      0x20\n        /* \"#utility.yul\":3256:3260   */\n      dup2\n        /* \"#utility.yul\":3252:3267   */\n      add\n        /* \"#utility.yul\":3244:3267   */\n      swap1\n      pop\n        /* \"#utility.yul\":2963:3274   */\n      swap2\n      swap1\n      pop\n      jump\t// out\n        /* \"#utility.yul\":3280:3370   */\n    tag_53:\n        /* \"#utility.yul\":3314:3321   */\n      0x00\n        /* \"#utility.yul\":3357:3362   */\n      dup2\n        /* \"#utility.yul\":3350:3363   */\n      iszero\n        /* \"#utility.yul\":3343:3364   */\n      iszero\n        /* \"#utility.yul\":3332:3364   */\n      swap1\n      pop\n        /* \"#utility.yul\":3280:3370   */\n      swap2\n      swap1\n      pop\n      jump\t// out\n        /* \"#utility.yul\":3376:3453   */\n    tag_67:\n        /* \"#utility.yul\":3413:3420   */\n      0x00\n        /* \"#utility.yul\":3442:3447   */\n      dup2\n        /* \"#utility.yul\":3431:3447   */\n      swap1\n      pop\n        /* \"#utility.yul\":3376:3453   */\n      swap2\n      swap1\n      pop\n      jump\t// out\n        /* \"#utility.yul\":3459:3536   */\n    tag_69:\n        /* \"#utility.yul\":3496:3503   */\n      0x00\n        /* \"#utility.yul\":3525:3530   */\n      dup2\n        /* \"#utility.yul\":3514:3530   */\n      swap1\n      pop\n        /* \"#utility.yul\":3459:3536   */\n      swap2\n      swap1\n      pop\n      jump\t// out\n        /* \"#utility.yul\":3542:3823   */\n    tag_60:\n        /* \"#utility.yul\":3625:3652   */\n      tag_72\n        /* \"#utility.yul\":3647:3651   */\n      dup3\n        /* \"#utility.yul\":3625:3652   */\n      tag_73\n      jump\t// in\n    tag_72:\n        /* \"#utility.yul\":3617:3623   */\n      dup2\n        /* \"#utility.yul\":3613:3653   */\n      add\n        /* \"#utility.yul\":3755:3761   */\n      dup2\n        /* \"#utility.yul\":3743:3753   */\n      dup2\n        /* \"#utility.yul\":3740:3762   */\n      lt\n        /* \"#utility.yul\":3719:3737   */\n      0xffffffffffffffff\n        /* \"#utility.yul\":3707:3717   */\n      dup3\n        /* \"#utility.yul\":3704:3738   */\n      gt\n        /* \"#utility.yul\":3701:3763   */\n      or\n        /* \"#utility.yul\":3698:3786   */\n      iszero\n      tag_74\n      jumpi\n        /* \"#utility.yul\":3766:3784   */\n      tag_75\n      tag_65\n      jump\t// in\n    tag_75:\n        /* \"#utility.yul\":3698:3786   */\n    tag_74:\n        /* \"#utility.yul\":3806:3816   */\n      dup1\n        /* \"#utility.yul\":3802:3804   */\n      0x40\n        /* \"#utility.yul\":3795:3817   */\n      mstore\n        /* \"#utility.yul\":3585:3823   */\n      pop\n        /* \"#utility.yul\":3542:3823   */\n      pop\n      pop\n      jump\t// out\n        /* \"#utility.yul\":3829:4009   */\n    tag_65:\n        /* \"#utility.yul\":3877:3954   */\n      0x4e487b7100000000000000000000000000000000000000000000000000000000\n        /* \"#utility.yul\":3874:3875   */\n      0x00\n        /* \"#utility.yul\":3867:3955   */\n      mstore\n        /* \"#utility.yul\":3974:3978   */\n      0x41\n        /* \"#utility.yul\":3971:3972   */\n      0x04\n        /* \"#utility.yul\":3964:3979   */\n      mstore\n        /* \"#utility.yul\":3998:4002   */\n      0x24\n        /* \"#utility.yul\":3995:3996   */\n      0x00\n        /* \"#utility.yul\":3988:4003   */\n      revert\n        /* \"#utility.yul\":4015:4132   */\n    tag_30:\n        /* \"#utility.yul\":4124:4125   */\n      0x00\n        /* \"#utility.yul\":4121:4122   */\n      dup1\n        /* \"#utility.yul\":4114:4126   */\n      revert\n        /* \"#utility.yul\":4138:4255   */\n    tag_20:\n        /* \"#utility.yul\":4247:4248   */\n      0x00\n        /* \"#utility.yul\":4244:4245   */\n      dup1\n        /* \"#utility.yul\":4237:4249   */\n      revert\n        /* \"#utility.yul\":4261:4378   */\n    tag_45:\n        /* \"#utility.yul\":4370:4371   */\n      0x00\n        /* \"#utility.yul\":4367:4368   */\n      dup1\n        /* \"#utility.yul\":4360:4372   */\n      revert\n        /* \"#utility.yul\":4384:4501   */\n    tag_42:\n        /* \"#utility.yul\":4493:4494   */\n      0x00\n        /* \"#utility.yul\":4490:4491   */\n      dup1\n        /* \"#utility.yul\":4483:4495   */\n      revert\n        /* \"#utility.yul\":4507:4609   */\n    tag_73:\n        /* \"#utility.yul\":4548:4554   */\n      0x00\n        /* \"#utility.yul\":4599:4601   */\n      0x1f\n        /* \"#utility.yul\":4595:4602   */\n      not\n        /* \"#utility.yul\":4590:4592   */\n      0x1f\n        /* \"#utility.yul\":4583:4588   */\n      dup4\n        /* \"#utility.yul\":4579:4593   */\n      add\n        /* \"#utility.yul\":4575:4603   */\n      and\n        /* \"#utility.yul\":4565:4603   */\n      swap1\n      pop\n        /* \"#utility.yul\":4507:4609   */\n      swap2\n      swap1\n      pop\n      jump\t// out\n        /* \"#utility.yul\":4615:4737   */\n    tag_34:\n        /* \"#utility.yul\":4688:4712   */\n      tag_83\n        /* \"#utility.yul\":4706:4711   */\n      dup2\n        /* \"#utility.yul\":4688:4712   */\n      tag_67\n      jump\t// in\n    tag_83:\n        /* \"#utility.yul\":4681:4686   */\n      dup2\n        /* \"#utility.yul\":4678:4713   */\n      eq\n        /* \"#utility.yul\":4668:4731   */\n      tag_84\n      jumpi\n        /* \"#utility.yul\":4727:4728   */\n      0x00\n        /* \"#utility.yul\":4724:4725   */\n      dup1\n        /* \"#utility.yul\":4717:4729   */\n      revert\n        /* \"#utility.yul\":4668:4731   */\n    tag_84:\n        /* \"#utility.yul\":4615:4737   */\n      pop\n      jump\t// out\n        /* \"#utility.yul\":4743:4865   */\n    tag_38:\n        /* \"#utility.yul\":4816:4840   */\n      tag_86\n        /* \"#utility.yul\":4834:4839   */\n      dup2\n        /* \"#utility.yul\":4816:4840   */\n      tag_69\n      jump\t// in\n    tag_86:\n        /* \"#utility.yul\":4809:4814   */\n      dup2\n        /* \"#utility.yul\":4806:4841   */\n      eq\n        /* \"#utility.yul\":4796:4859   */\n      tag_87\n      jumpi\n        /* \"#utility.yul\":4855:4856   */\n      0x00\n        /* \"#utility.yul\":4852:4853   */\n      dup1\n        /* \"#utility.yul\":4845:4857   */\n      revert\n        /* \"#utility.yul\":4796:4859   */\n    tag_87:\n        /* \"#utility.yul\":4743:4865   */\n      pop\n      jump\t// out\n\n    auxdata: 0xa2646970667358221220dce3840bf9c41a9b77740bbc31000596751892d712693cd77612a816c19b2dd064736f6c63430008070033\n}\n",
				"bytecode": {
					"linkReferences": {},
					"object": "608060405234801561001057600080fd5b5061033e806100206000396000f3fe608060405234801561001057600080fd5b506004361061002b5760003560e01c806321fb335c14610030575b600080fd5b61004a60048036038101906100459190610137565b610060565b60405161005791906101c9565b60405180910390f35b60008083905050949350505050565b600061008261007d84610209565b6101e4565b905080838252602082019050828560208602820111156100a5576100a46102ba565b5b60005b858110156100d557816100bb888261010d565b8452602084019350602083019250506001810190506100a8565b5050509392505050565b600082601f8301126100f4576100f36102b5565b5b813561010484826020860161006f565b91505092915050565b60008135905061011c816102da565b92915050565b600081359050610131816102f1565b92915050565b60008060008060808587031215610151576101506102c4565b5b600085013567ffffffffffffffff81111561016f5761016e6102bf565b5b61017b878288016100df565b945050602061018c8782880161010d565b935050604061019d8782880161010d565b92505060606101ae87828801610122565b91505092959194509250565b6101c381610235565b82525050565b60006020820190506101de60008301846101ba565b92915050565b60006101ee6101ff565b90506101fa8282610255565b919050565b6000604051905090565b600067ffffffffffffffff82111561022457610223610286565b5b602082029050602081019050919050565b60008115159050919050565b6000819050919050565b6000819050919050565b61025e826102c9565b810181811067ffffffffffffffff8211171561027d5761027c610286565b5b80604052505050565b7f4e487b7100000000000000000000000000000000000000000000000000000000600052604160045260246000fd5b600080fd5b600080fd5b600080fd5b600080fd5b6000601f19601f8301169050919050565b6102e381610241565b81146102ee57600080fd5b50565b6102fa8161024b565b811461030557600080fd5b5056fea2646970667358221220dce3840bf9c41a9b77740bbc31000596751892d712693cd77612a816c19b2dd064736f6c63430008070033",
					"opcodes": "PUSH1 0x80 PUSH1 0x40 MSTORE CALLVALUE DUP1 ISZERO PUSH2 0x10 JUMPI PUSH1 0x0 DUP1 REVERT JUMPDEST POP PUSH2 0x33E DUP1 PUSH2 0x20 PUSH1 0x0 CODECOPY PUSH1 0x0 RETURN INVALID PUSH1 0x80 PUSH1 0x40 MSTORE CALLVALUE DUP1 ISZERO PUSH2 0x10 JUMPI PUSH1 0x0 DUP1 REVERT JUMPDEST POP PUSH1 0x4 CALLDATASIZE LT PUSH2 0x2B JUMPI PUSH1 0x0 CALLDATALOAD PUSH1 0xE0 SHR DUP1 PUSH4 0x21FB335C EQ PUSH2 0x30 JUMPI JUMPDEST PUSH1 0x0 DUP1 REVERT JUMPDEST PUSH2 0x4A PUSH1 0x4 DUP1 CALLDATASIZE SUB DUP2 ADD SWAP1 PUSH2 0x45 SWAP2 SWAP1 PUSH2 0x137 JUMP JUMPDEST PUSH2 0x60 JUMP JUMPDEST PUSH1 0x40 MLOAD PUSH2 0x57 SWAP2 SWAP1 PUSH2 0x1C9 JUMP JUMPDEST PUSH1 0x40 MLOAD DUP1 SWAP2 SUB SWAP1 RETURN JUMPDEST PUSH1 0x0 DUP1 DUP4 SWAP1 POP POP SWAP5 SWAP4 POP POP POP POP JUMP JUMPDEST PUSH1 0x0 PUSH2 0x82 PUSH2 0x7D DUP5 PUSH2 0x209 JUMP JUMPDEST PUSH2 0x1E4 JUMP JUMPDEST SWAP1 POP DUP1 DUP4 DUP3 MSTORE PUSH1 0x20 DUP3 ADD SWAP1 POP DUP3 DUP6 PUSH1 0x20 DUP7 MUL DUP3 ADD GT ISZERO PUSH2 0xA5 JUMPI PUSH2 0xA4 PUSH2 0x2BA JUMP JUMPDEST JUMPDEST PUSH1 0x0 JUMPDEST DUP6 DUP2 LT ISZERO PUSH2 0xD5 JUMPI DUP2 PUSH2 0xBB DUP9 DUP3 PUSH2 0x10D JUMP JUMPDEST DUP5 MSTORE PUSH1 0x20 DUP5 ADD SWAP4 POP PUSH1 0x20 DUP4 ADD SWAP3 POP POP PUSH1 0x1 DUP2 ADD SWAP1 POP PUSH2 0xA8 JUMP JUMPDEST POP POP POP SWAP4 SWAP3 POP POP POP JUMP JUMPDEST PUSH1 0x0 DUP3 PUSH1 0x1F DUP4 ADD SLT PUSH2 0xF4 JUMPI PUSH2 0xF3 PUSH2 0x2B5 JUMP JUMPDEST JUMPDEST DUP2 CALLDATALOAD PUSH2 0x104 DUP5 DUP3 PUSH1 0x20 DUP7 ADD PUSH2 0x6F JUMP JUMPDEST SWAP2 POP POP SWAP3 SWAP2 POP POP JUMP JUMPDEST PUSH1 0x0 DUP2 CALLDATALOAD SWAP1 POP PUSH2 0x11C DUP2 PUSH2 0x2DA JUMP JUMPDEST SWAP3 SWAP2 POP POP JUMP JUMPDEST PUSH1 0x0 DUP2 CALLDATALOAD SWAP1 POP PUSH2 0x131 DUP2 PUSH2 0x2F1 JUMP JUMPDEST SWAP3 SWAP2 POP POP JUMP JUMPDEST PUSH1 0x0 DUP1 PUSH1 0x0 DUP1 PUSH1 0x80 DUP6 DUP8 SUB SLT ISZERO PUSH2 0x151 JUMPI PUSH2 0x150 PUSH2 0x2C4 JUMP JUMPDEST JUMPDEST PUSH1 0x0 DUP6 ADD CALLDATALOAD PUSH8 0xFFFFFFFFFFFFFFFF DUP2 GT ISZERO PUSH2 0x16F JUMPI PUSH2 0x16E PUSH2 0x2BF JUMP JUMPDEST JUMPDEST PUSH2 0x17B DUP8 DUP3 DUP9 ADD PUSH2 0xDF JUMP JUMPDEST SWAP5 POP POP PUSH1 0x20 PUSH2 0x18C DUP8 DUP3 DUP9 ADD PUSH2 0x10D JUMP JUMPDEST SWAP4 POP POP PUSH1 0x40 PUSH2 0x19D DUP8 DUP3 DUP9 ADD PUSH2 0x10D JUMP JUMPDEST SWAP3 POP POP PUSH1 0x60 PUSH2 0x1AE DUP8 DUP3 DUP9 ADD PUSH2 0x122 JUMP JUMPDEST SWAP2 POP POP SWAP3 SWAP6 SWAP2 SWAP5 POP SWAP3 POP JUMP JUMPDEST PUSH2 0x1C3 DUP2 PUSH2 0x235 JUMP JUMPDEST DUP3 MSTORE POP POP JUMP JUMPDEST PUSH1 0x0 PUSH1 0x20 DUP3 ADD SWAP1 POP PUSH2 0x1DE PUSH1 0x0 DUP4 ADD DUP5 PUSH2 0x1BA JUMP JUMPDEST SWAP3 SWAP2 POP POP JUMP JUMPDEST PUSH1 0x0 PUSH2 0x1EE PUSH2 0x1FF JUMP JUMPDEST SWAP1 POP PUSH2 0x1FA DUP3 DUP3 PUSH2 0x255 JUMP JUMPDEST SWAP2 SWAP1 POP JUMP JUMPDEST PUSH1 0x0 PUSH1 0x40 MLOAD SWAP1 POP SWAP1 JUMP JUMPDEST PUSH1 0x0 PUSH8 0xFFFFFFFFFFFFFFFF DUP3 GT ISZERO PUSH2 0x224 JUMPI PUSH2 0x223 PUSH2 0x286 JUMP JUMPDEST JUMPDEST PUSH1 0x20 DUP3 MUL SWAP1 POP PUSH1 0x20 DUP2 ADD SWAP1 POP SWAP2 SWAP1 POP JUMP JUMPDEST PUSH1 0x0 DUP2 ISZERO ISZERO SWAP1 POP SWAP2 SWAP1 POP JUMP JUMPDEST PUSH1 0x0 DUP2 SWAP1 POP SWAP2 SWAP1 POP JUMP JUMPDEST PUSH1 0x0 DUP2 SWAP1 POP SWAP2 SWAP1 POP JUMP JUMPDEST PUSH2 0x25E DUP3 PUSH2 0x2C9 JUMP JUMPDEST DUP2 ADD DUP2 DUP2 LT PUSH8 0xFFFFFFFFFFFFFFFF DUP3 GT OR ISZERO PUSH2 0x27D JUMPI PUSH2 0x27C PUSH2 0x286 JUMP JUMPDEST JUMPDEST DUP1 PUSH1 0x40 MSTORE POP POP POP JUMP JUMPDEST PUSH32 0x4E487B7100000000000000000000000000000000000000000000000000000000 PUSH1 0x0 MSTORE PUSH1 0x41 PUSH1 0x4 MSTORE PUSH1 0x24 PUSH1 0x0 REVERT JUMPDEST PUSH1 0x0 DUP1 REVERT JUMPDEST PUSH1 0x0 DUP1 REVERT JUMPDEST PUSH1 0x0 DUP1 REVERT JUMPDEST PUSH1 0x0 DUP1 REVERT JUMPDEST PUSH1 0x0 PUSH1 0x1F NOT PUSH1 0x1F DUP4 ADD AND SWAP1 POP SWAP2 SWAP1 POP JUMP JUMPDEST PUSH2 0x2E3 DUP2 PUSH2 0x241 JUMP JUMPDEST DUP2 EQ PUSH2 0x2EE JUMPI PUSH1 0x0 DUP1 REVERT JUMPDEST POP JUMP JUMPDEST PUSH2 0x2FA DUP2 PUSH2 0x24B JUMP JUMPDEST DUP2 EQ PUSH2 0x305 JUMPI PUSH1 0x0 DUP1 REVERT JUMPDEST POP JUMP INVALID LOG2 PUSH5 0x6970667358 0x22 SLT KECCAK256 0xDC 0xE3 DUP5 SIGNEXTEND 0xF9 0xC4 BYTE SWAP12 PUSH24 0x740BBC31000596751892D712693CD77612A816C19B2DD064 PUSH20 0x6F6C634300080700330000000000000000000000 "
				},
				"gasEstimates": {
					"creation": {
						"codeDepositCost": "166000",
						"executionCost": "208",
						"totalCost": "166208"
					},
					"external": {
						"verify(bytes32[],bytes32,bytes32,uint256)": "infinite"
					}
				},
				"methodIdentifiers": {
					"verify(bytes32[],bytes32,bytes32,uint256)": "21fb335c"
				}
			},
			"storageLayout": {
				"storage": [],
				"types": null
			},
			"userdoc": {
				"kind": "user",
				"methods": {},
				"version": 1
			}
		}
	}
}