{
	"coin.sol": {
		"AucEngine": {
			"abi": [
				{
					"inputs": [],
					"stateMutability": "nonpayable",
					"type": "constructor"
				},
				{
					"anonymous": false,
					"inputs": [
						{
							"indexed": false,
							"internalType": "uint256",
							"name": "index",
							"type": "uint256"
						},
						{
							"indexed": false,
							"internalType": "string",
							"name": "itemName",
							"type": "string"
						},
						{
							"indexed": false,
							"internalType": "uint256",
							"name": "startingPrice",
							"type": "uint256"
						},
						{
							"indexed": false,
							"internalType": "uint256",
							"name": "duration",
							"type": "uint256"
						}
					],
					"name": "AuctionCreated",
					"type": "event"
				},
				{
					"inputs": [
						{
							"internalType": "uint256",
							"name": "",
							"type": "uint256"
						}
					],
					"name": "auctions",
					"outputs": [
						{
							"internalType": "address payable",
							"name": "seller",
							"type": "address"
						},
						{
							"internalType": "uint256",
							"name": "startingPrice",
							"type": "uint256"
						},
						{
							"internalType": "uint256",
							"name": "finalPrice",
							"type": "uint256"
						},
						{
							"internalType": "uint256",
							"name": "startAt",
							"type": "uint256"
						},
						{
							"internalType": "uint256",
							"name": "endsAt",
							"type": "uint256"
						},
						{
							"internalType": "uint256",
							"name": "discountRate",
							"type": "uint256"
						},
						{
							"internalType": "string",
							"name": "item",
							"type": "string"
						},
						{
							"internalType": "bool",
							"name": "stopped",
							"type": "bool"
						}
					],
					"stateMutability": "view",
					"type": "function"
				},
				{
					"inputs": [
						{
							"internalType": "uint256",
							"name": "_startingPrice",
							"type": "uint256"
						},
						{
							"internalType": "uint256",
							"name": "_discountRate",
							"type": "uint256"
						},
						{
							"internalType": "string",
							"name": "_item",
							"type": "string"
						},
						{
							"internalType": "uint256",
							"name": "_duration",
							"type": "uint256"
						}
					],
					"name": "createAuction",
					"outputs": [],
					"stateMutability": "nonpayable",
					"type": "function"
				},
				{
					"inputs": [
						{
							"internalType": "uint256",
							"name": "index",
							"type": "uint256"
						}
					],
					"name": "getPriceFor",
					"outputs": [
						{
							"internalType": "uint256",
							"name": "",
							"type": "uint256"
						}
					],
					"stateMutability": "view",
					"type": "function"
				},
				{
					"inputs": [],
					"name": "owner",
					"outputs": [
						{
							"internalType": "address",
							"name": "",
							"type": "address"
						}
					],
					"stateMutability": "view",
					"type": "function"
				}
			],
			"devdoc": {
				"kind": "dev",
				"methods": {},
				"version": 1
			},
			"evm": {
				"assembly": "    /* \"coin.sol\":68:1550  contract AucEngine {\r... */\n  mstore(0x40, 0x80)\n    /* \"coin.sol\":566:618  constructor()  {\r... */\n  callvalue\n  dup1\n  iszero\n  tag_1\n  jumpi\n  0x00\n  dup1\n  revert\ntag_1:\n  pop\n    /* \"coin.sol\":600:610  msg.sender */\n  caller\n    /* \"coin.sol\":592:597  owner */\n  0x00\n  dup1\n    /* \"coin.sol\":592:610  owner = msg.sender */\n  0x0100\n  exp\n  dup2\n  sload\n  dup2\n  0xffffffffffffffffffffffffffffffffffffffff\n  mul\n  not\n  and\n  swap1\n  dup4\n  0xffffffffffffffffffffffffffffffffffffffff\n  and\n  mul\n  or\n  swap1\n  sstore\n  pop\n    /* \"coin.sol\":68:1550  contract AucEngine {\r... */\n  dataSize(sub_0)\n  dup1\n  dataOffset(sub_0)\n  0x00\n  codecopy\n  0x00\n  return\nstop\n\nsub_0: assembly {\n        /* \"coin.sol\":68:1550  contract AucEngine {\r... */\n      mstore(0x40, 0x80)\n      callvalue\n      dup1\n      iszero\n      tag_1\n      jumpi\n      0x00\n      dup1\n      revert\n    tag_1:\n      pop\n      jumpi(tag_2, lt(calldatasize, 0x04))\n      shr(0xe0, calldataload(0x00))\n      dup1\n      0x4534cd9c\n      eq\n      tag_3\n      jumpi\n      dup1\n      0x571a26a0\n      eq\n      tag_4\n      jumpi\n      dup1\n      0x8da5cb5b\n      eq\n      tag_5\n      jumpi\n      dup1\n      0xe9835d15\n      eq\n      tag_6\n      jumpi\n    tag_2:\n      0x00\n      dup1\n      revert\n        /* \"coin.sol\":1420:1539  function getPriceFor(uint index) public view returns(uint) {\r... */\n    tag_3:\n      tag_7\n      0x04\n      dup1\n      calldatasize\n      sub\n      dup2\n      add\n      swap1\n      tag_8\n      swap2\n      swap1\n      tag_9\n      jump\t// in\n    tag_8:\n      tag_10\n      jump\t// in\n    tag_7:\n      mload(0x40)\n      tag_11\n      swap2\n      swap1\n      tag_12\n      jump\t// in\n    tag_11:\n      mload(0x40)\n      dup1\n      swap2\n      sub\n      swap1\n      return\n        /* \"coin.sol\":433:458  Auction[] public auctions */\n    tag_4:\n      tag_13\n      0x04\n      dup1\n      calldatasize\n      sub\n      dup2\n      add\n      swap1\n      tag_14\n      swap2\n      swap1\n      tag_9\n      jump\t// in\n    tag_14:\n      tag_15\n      jump\t// in\n    tag_13:\n      mload(0x40)\n      tag_16\n      swap9\n      swap8\n      swap7\n      swap6\n      swap5\n      swap4\n      swap3\n      swap2\n      swap1\n      tag_17\n      jump\t// in\n    tag_16:\n      mload(0x40)\n      dup1\n      swap2\n      sub\n      swap1\n      return\n        /* \"coin.sol\":94:114  address public owner */\n    tag_5:\n      tag_18\n      tag_19\n      jump\t// in\n    tag_18:\n      mload(0x40)\n      tag_20\n      swap2\n      swap1\n      tag_21\n      jump\t// in\n    tag_20:\n      mload(0x40)\n      dup1\n      swap2\n      sub\n      swap1\n      return\n        /* \"coin.sol\":630:1406  function createAuction(uint _startingPrice, uint _discountRate, string calldata _item, uint _duration) external {\r... */\n    tag_6:\n      tag_22\n      0x04\n      dup1\n      calldatasize\n      sub\n      dup2\n      add\n      swap1\n      tag_23\n      swap2\n      swap1\n      tag_24\n      jump\t// in\n    tag_23:\n      tag_25\n      jump\t// in\n    tag_22:\n      stop\n        /* \"coin.sol\":1420:1539  function getPriceFor(uint index) public view returns(uint) {\r... */\n    tag_10:\n        /* \"coin.sol\":1473:1477  uint */\n      0x00\n        /* \"coin.sol\":1490:1513  Auction memory cAuction */\n      dup1\n        /* \"coin.sol\":1516:1524  auctions */\n      0x01\n        /* \"coin.sol\":1525:1530  index */\n      dup4\n        /* \"coin.sol\":1516:1531  auctions[index] */\n      dup2\n      sload\n      dup2\n      lt\n      tag_27\n      jumpi\n      mstore(0x00, 0x4e487b7100000000000000000000000000000000000000000000000000000000)\n      mstore(0x04, 0x32)\n      revert(0x00, 0x24)\n    tag_27:\n      swap1\n      0x00\n      mstore\n      keccak256(0x00, 0x20)\n      swap1\n      0x08\n      mul\n      add\n        /* \"coin.sol\":1490:1531  Auction memory cAuction = auctions[index] */\n      mload(0x40)\n      dup1\n      0x0100\n      add\n      0x40\n      mstore\n      swap1\n      dup2\n      0x00\n      dup3\n      add\n      0x00\n      swap1\n      sload\n      swap1\n      0x0100\n      exp\n      swap1\n      div\n      0xffffffffffffffffffffffffffffffffffffffff\n      and\n      0xffffffffffffffffffffffffffffffffffffffff\n      and\n      0xffffffffffffffffffffffffffffffffffffffff\n      and\n      dup2\n      mstore\n      0x20\n      add\n      0x01\n      dup3\n      add\n      sload\n      dup2\n      mstore\n      0x20\n      add\n      0x02\n      dup3\n      add\n      sload\n      dup2\n      mstore\n      0x20\n      add\n      0x03\n      dup3\n      add\n      sload\n      dup2\n      mstore\n      0x20\n      add\n      0x04\n      dup3\n      add\n      sload\n      dup2\n      mstore\n      0x20\n      add\n      0x05\n      dup3\n      add\n      sload\n      dup2\n      mstore\n      0x20\n      add\n      0x06\n      dup3\n      add\n      dup1\n      sload\n      tag_29\n      swap1\n      tag_30\n      jump\t// in\n    tag_29:\n      dup1\n      0x1f\n      add\n      0x20\n      dup1\n      swap2\n      div\n      mul\n      0x20\n      add\n      mload(0x40)\n      swap1\n      dup2\n      add\n      0x40\n      mstore\n      dup1\n      swap3\n      swap2\n      swap1\n      dup2\n      dup2\n      mstore\n      0x20\n      add\n      dup3\n      dup1\n      sload\n      tag_31\n      swap1\n      tag_30\n      jump\t// in\n    tag_31:\n      dup1\n      iszero\n      tag_32\n      jumpi\n      dup1\n      0x1f\n      lt\n      tag_33\n      jumpi\n      0x0100\n      dup1\n      dup4\n      sload\n      div\n      mul\n      dup4\n      mstore\n      swap2\n      0x20\n      add\n      swap2\n      jump(tag_32)\n    tag_33:\n      dup3\n      add\n      swap2\n      swap1\n      0x00\n      mstore\n      keccak256(0x00, 0x20)\n      swap1\n    tag_34:\n      dup2\n      sload\n      dup2\n      mstore\n      swap1\n      0x01\n      add\n      swap1\n      0x20\n      add\n      dup1\n      dup4\n      gt\n      tag_34\n      jumpi\n      dup3\n      swap1\n      sub\n      0x1f\n      and\n      dup3\n      add\n      swap2\n    tag_32:\n      pop\n      pop\n      pop\n      pop\n      pop\n      dup2\n      mstore\n      0x20\n      add\n      0x07\n      dup3\n      add\n      0x00\n      swap1\n      sload\n      swap1\n      0x0100\n      exp\n      swap1\n      div\n      0xff\n      and\n      iszero\n      iszero\n      iszero\n      iszero\n      dup2\n      mstore\n      pop\n      pop\n      swap1\n      pop\n        /* \"coin.sol\":1420:1539  function getPriceFor(uint index) public view returns(uint) {\r... */\n      pop\n      swap2\n      swap1\n      pop\n      jump\t// out\n        /* \"coin.sol\":433:458  Auction[] public auctions */\n    tag_15:\n      0x01\n      dup2\n      dup2\n      sload\n      dup2\n      lt\n      tag_35\n      jumpi\n      0x00\n      dup1\n      revert\n    tag_35:\n      swap1\n      0x00\n      mstore\n      keccak256(0x00, 0x20)\n      swap1\n      0x08\n      mul\n      add\n      0x00\n      swap2\n      pop\n      swap1\n      pop\n      dup1\n      0x00\n      add\n      0x00\n      swap1\n      sload\n      swap1\n      0x0100\n      exp\n      swap1\n      div\n      0xffffffffffffffffffffffffffffffffffffffff\n      and\n      swap1\n      dup1\n      0x01\n      add\n      sload\n      swap1\n      dup1\n      0x02\n      add\n      sload\n      swap1\n      dup1\n      0x03\n      add\n      sload\n      swap1\n      dup1\n      0x04\n      add\n      sload\n      swap1\n      dup1\n      0x05\n      add\n      sload\n      swap1\n      dup1\n      0x06\n      add\n      dup1\n      sload\n      tag_37\n      swap1\n      tag_30\n      jump\t// in\n    tag_37:\n      dup1\n      0x1f\n      add\n      0x20\n      dup1\n      swap2\n      div\n      mul\n      0x20\n      add\n      mload(0x40)\n      swap1\n      dup2\n      add\n      0x40\n      mstore\n      dup1\n      swap3\n      swap2\n      swap1\n      dup2\n      dup2\n      mstore\n      0x20\n      add\n      dup3\n      dup1\n      sload\n      tag_38\n      swap1\n      tag_30\n      jump\t// in\n    tag_38:\n      dup1\n      iszero\n      tag_39\n      jumpi\n      dup1\n      0x1f\n      lt\n      tag_40\n      jumpi\n      0x0100\n      dup1\n      dup4\n      sload\n      div\n      mul\n      dup4\n      mstore\n      swap2\n      0x20\n      add\n      swap2\n      jump(tag_39)\n    tag_40:\n      dup3\n      add\n      swap2\n      swap1\n      0x00\n      mstore\n      keccak256(0x00, 0x20)\n      swap1\n    tag_41:\n      dup2\n      sload\n      dup2\n      mstore\n      swap1\n      0x01\n      add\n      swap1\n      0x20\n      add\n      dup1\n      dup4\n      gt\n      tag_41\n      jumpi\n      dup3\n      swap1\n      sub\n      0x1f\n      and\n      dup3\n      add\n      swap2\n    tag_39:\n      pop\n      pop\n      pop\n      pop\n      pop\n      swap1\n      dup1\n      0x07\n      add\n      0x00\n      swap1\n      sload\n      swap1\n      0x0100\n      exp\n      swap1\n      div\n      0xff\n      and\n      swap1\n      pop\n      dup9\n      jump\t// out\n        /* \"coin.sol\":94:114  address public owner */\n    tag_19:\n      0x00\n      dup1\n      sload\n      swap1\n      0x0100\n      exp\n      swap1\n      div\n      0xffffffffffffffffffffffffffffffffffffffff\n      and\n      dup2\n      jump\t// out\n        /* \"coin.sol\":630:1406  function createAuction(uint _startingPrice, uint _discountRate, string calldata _item, uint _duration) external {\r... */\n    tag_25:\n        /* \"coin.sol\":753:766  uint duration */\n      0x00\n        /* \"coin.sol\":782:783  0 */\n      dup1\n        /* \"coin.sol\":769:778  _duration */\n      dup3\n        /* \"coin.sol\":769:783  _duration == 0 */\n      eq\n        /* \"coin.sol\":769:806  _duration == 0 ? DURATION : _duration */\n      tag_43\n      jumpi\n        /* \"coin.sol\":797:806  _duration */\n      dup2\n        /* \"coin.sol\":769:806  _duration == 0 ? DURATION : _duration */\n      jump(tag_44)\n    tag_43:\n        /* \"coin.sol\":146:152  2 days */\n      0x02a300\n        /* \"coin.sol\":769:806  _duration == 0 ? DURATION : _duration */\n    tag_44:\n        /* \"coin.sol\":753:806  uint duration = _duration == 0 ? DURATION : _duration */\n      swap1\n      pop\n        /* \"coin.sol\":861:869  duration */\n      dup1\n        /* \"coin.sol\":845:858  _discountRate */\n      dup6\n        /* \"coin.sol\":845:869  _discountRate * duration */\n      tag_45\n      swap2\n      swap1\n      tag_46\n      jump\t// in\n    tag_45:\n        /* \"coin.sol\":827:841  _startingPrice */\n      dup7\n        /* \"coin.sol\":827:869  _startingPrice >= _discountRate * duration */\n      lt\n      iszero\n        /* \"coin.sol\":819:897  require(_startingPrice >= _discountRate * duration,\"incorrect starting price\") */\n      tag_47\n      jumpi\n      mload(0x40)\n      0x08c379a000000000000000000000000000000000000000000000000000000000\n      dup2\n      mstore\n      0x04\n      add\n      tag_48\n      swap1\n      tag_49\n      jump\t// in\n    tag_48:\n      mload(0x40)\n      dup1\n      swap2\n      sub\n      swap1\n      revert\n    tag_47:\n        /* \"coin.sol\":912:937  Auction memory newAuction */\n      0x00\n        /* \"coin.sol\":940:1272  Auction({\r... */\n      mload(0x40)\n      dup1\n      0x0100\n      add\n      0x40\n      mstore\n      dup1\n        /* \"coin.sol\":979:989  msg.sender */\n      caller\n        /* \"coin.sol\":940:1272  Auction({\r... */\n      0xffffffffffffffffffffffffffffffffffffffff\n      and\n      dup2\n      mstore\n      0x20\n      add\n        /* \"coin.sol\":1020:1034  _startingPrice */\n      dup9\n        /* \"coin.sol\":940:1272  Auction({\r... */\n      dup2\n      mstore\n      0x20\n      add\n        /* \"coin.sol\":1061:1075  _startingPrice */\n      dup9\n        /* \"coin.sol\":940:1272  Auction({\r... */\n      dup2\n      mstore\n      0x20\n      add\n        /* \"coin.sol\":1141:1156  block.timestamp */\n      timestamp\n        /* \"coin.sol\":940:1272  Auction({\r... */\n      dup2\n      mstore\n      0x20\n      add\n        /* \"coin.sol\":1197:1205  duration */\n      dup4\n        /* \"coin.sol\":1179:1194  block.timestamp */\n      timestamp\n        /* \"coin.sol\":1179:1205  block.timestamp + duration */\n      tag_50\n      swap2\n      swap1\n      tag_51\n      jump\t// in\n    tag_50:\n        /* \"coin.sol\":940:1272  Auction({\r... */\n      dup2\n      mstore\n      0x20\n      add\n        /* \"coin.sol\":1104:1117  _discountRate */\n      dup8\n        /* \"coin.sol\":940:1272  Auction({\r... */\n      dup2\n      mstore\n      0x20\n      add\n        /* \"coin.sol\":1226:1231  _item */\n      dup7\n      dup7\n        /* \"coin.sol\":940:1272  Auction({\r... */\n      dup1\n      dup1\n      0x1f\n      add\n      0x20\n      dup1\n      swap2\n      div\n      mul\n      0x20\n      add\n      mload(0x40)\n      swap1\n      dup2\n      add\n      0x40\n      mstore\n      dup1\n      swap4\n      swap3\n      swap2\n      swap1\n      dup2\n      dup2\n      mstore\n      0x20\n      add\n      dup4\n      dup4\n      dup1\n      dup3\n      dup5\n      calldatacopy\n      0x00\n      dup2\n      dup5\n      add\n      mstore\n      not(0x1f)\n      0x1f\n      dup3\n      add\n      and\n      swap1\n      pop\n      dup1\n      dup4\n      add\n      swap3\n      pop\n      pop\n      pop\n      pop\n      pop\n      pop\n      pop\n      dup2\n      mstore\n      0x20\n      add\n        /* \"coin.sol\":1255:1260  false */\n      0x00\n        /* \"coin.sol\":940:1272  Auction({\r... */\n      iszero\n      iszero\n      dup2\n      mstore\n      pop\n        /* \"coin.sol\":912:1272  Auction memory newAuction = Auction({\r... */\n      swap1\n      pop\n        /* \"coin.sol\":1285:1293  auctions */\n      0x01\n        /* \"coin.sol\":1299:1309  newAuction */\n      dup2\n        /* \"coin.sol\":1285:1310  auctions.push(newAuction) */\n      swap1\n      dup1\n      0x01\n      dup2\n      sload\n      add\n      dup1\n      dup3\n      sstore\n      dup1\n      swap2\n      pop\n      pop\n      0x01\n      swap1\n      sub\n      swap1\n      0x00\n      mstore\n      keccak256(0x00, 0x20)\n      swap1\n      0x08\n      mul\n      add\n      0x00\n      swap1\n      swap2\n      swap1\n      swap2\n      swap1\n      swap2\n      pop\n      0x00\n      dup3\n      add\n      mload\n      dup2\n      0x00\n      add\n      exp(0x0100, 0x00)\n      dup2\n      sload\n      dup2\n      0xffffffffffffffffffffffffffffffffffffffff\n      mul\n      not\n      and\n      swap1\n      dup4\n      0xffffffffffffffffffffffffffffffffffffffff\n      and\n      mul\n      or\n      swap1\n      sstore\n      pop\n      0x20\n      dup3\n      add\n      mload\n      dup2\n      0x01\n      add\n      sstore\n      0x40\n      dup3\n      add\n      mload\n      dup2\n      0x02\n      add\n      sstore\n      0x60\n      dup3\n      add\n      mload\n      dup2\n      0x03\n      add\n      sstore\n      0x80\n      dup3\n      add\n      mload\n      dup2\n      0x04\n      add\n      sstore\n      0xa0\n      dup3\n      add\n      mload\n      dup2\n      0x05\n      add\n      sstore\n      0xc0\n      dup3\n      add\n      mload\n      dup2\n      0x06\n      add\n      swap1\n      dup1\n      mload\n      swap1\n      0x20\n      add\n      swap1\n      tag_53\n      swap3\n      swap2\n      swap1\n      tag_54\n      jump\t// in\n    tag_53:\n      pop\n      0xe0\n      dup3\n      add\n      mload\n      dup2\n      0x07\n      add\n      exp(0x0100, 0x00)\n      dup2\n      sload\n      dup2\n      0xff\n      mul\n      not\n      and\n      swap1\n      dup4\n      iszero\n      iszero\n      mul\n      or\n      swap1\n      sstore\n      pop\n      pop\n      pop\n        /* \"coin.sol\":1330:1396  AuctionCreated(auctions.length-1, _item, _startingPrice, duration) */\n      0x5bf34ed94988e5dcdc7d1faaa54eb1d3b55f45d5f11457e235afb21a8ebbe73c\n        /* \"coin.sol\":1361:1362  1 */\n      0x01\n        /* \"coin.sol\":1345:1353  auctions */\n      dup1\n        /* \"coin.sol\":1345:1360  auctions.length */\n      dup1\n      sload\n      swap1\n      pop\n        /* \"coin.sol\":1345:1362  auctions.length-1 */\n      tag_55\n      swap2\n      swap1\n      tag_56\n      jump\t// in\n    tag_55:\n        /* \"coin.sol\":1364:1369  _item */\n      dup7\n      dup7\n        /* \"coin.sol\":1371:1385  _startingPrice */\n      dup11\n        /* \"coin.sol\":1387:1395  duration */\n      dup7\n        /* \"coin.sol\":1330:1396  AuctionCreated(auctions.length-1, _item, _startingPrice, duration) */\n      mload(0x40)\n      tag_57\n      swap6\n      swap5\n      swap4\n      swap3\n      swap2\n      swap1\n      tag_58\n      jump\t// in\n    tag_57:\n      mload(0x40)\n      dup1\n      swap2\n      sub\n      swap1\n      log1\n        /* \"coin.sol\":630:1406  function createAuction(uint _startingPrice, uint _discountRate, string calldata _item, uint _duration) external {\r... */\n      pop\n      pop\n      pop\n      pop\n      pop\n      pop\n      pop\n      jump\t// out\n    tag_54:\n      dup3\n      dup1\n      sload\n      tag_59\n      swap1\n      tag_30\n      jump\t// in\n    tag_59:\n      swap1\n      0x00\n      mstore\n      keccak256(0x00, 0x20)\n      swap1\n      0x1f\n      add\n      0x20\n      swap1\n      div\n      dup2\n      add\n      swap3\n      dup3\n      tag_61\n      jumpi\n      0x00\n      dup6\n      sstore\n      jump(tag_60)\n    tag_61:\n      dup3\n      0x1f\n      lt\n      tag_62\n      jumpi\n      dup1\n      mload\n      not(0xff)\n      and\n      dup4\n      dup1\n      add\n      or\n      dup6\n      sstore\n      jump(tag_60)\n    tag_62:\n      dup3\n      dup1\n      add\n      0x01\n      add\n      dup6\n      sstore\n      dup3\n      iszero\n      tag_60\n      jumpi\n      swap2\n      dup3\n      add\n    tag_63:\n      dup3\n      dup2\n      gt\n      iszero\n      tag_64\n      jumpi\n      dup3\n      mload\n      dup3\n      sstore\n      swap2\n      0x20\n      add\n      swap2\n      swap1\n      0x01\n      add\n      swap1\n      jump(tag_63)\n    tag_64:\n    tag_60:\n      pop\n      swap1\n      pop\n      tag_65\n      swap2\n      swap1\n      tag_66\n      jump\t// in\n    tag_65:\n      pop\n      swap1\n      jump\t// out\n    tag_66:\n    tag_67:\n      dup1\n      dup3\n      gt\n      iszero\n      tag_68\n      jumpi\n      0x00\n      dup2\n      0x00\n      swap1\n      sstore\n      pop\n      0x01\n      add\n      jump(tag_67)\n    tag_68:\n      pop\n      swap1\n      jump\t// out\n        /* \"#utility.yul\":21:373   */\n    tag_70:\n      0x00\n      dup1\n        /* \"#utility.yul\":139:142   */\n      dup4\n        /* \"#utility.yul\":132:136   */\n      0x1f\n        /* \"#utility.yul\":124:130   */\n      dup5\n        /* \"#utility.yul\":120:137   */\n      add\n        /* \"#utility.yul\":116:143   */\n      slt\n        /* \"#utility.yul\":106:108   */\n      tag_72\n      jumpi\n        /* \"#utility.yul\":157:158   */\n      0x00\n        /* \"#utility.yul\":154:155   */\n      dup1\n        /* \"#utility.yul\":147:159   */\n      revert\n        /* \"#utility.yul\":106:108   */\n    tag_72:\n        /* \"#utility.yul\":193:199   */\n      dup3\n        /* \"#utility.yul\":180:200   */\n      calldataload\n        /* \"#utility.yul\":170:200   */\n      swap1\n      pop\n        /* \"#utility.yul\":223:241   */\n      0xffffffffffffffff\n        /* \"#utility.yul\":215:221   */\n      dup2\n        /* \"#utility.yul\":212:242   */\n      gt\n        /* \"#utility.yul\":209:211   */\n      iszero\n      tag_73\n      jumpi\n        /* \"#utility.yul\":255:256   */\n      0x00\n        /* \"#utility.yul\":252:253   */\n      dup1\n        /* \"#utility.yul\":245:257   */\n      revert\n        /* \"#utility.yul\":209:211   */\n    tag_73:\n        /* \"#utility.yul\":292:296   */\n      0x20\n        /* \"#utility.yul\":284:290   */\n      dup4\n        /* \"#utility.yul\":280:297   */\n      add\n        /* \"#utility.yul\":268:297   */\n      swap2\n      pop\n        /* \"#utility.yul\":346:349   */\n      dup4\n        /* \"#utility.yul\":338:342   */\n      0x01\n        /* \"#utility.yul\":330:336   */\n      dup3\n        /* \"#utility.yul\":326:343   */\n      mul\n        /* \"#utility.yul\":316:324   */\n      dup4\n        /* \"#utility.yul\":312:344   */\n      add\n        /* \"#utility.yul\":309:350   */\n      gt\n        /* \"#utility.yul\":306:308   */\n      iszero\n      tag_74\n      jumpi\n        /* \"#utility.yul\":363:364   */\n      0x00\n        /* \"#utility.yul\":360:361   */\n      dup1\n        /* \"#utility.yul\":353:365   */\n      revert\n        /* \"#utility.yul\":306:308   */\n    tag_74:\n        /* \"#utility.yul\":96:373   */\n      swap3\n      pop\n      swap3\n      swap1\n      pop\n      jump\t// out\n        /* \"#utility.yul\":379:518   */\n    tag_75:\n      0x00\n        /* \"#utility.yul\":463:469   */\n      dup2\n        /* \"#utility.yul\":450:470   */\n      calldataload\n        /* \"#utility.yul\":441:470   */\n      swap1\n      pop\n        /* \"#utility.yul\":479:512   */\n      tag_77\n        /* \"#utility.yul\":506:511   */\n      dup2\n        /* \"#utility.yul\":479:512   */\n      tag_78\n      jump\t// in\n    tag_77:\n        /* \"#utility.yul\":431:518   */\n      swap3\n      swap2\n      pop\n      pop\n      jump\t// out\n        /* \"#utility.yul\":524:786   */\n    tag_9:\n      0x00\n        /* \"#utility.yul\":632:634   */\n      0x20\n        /* \"#utility.yul\":620:629   */\n      dup3\n        /* \"#utility.yul\":611:618   */\n      dup5\n        /* \"#utility.yul\":607:630   */\n      sub\n        /* \"#utility.yul\":603:635   */\n      slt\n        /* \"#utility.yul\":600:602   */\n      iszero\n      tag_80\n      jumpi\n        /* \"#utility.yul\":648:649   */\n      0x00\n        /* \"#utility.yul\":645:646   */\n      dup1\n        /* \"#utility.yul\":638:650   */\n      revert\n        /* \"#utility.yul\":600:602   */\n    tag_80:\n        /* \"#utility.yul\":691:692   */\n      0x00\n        /* \"#utility.yul\":716:769   */\n      tag_81\n        /* \"#utility.yul\":761:768   */\n      dup5\n        /* \"#utility.yul\":752:758   */\n      dup3\n        /* \"#utility.yul\":741:750   */\n      dup6\n        /* \"#utility.yul\":737:759   */\n      add\n        /* \"#utility.yul\":716:769   */\n      tag_75\n      jump\t// in\n    tag_81:\n        /* \"#utility.yul\":706:769   */\n      swap2\n      pop\n        /* \"#utility.yul\":662:779   */\n      pop\n        /* \"#utility.yul\":590:786   */\n      swap3\n      swap2\n      pop\n      pop\n      jump\t// out\n        /* \"#utility.yul\":792:1623   */\n    tag_24:\n      0x00\n      dup1\n      0x00\n      dup1\n      0x00\n        /* \"#utility.yul\":971:974   */\n      0x80\n        /* \"#utility.yul\":959:968   */\n      dup7\n        /* \"#utility.yul\":950:957   */\n      dup9\n        /* \"#utility.yul\":946:969   */\n      sub\n        /* \"#utility.yul\":942:975   */\n      slt\n        /* \"#utility.yul\":939:941   */\n      iszero\n      tag_83\n      jumpi\n        /* \"#utility.yul\":988:989   */\n      0x00\n        /* \"#utility.yul\":985:986   */\n      dup1\n        /* \"#utility.yul\":978:990   */\n      revert\n        /* \"#utility.yul\":939:941   */\n    tag_83:\n        /* \"#utility.yul\":1031:1032   */\n      0x00\n        /* \"#utility.yul\":1056:1109   */\n      tag_84\n        /* \"#utility.yul\":1101:1108   */\n      dup9\n        /* \"#utility.yul\":1092:1098   */\n      dup3\n        /* \"#utility.yul\":1081:1090   */\n      dup10\n        /* \"#utility.yul\":1077:1099   */\n      add\n        /* \"#utility.yul\":1056:1109   */\n      tag_75\n      jump\t// in\n    tag_84:\n        /* \"#utility.yul\":1046:1109   */\n      swap6\n      pop\n        /* \"#utility.yul\":1002:1119   */\n      pop\n        /* \"#utility.yul\":1158:1160   */\n      0x20\n        /* \"#utility.yul\":1184:1237   */\n      tag_85\n        /* \"#utility.yul\":1229:1236   */\n      dup9\n        /* \"#utility.yul\":1220:1226   */\n      dup3\n        /* \"#utility.yul\":1209:1218   */\n      dup10\n        /* \"#utility.yul\":1205:1227   */\n      add\n        /* \"#utility.yul\":1184:1237   */\n      tag_75\n      jump\t// in\n    tag_85:\n        /* \"#utility.yul\":1174:1237   */\n      swap5\n      pop\n        /* \"#utility.yul\":1129:1247   */\n      pop\n        /* \"#utility.yul\":1314:1316   */\n      0x40\n        /* \"#utility.yul\":1303:1312   */\n      dup7\n        /* \"#utility.yul\":1299:1317   */\n      add\n        /* \"#utility.yul\":1286:1318   */\n      calldataload\n        /* \"#utility.yul\":1345:1363   */\n      0xffffffffffffffff\n        /* \"#utility.yul\":1337:1343   */\n      dup2\n        /* \"#utility.yul\":1334:1364   */\n      gt\n        /* \"#utility.yul\":1331:1333   */\n      iszero\n      tag_86\n      jumpi\n        /* \"#utility.yul\":1377:1378   */\n      0x00\n        /* \"#utility.yul\":1374:1375   */\n      dup1\n        /* \"#utility.yul\":1367:1379   */\n      revert\n        /* \"#utility.yul\":1331:1333   */\n    tag_86:\n        /* \"#utility.yul\":1413:1478   */\n      tag_87\n        /* \"#utility.yul\":1470:1477   */\n      dup9\n        /* \"#utility.yul\":1461:1467   */\n      dup3\n        /* \"#utility.yul\":1450:1459   */\n      dup10\n        /* \"#utility.yul\":1446:1468   */\n      add\n        /* \"#utility.yul\":1413:1478   */\n      tag_70\n      jump\t// in\n    tag_87:\n        /* \"#utility.yul\":1395:1478   */\n      swap4\n      pop\n      swap4\n      pop\n        /* \"#utility.yul\":1257:1488   */\n      pop\n        /* \"#utility.yul\":1527:1529   */\n      0x60\n        /* \"#utility.yul\":1553:1606   */\n      tag_88\n        /* \"#utility.yul\":1598:1605   */\n      dup9\n        /* \"#utility.yul\":1589:1595   */\n      dup3\n        /* \"#utility.yul\":1578:1587   */\n      dup10\n        /* \"#utility.yul\":1574:1596   */\n      add\n        /* \"#utility.yul\":1553:1606   */\n      tag_75\n      jump\t// in\n    tag_88:\n        /* \"#utility.yul\":1543:1606   */\n      swap2\n      pop\n        /* \"#utility.yul\":1498:1616   */\n      pop\n        /* \"#utility.yul\":929:1623   */\n      swap3\n      swap6\n      pop\n      swap3\n      swap6\n      swap1\n      swap4\n      pop\n      jump\t// out\n        /* \"#utility.yul\":1629:1771   */\n    tag_89:\n        /* \"#utility.yul\":1732:1764   */\n      tag_91\n        /* \"#utility.yul\":1758:1763   */\n      dup2\n        /* \"#utility.yul\":1732:1764   */\n      tag_92\n      jump\t// in\n    tag_91:\n        /* \"#utility.yul\":1727:1730   */\n      dup3\n        /* \"#utility.yul\":1720:1765   */\n      mstore\n        /* \"#utility.yul\":1710:1771   */\n      pop\n      pop\n      jump\t// out\n        /* \"#utility.yul\":1777:1895   */\n    tag_93:\n        /* \"#utility.yul\":1864:1888   */\n      tag_95\n        /* \"#utility.yul\":1882:1887   */\n      dup2\n        /* \"#utility.yul\":1864:1888   */\n      tag_96\n      jump\t// in\n    tag_95:\n        /* \"#utility.yul\":1859:1862   */\n      dup3\n        /* \"#utility.yul\":1852:1889   */\n      mstore\n        /* \"#utility.yul\":1842:1895   */\n      pop\n      pop\n      jump\t// out\n        /* \"#utility.yul\":1901:2010   */\n    tag_97:\n        /* \"#utility.yul\":1982:2003   */\n      tag_99\n        /* \"#utility.yul\":1997:2002   */\n      dup2\n        /* \"#utility.yul\":1982:2003   */\n      tag_100\n      jump\t// in\n    tag_99:\n        /* \"#utility.yul\":1977:1980   */\n      dup3\n        /* \"#utility.yul\":1970:2004   */\n      mstore\n        /* \"#utility.yul\":1960:2010   */\n      pop\n      pop\n      jump\t// out\n        /* \"#utility.yul\":2040:2344   */\n    tag_101:\n      0x00\n        /* \"#utility.yul\":2159:2230   */\n      tag_103\n        /* \"#utility.yul\":2223:2229   */\n      dup4\n        /* \"#utility.yul\":2218:2221   */\n      dup6\n        /* \"#utility.yul\":2159:2230   */\n      tag_104\n      jump\t// in\n    tag_103:\n        /* \"#utility.yul\":2152:2230   */\n      swap4\n      pop\n        /* \"#utility.yul\":2240:2283   */\n      tag_105\n        /* \"#utility.yul\":2276:2282   */\n      dup4\n        /* \"#utility.yul\":2271:2274   */\n      dup6\n        /* \"#utility.yul\":2264:2269   */\n      dup5\n        /* \"#utility.yul\":2240:2283   */\n      tag_106\n      jump\t// in\n    tag_105:\n        /* \"#utility.yul\":2308:2337   */\n      tag_107\n        /* \"#utility.yul\":2330:2336   */\n      dup4\n        /* \"#utility.yul\":2308:2337   */\n      tag_108\n      jump\t// in\n    tag_107:\n        /* \"#utility.yul\":2303:2306   */\n      dup5\n        /* \"#utility.yul\":2299:2338   */\n      add\n        /* \"#utility.yul\":2292:2338   */\n      swap1\n      pop\n        /* \"#utility.yul\":2142:2344   */\n      swap4\n      swap3\n      pop\n      pop\n      pop\n      jump\t// out\n        /* \"#utility.yul\":2350:2714   */\n    tag_109:\n      0x00\n        /* \"#utility.yul\":2466:2505   */\n      tag_111\n        /* \"#utility.yul\":2499:2504   */\n      dup3\n        /* \"#utility.yul\":2466:2505   */\n      tag_112\n      jump\t// in\n    tag_111:\n        /* \"#utility.yul\":2521:2592   */\n      tag_113\n        /* \"#utility.yul\":2585:2591   */\n      dup2\n        /* \"#utility.yul\":2580:2583   */\n      dup6\n        /* \"#utility.yul\":2521:2592   */\n      tag_104\n      jump\t// in\n    tag_113:\n        /* \"#utility.yul\":2514:2592   */\n      swap4\n      pop\n        /* \"#utility.yul\":2601:2653   */\n      tag_114\n        /* \"#utility.yul\":2646:2652   */\n      dup2\n        /* \"#utility.yul\":2641:2644   */\n      dup6\n        /* \"#utility.yul\":2634:2638   */\n      0x20\n        /* \"#utility.yul\":2627:2632   */\n      dup7\n        /* \"#utility.yul\":2623:2639   */\n      add\n        /* \"#utility.yul\":2601:2653   */\n      tag_115\n      jump\t// in\n    tag_114:\n        /* \"#utility.yul\":2678:2707   */\n      tag_116\n        /* \"#utility.yul\":2700:2706   */\n      dup2\n        /* \"#utility.yul\":2678:2707   */\n      tag_108\n      jump\t// in\n    tag_116:\n        /* \"#utility.yul\":2673:2676   */\n      dup5\n        /* \"#utility.yul\":2669:2708   */\n      add\n        /* \"#utility.yul\":2662:2708   */\n      swap2\n      pop\n        /* \"#utility.yul\":2442:2714   */\n      pop\n      swap3\n      swap2\n      pop\n      pop\n      jump\t// out\n        /* \"#utility.yul\":2720:3042   */\n    tag_117:\n      0x00\n        /* \"#utility.yul\":2883:2950   */\n      tag_119\n        /* \"#utility.yul\":2947:2949   */\n      0x18\n        /* \"#utility.yul\":2942:2945   */\n      dup4\n        /* \"#utility.yul\":2883:2950   */\n      tag_104\n      jump\t// in\n    tag_119:\n        /* \"#utility.yul\":2876:2950   */\n      swap2\n      pop\n        /* \"#utility.yul\":2980:3006   */\n      0x696e636f7272656374207374617274696e672070726963650000000000000000\n        /* \"#utility.yul\":2976:2977   */\n      0x00\n        /* \"#utility.yul\":2971:2974   */\n      dup4\n        /* \"#utility.yul\":2967:2978   */\n      add\n        /* \"#utility.yul\":2960:3007   */\n      mstore\n        /* \"#utility.yul\":3033:3035   */\n      0x20\n        /* \"#utility.yul\":3028:3031   */\n      dup3\n        /* \"#utility.yul\":3024:3036   */\n      add\n        /* \"#utility.yul\":3017:3036   */\n      swap1\n      pop\n        /* \"#utility.yul\":2866:3042   */\n      swap2\n      swap1\n      pop\n      jump\t// out\n        /* \"#utility.yul\":3048:3166   */\n    tag_120:\n        /* \"#utility.yul\":3135:3159   */\n      tag_122\n        /* \"#utility.yul\":3153:3158   */\n      dup2\n        /* \"#utility.yul\":3135:3159   */\n      tag_123\n      jump\t// in\n    tag_122:\n        /* \"#utility.yul\":3130:3133   */\n      dup3\n        /* \"#utility.yul\":3123:3160   */\n      mstore\n        /* \"#utility.yul\":3113:3166   */\n      pop\n      pop\n      jump\t// out\n        /* \"#utility.yul\":3172:3394   */\n    tag_21:\n      0x00\n        /* \"#utility.yul\":3303:3305   */\n      0x20\n        /* \"#utility.yul\":3292:3301   */\n      dup3\n        /* \"#utility.yul\":3288:3306   */\n      add\n        /* \"#utility.yul\":3280:3306   */\n      swap1\n      pop\n        /* \"#utility.yul\":3316:3387   */\n      tag_125\n        /* \"#utility.yul\":3384:3385   */\n      0x00\n        /* \"#utility.yul\":3373:3382   */\n      dup4\n        /* \"#utility.yul\":3369:3386   */\n      add\n        /* \"#utility.yul\":3360:3366   */\n      dup5\n        /* \"#utility.yul\":3316:3387   */\n      tag_93\n      jump\t// in\n    tag_125:\n        /* \"#utility.yul\":3270:3394   */\n      swap3\n      swap2\n      pop\n      pop\n      jump\t// out\n        /* \"#utility.yul\":3400:4508   */\n    tag_17:\n      0x00\n        /* \"#utility.yul\":3757:3760   */\n      0x0100\n        /* \"#utility.yul\":3746:3755   */\n      dup3\n        /* \"#utility.yul\":3742:3761   */\n      add\n        /* \"#utility.yul\":3734:3761   */\n      swap1\n      pop\n        /* \"#utility.yul\":3771:3858   */\n      tag_127\n        /* \"#utility.yul\":3855:3856   */\n      0x00\n        /* \"#utility.yul\":3844:3853   */\n      dup4\n        /* \"#utility.yul\":3840:3857   */\n      add\n        /* \"#utility.yul\":3831:3837   */\n      dup12\n        /* \"#utility.yul\":3771:3858   */\n      tag_89\n      jump\t// in\n    tag_127:\n        /* \"#utility.yul\":3868:3940   */\n      tag_128\n        /* \"#utility.yul\":3936:3938   */\n      0x20\n        /* \"#utility.yul\":3925:3934   */\n      dup4\n        /* \"#utility.yul\":3921:3939   */\n      add\n        /* \"#utility.yul\":3912:3918   */\n      dup11\n        /* \"#utility.yul\":3868:3940   */\n      tag_120\n      jump\t// in\n    tag_128:\n        /* \"#utility.yul\":3950:4022   */\n      tag_129\n        /* \"#utility.yul\":4018:4020   */\n      0x40\n        /* \"#utility.yul\":4007:4016   */\n      dup4\n        /* \"#utility.yul\":4003:4021   */\n      add\n        /* \"#utility.yul\":3994:4000   */\n      dup10\n        /* \"#utility.yul\":3950:4022   */\n      tag_120\n      jump\t// in\n    tag_129:\n        /* \"#utility.yul\":4032:4104   */\n      tag_130\n        /* \"#utility.yul\":4100:4102   */\n      0x60\n        /* \"#utility.yul\":4089:4098   */\n      dup4\n        /* \"#utility.yul\":4085:4103   */\n      add\n        /* \"#utility.yul\":4076:4082   */\n      dup9\n        /* \"#utility.yul\":4032:4104   */\n      tag_120\n      jump\t// in\n    tag_130:\n        /* \"#utility.yul\":4114:4187   */\n      tag_131\n        /* \"#utility.yul\":4182:4185   */\n      0x80\n        /* \"#utility.yul\":4171:4180   */\n      dup4\n        /* \"#utility.yul\":4167:4186   */\n      add\n        /* \"#utility.yul\":4158:4164   */\n      dup8\n        /* \"#utility.yul\":4114:4187   */\n      tag_120\n      jump\t// in\n    tag_131:\n        /* \"#utility.yul\":4197:4270   */\n      tag_132\n        /* \"#utility.yul\":4265:4268   */\n      0xa0\n        /* \"#utility.yul\":4254:4263   */\n      dup4\n        /* \"#utility.yul\":4250:4269   */\n      add\n        /* \"#utility.yul\":4241:4247   */\n      dup7\n        /* \"#utility.yul\":4197:4270   */\n      tag_120\n      jump\t// in\n    tag_132:\n        /* \"#utility.yul\":4318:4327   */\n      dup2\n        /* \"#utility.yul\":4312:4316   */\n      dup2\n        /* \"#utility.yul\":4308:4328   */\n      sub\n        /* \"#utility.yul\":4302:4305   */\n      0xc0\n        /* \"#utility.yul\":4291:4300   */\n      dup4\n        /* \"#utility.yul\":4287:4306   */\n      add\n        /* \"#utility.yul\":4280:4329   */\n      mstore\n        /* \"#utility.yul\":4346:4424   */\n      tag_133\n        /* \"#utility.yul\":4419:4423   */\n      dup2\n        /* \"#utility.yul\":4410:4416   */\n      dup6\n        /* \"#utility.yul\":4346:4424   */\n      tag_109\n      jump\t// in\n    tag_133:\n        /* \"#utility.yul\":4338:4424   */\n      swap1\n      pop\n        /* \"#utility.yul\":4434:4501   */\n      tag_134\n        /* \"#utility.yul\":4496:4499   */\n      0xe0\n        /* \"#utility.yul\":4485:4494   */\n      dup4\n        /* \"#utility.yul\":4481:4500   */\n      add\n        /* \"#utility.yul\":4472:4478   */\n      dup5\n        /* \"#utility.yul\":4434:4501   */\n      tag_97\n      jump\t// in\n    tag_134:\n        /* \"#utility.yul\":3724:4508   */\n      swap10\n      swap9\n      pop\n      pop\n      pop\n      pop\n      pop\n      pop\n      pop\n      pop\n      pop\n      jump\t// out\n        /* \"#utility.yul\":4514:4933   */\n    tag_49:\n      0x00\n        /* \"#utility.yul\":4718:4720   */\n      0x20\n        /* \"#utility.yul\":4707:4716   */\n      dup3\n        /* \"#utility.yul\":4703:4721   */\n      add\n        /* \"#utility.yul\":4695:4721   */\n      swap1\n      pop\n        /* \"#utility.yul\":4767:4776   */\n      dup2\n        /* \"#utility.yul\":4761:4765   */\n      dup2\n        /* \"#utility.yul\":4757:4777   */\n      sub\n        /* \"#utility.yul\":4753:4754   */\n      0x00\n        /* \"#utility.yul\":4742:4751   */\n      dup4\n        /* \"#utility.yul\":4738:4755   */\n      add\n        /* \"#utility.yul\":4731:4778   */\n      mstore\n        /* \"#utility.yul\":4795:4926   */\n      tag_136\n        /* \"#utility.yul\":4921:4925   */\n      dup2\n        /* \"#utility.yul\":4795:4926   */\n      tag_117\n      jump\t// in\n    tag_136:\n        /* \"#utility.yul\":4787:4926   */\n      swap1\n      pop\n        /* \"#utility.yul\":4685:4933   */\n      swap2\n      swap1\n      pop\n      jump\t// out\n        /* \"#utility.yul\":4939:5161   */\n    tag_12:\n      0x00\n        /* \"#utility.yul\":5070:5072   */\n      0x20\n        /* \"#utility.yul\":5059:5068   */\n      dup3\n        /* \"#utility.yul\":5055:5073   */\n      add\n        /* \"#utility.yul\":5047:5073   */\n      swap1\n      pop\n        /* \"#utility.yul\":5083:5154   */\n      tag_138\n        /* \"#utility.yul\":5151:5152   */\n      0x00\n        /* \"#utility.yul\":5140:5149   */\n      dup4\n        /* \"#utility.yul\":5136:5153   */\n      add\n        /* \"#utility.yul\":5127:5133   */\n      dup5\n        /* \"#utility.yul\":5083:5154   */\n      tag_120\n      jump\t// in\n    tag_138:\n        /* \"#utility.yul\":5037:5161   */\n      swap3\n      swap2\n      pop\n      pop\n      jump\t// out\n        /* \"#utility.yul\":5167:5831   */\n    tag_58:\n      0x00\n        /* \"#utility.yul\":5412:5415   */\n      0x80\n        /* \"#utility.yul\":5401:5410   */\n      dup3\n        /* \"#utility.yul\":5397:5416   */\n      add\n        /* \"#utility.yul\":5389:5416   */\n      swap1\n      pop\n        /* \"#utility.yul\":5426:5497   */\n      tag_140\n        /* \"#utility.yul\":5494:5495   */\n      0x00\n        /* \"#utility.yul\":5483:5492   */\n      dup4\n        /* \"#utility.yul\":5479:5496   */\n      add\n        /* \"#utility.yul\":5470:5476   */\n      dup9\n        /* \"#utility.yul\":5426:5497   */\n      tag_120\n      jump\t// in\n    tag_140:\n        /* \"#utility.yul\":5544:5553   */\n      dup2\n        /* \"#utility.yul\":5538:5542   */\n      dup2\n        /* \"#utility.yul\":5534:5554   */\n      sub\n        /* \"#utility.yul\":5529:5531   */\n      0x20\n        /* \"#utility.yul\":5518:5527   */\n      dup4\n        /* \"#utility.yul\":5514:5532   */\n      add\n        /* \"#utility.yul\":5507:5555   */\n      mstore\n        /* \"#utility.yul\":5572:5660   */\n      tag_141\n        /* \"#utility.yul\":5655:5659   */\n      dup2\n        /* \"#utility.yul\":5646:5652   */\n      dup7\n        /* \"#utility.yul\":5638:5644   */\n      dup9\n        /* \"#utility.yul\":5572:5660   */\n      tag_101\n      jump\t// in\n    tag_141:\n        /* \"#utility.yul\":5564:5660   */\n      swap1\n      pop\n        /* \"#utility.yul\":5670:5742   */\n      tag_142\n        /* \"#utility.yul\":5738:5740   */\n      0x40\n        /* \"#utility.yul\":5727:5736   */\n      dup4\n        /* \"#utility.yul\":5723:5741   */\n      add\n        /* \"#utility.yul\":5714:5720   */\n      dup6\n        /* \"#utility.yul\":5670:5742   */\n      tag_120\n      jump\t// in\n    tag_142:\n        /* \"#utility.yul\":5752:5824   */\n      tag_143\n        /* \"#utility.yul\":5820:5822   */\n      0x60\n        /* \"#utility.yul\":5809:5818   */\n      dup4\n        /* \"#utility.yul\":5805:5823   */\n      add\n        /* \"#utility.yul\":5796:5802   */\n      dup5\n        /* \"#utility.yul\":5752:5824   */\n      tag_120\n      jump\t// in\n    tag_143:\n        /* \"#utility.yul\":5379:5831   */\n      swap7\n      swap6\n      pop\n      pop\n      pop\n      pop\n      pop\n      pop\n      jump\t// out\n        /* \"#utility.yul\":5837:5936   */\n    tag_112:\n      0x00\n        /* \"#utility.yul\":5923:5928   */\n      dup2\n        /* \"#utility.yul\":5917:5929   */\n      mload\n        /* \"#utility.yul\":5907:5929   */\n      swap1\n      pop\n        /* \"#utility.yul\":5896:5936   */\n      swap2\n      swap1\n      pop\n      jump\t// out\n        /* \"#utility.yul\":5942:6111   */\n    tag_104:\n      0x00\n        /* \"#utility.yul\":6060:6066   */\n      dup3\n        /* \"#utility.yul\":6055:6058   */\n      dup3\n        /* \"#utility.yul\":6048:6067   */\n      mstore\n        /* \"#utility.yul\":6100:6104   */\n      0x20\n        /* \"#utility.yul\":6095:6098   */\n      dup3\n        /* \"#utility.yul\":6091:6105   */\n      add\n        /* \"#utility.yul\":6076:6105   */\n      swap1\n      pop\n        /* \"#utility.yul\":6038:6111   */\n      swap3\n      swap2\n      pop\n      pop\n      jump\t// out\n        /* \"#utility.yul\":6117:6422   */\n    tag_51:\n      0x00\n        /* \"#utility.yul\":6176:6196   */\n      tag_147\n        /* \"#utility.yul\":6194:6195   */\n      dup3\n        /* \"#utility.yul\":6176:6196   */\n      tag_123\n      jump\t// in\n    tag_147:\n        /* \"#utility.yul\":6171:6196   */\n      swap2\n      pop\n        /* \"#utility.yul\":6210:6230   */\n      tag_148\n        /* \"#utility.yul\":6228:6229   */\n      dup4\n        /* \"#utility.yul\":6210:6230   */\n      tag_123\n      jump\t// in\n    tag_148:\n        /* \"#utility.yul\":6205:6230   */\n      swap3\n      pop\n        /* \"#utility.yul\":6364:6365   */\n      dup3\n        /* \"#utility.yul\":6296:6362   */\n      0xffffffffffffffffffffffffffffffffffffffffffffffffffffffffffffffff\n        /* \"#utility.yul\":6292:6366   */\n      sub\n        /* \"#utility.yul\":6289:6290   */\n      dup3\n        /* \"#utility.yul\":6286:6367   */\n      gt\n        /* \"#utility.yul\":6283:6285   */\n      iszero\n      tag_149\n      jumpi\n        /* \"#utility.yul\":6370:6388   */\n      tag_150\n      tag_151\n      jump\t// in\n    tag_150:\n        /* \"#utility.yul\":6283:6285   */\n    tag_149:\n        /* \"#utility.yul\":6414:6415   */\n      dup3\n        /* \"#utility.yul\":6411:6412   */\n      dup3\n        /* \"#utility.yul\":6407:6416   */\n      add\n        /* \"#utility.yul\":6400:6416   */\n      swap1\n      pop\n        /* \"#utility.yul\":6161:6422   */\n      swap3\n      swap2\n      pop\n      pop\n      jump\t// out\n        /* \"#utility.yul\":6428:6776   */\n    tag_46:\n      0x00\n        /* \"#utility.yul\":6491:6511   */\n      tag_153\n        /* \"#utility.yul\":6509:6510   */\n      dup3\n        /* \"#utility.yul\":6491:6511   */\n      tag_123\n      jump\t// in\n    tag_153:\n        /* \"#utility.yul\":6486:6511   */\n      swap2\n      pop\n        /* \"#utility.yul\":6525:6545   */\n      tag_154\n        /* \"#utility.yul\":6543:6544   */\n      dup4\n        /* \"#utility.yul\":6525:6545   */\n      tag_123\n      jump\t// in\n    tag_154:\n        /* \"#utility.yul\":6520:6545   */\n      swap3\n      pop\n        /* \"#utility.yul\":6713:6714   */\n      dup2\n        /* \"#utility.yul\":6645:6711   */\n      0xffffffffffffffffffffffffffffffffffffffffffffffffffffffffffffffff\n        /* \"#utility.yul\":6641:6715   */\n      div\n        /* \"#utility.yul\":6638:6639   */\n      dup4\n        /* \"#utility.yul\":6635:6716   */\n      gt\n        /* \"#utility.yul\":6630:6631   */\n      dup3\n        /* \"#utility.yul\":6623:6632   */\n      iszero\n        /* \"#utility.yul\":6616:6633   */\n      iszero\n        /* \"#utility.yul\":6612:6717   */\n      and\n        /* \"#utility.yul\":6609:6611   */\n      iszero\n      tag_155\n      jumpi\n        /* \"#utility.yul\":6720:6738   */\n      tag_156\n      tag_151\n      jump\t// in\n    tag_156:\n        /* \"#utility.yul\":6609:6611   */\n    tag_155:\n        /* \"#utility.yul\":6768:6769   */\n      dup3\n        /* \"#utility.yul\":6765:6766   */\n      dup3\n        /* \"#utility.yul\":6761:6770   */\n      mul\n        /* \"#utility.yul\":6750:6770   */\n      swap1\n      pop\n        /* \"#utility.yul\":6476:6776   */\n      swap3\n      swap2\n      pop\n      pop\n      jump\t// out\n        /* \"#utility.yul\":6782:6973   */\n    tag_56:\n      0x00\n        /* \"#utility.yul\":6842:6862   */\n      tag_158\n        /* \"#utility.yul\":6860:6861   */\n      dup3\n        /* \"#utility.yul\":6842:6862   */\n      tag_123\n      jump\t// in\n    tag_158:\n        /* \"#utility.yul\":6837:6862   */\n      swap2\n      pop\n        /* \"#utility.yul\":6876:6896   */\n      tag_159\n        /* \"#utility.yul\":6894:6895   */\n      dup4\n        /* \"#utility.yul\":6876:6896   */\n      tag_123\n      jump\t// in\n    tag_159:\n        /* \"#utility.yul\":6871:6896   */\n      swap3\n      pop\n        /* \"#utility.yul\":6915:6916   */\n      dup3\n        /* \"#utility.yul\":6912:6913   */\n      dup3\n        /* \"#utility.yul\":6909:6917   */\n      lt\n        /* \"#utility.yul\":6906:6908   */\n      iszero\n      tag_160\n      jumpi\n        /* \"#utility.yul\":6920:6938   */\n      tag_161\n      tag_151\n      jump\t// in\n    tag_161:\n        /* \"#utility.yul\":6906:6908   */\n    tag_160:\n        /* \"#utility.yul\":6965:6966   */\n      dup3\n        /* \"#utility.yul\":6962:6963   */\n      dup3\n        /* \"#utility.yul\":6958:6967   */\n      sub\n        /* \"#utility.yul\":6950:6967   */\n      swap1\n      pop\n        /* \"#utility.yul\":6827:6973   */\n      swap3\n      swap2\n      pop\n      pop\n      jump\t// out\n        /* \"#utility.yul\":6979:7075   */\n    tag_96:\n      0x00\n        /* \"#utility.yul\":7045:7069   */\n      tag_163\n        /* \"#utility.yul\":7063:7068   */\n      dup3\n        /* \"#utility.yul\":7045:7069   */\n      tag_164\n      jump\t// in\n    tag_163:\n        /* \"#utility.yul\":7034:7069   */\n      swap1\n      pop\n        /* \"#utility.yul\":7024:7075   */\n      swap2\n      swap1\n      pop\n      jump\t// out\n        /* \"#utility.yul\":7081:7185   */\n    tag_92:\n      0x00\n        /* \"#utility.yul\":7155:7179   */\n      tag_166\n        /* \"#utility.yul\":7173:7178   */\n      dup3\n        /* \"#utility.yul\":7155:7179   */\n      tag_164\n      jump\t// in\n    tag_166:\n        /* \"#utility.yul\":7144:7179   */\n      swap1\n      pop\n        /* \"#utility.yul\":7134:7185   */\n      swap2\n      swap1\n      pop\n      jump\t// out\n        /* \"#utility.yul\":7191:7281   */\n    tag_100:\n      0x00\n        /* \"#utility.yul\":7268:7273   */\n      dup2\n        /* \"#utility.yul\":7261:7274   */\n      iszero\n        /* \"#utility.yul\":7254:7275   */\n      iszero\n        /* \"#utility.yul\":7243:7275   */\n      swap1\n      pop\n        /* \"#utility.yul\":7233:7281   */\n      swap2\n      swap1\n      pop\n      jump\t// out\n        /* \"#utility.yul\":7287:7413   */\n    tag_164:\n      0x00\n        /* \"#utility.yul\":7364:7406   */\n      0xffffffffffffffffffffffffffffffffffffffff\n        /* \"#utility.yul\":7357:7362   */\n      dup3\n        /* \"#utility.yul\":7353:7407   */\n      and\n        /* \"#utility.yul\":7342:7407   */\n      swap1\n      pop\n        /* \"#utility.yul\":7332:7413   */\n      swap2\n      swap1\n      pop\n      jump\t// out\n        /* \"#utility.yul\":7419:7496   */\n    tag_123:\n      0x00\n        /* \"#utility.yul\":7485:7490   */\n      dup2\n        /* \"#utility.yul\":7474:7490   */\n      swap1\n      pop\n        /* \"#utility.yul\":7464:7496   */\n      swap2\n      swap1\n      pop\n      jump\t// out\n        /* \"#utility.yul\":7502:7656   */\n    tag_106:\n        /* \"#utility.yul\":7586:7592   */\n      dup3\n        /* \"#utility.yul\":7581:7584   */\n      dup2\n        /* \"#utility.yul\":7576:7579   */\n      dup4\n        /* \"#utility.yul\":7563:7593   */\n      calldatacopy\n        /* \"#utility.yul\":7648:7649   */\n      0x00\n        /* \"#utility.yul\":7639:7645   */\n      dup4\n        /* \"#utility.yul\":7634:7637   */\n      dup4\n        /* \"#utility.yul\":7630:7646   */\n      add\n        /* \"#utility.yul\":7623:7650   */\n      mstore\n        /* \"#utility.yul\":7553:7656   */\n      pop\n      pop\n      pop\n      jump\t// out\n        /* \"#utility.yul\":7662:7969   */\n    tag_115:\n        /* \"#utility.yul\":7730:7731   */\n      0x00\n        /* \"#utility.yul\":7740:7853   */\n    tag_172:\n        /* \"#utility.yul\":7754:7760   */\n      dup4\n        /* \"#utility.yul\":7751:7752   */\n      dup2\n        /* \"#utility.yul\":7748:7761   */\n      lt\n        /* \"#utility.yul\":7740:7853   */\n      iszero\n      tag_174\n      jumpi\n        /* \"#utility.yul\":7839:7840   */\n      dup1\n        /* \"#utility.yul\":7834:7837   */\n      dup3\n        /* \"#utility.yul\":7830:7841   */\n      add\n        /* \"#utility.yul\":7824:7842   */\n      mload\n        /* \"#utility.yul\":7820:7821   */\n      dup2\n        /* \"#utility.yul\":7815:7818   */\n      dup5\n        /* \"#utility.yul\":7811:7822   */\n      add\n        /* \"#utility.yul\":7804:7843   */\n      mstore\n        /* \"#utility.yul\":7776:7778   */\n      0x20\n        /* \"#utility.yul\":7773:7774   */\n      dup2\n        /* \"#utility.yul\":7769:7779   */\n      add\n        /* \"#utility.yul\":7764:7779   */\n      swap1\n      pop\n        /* \"#utility.yul\":7740:7853   */\n      jump(tag_172)\n    tag_174:\n        /* \"#utility.yul\":7871:7877   */\n      dup4\n        /* \"#utility.yul\":7868:7869   */\n      dup2\n        /* \"#utility.yul\":7865:7878   */\n      gt\n        /* \"#utility.yul\":7862:7864   */\n      iszero\n      tag_175\n      jumpi\n        /* \"#utility.yul\":7951:7952   */\n      0x00\n        /* \"#utility.yul\":7942:7948   */\n      dup5\n        /* \"#utility.yul\":7937:7940   */\n      dup5\n        /* \"#utility.yul\":7933:7949   */\n      add\n        /* \"#utility.yul\":7926:7953   */\n      mstore\n        /* \"#utility.yul\":7862:7864   */\n    tag_175:\n        /* \"#utility.yul\":7711:7969   */\n      pop\n      pop\n      pop\n      pop\n      jump\t// out\n        /* \"#utility.yul\":7975:8295   */\n    tag_30:\n      0x00\n        /* \"#utility.yul\":8056:8057   */\n      0x02\n        /* \"#utility.yul\":8050:8054   */\n      dup3\n        /* \"#utility.yul\":8046:8058   */\n      div\n        /* \"#utility.yul\":8036:8058   */\n      swap1\n      pop\n        /* \"#utility.yul\":8103:8104   */\n      0x01\n        /* \"#utility.yul\":8097:8101   */\n      dup3\n        /* \"#utility.yul\":8093:8105   */\n      and\n        /* \"#utility.yul\":8124:8142   */\n      dup1\n        /* \"#utility.yul\":8114:8116   */\n      tag_177\n      jumpi\n        /* \"#utility.yul\":8180:8184   */\n      0x7f\n        /* \"#utility.yul\":8172:8178   */\n      dup3\n        /* \"#utility.yul\":8168:8185   */\n      and\n        /* \"#utility.yul\":8158:8185   */\n      swap2\n      pop\n        /* \"#utility.yul\":8114:8116   */\n    tag_177:\n        /* \"#utility.yul\":8242:8244   */\n      0x20\n        /* \"#utility.yul\":8234:8240   */\n      dup3\n        /* \"#utility.yul\":8231:8245   */\n      lt\n        /* \"#utility.yul\":8211:8229   */\n      dup2\n        /* \"#utility.yul\":8208:8246   */\n      eq\n        /* \"#utility.yul\":8205:8207   */\n      iszero\n      tag_178\n      jumpi\n        /* \"#utility.yul\":8261:8279   */\n      tag_179\n      tag_180\n      jump\t// in\n    tag_179:\n        /* \"#utility.yul\":8205:8207   */\n    tag_178:\n        /* \"#utility.yul\":8026:8295   */\n      pop\n      swap2\n      swap1\n      pop\n      jump\t// out\n        /* \"#utility.yul\":8301:8481   */\n    tag_151:\n        /* \"#utility.yul\":8349:8426   */\n      0x4e487b7100000000000000000000000000000000000000000000000000000000\n        /* \"#utility.yul\":8346:8347   */\n      0x00\n        /* \"#utility.yul\":8339:8427   */\n      mstore\n        /* \"#utility.yul\":8446:8450   */\n      0x11\n        /* \"#utility.yul\":8443:8444   */\n      0x04\n        /* \"#utility.yul\":8436:8451   */\n      mstore\n        /* \"#utility.yul\":8470:8474   */\n      0x24\n        /* \"#utility.yul\":8467:8468   */\n      0x00\n        /* \"#utility.yul\":8460:8475   */\n      revert\n        /* \"#utility.yul\":8487:8667   */\n    tag_180:\n        /* \"#utility.yul\":8535:8612   */\n      0x4e487b7100000000000000000000000000000000000000000000000000000000\n        /* \"#utility.yul\":8532:8533   */\n      0x00\n        /* \"#utility.yul\":8525:8613   */\n      mstore\n        /* \"#utility.yul\":8632:8636   */\n      0x22\n        /* \"#utility.yul\":8629:8630   */\n      0x04\n        /* \"#utility.yul\":8622:8637   */\n      mstore\n        /* \"#utility.yul\":8656:8660   */\n      0x24\n        /* \"#utility.yul\":8653:8654   */\n      0x00\n        /* \"#utility.yul\":8646:8661   */\n      revert\n        /* \"#utility.yul\":8673:8775   */\n    tag_108:\n      0x00\n        /* \"#utility.yul\":8765:8767   */\n      0x1f\n        /* \"#utility.yul\":8761:8768   */\n      not\n        /* \"#utility.yul\":8756:8758   */\n      0x1f\n        /* \"#utility.yul\":8749:8754   */\n      dup4\n        /* \"#utility.yul\":8745:8759   */\n      add\n        /* \"#utility.yul\":8741:8769   */\n      and\n        /* \"#utility.yul\":8731:8769   */\n      swap1\n      pop\n        /* \"#utility.yul\":8721:8775   */\n      swap2\n      swap1\n      pop\n      jump\t// out\n        /* \"#utility.yul\":8781:8903   */\n    tag_78:\n        /* \"#utility.yul\":8854:8878   */\n      tag_185\n        /* \"#utility.yul\":8872:8877   */\n      dup2\n        /* \"#utility.yul\":8854:8878   */\n      tag_123\n      jump\t// in\n    tag_185:\n        /* \"#utility.yul\":8847:8852   */\n      dup2\n        /* \"#utility.yul\":8844:8879   */\n      eq\n        /* \"#utility.yul\":8834:8836   */\n      tag_186\n      jumpi\n        /* \"#utility.yul\":8893:8894   */\n      0x00\n        /* \"#utility.yul\":8890:8891   */\n      dup1\n        /* \"#utility.yul\":8883:8895   */\n      revert\n        /* \"#utility.yul\":8834:8836   */\n    tag_186:\n        /* \"#utility.yul\":8824:8903   */\n      pop\n      jump\t// out\n\n    auxdata: 0xa2646970667358221220c60f3d32dca0ad63ed52eb23a4916008df816bf33a8358cd69a1675d6e6c02bb64736f6c63430008000033\n}\n",
				"bytecode": {
					"linkReferences": {},
					"object": "608060405234801561001057600080fd5b50336000806101000a81548173ffffffffffffffffffffffffffffffffffffffff021916908373ffffffffffffffffffffffffffffffffffffffff160217905550610c3d806100606000396000f3fe608060405234801561001057600080fd5b506004361061004c5760003560e01c80634534cd9c14610051578063571a26a0146100815780638da5cb5b146100b8578063e9835d15146100d6575b600080fd5b61006b600480360381019061006691906106ff565b6100f2565b604051610078919061094a565b60405180910390f35b61009b600480360381019061009691906106ff565b610286565b6040516100af9897969594939291906108a5565b60405180910390f35b6100c0610393565b6040516100cd919061088a565b60405180910390f35b6100f060048036038101906100eb9190610728565b6103b7565b005b6000806001838154811061012f577f4e487b7100000000000000000000000000000000000000000000000000000000600052603260045260246000fd5b9060005260206000209060080201604051806101000160405290816000820160009054906101000a900473ffffffffffffffffffffffffffffffffffffffff1673ffffffffffffffffffffffffffffffffffffffff1673ffffffffffffffffffffffffffffffffffffffff16815260200160018201548152602001600282015481526020016003820154815260200160048201548152602001600582015481526020016006820180546101e190610b4f565b80601f016020809104026020016040519081016040528092919081815260200182805461020d90610b4f565b801561025a5780601f1061022f5761010080835404028352916020019161025a565b820191906000526020600020905b81548152906001019060200180831161023d57829003601f168201915b505050505081526020016007820160009054906101000a900460ff161515151581525050905050919050565b6001818154811061029657600080fd5b90600052602060002090600802016000915090508060000160009054906101000a900473ffffffffffffffffffffffffffffffffffffffff16908060010154908060020154908060030154908060040154908060050154908060060180546102fd90610b4f565b80601f016020809104026020016040519081016040528092919081815260200182805461032990610b4f565b80156103765780601f1061034b57610100808354040283529160200191610376565b820191906000526020600020905b81548152906001019060200180831161035957829003601f168201915b5050505050908060070160009054906101000a900460ff16905088565b60008054906101000a900473ffffffffffffffffffffffffffffffffffffffff1681565b60008082146103c657816103cb565b6202a3005b905080856103d99190610a25565b86101561041b576040517f08c379a00000000000000000000000000000000000000000000000000000000081526004016104129061092a565b60405180910390fd5b60006040518061010001604052803373ffffffffffffffffffffffffffffffffffffffff168152602001888152602001888152602001428152602001834261046391906109cf565b815260200187815260200186868080601f016020809104026020016040519081016040528093929190818152602001838380828437600081840152601f19601f820116905080830192505050505050508152602001600015158152509050600181908060018154018082558091505060019003906000526020600020906008020160009091909190915060008201518160000160006101000a81548173ffffffffffffffffffffffffffffffffffffffff021916908373ffffffffffffffffffffffffffffffffffffffff1602179055506020820151816001015560408201518160020155606082015181600301556080820151816004015560a0820151816005015560c08201518160060190805190602001906105829291906105fd565b5060e08201518160070160006101000a81548160ff02191690831515021790555050507f5bf34ed94988e5dcdc7d1faaa54eb1d3b55f45d5f11457e235afb21a8ebbe73c600180805490506105d79190610a7f565b86868a866040516105ec959493929190610965565b60405180910390a150505050505050565b82805461060990610b4f565b90600052602060002090601f01602090048101928261062b5760008555610672565b82601f1061064457805160ff1916838001178555610672565b82800160010185558215610672579182015b82811115610671578251825591602001919060010190610656565b5b50905061067f9190610683565b5090565b5b8082111561069c576000816000905550600101610684565b5090565b60008083601f8401126106b257600080fd5b8235905067ffffffffffffffff8111156106cb57600080fd5b6020830191508360018202830111156106e357600080fd5b9250929050565b6000813590506106f981610bf0565b92915050565b60006020828403121561071157600080fd5b600061071f848285016106ea565b91505092915050565b60008060008060006080868803121561074057600080fd5b600061074e888289016106ea565b955050602061075f888289016106ea565b945050604086013567ffffffffffffffff81111561077c57600080fd5b610788888289016106a0565b9350935050606061079b888289016106ea565b9150509295509295909350565b6107b181610ac5565b82525050565b6107c081610ab3565b82525050565b6107cf81610ad7565b82525050565b60006107e183856109be565b93506107ee838584610b0d565b6107f783610bdf565b840190509392505050565b600061080d826109b3565b61081781856109be565b9350610827818560208601610b1c565b61083081610bdf565b840191505092915050565b60006108486018836109be565b91507f696e636f7272656374207374617274696e6720707269636500000000000000006000830152602082019050919050565b61088481610b03565b82525050565b600060208201905061089f60008301846107b7565b92915050565b6000610100820190506108bb600083018b6107a8565b6108c8602083018a61087b565b6108d5604083018961087b565b6108e2606083018861087b565b6108ef608083018761087b565b6108fc60a083018661087b565b81810360c083015261090e8185610802565b905061091d60e08301846107c6565b9998505050505050505050565b600060208201905081810360008301526109438161083b565b9050919050565b600060208201905061095f600083018461087b565b92915050565b600060808201905061097a600083018861087b565b818103602083015261098d8186886107d5565b905061099c604083018561087b565b6109a9606083018461087b565b9695505050505050565b600081519050919050565b600082825260208201905092915050565b60006109da82610b03565b91506109e583610b03565b9250827fffffffffffffffffffffffffffffffffffffffffffffffffffffffffffffffff03821115610a1a57610a19610b81565b5b828201905092915050565b6000610a3082610b03565b9150610a3b83610b03565b9250817fffffffffffffffffffffffffffffffffffffffffffffffffffffffffffffffff0483118215151615610a7457610a73610b81565b5b828202905092915050565b6000610a8a82610b03565b9150610a9583610b03565b925082821015610aa857610aa7610b81565b5b828203905092915050565b6000610abe82610ae3565b9050919050565b6000610ad082610ae3565b9050919050565b60008115159050919050565b600073ffffffffffffffffffffffffffffffffffffffff82169050919050565b6000819050919050565b82818337600083830152505050565b60005b83811015610b3a578082015181840152602081019050610b1f565b83811115610b49576000848401525b50505050565b60006002820490506001821680610b6757607f821691505b60208210811415610b7b57610b7a610bb0565b5b50919050565b7f4e487b7100000000000000000000000000000000000000000000000000000000600052601160045260246000fd5b7f4e487b7100000000000000000000000000000000000000000000000000000000600052602260045260246000fd5b6000601f19601f8301169050919050565b610bf981610b03565b8114610c0457600080fd5b5056fea2646970667358221220c60f3d32dca0ad63ed52eb23a4916008df816bf33a8358cd69a1675d6e6c02bb64736f6c63430008000033",
					"opcodes": "PUSH1 0x80 PUSH1 0x40 MSTORE CALLVALUE DUP1 ISZERO PUSH2 0x10 JUMPI PUSH1 0x0 DUP1 REVERT JUMPDEST POP CALLER PUSH1 0x0 DUP1 PUSH2 0x100 EXP DUP2 SLOAD DUP2 PUSH20 0xFFFFFFFFFFFFFFFFFFFFFFFFFFFFFFFFFFFFFFFF MUL NOT AND SWAP1 DUP4 PUSH20 0xFFFFFFFFFFFFFFFFFFFFFFFFFFFFFFFFFFFFFFFF AND MUL OR SWAP1 SSTORE POP PUSH2 0xC3D DUP1 PUSH2 0x60 PUSH1 0x0 CODECOPY PUSH1 0x0 RETURN INVALID PUSH1 0x80 PUSH1 0x40 MSTORE CALLVALUE DUP1 ISZERO PUSH2 0x10 JUMPI PUSH1 0x0 DUP1 REVERT JUMPDEST POP PUSH1 0x4 CALLDATASIZE LT PUSH2 0x4C JUMPI PUSH1 0x0 CALLDATALOAD PUSH1 0xE0 SHR DUP1 PUSH4 0x4534CD9C EQ PUSH2 0x51 JUMPI DUP1 PUSH4 0x571A26A0 EQ PUSH2 0x81 JUMPI DUP1 PUSH4 0x8DA5CB5B EQ PUSH2 0xB8 JUMPI DUP1 PUSH4 0xE9835D15 EQ PUSH2 0xD6 JUMPI JUMPDEST PUSH1 0x0 DUP1 REVERT JUMPDEST PUSH2 0x6B PUSH1 0x4 DUP1 CALLDATASIZE SUB DUP2 ADD SWAP1 PUSH2 0x66 SWAP2 SWAP1 PUSH2 0x6FF JUMP JUMPDEST PUSH2 0xF2 JUMP JUMPDEST PUSH1 0x40 MLOAD PUSH2 0x78 SWAP2 SWAP1 PUSH2 0x94A JUMP JUMPDEST PUSH1 0x40 MLOAD DUP1 SWAP2 SUB SWAP1 RETURN JUMPDEST PUSH2 0x9B PUSH1 0x4 DUP1 CALLDATASIZE SUB DUP2 ADD SWAP1 PUSH2 0x96 SWAP2 SWAP1 PUSH2 0x6FF JUMP JUMPDEST PUSH2 0x286 JUMP JUMPDEST PUSH1 0x40 MLOAD PUSH2 0xAF SWAP9 SWAP8 SWAP7 SWAP6 SWAP5 SWAP4 SWAP3 SWAP2 SWAP1 PUSH2 0x8A5 JUMP JUMPDEST PUSH1 0x40 MLOAD DUP1 SWAP2 SUB SWAP1 RETURN JUMPDEST PUSH2 0xC0 PUSH2 0x393 JUMP JUMPDEST PUSH1 0x40 MLOAD PUSH2 0xCD SWAP2 SWAP1 PUSH2 0x88A JUMP JUMPDEST PUSH1 0x40 MLOAD DUP1 SWAP2 SUB SWAP1 RETURN JUMPDEST PUSH2 0xF0 PUSH1 0x4 DUP1 CALLDATASIZE SUB DUP2 ADD SWAP1 PUSH2 0xEB SWAP2 SWAP1 PUSH2 0x728 JUMP JUMPDEST PUSH2 0x3B7 JUMP JUMPDEST STOP JUMPDEST PUSH1 0x0 DUP1 PUSH1 0x1 DUP4 DUP2 SLOAD DUP2 LT PUSH2 0x12F JUMPI PUSH32 0x4E487B7100000000000000000000000000000000000000000000000000000000 PUSH1 0x0 MSTORE PUSH1 0x32 PUSH1 0x4 MSTORE PUSH1 0x24 PUSH1 0x0 REVERT JUMPDEST SWAP1 PUSH1 0x0 MSTORE PUSH1 0x20 PUSH1 0x0 KECCAK256 SWAP1 PUSH1 0x8 MUL ADD PUSH1 0x40 MLOAD DUP1 PUSH2 0x100 ADD PUSH1 0x40 MSTORE SWAP1 DUP2 PUSH1 0x0 DUP3 ADD PUSH1 0x0 SWAP1 SLOAD SWAP1 PUSH2 0x100 EXP SWAP1 DIV PUSH20 0xFFFFFFFFFFFFFFFFFFFFFFFFFFFFFFFFFFFFFFFF AND PUSH20 0xFFFFFFFFFFFFFFFFFFFFFFFFFFFFFFFFFFFFFFFF AND PUSH20 0xFFFFFFFFFFFFFFFFFFFFFFFFFFFFFFFFFFFFFFFF AND DUP2 MSTORE PUSH1 0x20 ADD PUSH1 0x1 DUP3 ADD SLOAD DUP2 MSTORE PUSH1 0x20 ADD PUSH1 0x2 DUP3 ADD SLOAD DUP2 MSTORE PUSH1 0x20 ADD PUSH1 0x3 DUP3 ADD SLOAD DUP2 MSTORE PUSH1 0x20 ADD PUSH1 0x4 DUP3 ADD SLOAD DUP2 MSTORE PUSH1 0x20 ADD PUSH1 0x5 DUP3 ADD SLOAD DUP2 MSTORE PUSH1 0x20 ADD PUSH1 0x6 DUP3 ADD DUP1 SLOAD PUSH2 0x1E1 SWAP1 PUSH2 0xB4F JUMP JUMPDEST DUP1 PUSH1 0x1F ADD PUSH1 0x20 DUP1 SWAP2 DIV MUL PUSH1 0x20 ADD PUSH1 0x40 MLOAD SWAP1 DUP2 ADD PUSH1 0x40 MSTORE DUP1 SWAP3 SWAP2 SWAP1 DUP2 DUP2 MSTORE PUSH1 0x20 ADD DUP3 DUP1 SLOAD PUSH2 0x20D SWAP1 PUSH2 0xB4F JUMP JUMPDEST DUP1 ISZERO PUSH2 0x25A JUMPI DUP1 PUSH1 0x1F LT PUSH2 0x22F JUMPI PUSH2 0x100 DUP1 DUP4 SLOAD DIV MUL DUP4 MSTORE SWAP2 PUSH1 0x20 ADD SWAP2 PUSH2 0x25A JUMP JUMPDEST DUP3 ADD SWAP2 SWAP1 PUSH1 0x0 MSTORE PUSH1 0x20 PUSH1 0x0 KECCAK256 SWAP1 JUMPDEST DUP2 SLOAD DUP2 MSTORE SWAP1 PUSH1 0x1 ADD SWAP1 PUSH1 0x20 ADD DUP1 DUP4 GT PUSH2 0x23D JUMPI DUP3 SWAP1 SUB PUSH1 0x1F AND DUP3 ADD SWAP2 JUMPDEST POP POP POP POP POP DUP2 MSTORE PUSH1 0x20 ADD PUSH1 0x7 DUP3 ADD PUSH1 0x0 SWAP1 SLOAD SWAP1 PUSH2 0x100 EXP SWAP1 DIV PUSH1 0xFF AND ISZERO ISZERO ISZERO ISZERO DUP2 MSTORE POP POP SWAP1 POP POP SWAP2 SWAP1 POP JUMP JUMPDEST PUSH1 0x1 DUP2 DUP2 SLOAD DUP2 LT PUSH2 0x296 JUMPI PUSH1 0x0 DUP1 REVERT JUMPDEST SWAP1 PUSH1 0x0 MSTORE PUSH1 0x20 PUSH1 0x0 KECCAK256 SWAP1 PUSH1 0x8 MUL ADD PUSH1 0x0 SWAP2 POP SWAP1 POP DUP1 PUSH1 0x0 ADD PUSH1 0x0 SWAP1 SLOAD SWAP1 PUSH2 0x100 EXP SWAP1 DIV PUSH20 0xFFFFFFFFFFFFFFFFFFFFFFFFFFFFFFFFFFFFFFFF AND SWAP1 DUP1 PUSH1 0x1 ADD SLOAD SWAP1 DUP1 PUSH1 0x2 ADD SLOAD SWAP1 DUP1 PUSH1 0x3 ADD SLOAD SWAP1 DUP1 PUSH1 0x4 ADD SLOAD SWAP1 DUP1 PUSH1 0x5 ADD SLOAD SWAP1 DUP1 PUSH1 0x6 ADD DUP1 SLOAD PUSH2 0x2FD SWAP1 PUSH2 0xB4F JUMP JUMPDEST DUP1 PUSH1 0x1F ADD PUSH1 0x20 DUP1 SWAP2 DIV MUL PUSH1 0x20 ADD PUSH1 0x40 MLOAD SWAP1 DUP2 ADD PUSH1 0x40 MSTORE DUP1 SWAP3 SWAP2 SWAP1 DUP2 DUP2 MSTORE PUSH1 0x20 ADD DUP3 DUP1 SLOAD PUSH2 0x329 SWAP1 PUSH2 0xB4F JUMP JUMPDEST DUP1 ISZERO PUSH2 0x376 JUMPI DUP1 PUSH1 0x1F LT PUSH2 0x34B JUMPI PUSH2 0x100 DUP1 DUP4 SLOAD DIV MUL DUP4 MSTORE SWAP2 PUSH1 0x20 ADD SWAP2 PUSH2 0x376 JUMP JUMPDEST DUP3 ADD SWAP2 SWAP1 PUSH1 0x0 MSTORE PUSH1 0x20 PUSH1 0x0 KECCAK256 SWAP1 JUMPDEST DUP2 SLOAD DUP2 MSTORE SWAP1 PUSH1 0x1 ADD SWAP1 PUSH1 0x20 ADD DUP1 DUP4 GT PUSH2 0x359 JUMPI DUP3 SWAP1 SUB PUSH1 0x1F AND DUP3 ADD SWAP2 JUMPDEST POP POP POP POP POP SWAP1 DUP1 PUSH1 0x7 ADD PUSH1 0x0 SWAP1 SLOAD SWAP1 PUSH2 0x100 EXP SWAP1 DIV PUSH1 0xFF AND SWAP1 POP DUP9 JUMP JUMPDEST PUSH1 0x0 DUP1 SLOAD SWAP1 PUSH2 0x100 EXP SWAP1 DIV PUSH20 0xFFFFFFFFFFFFFFFFFFFFFFFFFFFFFFFFFFFFFFFF AND DUP2 JUMP JUMPDEST PUSH1 0x0 DUP1 DUP3 EQ PUSH2 0x3C6 JUMPI DUP2 PUSH2 0x3CB JUMP JUMPDEST PUSH3 0x2A300 JUMPDEST SWAP1 POP DUP1 DUP6 PUSH2 0x3D9 SWAP2 SWAP1 PUSH2 0xA25 JUMP JUMPDEST DUP7 LT ISZERO PUSH2 0x41B JUMPI PUSH1 0x40 MLOAD PUSH32 0x8C379A000000000000000000000000000000000000000000000000000000000 DUP2 MSTORE PUSH1 0x4 ADD PUSH2 0x412 SWAP1 PUSH2 0x92A JUMP JUMPDEST PUSH1 0x40 MLOAD DUP1 SWAP2 SUB SWAP1 REVERT JUMPDEST PUSH1 0x0 PUSH1 0x40 MLOAD DUP1 PUSH2 0x100 ADD PUSH1 0x40 MSTORE DUP1 CALLER PUSH20 0xFFFFFFFFFFFFFFFFFFFFFFFFFFFFFFFFFFFFFFFF AND DUP2 MSTORE PUSH1 0x20 ADD DUP9 DUP2 MSTORE PUSH1 0x20 ADD DUP9 DUP2 MSTORE PUSH1 0x20 ADD TIMESTAMP DUP2 MSTORE PUSH1 0x20 ADD DUP4 TIMESTAMP PUSH2 0x463 SWAP2 SWAP1 PUSH2 0x9CF JUMP JUMPDEST DUP2 MSTORE PUSH1 0x20 ADD DUP8 DUP2 MSTORE PUSH1 0x20 ADD DUP7 DUP7 DUP1 DUP1 PUSH1 0x1F ADD PUSH1 0x20 DUP1 SWAP2 DIV MUL PUSH1 0x20 ADD PUSH1 0x40 MLOAD SWAP1 DUP2 ADD PUSH1 0x40 MSTORE DUP1 SWAP4 SWAP3 SWAP2 SWAP1 DUP2 DUP2 MSTORE PUSH1 0x20 ADD DUP4 DUP4 DUP1 DUP3 DUP5 CALLDATACOPY PUSH1 0x0 DUP2 DUP5 ADD MSTORE PUSH1 0x1F NOT PUSH1 0x1F DUP3 ADD AND SWAP1 POP DUP1 DUP4 ADD SWAP3 POP POP POP POP POP POP POP DUP2 MSTORE PUSH1 0x20 ADD PUSH1 0x0 ISZERO ISZERO DUP2 MSTORE POP SWAP1 POP PUSH1 0x1 DUP2 SWAP1 DUP1 PUSH1 0x1 DUP2 SLOAD ADD DUP1 DUP3 SSTORE DUP1 SWAP2 POP POP PUSH1 0x1 SWAP1 SUB SWAP1 PUSH1 0x0 MSTORE PUSH1 0x20 PUSH1 0x0 KECCAK256 SWAP1 PUSH1 0x8 MUL ADD PUSH1 0x0 SWAP1 SWAP2 SWAP1 SWAP2 SWAP1 SWAP2 POP PUSH1 0x0 DUP3 ADD MLOAD DUP2 PUSH1 0x0 ADD PUSH1 0x0 PUSH2 0x100 EXP DUP2 SLOAD DUP2 PUSH20 0xFFFFFFFFFFFFFFFFFFFFFFFFFFFFFFFFFFFFFFFF MUL NOT AND SWAP1 DUP4 PUSH20 0xFFFFFFFFFFFFFFFFFFFFFFFFFFFFFFFFFFFFFFFF AND MUL OR SWAP1 SSTORE POP PUSH1 0x20 DUP3 ADD MLOAD DUP2 PUSH1 0x1 ADD SSTORE PUSH1 0x40 DUP3 ADD MLOAD DUP2 PUSH1 0x2 ADD SSTORE PUSH1 0x60 DUP3 ADD MLOAD DUP2 PUSH1 0x3 ADD SSTORE PUSH1 0x80 DUP3 ADD MLOAD DUP2 PUSH1 0x4 ADD SSTORE PUSH1 0xA0 DUP3 ADD MLOAD DUP2 PUSH1 0x5 ADD SSTORE PUSH1 0xC0 DUP3 ADD MLOAD DUP2 PUSH1 0x6 ADD SWAP1 DUP1 MLOAD SWAP1 PUSH1 0x20 ADD SWAP1 PUSH2 0x582 SWAP3 SWAP2 SWAP1 PUSH2 0x5FD JUMP JUMPDEST POP PUSH1 0xE0 DUP3 ADD MLOAD DUP2 PUSH1 0x7 ADD PUSH1 0x0 PUSH2 0x100 EXP DUP2 SLOAD DUP2 PUSH1 0xFF MUL NOT AND SWAP1 DUP4 ISZERO ISZERO MUL OR SWAP1 SSTORE POP POP POP PUSH32 0x5BF34ED94988E5DCDC7D1FAAA54EB1D3B55F45D5F11457E235AFB21A8EBBE73C PUSH1 0x1 DUP1 DUP1 SLOAD SWAP1 POP PUSH2 0x5D7 SWAP2 SWAP1 PUSH2 0xA7F JUMP JUMPDEST DUP7 DUP7 DUP11 DUP7 PUSH1 0x40 MLOAD PUSH2 0x5EC SWAP6 SWAP5 SWAP4 SWAP3 SWAP2 SWAP1 PUSH2 0x965 JUMP JUMPDEST PUSH1 0x40 MLOAD DUP1 SWAP2 SUB SWAP1 LOG1 POP POP POP POP POP POP POP JUMP JUMPDEST DUP3 DUP1 SLOAD PUSH2 0x609 SWAP1 PUSH2 0xB4F JUMP JUMPDEST SWAP1 PUSH1 0x0 MSTORE PUSH1 0x20 PUSH1 0x0 KECCAK256 SWAP1 PUSH1 0x1F ADD PUSH1 0x20 SWAP1 DIV DUP2 ADD SWAP3 DUP3 PUSH2 0x62B JUMPI PUSH1 0x0 DUP6 SSTORE PUSH2 0x672 JUMP JUMPDEST DUP3 PUSH1 0x1F LT PUSH2 0x644 JUMPI DUP1 MLOAD PUSH1 0xFF NOT AND DUP4 DUP1 ADD OR DUP6 SSTORE PUSH2 0x672 JUMP JUMPDEST DUP3 DUP1 ADD PUSH1 0x1 ADD DUP6 SSTORE DUP3 ISZERO PUSH2 0x672 JUMPI SWAP2 DUP3 ADD JUMPDEST DUP3 DUP2 GT ISZERO PUSH2 0x671 JUMPI DUP3 MLOAD DUP3 SSTORE SWAP2 PUSH1 0x20 ADD SWAP2 SWAP1 PUSH1 0x1 ADD SWAP1 PUSH2 0x656 JUMP JUMPDEST JUMPDEST POP SWAP1 POP PUSH2 0x67F SWAP2 SWAP1 PUSH2 0x683 JUMP JUMPDEST POP SWAP1 JUMP JUMPDEST JUMPDEST DUP1 DUP3 GT ISZERO PUSH2 0x69C JUMPI PUSH1 0x0 DUP2 PUSH1 0x0 SWAP1 SSTORE POP PUSH1 0x1 ADD PUSH2 0x684 JUMP JUMPDEST POP SWAP1 JUMP JUMPDEST PUSH1 0x0 DUP1 DUP4 PUSH1 0x1F DUP5 ADD SLT PUSH2 0x6B2 JUMPI PUSH1 0x0 DUP1 REVERT JUMPDEST DUP3 CALLDATALOAD SWAP1 POP PUSH8 0xFFFFFFFFFFFFFFFF DUP2 GT ISZERO PUSH2 0x6CB JUMPI PUSH1 0x0 DUP1 REVERT JUMPDEST PUSH1 0x20 DUP4 ADD SWAP2 POP DUP4 PUSH1 0x1 DUP3 MUL DUP4 ADD GT ISZERO PUSH2 0x6E3 JUMPI PUSH1 0x0 DUP1 REVERT JUMPDEST SWAP3 POP SWAP3 SWAP1 POP JUMP JUMPDEST PUSH1 0x0 DUP2 CALLDATALOAD SWAP1 POP PUSH2 0x6F9 DUP2 PUSH2 0xBF0 JUMP JUMPDEST SWAP3 SWAP2 POP POP JUMP JUMPDEST PUSH1 0x0 PUSH1 0x20 DUP3 DUP5 SUB SLT ISZERO PUSH2 0x711 JUMPI PUSH1 0x0 DUP1 REVERT JUMPDEST PUSH1 0x0 PUSH2 0x71F DUP5 DUP3 DUP6 ADD PUSH2 0x6EA JUMP JUMPDEST SWAP2 POP POP SWAP3 SWAP2 POP POP JUMP JUMPDEST PUSH1 0x0 DUP1 PUSH1 0x0 DUP1 PUSH1 0x0 PUSH1 0x80 DUP7 DUP9 SUB SLT ISZERO PUSH2 0x740 JUMPI PUSH1 0x0 DUP1 REVERT JUMPDEST PUSH1 0x0 PUSH2 0x74E DUP9 DUP3 DUP10 ADD PUSH2 0x6EA JUMP JUMPDEST SWAP6 POP POP PUSH1 0x20 PUSH2 0x75F DUP9 DUP3 DUP10 ADD PUSH2 0x6EA JUMP JUMPDEST SWAP5 POP POP PUSH1 0x40 DUP7 ADD CALLDATALOAD PUSH8 0xFFFFFFFFFFFFFFFF DUP2 GT ISZERO PUSH2 0x77C JUMPI PUSH1 0x0 DUP1 REVERT JUMPDEST PUSH2 0x788 DUP9 DUP3 DUP10 ADD PUSH2 0x6A0 JUMP JUMPDEST SWAP4 POP SWAP4 POP POP PUSH1 0x60 PUSH2 0x79B DUP9 DUP3 DUP10 ADD PUSH2 0x6EA JUMP JUMPDEST SWAP2 POP POP SWAP3 SWAP6 POP SWAP3 SWAP6 SWAP1 SWAP4 POP JUMP JUMPDEST PUSH2 0x7B1 DUP2 PUSH2 0xAC5 JUMP JUMPDEST DUP3 MSTORE POP POP JUMP JUMPDEST PUSH2 0x7C0 DUP2 PUSH2 0xAB3 JUMP JUMPDEST DUP3 MSTORE POP POP JUMP JUMPDEST PUSH2 0x7CF DUP2 PUSH2 0xAD7 JUMP JUMPDEST DUP3 MSTORE POP POP JUMP JUMPDEST PUSH1 0x0 PUSH2 0x7E1 DUP4 DUP6 PUSH2 0x9BE JUMP JUMPDEST SWAP4 POP PUSH2 0x7EE DUP4 DUP6 DUP5 PUSH2 0xB0D JUMP JUMPDEST PUSH2 0x7F7 DUP4 PUSH2 0xBDF JUMP JUMPDEST DUP5 ADD SWAP1 POP SWAP4 SWAP3 POP POP POP JUMP JUMPDEST PUSH1 0x0 PUSH2 0x80D DUP3 PUSH2 0x9B3 JUMP JUMPDEST PUSH2 0x817 DUP2 DUP6 PUSH2 0x9BE JUMP JUMPDEST SWAP4 POP PUSH2 0x827 DUP2 DUP6 PUSH1 0x20 DUP7 ADD PUSH2 0xB1C JUMP JUMPDEST PUSH2 0x830 DUP2 PUSH2 0xBDF JUMP JUMPDEST DUP5 ADD SWAP2 POP POP SWAP3 SWAP2 POP POP JUMP JUMPDEST PUSH1 0x0 PUSH2 0x848 PUSH1 0x18 DUP4 PUSH2 0x9BE JUMP JUMPDEST SWAP2 POP PUSH32 0x696E636F7272656374207374617274696E672070726963650000000000000000 PUSH1 0x0 DUP4 ADD MSTORE PUSH1 0x20 DUP3 ADD SWAP1 POP SWAP2 SWAP1 POP JUMP JUMPDEST PUSH2 0x884 DUP2 PUSH2 0xB03 JUMP JUMPDEST DUP3 MSTORE POP POP JUMP JUMPDEST PUSH1 0x0 PUSH1 0x20 DUP3 ADD SWAP1 POP PUSH2 0x89F PUSH1 0x0 DUP4 ADD DUP5 PUSH2 0x7B7 JUMP JUMPDEST SWAP3 SWAP2 POP POP JUMP JUMPDEST PUSH1 0x0 PUSH2 0x100 DUP3 ADD SWAP1 POP PUSH2 0x8BB PUSH1 0x0 DUP4 ADD DUP12 PUSH2 0x7A8 JUMP JUMPDEST PUSH2 0x8C8 PUSH1 0x20 DUP4 ADD DUP11 PUSH2 0x87B JUMP JUMPDEST PUSH2 0x8D5 PUSH1 0x40 DUP4 ADD DUP10 PUSH2 0x87B JUMP JUMPDEST PUSH2 0x8E2 PUSH1 0x60 DUP4 ADD DUP9 PUSH2 0x87B JUMP JUMPDEST PUSH2 0x8EF PUSH1 0x80 DUP4 ADD DUP8 PUSH2 0x87B JUMP JUMPDEST PUSH2 0x8FC PUSH1 0xA0 DUP4 ADD DUP7 PUSH2 0x87B JUMP JUMPDEST DUP2 DUP2 SUB PUSH1 0xC0 DUP4 ADD MSTORE PUSH2 0x90E DUP2 DUP6 PUSH2 0x802 JUMP JUMPDEST SWAP1 POP PUSH2 0x91D PUSH1 0xE0 DUP4 ADD DUP5 PUSH2 0x7C6 JUMP JUMPDEST SWAP10 SWAP9 POP POP POP POP POP POP POP POP POP JUMP JUMPDEST PUSH1 0x0 PUSH1 0x20 DUP3 ADD SWAP1 POP DUP2 DUP2 SUB PUSH1 0x0 DUP4 ADD MSTORE PUSH2 0x943 DUP2 PUSH2 0x83B JUMP JUMPDEST SWAP1 POP SWAP2 SWAP1 POP JUMP JUMPDEST PUSH1 0x0 PUSH1 0x20 DUP3 ADD SWAP1 POP PUSH2 0x95F PUSH1 0x0 DUP4 ADD DUP5 PUSH2 0x87B JUMP JUMPDEST SWAP3 SWAP2 POP POP JUMP JUMPDEST PUSH1 0x0 PUSH1 0x80 DUP3 ADD SWAP1 POP PUSH2 0x97A PUSH1 0x0 DUP4 ADD DUP9 PUSH2 0x87B JUMP JUMPDEST DUP2 DUP2 SUB PUSH1 0x20 DUP4 ADD MSTORE PUSH2 0x98D DUP2 DUP7 DUP9 PUSH2 0x7D5 JUMP JUMPDEST SWAP1 POP PUSH2 0x99C PUSH1 0x40 DUP4 ADD DUP6 PUSH2 0x87B JUMP JUMPDEST PUSH2 0x9A9 PUSH1 0x60 DUP4 ADD DUP5 PUSH2 0x87B JUMP JUMPDEST SWAP7 SWAP6 POP POP POP POP POP POP JUMP JUMPDEST PUSH1 0x0 DUP2 MLOAD SWAP1 POP SWAP2 SWAP1 POP JUMP JUMPDEST PUSH1 0x0 DUP3 DUP3 MSTORE PUSH1 0x20 DUP3 ADD SWAP1 POP SWAP3 SWAP2 POP POP JUMP JUMPDEST PUSH1 0x0 PUSH2 0x9DA DUP3 PUSH2 0xB03 JUMP JUMPDEST SWAP2 POP PUSH2 0x9E5 DUP4 PUSH2 0xB03 JUMP JUMPDEST SWAP3 POP DUP3 PUSH32 0xFFFFFFFFFFFFFFFFFFFFFFFFFFFFFFFFFFFFFFFFFFFFFFFFFFFFFFFFFFFFFFFF SUB DUP3 GT ISZERO PUSH2 0xA1A JUMPI PUSH2 0xA19 PUSH2 0xB81 JUMP JUMPDEST JUMPDEST DUP3 DUP3 ADD SWAP1 POP SWAP3 SWAP2 POP POP JUMP JUMPDEST PUSH1 0x0 PUSH2 0xA30 DUP3 PUSH2 0xB03 JUMP JUMPDEST SWAP2 POP PUSH2 0xA3B DUP4 PUSH2 0xB03 JUMP JUMPDEST SWAP3 POP DUP2 PUSH32 0xFFFFFFFFFFFFFFFFFFFFFFFFFFFFFFFFFFFFFFFFFFFFFFFFFFFFFFFFFFFFFFFF DIV DUP4 GT DUP3 ISZERO ISZERO AND ISZERO PUSH2 0xA74 JUMPI PUSH2 0xA73 PUSH2 0xB81 JUMP JUMPDEST JUMPDEST DUP3 DUP3 MUL SWAP1 POP SWAP3 SWAP2 POP POP JUMP JUMPDEST PUSH1 0x0 PUSH2 0xA8A DUP3 PUSH2 0xB03 JUMP JUMPDEST SWAP2 POP PUSH2 0xA95 DUP4 PUSH2 0xB03 JUMP JUMPDEST SWAP3 POP DUP3 DUP3 LT ISZERO PUSH2 0xAA8 JUMPI PUSH2 0xAA7 PUSH2 0xB81 JUMP JUMPDEST JUMPDEST DUP3 DUP3 SUB SWAP1 POP SWAP3 SWAP2 POP POP JUMP JUMPDEST PUSH1 0x0 PUSH2 0xABE DUP3 PUSH2 0xAE3 JUMP JUMPDEST SWAP1 POP SWAP2 SWAP1 POP JUMP JUMPDEST PUSH1 0x0 PUSH2 0xAD0 DUP3 PUSH2 0xAE3 JUMP JUMPDEST SWAP1 POP SWAP2 SWAP1 POP JUMP JUMPDEST PUSH1 0x0 DUP2 ISZERO ISZERO SWAP1 POP SWAP2 SWAP1 POP JUMP JUMPDEST PUSH1 0x0 PUSH20 0xFFFFFFFFFFFFFFFFFFFFFFFFFFFFFFFFFFFFFFFF DUP3 AND SWAP1 POP SWAP2 SWAP1 POP JUMP JUMPDEST PUSH1 0x0 DUP2 SWAP1 POP SWAP2 SWAP1 POP JUMP JUMPDEST DUP3 DUP2 DUP4 CALLDATACOPY PUSH1 0x0 DUP4 DUP4 ADD MSTORE POP POP POP JUMP JUMPDEST PUSH1 0x0 JUMPDEST DUP4 DUP2 LT ISZERO PUSH2 0xB3A JUMPI DUP1 DUP3 ADD MLOAD DUP2 DUP5 ADD MSTORE PUSH1 0x20 DUP2 ADD SWAP1 POP PUSH2 0xB1F JUMP JUMPDEST DUP4 DUP2 GT ISZERO PUSH2 0xB49 JUMPI PUSH1 0x0 DUP5 DUP5 ADD MSTORE JUMPDEST POP POP POP POP JUMP JUMPDEST PUSH1 0x0 PUSH1 0x2 DUP3 DIV SWAP1 POP PUSH1 0x1 DUP3 AND DUP1 PUSH2 0xB67 JUMPI PUSH1 0x7F DUP3 AND SWAP2 POP JUMPDEST PUSH1 0x20 DUP3 LT DUP2 EQ ISZERO PUSH2 0xB7B JUMPI PUSH2 0xB7A PUSH2 0xBB0 JUMP JUMPDEST JUMPDEST POP SWAP2 SWAP1 POP JUMP JUMPDEST PUSH32 0x4E487B7100000000000000000000000000000000000000000000000000000000 PUSH1 0x0 MSTORE PUSH1 0x11 PUSH1 0x4 MSTORE PUSH1 0x24 PUSH1 0x0 REVERT JUMPDEST PUSH32 0x4E487B7100000000000000000000000000000000000000000000000000000000 PUSH1 0x0 MSTORE PUSH1 0x22 PUSH1 0x4 MSTORE PUSH1 0x24 PUSH1 0x0 REVERT JUMPDEST PUSH1 0x0 PUSH1 0x1F NOT PUSH1 0x1F DUP4 ADD AND SWAP1 POP SWAP2 SWAP1 POP JUMP JUMPDEST PUSH2 0xBF9 DUP2 PUSH2 0xB03 JUMP JUMPDEST DUP2 EQ PUSH2 0xC04 JUMPI PUSH1 0x0 DUP1 REVERT JUMPDEST POP JUMP INVALID LOG2 PUSH5 0x6970667358 0x22 SLT KECCAK256 0xC6 0xF RETURNDATASIZE ORIGIN 0xDC LOG0 0xAD PUSH4 0xED52EB23 LOG4 SWAP2 PUSH1 0x8 0xDF DUP2 PUSH12 0xF33A8358CD69A1675D6E6C02 0xBB PUSH5 0x736F6C6343 STOP ADDMOD STOP STOP CALLER "
				},
				"gasEstimates": {
					"creation": {
						"codeDepositCost": "626600",
						"executionCost": "21523",
						"totalCost": "648123"
					},
					"external": {
						"auctions(uint256)": "infinite",
						"createAuction(uint256,uint256,string,uint256)": "infinite",
						"getPriceFor(uint256)": "infinite",
						"owner()": "1233"
					}
				},
				"methodIdentifiers": {
					"auctions(uint256)": "571a26a0",
					"createAuction(uint256,uint256,string,uint256)": "e9835d15",
					"getPriceFor(uint256)": "4534cd9c",
					"owner()": "8da5cb5b"
				}
			},
			"storageLayout": {
				"storage": [
					{
						"astId": 3,
						"contract": "coin.sol:AucEngine",
						"label": "owner",
						"offset": 0,
						"slot": "0",
						"type": "t_address"
					},
					{
						"astId": 30,
						"contract": "coin.sol:AucEngine",
						"label": "auctions",
						"offset": 0,
						"slot": "1",
						"type": "t_array(t_struct(Auction)26_storage)dyn_storage"
					}
				],
				"types": {
					"t_address": {
						"encoding": "inplace",
						"label": "address",
						"numberOfBytes": "20"
					},
					"t_address_payable": {
						"encoding": "inplace",
						"label": "address payable",
						"numberOfBytes": "20"
					},
					"t_array(t_struct(Auction)26_storage)dyn_storage": {
						"base": "t_struct(Auction)26_storage",
						"encoding": "dynamic_array",
						"label": "struct AucEngine.Auction[]",
						"numberOfBytes": "32"
					},
					"t_bool": {
						"encoding": "inplace",
						"label": "bool",
						"numberOfBytes": "1"
					},
					"t_string_storage": {
						"encoding": "bytes",
						"label": "string",
						"numberOfBytes": "32"
					},
					"t_struct(Auction)26_storage": {
						"encoding": "inplace",
						"label": "struct AucEngine.Auction",
						"members": [
							{
								"astId": 11,
								"contract": "coin.sol:AucEngine",
								"label": "seller",
								"offset": 0,
								"slot": "0",
								"type": "t_address_payable"
							},
							{
								"astId": 13,
								"contract": "coin.sol:AucEngine",
								"label": "startingPrice",
								"offset": 0,
								"slot": "1",
								"type": "t_uint256"
							},
							{
								"astId": 15,
								"contract": "coin.sol:AucEngine",
								"label": "finalPrice",
								"offset": 0,
								"slot": "2",
								"type": "t_uint256"
							},
							{
								"astId": 17,
								"contract": "coin.sol:AucEngine",
								"label": "startAt",
								"offset": 0,
								"slot": "3",
								"type": "t_uint256"
							},
							{
								"astId": 19,
								"contract": "coin.sol:AucEngine",
								"label": "endsAt",
								"offset": 0,
								"slot": "4",
								"type": "t_uint256"
							},
							{
								"astId": 21,
								"contract": "coin.sol:AucEngine",
								"label": "discountRate",
								"offset": 0,
								"slot": "5",
								"type": "t_uint256"
							},
							{
								"astId": 23,
								"contract": "coin.sol:AucEngine",
								"label": "item",
								"offset": 0,
								"slot": "6",
								"type": "t_string_storage"
							},
							{
								"astId": 25,
								"contract": "coin.sol:AucEngine",
								"label": "stopped",
								"offset": 0,
								"slot": "7",
								"type": "t_bool"
							}
						],
						"numberOfBytes": "256"
					},
					"t_uint256": {
						"encoding": "inplace",
						"label": "uint256",
						"numberOfBytes": "32"
					}
				}
			},
			"userdoc": {
				"kind": "user",
				"methods": {},
				"version": 1
			}
		}
	}
}