{
	"coin.sol": {
		"AucEngine": {
			"abi": [
				{
					"inputs": [],
					"stateMutability": "nonpayable",
					"type": "constructor"
				},
				{
					"anonymous": false,
					"inputs": [
						{
							"indexed": false,
							"internalType": "uint256",
							"name": "index",
							"type": "uint256"
						},
						{
							"indexed": false,
							"internalType": "string",
							"name": "itemName",
							"type": "string"
						},
						{
							"indexed": false,
							"internalType": "uint256",
							"name": "startingPrice",
							"type": "uint256"
						},
						{
							"indexed": false,
							"internalType": "uint256",
							"name": "duration",
							"type": "uint256"
						}
					],
					"name": "AuctionCreated",
					"type": "event"
				},
				{
					"inputs": [
						{
							"internalType": "uint256",
							"name": "",
							"type": "uint256"
						}
					],
					"name": "auctions",
					"outputs": [
						{
							"internalType": "address payable",
							"name": "seller",
							"type": "address"
						},
						{
							"internalType": "uint256",
							"name": "startingPrice",
							"type": "uint256"
						},
						{
							"internalType": "uint256",
							"name": "finalPrice",
							"type": "uint256"
						},
						{
							"internalType": "uint256",
							"name": "startAt",
							"type": "uint256"
						},
						{
							"internalType": "uint256",
							"name": "endsAt",
							"type": "uint256"
						},
						{
							"internalType": "uint256",
							"name": "discountRate",
							"type": "uint256"
						},
						{
							"internalType": "string",
							"name": "item",
							"type": "string"
						},
						{
							"internalType": "bool",
							"name": "stopped",
							"type": "bool"
						}
					],
					"stateMutability": "view",
					"type": "function"
				},
				{
					"inputs": [
						{
							"internalType": "uint256",
							"name": "_startingPrice",
							"type": "uint256"
						},
						{
							"internalType": "uint256",
							"name": "_discountRate",
							"type": "uint256"
						},
						{
							"internalType": "string",
							"name": "_item",
							"type": "string"
						},
						{
							"internalType": "uint256",
							"name": "_duration",
							"type": "uint256"
						}
					],
					"name": "createAuction",
					"outputs": [],
					"stateMutability": "nonpayable",
					"type": "function"
				},
				{
					"inputs": [],
					"name": "owner",
					"outputs": [
						{
							"internalType": "address",
							"name": "",
							"type": "address"
						}
					],
					"stateMutability": "view",
					"type": "function"
				}
			],
			"devdoc": {
				"kind": "dev",
				"methods": {},
				"version": 1
			},
			"evm": {
				"assembly": "    /* \"coin.sol\":68:1417  contract AucEngine {\r... */\n  mstore(0x40, 0x80)\n    /* \"coin.sol\":566:618  constructor()  {\r... */\n  callvalue\n  dup1\n  iszero\n  tag_1\n  jumpi\n  0x00\n  dup1\n  revert\ntag_1:\n  pop\n    /* \"coin.sol\":600:610  msg.sender */\n  caller\n    /* \"coin.sol\":592:597  owner */\n  0x00\n  dup1\n    /* \"coin.sol\":592:610  owner = msg.sender */\n  0x0100\n  exp\n  dup2\n  sload\n  dup2\n  0xffffffffffffffffffffffffffffffffffffffff\n  mul\n  not\n  and\n  swap1\n  dup4\n  0xffffffffffffffffffffffffffffffffffffffff\n  and\n  mul\n  or\n  swap1\n  sstore\n  pop\n    /* \"coin.sol\":68:1417  contract AucEngine {\r... */\n  dataSize(sub_0)\n  dup1\n  dataOffset(sub_0)\n  0x00\n  codecopy\n  0x00\n  return\nstop\n\nsub_0: assembly {\n        /* \"coin.sol\":68:1417  contract AucEngine {\r... */\n      mstore(0x40, 0x80)\n      callvalue\n      dup1\n      iszero\n      tag_1\n      jumpi\n      0x00\n      dup1\n      revert\n    tag_1:\n      pop\n      jumpi(tag_2, lt(calldatasize, 0x04))\n      shr(0xe0, calldataload(0x00))\n      dup1\n      0x571a26a0\n      eq\n      tag_3\n      jumpi\n      dup1\n      0x8da5cb5b\n      eq\n      tag_4\n      jumpi\n      dup1\n      0xe9835d15\n      eq\n      tag_5\n      jumpi\n    tag_2:\n      0x00\n      dup1\n      revert\n        /* \"coin.sol\":433:458  Auction[] public auctions */\n    tag_3:\n      tag_6\n      0x04\n      dup1\n      calldatasize\n      sub\n      dup2\n      add\n      swap1\n      tag_7\n      swap2\n      swap1\n      tag_8\n      jump\t// in\n    tag_7:\n      tag_9\n      jump\t// in\n    tag_6:\n      mload(0x40)\n      tag_10\n      swap9\n      swap8\n      swap7\n      swap6\n      swap5\n      swap4\n      swap3\n      swap2\n      swap1\n      tag_11\n      jump\t// in\n    tag_10:\n      mload(0x40)\n      dup1\n      swap2\n      sub\n      swap1\n      return\n        /* \"coin.sol\":94:114  address public owner */\n    tag_4:\n      tag_12\n      tag_13\n      jump\t// in\n    tag_12:\n      mload(0x40)\n      tag_14\n      swap2\n      swap1\n      tag_15\n      jump\t// in\n    tag_14:\n      mload(0x40)\n      dup1\n      swap2\n      sub\n      swap1\n      return\n        /* \"coin.sol\":630:1406  function createAuction(uint _startingPrice, uint _discountRate, string calldata _item, uint _duration) external {\r... */\n    tag_5:\n      tag_16\n      0x04\n      dup1\n      calldatasize\n      sub\n      dup2\n      add\n      swap1\n      tag_17\n      swap2\n      swap1\n      tag_18\n      jump\t// in\n    tag_17:\n      tag_19\n      jump\t// in\n    tag_16:\n      stop\n        /* \"coin.sol\":433:458  Auction[] public auctions */\n    tag_9:\n      0x01\n      dup2\n      dup2\n      sload\n      dup2\n      lt\n      tag_20\n      jumpi\n      0x00\n      dup1\n      revert\n    tag_20:\n      swap1\n      0x00\n      mstore\n      keccak256(0x00, 0x20)\n      swap1\n      0x08\n      mul\n      add\n      0x00\n      swap2\n      pop\n      swap1\n      pop\n      dup1\n      0x00\n      add\n      0x00\n      swap1\n      sload\n      swap1\n      0x0100\n      exp\n      swap1\n      div\n      0xffffffffffffffffffffffffffffffffffffffff\n      and\n      swap1\n      dup1\n      0x01\n      add\n      sload\n      swap1\n      dup1\n      0x02\n      add\n      sload\n      swap1\n      dup1\n      0x03\n      add\n      sload\n      swap1\n      dup1\n      0x04\n      add\n      sload\n      swap1\n      dup1\n      0x05\n      add\n      sload\n      swap1\n      dup1\n      0x06\n      add\n      dup1\n      sload\n      tag_22\n      swap1\n      tag_23\n      jump\t// in\n    tag_22:\n      dup1\n      0x1f\n      add\n      0x20\n      dup1\n      swap2\n      div\n      mul\n      0x20\n      add\n      mload(0x40)\n      swap1\n      dup2\n      add\n      0x40\n      mstore\n      dup1\n      swap3\n      swap2\n      swap1\n      dup2\n      dup2\n      mstore\n      0x20\n      add\n      dup3\n      dup1\n      sload\n      tag_24\n      swap1\n      tag_23\n      jump\t// in\n    tag_24:\n      dup1\n      iszero\n      tag_25\n      jumpi\n      dup1\n      0x1f\n      lt\n      tag_26\n      jumpi\n      0x0100\n      dup1\n      dup4\n      sload\n      div\n      mul\n      dup4\n      mstore\n      swap2\n      0x20\n      add\n      swap2\n      jump(tag_25)\n    tag_26:\n      dup3\n      add\n      swap2\n      swap1\n      0x00\n      mstore\n      keccak256(0x00, 0x20)\n      swap1\n    tag_27:\n      dup2\n      sload\n      dup2\n      mstore\n      swap1\n      0x01\n      add\n      swap1\n      0x20\n      add\n      dup1\n      dup4\n      gt\n      tag_27\n      jumpi\n      dup3\n      swap1\n      sub\n      0x1f\n      and\n      dup3\n      add\n      swap2\n    tag_25:\n      pop\n      pop\n      pop\n      pop\n      pop\n      swap1\n      dup1\n      0x07\n      add\n      0x00\n      swap1\n      sload\n      swap1\n      0x0100\n      exp\n      swap1\n      div\n      0xff\n      and\n      swap1\n      pop\n      dup9\n      jump\t// out\n        /* \"coin.sol\":94:114  address public owner */\n    tag_13:\n      0x00\n      dup1\n      sload\n      swap1\n      0x0100\n      exp\n      swap1\n      div\n      0xffffffffffffffffffffffffffffffffffffffff\n      and\n      dup2\n      jump\t// out\n        /* \"coin.sol\":630:1406  function createAuction(uint _startingPrice, uint _discountRate, string calldata _item, uint _duration) external {\r... */\n    tag_19:\n        /* \"coin.sol\":753:766  uint duration */\n      0x00\n        /* \"coin.sol\":782:783  0 */\n      dup1\n        /* \"coin.sol\":769:778  _duration */\n      dup3\n        /* \"coin.sol\":769:783  _duration == 0 */\n      eq\n        /* \"coin.sol\":769:806  _duration == 0 ? DURATION : _duration */\n      tag_29\n      jumpi\n        /* \"coin.sol\":797:806  _duration */\n      dup2\n        /* \"coin.sol\":769:806  _duration == 0 ? DURATION : _duration */\n      jump(tag_30)\n    tag_29:\n        /* \"coin.sol\":146:152  2 days */\n      0x02a300\n        /* \"coin.sol\":769:806  _duration == 0 ? DURATION : _duration */\n    tag_30:\n        /* \"coin.sol\":753:806  uint duration = _duration == 0 ? DURATION : _duration */\n      swap1\n      pop\n        /* \"coin.sol\":861:869  duration */\n      dup1\n        /* \"coin.sol\":845:858  _discountRate */\n      dup6\n        /* \"coin.sol\":845:869  _discountRate * duration */\n      tag_31\n      swap2\n      swap1\n      tag_32\n      jump\t// in\n    tag_31:\n        /* \"coin.sol\":827:841  _startingPrice */\n      dup7\n        /* \"coin.sol\":827:869  _startingPrice >= _discountRate * duration */\n      lt\n      iszero\n        /* \"coin.sol\":819:897  require(_startingPrice >= _discountRate * duration,\"incorrect starting price\") */\n      tag_33\n      jumpi\n      mload(0x40)\n      0x08c379a000000000000000000000000000000000000000000000000000000000\n      dup2\n      mstore\n      0x04\n      add\n      tag_34\n      swap1\n      tag_35\n      jump\t// in\n    tag_34:\n      mload(0x40)\n      dup1\n      swap2\n      sub\n      swap1\n      revert\n    tag_33:\n        /* \"coin.sol\":912:937  Auction memory newAuction */\n      0x00\n        /* \"coin.sol\":940:1272  Auction({\r... */\n      mload(0x40)\n      dup1\n      0x0100\n      add\n      0x40\n      mstore\n      dup1\n        /* \"coin.sol\":979:989  msg.sender */\n      caller\n        /* \"coin.sol\":940:1272  Auction({\r... */\n      0xffffffffffffffffffffffffffffffffffffffff\n      and\n      dup2\n      mstore\n      0x20\n      add\n        /* \"coin.sol\":1020:1034  _startingPrice */\n      dup9\n        /* \"coin.sol\":940:1272  Auction({\r... */\n      dup2\n      mstore\n      0x20\n      add\n        /* \"coin.sol\":1061:1075  _startingPrice */\n      dup9\n        /* \"coin.sol\":940:1272  Auction({\r... */\n      dup2\n      mstore\n      0x20\n      add\n        /* \"coin.sol\":1141:1156  block.timestamp */\n      timestamp\n        /* \"coin.sol\":940:1272  Auction({\r... */\n      dup2\n      mstore\n      0x20\n      add\n        /* \"coin.sol\":1197:1205  duration */\n      dup4\n        /* \"coin.sol\":1179:1194  block.timestamp */\n      timestamp\n        /* \"coin.sol\":1179:1205  block.timestamp + duration */\n      tag_36\n      swap2\n      swap1\n      tag_37\n      jump\t// in\n    tag_36:\n        /* \"coin.sol\":940:1272  Auction({\r... */\n      dup2\n      mstore\n      0x20\n      add\n        /* \"coin.sol\":1104:1117  _discountRate */\n      dup8\n        /* \"coin.sol\":940:1272  Auction({\r... */\n      dup2\n      mstore\n      0x20\n      add\n        /* \"coin.sol\":1226:1231  _item */\n      dup7\n      dup7\n        /* \"coin.sol\":940:1272  Auction({\r... */\n      dup1\n      dup1\n      0x1f\n      add\n      0x20\n      dup1\n      swap2\n      div\n      mul\n      0x20\n      add\n      mload(0x40)\n      swap1\n      dup2\n      add\n      0x40\n      mstore\n      dup1\n      swap4\n      swap3\n      swap2\n      swap1\n      dup2\n      dup2\n      mstore\n      0x20\n      add\n      dup4\n      dup4\n      dup1\n      dup3\n      dup5\n      calldatacopy\n      0x00\n      dup2\n      dup5\n      add\n      mstore\n      not(0x1f)\n      0x1f\n      dup3\n      add\n      and\n      swap1\n      pop\n      dup1\n      dup4\n      add\n      swap3\n      pop\n      pop\n      pop\n      pop\n      pop\n      pop\n      pop\n      dup2\n      mstore\n      0x20\n      add\n        /* \"coin.sol\":1255:1260  false */\n      0x00\n        /* \"coin.sol\":940:1272  Auction({\r... */\n      iszero\n      iszero\n      dup2\n      mstore\n      pop\n        /* \"coin.sol\":912:1272  Auction memory newAuction = Auction({\r... */\n      swap1\n      pop\n        /* \"coin.sol\":1285:1293  auctions */\n      0x01\n        /* \"coin.sol\":1299:1309  newAuction */\n      dup2\n        /* \"coin.sol\":1285:1310  auctions.push(newAuction) */\n      swap1\n      dup1\n      0x01\n      dup2\n      sload\n      add\n      dup1\n      dup3\n      sstore\n      dup1\n      swap2\n      pop\n      pop\n      0x01\n      swap1\n      sub\n      swap1\n      0x00\n      mstore\n      keccak256(0x00, 0x20)\n      swap1\n      0x08\n      mul\n      add\n      0x00\n      swap1\n      swap2\n      swap1\n      swap2\n      swap1\n      swap2\n      pop\n      0x00\n      dup3\n      add\n      mload\n      dup2\n      0x00\n      add\n      exp(0x0100, 0x00)\n      dup2\n      sload\n      dup2\n      0xffffffffffffffffffffffffffffffffffffffff\n      mul\n      not\n      and\n      swap1\n      dup4\n      0xffffffffffffffffffffffffffffffffffffffff\n      and\n      mul\n      or\n      swap1\n      sstore\n      pop\n      0x20\n      dup3\n      add\n      mload\n      dup2\n      0x01\n      add\n      sstore\n      0x40\n      dup3\n      add\n      mload\n      dup2\n      0x02\n      add\n      sstore\n      0x60\n      dup3\n      add\n      mload\n      dup2\n      0x03\n      add\n      sstore\n      0x80\n      dup3\n      add\n      mload\n      dup2\n      0x04\n      add\n      sstore\n      0xa0\n      dup3\n      add\n      mload\n      dup2\n      0x05\n      add\n      sstore\n      0xc0\n      dup3\n      add\n      mload\n      dup2\n      0x06\n      add\n      swap1\n      dup1\n      mload\n      swap1\n      0x20\n      add\n      swap1\n      tag_39\n      swap3\n      swap2\n      swap1\n      tag_40\n      jump\t// in\n    tag_39:\n      pop\n      0xe0\n      dup3\n      add\n      mload\n      dup2\n      0x07\n      add\n      exp(0x0100, 0x00)\n      dup2\n      sload\n      dup2\n      0xff\n      mul\n      not\n      and\n      swap1\n      dup4\n      iszero\n      iszero\n      mul\n      or\n      swap1\n      sstore\n      pop\n      pop\n      pop\n        /* \"coin.sol\":1330:1396  AuctionCreated(auctions.length-1, _item, _startingPrice, duration) */\n      0x5bf34ed94988e5dcdc7d1faaa54eb1d3b55f45d5f11457e235afb21a8ebbe73c\n        /* \"coin.sol\":1361:1362  1 */\n      0x01\n        /* \"coin.sol\":1345:1353  auctions */\n      dup1\n        /* \"coin.sol\":1345:1360  auctions.length */\n      dup1\n      sload\n      swap1\n      pop\n        /* \"coin.sol\":1345:1362  auctions.length-1 */\n      tag_41\n      swap2\n      swap1\n      tag_42\n      jump\t// in\n    tag_41:\n        /* \"coin.sol\":1364:1369  _item */\n      dup7\n      dup7\n        /* \"coin.sol\":1371:1385  _startingPrice */\n      dup11\n        /* \"coin.sol\":1387:1395  duration */\n      dup7\n        /* \"coin.sol\":1330:1396  AuctionCreated(auctions.length-1, _item, _startingPrice, duration) */\n      mload(0x40)\n      tag_43\n      swap6\n      swap5\n      swap4\n      swap3\n      swap2\n      swap1\n      tag_44\n      jump\t// in\n    tag_43:\n      mload(0x40)\n      dup1\n      swap2\n      sub\n      swap1\n      log1\n        /* \"coin.sol\":630:1406  function createAuction(uint _startingPrice, uint _discountRate, string calldata _item, uint _duration) external {\r... */\n      pop\n      pop\n      pop\n      pop\n      pop\n      pop\n      pop\n      jump\t// out\n    tag_40:\n      dup3\n      dup1\n      sload\n      tag_45\n      swap1\n      tag_23\n      jump\t// in\n    tag_45:\n      swap1\n      0x00\n      mstore\n      keccak256(0x00, 0x20)\n      swap1\n      0x1f\n      add\n      0x20\n      swap1\n      div\n      dup2\n      add\n      swap3\n      dup3\n      tag_47\n      jumpi\n      0x00\n      dup6\n      sstore\n      jump(tag_46)\n    tag_47:\n      dup3\n      0x1f\n      lt\n      tag_48\n      jumpi\n      dup1\n      mload\n      not(0xff)\n      and\n      dup4\n      dup1\n      add\n      or\n      dup6\n      sstore\n      jump(tag_46)\n    tag_48:\n      dup3\n      dup1\n      add\n      0x01\n      add\n      dup6\n      sstore\n      dup3\n      iszero\n      tag_46\n      jumpi\n      swap2\n      dup3\n      add\n    tag_49:\n      dup3\n      dup2\n      gt\n      iszero\n      tag_50\n      jumpi\n      dup3\n      mload\n      dup3\n      sstore\n      swap2\n      0x20\n      add\n      swap2\n      swap1\n      0x01\n      add\n      swap1\n      jump(tag_49)\n    tag_50:\n    tag_46:\n      pop\n      swap1\n      pop\n      tag_51\n      swap2\n      swap1\n      tag_52\n      jump\t// in\n    tag_51:\n      pop\n      swap1\n      jump\t// out\n    tag_52:\n    tag_53:\n      dup1\n      dup3\n      gt\n      iszero\n      tag_54\n      jumpi\n      0x00\n      dup2\n      0x00\n      swap1\n      sstore\n      pop\n      0x01\n      add\n      jump(tag_53)\n    tag_54:\n      pop\n      swap1\n      jump\t// out\n        /* \"#utility.yul\":21:373   */\n    tag_56:\n      0x00\n      dup1\n        /* \"#utility.yul\":139:142   */\n      dup4\n        /* \"#utility.yul\":132:136   */\n      0x1f\n        /* \"#utility.yul\":124:130   */\n      dup5\n        /* \"#utility.yul\":120:137   */\n      add\n        /* \"#utility.yul\":116:143   */\n      slt\n        /* \"#utility.yul\":106:108   */\n      tag_58\n      jumpi\n        /* \"#utility.yul\":157:158   */\n      0x00\n        /* \"#utility.yul\":154:155   */\n      dup1\n        /* \"#utility.yul\":147:159   */\n      revert\n        /* \"#utility.yul\":106:108   */\n    tag_58:\n        /* \"#utility.yul\":193:199   */\n      dup3\n        /* \"#utility.yul\":180:200   */\n      calldataload\n        /* \"#utility.yul\":170:200   */\n      swap1\n      pop\n        /* \"#utility.yul\":223:241   */\n      0xffffffffffffffff\n        /* \"#utility.yul\":215:221   */\n      dup2\n        /* \"#utility.yul\":212:242   */\n      gt\n        /* \"#utility.yul\":209:211   */\n      iszero\n      tag_59\n      jumpi\n        /* \"#utility.yul\":255:256   */\n      0x00\n        /* \"#utility.yul\":252:253   */\n      dup1\n        /* \"#utility.yul\":245:257   */\n      revert\n        /* \"#utility.yul\":209:211   */\n    tag_59:\n        /* \"#utility.yul\":292:296   */\n      0x20\n        /* \"#utility.yul\":284:290   */\n      dup4\n        /* \"#utility.yul\":280:297   */\n      add\n        /* \"#utility.yul\":268:297   */\n      swap2\n      pop\n        /* \"#utility.yul\":346:349   */\n      dup4\n        /* \"#utility.yul\":338:342   */\n      0x01\n        /* \"#utility.yul\":330:336   */\n      dup3\n        /* \"#utility.yul\":326:343   */\n      mul\n        /* \"#utility.yul\":316:324   */\n      dup4\n        /* \"#utility.yul\":312:344   */\n      add\n        /* \"#utility.yul\":309:350   */\n      gt\n        /* \"#utility.yul\":306:308   */\n      iszero\n      tag_60\n      jumpi\n        /* \"#utility.yul\":363:364   */\n      0x00\n        /* \"#utility.yul\":360:361   */\n      dup1\n        /* \"#utility.yul\":353:365   */\n      revert\n        /* \"#utility.yul\":306:308   */\n    tag_60:\n        /* \"#utility.yul\":96:373   */\n      swap3\n      pop\n      swap3\n      swap1\n      pop\n      jump\t// out\n        /* \"#utility.yul\":379:518   */\n    tag_61:\n      0x00\n        /* \"#utility.yul\":463:469   */\n      dup2\n        /* \"#utility.yul\":450:470   */\n      calldataload\n        /* \"#utility.yul\":441:470   */\n      swap1\n      pop\n        /* \"#utility.yul\":479:512   */\n      tag_63\n        /* \"#utility.yul\":506:511   */\n      dup2\n        /* \"#utility.yul\":479:512   */\n      tag_64\n      jump\t// in\n    tag_63:\n        /* \"#utility.yul\":431:518   */\n      swap3\n      swap2\n      pop\n      pop\n      jump\t// out\n        /* \"#utility.yul\":524:786   */\n    tag_8:\n      0x00\n        /* \"#utility.yul\":632:634   */\n      0x20\n        /* \"#utility.yul\":620:629   */\n      dup3\n        /* \"#utility.yul\":611:618   */\n      dup5\n        /* \"#utility.yul\":607:630   */\n      sub\n        /* \"#utility.yul\":603:635   */\n      slt\n        /* \"#utility.yul\":600:602   */\n      iszero\n      tag_66\n      jumpi\n        /* \"#utility.yul\":648:649   */\n      0x00\n        /* \"#utility.yul\":645:646   */\n      dup1\n        /* \"#utility.yul\":638:650   */\n      revert\n        /* \"#utility.yul\":600:602   */\n    tag_66:\n        /* \"#utility.yul\":691:692   */\n      0x00\n        /* \"#utility.yul\":716:769   */\n      tag_67\n        /* \"#utility.yul\":761:768   */\n      dup5\n        /* \"#utility.yul\":752:758   */\n      dup3\n        /* \"#utility.yul\":741:750   */\n      dup6\n        /* \"#utility.yul\":737:759   */\n      add\n        /* \"#utility.yul\":716:769   */\n      tag_61\n      jump\t// in\n    tag_67:\n        /* \"#utility.yul\":706:769   */\n      swap2\n      pop\n        /* \"#utility.yul\":662:779   */\n      pop\n        /* \"#utility.yul\":590:786   */\n      swap3\n      swap2\n      pop\n      pop\n      jump\t// out\n        /* \"#utility.yul\":792:1623   */\n    tag_18:\n      0x00\n      dup1\n      0x00\n      dup1\n      0x00\n        /* \"#utility.yul\":971:974   */\n      0x80\n        /* \"#utility.yul\":959:968   */\n      dup7\n        /* \"#utility.yul\":950:957   */\n      dup9\n        /* \"#utility.yul\":946:969   */\n      sub\n        /* \"#utility.yul\":942:975   */\n      slt\n        /* \"#utility.yul\":939:941   */\n      iszero\n      tag_69\n      jumpi\n        /* \"#utility.yul\":988:989   */\n      0x00\n        /* \"#utility.yul\":985:986   */\n      dup1\n        /* \"#utility.yul\":978:990   */\n      revert\n        /* \"#utility.yul\":939:941   */\n    tag_69:\n        /* \"#utility.yul\":1031:1032   */\n      0x00\n        /* \"#utility.yul\":1056:1109   */\n      tag_70\n        /* \"#utility.yul\":1101:1108   */\n      dup9\n        /* \"#utility.yul\":1092:1098   */\n      dup3\n        /* \"#utility.yul\":1081:1090   */\n      dup10\n        /* \"#utility.yul\":1077:1099   */\n      add\n        /* \"#utility.yul\":1056:1109   */\n      tag_61\n      jump\t// in\n    tag_70:\n        /* \"#utility.yul\":1046:1109   */\n      swap6\n      pop\n        /* \"#utility.yul\":1002:1119   */\n      pop\n        /* \"#utility.yul\":1158:1160   */\n      0x20\n        /* \"#utility.yul\":1184:1237   */\n      tag_71\n        /* \"#utility.yul\":1229:1236   */\n      dup9\n        /* \"#utility.yul\":1220:1226   */\n      dup3\n        /* \"#utility.yul\":1209:1218   */\n      dup10\n        /* \"#utility.yul\":1205:1227   */\n      add\n        /* \"#utility.yul\":1184:1237   */\n      tag_61\n      jump\t// in\n    tag_71:\n        /* \"#utility.yul\":1174:1237   */\n      swap5\n      pop\n        /* \"#utility.yul\":1129:1247   */\n      pop\n        /* \"#utility.yul\":1314:1316   */\n      0x40\n        /* \"#utility.yul\":1303:1312   */\n      dup7\n        /* \"#utility.yul\":1299:1317   */\n      add\n        /* \"#utility.yul\":1286:1318   */\n      calldataload\n        /* \"#utility.yul\":1345:1363   */\n      0xffffffffffffffff\n        /* \"#utility.yul\":1337:1343   */\n      dup2\n        /* \"#utility.yul\":1334:1364   */\n      gt\n        /* \"#utility.yul\":1331:1333   */\n      iszero\n      tag_72\n      jumpi\n        /* \"#utility.yul\":1377:1378   */\n      0x00\n        /* \"#utility.yul\":1374:1375   */\n      dup1\n        /* \"#utility.yul\":1367:1379   */\n      revert\n        /* \"#utility.yul\":1331:1333   */\n    tag_72:\n        /* \"#utility.yul\":1413:1478   */\n      tag_73\n        /* \"#utility.yul\":1470:1477   */\n      dup9\n        /* \"#utility.yul\":1461:1467   */\n      dup3\n        /* \"#utility.yul\":1450:1459   */\n      dup10\n        /* \"#utility.yul\":1446:1468   */\n      add\n        /* \"#utility.yul\":1413:1478   */\n      tag_56\n      jump\t// in\n    tag_73:\n        /* \"#utility.yul\":1395:1478   */\n      swap4\n      pop\n      swap4\n      pop\n        /* \"#utility.yul\":1257:1488   */\n      pop\n        /* \"#utility.yul\":1527:1529   */\n      0x60\n        /* \"#utility.yul\":1553:1606   */\n      tag_74\n        /* \"#utility.yul\":1598:1605   */\n      dup9\n        /* \"#utility.yul\":1589:1595   */\n      dup3\n        /* \"#utility.yul\":1578:1587   */\n      dup10\n        /* \"#utility.yul\":1574:1596   */\n      add\n        /* \"#utility.yul\":1553:1606   */\n      tag_61\n      jump\t// in\n    tag_74:\n        /* \"#utility.yul\":1543:1606   */\n      swap2\n      pop\n        /* \"#utility.yul\":1498:1616   */\n      pop\n        /* \"#utility.yul\":929:1623   */\n      swap3\n      swap6\n      pop\n      swap3\n      swap6\n      swap1\n      swap4\n      pop\n      jump\t// out\n        /* \"#utility.yul\":1629:1771   */\n    tag_75:\n        /* \"#utility.yul\":1732:1764   */\n      tag_77\n        /* \"#utility.yul\":1758:1763   */\n      dup2\n        /* \"#utility.yul\":1732:1764   */\n      tag_78\n      jump\t// in\n    tag_77:\n        /* \"#utility.yul\":1727:1730   */\n      dup3\n        /* \"#utility.yul\":1720:1765   */\n      mstore\n        /* \"#utility.yul\":1710:1771   */\n      pop\n      pop\n      jump\t// out\n        /* \"#utility.yul\":1777:1895   */\n    tag_79:\n        /* \"#utility.yul\":1864:1888   */\n      tag_81\n        /* \"#utility.yul\":1882:1887   */\n      dup2\n        /* \"#utility.yul\":1864:1888   */\n      tag_82\n      jump\t// in\n    tag_81:\n        /* \"#utility.yul\":1859:1862   */\n      dup3\n        /* \"#utility.yul\":1852:1889   */\n      mstore\n        /* \"#utility.yul\":1842:1895   */\n      pop\n      pop\n      jump\t// out\n        /* \"#utility.yul\":1901:2010   */\n    tag_83:\n        /* \"#utility.yul\":1982:2003   */\n      tag_85\n        /* \"#utility.yul\":1997:2002   */\n      dup2\n        /* \"#utility.yul\":1982:2003   */\n      tag_86\n      jump\t// in\n    tag_85:\n        /* \"#utility.yul\":1977:1980   */\n      dup3\n        /* \"#utility.yul\":1970:2004   */\n      mstore\n        /* \"#utility.yul\":1960:2010   */\n      pop\n      pop\n      jump\t// out\n        /* \"#utility.yul\":2040:2344   */\n    tag_87:\n      0x00\n        /* \"#utility.yul\":2159:2230   */\n      tag_89\n        /* \"#utility.yul\":2223:2229   */\n      dup4\n        /* \"#utility.yul\":2218:2221   */\n      dup6\n        /* \"#utility.yul\":2159:2230   */\n      tag_90\n      jump\t// in\n    tag_89:\n        /* \"#utility.yul\":2152:2230   */\n      swap4\n      pop\n        /* \"#utility.yul\":2240:2283   */\n      tag_91\n        /* \"#utility.yul\":2276:2282   */\n      dup4\n        /* \"#utility.yul\":2271:2274   */\n      dup6\n        /* \"#utility.yul\":2264:2269   */\n      dup5\n        /* \"#utility.yul\":2240:2283   */\n      tag_92\n      jump\t// in\n    tag_91:\n        /* \"#utility.yul\":2308:2337   */\n      tag_93\n        /* \"#utility.yul\":2330:2336   */\n      dup4\n        /* \"#utility.yul\":2308:2337   */\n      tag_94\n      jump\t// in\n    tag_93:\n        /* \"#utility.yul\":2303:2306   */\n      dup5\n        /* \"#utility.yul\":2299:2338   */\n      add\n        /* \"#utility.yul\":2292:2338   */\n      swap1\n      pop\n        /* \"#utility.yul\":2142:2344   */\n      swap4\n      swap3\n      pop\n      pop\n      pop\n      jump\t// out\n        /* \"#utility.yul\":2350:2714   */\n    tag_95:\n      0x00\n        /* \"#utility.yul\":2466:2505   */\n      tag_97\n        /* \"#utility.yul\":2499:2504   */\n      dup3\n        /* \"#utility.yul\":2466:2505   */\n      tag_98\n      jump\t// in\n    tag_97:\n        /* \"#utility.yul\":2521:2592   */\n      tag_99\n        /* \"#utility.yul\":2585:2591   */\n      dup2\n        /* \"#utility.yul\":2580:2583   */\n      dup6\n        /* \"#utility.yul\":2521:2592   */\n      tag_90\n      jump\t// in\n    tag_99:\n        /* \"#utility.yul\":2514:2592   */\n      swap4\n      pop\n        /* \"#utility.yul\":2601:2653   */\n      tag_100\n        /* \"#utility.yul\":2646:2652   */\n      dup2\n        /* \"#utility.yul\":2641:2644   */\n      dup6\n        /* \"#utility.yul\":2634:2638   */\n      0x20\n        /* \"#utility.yul\":2627:2632   */\n      dup7\n        /* \"#utility.yul\":2623:2639   */\n      add\n        /* \"#utility.yul\":2601:2653   */\n      tag_101\n      jump\t// in\n    tag_100:\n        /* \"#utility.yul\":2678:2707   */\n      tag_102\n        /* \"#utility.yul\":2700:2706   */\n      dup2\n        /* \"#utility.yul\":2678:2707   */\n      tag_94\n      jump\t// in\n    tag_102:\n        /* \"#utility.yul\":2673:2676   */\n      dup5\n        /* \"#utility.yul\":2669:2708   */\n      add\n        /* \"#utility.yul\":2662:2708   */\n      swap2\n      pop\n        /* \"#utility.yul\":2442:2714   */\n      pop\n      swap3\n      swap2\n      pop\n      pop\n      jump\t// out\n        /* \"#utility.yul\":2720:3042   */\n    tag_103:\n      0x00\n        /* \"#utility.yul\":2883:2950   */\n      tag_105\n        /* \"#utility.yul\":2947:2949   */\n      0x18\n        /* \"#utility.yul\":2942:2945   */\n      dup4\n        /* \"#utility.yul\":2883:2950   */\n      tag_90\n      jump\t// in\n    tag_105:\n        /* \"#utility.yul\":2876:2950   */\n      swap2\n      pop\n        /* \"#utility.yul\":2980:3006   */\n      0x696e636f7272656374207374617274696e672070726963650000000000000000\n        /* \"#utility.yul\":2976:2977   */\n      0x00\n        /* \"#utility.yul\":2971:2974   */\n      dup4\n        /* \"#utility.yul\":2967:2978   */\n      add\n        /* \"#utility.yul\":2960:3007   */\n      mstore\n        /* \"#utility.yul\":3033:3035   */\n      0x20\n        /* \"#utility.yul\":3028:3031   */\n      dup3\n        /* \"#utility.yul\":3024:3036   */\n      add\n        /* \"#utility.yul\":3017:3036   */\n      swap1\n      pop\n        /* \"#utility.yul\":2866:3042   */\n      swap2\n      swap1\n      pop\n      jump\t// out\n        /* \"#utility.yul\":3048:3166   */\n    tag_106:\n        /* \"#utility.yul\":3135:3159   */\n      tag_108\n        /* \"#utility.yul\":3153:3158   */\n      dup2\n        /* \"#utility.yul\":3135:3159   */\n      tag_109\n      jump\t// in\n    tag_108:\n        /* \"#utility.yul\":3130:3133   */\n      dup3\n        /* \"#utility.yul\":3123:3160   */\n      mstore\n        /* \"#utility.yul\":3113:3166   */\n      pop\n      pop\n      jump\t// out\n        /* \"#utility.yul\":3172:3394   */\n    tag_15:\n      0x00\n        /* \"#utility.yul\":3303:3305   */\n      0x20\n        /* \"#utility.yul\":3292:3301   */\n      dup3\n        /* \"#utility.yul\":3288:3306   */\n      add\n        /* \"#utility.yul\":3280:3306   */\n      swap1\n      pop\n        /* \"#utility.yul\":3316:3387   */\n      tag_111\n        /* \"#utility.yul\":3384:3385   */\n      0x00\n        /* \"#utility.yul\":3373:3382   */\n      dup4\n        /* \"#utility.yul\":3369:3386   */\n      add\n        /* \"#utility.yul\":3360:3366   */\n      dup5\n        /* \"#utility.yul\":3316:3387   */\n      tag_79\n      jump\t// in\n    tag_111:\n        /* \"#utility.yul\":3270:3394   */\n      swap3\n      swap2\n      pop\n      pop\n      jump\t// out\n        /* \"#utility.yul\":3400:4508   */\n    tag_11:\n      0x00\n        /* \"#utility.yul\":3757:3760   */\n      0x0100\n        /* \"#utility.yul\":3746:3755   */\n      dup3\n        /* \"#utility.yul\":3742:3761   */\n      add\n        /* \"#utility.yul\":3734:3761   */\n      swap1\n      pop\n        /* \"#utility.yul\":3771:3858   */\n      tag_113\n        /* \"#utility.yul\":3855:3856   */\n      0x00\n        /* \"#utility.yul\":3844:3853   */\n      dup4\n        /* \"#utility.yul\":3840:3857   */\n      add\n        /* \"#utility.yul\":3831:3837   */\n      dup12\n        /* \"#utility.yul\":3771:3858   */\n      tag_75\n      jump\t// in\n    tag_113:\n        /* \"#utility.yul\":3868:3940   */\n      tag_114\n        /* \"#utility.yul\":3936:3938   */\n      0x20\n        /* \"#utility.yul\":3925:3934   */\n      dup4\n        /* \"#utility.yul\":3921:3939   */\n      add\n        /* \"#utility.yul\":3912:3918   */\n      dup11\n        /* \"#utility.yul\":3868:3940   */\n      tag_106\n      jump\t// in\n    tag_114:\n        /* \"#utility.yul\":3950:4022   */\n      tag_115\n        /* \"#utility.yul\":4018:4020   */\n      0x40\n        /* \"#utility.yul\":4007:4016   */\n      dup4\n        /* \"#utility.yul\":4003:4021   */\n      add\n        /* \"#utility.yul\":3994:4000   */\n      dup10\n        /* \"#utility.yul\":3950:4022   */\n      tag_106\n      jump\t// in\n    tag_115:\n        /* \"#utility.yul\":4032:4104   */\n      tag_116\n        /* \"#utility.yul\":4100:4102   */\n      0x60\n        /* \"#utility.yul\":4089:4098   */\n      dup4\n        /* \"#utility.yul\":4085:4103   */\n      add\n        /* \"#utility.yul\":4076:4082   */\n      dup9\n        /* \"#utility.yul\":4032:4104   */\n      tag_106\n      jump\t// in\n    tag_116:\n        /* \"#utility.yul\":4114:4187   */\n      tag_117\n        /* \"#utility.yul\":4182:4185   */\n      0x80\n        /* \"#utility.yul\":4171:4180   */\n      dup4\n        /* \"#utility.yul\":4167:4186   */\n      add\n        /* \"#utility.yul\":4158:4164   */\n      dup8\n        /* \"#utility.yul\":4114:4187   */\n      tag_106\n      jump\t// in\n    tag_117:\n        /* \"#utility.yul\":4197:4270   */\n      tag_118\n        /* \"#utility.yul\":4265:4268   */\n      0xa0\n        /* \"#utility.yul\":4254:4263   */\n      dup4\n        /* \"#utility.yul\":4250:4269   */\n      add\n        /* \"#utility.yul\":4241:4247   */\n      dup7\n        /* \"#utility.yul\":4197:4270   */\n      tag_106\n      jump\t// in\n    tag_118:\n        /* \"#utility.yul\":4318:4327   */\n      dup2\n        /* \"#utility.yul\":4312:4316   */\n      dup2\n        /* \"#utility.yul\":4308:4328   */\n      sub\n        /* \"#utility.yul\":4302:4305   */\n      0xc0\n        /* \"#utility.yul\":4291:4300   */\n      dup4\n        /* \"#utility.yul\":4287:4306   */\n      add\n        /* \"#utility.yul\":4280:4329   */\n      mstore\n        /* \"#utility.yul\":4346:4424   */\n      tag_119\n        /* \"#utility.yul\":4419:4423   */\n      dup2\n        /* \"#utility.yul\":4410:4416   */\n      dup6\n        /* \"#utility.yul\":4346:4424   */\n      tag_95\n      jump\t// in\n    tag_119:\n        /* \"#utility.yul\":4338:4424   */\n      swap1\n      pop\n        /* \"#utility.yul\":4434:4501   */\n      tag_120\n        /* \"#utility.yul\":4496:4499   */\n      0xe0\n        /* \"#utility.yul\":4485:4494   */\n      dup4\n        /* \"#utility.yul\":4481:4500   */\n      add\n        /* \"#utility.yul\":4472:4478   */\n      dup5\n        /* \"#utility.yul\":4434:4501   */\n      tag_83\n      jump\t// in\n    tag_120:\n        /* \"#utility.yul\":3724:4508   */\n      swap10\n      swap9\n      pop\n      pop\n      pop\n      pop\n      pop\n      pop\n      pop\n      pop\n      pop\n      jump\t// out\n        /* \"#utility.yul\":4514:4933   */\n    tag_35:\n      0x00\n        /* \"#utility.yul\":4718:4720   */\n      0x20\n        /* \"#utility.yul\":4707:4716   */\n      dup3\n        /* \"#utility.yul\":4703:4721   */\n      add\n        /* \"#utility.yul\":4695:4721   */\n      swap1\n      pop\n        /* \"#utility.yul\":4767:4776   */\n      dup2\n        /* \"#utility.yul\":4761:4765   */\n      dup2\n        /* \"#utility.yul\":4757:4777   */\n      sub\n        /* \"#utility.yul\":4753:4754   */\n      0x00\n        /* \"#utility.yul\":4742:4751   */\n      dup4\n        /* \"#utility.yul\":4738:4755   */\n      add\n        /* \"#utility.yul\":4731:4778   */\n      mstore\n        /* \"#utility.yul\":4795:4926   */\n      tag_122\n        /* \"#utility.yul\":4921:4925   */\n      dup2\n        /* \"#utility.yul\":4795:4926   */\n      tag_103\n      jump\t// in\n    tag_122:\n        /* \"#utility.yul\":4787:4926   */\n      swap1\n      pop\n        /* \"#utility.yul\":4685:4933   */\n      swap2\n      swap1\n      pop\n      jump\t// out\n        /* \"#utility.yul\":4939:5603   */\n    tag_44:\n      0x00\n        /* \"#utility.yul\":5184:5187   */\n      0x80\n        /* \"#utility.yul\":5173:5182   */\n      dup3\n        /* \"#utility.yul\":5169:5188   */\n      add\n        /* \"#utility.yul\":5161:5188   */\n      swap1\n      pop\n        /* \"#utility.yul\":5198:5269   */\n      tag_124\n        /* \"#utility.yul\":5266:5267   */\n      0x00\n        /* \"#utility.yul\":5255:5264   */\n      dup4\n        /* \"#utility.yul\":5251:5268   */\n      add\n        /* \"#utility.yul\":5242:5248   */\n      dup9\n        /* \"#utility.yul\":5198:5269   */\n      tag_106\n      jump\t// in\n    tag_124:\n        /* \"#utility.yul\":5316:5325   */\n      dup2\n        /* \"#utility.yul\":5310:5314   */\n      dup2\n        /* \"#utility.yul\":5306:5326   */\n      sub\n        /* \"#utility.yul\":5301:5303   */\n      0x20\n        /* \"#utility.yul\":5290:5299   */\n      dup4\n        /* \"#utility.yul\":5286:5304   */\n      add\n        /* \"#utility.yul\":5279:5327   */\n      mstore\n        /* \"#utility.yul\":5344:5432   */\n      tag_125\n        /* \"#utility.yul\":5427:5431   */\n      dup2\n        /* \"#utility.yul\":5418:5424   */\n      dup7\n        /* \"#utility.yul\":5410:5416   */\n      dup9\n        /* \"#utility.yul\":5344:5432   */\n      tag_87\n      jump\t// in\n    tag_125:\n        /* \"#utility.yul\":5336:5432   */\n      swap1\n      pop\n        /* \"#utility.yul\":5442:5514   */\n      tag_126\n        /* \"#utility.yul\":5510:5512   */\n      0x40\n        /* \"#utility.yul\":5499:5508   */\n      dup4\n        /* \"#utility.yul\":5495:5513   */\n      add\n        /* \"#utility.yul\":5486:5492   */\n      dup6\n        /* \"#utility.yul\":5442:5514   */\n      tag_106\n      jump\t// in\n    tag_126:\n        /* \"#utility.yul\":5524:5596   */\n      tag_127\n        /* \"#utility.yul\":5592:5594   */\n      0x60\n        /* \"#utility.yul\":5581:5590   */\n      dup4\n        /* \"#utility.yul\":5577:5595   */\n      add\n        /* \"#utility.yul\":5568:5574   */\n      dup5\n        /* \"#utility.yul\":5524:5596   */\n      tag_106\n      jump\t// in\n    tag_127:\n        /* \"#utility.yul\":5151:5603   */\n      swap7\n      swap6\n      pop\n      pop\n      pop\n      pop\n      pop\n      pop\n      jump\t// out\n        /* \"#utility.yul\":5609:5708   */\n    tag_98:\n      0x00\n        /* \"#utility.yul\":5695:5700   */\n      dup2\n        /* \"#utility.yul\":5689:5701   */\n      mload\n        /* \"#utility.yul\":5679:5701   */\n      swap1\n      pop\n        /* \"#utility.yul\":5668:5708   */\n      swap2\n      swap1\n      pop\n      jump\t// out\n        /* \"#utility.yul\":5714:5883   */\n    tag_90:\n      0x00\n        /* \"#utility.yul\":5832:5838   */\n      dup3\n        /* \"#utility.yul\":5827:5830   */\n      dup3\n        /* \"#utility.yul\":5820:5839   */\n      mstore\n        /* \"#utility.yul\":5872:5876   */\n      0x20\n        /* \"#utility.yul\":5867:5870   */\n      dup3\n        /* \"#utility.yul\":5863:5877   */\n      add\n        /* \"#utility.yul\":5848:5877   */\n      swap1\n      pop\n        /* \"#utility.yul\":5810:5883   */\n      swap3\n      swap2\n      pop\n      pop\n      jump\t// out\n        /* \"#utility.yul\":5889:6194   */\n    tag_37:\n      0x00\n        /* \"#utility.yul\":5948:5968   */\n      tag_131\n        /* \"#utility.yul\":5966:5967   */\n      dup3\n        /* \"#utility.yul\":5948:5968   */\n      tag_109\n      jump\t// in\n    tag_131:\n        /* \"#utility.yul\":5943:5968   */\n      swap2\n      pop\n        /* \"#utility.yul\":5982:6002   */\n      tag_132\n        /* \"#utility.yul\":6000:6001   */\n      dup4\n        /* \"#utility.yul\":5982:6002   */\n      tag_109\n      jump\t// in\n    tag_132:\n        /* \"#utility.yul\":5977:6002   */\n      swap3\n      pop\n        /* \"#utility.yul\":6136:6137   */\n      dup3\n        /* \"#utility.yul\":6068:6134   */\n      0xffffffffffffffffffffffffffffffffffffffffffffffffffffffffffffffff\n        /* \"#utility.yul\":6064:6138   */\n      sub\n        /* \"#utility.yul\":6061:6062   */\n      dup3\n        /* \"#utility.yul\":6058:6139   */\n      gt\n        /* \"#utility.yul\":6055:6057   */\n      iszero\n      tag_133\n      jumpi\n        /* \"#utility.yul\":6142:6160   */\n      tag_134\n      tag_135\n      jump\t// in\n    tag_134:\n        /* \"#utility.yul\":6055:6057   */\n    tag_133:\n        /* \"#utility.yul\":6186:6187   */\n      dup3\n        /* \"#utility.yul\":6183:6184   */\n      dup3\n        /* \"#utility.yul\":6179:6188   */\n      add\n        /* \"#utility.yul\":6172:6188   */\n      swap1\n      pop\n        /* \"#utility.yul\":5933:6194   */\n      swap3\n      swap2\n      pop\n      pop\n      jump\t// out\n        /* \"#utility.yul\":6200:6548   */\n    tag_32:\n      0x00\n        /* \"#utility.yul\":6263:6283   */\n      tag_137\n        /* \"#utility.yul\":6281:6282   */\n      dup3\n        /* \"#utility.yul\":6263:6283   */\n      tag_109\n      jump\t// in\n    tag_137:\n        /* \"#utility.yul\":6258:6283   */\n      swap2\n      pop\n        /* \"#utility.yul\":6297:6317   */\n      tag_138\n        /* \"#utility.yul\":6315:6316   */\n      dup4\n        /* \"#utility.yul\":6297:6317   */\n      tag_109\n      jump\t// in\n    tag_138:\n        /* \"#utility.yul\":6292:6317   */\n      swap3\n      pop\n        /* \"#utility.yul\":6485:6486   */\n      dup2\n        /* \"#utility.yul\":6417:6483   */\n      0xffffffffffffffffffffffffffffffffffffffffffffffffffffffffffffffff\n        /* \"#utility.yul\":6413:6487   */\n      div\n        /* \"#utility.yul\":6410:6411   */\n      dup4\n        /* \"#utility.yul\":6407:6488   */\n      gt\n        /* \"#utility.yul\":6402:6403   */\n      dup3\n        /* \"#utility.yul\":6395:6404   */\n      iszero\n        /* \"#utility.yul\":6388:6405   */\n      iszero\n        /* \"#utility.yul\":6384:6489   */\n      and\n        /* \"#utility.yul\":6381:6383   */\n      iszero\n      tag_139\n      jumpi\n        /* \"#utility.yul\":6492:6510   */\n      tag_140\n      tag_135\n      jump\t// in\n    tag_140:\n        /* \"#utility.yul\":6381:6383   */\n    tag_139:\n        /* \"#utility.yul\":6540:6541   */\n      dup3\n        /* \"#utility.yul\":6537:6538   */\n      dup3\n        /* \"#utility.yul\":6533:6542   */\n      mul\n        /* \"#utility.yul\":6522:6542   */\n      swap1\n      pop\n        /* \"#utility.yul\":6248:6548   */\n      swap3\n      swap2\n      pop\n      pop\n      jump\t// out\n        /* \"#utility.yul\":6554:6745   */\n    tag_42:\n      0x00\n        /* \"#utility.yul\":6614:6634   */\n      tag_142\n        /* \"#utility.yul\":6632:6633   */\n      dup3\n        /* \"#utility.yul\":6614:6634   */\n      tag_109\n      jump\t// in\n    tag_142:\n        /* \"#utility.yul\":6609:6634   */\n      swap2\n      pop\n        /* \"#utility.yul\":6648:6668   */\n      tag_143\n        /* \"#utility.yul\":6666:6667   */\n      dup4\n        /* \"#utility.yul\":6648:6668   */\n      tag_109\n      jump\t// in\n    tag_143:\n        /* \"#utility.yul\":6643:6668   */\n      swap3\n      pop\n        /* \"#utility.yul\":6687:6688   */\n      dup3\n        /* \"#utility.yul\":6684:6685   */\n      dup3\n        /* \"#utility.yul\":6681:6689   */\n      lt\n        /* \"#utility.yul\":6678:6680   */\n      iszero\n      tag_144\n      jumpi\n        /* \"#utility.yul\":6692:6710   */\n      tag_145\n      tag_135\n      jump\t// in\n    tag_145:\n        /* \"#utility.yul\":6678:6680   */\n    tag_144:\n        /* \"#utility.yul\":6737:6738   */\n      dup3\n        /* \"#utility.yul\":6734:6735   */\n      dup3\n        /* \"#utility.yul\":6730:6739   */\n      sub\n        /* \"#utility.yul\":6722:6739   */\n      swap1\n      pop\n        /* \"#utility.yul\":6599:6745   */\n      swap3\n      swap2\n      pop\n      pop\n      jump\t// out\n        /* \"#utility.yul\":6751:6847   */\n    tag_82:\n      0x00\n        /* \"#utility.yul\":6817:6841   */\n      tag_147\n        /* \"#utility.yul\":6835:6840   */\n      dup3\n        /* \"#utility.yul\":6817:6841   */\n      tag_148\n      jump\t// in\n    tag_147:\n        /* \"#utility.yul\":6806:6841   */\n      swap1\n      pop\n        /* \"#utility.yul\":6796:6847   */\n      swap2\n      swap1\n      pop\n      jump\t// out\n        /* \"#utility.yul\":6853:6957   */\n    tag_78:\n      0x00\n        /* \"#utility.yul\":6927:6951   */\n      tag_150\n        /* \"#utility.yul\":6945:6950   */\n      dup3\n        /* \"#utility.yul\":6927:6951   */\n      tag_148\n      jump\t// in\n    tag_150:\n        /* \"#utility.yul\":6916:6951   */\n      swap1\n      pop\n        /* \"#utility.yul\":6906:6957   */\n      swap2\n      swap1\n      pop\n      jump\t// out\n        /* \"#utility.yul\":6963:7053   */\n    tag_86:\n      0x00\n        /* \"#utility.yul\":7040:7045   */\n      dup2\n        /* \"#utility.yul\":7033:7046   */\n      iszero\n        /* \"#utility.yul\":7026:7047   */\n      iszero\n        /* \"#utility.yul\":7015:7047   */\n      swap1\n      pop\n        /* \"#utility.yul\":7005:7053   */\n      swap2\n      swap1\n      pop\n      jump\t// out\n        /* \"#utility.yul\":7059:7185   */\n    tag_148:\n      0x00\n        /* \"#utility.yul\":7136:7178   */\n      0xffffffffffffffffffffffffffffffffffffffff\n        /* \"#utility.yul\":7129:7134   */\n      dup3\n        /* \"#utility.yul\":7125:7179   */\n      and\n        /* \"#utility.yul\":7114:7179   */\n      swap1\n      pop\n        /* \"#utility.yul\":7104:7185   */\n      swap2\n      swap1\n      pop\n      jump\t// out\n        /* \"#utility.yul\":7191:7268   */\n    tag_109:\n      0x00\n        /* \"#utility.yul\":7257:7262   */\n      dup2\n        /* \"#utility.yul\":7246:7262   */\n      swap1\n      pop\n        /* \"#utility.yul\":7236:7268   */\n      swap2\n      swap1\n      pop\n      jump\t// out\n        /* \"#utility.yul\":7274:7428   */\n    tag_92:\n        /* \"#utility.yul\":7358:7364   */\n      dup3\n        /* \"#utility.yul\":7353:7356   */\n      dup2\n        /* \"#utility.yul\":7348:7351   */\n      dup4\n        /* \"#utility.yul\":7335:7365   */\n      calldatacopy\n        /* \"#utility.yul\":7420:7421   */\n      0x00\n        /* \"#utility.yul\":7411:7417   */\n      dup4\n        /* \"#utility.yul\":7406:7409   */\n      dup4\n        /* \"#utility.yul\":7402:7418   */\n      add\n        /* \"#utility.yul\":7395:7422   */\n      mstore\n        /* \"#utility.yul\":7325:7428   */\n      pop\n      pop\n      pop\n      jump\t// out\n        /* \"#utility.yul\":7434:7741   */\n    tag_101:\n        /* \"#utility.yul\":7502:7503   */\n      0x00\n        /* \"#utility.yul\":7512:7625   */\n    tag_156:\n        /* \"#utility.yul\":7526:7532   */\n      dup4\n        /* \"#utility.yul\":7523:7524   */\n      dup2\n        /* \"#utility.yul\":7520:7533   */\n      lt\n        /* \"#utility.yul\":7512:7625   */\n      iszero\n      tag_158\n      jumpi\n        /* \"#utility.yul\":7611:7612   */\n      dup1\n        /* \"#utility.yul\":7606:7609   */\n      dup3\n        /* \"#utility.yul\":7602:7613   */\n      add\n        /* \"#utility.yul\":7596:7614   */\n      mload\n        /* \"#utility.yul\":7592:7593   */\n      dup2\n        /* \"#utility.yul\":7587:7590   */\n      dup5\n        /* \"#utility.yul\":7583:7594   */\n      add\n        /* \"#utility.yul\":7576:7615   */\n      mstore\n        /* \"#utility.yul\":7548:7550   */\n      0x20\n        /* \"#utility.yul\":7545:7546   */\n      dup2\n        /* \"#utility.yul\":7541:7551   */\n      add\n        /* \"#utility.yul\":7536:7551   */\n      swap1\n      pop\n        /* \"#utility.yul\":7512:7625   */\n      jump(tag_156)\n    tag_158:\n        /* \"#utility.yul\":7643:7649   */\n      dup4\n        /* \"#utility.yul\":7640:7641   */\n      dup2\n        /* \"#utility.yul\":7637:7650   */\n      gt\n        /* \"#utility.yul\":7634:7636   */\n      iszero\n      tag_159\n      jumpi\n        /* \"#utility.yul\":7723:7724   */\n      0x00\n        /* \"#utility.yul\":7714:7720   */\n      dup5\n        /* \"#utility.yul\":7709:7712   */\n      dup5\n        /* \"#utility.yul\":7705:7721   */\n      add\n        /* \"#utility.yul\":7698:7725   */\n      mstore\n        /* \"#utility.yul\":7634:7636   */\n    tag_159:\n        /* \"#utility.yul\":7483:7741   */\n      pop\n      pop\n      pop\n      pop\n      jump\t// out\n        /* \"#utility.yul\":7747:8067   */\n    tag_23:\n      0x00\n        /* \"#utility.yul\":7828:7829   */\n      0x02\n        /* \"#utility.yul\":7822:7826   */\n      dup3\n        /* \"#utility.yul\":7818:7830   */\n      div\n        /* \"#utility.yul\":7808:7830   */\n      swap1\n      pop\n        /* \"#utility.yul\":7875:7876   */\n      0x01\n        /* \"#utility.yul\":7869:7873   */\n      dup3\n        /* \"#utility.yul\":7865:7877   */\n      and\n        /* \"#utility.yul\":7896:7914   */\n      dup1\n        /* \"#utility.yul\":7886:7888   */\n      tag_161\n      jumpi\n        /* \"#utility.yul\":7952:7956   */\n      0x7f\n        /* \"#utility.yul\":7944:7950   */\n      dup3\n        /* \"#utility.yul\":7940:7957   */\n      and\n        /* \"#utility.yul\":7930:7957   */\n      swap2\n      pop\n        /* \"#utility.yul\":7886:7888   */\n    tag_161:\n        /* \"#utility.yul\":8014:8016   */\n      0x20\n        /* \"#utility.yul\":8006:8012   */\n      dup3\n        /* \"#utility.yul\":8003:8017   */\n      lt\n        /* \"#utility.yul\":7983:8001   */\n      dup2\n        /* \"#utility.yul\":7980:8018   */\n      eq\n        /* \"#utility.yul\":7977:7979   */\n      iszero\n      tag_162\n      jumpi\n        /* \"#utility.yul\":8033:8051   */\n      tag_163\n      tag_164\n      jump\t// in\n    tag_163:\n        /* \"#utility.yul\":7977:7979   */\n    tag_162:\n        /* \"#utility.yul\":7798:8067   */\n      pop\n      swap2\n      swap1\n      pop\n      jump\t// out\n        /* \"#utility.yul\":8073:8253   */\n    tag_135:\n        /* \"#utility.yul\":8121:8198   */\n      0x4e487b7100000000000000000000000000000000000000000000000000000000\n        /* \"#utility.yul\":8118:8119   */\n      0x00\n        /* \"#utility.yul\":8111:8199   */\n      mstore\n        /* \"#utility.yul\":8218:8222   */\n      0x11\n        /* \"#utility.yul\":8215:8216   */\n      0x04\n        /* \"#utility.yul\":8208:8223   */\n      mstore\n        /* \"#utility.yul\":8242:8246   */\n      0x24\n        /* \"#utility.yul\":8239:8240   */\n      0x00\n        /* \"#utility.yul\":8232:8247   */\n      revert\n        /* \"#utility.yul\":8259:8439   */\n    tag_164:\n        /* \"#utility.yul\":8307:8384   */\n      0x4e487b7100000000000000000000000000000000000000000000000000000000\n        /* \"#utility.yul\":8304:8305   */\n      0x00\n        /* \"#utility.yul\":8297:8385   */\n      mstore\n        /* \"#utility.yul\":8404:8408   */\n      0x22\n        /* \"#utility.yul\":8401:8402   */\n      0x04\n        /* \"#utility.yul\":8394:8409   */\n      mstore\n        /* \"#utility.yul\":8428:8432   */\n      0x24\n        /* \"#utility.yul\":8425:8426   */\n      0x00\n        /* \"#utility.yul\":8418:8433   */\n      revert\n        /* \"#utility.yul\":8445:8547   */\n    tag_94:\n      0x00\n        /* \"#utility.yul\":8537:8539   */\n      0x1f\n        /* \"#utility.yul\":8533:8540   */\n      not\n        /* \"#utility.yul\":8528:8530   */\n      0x1f\n        /* \"#utility.yul\":8521:8526   */\n      dup4\n        /* \"#utility.yul\":8517:8531   */\n      add\n        /* \"#utility.yul\":8513:8541   */\n      and\n        /* \"#utility.yul\":8503:8541   */\n      swap1\n      pop\n        /* \"#utility.yul\":8493:8547   */\n      swap2\n      swap1\n      pop\n      jump\t// out\n        /* \"#utility.yul\":8553:8675   */\n    tag_64:\n        /* \"#utility.yul\":8626:8650   */\n      tag_169\n        /* \"#utility.yul\":8644:8649   */\n      dup2\n        /* \"#utility.yul\":8626:8650   */\n      tag_109\n      jump\t// in\n    tag_169:\n        /* \"#utility.yul\":8619:8624   */\n      dup2\n        /* \"#utility.yul\":8616:8651   */\n      eq\n        /* \"#utility.yul\":8606:8608   */\n      tag_170\n      jumpi\n        /* \"#utility.yul\":8665:8666   */\n      0x00\n        /* \"#utility.yul\":8662:8663   */\n      dup1\n        /* \"#utility.yul\":8655:8667   */\n      revert\n        /* \"#utility.yul\":8606:8608   */\n    tag_170:\n        /* \"#utility.yul\":8596:8675   */\n      pop\n      jump\t// out\n\n    auxdata: 0xa2646970667358221220fc0ff09dd38428d8588af91c5e9b78ea6731439e5f07e0fd104a4128f294f4ed64736f6c63430008000033\n}\n",
				"bytecode": {
					"linkReferences": {},
					"object": "608060405234801561001057600080fd5b50336000806101000a81548173ffffffffffffffffffffffffffffffffffffffff021916908373ffffffffffffffffffffffffffffffffffffffff160217905550610a53806100606000396000f3fe608060405234801561001057600080fd5b50600436106100415760003560e01c8063571a26a0146100465780638da5cb5b1461007d578063e9835d151461009b575b600080fd5b610060600480360381019061005b9190610530565b6100b7565b6040516100749897969594939291906106d6565b60405180910390f35b6100856101c4565b60405161009291906106bb565b60405180910390f35b6100b560048036038101906100b09190610559565b6101e8565b005b600181815481106100c757600080fd5b90600052602060002090600802016000915090508060000160009054906101000a900473ffffffffffffffffffffffffffffffffffffffff169080600101549080600201549080600301549080600401549080600501549080600601805461012e90610965565b80601f016020809104026020016040519081016040528092919081815260200182805461015a90610965565b80156101a75780601f1061017c576101008083540402835291602001916101a7565b820191906000526020600020905b81548152906001019060200180831161018a57829003601f168201915b5050505050908060070160009054906101000a900460ff16905088565b60008054906101000a900473ffffffffffffffffffffffffffffffffffffffff1681565b60008082146101f757816101fc565b6202a3005b9050808561020a919061083b565b86101561024c576040517f08c379a00000000000000000000000000000000000000000000000000000000081526004016102439061075b565b60405180910390fd5b60006040518061010001604052803373ffffffffffffffffffffffffffffffffffffffff168152602001888152602001888152602001428152602001834261029491906107e5565b815260200187815260200186868080601f016020809104026020016040519081016040528093929190818152602001838380828437600081840152601f19601f820116905080830192505050505050508152602001600015158152509050600181908060018154018082558091505060019003906000526020600020906008020160009091909190915060008201518160000160006101000a81548173ffffffffffffffffffffffffffffffffffffffff021916908373ffffffffffffffffffffffffffffffffffffffff1602179055506020820151816001015560408201518160020155606082015181600301556080820151816004015560a0820151816005015560c08201518160060190805190602001906103b392919061042e565b5060e08201518160070160006101000a81548160ff02191690831515021790555050507f5bf34ed94988e5dcdc7d1faaa54eb1d3b55f45d5f11457e235afb21a8ebbe73c600180805490506104089190610895565b86868a8660405161041d95949392919061077b565b60405180910390a150505050505050565b82805461043a90610965565b90600052602060002090601f01602090048101928261045c57600085556104a3565b82601f1061047557805160ff19168380011785556104a3565b828001600101855582156104a3579182015b828111156104a2578251825591602001919060010190610487565b5b5090506104b091906104b4565b5090565b5b808211156104cd5760008160009055506001016104b5565b5090565b60008083601f8401126104e357600080fd5b8235905067ffffffffffffffff8111156104fc57600080fd5b60208301915083600182028301111561051457600080fd5b9250929050565b60008135905061052a81610a06565b92915050565b60006020828403121561054257600080fd5b60006105508482850161051b565b91505092915050565b60008060008060006080868803121561057157600080fd5b600061057f8882890161051b565b95505060206105908882890161051b565b945050604086013567ffffffffffffffff8111156105ad57600080fd5b6105b9888289016104d1565b935093505060606105cc8882890161051b565b9150509295509295909350565b6105e2816108db565b82525050565b6105f1816108c9565b82525050565b610600816108ed565b82525050565b600061061283856107d4565b935061061f838584610923565b610628836109f5565b840190509392505050565b600061063e826107c9565b61064881856107d4565b9350610658818560208601610932565b610661816109f5565b840191505092915050565b60006106796018836107d4565b91507f696e636f7272656374207374617274696e6720707269636500000000000000006000830152602082019050919050565b6106b581610919565b82525050565b60006020820190506106d060008301846105e8565b92915050565b6000610100820190506106ec600083018b6105d9565b6106f9602083018a6106ac565b61070660408301896106ac565b61071360608301886106ac565b61072060808301876106ac565b61072d60a08301866106ac565b81810360c083015261073f8185610633565b905061074e60e08301846105f7565b9998505050505050505050565b600060208201905081810360008301526107748161066c565b9050919050565b600060808201905061079060008301886106ac565b81810360208301526107a3818688610606565b90506107b260408301856106ac565b6107bf60608301846106ac565b9695505050505050565b600081519050919050565b600082825260208201905092915050565b60006107f082610919565b91506107fb83610919565b9250827fffffffffffffffffffffffffffffffffffffffffffffffffffffffffffffffff038211156108305761082f610997565b5b828201905092915050565b600061084682610919565b915061085183610919565b9250817fffffffffffffffffffffffffffffffffffffffffffffffffffffffffffffffff048311821515161561088a57610889610997565b5b828202905092915050565b60006108a082610919565b91506108ab83610919565b9250828210156108be576108bd610997565b5b828203905092915050565b60006108d4826108f9565b9050919050565b60006108e6826108f9565b9050919050565b60008115159050919050565b600073ffffffffffffffffffffffffffffffffffffffff82169050919050565b6000819050919050565b82818337600083830152505050565b60005b83811015610950578082015181840152602081019050610935565b8381111561095f576000848401525b50505050565b6000600282049050600182168061097d57607f821691505b60208210811415610991576109906109c6565b5b50919050565b7f4e487b7100000000000000000000000000000000000000000000000000000000600052601160045260246000fd5b7f4e487b7100000000000000000000000000000000000000000000000000000000600052602260045260246000fd5b6000601f19601f8301169050919050565b610a0f81610919565b8114610a1a57600080fd5b5056fea2646970667358221220fc0ff09dd38428d8588af91c5e9b78ea6731439e5f07e0fd104a4128f294f4ed64736f6c63430008000033",
					"opcodes": "PUSH1 0x80 PUSH1 0x40 MSTORE CALLVALUE DUP1 ISZERO PUSH2 0x10 JUMPI PUSH1 0x0 DUP1 REVERT JUMPDEST POP CALLER PUSH1 0x0 DUP1 PUSH2 0x100 EXP DUP2 SLOAD DUP2 PUSH20 0xFFFFFFFFFFFFFFFFFFFFFFFFFFFFFFFFFFFFFFFF MUL NOT AND SWAP1 DUP4 PUSH20 0xFFFFFFFFFFFFFFFFFFFFFFFFFFFFFFFFFFFFFFFF AND MUL OR SWAP1 SSTORE POP PUSH2 0xA53 DUP1 PUSH2 0x60 PUSH1 0x0 CODECOPY PUSH1 0x0 RETURN INVALID PUSH1 0x80 PUSH1 0x40 MSTORE CALLVALUE DUP1 ISZERO PUSH2 0x10 JUMPI PUSH1 0x0 DUP1 REVERT JUMPDEST POP PUSH1 0x4 CALLDATASIZE LT PUSH2 0x41 JUMPI PUSH1 0x0 CALLDATALOAD PUSH1 0xE0 SHR DUP1 PUSH4 0x571A26A0 EQ PUSH2 0x46 JUMPI DUP1 PUSH4 0x8DA5CB5B EQ PUSH2 0x7D JUMPI DUP1 PUSH4 0xE9835D15 EQ PUSH2 0x9B JUMPI JUMPDEST PUSH1 0x0 DUP1 REVERT JUMPDEST PUSH2 0x60 PUSH1 0x4 DUP1 CALLDATASIZE SUB DUP2 ADD SWAP1 PUSH2 0x5B SWAP2 SWAP1 PUSH2 0x530 JUMP JUMPDEST PUSH2 0xB7 JUMP JUMPDEST PUSH1 0x40 MLOAD PUSH2 0x74 SWAP9 SWAP8 SWAP7 SWAP6 SWAP5 SWAP4 SWAP3 SWAP2 SWAP1 PUSH2 0x6D6 JUMP JUMPDEST PUSH1 0x40 MLOAD DUP1 SWAP2 SUB SWAP1 RETURN JUMPDEST PUSH2 0x85 PUSH2 0x1C4 JUMP JUMPDEST PUSH1 0x40 MLOAD PUSH2 0x92 SWAP2 SWAP1 PUSH2 0x6BB JUMP JUMPDEST PUSH1 0x40 MLOAD DUP1 SWAP2 SUB SWAP1 RETURN JUMPDEST PUSH2 0xB5 PUSH1 0x4 DUP1 CALLDATASIZE SUB DUP2 ADD SWAP1 PUSH2 0xB0 SWAP2 SWAP1 PUSH2 0x559 JUMP JUMPDEST PUSH2 0x1E8 JUMP JUMPDEST STOP JUMPDEST PUSH1 0x1 DUP2 DUP2 SLOAD DUP2 LT PUSH2 0xC7 JUMPI PUSH1 0x0 DUP1 REVERT JUMPDEST SWAP1 PUSH1 0x0 MSTORE PUSH1 0x20 PUSH1 0x0 KECCAK256 SWAP1 PUSH1 0x8 MUL ADD PUSH1 0x0 SWAP2 POP SWAP1 POP DUP1 PUSH1 0x0 ADD PUSH1 0x0 SWAP1 SLOAD SWAP1 PUSH2 0x100 EXP SWAP1 DIV PUSH20 0xFFFFFFFFFFFFFFFFFFFFFFFFFFFFFFFFFFFFFFFF AND SWAP1 DUP1 PUSH1 0x1 ADD SLOAD SWAP1 DUP1 PUSH1 0x2 ADD SLOAD SWAP1 DUP1 PUSH1 0x3 ADD SLOAD SWAP1 DUP1 PUSH1 0x4 ADD SLOAD SWAP1 DUP1 PUSH1 0x5 ADD SLOAD SWAP1 DUP1 PUSH1 0x6 ADD DUP1 SLOAD PUSH2 0x12E SWAP1 PUSH2 0x965 JUMP JUMPDEST DUP1 PUSH1 0x1F ADD PUSH1 0x20 DUP1 SWAP2 DIV MUL PUSH1 0x20 ADD PUSH1 0x40 MLOAD SWAP1 DUP2 ADD PUSH1 0x40 MSTORE DUP1 SWAP3 SWAP2 SWAP1 DUP2 DUP2 MSTORE PUSH1 0x20 ADD DUP3 DUP1 SLOAD PUSH2 0x15A SWAP1 PUSH2 0x965 JUMP JUMPDEST DUP1 ISZERO PUSH2 0x1A7 JUMPI DUP1 PUSH1 0x1F LT PUSH2 0x17C JUMPI PUSH2 0x100 DUP1 DUP4 SLOAD DIV MUL DUP4 MSTORE SWAP2 PUSH1 0x20 ADD SWAP2 PUSH2 0x1A7 JUMP JUMPDEST DUP3 ADD SWAP2 SWAP1 PUSH1 0x0 MSTORE PUSH1 0x20 PUSH1 0x0 KECCAK256 SWAP1 JUMPDEST DUP2 SLOAD DUP2 MSTORE SWAP1 PUSH1 0x1 ADD SWAP1 PUSH1 0x20 ADD DUP1 DUP4 GT PUSH2 0x18A JUMPI DUP3 SWAP1 SUB PUSH1 0x1F AND DUP3 ADD SWAP2 JUMPDEST POP POP POP POP POP SWAP1 DUP1 PUSH1 0x7 ADD PUSH1 0x0 SWAP1 SLOAD SWAP1 PUSH2 0x100 EXP SWAP1 DIV PUSH1 0xFF AND SWAP1 POP DUP9 JUMP JUMPDEST PUSH1 0x0 DUP1 SLOAD SWAP1 PUSH2 0x100 EXP SWAP1 DIV PUSH20 0xFFFFFFFFFFFFFFFFFFFFFFFFFFFFFFFFFFFFFFFF AND DUP2 JUMP JUMPDEST PUSH1 0x0 DUP1 DUP3 EQ PUSH2 0x1F7 JUMPI DUP2 PUSH2 0x1FC JUMP JUMPDEST PUSH3 0x2A300 JUMPDEST SWAP1 POP DUP1 DUP6 PUSH2 0x20A SWAP2 SWAP1 PUSH2 0x83B JUMP JUMPDEST DUP7 LT ISZERO PUSH2 0x24C JUMPI PUSH1 0x40 MLOAD PUSH32 0x8C379A000000000000000000000000000000000000000000000000000000000 DUP2 MSTORE PUSH1 0x4 ADD PUSH2 0x243 SWAP1 PUSH2 0x75B JUMP JUMPDEST PUSH1 0x40 MLOAD DUP1 SWAP2 SUB SWAP1 REVERT JUMPDEST PUSH1 0x0 PUSH1 0x40 MLOAD DUP1 PUSH2 0x100 ADD PUSH1 0x40 MSTORE DUP1 CALLER PUSH20 0xFFFFFFFFFFFFFFFFFFFFFFFFFFFFFFFFFFFFFFFF AND DUP2 MSTORE PUSH1 0x20 ADD DUP9 DUP2 MSTORE PUSH1 0x20 ADD DUP9 DUP2 MSTORE PUSH1 0x20 ADD TIMESTAMP DUP2 MSTORE PUSH1 0x20 ADD DUP4 TIMESTAMP PUSH2 0x294 SWAP2 SWAP1 PUSH2 0x7E5 JUMP JUMPDEST DUP2 MSTORE PUSH1 0x20 ADD DUP8 DUP2 MSTORE PUSH1 0x20 ADD DUP7 DUP7 DUP1 DUP1 PUSH1 0x1F ADD PUSH1 0x20 DUP1 SWAP2 DIV MUL PUSH1 0x20 ADD PUSH1 0x40 MLOAD SWAP1 DUP2 ADD PUSH1 0x40 MSTORE DUP1 SWAP4 SWAP3 SWAP2 SWAP1 DUP2 DUP2 MSTORE PUSH1 0x20 ADD DUP4 DUP4 DUP1 DUP3 DUP5 CALLDATACOPY PUSH1 0x0 DUP2 DUP5 ADD MSTORE PUSH1 0x1F NOT PUSH1 0x1F DUP3 ADD AND SWAP1 POP DUP1 DUP4 ADD SWAP3 POP POP POP POP POP POP POP DUP2 MSTORE PUSH1 0x20 ADD PUSH1 0x0 ISZERO ISZERO DUP2 MSTORE POP SWAP1 POP PUSH1 0x1 DUP2 SWAP1 DUP1 PUSH1 0x1 DUP2 SLOAD ADD DUP1 DUP3 SSTORE DUP1 SWAP2 POP POP PUSH1 0x1 SWAP1 SUB SWAP1 PUSH1 0x0 MSTORE PUSH1 0x20 PUSH1 0x0 KECCAK256 SWAP1 PUSH1 0x8 MUL ADD PUSH1 0x0 SWAP1 SWAP2 SWAP1 SWAP2 SWAP1 SWAP2 POP PUSH1 0x0 DUP3 ADD MLOAD DUP2 PUSH1 0x0 ADD PUSH1 0x0 PUSH2 0x100 EXP DUP2 SLOAD DUP2 PUSH20 0xFFFFFFFFFFFFFFFFFFFFFFFFFFFFFFFFFFFFFFFF MUL NOT AND SWAP1 DUP4 PUSH20 0xFFFFFFFFFFFFFFFFFFFFFFFFFFFFFFFFFFFFFFFF AND MUL OR SWAP1 SSTORE POP PUSH1 0x20 DUP3 ADD MLOAD DUP2 PUSH1 0x1 ADD SSTORE PUSH1 0x40 DUP3 ADD MLOAD DUP2 PUSH1 0x2 ADD SSTORE PUSH1 0x60 DUP3 ADD MLOAD DUP2 PUSH1 0x3 ADD SSTORE PUSH1 0x80 DUP3 ADD MLOAD DUP2 PUSH1 0x4 ADD SSTORE PUSH1 0xA0 DUP3 ADD MLOAD DUP2 PUSH1 0x5 ADD SSTORE PUSH1 0xC0 DUP3 ADD MLOAD DUP2 PUSH1 0x6 ADD SWAP1 DUP1 MLOAD SWAP1 PUSH1 0x20 ADD SWAP1 PUSH2 0x3B3 SWAP3 SWAP2 SWAP1 PUSH2 0x42E JUMP JUMPDEST POP PUSH1 0xE0 DUP3 ADD MLOAD DUP2 PUSH1 0x7 ADD PUSH1 0x0 PUSH2 0x100 EXP DUP2 SLOAD DUP2 PUSH1 0xFF MUL NOT AND SWAP1 DUP4 ISZERO ISZERO MUL OR SWAP1 SSTORE POP POP POP PUSH32 0x5BF34ED94988E5DCDC7D1FAAA54EB1D3B55F45D5F11457E235AFB21A8EBBE73C PUSH1 0x1 DUP1 DUP1 SLOAD SWAP1 POP PUSH2 0x408 SWAP2 SWAP1 PUSH2 0x895 JUMP JUMPDEST DUP7 DUP7 DUP11 DUP7 PUSH1 0x40 MLOAD PUSH2 0x41D SWAP6 SWAP5 SWAP4 SWAP3 SWAP2 SWAP1 PUSH2 0x77B JUMP JUMPDEST PUSH1 0x40 MLOAD DUP1 SWAP2 SUB SWAP1 LOG1 POP POP POP POP POP POP POP JUMP JUMPDEST DUP3 DUP1 SLOAD PUSH2 0x43A SWAP1 PUSH2 0x965 JUMP JUMPDEST SWAP1 PUSH1 0x0 MSTORE PUSH1 0x20 PUSH1 0x0 KECCAK256 SWAP1 PUSH1 0x1F ADD PUSH1 0x20 SWAP1 DIV DUP2 ADD SWAP3 DUP3 PUSH2 0x45C JUMPI PUSH1 0x0 DUP6 SSTORE PUSH2 0x4A3 JUMP JUMPDEST DUP3 PUSH1 0x1F LT PUSH2 0x475 JUMPI DUP1 MLOAD PUSH1 0xFF NOT AND DUP4 DUP1 ADD OR DUP6 SSTORE PUSH2 0x4A3 JUMP JUMPDEST DUP3 DUP1 ADD PUSH1 0x1 ADD DUP6 SSTORE DUP3 ISZERO PUSH2 0x4A3 JUMPI SWAP2 DUP3 ADD JUMPDEST DUP3 DUP2 GT ISZERO PUSH2 0x4A2 JUMPI DUP3 MLOAD DUP3 SSTORE SWAP2 PUSH1 0x20 ADD SWAP2 SWAP1 PUSH1 0x1 ADD SWAP1 PUSH2 0x487 JUMP JUMPDEST JUMPDEST POP SWAP1 POP PUSH2 0x4B0 SWAP2 SWAP1 PUSH2 0x4B4 JUMP JUMPDEST POP SWAP1 JUMP JUMPDEST JUMPDEST DUP1 DUP3 GT ISZERO PUSH2 0x4CD JUMPI PUSH1 0x0 DUP2 PUSH1 0x0 SWAP1 SSTORE POP PUSH1 0x1 ADD PUSH2 0x4B5 JUMP JUMPDEST POP SWAP1 JUMP JUMPDEST PUSH1 0x0 DUP1 DUP4 PUSH1 0x1F DUP5 ADD SLT PUSH2 0x4E3 JUMPI PUSH1 0x0 DUP1 REVERT JUMPDEST DUP3 CALLDATALOAD SWAP1 POP PUSH8 0xFFFFFFFFFFFFFFFF DUP2 GT ISZERO PUSH2 0x4FC JUMPI PUSH1 0x0 DUP1 REVERT JUMPDEST PUSH1 0x20 DUP4 ADD SWAP2 POP DUP4 PUSH1 0x1 DUP3 MUL DUP4 ADD GT ISZERO PUSH2 0x514 JUMPI PUSH1 0x0 DUP1 REVERT JUMPDEST SWAP3 POP SWAP3 SWAP1 POP JUMP JUMPDEST PUSH1 0x0 DUP2 CALLDATALOAD SWAP1 POP PUSH2 0x52A DUP2 PUSH2 0xA06 JUMP JUMPDEST SWAP3 SWAP2 POP POP JUMP JUMPDEST PUSH1 0x0 PUSH1 0x20 DUP3 DUP5 SUB SLT ISZERO PUSH2 0x542 JUMPI PUSH1 0x0 DUP1 REVERT JUMPDEST PUSH1 0x0 PUSH2 0x550 DUP5 DUP3 DUP6 ADD PUSH2 0x51B JUMP JUMPDEST SWAP2 POP POP SWAP3 SWAP2 POP POP JUMP JUMPDEST PUSH1 0x0 DUP1 PUSH1 0x0 DUP1 PUSH1 0x0 PUSH1 0x80 DUP7 DUP9 SUB SLT ISZERO PUSH2 0x571 JUMPI PUSH1 0x0 DUP1 REVERT JUMPDEST PUSH1 0x0 PUSH2 0x57F DUP9 DUP3 DUP10 ADD PUSH2 0x51B JUMP JUMPDEST SWAP6 POP POP PUSH1 0x20 PUSH2 0x590 DUP9 DUP3 DUP10 ADD PUSH2 0x51B JUMP JUMPDEST SWAP5 POP POP PUSH1 0x40 DUP7 ADD CALLDATALOAD PUSH8 0xFFFFFFFFFFFFFFFF DUP2 GT ISZERO PUSH2 0x5AD JUMPI PUSH1 0x0 DUP1 REVERT JUMPDEST PUSH2 0x5B9 DUP9 DUP3 DUP10 ADD PUSH2 0x4D1 JUMP JUMPDEST SWAP4 POP SWAP4 POP POP PUSH1 0x60 PUSH2 0x5CC DUP9 DUP3 DUP10 ADD PUSH2 0x51B JUMP JUMPDEST SWAP2 POP POP SWAP3 SWAP6 POP SWAP3 SWAP6 SWAP1 SWAP4 POP JUMP JUMPDEST PUSH2 0x5E2 DUP2 PUSH2 0x8DB JUMP JUMPDEST DUP3 MSTORE POP POP JUMP JUMPDEST PUSH2 0x5F1 DUP2 PUSH2 0x8C9 JUMP JUMPDEST DUP3 MSTORE POP POP JUMP JUMPDEST PUSH2 0x600 DUP2 PUSH2 0x8ED JUMP JUMPDEST DUP3 MSTORE POP POP JUMP JUMPDEST PUSH1 0x0 PUSH2 0x612 DUP4 DUP6 PUSH2 0x7D4 JUMP JUMPDEST SWAP4 POP PUSH2 0x61F DUP4 DUP6 DUP5 PUSH2 0x923 JUMP JUMPDEST PUSH2 0x628 DUP4 PUSH2 0x9F5 JUMP JUMPDEST DUP5 ADD SWAP1 POP SWAP4 SWAP3 POP POP POP JUMP JUMPDEST PUSH1 0x0 PUSH2 0x63E DUP3 PUSH2 0x7C9 JUMP JUMPDEST PUSH2 0x648 DUP2 DUP6 PUSH2 0x7D4 JUMP JUMPDEST SWAP4 POP PUSH2 0x658 DUP2 DUP6 PUSH1 0x20 DUP7 ADD PUSH2 0x932 JUMP JUMPDEST PUSH2 0x661 DUP2 PUSH2 0x9F5 JUMP JUMPDEST DUP5 ADD SWAP2 POP POP SWAP3 SWAP2 POP POP JUMP JUMPDEST PUSH1 0x0 PUSH2 0x679 PUSH1 0x18 DUP4 PUSH2 0x7D4 JUMP JUMPDEST SWAP2 POP PUSH32 0x696E636F7272656374207374617274696E672070726963650000000000000000 PUSH1 0x0 DUP4 ADD MSTORE PUSH1 0x20 DUP3 ADD SWAP1 POP SWAP2 SWAP1 POP JUMP JUMPDEST PUSH2 0x6B5 DUP2 PUSH2 0x919 JUMP JUMPDEST DUP3 MSTORE POP POP JUMP JUMPDEST PUSH1 0x0 PUSH1 0x20 DUP3 ADD SWAP1 POP PUSH2 0x6D0 PUSH1 0x0 DUP4 ADD DUP5 PUSH2 0x5E8 JUMP JUMPDEST SWAP3 SWAP2 POP POP JUMP JUMPDEST PUSH1 0x0 PUSH2 0x100 DUP3 ADD SWAP1 POP PUSH2 0x6EC PUSH1 0x0 DUP4 ADD DUP12 PUSH2 0x5D9 JUMP JUMPDEST PUSH2 0x6F9 PUSH1 0x20 DUP4 ADD DUP11 PUSH2 0x6AC JUMP JUMPDEST PUSH2 0x706 PUSH1 0x40 DUP4 ADD DUP10 PUSH2 0x6AC JUMP JUMPDEST PUSH2 0x713 PUSH1 0x60 DUP4 ADD DUP9 PUSH2 0x6AC JUMP JUMPDEST PUSH2 0x720 PUSH1 0x80 DUP4 ADD DUP8 PUSH2 0x6AC JUMP JUMPDEST PUSH2 0x72D PUSH1 0xA0 DUP4 ADD DUP7 PUSH2 0x6AC JUMP JUMPDEST DUP2 DUP2 SUB PUSH1 0xC0 DUP4 ADD MSTORE PUSH2 0x73F DUP2 DUP6 PUSH2 0x633 JUMP JUMPDEST SWAP1 POP PUSH2 0x74E PUSH1 0xE0 DUP4 ADD DUP5 PUSH2 0x5F7 JUMP JUMPDEST SWAP10 SWAP9 POP POP POP POP POP POP POP POP POP JUMP JUMPDEST PUSH1 0x0 PUSH1 0x20 DUP3 ADD SWAP1 POP DUP2 DUP2 SUB PUSH1 0x0 DUP4 ADD MSTORE PUSH2 0x774 DUP2 PUSH2 0x66C JUMP JUMPDEST SWAP1 POP SWAP2 SWAP1 POP JUMP JUMPDEST PUSH1 0x0 PUSH1 0x80 DUP3 ADD SWAP1 POP PUSH2 0x790 PUSH1 0x0 DUP4 ADD DUP9 PUSH2 0x6AC JUMP JUMPDEST DUP2 DUP2 SUB PUSH1 0x20 DUP4 ADD MSTORE PUSH2 0x7A3 DUP2 DUP7 DUP9 PUSH2 0x606 JUMP JUMPDEST SWAP1 POP PUSH2 0x7B2 PUSH1 0x40 DUP4 ADD DUP6 PUSH2 0x6AC JUMP JUMPDEST PUSH2 0x7BF PUSH1 0x60 DUP4 ADD DUP5 PUSH2 0x6AC JUMP JUMPDEST SWAP7 SWAP6 POP POP POP POP POP POP JUMP JUMPDEST PUSH1 0x0 DUP2 MLOAD SWAP1 POP SWAP2 SWAP1 POP JUMP JUMPDEST PUSH1 0x0 DUP3 DUP3 MSTORE PUSH1 0x20 DUP3 ADD SWAP1 POP SWAP3 SWAP2 POP POP JUMP JUMPDEST PUSH1 0x0 PUSH2 0x7F0 DUP3 PUSH2 0x919 JUMP JUMPDEST SWAP2 POP PUSH2 0x7FB DUP4 PUSH2 0x919 JUMP JUMPDEST SWAP3 POP DUP3 PUSH32 0xFFFFFFFFFFFFFFFFFFFFFFFFFFFFFFFFFFFFFFFFFFFFFFFFFFFFFFFFFFFFFFFF SUB DUP3 GT ISZERO PUSH2 0x830 JUMPI PUSH2 0x82F PUSH2 0x997 JUMP JUMPDEST JUMPDEST DUP3 DUP3 ADD SWAP1 POP SWAP3 SWAP2 POP POP JUMP JUMPDEST PUSH1 0x0 PUSH2 0x846 DUP3 PUSH2 0x919 JUMP JUMPDEST SWAP2 POP PUSH2 0x851 DUP4 PUSH2 0x919 JUMP JUMPDEST SWAP3 POP DUP2 PUSH32 0xFFFFFFFFFFFFFFFFFFFFFFFFFFFFFFFFFFFFFFFFFFFFFFFFFFFFFFFFFFFFFFFF DIV DUP4 GT DUP3 ISZERO ISZERO AND ISZERO PUSH2 0x88A JUMPI PUSH2 0x889 PUSH2 0x997 JUMP JUMPDEST JUMPDEST DUP3 DUP3 MUL SWAP1 POP SWAP3 SWAP2 POP POP JUMP JUMPDEST PUSH1 0x0 PUSH2 0x8A0 DUP3 PUSH2 0x919 JUMP JUMPDEST SWAP2 POP PUSH2 0x8AB DUP4 PUSH2 0x919 JUMP JUMPDEST SWAP3 POP DUP3 DUP3 LT ISZERO PUSH2 0x8BE JUMPI PUSH2 0x8BD PUSH2 0x997 JUMP JUMPDEST JUMPDEST DUP3 DUP3 SUB SWAP1 POP SWAP3 SWAP2 POP POP JUMP JUMPDEST PUSH1 0x0 PUSH2 0x8D4 DUP3 PUSH2 0x8F9 JUMP JUMPDEST SWAP1 POP SWAP2 SWAP1 POP JUMP JUMPDEST PUSH1 0x0 PUSH2 0x8E6 DUP3 PUSH2 0x8F9 JUMP JUMPDEST SWAP1 POP SWAP2 SWAP1 POP JUMP JUMPDEST PUSH1 0x0 DUP2 ISZERO ISZERO SWAP1 POP SWAP2 SWAP1 POP JUMP JUMPDEST PUSH1 0x0 PUSH20 0xFFFFFFFFFFFFFFFFFFFFFFFFFFFFFFFFFFFFFFFF DUP3 AND SWAP1 POP SWAP2 SWAP1 POP JUMP JUMPDEST PUSH1 0x0 DUP2 SWAP1 POP SWAP2 SWAP1 POP JUMP JUMPDEST DUP3 DUP2 DUP4 CALLDATACOPY PUSH1 0x0 DUP4 DUP4 ADD MSTORE POP POP POP JUMP JUMPDEST PUSH1 0x0 JUMPDEST DUP4 DUP2 LT ISZERO PUSH2 0x950 JUMPI DUP1 DUP3 ADD MLOAD DUP2 DUP5 ADD MSTORE PUSH1 0x20 DUP2 ADD SWAP1 POP PUSH2 0x935 JUMP JUMPDEST DUP4 DUP2 GT ISZERO PUSH2 0x95F JUMPI PUSH1 0x0 DUP5 DUP5 ADD MSTORE JUMPDEST POP POP POP POP JUMP JUMPDEST PUSH1 0x0 PUSH1 0x2 DUP3 DIV SWAP1 POP PUSH1 0x1 DUP3 AND DUP1 PUSH2 0x97D JUMPI PUSH1 0x7F DUP3 AND SWAP2 POP JUMPDEST PUSH1 0x20 DUP3 LT DUP2 EQ ISZERO PUSH2 0x991 JUMPI PUSH2 0x990 PUSH2 0x9C6 JUMP JUMPDEST JUMPDEST POP SWAP2 SWAP1 POP JUMP JUMPDEST PUSH32 0x4E487B7100000000000000000000000000000000000000000000000000000000 PUSH1 0x0 MSTORE PUSH1 0x11 PUSH1 0x4 MSTORE PUSH1 0x24 PUSH1 0x0 REVERT JUMPDEST PUSH32 0x4E487B7100000000000000000000000000000000000000000000000000000000 PUSH1 0x0 MSTORE PUSH1 0x22 PUSH1 0x4 MSTORE PUSH1 0x24 PUSH1 0x0 REVERT JUMPDEST PUSH1 0x0 PUSH1 0x1F NOT PUSH1 0x1F DUP4 ADD AND SWAP1 POP SWAP2 SWAP1 POP JUMP JUMPDEST PUSH2 0xA0F DUP2 PUSH2 0x919 JUMP JUMPDEST DUP2 EQ PUSH2 0xA1A JUMPI PUSH1 0x0 DUP1 REVERT JUMPDEST POP JUMP INVALID LOG2 PUSH5 0x6970667358 0x22 SLT KECCAK256 0xFC 0xF CREATE SWAP14 0xD3 DUP5 0x28 0xD8 PC DUP11 0xF9 SHR 0x5E SWAP12 PUSH25 0xEA6731439E5F07E0FD104A4128F294F4ED64736F6C63430008 STOP STOP CALLER "
				},
				"gasEstimates": {
					"creation": {
						"codeDepositCost": "528600",
						"executionCost": "21428",
						"totalCost": "550028"
					},
					"external": {
						"auctions(uint256)": "infinite",
						"createAuction(uint256,uint256,string,uint256)": "infinite",
						"owner()": "1211"
					}
				},
				"methodIdentifiers": {
					"auctions(uint256)": "571a26a0",
					"createAuction(uint256,uint256,string,uint256)": "e9835d15",
					"owner()": "8da5cb5b"
				}
			},
			"storageLayout": {
				"storage": [
					{
						"astId": 3,
						"contract": "coin.sol:AucEngine",
						"label": "owner",
						"offset": 0,
						"slot": "0",
						"type": "t_address"
					},
					{
						"astId": 30,
						"contract": "coin.sol:AucEngine",
						"label": "auctions",
						"offset": 0,
						"slot": "1",
						"type": "t_array(t_struct(Auction)26_storage)dyn_storage"
					}
				],
				"types": {
					"t_address": {
						"encoding": "inplace",
						"label": "address",
						"numberOfBytes": "20"
					},
					"t_address_payable": {
						"encoding": "inplace",
						"label": "address payable",
						"numberOfBytes": "20"
					},
					"t_array(t_struct(Auction)26_storage)dyn_storage": {
						"base": "t_struct(Auction)26_storage",
						"encoding": "dynamic_array",
						"label": "struct AucEngine.Auction[]",
						"numberOfBytes": "32"
					},
					"t_bool": {
						"encoding": "inplace",
						"label": "bool",
						"numberOfBytes": "1"
					},
					"t_string_storage": {
						"encoding": "bytes",
						"label": "string",
						"numberOfBytes": "32"
					},
					"t_struct(Auction)26_storage": {
						"encoding": "inplace",
						"label": "struct AucEngine.Auction",
						"members": [
							{
								"astId": 11,
								"contract": "coin.sol:AucEngine",
								"label": "seller",
								"offset": 0,
								"slot": "0",
								"type": "t_address_payable"
							},
							{
								"astId": 13,
								"contract": "coin.sol:AucEngine",
								"label": "startingPrice",
								"offset": 0,
								"slot": "1",
								"type": "t_uint256"
							},
							{
								"astId": 15,
								"contract": "coin.sol:AucEngine",
								"label": "finalPrice",
								"offset": 0,
								"slot": "2",
								"type": "t_uint256"
							},
							{
								"astId": 17,
								"contract": "coin.sol:AucEngine",
								"label": "startAt",
								"offset": 0,
								"slot": "3",
								"type": "t_uint256"
							},
							{
								"astId": 19,
								"contract": "coin.sol:AucEngine",
								"label": "endsAt",
								"offset": 0,
								"slot": "4",
								"type": "t_uint256"
							},
							{
								"astId": 21,
								"contract": "coin.sol:AucEngine",
								"label": "discountRate",
								"offset": 0,
								"slot": "5",
								"type": "t_uint256"
							},
							{
								"astId": 23,
								"contract": "coin.sol:AucEngine",
								"label": "item",
								"offset": 0,
								"slot": "6",
								"type": "t_string_storage"
							},
							{
								"astId": 25,
								"contract": "coin.sol:AucEngine",
								"label": "stopped",
								"offset": 0,
								"slot": "7",
								"type": "t_bool"
							}
						],
						"numberOfBytes": "256"
					},
					"t_uint256": {
						"encoding": "inplace",
						"label": "uint256",
						"numberOfBytes": "32"
					}
				}
			},
			"userdoc": {
				"kind": "user",
				"methods": {},
				"version": 1
			}
		}
	}
}