{
	"token_swap.sol": {
		"TokenSwap": {
			"abi": [
				{
					"inputs": [],
					"name": "amount1",
					"outputs": [
						{
							"internalType": "uint256",
							"name": "",
							"type": "uint256"
						}
					],
					"stateMutability": "view",
					"type": "function"
				},
				{
					"inputs": [],
					"name": "onwer1",
					"outputs": [
						{
							"internalType": "address",
							"name": "",
							"type": "address"
						}
					],
					"stateMutability": "view",
					"type": "function"
				},
				{
					"inputs": [],
					"name": "owner2",
					"outputs": [
						{
							"internalType": "address",
							"name": "",
							"type": "address"
						}
					],
					"stateMutability": "view",
					"type": "function"
				},
				{
					"inputs": [],
					"name": "token1",
					"outputs": [
						{
							"internalType": "contract IERC20",
							"name": "",
							"type": "address"
						}
					],
					"stateMutability": "view",
					"type": "function"
				},
				{
					"inputs": [],
					"name": "token2",
					"outputs": [
						{
							"internalType": "contract IERC20",
							"name": "",
							"type": "address"
						}
					],
					"stateMutability": "view",
					"type": "function"
				}
			],
			"devdoc": {
				"kind": "dev",
				"methods": {},
				"version": 1
			},
			"evm": {
				"assembly": "    /* \"token_swap.sol\":183:348  contract TokenSwap {\r... */\n  mstore(0x40, 0x80)\n  callvalue\n  dup1\n  iszero\n  tag_1\n  jumpi\n  0x00\n  dup1\n  revert\ntag_1:\n  pop\n  dataSize(sub_0)\n  dup1\n  dataOffset(sub_0)\n  0x00\n  codecopy\n  0x00\n  return\nstop\n\nsub_0: assembly {\n        /* \"token_swap.sol\":183:348  contract TokenSwap {\r... */\n      mstore(0x40, 0x80)\n      callvalue\n      dup1\n      iszero\n      tag_1\n      jumpi\n      0x00\n      dup1\n      revert\n    tag_1:\n      pop\n      jumpi(tag_2, lt(calldatasize, 0x04))\n      shr(0xe0, calldataload(0x00))\n      dup1\n      0x25be124e\n      eq\n      tag_3\n      jumpi\n      dup1\n      0x52709725\n      eq\n      tag_4\n      jumpi\n      dup1\n      0xa9e9f461\n      eq\n      tag_5\n      jumpi\n      dup1\n      0xd21220a7\n      eq\n      tag_6\n      jumpi\n      dup1\n      0xf400fde4\n      eq\n      tag_7\n      jumpi\n    tag_2:\n      0x00\n      dup1\n      revert\n        /* \"token_swap.sol\":290:310  IERC20 public token2 */\n    tag_3:\n      tag_8\n      tag_9\n      jump\t// in\n    tag_8:\n      mload(0x40)\n      tag_10\n      swap2\n      swap1\n      tag_11\n      jump\t// in\n    tag_10:\n      mload(0x40)\n      dup1\n      swap2\n      sub\n      swap1\n      return\n        /* \"token_swap.sol\":317:338  address public owner2 */\n    tag_4:\n      tag_12\n      tag_13\n      jump\t// in\n    tag_12:\n      mload(0x40)\n      tag_14\n      swap2\n      swap1\n      tag_15\n      jump\t// in\n    tag_14:\n      mload(0x40)\n      dup1\n      swap2\n      sub\n      swap1\n      return\n        /* \"token_swap.sol\":236:257  address public onwer1 */\n    tag_5:\n      tag_16\n      tag_17\n      jump\t// in\n    tag_16:\n      mload(0x40)\n      tag_18\n      swap2\n      swap1\n      tag_15\n      jump\t// in\n    tag_18:\n      mload(0x40)\n      dup1\n      swap2\n      sub\n      swap1\n      return\n        /* \"token_swap.sol\":209:229  IERC20 public token1 */\n    tag_6:\n      tag_19\n      tag_20\n      jump\t// in\n    tag_19:\n      mload(0x40)\n      tag_21\n      swap2\n      swap1\n      tag_11\n      jump\t// in\n    tag_21:\n      mload(0x40)\n      dup1\n      swap2\n      sub\n      swap1\n      return\n        /* \"token_swap.sol\":264:283  uint public amount1 */\n    tag_7:\n      tag_22\n      tag_23\n      jump\t// in\n    tag_22:\n      mload(0x40)\n      tag_24\n      swap2\n      swap1\n      tag_25\n      jump\t// in\n    tag_24:\n      mload(0x40)\n      dup1\n      swap2\n      sub\n      swap1\n      return\n        /* \"token_swap.sol\":290:310  IERC20 public token2 */\n    tag_9:\n      0x03\n      0x00\n      swap1\n      sload\n      swap1\n      0x0100\n      exp\n      swap1\n      div\n      0xffffffffffffffffffffffffffffffffffffffff\n      and\n      dup2\n      jump\t// out\n        /* \"token_swap.sol\":317:338  address public owner2 */\n    tag_13:\n      0x04\n      0x00\n      swap1\n      sload\n      swap1\n      0x0100\n      exp\n      swap1\n      div\n      0xffffffffffffffffffffffffffffffffffffffff\n      and\n      dup2\n      jump\t// out\n        /* \"token_swap.sol\":236:257  address public onwer1 */\n    tag_17:\n      0x01\n      0x00\n      swap1\n      sload\n      swap1\n      0x0100\n      exp\n      swap1\n      div\n      0xffffffffffffffffffffffffffffffffffffffff\n      and\n      dup2\n      jump\t// out\n        /* \"token_swap.sol\":209:229  IERC20 public token1 */\n    tag_20:\n      0x00\n      dup1\n      sload\n      swap1\n      0x0100\n      exp\n      swap1\n      div\n      0xffffffffffffffffffffffffffffffffffffffff\n      and\n      dup2\n      jump\t// out\n        /* \"token_swap.sol\":264:283  uint public amount1 */\n    tag_23:\n      sload(0x02)\n      dup2\n      jump\t// out\n        /* \"#utility.yul\":7:125   */\n    tag_27:\n        /* \"#utility.yul\":94:118   */\n      tag_29\n        /* \"#utility.yul\":112:117   */\n      dup2\n        /* \"#utility.yul\":94:118   */\n      tag_30\n      jump\t// in\n    tag_29:\n        /* \"#utility.yul\":89:92   */\n      dup3\n        /* \"#utility.yul\":82:119   */\n      mstore\n        /* \"#utility.yul\":7:125   */\n      pop\n      pop\n      jump\t// out\n        /* \"#utility.yul\":131:288   */\n    tag_31:\n        /* \"#utility.yul\":231:281   */\n      tag_33\n        /* \"#utility.yul\":275:280   */\n      dup2\n        /* \"#utility.yul\":231:281   */\n      tag_34\n      jump\t// in\n    tag_33:\n        /* \"#utility.yul\":226:229   */\n      dup3\n        /* \"#utility.yul\":219:282   */\n      mstore\n        /* \"#utility.yul\":131:288   */\n      pop\n      pop\n      jump\t// out\n        /* \"#utility.yul\":294:412   */\n    tag_35:\n        /* \"#utility.yul\":381:405   */\n      tag_37\n        /* \"#utility.yul\":399:404   */\n      dup2\n        /* \"#utility.yul\":381:405   */\n      tag_38\n      jump\t// in\n    tag_37:\n        /* \"#utility.yul\":376:379   */\n      dup3\n        /* \"#utility.yul\":369:406   */\n      mstore\n        /* \"#utility.yul\":294:412   */\n      pop\n      pop\n      jump\t// out\n        /* \"#utility.yul\":418:640   */\n    tag_15:\n        /* \"#utility.yul\":511:515   */\n      0x00\n        /* \"#utility.yul\":549:551   */\n      0x20\n        /* \"#utility.yul\":538:547   */\n      dup3\n        /* \"#utility.yul\":534:552   */\n      add\n        /* \"#utility.yul\":526:552   */\n      swap1\n      pop\n        /* \"#utility.yul\":562:633   */\n      tag_40\n        /* \"#utility.yul\":630:631   */\n      0x00\n        /* \"#utility.yul\":619:628   */\n      dup4\n        /* \"#utility.yul\":615:632   */\n      add\n        /* \"#utility.yul\":606:612   */\n      dup5\n        /* \"#utility.yul\":562:633   */\n      tag_27\n      jump\t// in\n    tag_40:\n        /* \"#utility.yul\":418:640   */\n      swap3\n      swap2\n      pop\n      pop\n      jump\t// out\n        /* \"#utility.yul\":646:894   */\n    tag_11:\n        /* \"#utility.yul\":752:756   */\n      0x00\n        /* \"#utility.yul\":790:792   */\n      0x20\n        /* \"#utility.yul\":779:788   */\n      dup3\n        /* \"#utility.yul\":775:793   */\n      add\n        /* \"#utility.yul\":767:793   */\n      swap1\n      pop\n        /* \"#utility.yul\":803:887   */\n      tag_42\n        /* \"#utility.yul\":884:885   */\n      0x00\n        /* \"#utility.yul\":873:882   */\n      dup4\n        /* \"#utility.yul\":869:886   */\n      add\n        /* \"#utility.yul\":860:866   */\n      dup5\n        /* \"#utility.yul\":803:887   */\n      tag_31\n      jump\t// in\n    tag_42:\n        /* \"#utility.yul\":646:894   */\n      swap3\n      swap2\n      pop\n      pop\n      jump\t// out\n        /* \"#utility.yul\":900:1122   */\n    tag_25:\n        /* \"#utility.yul\":993:997   */\n      0x00\n        /* \"#utility.yul\":1031:1033   */\n      0x20\n        /* \"#utility.yul\":1020:1029   */\n      dup3\n        /* \"#utility.yul\":1016:1034   */\n      add\n        /* \"#utility.yul\":1008:1034   */\n      swap1\n      pop\n        /* \"#utility.yul\":1044:1115   */\n      tag_44\n        /* \"#utility.yul\":1112:1113   */\n      0x00\n        /* \"#utility.yul\":1101:1110   */\n      dup4\n        /* \"#utility.yul\":1097:1114   */\n      add\n        /* \"#utility.yul\":1088:1094   */\n      dup5\n        /* \"#utility.yul\":1044:1115   */\n      tag_35\n      jump\t// in\n    tag_44:\n        /* \"#utility.yul\":900:1122   */\n      swap3\n      swap2\n      pop\n      pop\n      jump\t// out\n        /* \"#utility.yul\":1128:1224   */\n    tag_30:\n        /* \"#utility.yul\":1165:1172   */\n      0x00\n        /* \"#utility.yul\":1194:1218   */\n      tag_46\n        /* \"#utility.yul\":1212:1217   */\n      dup3\n        /* \"#utility.yul\":1194:1218   */\n      tag_47\n      jump\t// in\n    tag_46:\n        /* \"#utility.yul\":1183:1218   */\n      swap1\n      pop\n        /* \"#utility.yul\":1128:1224   */\n      swap2\n      swap1\n      pop\n      jump\t// out\n        /* \"#utility.yul\":1230:1356   */\n    tag_47:\n        /* \"#utility.yul\":1267:1274   */\n      0x00\n        /* \"#utility.yul\":1307:1349   */\n      0xffffffffffffffffffffffffffffffffffffffff\n        /* \"#utility.yul\":1300:1305   */\n      dup3\n        /* \"#utility.yul\":1296:1350   */\n      and\n        /* \"#utility.yul\":1285:1350   */\n      swap1\n      pop\n        /* \"#utility.yul\":1230:1356   */\n      swap2\n      swap1\n      pop\n      jump\t// out\n        /* \"#utility.yul\":1362:1439   */\n    tag_38:\n        /* \"#utility.yul\":1399:1406   */\n      0x00\n        /* \"#utility.yul\":1428:1433   */\n      dup2\n        /* \"#utility.yul\":1417:1433   */\n      swap1\n      pop\n        /* \"#utility.yul\":1362:1439   */\n      swap2\n      swap1\n      pop\n      jump\t// out\n        /* \"#utility.yul\":1445:1584   */\n    tag_34:\n        /* \"#utility.yul\":1508:1517   */\n      0x00\n        /* \"#utility.yul\":1541:1578   */\n      tag_51\n        /* \"#utility.yul\":1572:1577   */\n      dup3\n        /* \"#utility.yul\":1541:1578   */\n      tag_52\n      jump\t// in\n    tag_51:\n        /* \"#utility.yul\":1528:1578   */\n      swap1\n      pop\n        /* \"#utility.yul\":1445:1584   */\n      swap2\n      swap1\n      pop\n      jump\t// out\n        /* \"#utility.yul\":1590:1716   */\n    tag_52:\n        /* \"#utility.yul\":1640:1649   */\n      0x00\n        /* \"#utility.yul\":1673:1710   */\n      tag_54\n        /* \"#utility.yul\":1704:1709   */\n      dup3\n        /* \"#utility.yul\":1673:1710   */\n      tag_55\n      jump\t// in\n    tag_54:\n        /* \"#utility.yul\":1660:1710   */\n      swap1\n      pop\n        /* \"#utility.yul\":1590:1716   */\n      swap2\n      swap1\n      pop\n      jump\t// out\n        /* \"#utility.yul\":1722:1835   */\n    tag_55:\n        /* \"#utility.yul\":1772:1781   */\n      0x00\n        /* \"#utility.yul\":1805:1829   */\n      tag_57\n        /* \"#utility.yul\":1823:1828   */\n      dup3\n        /* \"#utility.yul\":1805:1829   */\n      tag_47\n      jump\t// in\n    tag_57:\n        /* \"#utility.yul\":1792:1829   */\n      swap1\n      pop\n        /* \"#utility.yul\":1722:1835   */\n      swap2\n      swap1\n      pop\n      jump\t// out\n\n    auxdata: 0xa26469706673582212206f5674fa9b5b033414a54323cb3a5d3b80f2ff2889d46b67c7856895fc2b811a64736f6c63430008070033\n}\n",
				"bytecode": {
					"linkReferences": {},
					"object": "608060405234801561001057600080fd5b506102b4806100206000396000f3fe608060405234801561001057600080fd5b50600436106100575760003560e01c806325be124e1461005c578063527097251461007a578063a9e9f46114610098578063d21220a7146100b6578063f400fde4146100d4575b600080fd5b6100646100f2565b60405161007191906101d6565b60405180910390f35b610082610118565b60405161008f91906101bb565b60405180910390f35b6100a061013e565b6040516100ad91906101bb565b60405180910390f35b6100be610164565b6040516100cb91906101d6565b60405180910390f35b6100dc610188565b6040516100e991906101f1565b60405180910390f35b600360009054906101000a900473ffffffffffffffffffffffffffffffffffffffff1681565b600460009054906101000a900473ffffffffffffffffffffffffffffffffffffffff1681565b600160009054906101000a900473ffffffffffffffffffffffffffffffffffffffff1681565b60008054906101000a900473ffffffffffffffffffffffffffffffffffffffff1681565b60025481565b6101978161020c565b82525050565b6101a681610248565b82525050565b6101b58161023e565b82525050565b60006020820190506101d0600083018461018e565b92915050565b60006020820190506101eb600083018461019d565b92915050565b600060208201905061020660008301846101ac565b92915050565b60006102178261021e565b9050919050565b600073ffffffffffffffffffffffffffffffffffffffff82169050919050565b6000819050919050565b60006102538261025a565b9050919050565b60006102658261026c565b9050919050565b60006102778261021e565b905091905056fea26469706673582212206f5674fa9b5b033414a54323cb3a5d3b80f2ff2889d46b67c7856895fc2b811a64736f6c63430008070033",
					"opcodes": "PUSH1 0x80 PUSH1 0x40 MSTORE CALLVALUE DUP1 ISZERO PUSH2 0x10 JUMPI PUSH1 0x0 DUP1 REVERT JUMPDEST POP PUSH2 0x2B4 DUP1 PUSH2 0x20 PUSH1 0x0 CODECOPY PUSH1 0x0 RETURN INVALID PUSH1 0x80 PUSH1 0x40 MSTORE CALLVALUE DUP1 ISZERO PUSH2 0x10 JUMPI PUSH1 0x0 DUP1 REVERT JUMPDEST POP PUSH1 0x4 CALLDATASIZE LT PUSH2 0x57 JUMPI PUSH1 0x0 CALLDATALOAD PUSH1 0xE0 SHR DUP1 PUSH4 0x25BE124E EQ PUSH2 0x5C JUMPI DUP1 PUSH4 0x52709725 EQ PUSH2 0x7A JUMPI DUP1 PUSH4 0xA9E9F461 EQ PUSH2 0x98 JUMPI DUP1 PUSH4 0xD21220A7 EQ PUSH2 0xB6 JUMPI DUP1 PUSH4 0xF400FDE4 EQ PUSH2 0xD4 JUMPI JUMPDEST PUSH1 0x0 DUP1 REVERT JUMPDEST PUSH2 0x64 PUSH2 0xF2 JUMP JUMPDEST PUSH1 0x40 MLOAD PUSH2 0x71 SWAP2 SWAP1 PUSH2 0x1D6 JUMP JUMPDEST PUSH1 0x40 MLOAD DUP1 SWAP2 SUB SWAP1 RETURN JUMPDEST PUSH2 0x82 PUSH2 0x118 JUMP JUMPDEST PUSH1 0x40 MLOAD PUSH2 0x8F SWAP2 SWAP1 PUSH2 0x1BB JUMP JUMPDEST PUSH1 0x40 MLOAD DUP1 SWAP2 SUB SWAP1 RETURN JUMPDEST PUSH2 0xA0 PUSH2 0x13E JUMP JUMPDEST PUSH1 0x40 MLOAD PUSH2 0xAD SWAP2 SWAP1 PUSH2 0x1BB JUMP JUMPDEST PUSH1 0x40 MLOAD DUP1 SWAP2 SUB SWAP1 RETURN JUMPDEST PUSH2 0xBE PUSH2 0x164 JUMP JUMPDEST PUSH1 0x40 MLOAD PUSH2 0xCB SWAP2 SWAP1 PUSH2 0x1D6 JUMP JUMPDEST PUSH1 0x40 MLOAD DUP1 SWAP2 SUB SWAP1 RETURN JUMPDEST PUSH2 0xDC PUSH2 0x188 JUMP JUMPDEST PUSH1 0x40 MLOAD PUSH2 0xE9 SWAP2 SWAP1 PUSH2 0x1F1 JUMP JUMPDEST PUSH1 0x40 MLOAD DUP1 SWAP2 SUB SWAP1 RETURN JUMPDEST PUSH1 0x3 PUSH1 0x0 SWAP1 SLOAD SWAP1 PUSH2 0x100 EXP SWAP1 DIV PUSH20 0xFFFFFFFFFFFFFFFFFFFFFFFFFFFFFFFFFFFFFFFF AND DUP2 JUMP JUMPDEST PUSH1 0x4 PUSH1 0x0 SWAP1 SLOAD SWAP1 PUSH2 0x100 EXP SWAP1 DIV PUSH20 0xFFFFFFFFFFFFFFFFFFFFFFFFFFFFFFFFFFFFFFFF AND DUP2 JUMP JUMPDEST PUSH1 0x1 PUSH1 0x0 SWAP1 SLOAD SWAP1 PUSH2 0x100 EXP SWAP1 DIV PUSH20 0xFFFFFFFFFFFFFFFFFFFFFFFFFFFFFFFFFFFFFFFF AND DUP2 JUMP JUMPDEST PUSH1 0x0 DUP1 SLOAD SWAP1 PUSH2 0x100 EXP SWAP1 DIV PUSH20 0xFFFFFFFFFFFFFFFFFFFFFFFFFFFFFFFFFFFFFFFF AND DUP2 JUMP JUMPDEST PUSH1 0x2 SLOAD DUP2 JUMP JUMPDEST PUSH2 0x197 DUP2 PUSH2 0x20C JUMP JUMPDEST DUP3 MSTORE POP POP JUMP JUMPDEST PUSH2 0x1A6 DUP2 PUSH2 0x248 JUMP JUMPDEST DUP3 MSTORE POP POP JUMP JUMPDEST PUSH2 0x1B5 DUP2 PUSH2 0x23E JUMP JUMPDEST DUP3 MSTORE POP POP JUMP JUMPDEST PUSH1 0x0 PUSH1 0x20 DUP3 ADD SWAP1 POP PUSH2 0x1D0 PUSH1 0x0 DUP4 ADD DUP5 PUSH2 0x18E JUMP JUMPDEST SWAP3 SWAP2 POP POP JUMP JUMPDEST PUSH1 0x0 PUSH1 0x20 DUP3 ADD SWAP1 POP PUSH2 0x1EB PUSH1 0x0 DUP4 ADD DUP5 PUSH2 0x19D JUMP JUMPDEST SWAP3 SWAP2 POP POP JUMP JUMPDEST PUSH1 0x0 PUSH1 0x20 DUP3 ADD SWAP1 POP PUSH2 0x206 PUSH1 0x0 DUP4 ADD DUP5 PUSH2 0x1AC JUMP JUMPDEST SWAP3 SWAP2 POP POP JUMP JUMPDEST PUSH1 0x0 PUSH2 0x217 DUP3 PUSH2 0x21E JUMP JUMPDEST SWAP1 POP SWAP2 SWAP1 POP JUMP JUMPDEST PUSH1 0x0 PUSH20 0xFFFFFFFFFFFFFFFFFFFFFFFFFFFFFFFFFFFFFFFF DUP3 AND SWAP1 POP SWAP2 SWAP1 POP JUMP JUMPDEST PUSH1 0x0 DUP2 SWAP1 POP SWAP2 SWAP1 POP JUMP JUMPDEST PUSH1 0x0 PUSH2 0x253 DUP3 PUSH2 0x25A JUMP JUMPDEST SWAP1 POP SWAP2 SWAP1 POP JUMP JUMPDEST PUSH1 0x0 PUSH2 0x265 DUP3 PUSH2 0x26C JUMP JUMPDEST SWAP1 POP SWAP2 SWAP1 POP JUMP JUMPDEST PUSH1 0x0 PUSH2 0x277 DUP3 PUSH2 0x21E JUMP JUMPDEST SWAP1 POP SWAP2 SWAP1 POP JUMP INVALID LOG2 PUSH5 0x6970667358 0x22 SLT KECCAK256 PUSH16 0x5674FA9B5B033414A54323CB3A5D3B80 CALLCODE SELFDESTRUCT 0x28 DUP10 0xD4 PUSH12 0x67C7856895FC2B811A64736F PUSH13 0x63430008070033000000000000 "
				},
				"gasEstimates": {
					"creation": {
						"codeDepositCost": "138400",
						"executionCost": "183",
						"totalCost": "138583"
					},
					"external": {
						"amount1()": "2495",
						"onwer1()": "2536",
						"owner2()": "2514",
						"token1()": "2641",
						"token2()": "2578"
					}
				},
				"methodIdentifiers": {
					"amount1()": "f400fde4",
					"onwer1()": "a9e9f461",
					"owner2()": "52709725",
					"token1()": "d21220a7",
					"token2()": "25be124e"
				}
			},
			"storageLayout": {
				"storage": [
					{
						"astId": 83,
						"contract": "token_swap.sol:TokenSwap",
						"label": "token1",
						"offset": 0,
						"slot": "0",
						"type": "t_contract(IERC20)77"
					},
					{
						"astId": 85,
						"contract": "token_swap.sol:TokenSwap",
						"label": "onwer1",
						"offset": 0,
						"slot": "1",
						"type": "t_address"
					},
					{
						"astId": 87,
						"contract": "token_swap.sol:TokenSwap",
						"label": "amount1",
						"offset": 0,
						"slot": "2",
						"type": "t_uint256"
					},
					{
						"astId": 90,
						"contract": "token_swap.sol:TokenSwap",
						"label": "token2",
						"offset": 0,
						"slot": "3",
						"type": "t_contract(IERC20)77"
					},
					{
						"astId": 92,
						"contract": "token_swap.sol:TokenSwap",
						"label": "owner2",
						"offset": 0,
						"slot": "4",
						"type": "t_address"
					}
				],
				"types": {
					"t_address": {
						"encoding": "inplace",
						"label": "address",
						"numberOfBytes": "20"
					},
					"t_contract(IERC20)77": {
						"encoding": "inplace",
						"label": "contract IERC20",
						"numberOfBytes": "20"
					},
					"t_uint256": {
						"encoding": "inplace",
						"label": "uint256",
						"numberOfBytes": "32"
					}
				}
			},
			"userdoc": {
				"kind": "user",
				"methods": {},
				"version": 1
			}
		}
	}
}