{
	"merkle_tree.sol": {
		"Merkleproof": {
			"abi": [
				{
					"inputs": [
						{
							"internalType": "bytes32[]",
							"name": "proof",
							"type": "bytes32[]"
						},
						{
							"internalType": "bytes32",
							"name": "root",
							"type": "bytes32"
						},
						{
							"internalType": "bytes32",
							"name": "leaf",
							"type": "bytes32"
						},
						{
							"internalType": "uint256",
							"name": "index",
							"type": "uint256"
						}
					],
					"name": "verify",
					"outputs": [
						{
							"internalType": "bool",
							"name": "",
							"type": "bool"
						}
					],
					"stateMutability": "pure",
					"type": "function"
				}
			],
			"devdoc": {
				"kind": "dev",
				"methods": {},
				"version": 1
			},
			"evm": {
				"assembly": "    /* \"merkle_tree.sol\":68:631  contract Merkleproof {\r... */\n  mstore(0x40, 0x80)\n  callvalue\n  dup1\n  iszero\n  tag_1\n  jumpi\n  0x00\n  dup1\n  revert\ntag_1:\n  pop\n  dataSize(sub_0)\n  dup1\n  dataOffset(sub_0)\n  0x00\n  codecopy\n  0x00\n  return\nstop\n\nsub_0: assembly {\n        /* \"merkle_tree.sol\":68:631  contract Merkleproof {\r... */\n      mstore(0x40, 0x80)\n      callvalue\n      dup1\n      iszero\n      tag_1\n      jumpi\n      0x00\n      dup1\n      revert\n    tag_1:\n      pop\n      jumpi(tag_2, lt(calldatasize, 0x04))\n      shr(0xe0, calldataload(0x00))\n      dup1\n      0x21fb335c\n      eq\n      tag_3\n      jumpi\n    tag_2:\n      0x00\n      dup1\n      revert\n        /* \"merkle_tree.sol\":96:628  function verify(\r... */\n    tag_3:\n      tag_4\n      0x04\n      dup1\n      calldatasize\n      sub\n      dup2\n      add\n      swap1\n      tag_5\n      swap2\n      swap1\n      tag_6\n      jump\t// in\n    tag_5:\n      tag_7\n      jump\t// in\n    tag_4:\n      mload(0x40)\n      tag_8\n      swap2\n      swap1\n      tag_9\n      jump\t// in\n    tag_8:\n      mload(0x40)\n      dup1\n      swap2\n      sub\n      swap1\n      return\n    tag_7:\n        /* \"merkle_tree.sol\":240:244  bool */\n      0x00\n        /* \"merkle_tree.sol\":257:269  bytes32 hash */\n      dup1\n        /* \"merkle_tree.sol\":272:276  leaf */\n      dup4\n        /* \"merkle_tree.sol\":257:276  bytes32 hash = leaf */\n      swap1\n      pop\n        /* \"merkle_tree.sol\":296:302  uint i */\n      0x00\n        /* \"merkle_tree.sol\":291:619  for (uint i=0; i< proof.length; i++) {\r... */\n    tag_11:\n        /* \"merkle_tree.sol\":309:314  proof */\n      dup7\n        /* \"merkle_tree.sol\":309:321  proof.length */\n      mload\n        /* \"merkle_tree.sol\":306:307  i */\n      dup2\n        /* \"merkle_tree.sol\":306:321  i< proof.length */\n      lt\n        /* \"merkle_tree.sol\":291:619  for (uint i=0; i< proof.length; i++) {\r... */\n      iszero\n      tag_12\n      jumpi\n        /* \"merkle_tree.sol\":343:363  bytes32 proofElement */\n      0x00\n        /* \"merkle_tree.sol\":366:371  proof */\n      dup8\n        /* \"merkle_tree.sol\":372:373  i */\n      dup3\n        /* \"merkle_tree.sol\":366:374  proof[i] */\n      dup2\n      mload\n      dup2\n      lt\n      tag_14\n      jumpi\n      tag_15\n      tag_16\n      jump\t// in\n    tag_15:\n    tag_14:\n      0x20\n      mul\n      0x20\n      add\n      add\n      mload\n        /* \"merkle_tree.sol\":343:374  bytes32 proofElement = proof[i] */\n      swap1\n      pop\n        /* \"merkle_tree.sol\":423:424  0 */\n      0x00\n        /* \"merkle_tree.sol\":418:419  2 */\n      0x02\n        /* \"merkle_tree.sol\":410:415  index */\n      dup7\n        /* \"merkle_tree.sol\":410:419  index % 2 */\n      tag_17\n      swap2\n      swap1\n      tag_18\n      jump\t// in\n    tag_17:\n        /* \"merkle_tree.sol\":410:424  index % 2 == 0 */\n      eq\n        /* \"merkle_tree.sol\":406:608  if (index % 2 == 0) {\r... */\n      iszero\n      tag_19\n      jumpi\n        /* \"merkle_tree.sol\":479:483  hash */\n      dup3\n        /* \"merkle_tree.sol\":484:496  proofElement */\n      dup2\n        /* \"merkle_tree.sol\":462:497  abi.encodePacked(hash,proofElement) */\n      add(0x20, mload(0x40))\n      tag_20\n      swap3\n      swap2\n      swap1\n      tag_21\n      jump\t// in\n    tag_20:\n      mload(0x40)\n      0x20\n      dup2\n      dup4\n      sub\n      sub\n      dup2\n      mstore\n      swap1\n      0x40\n      mstore\n        /* \"merkle_tree.sol\":452:498  keccak256(abi.encodePacked(hash,proofElement)) */\n      dup1\n      mload\n      swap1\n      0x20\n      add\n      keccak256\n        /* \"merkle_tree.sol\":445:498  hash = keccak256(abi.encodePacked(hash,proofElement)) */\n      swap3\n      pop\n        /* \"merkle_tree.sol\":406:608  if (index % 2 == 0) {\r... */\n      jump(tag_22)\n    tag_19:\n        /* \"merkle_tree.sol\":573:585  proofElement */\n      dup1\n        /* \"merkle_tree.sol\":586:590  hash */\n      dup4\n        /* \"merkle_tree.sol\":556:591  abi.encodePacked(proofElement,hash) */\n      add(0x20, mload(0x40))\n      tag_23\n      swap3\n      swap2\n      swap1\n      tag_21\n      jump\t// in\n    tag_23:\n      mload(0x40)\n      0x20\n      dup2\n      dup4\n      sub\n      sub\n      dup2\n      mstore\n      swap1\n      0x40\n      mstore\n        /* \"merkle_tree.sol\":546:592  keccak256(abi.encodePacked(proofElement,hash)) */\n      dup1\n      mload\n      swap1\n      0x20\n      add\n      keccak256\n        /* \"merkle_tree.sol\":539:592  hash = keccak256(abi.encodePacked(proofElement,hash)) */\n      swap3\n      pop\n        /* \"merkle_tree.sol\":406:608  if (index % 2 == 0) {\r... */\n    tag_22:\n        /* \"merkle_tree.sol\":328:619  {\r... */\n      pop\n        /* \"merkle_tree.sol\":323:326  i++ */\n      dup1\n      dup1\n      tag_24\n      swap1\n      tag_25\n      jump\t// in\n    tag_24:\n      swap2\n      pop\n      pop\n        /* \"merkle_tree.sol\":291:619  for (uint i=0; i< proof.length; i++) {\r... */\n      jump(tag_11)\n    tag_12:\n      pop\n        /* \"merkle_tree.sol\":246:628  {\r... */\n      pop\n        /* \"merkle_tree.sol\":96:628  function verify(\r... */\n      swap5\n      swap4\n      pop\n      pop\n      pop\n      pop\n      jump\t// out\n        /* \"#utility.yul\":24:746   */\n    tag_27:\n        /* \"#utility.yul\":120:125   */\n      0x00\n        /* \"#utility.yul\":145:226   */\n      tag_29\n        /* \"#utility.yul\":161:225   */\n      tag_30\n        /* \"#utility.yul\":218:224   */\n      dup5\n        /* \"#utility.yul\":161:225   */\n      tag_31\n      jump\t// in\n    tag_30:\n        /* \"#utility.yul\":145:226   */\n      tag_32\n      jump\t// in\n    tag_29:\n        /* \"#utility.yul\":136:226   */\n      swap1\n      pop\n        /* \"#utility.yul\":246:251   */\n      dup1\n        /* \"#utility.yul\":275:281   */\n      dup4\n        /* \"#utility.yul\":268:273   */\n      dup3\n        /* \"#utility.yul\":261:282   */\n      mstore\n        /* \"#utility.yul\":309:313   */\n      0x20\n        /* \"#utility.yul\":302:307   */\n      dup3\n        /* \"#utility.yul\":298:314   */\n      add\n        /* \"#utility.yul\":291:314   */\n      swap1\n      pop\n        /* \"#utility.yul\":335:341   */\n      dup3\n        /* \"#utility.yul\":385:388   */\n      dup6\n        /* \"#utility.yul\":377:381   */\n      0x20\n        /* \"#utility.yul\":369:375   */\n      dup7\n        /* \"#utility.yul\":365:382   */\n      mul\n        /* \"#utility.yul\":360:363   */\n      dup3\n        /* \"#utility.yul\":356:383   */\n      add\n        /* \"#utility.yul\":353:389   */\n      gt\n        /* \"#utility.yul\":350:493   */\n      iszero\n      tag_33\n      jumpi\n        /* \"#utility.yul\":404:483   */\n      tag_34\n      tag_35\n      jump\t// in\n    tag_34:\n        /* \"#utility.yul\":350:493   */\n    tag_33:\n        /* \"#utility.yul\":517:518   */\n      0x00\n        /* \"#utility.yul\":502:740   */\n    tag_36:\n        /* \"#utility.yul\":527:533   */\n      dup6\n        /* \"#utility.yul\":524:525   */\n      dup2\n        /* \"#utility.yul\":521:534   */\n      lt\n        /* \"#utility.yul\":502:740   */\n      iszero\n      tag_38\n      jumpi\n        /* \"#utility.yul\":595:598   */\n      dup2\n        /* \"#utility.yul\":624:661   */\n      tag_39\n        /* \"#utility.yul\":657:660   */\n      dup9\n        /* \"#utility.yul\":645:655   */\n      dup3\n        /* \"#utility.yul\":624:661   */\n      tag_40\n      jump\t// in\n    tag_39:\n        /* \"#utility.yul\":619:622   */\n      dup5\n        /* \"#utility.yul\":612:662   */\n      mstore\n        /* \"#utility.yul\":691:695   */\n      0x20\n        /* \"#utility.yul\":686:689   */\n      dup5\n        /* \"#utility.yul\":682:696   */\n      add\n        /* \"#utility.yul\":675:696   */\n      swap4\n      pop\n        /* \"#utility.yul\":725:729   */\n      0x20\n        /* \"#utility.yul\":720:723   */\n      dup4\n        /* \"#utility.yul\":716:730   */\n      add\n        /* \"#utility.yul\":709:730   */\n      swap3\n      pop\n        /* \"#utility.yul\":562:740   */\n      pop\n        /* \"#utility.yul\":549:550   */\n      0x01\n        /* \"#utility.yul\":546:547   */\n      dup2\n        /* \"#utility.yul\":542:551   */\n      add\n        /* \"#utility.yul\":537:551   */\n      swap1\n      pop\n        /* \"#utility.yul\":502:740   */\n      jump(tag_36)\n    tag_38:\n        /* \"#utility.yul\":506:520   */\n      pop\n        /* \"#utility.yul\":126:746   */\n      pop\n      pop\n        /* \"#utility.yul\":24:746   */\n      swap4\n      swap3\n      pop\n      pop\n      pop\n      jump\t// out\n        /* \"#utility.yul\":769:1139   */\n    tag_41:\n        /* \"#utility.yul\":840:845   */\n      0x00\n        /* \"#utility.yul\":889:892   */\n      dup3\n        /* \"#utility.yul\":882:886   */\n      0x1f\n        /* \"#utility.yul\":874:880   */\n      dup4\n        /* \"#utility.yul\":870:887   */\n      add\n        /* \"#utility.yul\":866:893   */\n      slt\n        /* \"#utility.yul\":856:978   */\n      tag_43\n      jumpi\n        /* \"#utility.yul\":897:976   */\n      tag_44\n      tag_45\n      jump\t// in\n    tag_44:\n        /* \"#utility.yul\":856:978   */\n    tag_43:\n        /* \"#utility.yul\":1014:1020   */\n      dup2\n        /* \"#utility.yul\":1001:1021   */\n      calldataload\n        /* \"#utility.yul\":1039:1133   */\n      tag_46\n        /* \"#utility.yul\":1129:1132   */\n      dup5\n        /* \"#utility.yul\":1121:1127   */\n      dup3\n        /* \"#utility.yul\":1114:1118   */\n      0x20\n        /* \"#utility.yul\":1106:1112   */\n      dup7\n        /* \"#utility.yul\":1102:1119   */\n      add\n        /* \"#utility.yul\":1039:1133   */\n      tag_27\n      jump\t// in\n    tag_46:\n        /* \"#utility.yul\":1030:1133   */\n      swap2\n      pop\n        /* \"#utility.yul\":846:1139   */\n      pop\n        /* \"#utility.yul\":769:1139   */\n      swap3\n      swap2\n      pop\n      pop\n      jump\t// out\n        /* \"#utility.yul\":1145:1284   */\n    tag_40:\n        /* \"#utility.yul\":1191:1196   */\n      0x00\n        /* \"#utility.yul\":1229:1235   */\n      dup2\n        /* \"#utility.yul\":1216:1236   */\n      calldataload\n        /* \"#utility.yul\":1207:1236   */\n      swap1\n      pop\n        /* \"#utility.yul\":1245:1278   */\n      tag_48\n        /* \"#utility.yul\":1272:1277   */\n      dup2\n        /* \"#utility.yul\":1245:1278   */\n      tag_49\n      jump\t// in\n    tag_48:\n        /* \"#utility.yul\":1145:1284   */\n      swap3\n      swap2\n      pop\n      pop\n      jump\t// out\n        /* \"#utility.yul\":1290:1429   */\n    tag_50:\n        /* \"#utility.yul\":1336:1341   */\n      0x00\n        /* \"#utility.yul\":1374:1380   */\n      dup2\n        /* \"#utility.yul\":1361:1381   */\n      calldataload\n        /* \"#utility.yul\":1352:1381   */\n      swap1\n      pop\n        /* \"#utility.yul\":1390:1423   */\n      tag_52\n        /* \"#utility.yul\":1417:1422   */\n      dup2\n        /* \"#utility.yul\":1390:1423   */\n      tag_53\n      jump\t// in\n    tag_52:\n        /* \"#utility.yul\":1290:1429   */\n      swap3\n      swap2\n      pop\n      pop\n      jump\t// out\n        /* \"#utility.yul\":1435:2410   */\n    tag_6:\n        /* \"#utility.yul\":1546:1552   */\n      0x00\n        /* \"#utility.yul\":1554:1560   */\n      dup1\n        /* \"#utility.yul\":1562:1568   */\n      0x00\n        /* \"#utility.yul\":1570:1576   */\n      dup1\n        /* \"#utility.yul\":1619:1622   */\n      0x80\n        /* \"#utility.yul\":1607:1616   */\n      dup6\n        /* \"#utility.yul\":1598:1605   */\n      dup8\n        /* \"#utility.yul\":1594:1617   */\n      sub\n        /* \"#utility.yul\":1590:1623   */\n      slt\n        /* \"#utility.yul\":1587:1707   */\n      iszero\n      tag_55\n      jumpi\n        /* \"#utility.yul\":1626:1705   */\n      tag_56\n      tag_57\n      jump\t// in\n    tag_56:\n        /* \"#utility.yul\":1587:1707   */\n    tag_55:\n        /* \"#utility.yul\":1774:1775   */\n      0x00\n        /* \"#utility.yul\":1763:1772   */\n      dup6\n        /* \"#utility.yul\":1759:1776   */\n      add\n        /* \"#utility.yul\":1746:1777   */\n      calldataload\n        /* \"#utility.yul\":1804:1822   */\n      0xffffffffffffffff\n        /* \"#utility.yul\":1796:1802   */\n      dup2\n        /* \"#utility.yul\":1793:1823   */\n      gt\n        /* \"#utility.yul\":1790:1907   */\n      iszero\n      tag_58\n      jumpi\n        /* \"#utility.yul\":1826:1905   */\n      tag_59\n      tag_60\n      jump\t// in\n    tag_59:\n        /* \"#utility.yul\":1790:1907   */\n    tag_58:\n        /* \"#utility.yul\":1931:2009   */\n      tag_61\n        /* \"#utility.yul\":2001:2008   */\n      dup8\n        /* \"#utility.yul\":1992:1998   */\n      dup3\n        /* \"#utility.yul\":1981:1990   */\n      dup9\n        /* \"#utility.yul\":1977:1999   */\n      add\n        /* \"#utility.yul\":1931:2009   */\n      tag_41\n      jump\t// in\n    tag_61:\n        /* \"#utility.yul\":1921:2009   */\n      swap5\n      pop\n        /* \"#utility.yul\":1717:2019   */\n      pop\n        /* \"#utility.yul\":2058:2060   */\n      0x20\n        /* \"#utility.yul\":2084:2137   */\n      tag_62\n        /* \"#utility.yul\":2129:2136   */\n      dup8\n        /* \"#utility.yul\":2120:2126   */\n      dup3\n        /* \"#utility.yul\":2109:2118   */\n      dup9\n        /* \"#utility.yul\":2105:2127   */\n      add\n        /* \"#utility.yul\":2084:2137   */\n      tag_40\n      jump\t// in\n    tag_62:\n        /* \"#utility.yul\":2074:2137   */\n      swap4\n      pop\n        /* \"#utility.yul\":2029:2147   */\n      pop\n        /* \"#utility.yul\":2186:2188   */\n      0x40\n        /* \"#utility.yul\":2212:2265   */\n      tag_63\n        /* \"#utility.yul\":2257:2264   */\n      dup8\n        /* \"#utility.yul\":2248:2254   */\n      dup3\n        /* \"#utility.yul\":2237:2246   */\n      dup9\n        /* \"#utility.yul\":2233:2255   */\n      add\n        /* \"#utility.yul\":2212:2265   */\n      tag_40\n      jump\t// in\n    tag_63:\n        /* \"#utility.yul\":2202:2265   */\n      swap3\n      pop\n        /* \"#utility.yul\":2157:2275   */\n      pop\n        /* \"#utility.yul\":2314:2316   */\n      0x60\n        /* \"#utility.yul\":2340:2393   */\n      tag_64\n        /* \"#utility.yul\":2385:2392   */\n      dup8\n        /* \"#utility.yul\":2376:2382   */\n      dup3\n        /* \"#utility.yul\":2365:2374   */\n      dup9\n        /* \"#utility.yul\":2361:2383   */\n      add\n        /* \"#utility.yul\":2340:2393   */\n      tag_50\n      jump\t// in\n    tag_64:\n        /* \"#utility.yul\":2330:2393   */\n      swap2\n      pop\n        /* \"#utility.yul\":2285:2403   */\n      pop\n        /* \"#utility.yul\":1435:2410   */\n      swap3\n      swap6\n      swap2\n      swap5\n      pop\n      swap3\n      pop\n      jump\t// out\n        /* \"#utility.yul\":2416:2525   */\n    tag_65:\n        /* \"#utility.yul\":2497:2518   */\n      tag_67\n        /* \"#utility.yul\":2512:2517   */\n      dup2\n        /* \"#utility.yul\":2497:2518   */\n      tag_68\n      jump\t// in\n    tag_67:\n        /* \"#utility.yul\":2492:2495   */\n      dup3\n        /* \"#utility.yul\":2485:2519   */\n      mstore\n        /* \"#utility.yul\":2416:2525   */\n      pop\n      pop\n      jump\t// out\n        /* \"#utility.yul\":2531:2688   */\n    tag_69:\n        /* \"#utility.yul\":2636:2681   */\n      tag_71\n        /* \"#utility.yul\":2656:2680   */\n      tag_72\n        /* \"#utility.yul\":2674:2679   */\n      dup3\n        /* \"#utility.yul\":2656:2680   */\n      tag_73\n      jump\t// in\n    tag_72:\n        /* \"#utility.yul\":2636:2681   */\n      tag_74\n      jump\t// in\n    tag_71:\n        /* \"#utility.yul\":2631:2634   */\n      dup3\n        /* \"#utility.yul\":2624:2682   */\n      mstore\n        /* \"#utility.yul\":2531:2688   */\n      pop\n      pop\n      jump\t// out\n        /* \"#utility.yul\":2694:3091   */\n    tag_21:\n        /* \"#utility.yul\":2834:2837   */\n      0x00\n        /* \"#utility.yul\":2849:2924   */\n      tag_76\n        /* \"#utility.yul\":2920:2923   */\n      dup3\n        /* \"#utility.yul\":2911:2917   */\n      dup6\n        /* \"#utility.yul\":2849:2924   */\n      tag_69\n      jump\t// in\n    tag_76:\n        /* \"#utility.yul\":2949:2951   */\n      0x20\n        /* \"#utility.yul\":2944:2947   */\n      dup3\n        /* \"#utility.yul\":2940:2952   */\n      add\n        /* \"#utility.yul\":2933:2952   */\n      swap2\n      pop\n        /* \"#utility.yul\":2962:3037   */\n      tag_77\n        /* \"#utility.yul\":3033:3036   */\n      dup3\n        /* \"#utility.yul\":3024:3030   */\n      dup5\n        /* \"#utility.yul\":2962:3037   */\n      tag_69\n      jump\t// in\n    tag_77:\n        /* \"#utility.yul\":3062:3064   */\n      0x20\n        /* \"#utility.yul\":3057:3060   */\n      dup3\n        /* \"#utility.yul\":3053:3065   */\n      add\n        /* \"#utility.yul\":3046:3065   */\n      swap2\n      pop\n        /* \"#utility.yul\":3082:3085   */\n      dup2\n        /* \"#utility.yul\":3075:3085   */\n      swap1\n      pop\n        /* \"#utility.yul\":2694:3091   */\n      swap4\n      swap3\n      pop\n      pop\n      pop\n      jump\t// out\n        /* \"#utility.yul\":3097:3307   */\n    tag_9:\n        /* \"#utility.yul\":3184:3188   */\n      0x00\n        /* \"#utility.yul\":3222:3224   */\n      0x20\n        /* \"#utility.yul\":3211:3220   */\n      dup3\n        /* \"#utility.yul\":3207:3225   */\n      add\n        /* \"#utility.yul\":3199:3225   */\n      swap1\n      pop\n        /* \"#utility.yul\":3235:3300   */\n      tag_79\n        /* \"#utility.yul\":3297:3298   */\n      0x00\n        /* \"#utility.yul\":3286:3295   */\n      dup4\n        /* \"#utility.yul\":3282:3299   */\n      add\n        /* \"#utility.yul\":3273:3279   */\n      dup5\n        /* \"#utility.yul\":3235:3300   */\n      tag_65\n      jump\t// in\n    tag_79:\n        /* \"#utility.yul\":3097:3307   */\n      swap3\n      swap2\n      pop\n      pop\n      jump\t// out\n        /* \"#utility.yul\":3313:3442   */\n    tag_32:\n        /* \"#utility.yul\":3347:3353   */\n      0x00\n        /* \"#utility.yul\":3374:3394   */\n      tag_81\n      tag_82\n      jump\t// in\n    tag_81:\n        /* \"#utility.yul\":3364:3394   */\n      swap1\n      pop\n        /* \"#utility.yul\":3403:3436   */\n      tag_83\n        /* \"#utility.yul\":3431:3435   */\n      dup3\n        /* \"#utility.yul\":3423:3429   */\n      dup3\n        /* \"#utility.yul\":3403:3436   */\n      tag_84\n      jump\t// in\n    tag_83:\n        /* \"#utility.yul\":3313:3442   */\n      swap2\n      swap1\n      pop\n      jump\t// out\n        /* \"#utility.yul\":3448:3523   */\n    tag_82:\n        /* \"#utility.yul\":3481:3487   */\n      0x00\n        /* \"#utility.yul\":3514:3516   */\n      0x40\n        /* \"#utility.yul\":3508:3517   */\n      mload\n        /* \"#utility.yul\":3498:3517   */\n      swap1\n      pop\n        /* \"#utility.yul\":3448:3523   */\n      swap1\n      jump\t// out\n        /* \"#utility.yul\":3529:3840   */\n    tag_31:\n        /* \"#utility.yul\":3606:3610   */\n      0x00\n        /* \"#utility.yul\":3696:3714   */\n      0xffffffffffffffff\n        /* \"#utility.yul\":3688:3694   */\n      dup3\n        /* \"#utility.yul\":3685:3715   */\n      gt\n        /* \"#utility.yul\":3682:3738   */\n      iszero\n      tag_87\n      jumpi\n        /* \"#utility.yul\":3718:3736   */\n      tag_88\n      tag_89\n      jump\t// in\n    tag_88:\n        /* \"#utility.yul\":3682:3738   */\n    tag_87:\n        /* \"#utility.yul\":3768:3772   */\n      0x20\n        /* \"#utility.yul\":3760:3766   */\n      dup3\n        /* \"#utility.yul\":3756:3773   */\n      mul\n        /* \"#utility.yul\":3748:3773   */\n      swap1\n      pop\n        /* \"#utility.yul\":3828:3832   */\n      0x20\n        /* \"#utility.yul\":3822:3826   */\n      dup2\n        /* \"#utility.yul\":3818:3833   */\n      add\n        /* \"#utility.yul\":3810:3833   */\n      swap1\n      pop\n        /* \"#utility.yul\":3529:3840   */\n      swap2\n      swap1\n      pop\n      jump\t// out\n        /* \"#utility.yul\":3846:3936   */\n    tag_68:\n        /* \"#utility.yul\":3880:3887   */\n      0x00\n        /* \"#utility.yul\":3923:3928   */\n      dup2\n        /* \"#utility.yul\":3916:3929   */\n      iszero\n        /* \"#utility.yul\":3909:3930   */\n      iszero\n        /* \"#utility.yul\":3898:3930   */\n      swap1\n      pop\n        /* \"#utility.yul\":3846:3936   */\n      swap2\n      swap1\n      pop\n      jump\t// out\n        /* \"#utility.yul\":3942:4019   */\n    tag_73:\n        /* \"#utility.yul\":3979:3986   */\n      0x00\n        /* \"#utility.yul\":4008:4013   */\n      dup2\n        /* \"#utility.yul\":3997:4013   */\n      swap1\n      pop\n        /* \"#utility.yul\":3942:4019   */\n      swap2\n      swap1\n      pop\n      jump\t// out\n        /* \"#utility.yul\":4025:4102   */\n    tag_92:\n        /* \"#utility.yul\":4062:4069   */\n      0x00\n        /* \"#utility.yul\":4091:4096   */\n      dup2\n        /* \"#utility.yul\":4080:4096   */\n      swap1\n      pop\n        /* \"#utility.yul\":4025:4102   */\n      swap2\n      swap1\n      pop\n      jump\t// out\n        /* \"#utility.yul\":4108:4389   */\n    tag_84:\n        /* \"#utility.yul\":4191:4218   */\n      tag_95\n        /* \"#utility.yul\":4213:4217   */\n      dup3\n        /* \"#utility.yul\":4191:4218   */\n      tag_96\n      jump\t// in\n    tag_95:\n        /* \"#utility.yul\":4183:4189   */\n      dup2\n        /* \"#utility.yul\":4179:4219   */\n      add\n        /* \"#utility.yul\":4321:4327   */\n      dup2\n        /* \"#utility.yul\":4309:4319   */\n      dup2\n        /* \"#utility.yul\":4306:4328   */\n      lt\n        /* \"#utility.yul\":4285:4303   */\n      0xffffffffffffffff\n        /* \"#utility.yul\":4273:4283   */\n      dup3\n        /* \"#utility.yul\":4270:4304   */\n      gt\n        /* \"#utility.yul\":4267:4329   */\n      or\n        /* \"#utility.yul\":4264:4352   */\n      iszero\n      tag_97\n      jumpi\n        /* \"#utility.yul\":4332:4350   */\n      tag_98\n      tag_89\n      jump\t// in\n    tag_98:\n        /* \"#utility.yul\":4264:4352   */\n    tag_97:\n        /* \"#utility.yul\":4372:4382   */\n      dup1\n        /* \"#utility.yul\":4368:4370   */\n      0x40\n        /* \"#utility.yul\":4361:4383   */\n      mstore\n        /* \"#utility.yul\":4151:4389   */\n      pop\n        /* \"#utility.yul\":4108:4389   */\n      pop\n      pop\n      jump\t// out\n        /* \"#utility.yul\":4395:4628   */\n    tag_25:\n        /* \"#utility.yul\":4434:4437   */\n      0x00\n        /* \"#utility.yul\":4457:4481   */\n      tag_100\n        /* \"#utility.yul\":4475:4480   */\n      dup3\n        /* \"#utility.yul\":4457:4481   */\n      tag_92\n      jump\t// in\n    tag_100:\n        /* \"#utility.yul\":4448:4481   */\n      swap2\n      pop\n        /* \"#utility.yul\":4503:4569   */\n      0xffffffffffffffffffffffffffffffffffffffffffffffffffffffffffffffff\n        /* \"#utility.yul\":4496:4501   */\n      dup3\n        /* \"#utility.yul\":4493:4570   */\n      eq\n        /* \"#utility.yul\":4490:4593   */\n      iszero\n      tag_101\n      jumpi\n        /* \"#utility.yul\":4573:4591   */\n      tag_102\n      tag_103\n      jump\t// in\n    tag_102:\n        /* \"#utility.yul\":4490:4593   */\n    tag_101:\n        /* \"#utility.yul\":4620:4621   */\n      0x01\n        /* \"#utility.yul\":4613:4618   */\n      dup3\n        /* \"#utility.yul\":4609:4622   */\n      add\n        /* \"#utility.yul\":4602:4622   */\n      swap1\n      pop\n        /* \"#utility.yul\":4395:4628   */\n      swap2\n      swap1\n      pop\n      jump\t// out\n        /* \"#utility.yul\":4634:4713   */\n    tag_74:\n        /* \"#utility.yul\":4673:4680   */\n      0x00\n        /* \"#utility.yul\":4702:4707   */\n      dup2\n        /* \"#utility.yul\":4691:4707   */\n      swap1\n      pop\n        /* \"#utility.yul\":4634:4713   */\n      swap2\n      swap1\n      pop\n      jump\t// out\n        /* \"#utility.yul\":4719:4895   */\n    tag_18:\n        /* \"#utility.yul\":4751:4752   */\n      0x00\n        /* \"#utility.yul\":4768:4788   */\n      tag_106\n        /* \"#utility.yul\":4786:4787   */\n      dup3\n        /* \"#utility.yul\":4768:4788   */\n      tag_92\n      jump\t// in\n    tag_106:\n        /* \"#utility.yul\":4763:4788   */\n      swap2\n      pop\n        /* \"#utility.yul\":4802:4822   */\n      tag_107\n        /* \"#utility.yul\":4820:4821   */\n      dup4\n        /* \"#utility.yul\":4802:4822   */\n      tag_92\n      jump\t// in\n    tag_107:\n        /* \"#utility.yul\":4797:4822   */\n      swap3\n      pop\n        /* \"#utility.yul\":4841:4842   */\n      dup3\n        /* \"#utility.yul\":4831:4866   */\n      tag_108\n      jumpi\n        /* \"#utility.yul\":4846:4864   */\n      tag_109\n      tag_110\n      jump\t// in\n    tag_109:\n        /* \"#utility.yul\":4831:4866   */\n    tag_108:\n        /* \"#utility.yul\":4887:4888   */\n      dup3\n        /* \"#utility.yul\":4884:4885   */\n      dup3\n        /* \"#utility.yul\":4880:4889   */\n      mod\n        /* \"#utility.yul\":4875:4889   */\n      swap1\n      pop\n        /* \"#utility.yul\":4719:4895   */\n      swap3\n      swap2\n      pop\n      pop\n      jump\t// out\n        /* \"#utility.yul\":4901:5081   */\n    tag_103:\n        /* \"#utility.yul\":4949:5026   */\n      0x4e487b7100000000000000000000000000000000000000000000000000000000\n        /* \"#utility.yul\":4946:4947   */\n      0x00\n        /* \"#utility.yul\":4939:5027   */\n      mstore\n        /* \"#utility.yul\":5046:5050   */\n      0x11\n        /* \"#utility.yul\":5043:5044   */\n      0x04\n        /* \"#utility.yul\":5036:5051   */\n      mstore\n        /* \"#utility.yul\":5070:5074   */\n      0x24\n        /* \"#utility.yul\":5067:5068   */\n      0x00\n        /* \"#utility.yul\":5060:5075   */\n      revert\n        /* \"#utility.yul\":5087:5267   */\n    tag_110:\n        /* \"#utility.yul\":5135:5212   */\n      0x4e487b7100000000000000000000000000000000000000000000000000000000\n        /* \"#utility.yul\":5132:5133   */\n      0x00\n        /* \"#utility.yul\":5125:5213   */\n      mstore\n        /* \"#utility.yul\":5232:5236   */\n      0x12\n        /* \"#utility.yul\":5229:5230   */\n      0x04\n        /* \"#utility.yul\":5222:5237   */\n      mstore\n        /* \"#utility.yul\":5256:5260   */\n      0x24\n        /* \"#utility.yul\":5253:5254   */\n      0x00\n        /* \"#utility.yul\":5246:5261   */\n      revert\n        /* \"#utility.yul\":5273:5453   */\n    tag_16:\n        /* \"#utility.yul\":5321:5398   */\n      0x4e487b7100000000000000000000000000000000000000000000000000000000\n        /* \"#utility.yul\":5318:5319   */\n      0x00\n        /* \"#utility.yul\":5311:5399   */\n      mstore\n        /* \"#utility.yul\":5418:5422   */\n      0x32\n        /* \"#utility.yul\":5415:5416   */\n      0x04\n        /* \"#utility.yul\":5408:5423   */\n      mstore\n        /* \"#utility.yul\":5442:5446   */\n      0x24\n        /* \"#utility.yul\":5439:5440   */\n      0x00\n        /* \"#utility.yul\":5432:5447   */\n      revert\n        /* \"#utility.yul\":5459:5639   */\n    tag_89:\n        /* \"#utility.yul\":5507:5584   */\n      0x4e487b7100000000000000000000000000000000000000000000000000000000\n        /* \"#utility.yul\":5504:5505   */\n      0x00\n        /* \"#utility.yul\":5497:5585   */\n      mstore\n        /* \"#utility.yul\":5604:5608   */\n      0x41\n        /* \"#utility.yul\":5601:5602   */\n      0x04\n        /* \"#utility.yul\":5594:5609   */\n      mstore\n        /* \"#utility.yul\":5628:5632   */\n      0x24\n        /* \"#utility.yul\":5625:5626   */\n      0x00\n        /* \"#utility.yul\":5618:5633   */\n      revert\n        /* \"#utility.yul\":5645:5762   */\n    tag_45:\n        /* \"#utility.yul\":5754:5755   */\n      0x00\n        /* \"#utility.yul\":5751:5752   */\n      dup1\n        /* \"#utility.yul\":5744:5756   */\n      revert\n        /* \"#utility.yul\":5768:5885   */\n    tag_35:\n        /* \"#utility.yul\":5877:5878   */\n      0x00\n        /* \"#utility.yul\":5874:5875   */\n      dup1\n        /* \"#utility.yul\":5867:5879   */\n      revert\n        /* \"#utility.yul\":5891:6008   */\n    tag_60:\n        /* \"#utility.yul\":6000:6001   */\n      0x00\n        /* \"#utility.yul\":5997:5998   */\n      dup1\n        /* \"#utility.yul\":5990:6002   */\n      revert\n        /* \"#utility.yul\":6014:6131   */\n    tag_57:\n        /* \"#utility.yul\":6123:6124   */\n      0x00\n        /* \"#utility.yul\":6120:6121   */\n      dup1\n        /* \"#utility.yul\":6113:6125   */\n      revert\n        /* \"#utility.yul\":6137:6239   */\n    tag_96:\n        /* \"#utility.yul\":6178:6184   */\n      0x00\n        /* \"#utility.yul\":6229:6231   */\n      0x1f\n        /* \"#utility.yul\":6225:6232   */\n      not\n        /* \"#utility.yul\":6220:6222   */\n      0x1f\n        /* \"#utility.yul\":6213:6218   */\n      dup4\n        /* \"#utility.yul\":6209:6223   */\n      add\n        /* \"#utility.yul\":6205:6233   */\n      and\n        /* \"#utility.yul\":6195:6233   */\n      swap1\n      pop\n        /* \"#utility.yul\":6137:6239   */\n      swap2\n      swap1\n      pop\n      jump\t// out\n        /* \"#utility.yul\":6245:6367   */\n    tag_49:\n        /* \"#utility.yul\":6318:6342   */\n      tag_121\n        /* \"#utility.yul\":6336:6341   */\n      dup2\n        /* \"#utility.yul\":6318:6342   */\n      tag_73\n      jump\t// in\n    tag_121:\n        /* \"#utility.yul\":6311:6316   */\n      dup2\n        /* \"#utility.yul\":6308:6343   */\n      eq\n        /* \"#utility.yul\":6298:6361   */\n      tag_122\n      jumpi\n        /* \"#utility.yul\":6357:6358   */\n      0x00\n        /* \"#utility.yul\":6354:6355   */\n      dup1\n        /* \"#utility.yul\":6347:6359   */\n      revert\n        /* \"#utility.yul\":6298:6361   */\n    tag_122:\n        /* \"#utility.yul\":6245:6367   */\n      pop\n      jump\t// out\n        /* \"#utility.yul\":6373:6495   */\n    tag_53:\n        /* \"#utility.yul\":6446:6470   */\n      tag_124\n        /* \"#utility.yul\":6464:6469   */\n      dup2\n        /* \"#utility.yul\":6446:6470   */\n      tag_92\n      jump\t// in\n    tag_124:\n        /* \"#utility.yul\":6439:6444   */\n      dup2\n        /* \"#utility.yul\":6436:6471   */\n      eq\n        /* \"#utility.yul\":6426:6489   */\n      tag_125\n      jumpi\n        /* \"#utility.yul\":6485:6486   */\n      0x00\n        /* \"#utility.yul\":6482:6483   */\n      dup1\n        /* \"#utility.yul\":6475:6487   */\n      revert\n        /* \"#utility.yul\":6426:6489   */\n    tag_125:\n        /* \"#utility.yul\":6373:6495   */\n      pop\n      jump\t// out\n\n    auxdata: 0xa264697066735822122054c9848011a6a4c7699e5b3914a9710c1a0627e6a4faf42224348808eb41fcfc64736f6c63430008070033\n}\n",
				"bytecode": {
					"linkReferences": {},
					"object": "608060405234801561001057600080fd5b50610543806100206000396000f3fe608060405234801561001057600080fd5b506004361061002b5760003560e01c806321fb335c14610030575b600080fd5b61004a600480360381019061004591906101e8565b610060565b60405161005791906102bd565b60405180910390f35b60008083905060005b86518110156101165760008782815181106100875761008661045c565b5b6020026020010151905060006002866100a091906103cd565b14156100d65782816040516020016100b9929190610291565b604051602081830303815290604052805190602001209250610102565b80836040516020016100e9929190610291565b6040516020818303038152906040528051906020012092505b50808061010e9061037a565b915050610069565b5050949350505050565b600061013361012e846102fd565b6102d8565b90508083825260208201905082856020860282011115610156576101556104bf565b5b60005b85811015610186578161016c88826101be565b845260208401935060208301925050600181019050610159565b5050509392505050565b600082601f8301126101a5576101a46104ba565b5b81356101b5848260208601610120565b91505092915050565b6000813590506101cd816104df565b92915050565b6000813590506101e2816104f6565b92915050565b60008060008060808587031215610202576102016104c9565b5b600085013567ffffffffffffffff8111156102205761021f6104c4565b5b61022c87828801610190565b945050602061023d878288016101be565b935050604061024e878288016101be565b925050606061025f878288016101d3565b91505092959194509250565b61027481610329565b82525050565b61028b61028682610335565b6103c3565b82525050565b600061029d828561027a565b6020820191506102ad828461027a565b6020820191508190509392505050565b60006020820190506102d2600083018461026b565b92915050565b60006102e26102f3565b90506102ee8282610349565b919050565b6000604051905090565b600067ffffffffffffffff8211156103185761031761048b565b5b602082029050602081019050919050565b60008115159050919050565b6000819050919050565b6000819050919050565b610352826104ce565b810181811067ffffffffffffffff821117156103715761037061048b565b5b80604052505050565b60006103858261033f565b91507fffffffffffffffffffffffffffffffffffffffffffffffffffffffffffffffff8214156103b8576103b76103fe565b5b600182019050919050565b6000819050919050565b60006103d88261033f565b91506103e38361033f565b9250826103f3576103f261042d565b5b828206905092915050565b7f4e487b7100000000000000000000000000000000000000000000000000000000600052601160045260246000fd5b7f4e487b7100000000000000000000000000000000000000000000000000000000600052601260045260246000fd5b7f4e487b7100000000000000000000000000000000000000000000000000000000600052603260045260246000fd5b7f4e487b7100000000000000000000000000000000000000000000000000000000600052604160045260246000fd5b600080fd5b600080fd5b600080fd5b600080fd5b6000601f19601f8301169050919050565b6104e881610335565b81146104f357600080fd5b50565b6104ff8161033f565b811461050a57600080fd5b5056fea264697066735822122054c9848011a6a4c7699e5b3914a9710c1a0627e6a4faf42224348808eb41fcfc64736f6c63430008070033",
					"opcodes": "PUSH1 0x80 PUSH1 0x40 MSTORE CALLVALUE DUP1 ISZERO PUSH2 0x10 JUMPI PUSH1 0x0 DUP1 REVERT JUMPDEST POP PUSH2 0x543 DUP1 PUSH2 0x20 PUSH1 0x0 CODECOPY PUSH1 0x0 RETURN INVALID PUSH1 0x80 PUSH1 0x40 MSTORE CALLVALUE DUP1 ISZERO PUSH2 0x10 JUMPI PUSH1 0x0 DUP1 REVERT JUMPDEST POP PUSH1 0x4 CALLDATASIZE LT PUSH2 0x2B JUMPI PUSH1 0x0 CALLDATALOAD PUSH1 0xE0 SHR DUP1 PUSH4 0x21FB335C EQ PUSH2 0x30 JUMPI JUMPDEST PUSH1 0x0 DUP1 REVERT JUMPDEST PUSH2 0x4A PUSH1 0x4 DUP1 CALLDATASIZE SUB DUP2 ADD SWAP1 PUSH2 0x45 SWAP2 SWAP1 PUSH2 0x1E8 JUMP JUMPDEST PUSH2 0x60 JUMP JUMPDEST PUSH1 0x40 MLOAD PUSH2 0x57 SWAP2 SWAP1 PUSH2 0x2BD JUMP JUMPDEST PUSH1 0x40 MLOAD DUP1 SWAP2 SUB SWAP1 RETURN JUMPDEST PUSH1 0x0 DUP1 DUP4 SWAP1 POP PUSH1 0x0 JUMPDEST DUP7 MLOAD DUP2 LT ISZERO PUSH2 0x116 JUMPI PUSH1 0x0 DUP8 DUP3 DUP2 MLOAD DUP2 LT PUSH2 0x87 JUMPI PUSH2 0x86 PUSH2 0x45C JUMP JUMPDEST JUMPDEST PUSH1 0x20 MUL PUSH1 0x20 ADD ADD MLOAD SWAP1 POP PUSH1 0x0 PUSH1 0x2 DUP7 PUSH2 0xA0 SWAP2 SWAP1 PUSH2 0x3CD JUMP JUMPDEST EQ ISZERO PUSH2 0xD6 JUMPI DUP3 DUP2 PUSH1 0x40 MLOAD PUSH1 0x20 ADD PUSH2 0xB9 SWAP3 SWAP2 SWAP1 PUSH2 0x291 JUMP JUMPDEST PUSH1 0x40 MLOAD PUSH1 0x20 DUP2 DUP4 SUB SUB DUP2 MSTORE SWAP1 PUSH1 0x40 MSTORE DUP1 MLOAD SWAP1 PUSH1 0x20 ADD KECCAK256 SWAP3 POP PUSH2 0x102 JUMP JUMPDEST DUP1 DUP4 PUSH1 0x40 MLOAD PUSH1 0x20 ADD PUSH2 0xE9 SWAP3 SWAP2 SWAP1 PUSH2 0x291 JUMP JUMPDEST PUSH1 0x40 MLOAD PUSH1 0x20 DUP2 DUP4 SUB SUB DUP2 MSTORE SWAP1 PUSH1 0x40 MSTORE DUP1 MLOAD SWAP1 PUSH1 0x20 ADD KECCAK256 SWAP3 POP JUMPDEST POP DUP1 DUP1 PUSH2 0x10E SWAP1 PUSH2 0x37A JUMP JUMPDEST SWAP2 POP POP PUSH2 0x69 JUMP JUMPDEST POP POP SWAP5 SWAP4 POP POP POP POP JUMP JUMPDEST PUSH1 0x0 PUSH2 0x133 PUSH2 0x12E DUP5 PUSH2 0x2FD JUMP JUMPDEST PUSH2 0x2D8 JUMP JUMPDEST SWAP1 POP DUP1 DUP4 DUP3 MSTORE PUSH1 0x20 DUP3 ADD SWAP1 POP DUP3 DUP6 PUSH1 0x20 DUP7 MUL DUP3 ADD GT ISZERO PUSH2 0x156 JUMPI PUSH2 0x155 PUSH2 0x4BF JUMP JUMPDEST JUMPDEST PUSH1 0x0 JUMPDEST DUP6 DUP2 LT ISZERO PUSH2 0x186 JUMPI DUP2 PUSH2 0x16C DUP9 DUP3 PUSH2 0x1BE JUMP JUMPDEST DUP5 MSTORE PUSH1 0x20 DUP5 ADD SWAP4 POP PUSH1 0x20 DUP4 ADD SWAP3 POP POP PUSH1 0x1 DUP2 ADD SWAP1 POP PUSH2 0x159 JUMP JUMPDEST POP POP POP SWAP4 SWAP3 POP POP POP JUMP JUMPDEST PUSH1 0x0 DUP3 PUSH1 0x1F DUP4 ADD SLT PUSH2 0x1A5 JUMPI PUSH2 0x1A4 PUSH2 0x4BA JUMP JUMPDEST JUMPDEST DUP2 CALLDATALOAD PUSH2 0x1B5 DUP5 DUP3 PUSH1 0x20 DUP7 ADD PUSH2 0x120 JUMP JUMPDEST SWAP2 POP POP SWAP3 SWAP2 POP POP JUMP JUMPDEST PUSH1 0x0 DUP2 CALLDATALOAD SWAP1 POP PUSH2 0x1CD DUP2 PUSH2 0x4DF JUMP JUMPDEST SWAP3 SWAP2 POP POP JUMP JUMPDEST PUSH1 0x0 DUP2 CALLDATALOAD SWAP1 POP PUSH2 0x1E2 DUP2 PUSH2 0x4F6 JUMP JUMPDEST SWAP3 SWAP2 POP POP JUMP JUMPDEST PUSH1 0x0 DUP1 PUSH1 0x0 DUP1 PUSH1 0x80 DUP6 DUP8 SUB SLT ISZERO PUSH2 0x202 JUMPI PUSH2 0x201 PUSH2 0x4C9 JUMP JUMPDEST JUMPDEST PUSH1 0x0 DUP6 ADD CALLDATALOAD PUSH8 0xFFFFFFFFFFFFFFFF DUP2 GT ISZERO PUSH2 0x220 JUMPI PUSH2 0x21F PUSH2 0x4C4 JUMP JUMPDEST JUMPDEST PUSH2 0x22C DUP8 DUP3 DUP9 ADD PUSH2 0x190 JUMP JUMPDEST SWAP5 POP POP PUSH1 0x20 PUSH2 0x23D DUP8 DUP3 DUP9 ADD PUSH2 0x1BE JUMP JUMPDEST SWAP4 POP POP PUSH1 0x40 PUSH2 0x24E DUP8 DUP3 DUP9 ADD PUSH2 0x1BE JUMP JUMPDEST SWAP3 POP POP PUSH1 0x60 PUSH2 0x25F DUP8 DUP3 DUP9 ADD PUSH2 0x1D3 JUMP JUMPDEST SWAP2 POP POP SWAP3 SWAP6 SWAP2 SWAP5 POP SWAP3 POP JUMP JUMPDEST PUSH2 0x274 DUP2 PUSH2 0x329 JUMP JUMPDEST DUP3 MSTORE POP POP JUMP JUMPDEST PUSH2 0x28B PUSH2 0x286 DUP3 PUSH2 0x335 JUMP JUMPDEST PUSH2 0x3C3 JUMP JUMPDEST DUP3 MSTORE POP POP JUMP JUMPDEST PUSH1 0x0 PUSH2 0x29D DUP3 DUP6 PUSH2 0x27A JUMP JUMPDEST PUSH1 0x20 DUP3 ADD SWAP2 POP PUSH2 0x2AD DUP3 DUP5 PUSH2 0x27A JUMP JUMPDEST PUSH1 0x20 DUP3 ADD SWAP2 POP DUP2 SWAP1 POP SWAP4 SWAP3 POP POP POP JUMP JUMPDEST PUSH1 0x0 PUSH1 0x20 DUP3 ADD SWAP1 POP PUSH2 0x2D2 PUSH1 0x0 DUP4 ADD DUP5 PUSH2 0x26B JUMP JUMPDEST SWAP3 SWAP2 POP POP JUMP JUMPDEST PUSH1 0x0 PUSH2 0x2E2 PUSH2 0x2F3 JUMP JUMPDEST SWAP1 POP PUSH2 0x2EE DUP3 DUP3 PUSH2 0x349 JUMP JUMPDEST SWAP2 SWAP1 POP JUMP JUMPDEST PUSH1 0x0 PUSH1 0x40 MLOAD SWAP1 POP SWAP1 JUMP JUMPDEST PUSH1 0x0 PUSH8 0xFFFFFFFFFFFFFFFF DUP3 GT ISZERO PUSH2 0x318 JUMPI PUSH2 0x317 PUSH2 0x48B JUMP JUMPDEST JUMPDEST PUSH1 0x20 DUP3 MUL SWAP1 POP PUSH1 0x20 DUP2 ADD SWAP1 POP SWAP2 SWAP1 POP JUMP JUMPDEST PUSH1 0x0 DUP2 ISZERO ISZERO SWAP1 POP SWAP2 SWAP1 POP JUMP JUMPDEST PUSH1 0x0 DUP2 SWAP1 POP SWAP2 SWAP1 POP JUMP JUMPDEST PUSH1 0x0 DUP2 SWAP1 POP SWAP2 SWAP1 POP JUMP JUMPDEST PUSH2 0x352 DUP3 PUSH2 0x4CE JUMP JUMPDEST DUP2 ADD DUP2 DUP2 LT PUSH8 0xFFFFFFFFFFFFFFFF DUP3 GT OR ISZERO PUSH2 0x371 JUMPI PUSH2 0x370 PUSH2 0x48B JUMP JUMPDEST JUMPDEST DUP1 PUSH1 0x40 MSTORE POP POP POP JUMP JUMPDEST PUSH1 0x0 PUSH2 0x385 DUP3 PUSH2 0x33F JUMP JUMPDEST SWAP2 POP PUSH32 0xFFFFFFFFFFFFFFFFFFFFFFFFFFFFFFFFFFFFFFFFFFFFFFFFFFFFFFFFFFFFFFFF DUP3 EQ ISZERO PUSH2 0x3B8 JUMPI PUSH2 0x3B7 PUSH2 0x3FE JUMP JUMPDEST JUMPDEST PUSH1 0x1 DUP3 ADD SWAP1 POP SWAP2 SWAP1 POP JUMP JUMPDEST PUSH1 0x0 DUP2 SWAP1 POP SWAP2 SWAP1 POP JUMP JUMPDEST PUSH1 0x0 PUSH2 0x3D8 DUP3 PUSH2 0x33F JUMP JUMPDEST SWAP2 POP PUSH2 0x3E3 DUP4 PUSH2 0x33F JUMP JUMPDEST SWAP3 POP DUP3 PUSH2 0x3F3 JUMPI PUSH2 0x3F2 PUSH2 0x42D JUMP JUMPDEST JUMPDEST DUP3 DUP3 MOD SWAP1 POP SWAP3 SWAP2 POP POP JUMP JUMPDEST PUSH32 0x4E487B7100000000000000000000000000000000000000000000000000000000 PUSH1 0x0 MSTORE PUSH1 0x11 PUSH1 0x4 MSTORE PUSH1 0x24 PUSH1 0x0 REVERT JUMPDEST PUSH32 0x4E487B7100000000000000000000000000000000000000000000000000000000 PUSH1 0x0 MSTORE PUSH1 0x12 PUSH1 0x4 MSTORE PUSH1 0x24 PUSH1 0x0 REVERT JUMPDEST PUSH32 0x4E487B7100000000000000000000000000000000000000000000000000000000 PUSH1 0x0 MSTORE PUSH1 0x32 PUSH1 0x4 MSTORE PUSH1 0x24 PUSH1 0x0 REVERT JUMPDEST PUSH32 0x4E487B7100000000000000000000000000000000000000000000000000000000 PUSH1 0x0 MSTORE PUSH1 0x41 PUSH1 0x4 MSTORE PUSH1 0x24 PUSH1 0x0 REVERT JUMPDEST PUSH1 0x0 DUP1 REVERT JUMPDEST PUSH1 0x0 DUP1 REVERT JUMPDEST PUSH1 0x0 DUP1 REVERT JUMPDEST PUSH1 0x0 DUP1 REVERT JUMPDEST PUSH1 0x0 PUSH1 0x1F NOT PUSH1 0x1F DUP4 ADD AND SWAP1 POP SWAP2 SWAP1 POP JUMP JUMPDEST PUSH2 0x4E8 DUP2 PUSH2 0x335 JUMP JUMPDEST DUP2 EQ PUSH2 0x4F3 JUMPI PUSH1 0x0 DUP1 REVERT JUMPDEST POP JUMP JUMPDEST PUSH2 0x4FF DUP2 PUSH2 0x33F JUMP JUMPDEST DUP2 EQ PUSH2 0x50A JUMPI PUSH1 0x0 DUP1 REVERT JUMPDEST POP JUMP INVALID LOG2 PUSH5 0x6970667358 0x22 SLT KECCAK256 SLOAD 0xC9 DUP5 DUP1 GT 0xA6 LOG4 0xC7 PUSH10 0x9E5B3914A9710C1A0627 0xE6 LOG4 STATICCALL DELEGATECALL 0x22 0x24 CALLVALUE DUP9 ADDMOD 0xEB COINBASE 0xFC 0xFC PUSH5 0x736F6C6343 STOP ADDMOD SMOD STOP CALLER "
				},
				"gasEstimates": {
					"creation": {
						"codeDepositCost": "269400",
						"executionCost": "312",
						"totalCost": "269712"
					},
					"external": {
						"verify(bytes32[],bytes32,bytes32,uint256)": "infinite"
					}
				},
				"methodIdentifiers": {
					"verify(bytes32[],bytes32,bytes32,uint256)": "21fb335c"
				}
			},
			"storageLayout": {
				"storage": [],
				"types": null
			},
			"userdoc": {
				"kind": "user",
				"methods": {},
				"version": 1
			}
		}
	}
}