{
	"coin.sol": {
		"AucEngine": {
			"abi": [
				{
					"inputs": [],
					"stateMutability": "nonpayable",
					"type": "constructor"
				},
				{
					"anonymous": false,
					"inputs": [
						{
							"indexed": false,
							"internalType": "uint256",
							"name": "index",
							"type": "uint256"
						},
						{
							"indexed": false,
							"internalType": "string",
							"name": "itemName",
							"type": "string"
						},
						{
							"indexed": false,
							"internalType": "uint256",
							"name": "startingPrice",
							"type": "uint256"
						},
						{
							"indexed": false,
							"internalType": "uint256",
							"name": "duration",
							"type": "uint256"
						}
					],
					"name": "AuctionCreated",
					"type": "event"
				},
				{
					"anonymous": false,
					"inputs": [
						{
							"indexed": false,
							"internalType": "uint256",
							"name": "index",
							"type": "uint256"
						},
						{
							"indexed": false,
							"internalType": "uint256",
							"name": "finalPrice",
							"type": "uint256"
						},
						{
							"indexed": false,
							"internalType": "address",
							"name": "winner",
							"type": "address"
						}
					],
					"name": "AuctionEnded",
					"type": "event"
				},
				{
					"inputs": [
						{
							"internalType": "uint256",
							"name": "",
							"type": "uint256"
						}
					],
					"name": "auctions",
					"outputs": [
						{
							"internalType": "address payable",
							"name": "seller",
							"type": "address"
						},
						{
							"internalType": "uint256",
							"name": "startingPrice",
							"type": "uint256"
						},
						{
							"internalType": "uint256",
							"name": "finalPrice",
							"type": "uint256"
						},
						{
							"internalType": "uint256",
							"name": "startAt",
							"type": "uint256"
						},
						{
							"internalType": "uint256",
							"name": "endsAt",
							"type": "uint256"
						},
						{
							"internalType": "uint256",
							"name": "discountRate",
							"type": "uint256"
						},
						{
							"internalType": "string",
							"name": "item",
							"type": "string"
						},
						{
							"internalType": "bool",
							"name": "stopped",
							"type": "bool"
						}
					],
					"stateMutability": "view",
					"type": "function"
				},
				{
					"inputs": [
						{
							"internalType": "uint256",
							"name": "index",
							"type": "uint256"
						}
					],
					"name": "buy",
					"outputs": [],
					"stateMutability": "payable",
					"type": "function"
				},
				{
					"inputs": [
						{
							"internalType": "uint256",
							"name": "_startingPrice",
							"type": "uint256"
						},
						{
							"internalType": "uint256",
							"name": "_discountRate",
							"type": "uint256"
						},
						{
							"internalType": "string",
							"name": "_item",
							"type": "string"
						},
						{
							"internalType": "uint256",
							"name": "_duration",
							"type": "uint256"
						}
					],
					"name": "createAuction",
					"outputs": [],
					"stateMutability": "nonpayable",
					"type": "function"
				},
				{
					"inputs": [
						{
							"internalType": "uint256",
							"name": "index",
							"type": "uint256"
						}
					],
					"name": "getPriceFor",
					"outputs": [
						{
							"internalType": "uint256",
							"name": "",
							"type": "uint256"
						}
					],
					"stateMutability": "view",
					"type": "function"
				},
				{
					"inputs": [],
					"name": "owner",
					"outputs": [
						{
							"internalType": "address",
							"name": "",
							"type": "address"
						}
					],
					"stateMutability": "view",
					"type": "function"
				}
			],
			"devdoc": {
				"kind": "dev",
				"methods": {},
				"version": 1
			},
			"evm": {
				"assembly": "    /* \"coin.sol\":29:2507  contract AucEngine {\r... */\n  mstore(0x40, 0x80)\n    /* \"coin.sol\":598:650  constructor()  {\r... */\n  callvalue\n  dup1\n  iszero\n  tag_1\n  jumpi\n  0x00\n  dup1\n  revert\ntag_1:\n  pop\n    /* \"coin.sol\":632:642  msg.sender */\n  caller\n    /* \"coin.sol\":624:629  owner */\n  0x00\n  dup1\n    /* \"coin.sol\":624:642  owner = msg.sender */\n  0x0100\n  exp\n  dup2\n  sload\n  dup2\n  0xffffffffffffffffffffffffffffffffffffffff\n  mul\n  not\n  and\n  swap1\n  dup4\n  0xffffffffffffffffffffffffffffffffffffffff\n  and\n  mul\n  or\n  swap1\n  sstore\n  pop\n    /* \"coin.sol\":29:2507  contract AucEngine {\r... */\n  dataSize(sub_0)\n  dup1\n  dataOffset(sub_0)\n  0x00\n  codecopy\n  0x00\n  return\nstop\n\nsub_0: assembly {\n        /* \"coin.sol\":29:2507  contract AucEngine {\r... */\n      mstore(0x40, 0x80)\n      jumpi(tag_1, lt(calldatasize, 0x04))\n      shr(0xe0, calldataload(0x00))\n      dup1\n      0x4534cd9c\n      eq\n      tag_2\n      jumpi\n      dup1\n      0x571a26a0\n      eq\n      tag_3\n      jumpi\n      dup1\n      0x8da5cb5b\n      eq\n      tag_4\n      jumpi\n      dup1\n      0xd96a094a\n      eq\n      tag_5\n      jumpi\n      dup1\n      0xe9835d15\n      eq\n      tag_6\n      jumpi\n    tag_1:\n      0x00\n      dup1\n      revert\n        /* \"coin.sol\":1452:1795  function getPriceFor(uint index) public view returns(uint) {\r... */\n    tag_2:\n      callvalue\n      dup1\n      iszero\n      tag_7\n      jumpi\n      0x00\n      dup1\n      revert\n    tag_7:\n      pop\n      tag_8\n      0x04\n      dup1\n      calldatasize\n      sub\n      dup2\n      add\n      swap1\n      tag_9\n      swap2\n      swap1\n      tag_10\n      jump\t// in\n    tag_9:\n      tag_11\n      jump\t// in\n    tag_8:\n      mload(0x40)\n      tag_12\n      swap2\n      swap1\n      tag_13\n      jump\t// in\n    tag_12:\n      mload(0x40)\n      dup1\n      swap2\n      sub\n      swap1\n      return\n        /* \"coin.sol\":394:419  Auction[] public auctions */\n    tag_3:\n      callvalue\n      dup1\n      iszero\n      tag_14\n      jumpi\n      0x00\n      dup1\n      revert\n    tag_14:\n      pop\n      tag_15\n      0x04\n      dup1\n      calldatasize\n      sub\n      dup2\n      add\n      swap1\n      tag_16\n      swap2\n      swap1\n      tag_10\n      jump\t// in\n    tag_16:\n      tag_17\n      jump\t// in\n    tag_15:\n      mload(0x40)\n      tag_18\n      swap9\n      swap8\n      swap7\n      swap6\n      swap5\n      swap4\n      swap3\n      swap2\n      swap1\n      tag_19\n      jump\t// in\n    tag_18:\n      mload(0x40)\n      dup1\n      swap2\n      sub\n      swap1\n      return\n        /* \"coin.sol\":55:75  address public owner */\n    tag_4:\n      callvalue\n      dup1\n      iszero\n      tag_20\n      jumpi\n      0x00\n      dup1\n      revert\n    tag_20:\n      pop\n      tag_21\n      tag_22\n      jump\t// in\n    tag_21:\n      mload(0x40)\n      tag_23\n      swap2\n      swap1\n      tag_24\n      jump\t// in\n    tag_23:\n      mload(0x40)\n      dup1\n      swap2\n      sub\n      swap1\n      return\n        /* \"coin.sol\":1811:2496  function buy(uint index) external payable {\r... */\n    tag_5:\n      tag_25\n      0x04\n      dup1\n      calldatasize\n      sub\n      dup2\n      add\n      swap1\n      tag_26\n      swap2\n      swap1\n      tag_10\n      jump\t// in\n    tag_26:\n      tag_27\n      jump\t// in\n    tag_25:\n      stop\n        /* \"coin.sol\":662:1438  function createAuction(uint _startingPrice, uint _discountRate, string calldata _item, uint _duration) external {\r... */\n    tag_6:\n      callvalue\n      dup1\n      iszero\n      tag_28\n      jumpi\n      0x00\n      dup1\n      revert\n    tag_28:\n      pop\n      tag_29\n      0x04\n      dup1\n      calldatasize\n      sub\n      dup2\n      add\n      swap1\n      tag_30\n      swap2\n      swap1\n      tag_31\n      jump\t// in\n    tag_30:\n      tag_32\n      jump\t// in\n    tag_29:\n      stop\n        /* \"coin.sol\":1452:1795  function getPriceFor(uint index) public view returns(uint) {\r... */\n    tag_11:\n        /* \"coin.sol\":1505:1509  uint */\n      0x00\n        /* \"coin.sol\":1522:1545  Auction memory cAuction */\n      dup1\n        /* \"coin.sol\":1548:1556  auctions */\n      0x01\n        /* \"coin.sol\":1557:1562  index */\n      dup4\n        /* \"coin.sol\":1548:1563  auctions[index] */\n      dup2\n      sload\n      dup2\n      lt\n      tag_34\n      jumpi\n      tag_35\n      tag_36\n      jump\t// in\n    tag_35:\n    tag_34:\n      swap1\n      0x00\n      mstore\n      keccak256(0x00, 0x20)\n      swap1\n      0x08\n      mul\n      add\n        /* \"coin.sol\":1522:1563  Auction memory cAuction = auctions[index] */\n      mload(0x40)\n      dup1\n      0x0100\n      add\n      0x40\n      mstore\n      swap1\n      dup2\n      0x00\n      dup3\n      add\n      0x00\n      swap1\n      sload\n      swap1\n      0x0100\n      exp\n      swap1\n      div\n      0xffffffffffffffffffffffffffffffffffffffff\n      and\n      0xffffffffffffffffffffffffffffffffffffffff\n      and\n      0xffffffffffffffffffffffffffffffffffffffff\n      and\n      dup2\n      mstore\n      0x20\n      add\n      0x01\n      dup3\n      add\n      sload\n      dup2\n      mstore\n      0x20\n      add\n      0x02\n      dup3\n      add\n      sload\n      dup2\n      mstore\n      0x20\n      add\n      0x03\n      dup3\n      add\n      sload\n      dup2\n      mstore\n      0x20\n      add\n      0x04\n      dup3\n      add\n      sload\n      dup2\n      mstore\n      0x20\n      add\n      0x05\n      dup3\n      add\n      sload\n      dup2\n      mstore\n      0x20\n      add\n      0x06\n      dup3\n      add\n      dup1\n      sload\n      tag_38\n      swap1\n      tag_39\n      jump\t// in\n    tag_38:\n      dup1\n      0x1f\n      add\n      0x20\n      dup1\n      swap2\n      div\n      mul\n      0x20\n      add\n      mload(0x40)\n      swap1\n      dup2\n      add\n      0x40\n      mstore\n      dup1\n      swap3\n      swap2\n      swap1\n      dup2\n      dup2\n      mstore\n      0x20\n      add\n      dup3\n      dup1\n      sload\n      tag_40\n      swap1\n      tag_39\n      jump\t// in\n    tag_40:\n      dup1\n      iszero\n      tag_41\n      jumpi\n      dup1\n      0x1f\n      lt\n      tag_42\n      jumpi\n      0x0100\n      dup1\n      dup4\n      sload\n      div\n      mul\n      dup4\n      mstore\n      swap2\n      0x20\n      add\n      swap2\n      jump(tag_41)\n    tag_42:\n      dup3\n      add\n      swap2\n      swap1\n      0x00\n      mstore\n      keccak256(0x00, 0x20)\n      swap1\n    tag_43:\n      dup2\n      sload\n      dup2\n      mstore\n      swap1\n      0x01\n      add\n      swap1\n      0x20\n      add\n      dup1\n      dup4\n      gt\n      tag_43\n      jumpi\n      dup3\n      swap1\n      sub\n      0x1f\n      and\n      dup3\n      add\n      swap2\n    tag_41:\n      pop\n      pop\n      pop\n      pop\n      pop\n      dup2\n      mstore\n      0x20\n      add\n      0x07\n      dup3\n      add\n      0x00\n      swap1\n      sload\n      swap1\n      0x0100\n      exp\n      swap1\n      div\n      0xff\n      and\n      iszero\n      iszero\n      iszero\n      iszero\n      dup2\n      mstore\n      pop\n      pop\n      swap1\n      pop\n        /* \"coin.sol\":1585:1593  cAuction */\n      dup1\n        /* \"coin.sol\":1585:1601  cAuction.stopped */\n      0xe0\n      add\n      mload\n        /* \"coin.sol\":1584:1601  !cAuction.stopped */\n      iszero\n        /* \"coin.sol\":1576:1614  require(!cAuction.stopped, \"stopped!\") */\n      tag_44\n      jumpi\n      mload(0x40)\n      0x08c379a000000000000000000000000000000000000000000000000000000000\n      dup2\n      mstore\n      0x04\n      add\n      tag_45\n      swap1\n      tag_46\n      jump\t// in\n    tag_45:\n      mload(0x40)\n      dup1\n      swap2\n      sub\n      swap1\n      revert\n    tag_44:\n        /* \"coin.sol\":1627:1639  uint elapsed */\n      0x00\n        /* \"coin.sol\":1660:1668  cAuction */\n      dup2\n        /* \"coin.sol\":1660:1676  cAuction.startAt */\n      0x60\n      add\n      mload\n        /* \"coin.sol\":1642:1657  block.timestamp */\n      timestamp\n        /* \"coin.sol\":1642:1676  block.timestamp - cAuction.startAt */\n      tag_47\n      swap2\n      swap1\n      tag_48\n      jump\t// in\n    tag_47:\n        /* \"coin.sol\":1627:1676  uint elapsed = block.timestamp - cAuction.startAt */\n      swap1\n      pop\n        /* \"coin.sol\":1687:1700  uint discount */\n      0x00\n        /* \"coin.sol\":1727:1734  elapsed */\n      dup2\n        /* \"coin.sol\":1703:1711  cAuction */\n      dup4\n        /* \"coin.sol\":1703:1724  cAuction.discountRate */\n      0xa0\n      add\n      mload\n        /* \"coin.sol\":1703:1734  cAuction.discountRate * elapsed */\n      tag_49\n      swap2\n      swap1\n      tag_50\n      jump\t// in\n    tag_49:\n        /* \"coin.sol\":1687:1734  uint discount = cAuction.discountRate * elapsed */\n      swap1\n      pop\n        /* \"coin.sol\":1779:1787  discount */\n      dup1\n        /* \"coin.sol\":1754:1762  cAuction */\n      dup4\n        /* \"coin.sol\":1754:1776  cAuction.startingPrice */\n      0x20\n      add\n      mload\n        /* \"coin.sol\":1754:1787  cAuction.startingPrice - discount */\n      tag_51\n      swap2\n      swap1\n      tag_48\n      jump\t// in\n    tag_51:\n        /* \"coin.sol\":1747:1787  return cAuction.startingPrice - discount */\n      swap4\n      pop\n      pop\n      pop\n      pop\n        /* \"coin.sol\":1452:1795  function getPriceFor(uint index) public view returns(uint) {\r... */\n      swap2\n      swap1\n      pop\n      jump\t// out\n        /* \"coin.sol\":394:419  Auction[] public auctions */\n    tag_17:\n      0x01\n      dup2\n      dup2\n      sload\n      dup2\n      lt\n      tag_52\n      jumpi\n      0x00\n      dup1\n      revert\n    tag_52:\n      swap1\n      0x00\n      mstore\n      keccak256(0x00, 0x20)\n      swap1\n      0x08\n      mul\n      add\n      0x00\n      swap2\n      pop\n      swap1\n      pop\n      dup1\n      0x00\n      add\n      0x00\n      swap1\n      sload\n      swap1\n      0x0100\n      exp\n      swap1\n      div\n      0xffffffffffffffffffffffffffffffffffffffff\n      and\n      swap1\n      dup1\n      0x01\n      add\n      sload\n      swap1\n      dup1\n      0x02\n      add\n      sload\n      swap1\n      dup1\n      0x03\n      add\n      sload\n      swap1\n      dup1\n      0x04\n      add\n      sload\n      swap1\n      dup1\n      0x05\n      add\n      sload\n      swap1\n      dup1\n      0x06\n      add\n      dup1\n      sload\n      tag_54\n      swap1\n      tag_39\n      jump\t// in\n    tag_54:\n      dup1\n      0x1f\n      add\n      0x20\n      dup1\n      swap2\n      div\n      mul\n      0x20\n      add\n      mload(0x40)\n      swap1\n      dup2\n      add\n      0x40\n      mstore\n      dup1\n      swap3\n      swap2\n      swap1\n      dup2\n      dup2\n      mstore\n      0x20\n      add\n      dup3\n      dup1\n      sload\n      tag_55\n      swap1\n      tag_39\n      jump\t// in\n    tag_55:\n      dup1\n      iszero\n      tag_56\n      jumpi\n      dup1\n      0x1f\n      lt\n      tag_57\n      jumpi\n      0x0100\n      dup1\n      dup4\n      sload\n      div\n      mul\n      dup4\n      mstore\n      swap2\n      0x20\n      add\n      swap2\n      jump(tag_56)\n    tag_57:\n      dup3\n      add\n      swap2\n      swap1\n      0x00\n      mstore\n      keccak256(0x00, 0x20)\n      swap1\n    tag_58:\n      dup2\n      sload\n      dup2\n      mstore\n      swap1\n      0x01\n      add\n      swap1\n      0x20\n      add\n      dup1\n      dup4\n      gt\n      tag_58\n      jumpi\n      dup3\n      swap1\n      sub\n      0x1f\n      and\n      dup3\n      add\n      swap2\n    tag_56:\n      pop\n      pop\n      pop\n      pop\n      pop\n      swap1\n      dup1\n      0x07\n      add\n      0x00\n      swap1\n      sload\n      swap1\n      0x0100\n      exp\n      swap1\n      div\n      0xff\n      and\n      swap1\n      pop\n      dup9\n      jump\t// out\n        /* \"coin.sol\":55:75  address public owner */\n    tag_22:\n      0x00\n      dup1\n      sload\n      swap1\n      0x0100\n      exp\n      swap1\n      div\n      0xffffffffffffffffffffffffffffffffffffffff\n      and\n      dup2\n      jump\t// out\n        /* \"coin.sol\":1811:2496  function buy(uint index) external payable {\r... */\n    tag_27:\n        /* \"coin.sol\":1864:1888  Auction storage cAuction */\n      0x00\n        /* \"coin.sol\":1891:1899  auctions */\n      0x01\n        /* \"coin.sol\":1900:1905  index */\n      dup3\n        /* \"coin.sol\":1891:1906  auctions[index] */\n      dup2\n      sload\n      dup2\n      lt\n      tag_60\n      jumpi\n      tag_61\n      tag_36\n      jump\t// in\n    tag_61:\n    tag_60:\n      swap1\n      0x00\n      mstore\n      keccak256(0x00, 0x20)\n      swap1\n      0x08\n      mul\n      add\n        /* \"coin.sol\":1864:1906  Auction storage cAuction = auctions[index] */\n      swap1\n      pop\n        /* \"coin.sol\":1928:1936  cAuction */\n      dup1\n        /* \"coin.sol\":1928:1944  cAuction.stopped */\n      0x07\n      add\n      0x00\n      swap1\n      sload\n      swap1\n      0x0100\n      exp\n      swap1\n      div\n      0xff\n      and\n        /* \"coin.sol\":1927:1944  !cAuction.stopped */\n      iszero\n        /* \"coin.sol\":1919:1957  require(!cAuction.stopped, \"stopped!\") */\n      tag_63\n      jumpi\n      mload(0x40)\n      0x08c379a000000000000000000000000000000000000000000000000000000000\n      dup2\n      mstore\n      0x04\n      add\n      tag_64\n      swap1\n      tag_46\n      jump\t// in\n    tag_64:\n      mload(0x40)\n      dup1\n      swap2\n      sub\n      swap1\n      revert\n    tag_63:\n        /* \"coin.sol\":1994:2002  cAuction */\n      dup1\n        /* \"coin.sol\":1994:2009  cAuction.endsAt */\n      0x04\n      add\n      sload\n        /* \"coin.sol\":1976:1991  block.timestamp */\n      timestamp\n        /* \"coin.sol\":1976:2009  block.timestamp < cAuction.endsAt */\n      lt\n        /* \"coin.sol\":1968:2019  require(block.timestamp < cAuction.endsAt, \"end!\" ) */\n      tag_65\n      jumpi\n      mload(0x40)\n      0x08c379a000000000000000000000000000000000000000000000000000000000\n      dup2\n      mstore\n      0x04\n      add\n      tag_66\n      swap1\n      tag_67\n      jump\t// in\n    tag_66:\n      mload(0x40)\n      dup1\n      swap2\n      sub\n      swap1\n      revert\n    tag_65:\n        /* \"coin.sol\":2032:2043  uint cPrice */\n      0x00\n        /* \"coin.sol\":2046:2064  getPriceFor(index) */\n      tag_68\n        /* \"coin.sol\":2058:2063  index */\n      dup4\n        /* \"coin.sol\":2046:2057  getPriceFor */\n      tag_11\n        /* \"coin.sol\":2046:2064  getPriceFor(index) */\n      jump\t// in\n    tag_68:\n        /* \"coin.sol\":2032:2064  uint cPrice = getPriceFor(index) */\n      swap1\n      pop\n        /* \"coin.sol\":2098:2104  cPrice */\n      dup1\n        /* \"coin.sol\":2085:2094  msg.value */\n      callvalue\n        /* \"coin.sol\":2085:2104  msg.value >= cPrice */\n      lt\n      iszero\n        /* \"coin.sol\":2077:2126  require(msg.value >= cPrice,\" not enough money!\") */\n      tag_69\n      jumpi\n      mload(0x40)\n      0x08c379a000000000000000000000000000000000000000000000000000000000\n      dup2\n      mstore\n      0x04\n      add\n      tag_70\n      swap1\n      tag_71\n      jump\t// in\n    tag_70:\n      mload(0x40)\n      dup1\n      swap2\n      sub\n      swap1\n      revert\n    tag_69:\n        /* \"coin.sol\":2156:2160  true */\n      0x01\n        /* \"coin.sol\":2137:2145  cAuction */\n      dup3\n        /* \"coin.sol\":2137:2153  cAuction.stopped */\n      0x07\n      add\n      0x00\n        /* \"coin.sol\":2137:2160  cAuction.stopped = true */\n      0x0100\n      exp\n      dup2\n      sload\n      dup2\n      0xff\n      mul\n      not\n      and\n      swap1\n      dup4\n      iszero\n      iszero\n      mul\n      or\n      swap1\n      sstore\n      pop\n        /* \"coin.sol\":2195:2201  cPrice */\n      dup1\n        /* \"coin.sol\":2173:2181  cAuction */\n      dup3\n        /* \"coin.sol\":2173:2192  cAuction.finalPrice */\n      0x02\n      add\n        /* \"coin.sol\":2173:2201  cAuction.finalPrice = cPrice */\n      dup2\n      swap1\n      sstore\n      pop\n        /* \"coin.sol\":2212:2223  uint refund */\n      0x00\n        /* \"coin.sol\":2238:2244  cPrice */\n      dup2\n        /* \"coin.sol\":2226:2235  msg.value */\n      callvalue\n        /* \"coin.sol\":2226:2244  msg.value - cPrice */\n      tag_72\n      swap2\n      swap1\n      tag_48\n      jump\t// in\n    tag_72:\n        /* \"coin.sol\":2212:2244  uint refund = msg.value - cPrice */\n      swap1\n      pop\n        /* \"coin.sol\":2270:2271  0 */\n      0x00\n        /* \"coin.sol\":2261:2267  refund */\n      dup2\n        /* \"coin.sol\":2261:2271  refund > 0 */\n      gt\n        /* \"coin.sol\":2257:2336  if (refund > 0) {\r... */\n      iszero\n      tag_73\n      jumpi\n        /* \"coin.sol\":2296:2306  msg.sender */\n      caller\n        /* \"coin.sol\":2288:2316  payable(msg.sender).transfer */\n      0xffffffffffffffffffffffffffffffffffffffff\n      and\n        /* \"coin.sol\":2288:2324  payable(msg.sender).transfer(refund) */\n      0x08fc\n        /* \"coin.sol\":2317:2323  refund */\n      dup3\n        /* \"coin.sol\":2288:2324  payable(msg.sender).transfer(refund) */\n      swap1\n      dup2\n      iszero\n      mul\n      swap1\n      mload(0x40)\n      0x00\n      mload(0x40)\n      dup1\n      dup4\n      sub\n      dup2\n      dup6\n      dup9\n      dup9\n      call\n      swap4\n      pop\n      pop\n      pop\n      pop\n      iszero\n      dup1\n      iszero\n      tag_75\n      jumpi\n      returndatasize\n      0x00\n      dup1\n      returndatacopy\n      revert(0x00, returndatasize)\n    tag_75:\n      pop\n        /* \"coin.sol\":2257:2336  if (refund > 0) {\r... */\n    tag_73:\n        /* \"coin.sol\":2348:2356  cAuction */\n      dup3\n        /* \"coin.sol\":2348:2363  cAuction.seller */\n      0x00\n      add\n      0x00\n      swap1\n      sload\n      swap1\n      0x0100\n      exp\n      swap1\n      div\n      0xffffffffffffffffffffffffffffffffffffffff\n      and\n        /* \"coin.sol\":2348:2372  cAuction.seller.transfer */\n      0xffffffffffffffffffffffffffffffffffffffff\n      and\n        /* \"coin.sol\":2348:2425  cAuction.seller.transfer(\r... */\n      0x08fc\n        /* \"coin.sol\":2410:2413  100 */\n      0x64\n        /* \"coin.sol\":140:142  10 */\n      0x0a\n        /* \"coin.sol\":2398:2404  cPrice */\n      dup6\n        /* \"coin.sol\":2398:2408  cPrice*FEE */\n      tag_76\n      swap2\n      swap1\n      tag_50\n      jump\t// in\n    tag_76:\n        /* \"coin.sol\":2397:2413  (cPrice*FEE)/100 */\n      tag_77\n      swap2\n      swap1\n      tag_78\n      jump\t// in\n    tag_77:\n        /* \"coin.sol\":2387:2393  cPrice */\n      dup5\n        /* \"coin.sol\":2387:2414  cPrice - ((cPrice*FEE)/100) */\n      tag_79\n      swap2\n      swap1\n      tag_48\n      jump\t// in\n    tag_79:\n        /* \"coin.sol\":2348:2425  cAuction.seller.transfer(\r... */\n      swap1\n      dup2\n      iszero\n      mul\n      swap1\n      mload(0x40)\n      0x00\n      mload(0x40)\n      dup1\n      dup4\n      sub\n      dup2\n      dup6\n      dup9\n      dup9\n      call\n      swap4\n      pop\n      pop\n      pop\n      pop\n      iszero\n      dup1\n      iszero\n      tag_81\n      jumpi\n      returndatasize\n      0x00\n      dup1\n      returndatacopy\n      revert(0x00, returndatasize)\n    tag_81:\n      pop\n        /* \"coin.sol\":2445:2482  AuctionEnded(index,cPrice,msg.sender) */\n      0xbafc4bda865d4d1f8d5b16f883e996fde0fe71112fac81503876d35375694400\n        /* \"coin.sol\":2458:2463  index */\n      dup5\n        /* \"coin.sol\":2464:2470  cPrice */\n      dup4\n        /* \"coin.sol\":2471:2481  msg.sender */\n      caller\n        /* \"coin.sol\":2445:2482  AuctionEnded(index,cPrice,msg.sender) */\n      mload(0x40)\n      tag_82\n      swap4\n      swap3\n      swap2\n      swap1\n      tag_83\n      jump\t// in\n    tag_82:\n      mload(0x40)\n      dup1\n      swap2\n      sub\n      swap1\n      log1\n        /* \"coin.sol\":1853:2496  {\r... */\n      pop\n      pop\n      pop\n        /* \"coin.sol\":1811:2496  function buy(uint index) external payable {\r... */\n      pop\n      jump\t// out\n        /* \"coin.sol\":662:1438  function createAuction(uint _startingPrice, uint _discountRate, string calldata _item, uint _duration) external {\r... */\n    tag_32:\n        /* \"coin.sol\":785:798  uint duration */\n      0x00\n        /* \"coin.sol\":814:815  0 */\n      dup1\n        /* \"coin.sol\":801:810  _duration */\n      dup3\n        /* \"coin.sol\":801:815  _duration == 0 */\n      eq\n        /* \"coin.sol\":801:838  _duration == 0 ? DURATION : _duration */\n      tag_85\n      jumpi\n        /* \"coin.sol\":829:838  _duration */\n      dup2\n        /* \"coin.sol\":801:838  _duration == 0 ? DURATION : _duration */\n      jump(tag_86)\n    tag_85:\n        /* \"coin.sol\":107:113  2 days */\n      0x02a300\n        /* \"coin.sol\":801:838  _duration == 0 ? DURATION : _duration */\n    tag_86:\n        /* \"coin.sol\":785:838  uint duration = _duration == 0 ? DURATION : _duration */\n      swap1\n      pop\n        /* \"coin.sol\":893:901  duration */\n      dup1\n        /* \"coin.sol\":877:890  _discountRate */\n      dup6\n        /* \"coin.sol\":877:901  _discountRate * duration */\n      tag_87\n      swap2\n      swap1\n      tag_50\n      jump\t// in\n    tag_87:\n        /* \"coin.sol\":859:873  _startingPrice */\n      dup7\n        /* \"coin.sol\":859:901  _startingPrice >= _discountRate * duration */\n      lt\n      iszero\n        /* \"coin.sol\":851:929  require(_startingPrice >= _discountRate * duration,\"incorrect starting price\") */\n      tag_88\n      jumpi\n      mload(0x40)\n      0x08c379a000000000000000000000000000000000000000000000000000000000\n      dup2\n      mstore\n      0x04\n      add\n      tag_89\n      swap1\n      tag_90\n      jump\t// in\n    tag_89:\n      mload(0x40)\n      dup1\n      swap2\n      sub\n      swap1\n      revert\n    tag_88:\n        /* \"coin.sol\":944:969  Auction memory newAuction */\n      0x00\n        /* \"coin.sol\":972:1304  Auction({\r... */\n      mload(0x40)\n      dup1\n      0x0100\n      add\n      0x40\n      mstore\n      dup1\n        /* \"coin.sol\":1011:1021  msg.sender */\n      caller\n        /* \"coin.sol\":972:1304  Auction({\r... */\n      0xffffffffffffffffffffffffffffffffffffffff\n      and\n      dup2\n      mstore\n      0x20\n      add\n        /* \"coin.sol\":1052:1066  _startingPrice */\n      dup9\n        /* \"coin.sol\":972:1304  Auction({\r... */\n      dup2\n      mstore\n      0x20\n      add\n        /* \"coin.sol\":1093:1107  _startingPrice */\n      dup9\n        /* \"coin.sol\":972:1304  Auction({\r... */\n      dup2\n      mstore\n      0x20\n      add\n        /* \"coin.sol\":1173:1188  block.timestamp */\n      timestamp\n        /* \"coin.sol\":972:1304  Auction({\r... */\n      dup2\n      mstore\n      0x20\n      add\n        /* \"coin.sol\":1229:1237  duration */\n      dup4\n        /* \"coin.sol\":1211:1226  block.timestamp */\n      timestamp\n        /* \"coin.sol\":1211:1237  block.timestamp + duration */\n      tag_91\n      swap2\n      swap1\n      tag_92\n      jump\t// in\n    tag_91:\n        /* \"coin.sol\":972:1304  Auction({\r... */\n      dup2\n      mstore\n      0x20\n      add\n        /* \"coin.sol\":1136:1149  _discountRate */\n      dup8\n        /* \"coin.sol\":972:1304  Auction({\r... */\n      dup2\n      mstore\n      0x20\n      add\n        /* \"coin.sol\":1258:1263  _item */\n      dup7\n      dup7\n        /* \"coin.sol\":972:1304  Auction({\r... */\n      dup1\n      dup1\n      0x1f\n      add\n      0x20\n      dup1\n      swap2\n      div\n      mul\n      0x20\n      add\n      mload(0x40)\n      swap1\n      dup2\n      add\n      0x40\n      mstore\n      dup1\n      swap4\n      swap3\n      swap2\n      swap1\n      dup2\n      dup2\n      mstore\n      0x20\n      add\n      dup4\n      dup4\n      dup1\n      dup3\n      dup5\n      calldatacopy\n      0x00\n      dup2\n      dup5\n      add\n      mstore\n      not(0x1f)\n      0x1f\n      dup3\n      add\n      and\n      swap1\n      pop\n      dup1\n      dup4\n      add\n      swap3\n      pop\n      pop\n      pop\n      pop\n      pop\n      pop\n      pop\n      dup2\n      mstore\n      0x20\n      add\n        /* \"coin.sol\":1287:1292  false */\n      0x00\n        /* \"coin.sol\":972:1304  Auction({\r... */\n      iszero\n      iszero\n      dup2\n      mstore\n      pop\n        /* \"coin.sol\":944:1304  Auction memory newAuction = Auction({\r... */\n      swap1\n      pop\n        /* \"coin.sol\":1317:1325  auctions */\n      0x01\n        /* \"coin.sol\":1331:1341  newAuction */\n      dup2\n        /* \"coin.sol\":1317:1342  auctions.push(newAuction) */\n      swap1\n      dup1\n      0x01\n      dup2\n      sload\n      add\n      dup1\n      dup3\n      sstore\n      dup1\n      swap2\n      pop\n      pop\n      0x01\n      swap1\n      sub\n      swap1\n      0x00\n      mstore\n      keccak256(0x00, 0x20)\n      swap1\n      0x08\n      mul\n      add\n      0x00\n      swap1\n      swap2\n      swap1\n      swap2\n      swap1\n      swap2\n      pop\n      0x00\n      dup3\n      add\n      mload\n      dup2\n      0x00\n      add\n      exp(0x0100, 0x00)\n      dup2\n      sload\n      dup2\n      0xffffffffffffffffffffffffffffffffffffffff\n      mul\n      not\n      and\n      swap1\n      dup4\n      0xffffffffffffffffffffffffffffffffffffffff\n      and\n      mul\n      or\n      swap1\n      sstore\n      pop\n      0x20\n      dup3\n      add\n      mload\n      dup2\n      0x01\n      add\n      sstore\n      0x40\n      dup3\n      add\n      mload\n      dup2\n      0x02\n      add\n      sstore\n      0x60\n      dup3\n      add\n      mload\n      dup2\n      0x03\n      add\n      sstore\n      0x80\n      dup3\n      add\n      mload\n      dup2\n      0x04\n      add\n      sstore\n      0xa0\n      dup3\n      add\n      mload\n      dup2\n      0x05\n      add\n      sstore\n      0xc0\n      dup3\n      add\n      mload\n      dup2\n      0x06\n      add\n      swap1\n      dup1\n      mload\n      swap1\n      0x20\n      add\n      swap1\n      tag_94\n      swap3\n      swap2\n      swap1\n      tag_95\n      jump\t// in\n    tag_94:\n      pop\n      0xe0\n      dup3\n      add\n      mload\n      dup2\n      0x07\n      add\n      exp(0x0100, 0x00)\n      dup2\n      sload\n      dup2\n      0xff\n      mul\n      not\n      and\n      swap1\n      dup4\n      iszero\n      iszero\n      mul\n      or\n      swap1\n      sstore\n      pop\n      pop\n      pop\n        /* \"coin.sol\":1362:1428  AuctionCreated(auctions.length-1, _item, _startingPrice, duration) */\n      0x5bf34ed94988e5dcdc7d1faaa54eb1d3b55f45d5f11457e235afb21a8ebbe73c\n        /* \"coin.sol\":1393:1394  1 */\n      0x01\n        /* \"coin.sol\":1377:1385  auctions */\n      dup1\n        /* \"coin.sol\":1377:1392  auctions.length */\n      dup1\n      sload\n      swap1\n      pop\n        /* \"coin.sol\":1377:1394  auctions.length-1 */\n      tag_96\n      swap2\n      swap1\n      tag_48\n      jump\t// in\n    tag_96:\n        /* \"coin.sol\":1396:1401  _item */\n      dup7\n      dup7\n        /* \"coin.sol\":1403:1417  _startingPrice */\n      dup11\n        /* \"coin.sol\":1419:1427  duration */\n      dup7\n        /* \"coin.sol\":1362:1428  AuctionCreated(auctions.length-1, _item, _startingPrice, duration) */\n      mload(0x40)\n      tag_97\n      swap6\n      swap5\n      swap4\n      swap3\n      swap2\n      swap1\n      tag_98\n      jump\t// in\n    tag_97:\n      mload(0x40)\n      dup1\n      swap2\n      sub\n      swap1\n      log1\n        /* \"coin.sol\":774:1438  {\r... */\n      pop\n      pop\n        /* \"coin.sol\":662:1438  function createAuction(uint _startingPrice, uint _discountRate, string calldata _item, uint _duration) external {\r... */\n      pop\n      pop\n      pop\n      pop\n      pop\n      jump\t// out\n    tag_95:\n      dup3\n      dup1\n      sload\n      tag_99\n      swap1\n      tag_39\n      jump\t// in\n    tag_99:\n      swap1\n      0x00\n      mstore\n      keccak256(0x00, 0x20)\n      swap1\n      0x1f\n      add\n      0x20\n      swap1\n      div\n      dup2\n      add\n      swap3\n      dup3\n      tag_101\n      jumpi\n      0x00\n      dup6\n      sstore\n      jump(tag_100)\n    tag_101:\n      dup3\n      0x1f\n      lt\n      tag_102\n      jumpi\n      dup1\n      mload\n      not(0xff)\n      and\n      dup4\n      dup1\n      add\n      or\n      dup6\n      sstore\n      jump(tag_100)\n    tag_102:\n      dup3\n      dup1\n      add\n      0x01\n      add\n      dup6\n      sstore\n      dup3\n      iszero\n      tag_100\n      jumpi\n      swap2\n      dup3\n      add\n    tag_103:\n      dup3\n      dup2\n      gt\n      iszero\n      tag_104\n      jumpi\n      dup3\n      mload\n      dup3\n      sstore\n      swap2\n      0x20\n      add\n      swap2\n      swap1\n      0x01\n      add\n      swap1\n      jump(tag_103)\n    tag_104:\n    tag_100:\n      pop\n      swap1\n      pop\n      tag_105\n      swap2\n      swap1\n      tag_106\n      jump\t// in\n    tag_105:\n      pop\n      swap1\n      jump\t// out\n    tag_106:\n    tag_107:\n      dup1\n      dup3\n      gt\n      iszero\n      tag_108\n      jumpi\n      0x00\n      dup2\n      0x00\n      swap1\n      sstore\n      pop\n      0x01\n      add\n      jump(tag_107)\n    tag_108:\n      pop\n      swap1\n      jump\t// out\n        /* \"#utility.yul\":21:574   */\n    tag_110:\n        /* \"#utility.yul\":79:87   */\n      0x00\n        /* \"#utility.yul\":89:95   */\n      dup1\n        /* \"#utility.yul\":139:142   */\n      dup4\n        /* \"#utility.yul\":132:136   */\n      0x1f\n        /* \"#utility.yul\":124:130   */\n      dup5\n        /* \"#utility.yul\":120:137   */\n      add\n        /* \"#utility.yul\":116:143   */\n      slt\n        /* \"#utility.yul\":106:228   */\n      tag_112\n      jumpi\n        /* \"#utility.yul\":147:226   */\n      tag_113\n      tag_114\n      jump\t// in\n    tag_113:\n        /* \"#utility.yul\":106:228   */\n    tag_112:\n        /* \"#utility.yul\":260:266   */\n      dup3\n        /* \"#utility.yul\":247:267   */\n      calldataload\n        /* \"#utility.yul\":237:267   */\n      swap1\n      pop\n        /* \"#utility.yul\":290:308   */\n      0xffffffffffffffff\n        /* \"#utility.yul\":282:288   */\n      dup2\n        /* \"#utility.yul\":279:309   */\n      gt\n        /* \"#utility.yul\":276:393   */\n      iszero\n      tag_115\n      jumpi\n        /* \"#utility.yul\":312:391   */\n      tag_116\n      tag_117\n      jump\t// in\n    tag_116:\n        /* \"#utility.yul\":276:393   */\n    tag_115:\n        /* \"#utility.yul\":426:430   */\n      0x20\n        /* \"#utility.yul\":418:424   */\n      dup4\n        /* \"#utility.yul\":414:431   */\n      add\n        /* \"#utility.yul\":402:431   */\n      swap2\n      pop\n        /* \"#utility.yul\":480:483   */\n      dup4\n        /* \"#utility.yul\":472:476   */\n      0x01\n        /* \"#utility.yul\":464:470   */\n      dup3\n        /* \"#utility.yul\":460:477   */\n      mul\n        /* \"#utility.yul\":450:458   */\n      dup4\n        /* \"#utility.yul\":446:478   */\n      add\n        /* \"#utility.yul\":443:484   */\n      gt\n        /* \"#utility.yul\":440:568   */\n      iszero\n      tag_118\n      jumpi\n        /* \"#utility.yul\":487:566   */\n      tag_119\n      tag_120\n      jump\t// in\n    tag_119:\n        /* \"#utility.yul\":440:568   */\n    tag_118:\n        /* \"#utility.yul\":21:574   */\n      swap3\n      pop\n      swap3\n      swap1\n      pop\n      jump\t// out\n        /* \"#utility.yul\":580:719   */\n    tag_121:\n        /* \"#utility.yul\":626:631   */\n      0x00\n        /* \"#utility.yul\":664:670   */\n      dup2\n        /* \"#utility.yul\":651:671   */\n      calldataload\n        /* \"#utility.yul\":642:671   */\n      swap1\n      pop\n        /* \"#utility.yul\":680:713   */\n      tag_123\n        /* \"#utility.yul\":707:712   */\n      dup2\n        /* \"#utility.yul\":680:713   */\n      tag_124\n      jump\t// in\n    tag_123:\n        /* \"#utility.yul\":580:719   */\n      swap3\n      swap2\n      pop\n      pop\n      jump\t// out\n        /* \"#utility.yul\":725:1054   */\n    tag_10:\n        /* \"#utility.yul\":784:790   */\n      0x00\n        /* \"#utility.yul\":833:835   */\n      0x20\n        /* \"#utility.yul\":821:830   */\n      dup3\n        /* \"#utility.yul\":812:819   */\n      dup5\n        /* \"#utility.yul\":808:831   */\n      sub\n        /* \"#utility.yul\":804:836   */\n      slt\n        /* \"#utility.yul\":801:920   */\n      iszero\n      tag_126\n      jumpi\n        /* \"#utility.yul\":839:918   */\n      tag_127\n      tag_128\n      jump\t// in\n    tag_127:\n        /* \"#utility.yul\":801:920   */\n    tag_126:\n        /* \"#utility.yul\":959:960   */\n      0x00\n        /* \"#utility.yul\":984:1037   */\n      tag_129\n        /* \"#utility.yul\":1029:1036   */\n      dup5\n        /* \"#utility.yul\":1020:1026   */\n      dup3\n        /* \"#utility.yul\":1009:1018   */\n      dup6\n        /* \"#utility.yul\":1005:1027   */\n      add\n        /* \"#utility.yul\":984:1037   */\n      tag_121\n      jump\t// in\n    tag_129:\n        /* \"#utility.yul\":974:1037   */\n      swap2\n      pop\n        /* \"#utility.yul\":930:1047   */\n      pop\n        /* \"#utility.yul\":725:1054   */\n      swap3\n      swap2\n      pop\n      pop\n      jump\t// out\n        /* \"#utility.yul\":1060:2025   */\n    tag_31:\n        /* \"#utility.yul\":1158:1164   */\n      0x00\n        /* \"#utility.yul\":1166:1172   */\n      dup1\n        /* \"#utility.yul\":1174:1180   */\n      0x00\n        /* \"#utility.yul\":1182:1188   */\n      dup1\n        /* \"#utility.yul\":1190:1196   */\n      0x00\n        /* \"#utility.yul\":1239:1242   */\n      0x80\n        /* \"#utility.yul\":1227:1236   */\n      dup7\n        /* \"#utility.yul\":1218:1225   */\n      dup9\n        /* \"#utility.yul\":1214:1237   */\n      sub\n        /* \"#utility.yul\":1210:1243   */\n      slt\n        /* \"#utility.yul\":1207:1327   */\n      iszero\n      tag_131\n      jumpi\n        /* \"#utility.yul\":1246:1325   */\n      tag_132\n      tag_128\n      jump\t// in\n    tag_132:\n        /* \"#utility.yul\":1207:1327   */\n    tag_131:\n        /* \"#utility.yul\":1366:1367   */\n      0x00\n        /* \"#utility.yul\":1391:1444   */\n      tag_133\n        /* \"#utility.yul\":1436:1443   */\n      dup9\n        /* \"#utility.yul\":1427:1433   */\n      dup3\n        /* \"#utility.yul\":1416:1425   */\n      dup10\n        /* \"#utility.yul\":1412:1434   */\n      add\n        /* \"#utility.yul\":1391:1444   */\n      tag_121\n      jump\t// in\n    tag_133:\n        /* \"#utility.yul\":1381:1444   */\n      swap6\n      pop\n        /* \"#utility.yul\":1337:1454   */\n      pop\n        /* \"#utility.yul\":1493:1495   */\n      0x20\n        /* \"#utility.yul\":1519:1572   */\n      tag_134\n        /* \"#utility.yul\":1564:1571   */\n      dup9\n        /* \"#utility.yul\":1555:1561   */\n      dup3\n        /* \"#utility.yul\":1544:1553   */\n      dup10\n        /* \"#utility.yul\":1540:1562   */\n      add\n        /* \"#utility.yul\":1519:1572   */\n      tag_121\n      jump\t// in\n    tag_134:\n        /* \"#utility.yul\":1509:1572   */\n      swap5\n      pop\n        /* \"#utility.yul\":1464:1582   */\n      pop\n        /* \"#utility.yul\":1649:1651   */\n      0x40\n        /* \"#utility.yul\":1638:1647   */\n      dup7\n        /* \"#utility.yul\":1634:1652   */\n      add\n        /* \"#utility.yul\":1621:1653   */\n      calldataload\n        /* \"#utility.yul\":1680:1698   */\n      0xffffffffffffffff\n        /* \"#utility.yul\":1672:1678   */\n      dup2\n        /* \"#utility.yul\":1669:1699   */\n      gt\n        /* \"#utility.yul\":1666:1783   */\n      iszero\n      tag_135\n      jumpi\n        /* \"#utility.yul\":1702:1781   */\n      tag_136\n      tag_137\n      jump\t// in\n    tag_136:\n        /* \"#utility.yul\":1666:1783   */\n    tag_135:\n        /* \"#utility.yul\":1815:1880   */\n      tag_138\n        /* \"#utility.yul\":1872:1879   */\n      dup9\n        /* \"#utility.yul\":1863:1869   */\n      dup3\n        /* \"#utility.yul\":1852:1861   */\n      dup10\n        /* \"#utility.yul\":1848:1870   */\n      add\n        /* \"#utility.yul\":1815:1880   */\n      tag_110\n      jump\t// in\n    tag_138:\n        /* \"#utility.yul\":1797:1880   */\n      swap4\n      pop\n      swap4\n      pop\n        /* \"#utility.yul\":1592:1890   */\n      pop\n        /* \"#utility.yul\":1929:1931   */\n      0x60\n        /* \"#utility.yul\":1955:2008   */\n      tag_139\n        /* \"#utility.yul\":2000:2007   */\n      dup9\n        /* \"#utility.yul\":1991:1997   */\n      dup3\n        /* \"#utility.yul\":1980:1989   */\n      dup10\n        /* \"#utility.yul\":1976:1998   */\n      add\n        /* \"#utility.yul\":1955:2008   */\n      tag_121\n      jump\t// in\n    tag_139:\n        /* \"#utility.yul\":1945:2008   */\n      swap2\n      pop\n        /* \"#utility.yul\":1900:2018   */\n      pop\n        /* \"#utility.yul\":1060:2025   */\n      swap3\n      swap6\n      pop\n      swap3\n      swap6\n      swap1\n      swap4\n      pop\n      jump\t// out\n        /* \"#utility.yul\":2031:2173   */\n    tag_140:\n        /* \"#utility.yul\":2134:2166   */\n      tag_142\n        /* \"#utility.yul\":2160:2165   */\n      dup2\n        /* \"#utility.yul\":2134:2166   */\n      tag_143\n      jump\t// in\n    tag_142:\n        /* \"#utility.yul\":2129:2132   */\n      dup3\n        /* \"#utility.yul\":2122:2167   */\n      mstore\n        /* \"#utility.yul\":2031:2173   */\n      pop\n      pop\n      jump\t// out\n        /* \"#utility.yul\":2179:2297   */\n    tag_144:\n        /* \"#utility.yul\":2266:2290   */\n      tag_146\n        /* \"#utility.yul\":2284:2289   */\n      dup2\n        /* \"#utility.yul\":2266:2290   */\n      tag_147\n      jump\t// in\n    tag_146:\n        /* \"#utility.yul\":2261:2264   */\n      dup3\n        /* \"#utility.yul\":2254:2291   */\n      mstore\n        /* \"#utility.yul\":2179:2297   */\n      pop\n      pop\n      jump\t// out\n        /* \"#utility.yul\":2303:2412   */\n    tag_148:\n        /* \"#utility.yul\":2384:2405   */\n      tag_150\n        /* \"#utility.yul\":2399:2404   */\n      dup2\n        /* \"#utility.yul\":2384:2405   */\n      tag_151\n      jump\t// in\n    tag_150:\n        /* \"#utility.yul\":2379:2382   */\n      dup3\n        /* \"#utility.yul\":2372:2406   */\n      mstore\n        /* \"#utility.yul\":2303:2412   */\n      pop\n      pop\n      jump\t// out\n        /* \"#utility.yul\":2442:2746   */\n    tag_152:\n        /* \"#utility.yul\":2540:2543   */\n      0x00\n        /* \"#utility.yul\":2561:2632   */\n      tag_154\n        /* \"#utility.yul\":2625:2631   */\n      dup4\n        /* \"#utility.yul\":2620:2623   */\n      dup6\n        /* \"#utility.yul\":2561:2632   */\n      tag_155\n      jump\t// in\n    tag_154:\n        /* \"#utility.yul\":2554:2632   */\n      swap4\n      pop\n        /* \"#utility.yul\":2642:2685   */\n      tag_156\n        /* \"#utility.yul\":2678:2684   */\n      dup4\n        /* \"#utility.yul\":2673:2676   */\n      dup6\n        /* \"#utility.yul\":2666:2671   */\n      dup5\n        /* \"#utility.yul\":2642:2685   */\n      tag_157\n      jump\t// in\n    tag_156:\n        /* \"#utility.yul\":2710:2739   */\n      tag_158\n        /* \"#utility.yul\":2732:2738   */\n      dup4\n        /* \"#utility.yul\":2710:2739   */\n      tag_159\n      jump\t// in\n    tag_158:\n        /* \"#utility.yul\":2705:2708   */\n      dup5\n        /* \"#utility.yul\":2701:2740   */\n      add\n        /* \"#utility.yul\":2694:2740   */\n      swap1\n      pop\n        /* \"#utility.yul\":2442:2746   */\n      swap4\n      swap3\n      pop\n      pop\n      pop\n      jump\t// out\n        /* \"#utility.yul\":2752:3116   */\n    tag_160:\n        /* \"#utility.yul\":2840:2843   */\n      0x00\n        /* \"#utility.yul\":2868:2907   */\n      tag_162\n        /* \"#utility.yul\":2901:2906   */\n      dup3\n        /* \"#utility.yul\":2868:2907   */\n      tag_163\n      jump\t// in\n    tag_162:\n        /* \"#utility.yul\":2923:2994   */\n      tag_164\n        /* \"#utility.yul\":2987:2993   */\n      dup2\n        /* \"#utility.yul\":2982:2985   */\n      dup6\n        /* \"#utility.yul\":2923:2994   */\n      tag_155\n      jump\t// in\n    tag_164:\n        /* \"#utility.yul\":2916:2994   */\n      swap4\n      pop\n        /* \"#utility.yul\":3003:3055   */\n      tag_165\n        /* \"#utility.yul\":3048:3054   */\n      dup2\n        /* \"#utility.yul\":3043:3046   */\n      dup6\n        /* \"#utility.yul\":3036:3040   */\n      0x20\n        /* \"#utility.yul\":3029:3034   */\n      dup7\n        /* \"#utility.yul\":3025:3041   */\n      add\n        /* \"#utility.yul\":3003:3055   */\n      tag_166\n      jump\t// in\n    tag_165:\n        /* \"#utility.yul\":3080:3109   */\n      tag_167\n        /* \"#utility.yul\":3102:3108   */\n      dup2\n        /* \"#utility.yul\":3080:3109   */\n      tag_159\n      jump\t// in\n    tag_167:\n        /* \"#utility.yul\":3075:3078   */\n      dup5\n        /* \"#utility.yul\":3071:3110   */\n      add\n        /* \"#utility.yul\":3064:3110   */\n      swap2\n      pop\n        /* \"#utility.yul\":2844:3116   */\n      pop\n        /* \"#utility.yul\":2752:3116   */\n      swap3\n      swap2\n      pop\n      pop\n      jump\t// out\n        /* \"#utility.yul\":3122:3488   */\n    tag_168:\n        /* \"#utility.yul\":3264:3267   */\n      0x00\n        /* \"#utility.yul\":3285:3352   */\n      tag_170\n        /* \"#utility.yul\":3349:3351   */\n      0x18\n        /* \"#utility.yul\":3344:3347   */\n      dup4\n        /* \"#utility.yul\":3285:3352   */\n      tag_155\n      jump\t// in\n    tag_170:\n        /* \"#utility.yul\":3278:3352   */\n      swap2\n      pop\n        /* \"#utility.yul\":3361:3454   */\n      tag_171\n        /* \"#utility.yul\":3450:3453   */\n      dup3\n        /* \"#utility.yul\":3361:3454   */\n      tag_172\n      jump\t// in\n    tag_171:\n        /* \"#utility.yul\":3479:3481   */\n      0x20\n        /* \"#utility.yul\":3474:3477   */\n      dup3\n        /* \"#utility.yul\":3470:3482   */\n      add\n        /* \"#utility.yul\":3463:3482   */\n      swap1\n      pop\n        /* \"#utility.yul\":3122:3488   */\n      swap2\n      swap1\n      pop\n      jump\t// out\n        /* \"#utility.yul\":3494:3860   */\n    tag_173:\n        /* \"#utility.yul\":3636:3639   */\n      0x00\n        /* \"#utility.yul\":3657:3724   */\n      tag_175\n        /* \"#utility.yul\":3721:3723   */\n      0x12\n        /* \"#utility.yul\":3716:3719   */\n      dup4\n        /* \"#utility.yul\":3657:3724   */\n      tag_155\n      jump\t// in\n    tag_175:\n        /* \"#utility.yul\":3650:3724   */\n      swap2\n      pop\n        /* \"#utility.yul\":3733:3826   */\n      tag_176\n        /* \"#utility.yul\":3822:3825   */\n      dup3\n        /* \"#utility.yul\":3733:3826   */\n      tag_177\n      jump\t// in\n    tag_176:\n        /* \"#utility.yul\":3851:3853   */\n      0x20\n        /* \"#utility.yul\":3846:3849   */\n      dup3\n        /* \"#utility.yul\":3842:3854   */\n      add\n        /* \"#utility.yul\":3835:3854   */\n      swap1\n      pop\n        /* \"#utility.yul\":3494:3860   */\n      swap2\n      swap1\n      pop\n      jump\t// out\n        /* \"#utility.yul\":3866:4231   */\n    tag_178:\n        /* \"#utility.yul\":4008:4011   */\n      0x00\n        /* \"#utility.yul\":4029:4095   */\n      tag_180\n        /* \"#utility.yul\":4093:4094   */\n      0x04\n        /* \"#utility.yul\":4088:4091   */\n      dup4\n        /* \"#utility.yul\":4029:4095   */\n      tag_155\n      jump\t// in\n    tag_180:\n        /* \"#utility.yul\":4022:4095   */\n      swap2\n      pop\n        /* \"#utility.yul\":4104:4197   */\n      tag_181\n        /* \"#utility.yul\":4193:4196   */\n      dup3\n        /* \"#utility.yul\":4104:4197   */\n      tag_182\n      jump\t// in\n    tag_181:\n        /* \"#utility.yul\":4222:4224   */\n      0x20\n        /* \"#utility.yul\":4217:4220   */\n      dup3\n        /* \"#utility.yul\":4213:4225   */\n      add\n        /* \"#utility.yul\":4206:4225   */\n      swap1\n      pop\n        /* \"#utility.yul\":3866:4231   */\n      swap2\n      swap1\n      pop\n      jump\t// out\n        /* \"#utility.yul\":4237:4602   */\n    tag_183:\n        /* \"#utility.yul\":4379:4382   */\n      0x00\n        /* \"#utility.yul\":4400:4466   */\n      tag_185\n        /* \"#utility.yul\":4464:4465   */\n      0x08\n        /* \"#utility.yul\":4459:4462   */\n      dup4\n        /* \"#utility.yul\":4400:4466   */\n      tag_155\n      jump\t// in\n    tag_185:\n        /* \"#utility.yul\":4393:4466   */\n      swap2\n      pop\n        /* \"#utility.yul\":4475:4568   */\n      tag_186\n        /* \"#utility.yul\":4564:4567   */\n      dup3\n        /* \"#utility.yul\":4475:4568   */\n      tag_187\n      jump\t// in\n    tag_186:\n        /* \"#utility.yul\":4593:4595   */\n      0x20\n        /* \"#utility.yul\":4588:4591   */\n      dup3\n        /* \"#utility.yul\":4584:4596   */\n      add\n        /* \"#utility.yul\":4577:4596   */\n      swap1\n      pop\n        /* \"#utility.yul\":4237:4602   */\n      swap2\n      swap1\n      pop\n      jump\t// out\n        /* \"#utility.yul\":4608:4726   */\n    tag_188:\n        /* \"#utility.yul\":4695:4719   */\n      tag_190\n        /* \"#utility.yul\":4713:4718   */\n      dup2\n        /* \"#utility.yul\":4695:4719   */\n      tag_191\n      jump\t// in\n    tag_190:\n        /* \"#utility.yul\":4690:4693   */\n      dup3\n        /* \"#utility.yul\":4683:4720   */\n      mstore\n        /* \"#utility.yul\":4608:4726   */\n      pop\n      pop\n      jump\t// out\n        /* \"#utility.yul\":4732:4954   */\n    tag_24:\n        /* \"#utility.yul\":4825:4829   */\n      0x00\n        /* \"#utility.yul\":4863:4865   */\n      0x20\n        /* \"#utility.yul\":4852:4861   */\n      dup3\n        /* \"#utility.yul\":4848:4866   */\n      add\n        /* \"#utility.yul\":4840:4866   */\n      swap1\n      pop\n        /* \"#utility.yul\":4876:4947   */\n      tag_193\n        /* \"#utility.yul\":4944:4945   */\n      0x00\n        /* \"#utility.yul\":4933:4942   */\n      dup4\n        /* \"#utility.yul\":4929:4946   */\n      add\n        /* \"#utility.yul\":4920:4926   */\n      dup5\n        /* \"#utility.yul\":4876:4947   */\n      tag_144\n      jump\t// in\n    tag_193:\n        /* \"#utility.yul\":4732:4954   */\n      swap3\n      swap2\n      pop\n      pop\n      jump\t// out\n        /* \"#utility.yul\":4960:6068   */\n    tag_19:\n        /* \"#utility.yul\":5279:5283   */\n      0x00\n        /* \"#utility.yul\":5317:5320   */\n      0x0100\n        /* \"#utility.yul\":5306:5315   */\n      dup3\n        /* \"#utility.yul\":5302:5321   */\n      add\n        /* \"#utility.yul\":5294:5321   */\n      swap1\n      pop\n        /* \"#utility.yul\":5331:5418   */\n      tag_195\n        /* \"#utility.yul\":5415:5416   */\n      0x00\n        /* \"#utility.yul\":5404:5413   */\n      dup4\n        /* \"#utility.yul\":5400:5417   */\n      add\n        /* \"#utility.yul\":5391:5397   */\n      dup12\n        /* \"#utility.yul\":5331:5418   */\n      tag_140\n      jump\t// in\n    tag_195:\n        /* \"#utility.yul\":5428:5500   */\n      tag_196\n        /* \"#utility.yul\":5496:5498   */\n      0x20\n        /* \"#utility.yul\":5485:5494   */\n      dup4\n        /* \"#utility.yul\":5481:5499   */\n      add\n        /* \"#utility.yul\":5472:5478   */\n      dup11\n        /* \"#utility.yul\":5428:5500   */\n      tag_188\n      jump\t// in\n    tag_196:\n        /* \"#utility.yul\":5510:5582   */\n      tag_197\n        /* \"#utility.yul\":5578:5580   */\n      0x40\n        /* \"#utility.yul\":5567:5576   */\n      dup4\n        /* \"#utility.yul\":5563:5581   */\n      add\n        /* \"#utility.yul\":5554:5560   */\n      dup10\n        /* \"#utility.yul\":5510:5582   */\n      tag_188\n      jump\t// in\n    tag_197:\n        /* \"#utility.yul\":5592:5664   */\n      tag_198\n        /* \"#utility.yul\":5660:5662   */\n      0x60\n        /* \"#utility.yul\":5649:5658   */\n      dup4\n        /* \"#utility.yul\":5645:5663   */\n      add\n        /* \"#utility.yul\":5636:5642   */\n      dup9\n        /* \"#utility.yul\":5592:5664   */\n      tag_188\n      jump\t// in\n    tag_198:\n        /* \"#utility.yul\":5674:5747   */\n      tag_199\n        /* \"#utility.yul\":5742:5745   */\n      0x80\n        /* \"#utility.yul\":5731:5740   */\n      dup4\n        /* \"#utility.yul\":5727:5746   */\n      add\n        /* \"#utility.yul\":5718:5724   */\n      dup8\n        /* \"#utility.yul\":5674:5747   */\n      tag_188\n      jump\t// in\n    tag_199:\n        /* \"#utility.yul\":5757:5830   */\n      tag_200\n        /* \"#utility.yul\":5825:5828   */\n      0xa0\n        /* \"#utility.yul\":5814:5823   */\n      dup4\n        /* \"#utility.yul\":5810:5829   */\n      add\n        /* \"#utility.yul\":5801:5807   */\n      dup7\n        /* \"#utility.yul\":5757:5830   */\n      tag_188\n      jump\t// in\n    tag_200:\n        /* \"#utility.yul\":5878:5887   */\n      dup2\n        /* \"#utility.yul\":5872:5876   */\n      dup2\n        /* \"#utility.yul\":5868:5888   */\n      sub\n        /* \"#utility.yul\":5862:5865   */\n      0xc0\n        /* \"#utility.yul\":5851:5860   */\n      dup4\n        /* \"#utility.yul\":5847:5866   */\n      add\n        /* \"#utility.yul\":5840:5889   */\n      mstore\n        /* \"#utility.yul\":5906:5984   */\n      tag_201\n        /* \"#utility.yul\":5979:5983   */\n      dup2\n        /* \"#utility.yul\":5970:5976   */\n      dup6\n        /* \"#utility.yul\":5906:5984   */\n      tag_160\n      jump\t// in\n    tag_201:\n        /* \"#utility.yul\":5898:5984   */\n      swap1\n      pop\n        /* \"#utility.yul\":5994:6061   */\n      tag_202\n        /* \"#utility.yul\":6056:6059   */\n      0xe0\n        /* \"#utility.yul\":6045:6054   */\n      dup4\n        /* \"#utility.yul\":6041:6060   */\n      add\n        /* \"#utility.yul\":6032:6038   */\n      dup5\n        /* \"#utility.yul\":5994:6061   */\n      tag_148\n      jump\t// in\n    tag_202:\n        /* \"#utility.yul\":4960:6068   */\n      swap10\n      swap9\n      pop\n      pop\n      pop\n      pop\n      pop\n      pop\n      pop\n      pop\n      pop\n      jump\t// out\n        /* \"#utility.yul\":6074:6493   */\n    tag_90:\n        /* \"#utility.yul\":6240:6244   */\n      0x00\n        /* \"#utility.yul\":6278:6280   */\n      0x20\n        /* \"#utility.yul\":6267:6276   */\n      dup3\n        /* \"#utility.yul\":6263:6281   */\n      add\n        /* \"#utility.yul\":6255:6281   */\n      swap1\n      pop\n        /* \"#utility.yul\":6327:6336   */\n      dup2\n        /* \"#utility.yul\":6321:6325   */\n      dup2\n        /* \"#utility.yul\":6317:6337   */\n      sub\n        /* \"#utility.yul\":6313:6314   */\n      0x00\n        /* \"#utility.yul\":6302:6311   */\n      dup4\n        /* \"#utility.yul\":6298:6315   */\n      add\n        /* \"#utility.yul\":6291:6338   */\n      mstore\n        /* \"#utility.yul\":6355:6486   */\n      tag_204\n        /* \"#utility.yul\":6481:6485   */\n      dup2\n        /* \"#utility.yul\":6355:6486   */\n      tag_168\n      jump\t// in\n    tag_204:\n        /* \"#utility.yul\":6347:6486   */\n      swap1\n      pop\n        /* \"#utility.yul\":6074:6493   */\n      swap2\n      swap1\n      pop\n      jump\t// out\n        /* \"#utility.yul\":6499:6918   */\n    tag_71:\n        /* \"#utility.yul\":6665:6669   */\n      0x00\n        /* \"#utility.yul\":6703:6705   */\n      0x20\n        /* \"#utility.yul\":6692:6701   */\n      dup3\n        /* \"#utility.yul\":6688:6706   */\n      add\n        /* \"#utility.yul\":6680:6706   */\n      swap1\n      pop\n        /* \"#utility.yul\":6752:6761   */\n      dup2\n        /* \"#utility.yul\":6746:6750   */\n      dup2\n        /* \"#utility.yul\":6742:6762   */\n      sub\n        /* \"#utility.yul\":6738:6739   */\n      0x00\n        /* \"#utility.yul\":6727:6736   */\n      dup4\n        /* \"#utility.yul\":6723:6740   */\n      add\n        /* \"#utility.yul\":6716:6763   */\n      mstore\n        /* \"#utility.yul\":6780:6911   */\n      tag_206\n        /* \"#utility.yul\":6906:6910   */\n      dup2\n        /* \"#utility.yul\":6780:6911   */\n      tag_173\n      jump\t// in\n    tag_206:\n        /* \"#utility.yul\":6772:6911   */\n      swap1\n      pop\n        /* \"#utility.yul\":6499:6918   */\n      swap2\n      swap1\n      pop\n      jump\t// out\n        /* \"#utility.yul\":6924:7343   */\n    tag_67:\n        /* \"#utility.yul\":7090:7094   */\n      0x00\n        /* \"#utility.yul\":7128:7130   */\n      0x20\n        /* \"#utility.yul\":7117:7126   */\n      dup3\n        /* \"#utility.yul\":7113:7131   */\n      add\n        /* \"#utility.yul\":7105:7131   */\n      swap1\n      pop\n        /* \"#utility.yul\":7177:7186   */\n      dup2\n        /* \"#utility.yul\":7171:7175   */\n      dup2\n        /* \"#utility.yul\":7167:7187   */\n      sub\n        /* \"#utility.yul\":7163:7164   */\n      0x00\n        /* \"#utility.yul\":7152:7161   */\n      dup4\n        /* \"#utility.yul\":7148:7165   */\n      add\n        /* \"#utility.yul\":7141:7188   */\n      mstore\n        /* \"#utility.yul\":7205:7336   */\n      tag_208\n        /* \"#utility.yul\":7331:7335   */\n      dup2\n        /* \"#utility.yul\":7205:7336   */\n      tag_178\n      jump\t// in\n    tag_208:\n        /* \"#utility.yul\":7197:7336   */\n      swap1\n      pop\n        /* \"#utility.yul\":6924:7343   */\n      swap2\n      swap1\n      pop\n      jump\t// out\n        /* \"#utility.yul\":7349:7768   */\n    tag_46:\n        /* \"#utility.yul\":7515:7519   */\n      0x00\n        /* \"#utility.yul\":7553:7555   */\n      0x20\n        /* \"#utility.yul\":7542:7551   */\n      dup3\n        /* \"#utility.yul\":7538:7556   */\n      add\n        /* \"#utility.yul\":7530:7556   */\n      swap1\n      pop\n        /* \"#utility.yul\":7602:7611   */\n      dup2\n        /* \"#utility.yul\":7596:7600   */\n      dup2\n        /* \"#utility.yul\":7592:7612   */\n      sub\n        /* \"#utility.yul\":7588:7589   */\n      0x00\n        /* \"#utility.yul\":7577:7586   */\n      dup4\n        /* \"#utility.yul\":7573:7590   */\n      add\n        /* \"#utility.yul\":7566:7613   */\n      mstore\n        /* \"#utility.yul\":7630:7761   */\n      tag_210\n        /* \"#utility.yul\":7756:7760   */\n      dup2\n        /* \"#utility.yul\":7630:7761   */\n      tag_183\n      jump\t// in\n    tag_210:\n        /* \"#utility.yul\":7622:7761   */\n      swap1\n      pop\n        /* \"#utility.yul\":7349:7768   */\n      swap2\n      swap1\n      pop\n      jump\t// out\n        /* \"#utility.yul\":7774:7996   */\n    tag_13:\n        /* \"#utility.yul\":7867:7871   */\n      0x00\n        /* \"#utility.yul\":7905:7907   */\n      0x20\n        /* \"#utility.yul\":7894:7903   */\n      dup3\n        /* \"#utility.yul\":7890:7908   */\n      add\n        /* \"#utility.yul\":7882:7908   */\n      swap1\n      pop\n        /* \"#utility.yul\":7918:7989   */\n      tag_212\n        /* \"#utility.yul\":7986:7987   */\n      0x00\n        /* \"#utility.yul\":7975:7984   */\n      dup4\n        /* \"#utility.yul\":7971:7988   */\n      add\n        /* \"#utility.yul\":7962:7968   */\n      dup5\n        /* \"#utility.yul\":7918:7989   */\n      tag_188\n      jump\t// in\n    tag_212:\n        /* \"#utility.yul\":7774:7996   */\n      swap3\n      swap2\n      pop\n      pop\n      jump\t// out\n        /* \"#utility.yul\":8002:8666   */\n    tag_98:\n        /* \"#utility.yul\":8209:8213   */\n      0x00\n        /* \"#utility.yul\":8247:8250   */\n      0x80\n        /* \"#utility.yul\":8236:8245   */\n      dup3\n        /* \"#utility.yul\":8232:8251   */\n      add\n        /* \"#utility.yul\":8224:8251   */\n      swap1\n      pop\n        /* \"#utility.yul\":8261:8332   */\n      tag_214\n        /* \"#utility.yul\":8329:8330   */\n      0x00\n        /* \"#utility.yul\":8318:8327   */\n      dup4\n        /* \"#utility.yul\":8314:8331   */\n      add\n        /* \"#utility.yul\":8305:8311   */\n      dup9\n        /* \"#utility.yul\":8261:8332   */\n      tag_188\n      jump\t// in\n    tag_214:\n        /* \"#utility.yul\":8379:8388   */\n      dup2\n        /* \"#utility.yul\":8373:8377   */\n      dup2\n        /* \"#utility.yul\":8369:8389   */\n      sub\n        /* \"#utility.yul\":8364:8366   */\n      0x20\n        /* \"#utility.yul\":8353:8362   */\n      dup4\n        /* \"#utility.yul\":8349:8367   */\n      add\n        /* \"#utility.yul\":8342:8390   */\n      mstore\n        /* \"#utility.yul\":8407:8495   */\n      tag_215\n        /* \"#utility.yul\":8490:8494   */\n      dup2\n        /* \"#utility.yul\":8481:8487   */\n      dup7\n        /* \"#utility.yul\":8473:8479   */\n      dup9\n        /* \"#utility.yul\":8407:8495   */\n      tag_152\n      jump\t// in\n    tag_215:\n        /* \"#utility.yul\":8399:8495   */\n      swap1\n      pop\n        /* \"#utility.yul\":8505:8577   */\n      tag_216\n        /* \"#utility.yul\":8573:8575   */\n      0x40\n        /* \"#utility.yul\":8562:8571   */\n      dup4\n        /* \"#utility.yul\":8558:8576   */\n      add\n        /* \"#utility.yul\":8549:8555   */\n      dup6\n        /* \"#utility.yul\":8505:8577   */\n      tag_188\n      jump\t// in\n    tag_216:\n        /* \"#utility.yul\":8587:8659   */\n      tag_217\n        /* \"#utility.yul\":8655:8657   */\n      0x60\n        /* \"#utility.yul\":8644:8653   */\n      dup4\n        /* \"#utility.yul\":8640:8658   */\n      add\n        /* \"#utility.yul\":8631:8637   */\n      dup5\n        /* \"#utility.yul\":8587:8659   */\n      tag_188\n      jump\t// in\n    tag_217:\n        /* \"#utility.yul\":8002:8666   */\n      swap7\n      swap6\n      pop\n      pop\n      pop\n      pop\n      pop\n      pop\n      jump\t// out\n        /* \"#utility.yul\":8672:9114   */\n    tag_83:\n        /* \"#utility.yul\":8821:8825   */\n      0x00\n        /* \"#utility.yul\":8859:8861   */\n      0x60\n        /* \"#utility.yul\":8848:8857   */\n      dup3\n        /* \"#utility.yul\":8844:8862   */\n      add\n        /* \"#utility.yul\":8836:8862   */\n      swap1\n      pop\n        /* \"#utility.yul\":8872:8943   */\n      tag_219\n        /* \"#utility.yul\":8940:8941   */\n      0x00\n        /* \"#utility.yul\":8929:8938   */\n      dup4\n        /* \"#utility.yul\":8925:8942   */\n      add\n        /* \"#utility.yul\":8916:8922   */\n      dup7\n        /* \"#utility.yul\":8872:8943   */\n      tag_188\n      jump\t// in\n    tag_219:\n        /* \"#utility.yul\":8953:9025   */\n      tag_220\n        /* \"#utility.yul\":9021:9023   */\n      0x20\n        /* \"#utility.yul\":9010:9019   */\n      dup4\n        /* \"#utility.yul\":9006:9024   */\n      add\n        /* \"#utility.yul\":8997:9003   */\n      dup6\n        /* \"#utility.yul\":8953:9025   */\n      tag_188\n      jump\t// in\n    tag_220:\n        /* \"#utility.yul\":9035:9107   */\n      tag_221\n        /* \"#utility.yul\":9103:9105   */\n      0x40\n        /* \"#utility.yul\":9092:9101   */\n      dup4\n        /* \"#utility.yul\":9088:9106   */\n      add\n        /* \"#utility.yul\":9079:9085   */\n      dup5\n        /* \"#utility.yul\":9035:9107   */\n      tag_144\n      jump\t// in\n    tag_221:\n        /* \"#utility.yul\":8672:9114   */\n      swap5\n      swap4\n      pop\n      pop\n      pop\n      pop\n      jump\t// out\n        /* \"#utility.yul\":9201:9300   */\n    tag_163:\n        /* \"#utility.yul\":9253:9259   */\n      0x00\n        /* \"#utility.yul\":9287:9292   */\n      dup2\n        /* \"#utility.yul\":9281:9293   */\n      mload\n        /* \"#utility.yul\":9271:9293   */\n      swap1\n      pop\n        /* \"#utility.yul\":9201:9300   */\n      swap2\n      swap1\n      pop\n      jump\t// out\n        /* \"#utility.yul\":9306:9475   */\n    tag_155:\n        /* \"#utility.yul\":9390:9401   */\n      0x00\n        /* \"#utility.yul\":9424:9430   */\n      dup3\n        /* \"#utility.yul\":9419:9422   */\n      dup3\n        /* \"#utility.yul\":9412:9431   */\n      mstore\n        /* \"#utility.yul\":9464:9468   */\n      0x20\n        /* \"#utility.yul\":9459:9462   */\n      dup3\n        /* \"#utility.yul\":9455:9469   */\n      add\n        /* \"#utility.yul\":9440:9469   */\n      swap1\n      pop\n        /* \"#utility.yul\":9306:9475   */\n      swap3\n      swap2\n      pop\n      pop\n      jump\t// out\n        /* \"#utility.yul\":9481:9786   */\n    tag_92:\n        /* \"#utility.yul\":9521:9524   */\n      0x00\n        /* \"#utility.yul\":9540:9560   */\n      tag_227\n        /* \"#utility.yul\":9558:9559   */\n      dup3\n        /* \"#utility.yul\":9540:9560   */\n      tag_191\n      jump\t// in\n    tag_227:\n        /* \"#utility.yul\":9535:9560   */\n      swap2\n      pop\n        /* \"#utility.yul\":9574:9594   */\n      tag_228\n        /* \"#utility.yul\":9592:9593   */\n      dup4\n        /* \"#utility.yul\":9574:9594   */\n      tag_191\n      jump\t// in\n    tag_228:\n        /* \"#utility.yul\":9569:9594   */\n      swap3\n      pop\n        /* \"#utility.yul\":9728:9729   */\n      dup3\n        /* \"#utility.yul\":9660:9726   */\n      0xffffffffffffffffffffffffffffffffffffffffffffffffffffffffffffffff\n        /* \"#utility.yul\":9656:9730   */\n      sub\n        /* \"#utility.yul\":9653:9654   */\n      dup3\n        /* \"#utility.yul\":9650:9731   */\n      gt\n        /* \"#utility.yul\":9647:9754   */\n      iszero\n      tag_229\n      jumpi\n        /* \"#utility.yul\":9734:9752   */\n      tag_230\n      tag_231\n      jump\t// in\n    tag_230:\n        /* \"#utility.yul\":9647:9754   */\n    tag_229:\n        /* \"#utility.yul\":9778:9779   */\n      dup3\n        /* \"#utility.yul\":9775:9776   */\n      dup3\n        /* \"#utility.yul\":9771:9780   */\n      add\n        /* \"#utility.yul\":9764:9780   */\n      swap1\n      pop\n        /* \"#utility.yul\":9481:9786   */\n      swap3\n      swap2\n      pop\n      pop\n      jump\t// out\n        /* \"#utility.yul\":9792:9977   */\n    tag_78:\n        /* \"#utility.yul\":9832:9833   */\n      0x00\n        /* \"#utility.yul\":9849:9869   */\n      tag_233\n        /* \"#utility.yul\":9867:9868   */\n      dup3\n        /* \"#utility.yul\":9849:9869   */\n      tag_191\n      jump\t// in\n    tag_233:\n        /* \"#utility.yul\":9844:9869   */\n      swap2\n      pop\n        /* \"#utility.yul\":9883:9903   */\n      tag_234\n        /* \"#utility.yul\":9901:9902   */\n      dup4\n        /* \"#utility.yul\":9883:9903   */\n      tag_191\n      jump\t// in\n    tag_234:\n        /* \"#utility.yul\":9878:9903   */\n      swap3\n      pop\n        /* \"#utility.yul\":9922:9923   */\n      dup3\n        /* \"#utility.yul\":9912:9947   */\n      tag_235\n      jumpi\n        /* \"#utility.yul\":9927:9945   */\n      tag_236\n      tag_237\n      jump\t// in\n    tag_236:\n        /* \"#utility.yul\":9912:9947   */\n    tag_235:\n        /* \"#utility.yul\":9969:9970   */\n      dup3\n        /* \"#utility.yul\":9966:9967   */\n      dup3\n        /* \"#utility.yul\":9962:9971   */\n      div\n        /* \"#utility.yul\":9957:9971   */\n      swap1\n      pop\n        /* \"#utility.yul\":9792:9977   */\n      swap3\n      swap2\n      pop\n      pop\n      jump\t// out\n        /* \"#utility.yul\":9983:10331   */\n    tag_50:\n        /* \"#utility.yul\":10023:10030   */\n      0x00\n        /* \"#utility.yul\":10046:10066   */\n      tag_239\n        /* \"#utility.yul\":10064:10065   */\n      dup3\n        /* \"#utility.yul\":10046:10066   */\n      tag_191\n      jump\t// in\n    tag_239:\n        /* \"#utility.yul\":10041:10066   */\n      swap2\n      pop\n        /* \"#utility.yul\":10080:10100   */\n      tag_240\n        /* \"#utility.yul\":10098:10099   */\n      dup4\n        /* \"#utility.yul\":10080:10100   */\n      tag_191\n      jump\t// in\n    tag_240:\n        /* \"#utility.yul\":10075:10100   */\n      swap3\n      pop\n        /* \"#utility.yul\":10268:10269   */\n      dup2\n        /* \"#utility.yul\":10200:10266   */\n      0xffffffffffffffffffffffffffffffffffffffffffffffffffffffffffffffff\n        /* \"#utility.yul\":10196:10270   */\n      div\n        /* \"#utility.yul\":10193:10194   */\n      dup4\n        /* \"#utility.yul\":10190:10271   */\n      gt\n        /* \"#utility.yul\":10185:10186   */\n      dup3\n        /* \"#utility.yul\":10178:10187   */\n      iszero\n        /* \"#utility.yul\":10171:10188   */\n      iszero\n        /* \"#utility.yul\":10167:10272   */\n      and\n        /* \"#utility.yul\":10164:10295   */\n      iszero\n      tag_241\n      jumpi\n        /* \"#utility.yul\":10275:10293   */\n      tag_242\n      tag_231\n      jump\t// in\n    tag_242:\n        /* \"#utility.yul\":10164:10295   */\n    tag_241:\n        /* \"#utility.yul\":10323:10324   */\n      dup3\n        /* \"#utility.yul\":10320:10321   */\n      dup3\n        /* \"#utility.yul\":10316:10325   */\n      mul\n        /* \"#utility.yul\":10305:10325   */\n      swap1\n      pop\n        /* \"#utility.yul\":9983:10331   */\n      swap3\n      swap2\n      pop\n      pop\n      jump\t// out\n        /* \"#utility.yul\":10337:10528   */\n    tag_48:\n        /* \"#utility.yul\":10377:10381   */\n      0x00\n        /* \"#utility.yul\":10397:10417   */\n      tag_244\n        /* \"#utility.yul\":10415:10416   */\n      dup3\n        /* \"#utility.yul\":10397:10417   */\n      tag_191\n      jump\t// in\n    tag_244:\n        /* \"#utility.yul\":10392:10417   */\n      swap2\n      pop\n        /* \"#utility.yul\":10431:10451   */\n      tag_245\n        /* \"#utility.yul\":10449:10450   */\n      dup4\n        /* \"#utility.yul\":10431:10451   */\n      tag_191\n      jump\t// in\n    tag_245:\n        /* \"#utility.yul\":10426:10451   */\n      swap3\n      pop\n        /* \"#utility.yul\":10470:10471   */\n      dup3\n        /* \"#utility.yul\":10467:10468   */\n      dup3\n        /* \"#utility.yul\":10464:10472   */\n      lt\n        /* \"#utility.yul\":10461:10495   */\n      iszero\n      tag_246\n      jumpi\n        /* \"#utility.yul\":10475:10493   */\n      tag_247\n      tag_231\n      jump\t// in\n    tag_247:\n        /* \"#utility.yul\":10461:10495   */\n    tag_246:\n        /* \"#utility.yul\":10520:10521   */\n      dup3\n        /* \"#utility.yul\":10517:10518   */\n      dup3\n        /* \"#utility.yul\":10513:10522   */\n      sub\n        /* \"#utility.yul\":10505:10522   */\n      swap1\n      pop\n        /* \"#utility.yul\":10337:10528   */\n      swap3\n      swap2\n      pop\n      pop\n      jump\t// out\n        /* \"#utility.yul\":10534:10630   */\n    tag_147:\n        /* \"#utility.yul\":10571:10578   */\n      0x00\n        /* \"#utility.yul\":10600:10624   */\n      tag_249\n        /* \"#utility.yul\":10618:10623   */\n      dup3\n        /* \"#utility.yul\":10600:10624   */\n      tag_250\n      jump\t// in\n    tag_249:\n        /* \"#utility.yul\":10589:10624   */\n      swap1\n      pop\n        /* \"#utility.yul\":10534:10630   */\n      swap2\n      swap1\n      pop\n      jump\t// out\n        /* \"#utility.yul\":10636:10740   */\n    tag_143:\n        /* \"#utility.yul\":10681:10688   */\n      0x00\n        /* \"#utility.yul\":10710:10734   */\n      tag_252\n        /* \"#utility.yul\":10728:10733   */\n      dup3\n        /* \"#utility.yul\":10710:10734   */\n      tag_250\n      jump\t// in\n    tag_252:\n        /* \"#utility.yul\":10699:10734   */\n      swap1\n      pop\n        /* \"#utility.yul\":10636:10740   */\n      swap2\n      swap1\n      pop\n      jump\t// out\n        /* \"#utility.yul\":10746:10836   */\n    tag_151:\n        /* \"#utility.yul\":10780:10787   */\n      0x00\n        /* \"#utility.yul\":10823:10828   */\n      dup2\n        /* \"#utility.yul\":10816:10829   */\n      iszero\n        /* \"#utility.yul\":10809:10830   */\n      iszero\n        /* \"#utility.yul\":10798:10830   */\n      swap1\n      pop\n        /* \"#utility.yul\":10746:10836   */\n      swap2\n      swap1\n      pop\n      jump\t// out\n        /* \"#utility.yul\":10842:10968   */\n    tag_250:\n        /* \"#utility.yul\":10879:10886   */\n      0x00\n        /* \"#utility.yul\":10919:10961   */\n      0xffffffffffffffffffffffffffffffffffffffff\n        /* \"#utility.yul\":10912:10917   */\n      dup3\n        /* \"#utility.yul\":10908:10962   */\n      and\n        /* \"#utility.yul\":10897:10962   */\n      swap1\n      pop\n        /* \"#utility.yul\":10842:10968   */\n      swap2\n      swap1\n      pop\n      jump\t// out\n        /* \"#utility.yul\":10974:11051   */\n    tag_191:\n        /* \"#utility.yul\":11011:11018   */\n      0x00\n        /* \"#utility.yul\":11040:11045   */\n      dup2\n        /* \"#utility.yul\":11029:11045   */\n      swap1\n      pop\n        /* \"#utility.yul\":10974:11051   */\n      swap2\n      swap1\n      pop\n      jump\t// out\n        /* \"#utility.yul\":11057:11211   */\n    tag_157:\n        /* \"#utility.yul\":11141:11147   */\n      dup3\n        /* \"#utility.yul\":11136:11139   */\n      dup2\n        /* \"#utility.yul\":11131:11134   */\n      dup4\n        /* \"#utility.yul\":11118:11148   */\n      calldatacopy\n        /* \"#utility.yul\":11203:11204   */\n      0x00\n        /* \"#utility.yul\":11194:11200   */\n      dup4\n        /* \"#utility.yul\":11189:11192   */\n      dup4\n        /* \"#utility.yul\":11185:11201   */\n      add\n        /* \"#utility.yul\":11178:11205   */\n      mstore\n        /* \"#utility.yul\":11057:11211   */\n      pop\n      pop\n      pop\n      jump\t// out\n        /* \"#utility.yul\":11217:11524   */\n    tag_166:\n        /* \"#utility.yul\":11285:11286   */\n      0x00\n        /* \"#utility.yul\":11295:11408   */\n    tag_258:\n        /* \"#utility.yul\":11309:11315   */\n      dup4\n        /* \"#utility.yul\":11306:11307   */\n      dup2\n        /* \"#utility.yul\":11303:11316   */\n      lt\n        /* \"#utility.yul\":11295:11408   */\n      iszero\n      tag_260\n      jumpi\n        /* \"#utility.yul\":11394:11395   */\n      dup1\n        /* \"#utility.yul\":11389:11392   */\n      dup3\n        /* \"#utility.yul\":11385:11396   */\n      add\n        /* \"#utility.yul\":11379:11397   */\n      mload\n        /* \"#utility.yul\":11375:11376   */\n      dup2\n        /* \"#utility.yul\":11370:11373   */\n      dup5\n        /* \"#utility.yul\":11366:11377   */\n      add\n        /* \"#utility.yul\":11359:11398   */\n      mstore\n        /* \"#utility.yul\":11331:11333   */\n      0x20\n        /* \"#utility.yul\":11328:11329   */\n      dup2\n        /* \"#utility.yul\":11324:11334   */\n      add\n        /* \"#utility.yul\":11319:11334   */\n      swap1\n      pop\n        /* \"#utility.yul\":11295:11408   */\n      jump(tag_258)\n    tag_260:\n        /* \"#utility.yul\":11426:11432   */\n      dup4\n        /* \"#utility.yul\":11423:11424   */\n      dup2\n        /* \"#utility.yul\":11420:11433   */\n      gt\n        /* \"#utility.yul\":11417:11518   */\n      iszero\n      tag_261\n      jumpi\n        /* \"#utility.yul\":11506:11507   */\n      0x00\n        /* \"#utility.yul\":11497:11503   */\n      dup5\n        /* \"#utility.yul\":11492:11495   */\n      dup5\n        /* \"#utility.yul\":11488:11504   */\n      add\n        /* \"#utility.yul\":11481:11508   */\n      mstore\n        /* \"#utility.yul\":11417:11518   */\n    tag_261:\n        /* \"#utility.yul\":11266:11524   */\n      pop\n        /* \"#utility.yul\":11217:11524   */\n      pop\n      pop\n      pop\n      jump\t// out\n        /* \"#utility.yul\":11530:11850   */\n    tag_39:\n        /* \"#utility.yul\":11574:11580   */\n      0x00\n        /* \"#utility.yul\":11611:11612   */\n      0x02\n        /* \"#utility.yul\":11605:11609   */\n      dup3\n        /* \"#utility.yul\":11601:11613   */\n      div\n        /* \"#utility.yul\":11591:11613   */\n      swap1\n      pop\n        /* \"#utility.yul\":11658:11659   */\n      0x01\n        /* \"#utility.yul\":11652:11656   */\n      dup3\n        /* \"#utility.yul\":11648:11660   */\n      and\n        /* \"#utility.yul\":11679:11697   */\n      dup1\n        /* \"#utility.yul\":11669:11750   */\n      tag_263\n      jumpi\n        /* \"#utility.yul\":11735:11739   */\n      0x7f\n        /* \"#utility.yul\":11727:11733   */\n      dup3\n        /* \"#utility.yul\":11723:11740   */\n      and\n        /* \"#utility.yul\":11713:11740   */\n      swap2\n      pop\n        /* \"#utility.yul\":11669:11750   */\n    tag_263:\n        /* \"#utility.yul\":11797:11799   */\n      0x20\n        /* \"#utility.yul\":11789:11795   */\n      dup3\n        /* \"#utility.yul\":11786:11800   */\n      lt\n        /* \"#utility.yul\":11766:11784   */\n      dup2\n        /* \"#utility.yul\":11763:11801   */\n      eq\n        /* \"#utility.yul\":11760:11844   */\n      iszero\n      tag_264\n      jumpi\n        /* \"#utility.yul\":11816:11834   */\n      tag_265\n      tag_266\n      jump\t// in\n    tag_265:\n        /* \"#utility.yul\":11760:11844   */\n    tag_264:\n        /* \"#utility.yul\":11581:11850   */\n      pop\n        /* \"#utility.yul\":11530:11850   */\n      swap2\n      swap1\n      pop\n      jump\t// out\n        /* \"#utility.yul\":11856:12036   */\n    tag_231:\n        /* \"#utility.yul\":11904:11981   */\n      0x4e487b7100000000000000000000000000000000000000000000000000000000\n        /* \"#utility.yul\":11901:11902   */\n      0x00\n        /* \"#utility.yul\":11894:11982   */\n      mstore\n        /* \"#utility.yul\":12001:12005   */\n      0x11\n        /* \"#utility.yul\":11998:11999   */\n      0x04\n        /* \"#utility.yul\":11991:12006   */\n      mstore\n        /* \"#utility.yul\":12025:12029   */\n      0x24\n        /* \"#utility.yul\":12022:12023   */\n      0x00\n        /* \"#utility.yul\":12015:12030   */\n      revert\n        /* \"#utility.yul\":12042:12222   */\n    tag_237:\n        /* \"#utility.yul\":12090:12167   */\n      0x4e487b7100000000000000000000000000000000000000000000000000000000\n        /* \"#utility.yul\":12087:12088   */\n      0x00\n        /* \"#utility.yul\":12080:12168   */\n      mstore\n        /* \"#utility.yul\":12187:12191   */\n      0x12\n        /* \"#utility.yul\":12184:12185   */\n      0x04\n        /* \"#utility.yul\":12177:12192   */\n      mstore\n        /* \"#utility.yul\":12211:12215   */\n      0x24\n        /* \"#utility.yul\":12208:12209   */\n      0x00\n        /* \"#utility.yul\":12201:12216   */\n      revert\n        /* \"#utility.yul\":12228:12408   */\n    tag_266:\n        /* \"#utility.yul\":12276:12353   */\n      0x4e487b7100000000000000000000000000000000000000000000000000000000\n        /* \"#utility.yul\":12273:12274   */\n      0x00\n        /* \"#utility.yul\":12266:12354   */\n      mstore\n        /* \"#utility.yul\":12373:12377   */\n      0x22\n        /* \"#utility.yul\":12370:12371   */\n      0x04\n        /* \"#utility.yul\":12363:12378   */\n      mstore\n        /* \"#utility.yul\":12397:12401   */\n      0x24\n        /* \"#utility.yul\":12394:12395   */\n      0x00\n        /* \"#utility.yul\":12387:12402   */\n      revert\n        /* \"#utility.yul\":12414:12594   */\n    tag_36:\n        /* \"#utility.yul\":12462:12539   */\n      0x4e487b7100000000000000000000000000000000000000000000000000000000\n        /* \"#utility.yul\":12459:12460   */\n      0x00\n        /* \"#utility.yul\":12452:12540   */\n      mstore\n        /* \"#utility.yul\":12559:12563   */\n      0x32\n        /* \"#utility.yul\":12556:12557   */\n      0x04\n        /* \"#utility.yul\":12549:12564   */\n      mstore\n        /* \"#utility.yul\":12583:12587   */\n      0x24\n        /* \"#utility.yul\":12580:12581   */\n      0x00\n        /* \"#utility.yul\":12573:12588   */\n      revert\n        /* \"#utility.yul\":12600:12717   */\n    tag_117:\n        /* \"#utility.yul\":12709:12710   */\n      0x00\n        /* \"#utility.yul\":12706:12707   */\n      dup1\n        /* \"#utility.yul\":12699:12711   */\n      revert\n        /* \"#utility.yul\":12723:12840   */\n    tag_114:\n        /* \"#utility.yul\":12832:12833   */\n      0x00\n        /* \"#utility.yul\":12829:12830   */\n      dup1\n        /* \"#utility.yul\":12822:12834   */\n      revert\n        /* \"#utility.yul\":12846:12963   */\n    tag_120:\n        /* \"#utility.yul\":12955:12956   */\n      0x00\n        /* \"#utility.yul\":12952:12953   */\n      dup1\n        /* \"#utility.yul\":12945:12957   */\n      revert\n        /* \"#utility.yul\":12969:13086   */\n    tag_137:\n        /* \"#utility.yul\":13078:13079   */\n      0x00\n        /* \"#utility.yul\":13075:13076   */\n      dup1\n        /* \"#utility.yul\":13068:13080   */\n      revert\n        /* \"#utility.yul\":13092:13209   */\n    tag_128:\n        /* \"#utility.yul\":13201:13202   */\n      0x00\n        /* \"#utility.yul\":13198:13199   */\n      dup1\n        /* \"#utility.yul\":13191:13203   */\n      revert\n        /* \"#utility.yul\":13215:13317   */\n    tag_159:\n        /* \"#utility.yul\":13256:13262   */\n      0x00\n        /* \"#utility.yul\":13307:13309   */\n      0x1f\n        /* \"#utility.yul\":13303:13310   */\n      not\n        /* \"#utility.yul\":13298:13300   */\n      0x1f\n        /* \"#utility.yul\":13291:13296   */\n      dup4\n        /* \"#utility.yul\":13287:13301   */\n      add\n        /* \"#utility.yul\":13283:13311   */\n      and\n        /* \"#utility.yul\":13273:13311   */\n      swap1\n      pop\n        /* \"#utility.yul\":13215:13317   */\n      swap2\n      swap1\n      pop\n      jump\t// out\n        /* \"#utility.yul\":13323:13497   */\n    tag_172:\n        /* \"#utility.yul\":13463:13489   */\n      0x696e636f7272656374207374617274696e672070726963650000000000000000\n        /* \"#utility.yul\":13459:13460   */\n      0x00\n        /* \"#utility.yul\":13451:13457   */\n      dup3\n        /* \"#utility.yul\":13447:13461   */\n      add\n        /* \"#utility.yul\":13440:13490   */\n      mstore\n        /* \"#utility.yul\":13323:13497   */\n      pop\n      jump\t// out\n        /* \"#utility.yul\":13503:13671   */\n    tag_177:\n        /* \"#utility.yul\":13643:13663   */\n      0x206e6f7420656e6f756768206d6f6e6579210000000000000000000000000000\n        /* \"#utility.yul\":13639:13640   */\n      0x00\n        /* \"#utility.yul\":13631:13637   */\n      dup3\n        /* \"#utility.yul\":13627:13641   */\n      add\n        /* \"#utility.yul\":13620:13664   */\n      mstore\n        /* \"#utility.yul\":13503:13671   */\n      pop\n      jump\t// out\n        /* \"#utility.yul\":13677:13831   */\n    tag_182:\n        /* \"#utility.yul\":13817:13823   */\n      0x656e642100000000000000000000000000000000000000000000000000000000\n        /* \"#utility.yul\":13813:13814   */\n      0x00\n        /* \"#utility.yul\":13805:13811   */\n      dup3\n        /* \"#utility.yul\":13801:13815   */\n      add\n        /* \"#utility.yul\":13794:13824   */\n      mstore\n        /* \"#utility.yul\":13677:13831   */\n      pop\n      jump\t// out\n        /* \"#utility.yul\":13837:13995   */\n    tag_187:\n        /* \"#utility.yul\":13977:13987   */\n      0x73746f7070656421000000000000000000000000000000000000000000000000\n        /* \"#utility.yul\":13973:13974   */\n      0x00\n        /* \"#utility.yul\":13965:13971   */\n      dup3\n        /* \"#utility.yul\":13961:13975   */\n      add\n        /* \"#utility.yul\":13954:13988   */\n      mstore\n        /* \"#utility.yul\":13837:13995   */\n      pop\n      jump\t// out\n        /* \"#utility.yul\":14001:14123   */\n    tag_124:\n        /* \"#utility.yul\":14074:14098   */\n      tag_282\n        /* \"#utility.yul\":14092:14097   */\n      dup2\n        /* \"#utility.yul\":14074:14098   */\n      tag_191\n      jump\t// in\n    tag_282:\n        /* \"#utility.yul\":14067:14072   */\n      dup2\n        /* \"#utility.yul\":14064:14099   */\n      eq\n        /* \"#utility.yul\":14054:14117   */\n      tag_283\n      jumpi\n        /* \"#utility.yul\":14113:14114   */\n      0x00\n        /* \"#utility.yul\":14110:14111   */\n      dup1\n        /* \"#utility.yul\":14103:14115   */\n      revert\n        /* \"#utility.yul\":14054:14117   */\n    tag_283:\n        /* \"#utility.yul\":14001:14123   */\n      pop\n      jump\t// out\n\n    auxdata: 0xa26469706673582212208119852f21f6221493f7fb746140625c3c3a6821b82e6d89244cae0d4e4cca0464736f6c63430008070033\n}\n",
				"bytecode": {
					"linkReferences": {},
					"object": "608060405234801561001057600080fd5b50336000806101000a81548173ffffffffffffffffffffffffffffffffffffffff021916908373ffffffffffffffffffffffffffffffffffffffff160217905550611191806100606000396000f3fe60806040526004361061004a5760003560e01c80634534cd9c1461004f578063571a26a01461008c5780638da5cb5b146100d0578063d96a094a146100fb578063e9835d1514610117575b600080fd5b34801561005b57600080fd5b5061007660048036038101906100719190610a18565b610140565b6040516100839190610d1b565b60405180910390f35b34801561009857600080fd5b506100b360048036038101906100ae9190610a18565b61032f565b6040516100c7989796959493929190610c16565b60405180910390f35b3480156100dc57600080fd5b506100e561043c565b6040516100f29190610bfb565b60405180910390f35b61011560048036038101906101109190610a18565b610460565b005b34801561012357600080fd5b5061013e60048036038101906101399190610a45565b6106c4565b005b6000806001838154811061015757610156611047565b5b9060005260206000209060080201604051806101000160405290816000820160009054906101000a900473ffffffffffffffffffffffffffffffffffffffff1673ffffffffffffffffffffffffffffffffffffffff1673ffffffffffffffffffffffffffffffffffffffff168152602001600182015481526020016002820154815260200160038201548152602001600482015481526020016005820154815260200160068201805461020990610f88565b80601f016020809104026020016040519081016040528092919081815260200182805461023590610f88565b80156102825780601f1061025757610100808354040283529160200191610282565b820191906000526020600020905b81548152906001019060200180831161026557829003601f168201915b505050505081526020016007820160009054906101000a900460ff16151515158152505090508060e00151156102ed576040517f08c379a00000000000000000000000000000000000000000000000000000000081526004016102e490610cfb565b60405180910390fd5b60008160600151426102ff9190610eb8565b90506000818360a001516103139190610e5e565b90508083602001516103259190610eb8565b9350505050919050565b6001818154811061033f57600080fd5b90600052602060002090600802016000915090508060000160009054906101000a900473ffffffffffffffffffffffffffffffffffffffff16908060010154908060020154908060030154908060040154908060050154908060060180546103a690610f88565b80601f01602080910402602001604051908101604052809291908181526020018280546103d290610f88565b801561041f5780601f106103f45761010080835404028352916020019161041f565b820191906000526020600020905b81548152906001019060200180831161040257829003601f168201915b5050505050908060070160009054906101000a900460ff16905088565b60008054906101000a900473ffffffffffffffffffffffffffffffffffffffff1681565b60006001828154811061047657610475611047565b5b906000526020600020906008020190508060070160009054906101000a900460ff16156104d8576040517f08c379a00000000000000000000000000000000000000000000000000000000081526004016104cf90610cfb565b60405180910390fd5b8060040154421061051e576040517f08c379a000000000000000000000000000000000000000000000000000000000815260040161051590610cdb565b60405180910390fd5b600061052983610140565b90508034101561056e576040517f08c379a000000000000000000000000000000000000000000000000000000000815260040161056590610cbb565b60405180910390fd5b60018260070160006101000a81548160ff021916908315150217905550808260020181905550600081346105a29190610eb8565b905060008111156105f5573373ffffffffffffffffffffffffffffffffffffffff166108fc829081150290604051600060405180830381858888f193505050501580156105f3573d6000803e3d6000fd5b505b8260000160009054906101000a900473ffffffffffffffffffffffffffffffffffffffff1673ffffffffffffffffffffffffffffffffffffffff166108fc6064600a856106429190610e5e565b61064c9190610e2d565b846106579190610eb8565b9081150290604051600060405180830381858888f19350505050158015610682573d6000803e3d6000fd5b507fbafc4bda865d4d1f8d5b16f883e996fde0fe71112fac81503876d353756944008483336040516106b693929190610d84565b60405180910390a150505050565b60008082146106d357816106d8565b6202a3005b905080856106e69190610e5e565b861015610728576040517f08c379a000000000000000000000000000000000000000000000000000000000815260040161071f90610c9b565b60405180910390fd5b60006040518061010001604052803373ffffffffffffffffffffffffffffffffffffffff16815260200188815260200188815260200142815260200183426107709190610dd7565b815260200187815260200186868080601f016020809104026020016040519081016040528093929190818152602001838380828437600081840152601f19601f820116905080830192505050505050508152602001600015158152509050600181908060018154018082558091505060019003906000526020600020906008020160009091909190915060008201518160000160006101000a81548173ffffffffffffffffffffffffffffffffffffffff021916908373ffffffffffffffffffffffffffffffffffffffff1602179055506020820151816001015560408201518160020155606082015181600301556080820151816004015560a0820151816005015560c082015181600601908051906020019061088f92919061090a565b5060e08201518160070160006101000a81548160ff02191690831515021790555050507f5bf34ed94988e5dcdc7d1faaa54eb1d3b55f45d5f11457e235afb21a8ebbe73c600180805490506108e49190610eb8565b86868a866040516108f9959493929190610d36565b60405180910390a150505050505050565b82805461091690610f88565b90600052602060002090601f016020900481019282610938576000855561097f565b82601f1061095157805160ff191683800117855561097f565b8280016001018555821561097f579182015b8281111561097e578251825591602001919060010190610963565b5b50905061098c9190610990565b5090565b5b808211156109a9576000816000905550600101610991565b5090565b60008083601f8401126109c3576109c261107b565b5b8235905067ffffffffffffffff8111156109e0576109df611076565b5b6020830191508360018202830111156109fc576109fb611080565b5b9250929050565b600081359050610a1281611144565b92915050565b600060208284031215610a2e57610a2d61108a565b5b6000610a3c84828501610a03565b91505092915050565b600080600080600060808688031215610a6157610a6061108a565b5b6000610a6f88828901610a03565b9550506020610a8088828901610a03565b945050604086013567ffffffffffffffff811115610aa157610aa0611085565b5b610aad888289016109ad565b93509350506060610ac088828901610a03565b9150509295509295909350565b610ad681610efe565b82525050565b610ae581610eec565b82525050565b610af481610f10565b82525050565b6000610b068385610dc6565b9350610b13838584610f46565b610b1c8361108f565b840190509392505050565b6000610b3282610dbb565b610b3c8185610dc6565b9350610b4c818560208601610f55565b610b558161108f565b840191505092915050565b6000610b6d601883610dc6565b9150610b78826110a0565b602082019050919050565b6000610b90601283610dc6565b9150610b9b826110c9565b602082019050919050565b6000610bb3600483610dc6565b9150610bbe826110f2565b602082019050919050565b6000610bd6600883610dc6565b9150610be18261111b565b602082019050919050565b610bf581610f3c565b82525050565b6000602082019050610c106000830184610adc565b92915050565b600061010082019050610c2c600083018b610acd565b610c39602083018a610bec565b610c466040830189610bec565b610c536060830188610bec565b610c606080830187610bec565b610c6d60a0830186610bec565b81810360c0830152610c7f8185610b27565b9050610c8e60e0830184610aeb565b9998505050505050505050565b60006020820190508181036000830152610cb481610b60565b9050919050565b60006020820190508181036000830152610cd481610b83565b9050919050565b60006020820190508181036000830152610cf481610ba6565b9050919050565b60006020820190508181036000830152610d1481610bc9565b9050919050565b6000602082019050610d306000830184610bec565b92915050565b6000608082019050610d4b6000830188610bec565b8181036020830152610d5e818688610afa565b9050610d6d6040830185610bec565b610d7a6060830184610bec565b9695505050505050565b6000606082019050610d996000830186610bec565b610da66020830185610bec565b610db36040830184610adc565b949350505050565b600081519050919050565b600082825260208201905092915050565b6000610de282610f3c565b9150610ded83610f3c565b9250827fffffffffffffffffffffffffffffffffffffffffffffffffffffffffffffffff03821115610e2257610e21610fba565b5b828201905092915050565b6000610e3882610f3c565b9150610e4383610f3c565b925082610e5357610e52610fe9565b5b828204905092915050565b6000610e6982610f3c565b9150610e7483610f3c565b9250817fffffffffffffffffffffffffffffffffffffffffffffffffffffffffffffffff0483118215151615610ead57610eac610fba565b5b828202905092915050565b6000610ec382610f3c565b9150610ece83610f3c565b925082821015610ee157610ee0610fba565b5b828203905092915050565b6000610ef782610f1c565b9050919050565b6000610f0982610f1c565b9050919050565b60008115159050919050565b600073ffffffffffffffffffffffffffffffffffffffff82169050919050565b6000819050919050565b82818337600083830152505050565b60005b83811015610f73578082015181840152602081019050610f58565b83811115610f82576000848401525b50505050565b60006002820490506001821680610fa057607f821691505b60208210811415610fb457610fb3611018565b5b50919050565b7f4e487b7100000000000000000000000000000000000000000000000000000000600052601160045260246000fd5b7f4e487b7100000000000000000000000000000000000000000000000000000000600052601260045260246000fd5b7f4e487b7100000000000000000000000000000000000000000000000000000000600052602260045260246000fd5b7f4e487b7100000000000000000000000000000000000000000000000000000000600052603260045260246000fd5b600080fd5b600080fd5b600080fd5b600080fd5b600080fd5b6000601f19601f8301169050919050565b7f696e636f7272656374207374617274696e672070726963650000000000000000600082015250565b7f206e6f7420656e6f756768206d6f6e6579210000000000000000000000000000600082015250565b7f656e642100000000000000000000000000000000000000000000000000000000600082015250565b7f73746f7070656421000000000000000000000000000000000000000000000000600082015250565b61114d81610f3c565b811461115857600080fd5b5056fea26469706673582212208119852f21f6221493f7fb746140625c3c3a6821b82e6d89244cae0d4e4cca0464736f6c63430008070033",
					"opcodes": "PUSH1 0x80 PUSH1 0x40 MSTORE CALLVALUE DUP1 ISZERO PUSH2 0x10 JUMPI PUSH1 0x0 DUP1 REVERT JUMPDEST POP CALLER PUSH1 0x0 DUP1 PUSH2 0x100 EXP DUP2 SLOAD DUP2 PUSH20 0xFFFFFFFFFFFFFFFFFFFFFFFFFFFFFFFFFFFFFFFF MUL NOT AND SWAP1 DUP4 PUSH20 0xFFFFFFFFFFFFFFFFFFFFFFFFFFFFFFFFFFFFFFFF AND MUL OR SWAP1 SSTORE POP PUSH2 0x1191 DUP1 PUSH2 0x60 PUSH1 0x0 CODECOPY PUSH1 0x0 RETURN INVALID PUSH1 0x80 PUSH1 0x40 MSTORE PUSH1 0x4 CALLDATASIZE LT PUSH2 0x4A JUMPI PUSH1 0x0 CALLDATALOAD PUSH1 0xE0 SHR DUP1 PUSH4 0x4534CD9C EQ PUSH2 0x4F JUMPI DUP1 PUSH4 0x571A26A0 EQ PUSH2 0x8C JUMPI DUP1 PUSH4 0x8DA5CB5B EQ PUSH2 0xD0 JUMPI DUP1 PUSH4 0xD96A094A EQ PUSH2 0xFB JUMPI DUP1 PUSH4 0xE9835D15 EQ PUSH2 0x117 JUMPI JUMPDEST PUSH1 0x0 DUP1 REVERT JUMPDEST CALLVALUE DUP1 ISZERO PUSH2 0x5B JUMPI PUSH1 0x0 DUP1 REVERT JUMPDEST POP PUSH2 0x76 PUSH1 0x4 DUP1 CALLDATASIZE SUB DUP2 ADD SWAP1 PUSH2 0x71 SWAP2 SWAP1 PUSH2 0xA18 JUMP JUMPDEST PUSH2 0x140 JUMP JUMPDEST PUSH1 0x40 MLOAD PUSH2 0x83 SWAP2 SWAP1 PUSH2 0xD1B JUMP JUMPDEST PUSH1 0x40 MLOAD DUP1 SWAP2 SUB SWAP1 RETURN JUMPDEST CALLVALUE DUP1 ISZERO PUSH2 0x98 JUMPI PUSH1 0x0 DUP1 REVERT JUMPDEST POP PUSH2 0xB3 PUSH1 0x4 DUP1 CALLDATASIZE SUB DUP2 ADD SWAP1 PUSH2 0xAE SWAP2 SWAP1 PUSH2 0xA18 JUMP JUMPDEST PUSH2 0x32F JUMP JUMPDEST PUSH1 0x40 MLOAD PUSH2 0xC7 SWAP9 SWAP8 SWAP7 SWAP6 SWAP5 SWAP4 SWAP3 SWAP2 SWAP1 PUSH2 0xC16 JUMP JUMPDEST PUSH1 0x40 MLOAD DUP1 SWAP2 SUB SWAP1 RETURN JUMPDEST CALLVALUE DUP1 ISZERO PUSH2 0xDC JUMPI PUSH1 0x0 DUP1 REVERT JUMPDEST POP PUSH2 0xE5 PUSH2 0x43C JUMP JUMPDEST PUSH1 0x40 MLOAD PUSH2 0xF2 SWAP2 SWAP1 PUSH2 0xBFB JUMP JUMPDEST PUSH1 0x40 MLOAD DUP1 SWAP2 SUB SWAP1 RETURN JUMPDEST PUSH2 0x115 PUSH1 0x4 DUP1 CALLDATASIZE SUB DUP2 ADD SWAP1 PUSH2 0x110 SWAP2 SWAP1 PUSH2 0xA18 JUMP JUMPDEST PUSH2 0x460 JUMP JUMPDEST STOP JUMPDEST CALLVALUE DUP1 ISZERO PUSH2 0x123 JUMPI PUSH1 0x0 DUP1 REVERT JUMPDEST POP PUSH2 0x13E PUSH1 0x4 DUP1 CALLDATASIZE SUB DUP2 ADD SWAP1 PUSH2 0x139 SWAP2 SWAP1 PUSH2 0xA45 JUMP JUMPDEST PUSH2 0x6C4 JUMP JUMPDEST STOP JUMPDEST PUSH1 0x0 DUP1 PUSH1 0x1 DUP4 DUP2 SLOAD DUP2 LT PUSH2 0x157 JUMPI PUSH2 0x156 PUSH2 0x1047 JUMP JUMPDEST JUMPDEST SWAP1 PUSH1 0x0 MSTORE PUSH1 0x20 PUSH1 0x0 KECCAK256 SWAP1 PUSH1 0x8 MUL ADD PUSH1 0x40 MLOAD DUP1 PUSH2 0x100 ADD PUSH1 0x40 MSTORE SWAP1 DUP2 PUSH1 0x0 DUP3 ADD PUSH1 0x0 SWAP1 SLOAD SWAP1 PUSH2 0x100 EXP SWAP1 DIV PUSH20 0xFFFFFFFFFFFFFFFFFFFFFFFFFFFFFFFFFFFFFFFF AND PUSH20 0xFFFFFFFFFFFFFFFFFFFFFFFFFFFFFFFFFFFFFFFF AND PUSH20 0xFFFFFFFFFFFFFFFFFFFFFFFFFFFFFFFFFFFFFFFF AND DUP2 MSTORE PUSH1 0x20 ADD PUSH1 0x1 DUP3 ADD SLOAD DUP2 MSTORE PUSH1 0x20 ADD PUSH1 0x2 DUP3 ADD SLOAD DUP2 MSTORE PUSH1 0x20 ADD PUSH1 0x3 DUP3 ADD SLOAD DUP2 MSTORE PUSH1 0x20 ADD PUSH1 0x4 DUP3 ADD SLOAD DUP2 MSTORE PUSH1 0x20 ADD PUSH1 0x5 DUP3 ADD SLOAD DUP2 MSTORE PUSH1 0x20 ADD PUSH1 0x6 DUP3 ADD DUP1 SLOAD PUSH2 0x209 SWAP1 PUSH2 0xF88 JUMP JUMPDEST DUP1 PUSH1 0x1F ADD PUSH1 0x20 DUP1 SWAP2 DIV MUL PUSH1 0x20 ADD PUSH1 0x40 MLOAD SWAP1 DUP2 ADD PUSH1 0x40 MSTORE DUP1 SWAP3 SWAP2 SWAP1 DUP2 DUP2 MSTORE PUSH1 0x20 ADD DUP3 DUP1 SLOAD PUSH2 0x235 SWAP1 PUSH2 0xF88 JUMP JUMPDEST DUP1 ISZERO PUSH2 0x282 JUMPI DUP1 PUSH1 0x1F LT PUSH2 0x257 JUMPI PUSH2 0x100 DUP1 DUP4 SLOAD DIV MUL DUP4 MSTORE SWAP2 PUSH1 0x20 ADD SWAP2 PUSH2 0x282 JUMP JUMPDEST DUP3 ADD SWAP2 SWAP1 PUSH1 0x0 MSTORE PUSH1 0x20 PUSH1 0x0 KECCAK256 SWAP1 JUMPDEST DUP2 SLOAD DUP2 MSTORE SWAP1 PUSH1 0x1 ADD SWAP1 PUSH1 0x20 ADD DUP1 DUP4 GT PUSH2 0x265 JUMPI DUP3 SWAP1 SUB PUSH1 0x1F AND DUP3 ADD SWAP2 JUMPDEST POP POP POP POP POP DUP2 MSTORE PUSH1 0x20 ADD PUSH1 0x7 DUP3 ADD PUSH1 0x0 SWAP1 SLOAD SWAP1 PUSH2 0x100 EXP SWAP1 DIV PUSH1 0xFF AND ISZERO ISZERO ISZERO ISZERO DUP2 MSTORE POP POP SWAP1 POP DUP1 PUSH1 0xE0 ADD MLOAD ISZERO PUSH2 0x2ED JUMPI PUSH1 0x40 MLOAD PUSH32 0x8C379A000000000000000000000000000000000000000000000000000000000 DUP2 MSTORE PUSH1 0x4 ADD PUSH2 0x2E4 SWAP1 PUSH2 0xCFB JUMP JUMPDEST PUSH1 0x40 MLOAD DUP1 SWAP2 SUB SWAP1 REVERT JUMPDEST PUSH1 0x0 DUP2 PUSH1 0x60 ADD MLOAD TIMESTAMP PUSH2 0x2FF SWAP2 SWAP1 PUSH2 0xEB8 JUMP JUMPDEST SWAP1 POP PUSH1 0x0 DUP2 DUP4 PUSH1 0xA0 ADD MLOAD PUSH2 0x313 SWAP2 SWAP1 PUSH2 0xE5E JUMP JUMPDEST SWAP1 POP DUP1 DUP4 PUSH1 0x20 ADD MLOAD PUSH2 0x325 SWAP2 SWAP1 PUSH2 0xEB8 JUMP JUMPDEST SWAP4 POP POP POP POP SWAP2 SWAP1 POP JUMP JUMPDEST PUSH1 0x1 DUP2 DUP2 SLOAD DUP2 LT PUSH2 0x33F JUMPI PUSH1 0x0 DUP1 REVERT JUMPDEST SWAP1 PUSH1 0x0 MSTORE PUSH1 0x20 PUSH1 0x0 KECCAK256 SWAP1 PUSH1 0x8 MUL ADD PUSH1 0x0 SWAP2 POP SWAP1 POP DUP1 PUSH1 0x0 ADD PUSH1 0x0 SWAP1 SLOAD SWAP1 PUSH2 0x100 EXP SWAP1 DIV PUSH20 0xFFFFFFFFFFFFFFFFFFFFFFFFFFFFFFFFFFFFFFFF AND SWAP1 DUP1 PUSH1 0x1 ADD SLOAD SWAP1 DUP1 PUSH1 0x2 ADD SLOAD SWAP1 DUP1 PUSH1 0x3 ADD SLOAD SWAP1 DUP1 PUSH1 0x4 ADD SLOAD SWAP1 DUP1 PUSH1 0x5 ADD SLOAD SWAP1 DUP1 PUSH1 0x6 ADD DUP1 SLOAD PUSH2 0x3A6 SWAP1 PUSH2 0xF88 JUMP JUMPDEST DUP1 PUSH1 0x1F ADD PUSH1 0x20 DUP1 SWAP2 DIV MUL PUSH1 0x20 ADD PUSH1 0x40 MLOAD SWAP1 DUP2 ADD PUSH1 0x40 MSTORE DUP1 SWAP3 SWAP2 SWAP1 DUP2 DUP2 MSTORE PUSH1 0x20 ADD DUP3 DUP1 SLOAD PUSH2 0x3D2 SWAP1 PUSH2 0xF88 JUMP JUMPDEST DUP1 ISZERO PUSH2 0x41F JUMPI DUP1 PUSH1 0x1F LT PUSH2 0x3F4 JUMPI PUSH2 0x100 DUP1 DUP4 SLOAD DIV MUL DUP4 MSTORE SWAP2 PUSH1 0x20 ADD SWAP2 PUSH2 0x41F JUMP JUMPDEST DUP3 ADD SWAP2 SWAP1 PUSH1 0x0 MSTORE PUSH1 0x20 PUSH1 0x0 KECCAK256 SWAP1 JUMPDEST DUP2 SLOAD DUP2 MSTORE SWAP1 PUSH1 0x1 ADD SWAP1 PUSH1 0x20 ADD DUP1 DUP4 GT PUSH2 0x402 JUMPI DUP3 SWAP1 SUB PUSH1 0x1F AND DUP3 ADD SWAP2 JUMPDEST POP POP POP POP POP SWAP1 DUP1 PUSH1 0x7 ADD PUSH1 0x0 SWAP1 SLOAD SWAP1 PUSH2 0x100 EXP SWAP1 DIV PUSH1 0xFF AND SWAP1 POP DUP9 JUMP JUMPDEST PUSH1 0x0 DUP1 SLOAD SWAP1 PUSH2 0x100 EXP SWAP1 DIV PUSH20 0xFFFFFFFFFFFFFFFFFFFFFFFFFFFFFFFFFFFFFFFF AND DUP2 JUMP JUMPDEST PUSH1 0x0 PUSH1 0x1 DUP3 DUP2 SLOAD DUP2 LT PUSH2 0x476 JUMPI PUSH2 0x475 PUSH2 0x1047 JUMP JUMPDEST JUMPDEST SWAP1 PUSH1 0x0 MSTORE PUSH1 0x20 PUSH1 0x0 KECCAK256 SWAP1 PUSH1 0x8 MUL ADD SWAP1 POP DUP1 PUSH1 0x7 ADD PUSH1 0x0 SWAP1 SLOAD SWAP1 PUSH2 0x100 EXP SWAP1 DIV PUSH1 0xFF AND ISZERO PUSH2 0x4D8 JUMPI PUSH1 0x40 MLOAD PUSH32 0x8C379A000000000000000000000000000000000000000000000000000000000 DUP2 MSTORE PUSH1 0x4 ADD PUSH2 0x4CF SWAP1 PUSH2 0xCFB JUMP JUMPDEST PUSH1 0x40 MLOAD DUP1 SWAP2 SUB SWAP1 REVERT JUMPDEST DUP1 PUSH1 0x4 ADD SLOAD TIMESTAMP LT PUSH2 0x51E JUMPI PUSH1 0x40 MLOAD PUSH32 0x8C379A000000000000000000000000000000000000000000000000000000000 DUP2 MSTORE PUSH1 0x4 ADD PUSH2 0x515 SWAP1 PUSH2 0xCDB JUMP JUMPDEST PUSH1 0x40 MLOAD DUP1 SWAP2 SUB SWAP1 REVERT JUMPDEST PUSH1 0x0 PUSH2 0x529 DUP4 PUSH2 0x140 JUMP JUMPDEST SWAP1 POP DUP1 CALLVALUE LT ISZERO PUSH2 0x56E JUMPI PUSH1 0x40 MLOAD PUSH32 0x8C379A000000000000000000000000000000000000000000000000000000000 DUP2 MSTORE PUSH1 0x4 ADD PUSH2 0x565 SWAP1 PUSH2 0xCBB JUMP JUMPDEST PUSH1 0x40 MLOAD DUP1 SWAP2 SUB SWAP1 REVERT JUMPDEST PUSH1 0x1 DUP3 PUSH1 0x7 ADD PUSH1 0x0 PUSH2 0x100 EXP DUP2 SLOAD DUP2 PUSH1 0xFF MUL NOT AND SWAP1 DUP4 ISZERO ISZERO MUL OR SWAP1 SSTORE POP DUP1 DUP3 PUSH1 0x2 ADD DUP2 SWAP1 SSTORE POP PUSH1 0x0 DUP2 CALLVALUE PUSH2 0x5A2 SWAP2 SWAP1 PUSH2 0xEB8 JUMP JUMPDEST SWAP1 POP PUSH1 0x0 DUP2 GT ISZERO PUSH2 0x5F5 JUMPI CALLER PUSH20 0xFFFFFFFFFFFFFFFFFFFFFFFFFFFFFFFFFFFFFFFF AND PUSH2 0x8FC DUP3 SWAP1 DUP2 ISZERO MUL SWAP1 PUSH1 0x40 MLOAD PUSH1 0x0 PUSH1 0x40 MLOAD DUP1 DUP4 SUB DUP2 DUP6 DUP9 DUP9 CALL SWAP4 POP POP POP POP ISZERO DUP1 ISZERO PUSH2 0x5F3 JUMPI RETURNDATASIZE PUSH1 0x0 DUP1 RETURNDATACOPY RETURNDATASIZE PUSH1 0x0 REVERT JUMPDEST POP JUMPDEST DUP3 PUSH1 0x0 ADD PUSH1 0x0 SWAP1 SLOAD SWAP1 PUSH2 0x100 EXP SWAP1 DIV PUSH20 0xFFFFFFFFFFFFFFFFFFFFFFFFFFFFFFFFFFFFFFFF AND PUSH20 0xFFFFFFFFFFFFFFFFFFFFFFFFFFFFFFFFFFFFFFFF AND PUSH2 0x8FC PUSH1 0x64 PUSH1 0xA DUP6 PUSH2 0x642 SWAP2 SWAP1 PUSH2 0xE5E JUMP JUMPDEST PUSH2 0x64C SWAP2 SWAP1 PUSH2 0xE2D JUMP JUMPDEST DUP5 PUSH2 0x657 SWAP2 SWAP1 PUSH2 0xEB8 JUMP JUMPDEST SWAP1 DUP2 ISZERO MUL SWAP1 PUSH1 0x40 MLOAD PUSH1 0x0 PUSH1 0x40 MLOAD DUP1 DUP4 SUB DUP2 DUP6 DUP9 DUP9 CALL SWAP4 POP POP POP POP ISZERO DUP1 ISZERO PUSH2 0x682 JUMPI RETURNDATASIZE PUSH1 0x0 DUP1 RETURNDATACOPY RETURNDATASIZE PUSH1 0x0 REVERT JUMPDEST POP PUSH32 0xBAFC4BDA865D4D1F8D5B16F883E996FDE0FE71112FAC81503876D35375694400 DUP5 DUP4 CALLER PUSH1 0x40 MLOAD PUSH2 0x6B6 SWAP4 SWAP3 SWAP2 SWAP1 PUSH2 0xD84 JUMP JUMPDEST PUSH1 0x40 MLOAD DUP1 SWAP2 SUB SWAP1 LOG1 POP POP POP POP JUMP JUMPDEST PUSH1 0x0 DUP1 DUP3 EQ PUSH2 0x6D3 JUMPI DUP2 PUSH2 0x6D8 JUMP JUMPDEST PUSH3 0x2A300 JUMPDEST SWAP1 POP DUP1 DUP6 PUSH2 0x6E6 SWAP2 SWAP1 PUSH2 0xE5E JUMP JUMPDEST DUP7 LT ISZERO PUSH2 0x728 JUMPI PUSH1 0x40 MLOAD PUSH32 0x8C379A000000000000000000000000000000000000000000000000000000000 DUP2 MSTORE PUSH1 0x4 ADD PUSH2 0x71F SWAP1 PUSH2 0xC9B JUMP JUMPDEST PUSH1 0x40 MLOAD DUP1 SWAP2 SUB SWAP1 REVERT JUMPDEST PUSH1 0x0 PUSH1 0x40 MLOAD DUP1 PUSH2 0x100 ADD PUSH1 0x40 MSTORE DUP1 CALLER PUSH20 0xFFFFFFFFFFFFFFFFFFFFFFFFFFFFFFFFFFFFFFFF AND DUP2 MSTORE PUSH1 0x20 ADD DUP9 DUP2 MSTORE PUSH1 0x20 ADD DUP9 DUP2 MSTORE PUSH1 0x20 ADD TIMESTAMP DUP2 MSTORE PUSH1 0x20 ADD DUP4 TIMESTAMP PUSH2 0x770 SWAP2 SWAP1 PUSH2 0xDD7 JUMP JUMPDEST DUP2 MSTORE PUSH1 0x20 ADD DUP8 DUP2 MSTORE PUSH1 0x20 ADD DUP7 DUP7 DUP1 DUP1 PUSH1 0x1F ADD PUSH1 0x20 DUP1 SWAP2 DIV MUL PUSH1 0x20 ADD PUSH1 0x40 MLOAD SWAP1 DUP2 ADD PUSH1 0x40 MSTORE DUP1 SWAP4 SWAP3 SWAP2 SWAP1 DUP2 DUP2 MSTORE PUSH1 0x20 ADD DUP4 DUP4 DUP1 DUP3 DUP5 CALLDATACOPY PUSH1 0x0 DUP2 DUP5 ADD MSTORE PUSH1 0x1F NOT PUSH1 0x1F DUP3 ADD AND SWAP1 POP DUP1 DUP4 ADD SWAP3 POP POP POP POP POP POP POP DUP2 MSTORE PUSH1 0x20 ADD PUSH1 0x0 ISZERO ISZERO DUP2 MSTORE POP SWAP1 POP PUSH1 0x1 DUP2 SWAP1 DUP1 PUSH1 0x1 DUP2 SLOAD ADD DUP1 DUP3 SSTORE DUP1 SWAP2 POP POP PUSH1 0x1 SWAP1 SUB SWAP1 PUSH1 0x0 MSTORE PUSH1 0x20 PUSH1 0x0 KECCAK256 SWAP1 PUSH1 0x8 MUL ADD PUSH1 0x0 SWAP1 SWAP2 SWAP1 SWAP2 SWAP1 SWAP2 POP PUSH1 0x0 DUP3 ADD MLOAD DUP2 PUSH1 0x0 ADD PUSH1 0x0 PUSH2 0x100 EXP DUP2 SLOAD DUP2 PUSH20 0xFFFFFFFFFFFFFFFFFFFFFFFFFFFFFFFFFFFFFFFF MUL NOT AND SWAP1 DUP4 PUSH20 0xFFFFFFFFFFFFFFFFFFFFFFFFFFFFFFFFFFFFFFFF AND MUL OR SWAP1 SSTORE POP PUSH1 0x20 DUP3 ADD MLOAD DUP2 PUSH1 0x1 ADD SSTORE PUSH1 0x40 DUP3 ADD MLOAD DUP2 PUSH1 0x2 ADD SSTORE PUSH1 0x60 DUP3 ADD MLOAD DUP2 PUSH1 0x3 ADD SSTORE PUSH1 0x80 DUP3 ADD MLOAD DUP2 PUSH1 0x4 ADD SSTORE PUSH1 0xA0 DUP3 ADD MLOAD DUP2 PUSH1 0x5 ADD SSTORE PUSH1 0xC0 DUP3 ADD MLOAD DUP2 PUSH1 0x6 ADD SWAP1 DUP1 MLOAD SWAP1 PUSH1 0x20 ADD SWAP1 PUSH2 0x88F SWAP3 SWAP2 SWAP1 PUSH2 0x90A JUMP JUMPDEST POP PUSH1 0xE0 DUP3 ADD MLOAD DUP2 PUSH1 0x7 ADD PUSH1 0x0 PUSH2 0x100 EXP DUP2 SLOAD DUP2 PUSH1 0xFF MUL NOT AND SWAP1 DUP4 ISZERO ISZERO MUL OR SWAP1 SSTORE POP POP POP PUSH32 0x5BF34ED94988E5DCDC7D1FAAA54EB1D3B55F45D5F11457E235AFB21A8EBBE73C PUSH1 0x1 DUP1 DUP1 SLOAD SWAP1 POP PUSH2 0x8E4 SWAP2 SWAP1 PUSH2 0xEB8 JUMP JUMPDEST DUP7 DUP7 DUP11 DUP7 PUSH1 0x40 MLOAD PUSH2 0x8F9 SWAP6 SWAP5 SWAP4 SWAP3 SWAP2 SWAP1 PUSH2 0xD36 JUMP JUMPDEST PUSH1 0x40 MLOAD DUP1 SWAP2 SUB SWAP1 LOG1 POP POP POP POP POP POP POP JUMP JUMPDEST DUP3 DUP1 SLOAD PUSH2 0x916 SWAP1 PUSH2 0xF88 JUMP JUMPDEST SWAP1 PUSH1 0x0 MSTORE PUSH1 0x20 PUSH1 0x0 KECCAK256 SWAP1 PUSH1 0x1F ADD PUSH1 0x20 SWAP1 DIV DUP2 ADD SWAP3 DUP3 PUSH2 0x938 JUMPI PUSH1 0x0 DUP6 SSTORE PUSH2 0x97F JUMP JUMPDEST DUP3 PUSH1 0x1F LT PUSH2 0x951 JUMPI DUP1 MLOAD PUSH1 0xFF NOT AND DUP4 DUP1 ADD OR DUP6 SSTORE PUSH2 0x97F JUMP JUMPDEST DUP3 DUP1 ADD PUSH1 0x1 ADD DUP6 SSTORE DUP3 ISZERO PUSH2 0x97F JUMPI SWAP2 DUP3 ADD JUMPDEST DUP3 DUP2 GT ISZERO PUSH2 0x97E JUMPI DUP3 MLOAD DUP3 SSTORE SWAP2 PUSH1 0x20 ADD SWAP2 SWAP1 PUSH1 0x1 ADD SWAP1 PUSH2 0x963 JUMP JUMPDEST JUMPDEST POP SWAP1 POP PUSH2 0x98C SWAP2 SWAP1 PUSH2 0x990 JUMP JUMPDEST POP SWAP1 JUMP JUMPDEST JUMPDEST DUP1 DUP3 GT ISZERO PUSH2 0x9A9 JUMPI PUSH1 0x0 DUP2 PUSH1 0x0 SWAP1 SSTORE POP PUSH1 0x1 ADD PUSH2 0x991 JUMP JUMPDEST POP SWAP1 JUMP JUMPDEST PUSH1 0x0 DUP1 DUP4 PUSH1 0x1F DUP5 ADD SLT PUSH2 0x9C3 JUMPI PUSH2 0x9C2 PUSH2 0x107B JUMP JUMPDEST JUMPDEST DUP3 CALLDATALOAD SWAP1 POP PUSH8 0xFFFFFFFFFFFFFFFF DUP2 GT ISZERO PUSH2 0x9E0 JUMPI PUSH2 0x9DF PUSH2 0x1076 JUMP JUMPDEST JUMPDEST PUSH1 0x20 DUP4 ADD SWAP2 POP DUP4 PUSH1 0x1 DUP3 MUL DUP4 ADD GT ISZERO PUSH2 0x9FC JUMPI PUSH2 0x9FB PUSH2 0x1080 JUMP JUMPDEST JUMPDEST SWAP3 POP SWAP3 SWAP1 POP JUMP JUMPDEST PUSH1 0x0 DUP2 CALLDATALOAD SWAP1 POP PUSH2 0xA12 DUP2 PUSH2 0x1144 JUMP JUMPDEST SWAP3 SWAP2 POP POP JUMP JUMPDEST PUSH1 0x0 PUSH1 0x20 DUP3 DUP5 SUB SLT ISZERO PUSH2 0xA2E JUMPI PUSH2 0xA2D PUSH2 0x108A JUMP JUMPDEST JUMPDEST PUSH1 0x0 PUSH2 0xA3C DUP5 DUP3 DUP6 ADD PUSH2 0xA03 JUMP JUMPDEST SWAP2 POP POP SWAP3 SWAP2 POP POP JUMP JUMPDEST PUSH1 0x0 DUP1 PUSH1 0x0 DUP1 PUSH1 0x0 PUSH1 0x80 DUP7 DUP9 SUB SLT ISZERO PUSH2 0xA61 JUMPI PUSH2 0xA60 PUSH2 0x108A JUMP JUMPDEST JUMPDEST PUSH1 0x0 PUSH2 0xA6F DUP9 DUP3 DUP10 ADD PUSH2 0xA03 JUMP JUMPDEST SWAP6 POP POP PUSH1 0x20 PUSH2 0xA80 DUP9 DUP3 DUP10 ADD PUSH2 0xA03 JUMP JUMPDEST SWAP5 POP POP PUSH1 0x40 DUP7 ADD CALLDATALOAD PUSH8 0xFFFFFFFFFFFFFFFF DUP2 GT ISZERO PUSH2 0xAA1 JUMPI PUSH2 0xAA0 PUSH2 0x1085 JUMP JUMPDEST JUMPDEST PUSH2 0xAAD DUP9 DUP3 DUP10 ADD PUSH2 0x9AD JUMP JUMPDEST SWAP4 POP SWAP4 POP POP PUSH1 0x60 PUSH2 0xAC0 DUP9 DUP3 DUP10 ADD PUSH2 0xA03 JUMP JUMPDEST SWAP2 POP POP SWAP3 SWAP6 POP SWAP3 SWAP6 SWAP1 SWAP4 POP JUMP JUMPDEST PUSH2 0xAD6 DUP2 PUSH2 0xEFE JUMP JUMPDEST DUP3 MSTORE POP POP JUMP JUMPDEST PUSH2 0xAE5 DUP2 PUSH2 0xEEC JUMP JUMPDEST DUP3 MSTORE POP POP JUMP JUMPDEST PUSH2 0xAF4 DUP2 PUSH2 0xF10 JUMP JUMPDEST DUP3 MSTORE POP POP JUMP JUMPDEST PUSH1 0x0 PUSH2 0xB06 DUP4 DUP6 PUSH2 0xDC6 JUMP JUMPDEST SWAP4 POP PUSH2 0xB13 DUP4 DUP6 DUP5 PUSH2 0xF46 JUMP JUMPDEST PUSH2 0xB1C DUP4 PUSH2 0x108F JUMP JUMPDEST DUP5 ADD SWAP1 POP SWAP4 SWAP3 POP POP POP JUMP JUMPDEST PUSH1 0x0 PUSH2 0xB32 DUP3 PUSH2 0xDBB JUMP JUMPDEST PUSH2 0xB3C DUP2 DUP6 PUSH2 0xDC6 JUMP JUMPDEST SWAP4 POP PUSH2 0xB4C DUP2 DUP6 PUSH1 0x20 DUP7 ADD PUSH2 0xF55 JUMP JUMPDEST PUSH2 0xB55 DUP2 PUSH2 0x108F JUMP JUMPDEST DUP5 ADD SWAP2 POP POP SWAP3 SWAP2 POP POP JUMP JUMPDEST PUSH1 0x0 PUSH2 0xB6D PUSH1 0x18 DUP4 PUSH2 0xDC6 JUMP JUMPDEST SWAP2 POP PUSH2 0xB78 DUP3 PUSH2 0x10A0 JUMP JUMPDEST PUSH1 0x20 DUP3 ADD SWAP1 POP SWAP2 SWAP1 POP JUMP JUMPDEST PUSH1 0x0 PUSH2 0xB90 PUSH1 0x12 DUP4 PUSH2 0xDC6 JUMP JUMPDEST SWAP2 POP PUSH2 0xB9B DUP3 PUSH2 0x10C9 JUMP JUMPDEST PUSH1 0x20 DUP3 ADD SWAP1 POP SWAP2 SWAP1 POP JUMP JUMPDEST PUSH1 0x0 PUSH2 0xBB3 PUSH1 0x4 DUP4 PUSH2 0xDC6 JUMP JUMPDEST SWAP2 POP PUSH2 0xBBE DUP3 PUSH2 0x10F2 JUMP JUMPDEST PUSH1 0x20 DUP3 ADD SWAP1 POP SWAP2 SWAP1 POP JUMP JUMPDEST PUSH1 0x0 PUSH2 0xBD6 PUSH1 0x8 DUP4 PUSH2 0xDC6 JUMP JUMPDEST SWAP2 POP PUSH2 0xBE1 DUP3 PUSH2 0x111B JUMP JUMPDEST PUSH1 0x20 DUP3 ADD SWAP1 POP SWAP2 SWAP1 POP JUMP JUMPDEST PUSH2 0xBF5 DUP2 PUSH2 0xF3C JUMP JUMPDEST DUP3 MSTORE POP POP JUMP JUMPDEST PUSH1 0x0 PUSH1 0x20 DUP3 ADD SWAP1 POP PUSH2 0xC10 PUSH1 0x0 DUP4 ADD DUP5 PUSH2 0xADC JUMP JUMPDEST SWAP3 SWAP2 POP POP JUMP JUMPDEST PUSH1 0x0 PUSH2 0x100 DUP3 ADD SWAP1 POP PUSH2 0xC2C PUSH1 0x0 DUP4 ADD DUP12 PUSH2 0xACD JUMP JUMPDEST PUSH2 0xC39 PUSH1 0x20 DUP4 ADD DUP11 PUSH2 0xBEC JUMP JUMPDEST PUSH2 0xC46 PUSH1 0x40 DUP4 ADD DUP10 PUSH2 0xBEC JUMP JUMPDEST PUSH2 0xC53 PUSH1 0x60 DUP4 ADD DUP9 PUSH2 0xBEC JUMP JUMPDEST PUSH2 0xC60 PUSH1 0x80 DUP4 ADD DUP8 PUSH2 0xBEC JUMP JUMPDEST PUSH2 0xC6D PUSH1 0xA0 DUP4 ADD DUP7 PUSH2 0xBEC JUMP JUMPDEST DUP2 DUP2 SUB PUSH1 0xC0 DUP4 ADD MSTORE PUSH2 0xC7F DUP2 DUP6 PUSH2 0xB27 JUMP JUMPDEST SWAP1 POP PUSH2 0xC8E PUSH1 0xE0 DUP4 ADD DUP5 PUSH2 0xAEB JUMP JUMPDEST SWAP10 SWAP9 POP POP POP POP POP POP POP POP POP JUMP JUMPDEST PUSH1 0x0 PUSH1 0x20 DUP3 ADD SWAP1 POP DUP2 DUP2 SUB PUSH1 0x0 DUP4 ADD MSTORE PUSH2 0xCB4 DUP2 PUSH2 0xB60 JUMP JUMPDEST SWAP1 POP SWAP2 SWAP1 POP JUMP JUMPDEST PUSH1 0x0 PUSH1 0x20 DUP3 ADD SWAP1 POP DUP2 DUP2 SUB PUSH1 0x0 DUP4 ADD MSTORE PUSH2 0xCD4 DUP2 PUSH2 0xB83 JUMP JUMPDEST SWAP1 POP SWAP2 SWAP1 POP JUMP JUMPDEST PUSH1 0x0 PUSH1 0x20 DUP3 ADD SWAP1 POP DUP2 DUP2 SUB PUSH1 0x0 DUP4 ADD MSTORE PUSH2 0xCF4 DUP2 PUSH2 0xBA6 JUMP JUMPDEST SWAP1 POP SWAP2 SWAP1 POP JUMP JUMPDEST PUSH1 0x0 PUSH1 0x20 DUP3 ADD SWAP1 POP DUP2 DUP2 SUB PUSH1 0x0 DUP4 ADD MSTORE PUSH2 0xD14 DUP2 PUSH2 0xBC9 JUMP JUMPDEST SWAP1 POP SWAP2 SWAP1 POP JUMP JUMPDEST PUSH1 0x0 PUSH1 0x20 DUP3 ADD SWAP1 POP PUSH2 0xD30 PUSH1 0x0 DUP4 ADD DUP5 PUSH2 0xBEC JUMP JUMPDEST SWAP3 SWAP2 POP POP JUMP JUMPDEST PUSH1 0x0 PUSH1 0x80 DUP3 ADD SWAP1 POP PUSH2 0xD4B PUSH1 0x0 DUP4 ADD DUP9 PUSH2 0xBEC JUMP JUMPDEST DUP2 DUP2 SUB PUSH1 0x20 DUP4 ADD MSTORE PUSH2 0xD5E DUP2 DUP7 DUP9 PUSH2 0xAFA JUMP JUMPDEST SWAP1 POP PUSH2 0xD6D PUSH1 0x40 DUP4 ADD DUP6 PUSH2 0xBEC JUMP JUMPDEST PUSH2 0xD7A PUSH1 0x60 DUP4 ADD DUP5 PUSH2 0xBEC JUMP JUMPDEST SWAP7 SWAP6 POP POP POP POP POP POP JUMP JUMPDEST PUSH1 0x0 PUSH1 0x60 DUP3 ADD SWAP1 POP PUSH2 0xD99 PUSH1 0x0 DUP4 ADD DUP7 PUSH2 0xBEC JUMP JUMPDEST PUSH2 0xDA6 PUSH1 0x20 DUP4 ADD DUP6 PUSH2 0xBEC JUMP JUMPDEST PUSH2 0xDB3 PUSH1 0x40 DUP4 ADD DUP5 PUSH2 0xADC JUMP JUMPDEST SWAP5 SWAP4 POP POP POP POP JUMP JUMPDEST PUSH1 0x0 DUP2 MLOAD SWAP1 POP SWAP2 SWAP1 POP JUMP JUMPDEST PUSH1 0x0 DUP3 DUP3 MSTORE PUSH1 0x20 DUP3 ADD SWAP1 POP SWAP3 SWAP2 POP POP JUMP JUMPDEST PUSH1 0x0 PUSH2 0xDE2 DUP3 PUSH2 0xF3C JUMP JUMPDEST SWAP2 POP PUSH2 0xDED DUP4 PUSH2 0xF3C JUMP JUMPDEST SWAP3 POP DUP3 PUSH32 0xFFFFFFFFFFFFFFFFFFFFFFFFFFFFFFFFFFFFFFFFFFFFFFFFFFFFFFFFFFFFFFFF SUB DUP3 GT ISZERO PUSH2 0xE22 JUMPI PUSH2 0xE21 PUSH2 0xFBA JUMP JUMPDEST JUMPDEST DUP3 DUP3 ADD SWAP1 POP SWAP3 SWAP2 POP POP JUMP JUMPDEST PUSH1 0x0 PUSH2 0xE38 DUP3 PUSH2 0xF3C JUMP JUMPDEST SWAP2 POP PUSH2 0xE43 DUP4 PUSH2 0xF3C JUMP JUMPDEST SWAP3 POP DUP3 PUSH2 0xE53 JUMPI PUSH2 0xE52 PUSH2 0xFE9 JUMP JUMPDEST JUMPDEST DUP3 DUP3 DIV SWAP1 POP SWAP3 SWAP2 POP POP JUMP JUMPDEST PUSH1 0x0 PUSH2 0xE69 DUP3 PUSH2 0xF3C JUMP JUMPDEST SWAP2 POP PUSH2 0xE74 DUP4 PUSH2 0xF3C JUMP JUMPDEST SWAP3 POP DUP2 PUSH32 0xFFFFFFFFFFFFFFFFFFFFFFFFFFFFFFFFFFFFFFFFFFFFFFFFFFFFFFFFFFFFFFFF DIV DUP4 GT DUP3 ISZERO ISZERO AND ISZERO PUSH2 0xEAD JUMPI PUSH2 0xEAC PUSH2 0xFBA JUMP JUMPDEST JUMPDEST DUP3 DUP3 MUL SWAP1 POP SWAP3 SWAP2 POP POP JUMP JUMPDEST PUSH1 0x0 PUSH2 0xEC3 DUP3 PUSH2 0xF3C JUMP JUMPDEST SWAP2 POP PUSH2 0xECE DUP4 PUSH2 0xF3C JUMP JUMPDEST SWAP3 POP DUP3 DUP3 LT ISZERO PUSH2 0xEE1 JUMPI PUSH2 0xEE0 PUSH2 0xFBA JUMP JUMPDEST JUMPDEST DUP3 DUP3 SUB SWAP1 POP SWAP3 SWAP2 POP POP JUMP JUMPDEST PUSH1 0x0 PUSH2 0xEF7 DUP3 PUSH2 0xF1C JUMP JUMPDEST SWAP1 POP SWAP2 SWAP1 POP JUMP JUMPDEST PUSH1 0x0 PUSH2 0xF09 DUP3 PUSH2 0xF1C JUMP JUMPDEST SWAP1 POP SWAP2 SWAP1 POP JUMP JUMPDEST PUSH1 0x0 DUP2 ISZERO ISZERO SWAP1 POP SWAP2 SWAP1 POP JUMP JUMPDEST PUSH1 0x0 PUSH20 0xFFFFFFFFFFFFFFFFFFFFFFFFFFFFFFFFFFFFFFFF DUP3 AND SWAP1 POP SWAP2 SWAP1 POP JUMP JUMPDEST PUSH1 0x0 DUP2 SWAP1 POP SWAP2 SWAP1 POP JUMP JUMPDEST DUP3 DUP2 DUP4 CALLDATACOPY PUSH1 0x0 DUP4 DUP4 ADD MSTORE POP POP POP JUMP JUMPDEST PUSH1 0x0 JUMPDEST DUP4 DUP2 LT ISZERO PUSH2 0xF73 JUMPI DUP1 DUP3 ADD MLOAD DUP2 DUP5 ADD MSTORE PUSH1 0x20 DUP2 ADD SWAP1 POP PUSH2 0xF58 JUMP JUMPDEST DUP4 DUP2 GT ISZERO PUSH2 0xF82 JUMPI PUSH1 0x0 DUP5 DUP5 ADD MSTORE JUMPDEST POP POP POP POP JUMP JUMPDEST PUSH1 0x0 PUSH1 0x2 DUP3 DIV SWAP1 POP PUSH1 0x1 DUP3 AND DUP1 PUSH2 0xFA0 JUMPI PUSH1 0x7F DUP3 AND SWAP2 POP JUMPDEST PUSH1 0x20 DUP3 LT DUP2 EQ ISZERO PUSH2 0xFB4 JUMPI PUSH2 0xFB3 PUSH2 0x1018 JUMP JUMPDEST JUMPDEST POP SWAP2 SWAP1 POP JUMP JUMPDEST PUSH32 0x4E487B7100000000000000000000000000000000000000000000000000000000 PUSH1 0x0 MSTORE PUSH1 0x11 PUSH1 0x4 MSTORE PUSH1 0x24 PUSH1 0x0 REVERT JUMPDEST PUSH32 0x4E487B7100000000000000000000000000000000000000000000000000000000 PUSH1 0x0 MSTORE PUSH1 0x12 PUSH1 0x4 MSTORE PUSH1 0x24 PUSH1 0x0 REVERT JUMPDEST PUSH32 0x4E487B7100000000000000000000000000000000000000000000000000000000 PUSH1 0x0 MSTORE PUSH1 0x22 PUSH1 0x4 MSTORE PUSH1 0x24 PUSH1 0x0 REVERT JUMPDEST PUSH32 0x4E487B7100000000000000000000000000000000000000000000000000000000 PUSH1 0x0 MSTORE PUSH1 0x32 PUSH1 0x4 MSTORE PUSH1 0x24 PUSH1 0x0 REVERT JUMPDEST PUSH1 0x0 DUP1 REVERT JUMPDEST PUSH1 0x0 DUP1 REVERT JUMPDEST PUSH1 0x0 DUP1 REVERT JUMPDEST PUSH1 0x0 DUP1 REVERT JUMPDEST PUSH1 0x0 DUP1 REVERT JUMPDEST PUSH1 0x0 PUSH1 0x1F NOT PUSH1 0x1F DUP4 ADD AND SWAP1 POP SWAP2 SWAP1 POP JUMP JUMPDEST PUSH32 0x696E636F7272656374207374617274696E672070726963650000000000000000 PUSH1 0x0 DUP3 ADD MSTORE POP JUMP JUMPDEST PUSH32 0x206E6F7420656E6F756768206D6F6E6579210000000000000000000000000000 PUSH1 0x0 DUP3 ADD MSTORE POP JUMP JUMPDEST PUSH32 0x656E642100000000000000000000000000000000000000000000000000000000 PUSH1 0x0 DUP3 ADD MSTORE POP JUMP JUMPDEST PUSH32 0x73746F7070656421000000000000000000000000000000000000000000000000 PUSH1 0x0 DUP3 ADD MSTORE POP JUMP JUMPDEST PUSH2 0x114D DUP2 PUSH2 0xF3C JUMP JUMPDEST DUP2 EQ PUSH2 0x1158 JUMPI PUSH1 0x0 DUP1 REVERT JUMPDEST POP JUMP INVALID LOG2 PUSH5 0x6970667358 0x22 SLT KECCAK256 DUP2 NOT DUP6 0x2F 0x21 0xF6 0x22 EQ SWAP4 0xF7 0xFB PUSH21 0x6140625C3C3A6821B82E6D89244CAE0D4E4CCA0464 PUSH20 0x6F6C634300080700330000000000000000000000 "
				},
				"gasEstimates": {
					"creation": {
						"codeDepositCost": "899400",
						"executionCost": "25201",
						"totalCost": "924601"
					},
					"external": {
						"auctions(uint256)": "infinite",
						"buy(uint256)": "infinite",
						"createAuction(uint256,uint256,string,uint256)": "infinite",
						"getPriceFor(uint256)": "infinite",
						"owner()": "2533"
					}
				},
				"methodIdentifiers": {
					"auctions(uint256)": "571a26a0",
					"buy(uint256)": "d96a094a",
					"createAuction(uint256,uint256,string,uint256)": "e9835d15",
					"getPriceFor(uint256)": "4534cd9c",
					"owner()": "8da5cb5b"
				}
			},
			"storageLayout": {
				"storage": [
					{
						"astId": 3,
						"contract": "coin.sol:AucEngine",
						"label": "owner",
						"offset": 0,
						"slot": "0",
						"type": "t_address"
					},
					{
						"astId": 30,
						"contract": "coin.sol:AucEngine",
						"label": "auctions",
						"offset": 0,
						"slot": "1",
						"type": "t_array(t_struct(Auction)26_storage)dyn_storage"
					}
				],
				"types": {
					"t_address": {
						"encoding": "inplace",
						"label": "address",
						"numberOfBytes": "20"
					},
					"t_address_payable": {
						"encoding": "inplace",
						"label": "address payable",
						"numberOfBytes": "20"
					},
					"t_array(t_struct(Auction)26_storage)dyn_storage": {
						"base": "t_struct(Auction)26_storage",
						"encoding": "dynamic_array",
						"label": "struct AucEngine.Auction[]",
						"numberOfBytes": "32"
					},
					"t_bool": {
						"encoding": "inplace",
						"label": "bool",
						"numberOfBytes": "1"
					},
					"t_string_storage": {
						"encoding": "bytes",
						"label": "string",
						"numberOfBytes": "32"
					},
					"t_struct(Auction)26_storage": {
						"encoding": "inplace",
						"label": "struct AucEngine.Auction",
						"members": [
							{
								"astId": 11,
								"contract": "coin.sol:AucEngine",
								"label": "seller",
								"offset": 0,
								"slot": "0",
								"type": "t_address_payable"
							},
							{
								"astId": 13,
								"contract": "coin.sol:AucEngine",
								"label": "startingPrice",
								"offset": 0,
								"slot": "1",
								"type": "t_uint256"
							},
							{
								"astId": 15,
								"contract": "coin.sol:AucEngine",
								"label": "finalPrice",
								"offset": 0,
								"slot": "2",
								"type": "t_uint256"
							},
							{
								"astId": 17,
								"contract": "coin.sol:AucEngine",
								"label": "startAt",
								"offset": 0,
								"slot": "3",
								"type": "t_uint256"
							},
							{
								"astId": 19,
								"contract": "coin.sol:AucEngine",
								"label": "endsAt",
								"offset": 0,
								"slot": "4",
								"type": "t_uint256"
							},
							{
								"astId": 21,
								"contract": "coin.sol:AucEngine",
								"label": "discountRate",
								"offset": 0,
								"slot": "5",
								"type": "t_uint256"
							},
							{
								"astId": 23,
								"contract": "coin.sol:AucEngine",
								"label": "item",
								"offset": 0,
								"slot": "6",
								"type": "t_string_storage"
							},
							{
								"astId": 25,
								"contract": "coin.sol:AucEngine",
								"label": "stopped",
								"offset": 0,
								"slot": "7",
								"type": "t_bool"
							}
						],
						"numberOfBytes": "256"
					},
					"t_uint256": {
						"encoding": "inplace",
						"label": "uint256",
						"numberOfBytes": "32"
					}
				}
			},
			"userdoc": {
				"kind": "user",
				"methods": {},
				"version": 1
			}
		}
	}
}